{
  "contractName": "KeepRandomBeaconOperator",
  "abi": [
    {
      "inputs": [
        {
          "internalType": "address",
          "name": "_serviceContract",
          "type": "address"
        },
        {
          "internalType": "address",
          "name": "_stakingContract",
          "type": "address"
        }
      ],
      "payable": false,
      "stateMutability": "nonpayable",
      "type": "constructor"
    },
    {
      "anonymous": false,
      "inputs": [
        {
          "indexed": false,
          "internalType": "bytes",
          "name": "groupPubKey",
          "type": "bytes"
        }
      ],
      "name": "DkgResultPublishedEvent",
      "type": "event"
    },
    {
      "anonymous": false,
      "inputs": [
        {
          "indexed": true,
          "internalType": "address",
          "name": "beneficiary",
          "type": "address"
        },
        {
          "indexed": false,
          "internalType": "address",
          "name": "operator",
          "type": "address"
        },
        {
          "indexed": false,
          "internalType": "uint256",
          "name": "amount",
          "type": "uint256"
        },
        {
          "indexed": false,
          "internalType": "uint256",
          "name": "groupIndex",
          "type": "uint256"
        }
      ],
      "name": "GroupMemberRewardsWithdrawn",
      "type": "event"
    },
    {
      "anonymous": false,
      "inputs": [
        {
          "indexed": false,
          "internalType": "uint256",
          "name": "newEntry",
          "type": "uint256"
        }
      ],
      "name": "GroupSelectionStarted",
      "type": "event"
    },
    {
      "anonymous": false,
      "inputs": [
        {
          "indexed": false,
          "internalType": "bytes",
          "name": "groupPubKey",
          "type": "bytes"
        }
      ],
      "name": "OnGroupRegistered",
      "type": "event"
    },
    {
      "anonymous": false,
      "inputs": [
        {
          "indexed": false,
          "internalType": "bytes",
          "name": "previousEntry",
          "type": "bytes"
        },
        {
          "indexed": false,
          "internalType": "bytes",
          "name": "groupPublicKey",
          "type": "bytes"
        }
      ],
      "name": "RelayEntryRequested",
      "type": "event"
    },
    {
      "anonymous": false,
      "inputs": [],
      "name": "RelayEntrySubmitted",
      "type": "event"
    },
    {
      "constant": true,
      "inputs": [],
      "name": "dkgGasEstimate",
      "outputs": [
        {
          "internalType": "uint256",
          "name": "",
          "type": "uint256"
        }
      ],
      "payable": false,
      "stateMutability": "view",
      "type": "function"
    },
    {
      "constant": true,
      "inputs": [],
      "name": "dkgSubmitterReimbursementFee",
      "outputs": [
        {
          "internalType": "uint256",
          "name": "",
          "type": "uint256"
        }
      ],
      "payable": false,
      "stateMutability": "view",
      "type": "function"
    },
    {
      "constant": true,
      "inputs": [],
      "name": "entryVerificationGasEstimate",
      "outputs": [
        {
          "internalType": "uint256",
          "name": "",
          "type": "uint256"
        }
      ],
      "payable": false,
      "stateMutability": "view",
      "type": "function"
    },
    {
      "constant": true,
      "inputs": [],
      "name": "fluctuationMargin",
      "outputs": [
        {
          "internalType": "uint256",
          "name": "",
          "type": "uint256"
        }
      ],
      "payable": false,
      "stateMutability": "view",
      "type": "function"
    },
    {
      "constant": true,
      "inputs": [],
      "name": "groupMemberBaseReward",
      "outputs": [
        {
          "internalType": "uint256",
          "name": "",
          "type": "uint256"
        }
      ],
      "payable": false,
      "stateMutability": "view",
      "type": "function"
    },
    {
      "constant": true,
      "inputs": [],
      "name": "groupSelectionGasEstimate",
      "outputs": [
        {
          "internalType": "uint256",
          "name": "",
          "type": "uint256"
        }
      ],
      "payable": false,
      "stateMutability": "view",
      "type": "function"
    },
    {
      "constant": true,
      "inputs": [],
      "name": "groupSize",
      "outputs": [
        {
          "internalType": "uint256",
          "name": "",
          "type": "uint256"
        }
      ],
      "payable": false,
      "stateMutability": "view",
      "type": "function"
    },
    {
      "constant": true,
      "inputs": [],
      "name": "groupThreshold",
      "outputs": [
        {
          "internalType": "uint256",
          "name": "",
          "type": "uint256"
        }
      ],
      "payable": false,
      "stateMutability": "view",
      "type": "function"
    },
    {
      "constant": true,
      "inputs": [],
      "name": "minimumStake",
      "outputs": [
        {
          "internalType": "uint256",
          "name": "",
          "type": "uint256"
        }
      ],
      "payable": false,
      "stateMutability": "view",
      "type": "function"
    },
    {
      "constant": true,
      "inputs": [],
      "name": "priceFeedEstimate",
      "outputs": [
        {
          "internalType": "uint256",
          "name": "",
          "type": "uint256"
        }
      ],
      "payable": false,
      "stateMutability": "view",
      "type": "function"
    },
    {
      "constant": true,
      "inputs": [],
      "name": "relayEntryGenerationTime",
      "outputs": [
        {
          "internalType": "uint256",
          "name": "",
          "type": "uint256"
        }
      ],
      "payable": false,
      "stateMutability": "view",
      "type": "function"
    },
    {
      "constant": true,
      "inputs": [],
      "name": "relayEntryTimeout",
      "outputs": [
        {
          "internalType": "uint256",
          "name": "",
          "type": "uint256"
        }
      ],
      "payable": false,
      "stateMutability": "view",
      "type": "function"
    },
    {
      "constant": true,
      "inputs": [],
      "name": "resultPublicationBlockStep",
      "outputs": [
        {
          "internalType": "uint256",
          "name": "",
          "type": "uint256"
        }
      ],
      "payable": false,
      "stateMutability": "view",
      "type": "function"
    },
    {
      "constant": false,
      "inputs": [],
      "name": "genesis",
      "outputs": [],
      "payable": true,
      "stateMutability": "payable",
      "type": "function"
    },
    {
      "constant": false,
      "inputs": [
        {
          "internalType": "address",
          "name": "serviceContract",
          "type": "address"
        }
      ],
      "name": "addServiceContract",
      "outputs": [],
      "payable": false,
      "stateMutability": "nonpayable",
      "type": "function"
    },
    {
      "constant": false,
      "inputs": [
        {
          "internalType": "address",
          "name": "serviceContract",
          "type": "address"
        }
      ],
      "name": "removeServiceContract",
      "outputs": [],
      "payable": false,
      "stateMutability": "nonpayable",
      "type": "function"
    },
    {
      "constant": false,
      "inputs": [
        {
          "internalType": "uint256",
          "name": "_priceFeedEstimate",
          "type": "uint256"
        }
      ],
      "name": "setPriceFeedEstimate",
      "outputs": [],
      "payable": false,
      "stateMutability": "nonpayable",
      "type": "function"
    },
    {
      "constant": false,
      "inputs": [
        {
          "internalType": "uint256",
          "name": "_newEntry",
          "type": "uint256"
        },
        {
          "internalType": "address payable",
          "name": "submitter",
          "type": "address"
        }
      ],
      "name": "createGroup",
      "outputs": [],
      "payable": true,
      "stateMutability": "payable",
      "type": "function"
    },
    {
      "constant": true,
      "inputs": [],
      "name": "isGroupSelectionPossible",
      "outputs": [
        {
          "internalType": "bool",
          "name": "",
          "type": "bool"
        }
      ],
      "payable": false,
      "stateMutability": "view",
      "type": "function"
    },
    {
      "constant": false,
      "inputs": [
        {
          "internalType": "bytes32",
          "name": "ticket",
          "type": "bytes32"
        }
      ],
      "name": "submitTicket",
      "outputs": [],
      "payable": false,
      "stateMutability": "nonpayable",
      "type": "function"
    },
    {
      "constant": true,
      "inputs": [],
      "name": "ticketSubmissionTimeout",
      "outputs": [
        {
          "internalType": "uint256",
          "name": "",
          "type": "uint256"
        }
      ],
      "payable": false,
      "stateMutability": "view",
      "type": "function"
    },
    {
      "constant": true,
      "inputs": [],
      "name": "submittedTicketsCount",
      "outputs": [
        {
          "internalType": "uint256",
          "name": "",
          "type": "uint256"
        }
      ],
      "payable": false,
      "stateMutability": "view",
      "type": "function"
    },
    {
      "constant": true,
      "inputs": [],
      "name": "selectedParticipants",
      "outputs": [
        {
          "internalType": "address[]",
          "name": "",
          "type": "address[]"
        }
      ],
      "payable": false,
      "stateMutability": "view",
      "type": "function"
    },
    {
      "constant": false,
      "inputs": [
        {
          "internalType": "uint256",
          "name": "submitterMemberIndex",
          "type": "uint256"
        },
        {
          "internalType": "bytes",
          "name": "groupPubKey",
          "type": "bytes"
        },
        {
          "internalType": "bytes",
          "name": "misbehaved",
          "type": "bytes"
        },
        {
          "internalType": "bytes",
          "name": "signatures",
          "type": "bytes"
        },
        {
          "internalType": "uint256[]",
          "name": "signingMembersIndexes",
          "type": "uint256[]"
        }
      ],
      "name": "submitDkgResult",
      "outputs": [],
      "payable": false,
      "stateMutability": "nonpayable",
      "type": "function"
    },
    {
      "constant": false,
      "inputs": [
        {
          "internalType": "uint256",
          "name": "_minimumStake",
          "type": "uint256"
        }
      ],
      "name": "setMinimumStake",
      "outputs": [],
      "payable": false,
      "stateMutability": "nonpayable",
      "type": "function"
    },
    {
      "constant": false,
      "inputs": [
        {
          "internalType": "uint256",
          "name": "requestId",
          "type": "uint256"
        },
        {
          "internalType": "bytes",
          "name": "previousEntry",
          "type": "bytes"
        }
      ],
      "name": "sign",
      "outputs": [],
      "payable": true,
      "stateMutability": "payable",
      "type": "function"
    },
    {
      "constant": false,
      "inputs": [
        {
          "internalType": "bytes",
          "name": "_groupSignature",
          "type": "bytes"
        }
      ],
      "name": "relayEntry",
      "outputs": [],
      "payable": false,
      "stateMutability": "nonpayable",
      "type": "function"
    },
    {
      "constant": false,
      "inputs": [],
      "name": "reportRelayEntryTimeout",
      "outputs": [],
      "payable": false,
      "stateMutability": "nonpayable",
      "type": "function"
    },
    {
      "constant": true,
      "inputs": [],
      "name": "groupProfitFee",
      "outputs": [
        {
          "internalType": "uint256",
          "name": "",
          "type": "uint256"
        }
      ],
      "payable": false,
      "stateMutability": "view",
      "type": "function"
    },
    {
      "constant": true,
      "inputs": [
        {
          "internalType": "address",
          "name": "staker",
          "type": "address"
        }
      ],
      "name": "hasMinimumStake",
      "outputs": [
        {
          "internalType": "bool",
          "name": "",
          "type": "bool"
        }
      ],
      "payable": false,
      "stateMutability": "view",
      "type": "function"
    },
    {
      "constant": true,
      "inputs": [
        {
          "internalType": "bytes",
          "name": "groupPubKey",
          "type": "bytes"
        }
      ],
      "name": "isGroupRegistered",
      "outputs": [
        {
          "internalType": "bool",
          "name": "",
          "type": "bool"
        }
      ],
      "payable": false,
      "stateMutability": "view",
      "type": "function"
    },
    {
      "constant": true,
      "inputs": [
        {
          "internalType": "bytes",
          "name": "groupPubKey",
          "type": "bytes"
        }
      ],
      "name": "isStaleGroup",
      "outputs": [
        {
          "internalType": "bool",
          "name": "",
          "type": "bool"
        }
      ],
      "payable": false,
      "stateMutability": "view",
      "type": "function"
    },
    {
      "constant": true,
      "inputs": [],
      "name": "numberOfGroups",
      "outputs": [
        {
          "internalType": "uint256",
          "name": "",
          "type": "uint256"
        }
      ],
      "payable": false,
      "stateMutability": "view",
      "type": "function"
    },
    {
      "constant": true,
      "inputs": [
        {
          "internalType": "bytes",
          "name": "groupPubKey",
          "type": "bytes"
        }
      ],
      "name": "getGroupMemberRewards",
      "outputs": [
        {
          "internalType": "uint256",
          "name": "",
          "type": "uint256"
        }
      ],
      "payable": false,
      "stateMutability": "view",
      "type": "function"
    },
    {
      "constant": true,
      "inputs": [
        {
          "internalType": "bytes",
          "name": "groupPubKey",
          "type": "bytes"
        },
        {
          "internalType": "address",
          "name": "member",
          "type": "address"
        }
      ],
      "name": "getGroupMemberIndices",
      "outputs": [
        {
          "internalType": "uint256[]",
          "name": "indices",
          "type": "uint256[]"
        }
      ],
      "payable": false,
      "stateMutability": "view",
      "type": "function"
    },
    {
      "constant": false,
      "inputs": [
        {
          "internalType": "address",
          "name": "operator",
          "type": "address"
        },
        {
          "internalType": "uint256",
          "name": "groupIndex",
          "type": "uint256"
        },
        {
          "internalType": "uint256[]",
          "name": "groupMemberIndices",
          "type": "uint256[]"
        }
      ],
      "name": "withdrawGroupMemberRewards",
      "outputs": [],
      "payable": false,
      "stateMutability": "nonpayable",
      "type": "function"
    },
    {
      "constant": true,
      "inputs": [],
      "name": "getFirstActiveGroupIndex",
      "outputs": [
        {
          "internalType": "uint256",
          "name": "",
          "type": "uint256"
        }
      ],
      "payable": false,
      "stateMutability": "view",
      "type": "function"
    },
    {
      "constant": true,
      "inputs": [
        {
          "internalType": "uint256",
          "name": "groupIndex",
          "type": "uint256"
        }
      ],
      "name": "getGroupPublicKey",
      "outputs": [
        {
          "internalType": "bytes",
          "name": "",
          "type": "bytes"
        }
      ],
      "payable": false,
      "stateMutability": "view",
      "type": "function"
    },
    {
      "constant": true,
      "inputs": [],
      "name": "groupCreationGasEstimate",
      "outputs": [
        {
          "internalType": "uint256",
          "name": "",
          "type": "uint256"
        }
      ],
      "payable": false,
      "stateMutability": "view",
      "type": "function"
    },
    {
      "constant": true,
      "inputs": [
        {
          "internalType": "bytes",
          "name": "groupPubKey",
          "type": "bytes"
        }
      ],
      "name": "getGroupMembers",
      "outputs": [
        {
          "internalType": "address[]",
          "name": "members",
          "type": "address[]"
        }
      ],
      "payable": false,
      "stateMutability": "view",
      "type": "function"
    },
    {
      "constant": false,
      "inputs": [
        {
          "internalType": "uint256",
          "name": "groupIndex",
          "type": "uint256"
        },
        {
          "internalType": "bytes",
          "name": "signedGroupPubKey",
          "type": "bytes"
        }
      ],
      "name": "reportUnauthorizedSigning",
      "outputs": [],
      "payable": false,
      "stateMutability": "nonpayable",
      "type": "function"
    }
  ],
  "bytecode": "0x6080604052692a5a058fc295ed000000601955650d300b596800601a556404a817c800601b556032601c556040601d556021601e556003601f5560046020556200007762000060601f54601d546200031060201b6200488c1790919060201c565b6020546200039b60201b620040ca1790919060201c565b602155620445c0602255621a8ce0602355620186a06024557f4574c8c75d6e88acd28f7e467dac97b5c60c3838d9dad993900bdf402152228e602e55348015620000c057600080fd5b5060405162005dcd38038062005dcd83398181016040526040811015620000e657600080fd5b810190808051906020019092919080519060200190929190505050600160008190555033601660006101000a81548173ffffffffffffffffffffffffffffffffffffffff021916908373ffffffffffffffffffffffffffffffffffffffff16021790555060178290806001815401808255809150509060018203906000526020600020016000909192909190916101000a81548173ffffffffffffffffffffffffffffffffffffffff021916908373ffffffffffffffffffffffffffffffffffffffff1602179055505080601860006101000a81548173ffffffffffffffffffffffffffffffffffffffff021916908373ffffffffffffffffffffffffffffffffffffffff16021790555080600a60070160006101000a81548173ffffffffffffffffffffffffffffffffffffffff021916908373ffffffffffffffffffffffffffffffffffffffff1602179055508073ffffffffffffffffffffffffffffffffffffffff1663fdd1f9866040518163ffffffff1660e01b815260040160206040518083038186803b1580156200027c57600080fd5b505afa15801562000291573d6000803e3d6000fd5b505050506040513d6020811015620002a857600080fd5b8101908080519060200190929190505050600a60000181905550600c600160030181905550601d546001600801819055506034601260000181905550601f54601260010181905550601d54601260020181905550601e54601260030181905550505062000424565b60008083141562000325576000905062000395565b60008284029050828482816200033757fe5b041462000390576040517f08c379a000000000000000000000000000000000000000000000000000000000815260040180806020018281038252602181526020018062005dac6021913960400191505060405180910390fd5b809150505b92915050565b6000808284019050838110156200041a576040517f08c379a000000000000000000000000000000000000000000000000000000000815260040180806020018281038252601b8152602001807f536166654d6174683a206164646974696f6e206f766572666c6f77000000000081525060200191505060405180910390fd5b8091505092915050565b61597880620004346000396000f3fe6080604052600436106102455760003560e01c80637d7d7dd911610139578063bc22ca03116100b6578063cb62c50d1161007a578063cb62c50d14610f97578063d12f5e69146110d4578063e581ff74146111f1578063eb9488d3146112c3578063ec5ffac2146112ee578063ef7c8f9c1461131957610245565b8063bc22ca0314610e8d578063bf95249614610ec8578063c443894614610ef3578063c96e71fb14610f1e578063c98622fb14610f6c57610245565b8063a7f0b3de116100fd578063a7f0b3de14610d14578063ac374f4b14610d1e578063b1c77c8f14610de6578063b64ac8e414610e11578063b99f0c4314610e6257610245565b80637d7d7dd914610ae25780638a3a3da814610b0d5780639571cb8a14610b485780639b3d270a14610b735780639dabee4414610c3857610245565b806336c85717116101c7578063650d89e71161018b578063650d89e71461077c5780636dcc64f8146107a757806373f1daab146107d25780637760c6c714610a6657806379f9fb7e14610ab757610245565b806336c85717146105a35780635b2645b8146105ce5780635c1c0710146105f95780635d6615d91461066257806363b635ea1461075157610245565b806321a8f86c1161020e57806321a8f86c14610403578063233e99031461043257806324f173131461046d5780632bea3956146104985780632d6f8f31146104c357610245565b80623bf87e1461024a5780630b19991f1461027557806310c3a173146102e15780631c524ac21461030c5780631ed74070146103ec575b600080fd5b34801561025657600080fd5b5061025f6113cd565b6040518082815260200191505060405180910390f35b34801561028157600080fd5b5061028a6113d3565b6040518080602001828103825283818151815260200191508051906020019060200280838360005b838110156102cd5780820151818401526020810190506102b2565b505050509050019250505060405180910390f35b3480156102ed57600080fd5b506102f6611501565b6040518082815260200191505060405180910390f35b34801561031857600080fd5b506103d26004803603602081101561032f57600080fd5b810190808035906020019064010000000081111561034c57600080fd5b82018360208201111561035e57600080fd5b8035906020019184600183028401116401000000008311171561038057600080fd5b91908080601f016020809104026020016040519081016040528093929190818152602001838380828437600081840152601f19601f820116905080830192505050505050509192919290505050611511565b604051808215151515815260200191505060405180910390f35b3480156103f857600080fd5b5061040161152e565b005b34801561040f57600080fd5b50610418611724565b604051808215151515815260200191505060405180910390f35b34801561043e57600080fd5b5061046b6004803603602081101561045557600080fd5b8101908080359060200190929190505050611770565b005b34801561047957600080fd5b5061048261183d565b6040518082815260200191505060405180910390f35b3480156104a457600080fd5b506104ad611843565b6040518082815260200191505060405180910390f35b3480156104cf57600080fd5b50610589600480360360208110156104e657600080fd5b810190808035906020019064010000000081111561050357600080fd5b82018360208201111561051557600080fd5b8035906020019184600183028401116401000000008311171561053757600080fd5b91908080601f016020809104026020016040519081016040528093929190818152602001838380828437600081840152601f19601f820116905080830192505050505050509192919290505050611849565b604051808215151515815260200191505060405180910390f35b3480156105af57600080fd5b506105b861194c565b6040518082815260200191505060405180910390f35b3480156105da57600080fd5b506105e3611952565b6040518082815260200191505060405180910390f35b34801561060557600080fd5b506106486004803603602081101561061c57600080fd5b81019080803573ffffffffffffffffffffffffffffffffffffffff169060200190929190505050611970565b604051808215151515815260200191505060405180910390f35b34801561066e57600080fd5b5061074f6004803603606081101561068557600080fd5b81019080803573ffffffffffffffffffffffffffffffffffffffff16906020019092919080359060200190929190803590602001906401000000008111156106cc57600080fd5b8201836020820111156106de57600080fd5b8035906020019184602083028401116401000000008311171561070057600080fd5b919080806020026020016040519081016040528093929190818152602001838360200280828437600081840152601f19601f820116905080830192505050505050509192919290505050611a8c565b005b34801561075d57600080fd5b50610766611ee3565b6040518082815260200191505060405180910390f35b34801561078857600080fd5b50610791611ee9565b6040518082815260200191505060405180910390f35b3480156107b357600080fd5b506107bc611eef565b6040518082815260200191505060405180910390f35b3480156107de57600080fd5b50610a64600480360360a08110156107f557600080fd5b81019080803590602001909291908035906020019064010000000081111561081c57600080fd5b82018360208201111561082e57600080fd5b8035906020019184600183028401116401000000008311171561085057600080fd5b91908080601f016020809104026020016040519081016040528093929190818152602001838380828437600081840152601f19601f820116905080830192505050505050509192919290803590602001906401000000008111156108b357600080fd5b8201836020820111156108c557600080fd5b803590602001918460018302840111640100000000831117156108e757600080fd5b91908080601f016020809104026020016040519081016040528093929190818152602001838380828437600081840152601f19601f8201169050808301925050505050505091929192908035906020019064010000000081111561094a57600080fd5b82018360208201111561095c57600080fd5b8035906020019184600183028401116401000000008311171561097e57600080fd5b91908080601f016020809104026020016040519081016040528093929190818152602001838380828437600081840152601f19601f820116905080830192505050505050509192919290803590602001906401000000008111156109e157600080fd5b8201836020820111156109f357600080fd5b80359060200191846020830284011164010000000083111715610a1557600080fd5b919080806020026020016040519081016040528093929190818152602001838360200280828437600081840152601f19601f820116905080830192505050505050509192919290505050611ef5565b005b348015610a7257600080fd5b50610ab560048036036020811015610a8957600080fd5b81019080803573ffffffffffffffffffffffffffffffffffffffff1690602001909291905050506122c6565b005b348015610ac357600080fd5b50610acc6123f2565b6040518082815260200191505060405180910390f35b348015610aee57600080fd5b50610af76123f8565b6040518082815260200191505060405180910390f35b348015610b1957600080fd5b50610b4660048036036020811015610b3057600080fd5b81019080803590602001909291905050506123fe565b005b348015610b5457600080fd5b50610b5d6125a2565b6040518082815260200191505060405180910390f35b610c3660048036036040811015610b8957600080fd5b810190808035906020019092919080359060200190640100000000811115610bb057600080fd5b820183602082011115610bc257600080fd5b80359060200191846001830284011164010000000083111715610be457600080fd5b91908080601f016020809104026020016040519081016040528093929190818152602001838380828437600081840152601f19601f8201169050808301925050505050505091929192905050506125a8565b005b348015610c4457600080fd5b50610cfe60048036036020811015610c5b57600080fd5b8101908080359060200190640100000000811115610c7857600080fd5b820183602082011115610c8a57600080fd5b80359060200191846001830284011164010000000083111715610cac57600080fd5b91908080601f016020809104026020016040519081016040528093929190818152602001838380828437600081840152601f19601f820116905080830192505050505050509192919290505050612772565b6040518082815260200191505060405180910390f35b610d1c6127e8565b005b348015610d2a57600080fd5b50610de460048036036020811015610d4157600080fd5b8101908080359060200190640100000000811115610d5e57600080fd5b820183602082011115610d7057600080fd5b80359060200191846001830284011164010000000083111715610d9257600080fd5b91908080601f016020809104026020016040519081016040528093929190818152602001838380828437600081840152601f19601f820116905080830192505050505050509192919290505050612903565b005b348015610df257600080fd5b50610dfb613381565b6040518082815260200191505060405180910390f35b348015610e1d57600080fd5b50610e6060048036036020811015610e3457600080fd5b81019080803573ffffffffffffffffffffffffffffffffffffffff169060200190929190505050613387565b005b348015610e6e57600080fd5b50610e77613462565b6040518082815260200191505060405180910390f35b348015610e9957600080fd5b50610ec660048036036020811015610eb057600080fd5b8101908080359060200190929190505050613468565b005b348015610ed457600080fd5b50610edd613535565b6040518082815260200191505060405180910390f35b348015610eff57600080fd5b50610f08613546565b6040518082815260200191505060405180910390f35b610f6a60048036036040811015610f3457600080fd5b8101908080359060200190929190803573ffffffffffffffffffffffffffffffffffffffff169060200190929190505050613564565b005b348015610f7857600080fd5b50610f81613870565b6040518082815260200191505060405180910390f35b348015610fa357600080fd5b5061107d60048036036040811015610fba57600080fd5b8101908080359060200190640100000000811115610fd757600080fd5b820183602082011115610fe957600080fd5b8035906020019184600183028401116401000000008311171561100b57600080fd5b91908080601f016020809104026020016040519081016040528093929190818152602001838380828437600081840152601f19601f820116905080830192505050505050509192919290803573ffffffffffffffffffffffffffffffffffffffff16906020019092919050505061387d565b6040518080602001828103825283818151815260200191508051906020019060200280838360005b838110156110c05780820151818401526020810190506110a5565b505050509050019250505060405180910390f35b3480156110e057600080fd5b5061119a600480360360208110156110f757600080fd5b810190808035906020019064010000000081111561111457600080fd5b82018360208201111561112657600080fd5b8035906020019184600183028401116401000000008311171561114857600080fd5b91908080601f016020809104026020016040519081016040528093929190818152602001838380828437600081840152601f19601f820116905080830192505050505050509192919290505050613a4f565b6040518080602001828103825283818151815260200191508051906020019060200280838360005b838110156111dd5780820151818401526020810190506111c2565b505050509050019250505060405180910390f35b3480156111fd57600080fd5b506112c16004803603604081101561121457600080fd5b81019080803590602001909291908035906020019064010000000081111561123b57600080fd5b82018360208201111561124d57600080fd5b8035906020019184600183028401116401000000008311171561126f57600080fd5b91908080601f016020809104026020016040519081016040528093929190818152602001838380828437600081840152601f19601f820116905080830192505050505050509192919290505050613bec565b005b3480156112cf57600080fd5b506112d8613cd9565b6040518082815260200191505060405180910390f35b3480156112fa57600080fd5b50611303613ce6565b6040518082815260200191505060405180910390f35b34801561132557600080fd5b506113526004803603602081101561133c57600080fd5b8101908080359060200190929190505050613cec565b6040518080602001828103825283818151815260200191508051906020019080838360005b83811015611392578082015181840152602081019050611377565b50505050905090810190601f1680156113bf5780820380516001836020036101000a031916815260200191505b509250505060405180910390f35b60235481565b6060600173__GroupSelection________________________63a3c6b2b390916040518263ffffffff1660e01b81526004018082815260200191505060006040518083038186803b15801561142757600080fd5b505af415801561143b573d6000803e3d6000fd5b505050506040513d6000823e3d601f19601f82011682018060405250602081101561146557600080fd5b810190808051604051939291908464010000000082111561148557600080fd5b8382019150602082018581111561149b57600080fd5b82518660208202830111640100000000821117156114b857600080fd5b8083526020830192505050908051906020019060200280838360005b838110156114ef5780820151818401526020810190506114d4565b50505050905001604052505050905090565b6000600160000180549050905090565b600061152782600a613d0990919063ffffffff16565b9050919050565b611536613d7a565b6115a8576040517f08c379a00000000000000000000000000000000000000000000000000000000081526004018080602001828103825260168152602001807f456e74727920646964206e6f742074696d65206f75740000000000000000000081525060200191505060405180910390fd5b600a73__Groups________________________________63edaa60e89091602860030154601d546019546040518563ffffffff1660e01b81526004018085815260200184815260200183815260200182815260200194505050505060006040518083038186803b15801561161b57600080fd5b505af415801561162f573d6000803e3d6000fd5b50505050600061163d613535565b11156117225761172160286000015460286004018054600181600116156101000203166002900480601f0160208091040260200160405190810160405280929190818152602001828054600181600116156101000203166002900480156116e55780601f106116ba576101008083540402835291602001916116e5565b820191906000526020600020905b8154815290600101906020018083116116c857829003601f168201915b5050505050602860050160009054906101000a900473ffffffffffffffffffffffffffffffffffffffff16602860010154602860020154613d98565b5b565b6000600160050160009054906101000a900460ff16611746576001905061176d565b6000601f54601d540260126000015460016003015460016004015401010190508043119150505b90565b3373ffffffffffffffffffffffffffffffffffffffff16601660009054906101000a900473ffffffffffffffffffffffffffffffffffffffff1673ffffffffffffffffffffffffffffffffffffffff1614611833576040517f08c379a00000000000000000000000000000000000000000000000000000000081526004018080602001828103825260178152602001807f43616c6c6572206973206e6f7420746865206f776e657200000000000000000081525060200191505060405180910390fd5b8060198190555050565b60245481565b601c5481565b6000600a73__Groups________________________________63cc9b37c29091846040518363ffffffff1660e01b81526004018083815260200180602001828103825283818151815260200191508051906020019080838360005b838110156118bf5780820151818401526020810190506118a4565b50505050905090810190601f1680156118ec5780820380516001836020036101000a031916815260200191505b50935050505060206040518083038186803b15801561190a57600080fd5b505af415801561191e573d6000803e3d6000fd5b505050506040513d602081101561193457600080fd5b81019080805190602001909291905050509050919050565b601f5481565b600061196b6024546023546140ca90919063ffffffff16565b905090565b6000601954601860009054906101000a900473ffffffffffffffffffffffffffffffffffffffff1673ffffffffffffffffffffffffffffffffffffffff16639557e0bb84306040518363ffffffff1660e01b8152600401808373ffffffffffffffffffffffffffffffffffffffff1673ffffffffffffffffffffffffffffffffffffffff1681526020018273ffffffffffffffffffffffffffffffffffffffff1673ffffffffffffffffffffffffffffffffffffffff1681526020019250505060206040518083038186803b158015611a4857600080fd5b505afa158015611a5c573d6000803e3d6000fd5b505050506040513d6020811015611a7257600080fd5b810190808051906020019092919050505010159050919050565b600160008082825401925050819055506000805490506000600a73__Groups________________________________63a58ef68990918787876040518563ffffffff1660e01b8152600401808581526020018473ffffffffffffffffffffffffffffffffffffffff1673ffffffffffffffffffffffffffffffffffffffff16815260200183815260200180602001828103825283818151815260200191508051906020019060200280838360005b83811015611b55578082015181840152602081019050611b3a565b505050509050019550505050505060206040518083038186803b158015611b7b57600080fd5b505af4158015611b8f573d6000803e3d6000fd5b505050506040513d6020811015611ba557600080fd5b810190808051906020019092919050505090506000601860009054906101000a900473ffffffffffffffffffffffffffffffffffffffff1673ffffffffffffffffffffffffffffffffffffffff16631cdac873876040518263ffffffff1660e01b8152600401808273ffffffffffffffffffffffffffffffffffffffff1673ffffffffffffffffffffffffffffffffffffffff16815260200191505060206040518083038186803b158015611c5957600080fd5b505afa158015611c6d573d6000803e3d6000fd5b505050506040513d6020811015611c8357600080fd5b810190808051906020019092919050505073ffffffffffffffffffffffffffffffffffffffff168260405180600001905060006040518083038185875af1925050503d8060008114611cf1576040519150601f19603f3d011682016040523d82523d6000602084013e611cf6565b606091505b505090508015611e6457601860009054906101000a900473ffffffffffffffffffffffffffffffffffffffff1673ffffffffffffffffffffffffffffffffffffffff16631cdac873876040518263ffffffff1660e01b8152600401808273ffffffffffffffffffffffffffffffffffffffff1673ffffffffffffffffffffffffffffffffffffffff16815260200191505060206040518083038186803b158015611d9f57600080fd5b505afa158015611db3573d6000803e3d6000fd5b505050506040513d6020811015611dc957600080fd5b810190808051906020019092919050505073ffffffffffffffffffffffffffffffffffffffff167fd2d1d8bb9db82c3480418ddcddf25a021102ad139edec2a62b274595d408a88d878488604051808473ffffffffffffffffffffffffffffffffffffffff1673ffffffffffffffffffffffffffffffffffffffff168152602001838152602001828152602001935050505060405180910390a25b50506000548114611edd576040517f08c379a000000000000000000000000000000000000000000000000000000000815260040180806020018281038252601f8152602001807f5265656e7472616e637947756172643a207265656e7472616e742063616c6c0081525060200191505060405180910390fd5b50505050565b601d5481565b60205481565b601e5481565b6060611eff6113d3565b9050601273__DKGResultVerification_________________63da0a16899091888888888888600160030154600160040154016040518963ffffffff1660e01b815260040180898152602001888152602001806020018060200180602001806020018060200187815260200186810386528c818151815260200191508051906020019080838360005b83811015611fa3578082015181840152602081019050611f88565b50505050905090810190601f168015611fd05780820380516001836020036101000a031916815260200191505b5086810385528b818151815260200191508051906020019080838360005b83811015612009578082015181840152602081019050611fee565b50505050905090810190601f1680156120365780820380516001836020036101000a031916815260200191505b5086810384528a818151815260200191508051906020019080838360005b8381101561206f578082015181840152602081019050612054565b50505050905090810190601f16801561209c5780820380516001836020036101000a031916815260200191505b50868103835289818151815260200191508051906020019060200280838360005b838110156120d85780820151818401526020810190506120bd565b50505050905001868103825288818151815260200191508051906020019060200280838360005b8381101561211a5780820151818401526020810190506120ff565b505050509050019d505050505050505050505050505060206040518083038186803b15801561214857600080fd5b505af415801561215c573d6000803e3d6000fd5b505050506040513d602081101561217257600080fd5b81019080805190602001909291905050505061219c858286600a614152909392919063ffffffff16565b6121b085600a61446790919063ffffffff16565b6121b86144d9565b7f405e4a54e1d4488d62b38c147cb419b76ca730eadc4b2c7a594e729f03946c49856040518080602001828103825283818151815260200191508051906020019080838360005b8381101561221a5780820151818401526020810190506121ff565b50505050905090810190601f1680156122475780820380516001836020036101000a031916815260200191505b509250505060405180910390a1600173__GroupSelection________________________63bbda566b90916040518263ffffffff1660e01b81526004018082815260200191505060006040518083038186803b1580156122a657600080fd5b505af41580156122ba573d6000803e3d6000fd5b50505050505050505050565b3373ffffffffffffffffffffffffffffffffffffffff16601660009054906101000a900473ffffffffffffffffffffffffffffffffffffffff1673ffffffffffffffffffffffffffffffffffffffff1614612389576040517f08c379a00000000000000000000000000000000000000000000000000000000081526004018080602001828103825260178152602001807f43616c6c6572206973206e6f7420746865206f776e657200000000000000000081525060200191505060405180910390fd5b60178190806001815401808255809150509060018203906000526020600020016000909192909190916101000a81548173ffffffffffffffffffffffffffffffffffffffff021916908373ffffffffffffffffffffffffffffffffffffffff1602179055505050565b60225481565b601a5481565b6000612522601954601860009054906101000a900473ffffffffffffffffffffffffffffffffffffffff1673ffffffffffffffffffffffffffffffffffffffff1663afff33ef33306040518363ffffffff1660e01b8152600401808373ffffffffffffffffffffffffffffffffffffffff1673ffffffffffffffffffffffffffffffffffffffff1681526020018273ffffffffffffffffffffffffffffffffffffffff1673ffffffffffffffffffffffffffffffffffffffff1681526020019250505060206040518083038186803b1580156124d957600080fd5b505afa1580156124ed573d6000803e3d6000fd5b505050506040513d602081101561250357600080fd5b810190808051906020019092919050505061478490919063ffffffff16565b9050600173__GroupSelection________________________63fb6ed49c909184846040518463ffffffff1660e01b815260040180848152602001838152602001828152602001935050505060006040518083038186803b15801561258657600080fd5b505af415801561259a573d6000803e3d6000fd5b505050505050565b601b5481565b61264133601780548060200260200160405190810160405280929190818152602001828054801561262e57602002820191906000526020600020905b8160009054906101000a900473ffffffffffffffffffffffffffffffffffffffff1673ffffffffffffffffffffffffffffffffffffffff16815260200190600101908083116125e4575b50505050506147ce90919063ffffffff16565b612696576040517f08c379a00000000000000000000000000000000000000000000000000000000081526004018080602001828103825260248152602001806158c46024913960400191505060405180910390fd5b60006126d06126ba6126a9601b54614849565b60225461488c90919063ffffffff16565b6126c2613546565b6140ca90919063ffffffff16565b905080341015612748576040517f08c379a000000000000000000000000000000000000000000000000000000000815260040180806020018281038252601a8152602001807f496e73756666696369656e74206e657720656e7472792066656500000000000081525060200191505060405180910390fd5b600061275d823461491290919063ffffffff16565b905061276c8484338585613d98565b50505050565b6000600a600501826040518082805190602001908083835b602083106127ad578051825260208201915060208101905060208303925061278a565b6001836020036101000a0380198251168184511680821785525050505050509050019150509081526020016040518091039020549050919050565b60006127f2613535565b14612865576040517f08c379a000000000000000000000000000000000000000000000000000000000815260040180806020018281038252600c8152602001807f47726f757073206578697374000000000000000000000000000000000000000081525060200191505060405180910390fd5b6017612880600160178054905061491290919063ffffffff16565b8154811061288a57fe5b9060005260206000200160009054906101000a900473ffffffffffffffffffffffffffffffffffffffff16602660006101000a81548173ffffffffffffffffffffffffffffffffffffffff021916908373ffffffffffffffffffffffffffffffffffffffff160217905550612901602e543461495c565b565b60016000808282540192505081905550600080549050612921614b9b565b612993576040517f08c379a00000000000000000000000000000000000000000000000000000000081526004018080602001828103825260138152602001807f456e74727920776173207375626d69747465640000000000000000000000000081525060200191505060405180910390fd5b61299b613d7a565b15612a0e576040517f08c379a000000000000000000000000000000000000000000000000000000000815260040180806020018281038252600f8152602001807f456e7472792074696d6564206f7574000000000000000000000000000000000081525060200191505060405180910390fd5b6060612a29602860030154600a614ba890919063ffffffff16565b905073__BLS___________________________________63de8f50a1826028600401866040518463ffffffff1660e01b815260040180806020018060200180602001848103845287818151815260200191508051906020019080838360005b83811015612aa3578082015181840152602081019050612a88565b50505050905090810190601f168015612ad05780820380516001836020036101000a031916815260200191505b50848103835286818154600181600116156101000203166002900481526020019150805460018160011615610100020316600290048015612b525780601f10612b2757610100808354040283529160200191612b52565b820191906000526020600020905b815481529060010190602001808311612b3557829003601f168201915b5050848103825285818151815260200191508051906020019080838360005b83811015612b8c578082015181840152602081019050612b71565b50505050905090810190601f168015612bb95780820380516001836020036101000a031916815260200191505b50965050505050505060206040518083038186803b158015612bda57600080fd5b505af4158015612bee573d6000803e3d6000fd5b505050506040513d6020811015612c0457600080fd5b8101908080519060200190929190505050612c87576040517f08c379a00000000000000000000000000000000000000000000000000000000081526004018080602001828103825260118152602001807f496e76616c6964207369676e617475726500000000000000000000000000000081525060200191505060405180910390fd5b7f8711cae111460cf9bde0d890f0dc09abcb8851e39bf020f406e53e86394cdbd760405160405180910390a1602860050160009054906101000a900473ffffffffffffffffffffffffffffffffffffffff1673ffffffffffffffffffffffffffffffffffffffff16612d06619c406024546140ca90919063ffffffff16565b602860000154853360405160240180848152602001806020018373ffffffffffffffffffffffffffffffffffffffff1673ffffffffffffffffffffffffffffffffffffffff168152602001828103825284818151815260200191508051906020019080838360005b83811015612d89578082015181840152602081019050612d6e565b50505050905090810190601f168015612db65780820380516001836020036101000a031916815260200191505b509450505050506040516020818303038152906040527fef7284e3000000000000000000000000000000000000000000000000000000007bffffffffffffffffffffffffffffffffffffffffffffffffffffffff19166020820180517bffffffffffffffffffffffffffffffffffffffffffffffffffffffff83818316178352505050506040518082805190602001908083835b60208310612e6d5780518252602082019150602081019050602083039250612e4a565b6001836020036101000a03801982511681845116808217855250505050505090500191505060006040518083038160008787f1925050503d8060008114612ed0576040519150601f19603f3d011682016040523d82523d6000602084013e612ed5565b606091505b505050600060286002015411156130275761302660286040518060c001604052908160008201548152602001600182015481526020016002820154815260200160038201548152602001600482018054600181600116156101000203166002900480601f016020809104026020016040519081016040528092919081815260200182805460018160011615610100020316600290048015612fb75780601f10612f8c57610100808354040283529160200191612fb7565b820191906000526020600020905b815481529060010190602001808311612f9a57829003601f168201915b505050505081526020016005820160009054906101000a900473ffffffffffffffffffffffffffffffffffffffff1673ffffffffffffffffffffffffffffffffffffffff1673ffffffffffffffffffffffffffffffffffffffff1681525050848051906020012060001c614c6b565b5b6000806000613034614f5e565b9250925092506130508484600a6150a39092919063ffffffff16565b601860009054906101000a900473ffffffffffffffffffffffffffffffffffffffff1673ffffffffffffffffffffffffffffffffffffffff16631cdac873336040518263ffffffff1660e01b8152600401808273ffffffffffffffffffffffffffffffffffffffff1673ffffffffffffffffffffffffffffffffffffffff16815260200191505060206040518083038186803b1580156130ef57600080fd5b505afa158015613103573d6000803e3d6000fd5b505050506040513d602081101561311957600080fd5b810190808051906020019092919050505073ffffffffffffffffffffffffffffffffffffffff168260405180600001905060006040518083038185875af1925050503d8060008114613187576040519150601f19603f3d011682016040523d82523d6000602084013e61318c565b606091505b50505060008111156132fa57602860050160009054906101000a900473ffffffffffffffffffffffffffffffffffffffff1673ffffffffffffffffffffffffffffffffffffffff166188b8826040516024016040516020818303038152906040527f11e816ee000000000000000000000000000000000000000000000000000000007bffffffffffffffffffffffffffffffffffffffffffffffffffffffff19166020820180517bffffffffffffffffffffffffffffffffffffffffffffffffffffffff83818316178352505050506040518082805190602001908083835b6020831061328e578051825260208201915060208101905060208303925061326b565b6001836020036101000a038019825116818451168082178552505050505050905001915050600060405180830381858888f193505050503d80600081146132f1576040519150601f19603f3d011682016040523d82523d6000602084013e6132f6565b606091505b5050505b600060278190555050505050600054811461337d576040517f08c379a000000000000000000000000000000000000000000000000000000000815260040180806020018281038252601f8152602001807f5265656e7472616e637947756172643a207265656e7472616e742063616c6c0081525060200191505060405180910390fd5b5050565b60255481565b3373ffffffffffffffffffffffffffffffffffffffff16601660009054906101000a900473ffffffffffffffffffffffffffffffffffffffff1673ffffffffffffffffffffffffffffffffffffffff161461344a576040517f08c379a00000000000000000000000000000000000000000000000000000000081526004018080602001828103825260178152602001807f43616c6c6572206973206e6f7420746865206f776e657200000000000000000081525060200191505060405180910390fd5b61345e81601761519590919063ffffffff16565b5050565b60215481565b3373ffffffffffffffffffffffffffffffffffffffff16601660009054906101000a900473ffffffffffffffffffffffffffffffffffffffff1673ffffffffffffffffffffffffffffffffffffffff161461352b576040517f08c379a00000000000000000000000000000000000000000000000000000000081526004018080602001828103825260178152602001807f43616c6c6572206973206e6f7420746865206f776e657200000000000000000081525060200191505060405180910390fd5b80601b8190555050565b6000613541600a6152fa565b905090565b600061355f601d54601a5461488c90919063ffffffff16565b905090565b6135fd3360178054806020026020016040519081016040528092919081815260200182805480156135ea57602002820191906000526020600020905b8160009054906101000a900473ffffffffffffffffffffffffffffffffffffffff1673ffffffffffffffffffffffffffffffffffffffff16815260200190600101908083116135a0575b50505050506147ce90919063ffffffff16565b613652576040517f08c379a00000000000000000000000000000000000000000000000000000000081526004018080602001828103825260248152602001806158c46024913960400191505060405180910390fd5b6000613673613662601b54614849565b60245461488c90919063ffffffff16565b905033602660006101000a81548173ffffffffffffffffffffffffffffffffffffffff021916908373ffffffffffffffffffffffffffffffffffffffff1602179055506136d2836136cd833461491290919063ffffffff16565b61495c565b6000601860009054906101000a900473ffffffffffffffffffffffffffffffffffffffff1673ffffffffffffffffffffffffffffffffffffffff16631cdac873846040518263ffffffff1660e01b8152600401808273ffffffffffffffffffffffffffffffffffffffff1673ffffffffffffffffffffffffffffffffffffffff16815260200191505060206040518083038186803b15801561377357600080fd5b505afa158015613787573d6000803e3d6000fd5b505050506040513d602081101561379d57600080fd5b810190808051906020019092919050505073ffffffffffffffffffffffffffffffffffffffff168260405180600001905060006040518083038185875af1925050503d806000811461380b576040519150601f19603f3d011682016040523d82523d6000602084013e613810565b606091505b505090508061386a576040517f08c379a000000000000000000000000000000000000000000000000000000000815260040180806020018281038252603b815260200180615909603b913960400191505060405180910390fd5b50505050565b6000600160030154905090565b6060600a73__Groups________________________________63abc47ee0909185856040518463ffffffff1660e01b815260040180848152602001806020018373ffffffffffffffffffffffffffffffffffffffff1673ffffffffffffffffffffffffffffffffffffffff168152602001828103825284818151815260200191508051906020019080838360005b8381101561392657808201518184015260208101905061390b565b50505050905090810190601f1680156139535780820380516001836020036101000a031916815260200191505b5094505050505060006040518083038186803b15801561397257600080fd5b505af4158015613986573d6000803e3d6000fd5b505050506040513d6000823e3d601f19601f8201168201806040525060208110156139b057600080fd5b81019080805160405193929190846401000000008211156139d057600080fd5b838201915060208201858111156139e657600080fd5b8251866020820283011164010000000082111715613a0357600080fd5b8083526020830192505050908051906020019060200280838360005b83811015613a3a578082015181840152602081019050613a1f565b50505050905001604052505050905092915050565b6060600a73__Groups________________________________63dc2627039091846040518363ffffffff1660e01b81526004018083815260200180602001828103825283818151815260200191508051906020019080838360005b83811015613ac5578082015181840152602081019050613aaa565b50505050905090810190601f168015613af25780820380516001836020036101000a031916815260200191505b50935050505060006040518083038186803b158015613b1057600080fd5b505af4158015613b24573d6000803e3d6000fd5b505050506040513d6000823e3d601f19601f820116820180604052506020811015613b4e57600080fd5b8101908080516040519392919084640100000000821115613b6e57600080fd5b83820191506020820185811115613b8457600080fd5b8251866020820283011164010000000082111715613ba157600080fd5b8083526020830192505050908051906020019060200280838360005b83811015613bd8578082015181840152602081019050613bbd565b505050509050016040525050509050919050565b600a73__Groups________________________________6320bc2866909184846019546040518563ffffffff1660e01b81526004018085815260200184815260200180602001838152602001828103825284818151815260200191508051906020019080838360005b83811015613c70578082015181840152602081019050613c55565b50505050905090810190601f168015613c9d5780820380516001836020036101000a031916815260200191505b509550505050505060006040518083038186803b158015613cbd57600080fd5b505af4158015613cd1573d6000803e3d6000fd5b505050505050565b6000600a60060154905090565b60195481565b6060613d0282600a614ba890919063ffffffff16565b9050919050565b600080600090505b8360020180549050811015613d6e57613d5283856002018381548110613d3357fe5b906000526020600020906002020160000161533a90919063ffffffff16565b15613d61576001915050613d74565b8080600101915050613d11565b50600090505b92915050565b60008060275414158015613d9357506021546027540143115b905090565b613da0614b9b565b1580613db05750613daf613d7a565b5b613e22576040517f08c379a000000000000000000000000000000000000000000000000000000000815260040180806020018281038252600e8152602001807f426561636f6e206973206275737900000000000000000000000000000000000081525060200191505060405180910390fd5b436027819055506000600a73__Groups________________________________6337ed6ace9091878051906020012060001c6040518363ffffffff1660e01b8152600401808381526020018281526020019250505060206040518083038186803b158015613e8f57600080fd5b505af4158015613ea3573d6000803e3d6000fd5b505050506040513d6020811015613eb957600080fd5b810190808051906020019092919050505090506040518060c001604052808781526020018481526020018381526020018281526020018681526020018573ffffffffffffffffffffffffffffffffffffffff168152506028600082015181600001556020820151816001015560408201518160020155606082015181600301556080820151816004019080519060200190613f559291906156f9565b5060a08201518160050160006101000a81548173ffffffffffffffffffffffffffffffffffffffff021916908373ffffffffffffffffffffffffffffffffffffffff1602179055509050506060613fb682600a614ba890919063ffffffff16565b90507ff3a8bf09e4f9146a48f9b91226985ac8d83d971beb4fc9ffdc569790e85a97e48682604051808060200180602001838103835285818151815260200191508051906020019080838360005b8381101561401f578082015181840152602081019050614004565b50505050905090810190601f16801561404c5780820380516001836020036101000a031916815260200191505b50838103825284818151815260200191508051906020019080838360005b8381101561408557808201518184015260208101905061406a565b50505050905090810190601f1680156140b25780820380516001836020036101000a031916815260200191505b5094505050505060405180910390a150505050505050565b600080828401905083811015614148576040517f08c379a000000000000000000000000000000000000000000000000000000000815260040180806020018281038252601b8152602001807f536166654d6174683a206164646974696f6e206f766572666c6f77000000000081525060200191505060405180910390fd5b8091505092915050565b8184600401846040518082805190602001908083835b6020831061418b5780518252602082019150602081019050602083039250614168565b6001836020036101000a038019825116818451168082178552505050505050905001915050908152602001604051809103902090805190602001906141d1929190615779565b506000815190505b600081111561446057600060016141fc60018403856153f290919063ffffffff16565b0360ff16905085600401856040518082805190602001908083835b6020831061423a5780518252602082019150602081019050602083039250614217565b6001836020036101000a0380198251168184511680821785525050505050509050019150509081526020016040518091039020600187600401876040518082805190602001908083835b602083106142a75780518252602082019150602081019050602083039250614284565b6001836020036101000a03801982511681845116808217855250505050505090500191505090815260200160405180910390208054905003815481106142e957fe5b9060005260206000200160009054906101000a900473ffffffffffffffffffffffffffffffffffffffff1686600401866040518082805190602001908083835b6020831061434c5780518252602082019150602081019050602083039250614329565b6001836020036101000a0380198251168184511680821785525050505050509050019150509081526020016040518091039020828154811061438a57fe5b9060005260206000200160006101000a81548173ffffffffffffffffffffffffffffffffffffffff021916908373ffffffffffffffffffffffffffffffffffffffff16021790555085600401856040518082805190602001908083835b6020831061440a57805182526020820191506020810190506020830392506143e7565b6001836020036101000a03801982511681845116808217855250505050505090500191505090815260200160405180910390208054809190600190036144509190615803565b50818060019003925050506141d9565b5050505050565b816002016040518060400160405280838152602001438152509080600181540180825580915050906001820390600052602060002090600202016000909192909190915060008201518160000190805190602001906144c79291906156f9565b50602082015181600101555050505050565b6000601b54905060003a1180156144f15750601b543a105b156144fa573a90505b60006145118260235461488c90919063ffffffff16565b90506000601860009054906101000a900473ffffffffffffffffffffffffffffffffffffffff1673ffffffffffffffffffffffffffffffffffffffff16631cdac873336040518263ffffffff1660e01b8152600401808273ffffffffffffffffffffffffffffffffffffffff1673ffffffffffffffffffffffffffffffffffffffff16815260200191505060206040518083038186803b1580156145b457600080fd5b505afa1580156145c8573d6000803e3d6000fd5b505050506040513d60208110156145de57600080fd5b8101908080519060200190929190505050905060255482101561470b5760006146128360255461491290919063ffffffff16565b905060006025819055508173ffffffffffffffffffffffffffffffffffffffff168360405180600001905060006040518083038185875af1925050503d806000811461467a576040519150601f19603f3d011682016040523d82523d6000602084013e61467f565b606091505b505050602660009054906101000a900473ffffffffffffffffffffffffffffffffffffffff1673ffffffffffffffffffffffffffffffffffffffff16634611b648826040518263ffffffff1660e01b81526004016000604051808303818588803b1580156146ec57600080fd5b505af1158015614700573d6000803e3d6000fd5b50505050505061477f565b602554915060006025819055508073ffffffffffffffffffffffffffffffffffffffff168260405180600001905060006040518083038185875af1925050503d8060008114614776576040519150601f19603f3d011682016040523d82523d6000602084013e61477b565b606091505b5050505b505050565b60006147c683836040518060400160405280601a81526020017f536166654d6174683a206469766973696f6e206279207a65726f000000000000815250615483565b905092915050565b600080600090505b835181101561483d578381815181106147eb57fe5b602002602001015173ffffffffffffffffffffffffffffffffffffffff168373ffffffffffffffffffffffffffffffffffffffff161415614830576001915050614843565b80806001019150506147d6565b50600090505b92915050565b60006148856148766064614868601c548661488c90919063ffffffff16565b61478490919063ffffffff16565b836140ca90919063ffffffff16565b9050919050565b60008083141561489f576000905061490c565b60008284029050828482816148b057fe5b0414614907576040517f08c379a00000000000000000000000000000000000000000000000000000000081526004018080602001828103825260218152602001806158e86021913960400191505060405180910390fd5b809150505b92915050565b600061495483836040518060400160405280601e81526020017f536166654d6174683a207375627472616374696f6e206f766572666c6f770000815250615549565b905092915050565b61497b60235461496d601b54614849565b61488c90919063ffffffff16565b8110156149f0576040517f08c379a00000000000000000000000000000000000000000000000000000000081526004018080602001828103825260148152602001807f496e73756666696369656e7420444b472066656500000000000000000000000081525060200191505060405180910390fd5b6149f8611724565b614a6a576040517f08c379a000000000000000000000000000000000000000000000000000000000815260040180806020018281038252601b8152602001807f47726f75702073656c656374696f6e20696e2070726f6772657373000000000081525060200191505060405180910390fd5b60006025541115614ae7576000602554905060006025819055503373ffffffffffffffffffffffffffffffffffffffff16634611b648826040518263ffffffff1660e01b81526004016000604051808303818588803b158015614acc57600080fd5b505af1158015614ae0573d6000803e3d6000fd5b5050505050505b600173__GroupSelection________________________6352f9b3b99091846040518363ffffffff1660e01b8152600401808381526020018281526020019250505060006040518083038186803b158015614b4157600080fd5b505af4158015614b55573d6000803e3d6000fd5b505050507f0769b89b6dbd96af3cdebccc7b68ce1e4ae748abc3e6b19a73b8b58460c57a94826040518082815260200191505060405180910390a1806025819055505050565b6000806027541415905090565b6060826002018281548110614bb957fe5b90600052602060002090600202016000018054600181600116156101000203166002900480601f016020809104026020016040519081016040528092919081815260200182805460018160011615610100020316600290048015614c5e5780601f10614c3357610100808354040283529160200191614c5e565b820191906000526020600020905b815481529060010190602001808311614c4157829003601f168201915b5050505050905092915050565b6000826040015190506000614c93614c84601b54614849565b8361478490919063ffffffff16565b9050606060005a90508560a0015173ffffffffffffffffffffffffffffffffffffffff168387600001518760405160240180838152602001828152602001925050506040516020818303038152906040527ffc3fcec7000000000000000000000000000000000000000000000000000000007bffffffffffffffffffffffffffffffffffffffffffffffffffffffff19166020820180517bffffffffffffffffffffffffffffffffffffffffffffffffffffffff83818316178352505050506040518082805190602001908083835b60208310614d855780518252602082019150602081019050602083039250614d62565b6001836020036101000a03801982511681845116808217855250505050505090500191505060006040518083038160008787f1925050503d8060008114614de8576040519150601f19603f3d011682016040523d82523d6000602084013e614ded565b606091505b5090508092505060005a90506000614e0e828461491290919063ffffffff16565b905073__Reimbursements________________________6346a50089601860009054906101000a900473ffffffffffffffffffffffffffffffffffffffff16601b5488858b8a6040518763ffffffff1660e01b8152600401808773ffffffffffffffffffffffffffffffffffffffff1673ffffffffffffffffffffffffffffffffffffffff16815260200186815260200185815260200184815260200183815260200180602001828103825283818151815260200191508051906020019080838360005b83811015614eed578082015181840152602081019050614ed2565b50505050905090810190601f168015614f1a5780820380516001836020036101000a031916815260200191505b5097505050505050505060006040518083038186803b158015614f3c57600080fd5b505af4158015614f50573d6000803e3d6000fd5b505050505050505050505050565b600080600080662386f26fc1000090506000614f78615609565b9050614fa182614f9383601a5461488c90919063ffffffff16565b61478490919063ffffffff16565b94506000614fcc614fbb838561491290919063ffffffff16565b601a5461488c90919063ffffffff16565b9050600061501d8461500f60646150016005614ff3601d548961488c90919063ffffffff16565b61488c90919063ffffffff16565b61478490919063ffffffff16565b61478490919063ffffffff16565b9050600061504061502c613546565b60286001015461491290919063ffffffff16565b905061505582826140ca90919063ffffffff16565b965061509782615089615073601d548c61488c90919063ffffffff16565b61507b613546565b61491290919063ffffffff16565b61491290919063ffffffff16565b95505050505050909192565b6151218184600501846040518082805190602001908083835b602083106150df57805182526020820191506020810190506020830392506150bc565b6001836020036101000a0380198251168184511680821785525050505050509050019150509081526020016040518091039020546140ca90919063ffffffff16565b83600501836040518082805190602001908083835b602083106151595780518252602082019150602081019050602083039250615136565b6001836020036101000a038019825116818451168082178552505050505050905001915050908152602001604051809103902081905550505050565b600080600090505b83805490508110156152f0578381815481106151b557fe5b9060005260206000200160009054906101000a900473ffffffffffffffffffffffffffffffffffffffff1673ffffffffffffffffffffffffffffffffffffffff168373ffffffffffffffffffffffffffffffffffffffff1614156152e35760008190505b60018580549050038110156152c35784600182018154811061523757fe5b9060005260206000200160009054906101000a900473ffffffffffffffffffffffffffffffffffffffff1685828154811061526e57fe5b9060005260206000200160006101000a81548173ffffffffffffffffffffffffffffffffffffffff021916908373ffffffffffffffffffffffffffffffffffffffff1602179055508080600101915050615219565b50838054809190600190036152d8919061582f565b508080600190039150505b808060010191505061519d565b5082905092915050565b600061533382600301805490506153258460060154856002018054905061491290919063ffffffff16565b61491290919063ffffffff16565b9050919050565b6000806001905083546002600180831615610100020382160484518082146001811461536957600094506153e4565b82156153e35760208310600181146153c757600189600052602060002060208a018581015b6002848284100114156153be5781518354146153ad5760009950600093505b60018301925060208201915061538e565b505050506153e1565b610100808604029450602088015185146153e057600095505b5b505b5b505050508091505092915050565b6000600182018351101561546e576040517f08c379a000000000000000000000000000000000000000000000000000000000815260040180806020018281038252601f8152602001807f55696e743820636f6e76657273696f6e206f7574206f6620626f756e64732e0081525060200191505060405180910390fd5b60008260018501015190508091505092915050565b6000808311829061552f576040517f08c379a00000000000000000000000000000000000000000000000000000000081526004018080602001828103825283818151815260200191508051906020019080838360005b838110156154f45780820151818401526020810190506154d9565b50505050905090810190601f1680156155215780820380516001836020036101000a031916815260200191505b509250505060405180910390fd5b50600083858161553b57fe5b049050809150509392505050565b60008383111582906155f6576040517f08c379a00000000000000000000000000000000000000000000000000000000081526004018080602001828103825283818151815260200191508051906020019080838360005b838110156155bb5780820151818401526020810190506155a0565b50505050905090810190601f1680156155e85780820380516001836020036101000a031916815260200191505b509250505060405180910390fd5b5060008385039050809150509392505050565b600080662386f26fc100009050600061564260016156346021546027546140ca90919063ffffffff16565b6140ca90919063ffffffff16565b9050600061567060016156626020546027546140ca90919063ffffffff16565b6140ca90919063ffffffff16565b90506000814311156156825743615684565b815b9050600061569b828561491290919063ffffffff16565b905060006156b2848661491290919063ffffffff16565b90506156ee8660026156df846156d18b8861488c90919063ffffffff16565b61478490919063ffffffff16565b0a61478490919063ffffffff16565b965050505050505090565b828054600181600116156101000203166002900490600052602060002090601f016020900481019282601f1061573a57805160ff1916838001178555615768565b82800160010185558215615768579182015b8281111561576757825182559160200191906001019061574c565b5b509050615775919061585b565b5090565b8280548282559060005260206000209081019282156157f2579160200282015b828111156157f15782518260006101000a81548173ffffffffffffffffffffffffffffffffffffffff021916908373ffffffffffffffffffffffffffffffffffffffff16021790555091602001919060010190615799565b5b5090506157ff9190615880565b5090565b81548183558181111561582a57818360005260206000209182019101615829919061585b565b5b505050565b81548183558181111561585657818360005260206000209182019101615855919061585b565b5b505050565b61587d91905b80821115615879576000816000905550600101615861565b5090565b90565b6158c091905b808211156158bc57600081816101000a81549073ffffffffffffffffffffffffffffffffffffffff021916905550600101615886565b5090565b9056fe43616c6c6572206973206e6f7420616e20617574686f72697a656420636f6e7472616374536166654d6174683a206d756c7469706c69636174696f6e206f766572666c6f774661696c6564207265696d62757273696e67207375626d697474657220666f72207374617274696e6720612067726f75702073656c656374696f6ea265627a7a72315820f814b28461ed557ad7f7d0b4c9f697dbcae680ab52033c7a134a5fd42952343364736f6c634300050e0032536166654d6174683a206d756c7469706c69636174696f6e206f766572666c6f77",
  "source": "pragma solidity ^0.5.4;\n\nimport \"openzeppelin-solidity/contracts/math/SafeMath.sol\";\nimport \"openzeppelin-solidity/contracts/utils/ReentrancyGuard.sol\";\nimport \"./TokenStaking.sol\";\nimport \"./cryptography/BLS.sol\";\nimport \"./utils/AddressArrayUtils.sol\";\nimport \"./libraries/operator/GroupSelection.sol\";\nimport \"./libraries/operator/Groups.sol\";\nimport \"./libraries/operator/DKGResultVerification.sol\";\nimport \"./libraries/operator/Reimbursements.sol\";\n\ninterface ServiceContract {\n    function entryCreated(uint256 requestId, bytes calldata entry, address payable submitter) external;\n    function fundRequestSubsidyFeePool() external payable;\n    function fundDkgFeePool() external payable;\n}\n\n/**\n * @title KeepRandomBeaconOperator\n * @dev Keep client facing contract for random beacon security-critical operations.\n * Handles group creation and expiration, BLS signature verification and incentives.\n * The contract is not upgradeable. New functionality can be implemented by deploying\n * new versions following Keep client update and re-authorization by the stakers.\n */\ncontract KeepRandomBeaconOperator is ReentrancyGuard {\n    using SafeMath for uint256;\n    using AddressArrayUtils for address[];\n    using GroupSelection for GroupSelection.Storage;\n    using Groups for Groups.Storage;\n    using DKGResultVerification for DKGResultVerification.Storage;\n\n    event OnGroupRegistered(bytes groupPubKey);\n\n    // TODO: Rename to DkgResultSubmittedEvent\n    // TODO: Add memberIndex\n    event DkgResultPublishedEvent(bytes groupPubKey);\n\n    event RelayEntryRequested(bytes previousEntry, bytes groupPublicKey);\n    event RelayEntrySubmitted();\n\n    event GroupSelectionStarted(uint256 newEntry);\n\n    event GroupMemberRewardsWithdrawn(address indexed beneficiary, address operator, uint256 amount, uint256 groupIndex);\n\n    GroupSelection.Storage groupSelection;\n    Groups.Storage groups;\n    DKGResultVerification.Storage dkgResultVerification;\n\n    // Contract owner.\n    address internal owner;\n\n    address[] internal serviceContracts;\n\n    // TODO: replace with a secure authorization protocol (addressed in RFC 11).\n    TokenStaking internal stakingContract;\n\n    // Minimum amount of KEEP that allows sMPC cluster client to participate in\n    // the Keep network. Expressed as number with 18-decimal places.\n    uint256 public minimumStake = 200000 * 1e18;\n\n    // Each signing group member reward expressed in wei.\n    uint256 public groupMemberBaseReward = 145*1e11; // 14500 Gwei, 10% of operational cost\n\n    // The price feed estimate is used to calculate the gas price for reimbursement\n    // next to the actual gas price from the transaction. We use both values to\n    // defend against malicious miner-submitters who can manipulate transaction\n    // gas price. Expressed in wei.\n    uint256 public priceFeedEstimate = 20*1e9; // (20 Gwei = 20 * 10^9 wei)\n\n    // Fluctuation margin to cover the immediate rise in gas price.\n    // Expressed in percentage.\n    uint256 public fluctuationMargin = 50; // 50%\n\n    // Size of a group in the threshold relay.\n    uint256 public groupSize = 64;\n\n    // Minimum number of group members needed to interact according to the\n    // protocol to produce a relay entry.\n    uint256 public groupThreshold = 33;\n\n    // Time in blocks after which the next group member is eligible\n    // to submit the result.\n    uint256 public resultPublicationBlockStep = 3;\n\n    // Time in blocks it takes off-chain cluster to generate a new relay entry\n    // and be ready to submit it to the chain.\n    uint256 public relayEntryGenerationTime = (1+3);\n\n    // Timeout in blocks for a relay entry to appear on the chain. Blocks are\n    // counted from the moment relay request occur.\n    //\n    // Timeout is never shorter than the time needed by clients to generate\n    // relay entry and the time it takes for the last group member to become\n    // eligible to submit the result plus at least one block to submit it.\n    uint256 public relayEntryTimeout = relayEntryGenerationTime.add(groupSize.mul(resultPublicationBlockStep));\n\n    // Gas required to verify BLS signature and produce successful relay\n    // entry. Excludes callback and DKG gas. The worst case (most expensive)\n    // scenario.\n    uint256 public entryVerificationGasEstimate = 280000;\n\n    // Gas required to submit DKG result. Excludes initiation of group selection.\n    uint256 public dkgGasEstimate = 1740000;\n\n    // Gas required to trigger DKG (starting group selection).\n    uint256 public groupSelectionGasEstimate = 100000;\n\n    // Reimbursement for the submitter of the DKG result.\n    // This value is set when a new DKG request comes to the operator contract.\n    // It contains a full payment for DKG multiplied by the fluctuation margin.\n    // When submitting DKG result, the submitter is reimbursed with the actual cost\n    // and some part of the fee stored in this field may be returned to the service\n    // contract.\n    uint256 public dkgSubmitterReimbursementFee;\n\n    // Service contract that triggered current group selection.\n    ServiceContract internal groupSelectionStarterContract;\n\n    struct SigningRequest {\n        uint256 relayRequestId;\n        uint256 entryVerificationAndProfitFee;\n        uint256 callbackFee;\n        uint256 groupIndex;\n        bytes previousEntry;\n        address serviceContract;\n    }\n\n    uint256 internal currentEntryStartBlock;\n    SigningRequest internal signingRequest;\n\n    // Seed value used for the genesis group selection.\n    // https://www.wolframalpha.com/input/?i=pi+to+78+digits\n    uint256 internal _genesisGroupSeed = 31415926535897932384626433832795028841971693993751058209749445923078164062862;\n\n    /**\n     * @dev Triggers the first group selection. Genesis can be called only when\n     * there are no groups on the operator contract.\n     */\n    function genesis() public payable {\n        require(numberOfGroups() == 0, \"Groups exist\");\n        // Set latest added service contract as a group selection starter to receive any DKG fee surplus.\n        groupSelectionStarterContract = ServiceContract(serviceContracts[serviceContracts.length.sub(1)]);\n        startGroupSelection(_genesisGroupSeed, msg.value);\n    }\n\n    /**\n     * @dev Throws if called by any account other than the owner.\n     */\n    modifier onlyOwner() {\n        require(owner == msg.sender, \"Caller is not the owner\");\n        _;\n    }\n\n    /**\n     * @dev Checks if sender is authorized.\n     */\n    modifier onlyServiceContract() {\n        require(\n            serviceContracts.contains(msg.sender),\n            \"Caller is not an authorized contract\"\n        );\n        _;\n    }\n\n    constructor(address _serviceContract, address _stakingContract) public {\n        owner = msg.sender;\n\n        serviceContracts.push(_serviceContract);\n        stakingContract = TokenStaking(_stakingContract);\n\n        groups.stakingContract = TokenStaking(_stakingContract);\n        groups.groupActiveTime = TokenStaking(_stakingContract).undelegationPeriod();\n\n        groupSelection.ticketSubmissionTimeout = 12;\n        groupSelection.groupSize = groupSize;\n\n        dkgResultVerification.timeDKG = 5*(1+5) + 2*(1+10);\n        dkgResultVerification.resultPublicationBlockStep = resultPublicationBlockStep;\n        dkgResultVerification.groupSize = groupSize;\n        // TODO: For now, the required number of signatures is equal to group\n        // threshold. This should be updated to keep a safety margin for\n        // participants misbehaving during signing.\n        dkgResultVerification.signatureThreshold = groupThreshold;\n    }\n\n    /**\n     * @dev Adds service contract\n     * @param serviceContract Address of the service contract.\n     */\n    function addServiceContract(address serviceContract) public onlyOwner {\n        serviceContracts.push(serviceContract);\n    }\n\n    /**\n     * @dev Removes service contract\n     * @param serviceContract Address of the service contract.\n     */\n    function removeServiceContract(address serviceContract) public onlyOwner {\n        serviceContracts.removeAddress(serviceContract);\n    }\n\n    /**\n     * @dev Set the gas price in wei for calculating reimbursements.\n     * @param _priceFeedEstimate is the gas price for calculating reimbursements.\n     */\n    function setPriceFeedEstimate(uint256 _priceFeedEstimate) public onlyOwner {\n        priceFeedEstimate = _priceFeedEstimate;\n    }\n\n    /**\n     * @dev Adds a safety margin for gas price fluctuations to the current gas price.\n     * The gas price for DKG or relay entry is set when the request is processed\n     * but the result submission transaction will be sent later. We add a safety\n     * margin that should be sufficient for getting requests processed within a\n     * a deadline under all circumstances.\n     * @param gasPrice Gas price in wei.\n     */\n    function gasPriceWithFluctuationMargin(uint256 gasPrice) internal view returns (uint256) {\n        return gasPrice.add(gasPrice.mul(fluctuationMargin).div(100));\n    }\n\n    /**\n     * @dev Triggers the selection process of a new candidate group.\n     * @param _newEntry New random beacon value that stakers will use to\n     * generate their tickets.\n     * @param submitter Operator of this contract.\n     */\n    function createGroup(uint256 _newEntry, address payable submitter) public payable onlyServiceContract {\n        uint256 groupSelectionStartFee = groupSelectionGasEstimate\n            .mul(gasPriceWithFluctuationMargin(priceFeedEstimate));\n\n        groupSelectionStarterContract = ServiceContract(msg.sender);\n        startGroupSelection(_newEntry, msg.value.sub(groupSelectionStartFee));\n\n        // reimbursing a submitter that triggered group selection\n        (bool success, ) = stakingContract.magpieOf(submitter).call.value(groupSelectionStartFee)(\"\");\n        require(success, \"Failed reimbursing submitter for starting a group selection\");\n    }\n\n    function startGroupSelection(uint256 _newEntry, uint256 _payment) internal {\n        require(\n            _payment >= gasPriceWithFluctuationMargin(priceFeedEstimate).mul(dkgGasEstimate),\n            \"Insufficient DKG fee\"\n        );\n\n        require(isGroupSelectionPossible(), \"Group selection in progress\");\n\n        // If previous group selection failed and there is reimbursement left\n        // return it to the DKG fee pool.\n        if (dkgSubmitterReimbursementFee > 0) {\n            uint256 surplus = dkgSubmitterReimbursementFee;\n            dkgSubmitterReimbursementFee = 0;\n            ServiceContract(msg.sender).fundDkgFeePool.value(surplus)();\n        }\n\n        groupSelection.start(_newEntry);\n        emit GroupSelectionStarted(_newEntry);\n        dkgSubmitterReimbursementFee = _payment;\n    }\n\n    function isGroupSelectionPossible() public view returns (bool) {\n        if (!groupSelection.inProgress) {\n            return true;\n        }\n\n        // dkgTimeout is the time after key generation protocol is expected to\n        // be complete plus the expected time to submit the result.\n        uint256 dkgTimeout = groupSelection.ticketSubmissionStartBlock +\n        groupSelection.ticketSubmissionTimeout +\n        dkgResultVerification.timeDKG +\n        groupSize * resultPublicationBlockStep;\n\n        return block.number > dkgTimeout;\n    }\n\n    /**\n     * @dev Submits ticket to request to participate in a new candidate group.\n     * @param ticket Bytes representation of a ticket that holds the following:\n     * - ticketValue: first 8 bytes of a result of keccak256 cryptography hash\n     *   function on the combination of the group selection seed (previous\n     *   beacon output), staker-specific value (address) and virtual staker index.\n     * - stakerValue: a staker-specific value which is the address of the staker.\n     * - virtualStakerIndex: 4-bytes number within a range of 1 to staker's weight;\n     *   has to be unique for all tickets submitted by the given staker for the\n     *   current candidate group selection.\n     */\n    function submitTicket(bytes32 ticket) public {\n        uint256 stakingWeight = stakingContract.eligibleStake(msg.sender, address(this)).div(minimumStake);\n        groupSelection.submitTicket(ticket, stakingWeight);\n    }\n\n    /**\n     * @dev Gets the timeout in blocks after which group candidate ticket\n     * submission is finished.\n     */\n    function ticketSubmissionTimeout() public view returns (uint256) {\n        return groupSelection.ticketSubmissionTimeout;\n    }\n\n    /**\n     * @dev Gets the number of submitted group candidate tickets so far.\n     */\n    function submittedTicketsCount() public view returns (uint256) {\n        return groupSelection.tickets.length;\n    }\n\n    /**\n     * @dev Gets selected participants in ascending order of their tickets.\n     */\n    function selectedParticipants() public view returns (address[] memory) {\n        return groupSelection.selectedParticipants();\n    }\n\n    /**\n     * @dev Submits result of DKG protocol. It is on-chain part of phase 14 of\n     * the protocol.\n     *\n     * @param submitterMemberIndex Claimed submitter candidate group member index\n     * @param groupPubKey Generated candidate group public key\n     * @param misbehaved Bytes array of misbehaved (disqualified or inactive)\n     * group members indexes in ascending order; Indexes reflect positions of\n     * members in the group as outputted by the group selection protocol.\n     * @param signatures Concatenation of signatures from members supporting the\n     * result.\n     * @param signingMembersIndexes Indices of members corresponding to each\n     * signature.\n     */\n    function submitDkgResult(\n        uint256 submitterMemberIndex,\n        bytes memory groupPubKey,\n        bytes memory misbehaved,\n        bytes memory signatures,\n        uint[] memory signingMembersIndexes\n    ) public {\n        address[] memory members = selectedParticipants();\n\n        dkgResultVerification.verify(\n            submitterMemberIndex,\n            groupPubKey,\n            misbehaved,\n            signatures,\n            signingMembersIndexes,\n            members,\n            groupSelection.ticketSubmissionStartBlock + groupSelection.ticketSubmissionTimeout\n        );\n\n        groups.setGroupMembers(groupPubKey, members, misbehaved);\n        groups.addGroup(groupPubKey);\n        reimburseDkgSubmitter();\n        emit DkgResultPublishedEvent(groupPubKey);\n        groupSelection.stop();\n    }\n\n    /**\n     * @dev Compare the reimbursement fee calculated based on the current transaction gas\n     * price and the current price feed estimate with the DKG reimbursement fee calculated\n     * and paid at the moment when the DKG was requested. If there is any surplus, it will\n     * be returned to the DKG fee pool of the service contract which triggered the DKG.\n     */\n    function reimburseDkgSubmitter() internal {\n        uint256 gasPrice = priceFeedEstimate;\n        // We need to check if tx.gasprice is non-zero as a workaround to a bug\n        // in go-ethereum:\n        // https://github.com/ethereum/go-ethereum/pull/20189\n        if (tx.gasprice > 0 && tx.gasprice < priceFeedEstimate) {\n            gasPrice = tx.gasprice;\n        }\n\n        uint256 reimbursementFee = dkgGasEstimate.mul(gasPrice);\n        address payable magpie = stakingContract.magpieOf(msg.sender);\n\n        if (reimbursementFee < dkgSubmitterReimbursementFee) {\n            uint256 surplus = dkgSubmitterReimbursementFee.sub(reimbursementFee);\n            dkgSubmitterReimbursementFee = 0;\n            // Reimburse submitter with actual DKG cost.\n            magpie.call.value(reimbursementFee)(\"\");\n\n            // Return surplus to the contract that started DKG.\n            groupSelectionStarterContract.fundDkgFeePool.value(surplus)();\n        } else {\n            // If submitter used higher gas price reimburse only dkgSubmitterReimbursementFee max.\n            reimbursementFee = dkgSubmitterReimbursementFee;\n            dkgSubmitterReimbursementFee = 0;\n            magpie.call.value(reimbursementFee)(\"\");\n        }\n    }\n\n    /**\n     * @dev Set the minimum amount of KEEP that allows a Keep network client to participate in a group.\n     * @param _minimumStake Amount in KEEP.\n     */\n    function setMinimumStake(uint256 _minimumStake) public onlyOwner {\n        minimumStake = _minimumStake;\n    }\n\n    /**\n     * @dev Creates a request to generate a new relay entry, which will include a\n     * random number (by signing the previous entry's random number).\n     * @param requestId Request Id trackable by service contract\n     * @param previousEntry Previous relay entry\n     */\n    function sign(\n        uint256 requestId,\n        bytes memory previousEntry\n    ) public payable onlyServiceContract {\n        uint256 entryVerificationAndProfitFee = groupProfitFee().add(\n            entryVerificationGasEstimate.mul(gasPriceWithFluctuationMargin(priceFeedEstimate))\n        );\n        require(\n            msg.value >= entryVerificationAndProfitFee,\n            \"Insufficient new entry fee\"\n        );\n        uint256 callbackFee = msg.value.sub(entryVerificationAndProfitFee);\n        signRelayEntry(\n            requestId, previousEntry, msg.sender,\n            entryVerificationAndProfitFee, callbackFee\n        );\n    }\n\n    function signRelayEntry(\n        uint256 requestId,\n        bytes memory previousEntry,\n        address serviceContract,\n        uint256 entryVerificationAndProfitFee,\n        uint256 callbackFee\n    ) internal {\n        require(!isEntryInProgress() || hasEntryTimedOut(), \"Beacon is busy\");\n\n        currentEntryStartBlock = block.number;\n\n        uint256 groupIndex = groups.selectGroup(uint256(keccak256(previousEntry)));\n        signingRequest = SigningRequest(\n            requestId,\n            entryVerificationAndProfitFee,\n            callbackFee,\n            groupIndex,\n            previousEntry,\n            serviceContract\n        );\n\n        bytes memory groupPubKey = groups.getGroupPublicKey(groupIndex);\n        emit RelayEntryRequested(previousEntry, groupPubKey);\n    }\n\n    /**\n     * @dev Creates a new relay entry and stores the associated data on the chain.\n     * @param _groupSignature Group BLS signature over the concatenation of the\n     * previous entry and seed.\n     */\n    function relayEntry(bytes memory _groupSignature) public nonReentrant {\n        require(isEntryInProgress(), \"Entry was submitted\");\n        require(!hasEntryTimedOut(), \"Entry timed out\");\n\n        bytes memory groupPubKey = groups.getGroupPublicKey(signingRequest.groupIndex);\n\n        require(\n            BLS.verify(\n                groupPubKey,\n                signingRequest.previousEntry,\n                _groupSignature\n            ),\n            \"Invalid signature\"\n        );\n\n        emit RelayEntrySubmitted();\n\n        // Spend no more than groupSelectionGasEstimate + 40000 gas max\n        // This will prevent relayEntry failure in case the service contract is compromised\n        signingRequest.serviceContract.call.gas(groupSelectionGasEstimate.add(40000))(\n            abi.encodeWithSignature(\n                \"entryCreated(uint256,bytes,address)\",\n                signingRequest.relayRequestId,\n                _groupSignature,\n                msg.sender\n            )\n        );\n\n        if (signingRequest.callbackFee > 0) {\n            executeCallback(signingRequest, uint256(keccak256(_groupSignature)));\n        }\n\n        (uint256 groupMemberReward, uint256 submitterReward, uint256 subsidy) = newEntryRewardsBreakdown();\n        groups.addGroupMemberReward(groupPubKey, groupMemberReward);\n\n        stakingContract.magpieOf(msg.sender).call.value(submitterReward)(\"\");\n\n        if (subsidy > 0) {\n            signingRequest.serviceContract.call.gas(35000).value(subsidy)(abi.encodeWithSignature(\"fundRequestSubsidyFeePool()\"));\n        }\n\n        currentEntryStartBlock = 0;\n    }\n\n    /**\n     * @dev Executes customer specified callback for the relay entry request.\n     * @param signingRequest Request data tracked internally by this contract.\n     * @param entry The generated random number.\n     */\n    function executeCallback(SigningRequest memory signingRequest, uint256 entry) internal {\n        uint256 callbackFee = signingRequest.callbackFee;\n\n        // Make sure not to spend more than what was received from the service contract for the callback\n        uint256 gasLimit = callbackFee.div(gasPriceWithFluctuationMargin(priceFeedEstimate));\n\n        bytes memory callbackReturnData;\n        uint256 gasBeforeCallback = gasleft();\n        (, callbackReturnData) = signingRequest.serviceContract.call.gas(gasLimit)(abi.encodeWithSignature(\"executeCallback(uint256,uint256)\", signingRequest.relayRequestId, entry));\n        uint256 gasAfterCallback = gasleft();\n        uint256 gasSpent = gasBeforeCallback.sub(gasAfterCallback);\n\n        Reimbursements.reimburseCallback(\n            stakingContract,\n            priceFeedEstimate,\n            gasLimit,\n            gasSpent,\n            callbackFee,\n            callbackReturnData\n        );\n    }\n\n    /**\n     * @dev Get rewards breakdown in wei for successful entry for the current signing request.\n     */\n    function newEntryRewardsBreakdown() internal view returns(uint256 groupMemberReward, uint256 submitterReward, uint256 subsidy) {\n        uint256 decimals = 1e16; // Adding 16 decimals to perform float division.\n\n        uint256 delayFactor = getDelayFactor();\n        groupMemberReward = groupMemberBaseReward.mul(delayFactor).div(decimals);\n\n        // delay penalty = base reward * (1 - delay factor)\n        uint256 groupMemberDelayPenalty = groupMemberBaseReward.mul(decimals.sub(delayFactor));\n\n        // The submitter reward consists of:\n        // The callback gas expenditure (reimbursed by the service contract)\n        // The entry verification fee to cover the cost of verifying the submission,\n        // paid regardless of their gas expenditure\n        // Submitter extra reward - 5% of the delay penalties of the entire group\n        uint256 submitterExtraReward = groupMemberDelayPenalty.mul(groupSize).mul(5).div(100).div(decimals);\n        uint256 entryVerificationFee = signingRequest.entryVerificationAndProfitFee.sub(groupProfitFee());\n        submitterReward = entryVerificationFee.add(submitterExtraReward);\n\n        // Rewards not paid out to the operators are paid out to requesters to subsidize new requests.\n        subsidy = groupProfitFee().sub(groupMemberReward.mul(groupSize)).sub(submitterExtraReward);\n    }\n\n    /**\n     * @dev Gets delay factor for rewards calculation.\n     * @return Integer representing floating-point number with 16 decimals places.\n     */\n    function getDelayFactor() internal view returns(uint256 delayFactor) {\n        uint256 decimals = 1e16; // Adding 16 decimals to perform float division.\n\n        // T_deadline is the earliest block when no submissions are accepted\n        // and an entry timed out. The last block the entry can be published in is\n        //     currentEntryStartBlock + relayEntryTimeout\n        // and submission are no longer accepted from block\n        //     currentEntryStartBlock + relayEntryTimeout + 1.\n        uint256 deadlineBlock = currentEntryStartBlock.add(relayEntryTimeout).add(1);\n\n        // T_begin is the earliest block the result can be published in.\n        // It takes relayEntryGenerationTime to generate a new entry, so it can\n        // be published at block relayEntryGenerationTime + 1 the earliest.\n        uint256 submissionStartBlock = currentEntryStartBlock.add(relayEntryGenerationTime).add(1);\n\n        // Use submissionStartBlock block as entryReceivedBlock if entry submitted earlier than expected.\n        uint256 entryReceivedBlock = block.number <= submissionStartBlock ? submissionStartBlock:block.number;\n\n        // T_remaining = T_deadline - T_received\n        uint256 remainingBlocks = deadlineBlock.sub(entryReceivedBlock);\n\n        // T_deadline - T_begin\n        uint256 submissionWindow = deadlineBlock.sub(submissionStartBlock);\n\n        // delay factor = [ T_remaining / (T_deadline - T_begin)]^2\n        //\n        // Since we add 16 decimal places to perform float division, we do:\n        // delay factor = [ T_temaining * decimals / (T_deadline - T_begin)]^2 / decimals =\n        //    = [T_remaining / (T_deadline - T_begin) ]^2 * decimals\n        delayFactor = ((remainingBlocks.mul(decimals).div(submissionWindow))**2).div(decimals);\n    }\n\n    /**\n     * @dev Returns true if generation of a new relay entry is currently in\n     * progress.\n     */\n    function isEntryInProgress() internal view returns (bool) {\n        return currentEntryStartBlock != 0;\n    }\n\n    /**\n     * @dev Returns true if the currently ongoing new relay entry generation\n     * operation timed out. There is a certain timeout for a new relay entry\n     * to be produced, see `relayEntryTimeout` value.\n     */\n    function hasEntryTimedOut() internal view returns (bool) {\n        return currentEntryStartBlock != 0 && block.number > currentEntryStartBlock + relayEntryTimeout;\n    }\n\n    /**\n     * @dev Function used to inform about the fact the currently ongoing\n     * new relay entry generation operation timed out. As a result, the group\n     * which was supposed to produce a new relay entry is immediately\n     * terminated and a new group is selected to produce a new relay entry.\n     * All members of the group are punished by seizing minimum stake of\n     * their tokens. The submitter of the transaction is rewarded with a\n     * tattletale reward which is limited to min(1, 20 / group_size) of the\n     * maximum tattletale reward.\n     */\n    function reportRelayEntryTimeout() public {\n        require(hasEntryTimedOut(), \"Entry did not time out\");\n        groups.reportRelayEntryTimeout(signingRequest.groupIndex, groupSize, minimumStake);\n\n        // We could terminate the last active group. If that's the case,\n        // do not try to execute signing again because there is no group\n        // which can handle it.\n        if (numberOfGroups() > 0) {\n            signRelayEntry(\n                signingRequest.relayRequestId,\n                signingRequest.previousEntry,\n                signingRequest.serviceContract,\n                signingRequest.entryVerificationAndProfitFee,\n                signingRequest.callbackFee\n            );\n        }\n    }\n\n    /**\n     * @dev Gets group profit fee expressed in wei.\n     */\n    function groupProfitFee() public view returns(uint256) {\n        return groupMemberBaseReward.mul(groupSize);\n    }\n\n    /**\n     * @dev Checks if the specified account has enough active stake to become\n     * network operator and that this contract has been authorized for potential\n     * slashing.\n     *\n     * Having the required minimum of active stake makes the operator eligible\n     * to join the network. If the active stake is not currently undelegating,\n     * operator is also eligible for work selection.\n     *\n     * @param staker Staker's address\n     * @return True if has enough active stake to participate in the network,\n     * false otherwise.\n     */\n    function hasMinimumStake(address staker) public view returns(bool) {\n        return (\n            stakingContract.activeStake(staker, address(this)) >= minimumStake\n        );\n    }\n\n    /**\n     * @dev Checks if group with the given public key is registered.\n     */\n    function isGroupRegistered(bytes memory groupPubKey) public view returns(bool) {\n        return groups.isGroupRegistered(groupPubKey);\n    }\n\n    /**\n     * @dev Checks if a group with the given public key is a stale group.\n     * Stale group is an expired group which is no longer performing any\n     * operations. It is important to understand that an expired group may\n     * still perform some operations for which it was selected when it was still\n     * active. We consider a group to be stale when it's expired and when its\n     * expiration time and potentially executed operation timeout are both in\n     * the past.\n     */\n    function isStaleGroup(bytes memory groupPubKey) public view returns(bool) {\n        return groups.isStaleGroup(groupPubKey);\n    }\n\n    /**\n     * @dev Gets the number of active groups. Expired and terminated groups are\n     * not counted as active.\n     */\n    function numberOfGroups() public view returns(uint256) {\n        return groups.numberOfGroups();\n    }\n\n    /**\n     * @dev Returns accumulated group member rewards for provided group.\n     */\n    function getGroupMemberRewards(bytes memory groupPubKey) public view returns (uint256) {\n        return groups.groupMemberRewards[groupPubKey];\n    }\n\n    /**\n     * @dev Gets all indices in the provided group for a member.\n     */\n    function getGroupMemberIndices(bytes memory groupPubKey, address member) public view returns (uint256[] memory indices) {\n        return groups.getGroupMemberIndices(groupPubKey, member);\n    }\n\n    /**\n     * @dev Withdraws accumulated group member rewards for operator\n     * using the provided group index and member indices. Once the\n     * accumulated reward is withdrawn from the selected group, member is\n     * removed from it. Rewards can be withdrawn only from stale group.\n     * @param operator Operator address.\n     * @param groupIndex Group index.\n     * @param groupMemberIndices Array of member indices for the group member.\n     */\n    function withdrawGroupMemberRewards(address operator, uint256 groupIndex, uint256[] memory groupMemberIndices) public nonReentrant {\n        uint256 accumulatedRewards = groups.withdrawFromGroup(operator, groupIndex, groupMemberIndices);\n        (bool success, ) = stakingContract.magpieOf(operator).call.value(accumulatedRewards)(\"\");\n        if (success) {\n            emit GroupMemberRewardsWithdrawn(stakingContract.magpieOf(operator), operator, accumulatedRewards, groupIndex);\n        }\n    }\n\n    /**\n    * @dev Gets the index of the first active group.\n    */\n    function getFirstActiveGroupIndex() public view returns (uint256) {\n        return groups.expiredGroupOffset;\n    }\n\n    /**\n    * @dev Gets group public key.\n    */\n    function getGroupPublicKey(uint256 groupIndex) public view returns (bytes memory) {\n        return groups.getGroupPublicKey(groupIndex);\n    }\n\n    /**\n     * @dev Estimates gas for group creation. Includes the cost of DKG and the\n     * cost of triggering group selection.\n     */\n    function groupCreationGasEstimate() public view returns (uint256) {\n        return dkgGasEstimate.add(groupSelectionGasEstimate);\n    }\n\n     /**\n     * @dev Returns members of the given group by group public key.\n     */\n    function getGroupMembers(bytes memory groupPubKey) public view returns (address[] memory members) {\n        return groups.getGroupMembers(groupPubKey);\n    }\n\n    /**\n     * @dev Reports unauthorized signing for the provided group. Must provide\n     * a valid signature of the group address as a message. Successful signature\n     * verification means the private key has been leaked and all group members\n     * should be punished by seizingtheir tokens. The submitter of this proof is\n     * rewarded with 5% of the total seized amount scaled by the reward adjustment\n     * parameter and the rest 95% is burned.\n     */\n    function reportUnauthorizedSigning(\n        uint256 groupIndex,\n        bytes memory signedGroupPubKey\n    ) public {\n        groups.reportUnauthorizedSigning(groupIndex, signedGroupPubKey, minimumStake);\n    }\n}\n",
  "sourcePath": "/tmp/6e99790d8987a371cdcdc4b4434e1af81e866f0b/solidity/contracts/KeepRandomBeaconOperator.sol",
  "compiler": {
    "name": "solc",
    "version": "0.5.14+commit.01f1aaa4.Emscripten.clang"
  },
  "schemaVersion": "3.0.23",
  "updatedAt": "2020-03-13T16:41:41.074Z",
  "networkType": "ethereum",
  "devdoc": {
    "details": "Keep client facing contract for random beacon security-critical operations. Handles group creation and expiration, BLS signature verification and incentives. The contract is not upgradeable. New functionality can be implemented by deploying new versions following Keep client update and re-authorization by the stakers.",
    "methods": {
      "addServiceContract(address)": {
        "details": "Adds service contract",
        "params": {
          "serviceContract": "Address of the service contract."
        }
      },
      "createGroup(uint256,address)": {
        "details": "Triggers the selection process of a new candidate group.",
        "params": {
          "_newEntry": "New random beacon value that stakers will use to generate their tickets.",
          "submitter": "Operator of this contract."
        }
      },
      "genesis()": {
        "details": "Triggers the first group selection. Genesis can be called only when there are no groups on the operator contract."
      },
      "getFirstActiveGroupIndex()": {
        "details": "Gets the index of the first active group."
      },
      "getGroupMemberIndices(bytes,address)": {
        "details": "Gets all indices in the provided group for a member."
      },
      "getGroupMemberRewards(bytes)": {
        "details": "Returns accumulated group member rewards for provided group."
      },
      "getGroupMembers(bytes)": {
        "details": "Returns members of the given group by group public key."
      },
      "getGroupPublicKey(uint256)": {
        "details": "Gets group public key."
      },
      "groupCreationGasEstimate()": {
        "details": "Estimates gas for group creation. Includes the cost of DKG and the cost of triggering group selection."
      },
      "groupProfitFee()": {
        "details": "Gets group profit fee expressed in wei."
      },
      "hasMinimumStake(address)": {
        "details": "Checks if the specified account has enough active stake to become network operator and that this contract has been authorized for potential slashing.     * Having the required minimum of active stake makes the operator eligible to join the network. If the active stake is not currently undelegating, operator is also eligible for work selection.",
        "params": {
          "staker": "Staker's address"
        },
        "return": "True if has enough active stake to participate in the network, false otherwise."
      },
      "isGroupRegistered(bytes)": {
        "details": "Checks if group with the given public key is registered."
      },
      "isStaleGroup(bytes)": {
        "details": "Checks if a group with the given public key is a stale group. Stale group is an expired group which is no longer performing any operations. It is important to understand that an expired group may still perform some operations for which it was selected when it was still active. We consider a group to be stale when it's expired and when its expiration time and potentially executed operation timeout are both in the past."
      },
      "numberOfGroups()": {
        "details": "Gets the number of active groups. Expired and terminated groups are not counted as active."
      },
      "relayEntry(bytes)": {
        "details": "Creates a new relay entry and stores the associated data on the chain.",
        "params": {
          "_groupSignature": "Group BLS signature over the concatenation of the previous entry and seed."
        }
      },
      "removeServiceContract(address)": {
        "details": "Removes service contract",
        "params": {
          "serviceContract": "Address of the service contract."
        }
      },
      "reportRelayEntryTimeout()": {
        "details": "Function used to inform about the fact the currently ongoing new relay entry generation operation timed out. As a result, the group which was supposed to produce a new relay entry is immediately terminated and a new group is selected to produce a new relay entry. All members of the group are punished by seizing minimum stake of their tokens. The submitter of the transaction is rewarded with a tattletale reward which is limited to min(1, 20 / group_size) of the maximum tattletale reward."
      },
      "reportUnauthorizedSigning(uint256,bytes)": {
        "details": "Reports unauthorized signing for the provided group. Must provide a valid signature of the group address as a message. Successful signature verification means the private key has been leaked and all group members should be punished by seizingtheir tokens. The submitter of this proof is rewarded with 5% of the total seized amount scaled by the reward adjustment parameter and the rest 95% is burned."
      },
      "selectedParticipants()": {
        "details": "Gets selected participants in ascending order of their tickets."
      },
      "setMinimumStake(uint256)": {
        "details": "Set the minimum amount of KEEP that allows a Keep network client to participate in a group.",
        "params": {
          "_minimumStake": "Amount in KEEP."
        }
      },
      "setPriceFeedEstimate(uint256)": {
        "details": "Set the gas price in wei for calculating reimbursements.",
        "params": {
          "_priceFeedEstimate": "is the gas price for calculating reimbursements."
        }
      },
      "sign(uint256,bytes)": {
        "details": "Creates a request to generate a new relay entry, which will include a random number (by signing the previous entry's random number).",
        "params": {
          "previousEntry": "Previous relay entry",
          "requestId": "Request Id trackable by service contract"
        }
      },
      "submitDkgResult(uint256,bytes,bytes,bytes,uint256[])": {
        "details": "Submits result of DKG protocol. It is on-chain part of phase 14 of the protocol.",
        "params": {
          "groupPubKey": "Generated candidate group public key",
          "misbehaved": "Bytes array of misbehaved (disqualified or inactive) group members indexes in ascending order; Indexes reflect positions of members in the group as outputted by the group selection protocol.",
          "signatures": "Concatenation of signatures from members supporting the result.",
          "signingMembersIndexes": "Indices of members corresponding to each signature.",
          "submitterMemberIndex": "Claimed submitter candidate group member index"
        }
      },
      "submitTicket(bytes32)": {
        "details": "Submits ticket to request to participate in a new candidate group.",
        "params": {
          "ticket": "Bytes representation of a ticket that holds the following: - ticketValue: first 8 bytes of a result of keccak256 cryptography hash  function on the combination of the group selection seed (previous  beacon output), staker-specific value (address) and virtual staker index. - stakerValue: a staker-specific value which is the address of the staker. - virtualStakerIndex: 4-bytes number within a range of 1 to staker's weight;  has to be unique for all tickets submitted by the given staker for the  current candidate group selection."
        }
      },
      "submittedTicketsCount()": {
        "details": "Gets the number of submitted group candidate tickets so far."
      },
      "ticketSubmissionTimeout()": {
        "details": "Gets the timeout in blocks after which group candidate ticket submission is finished."
      },
      "withdrawGroupMemberRewards(address,uint256,uint256[])": {
        "details": "Withdraws accumulated group member rewards for operator using the provided group index and member indices. Once the accumulated reward is withdrawn from the selected group, member is removed from it. Rewards can be withdrawn only from stale group.",
        "params": {
          "groupIndex": "Group index.",
          "groupMemberIndices": "Array of member indices for the group member.",
          "operator": "Operator address."
        }
      }
    },
    "title": "KeepRandomBeaconOperator"
  },
  "userdoc": {
    "methods": {}
  }
}