{
  "contractName": "TokenStaking",
  "abi": [
    {
      "inputs": [
        {
          "internalType": "address",
          "name": "_tokenAddress",
          "type": "address"
        },
        {
          "internalType": "address",
          "name": "_registry",
          "type": "address"
        },
        {
          "internalType": "uint256",
          "name": "_initializationPeriod",
          "type": "uint256"
        },
        {
          "internalType": "uint256",
          "name": "_undelegationPeriod",
          "type": "uint256"
        }
      ],
      "payable": false,
      "stateMutability": "nonpayable",
      "type": "constructor"
    },
    {
      "anonymous": false,
      "inputs": [
        {
          "indexed": false,
          "internalType": "address",
          "name": "operator",
          "type": "address"
        },
        {
          "indexed": false,
          "internalType": "uint256",
          "name": "recoveredAt",
          "type": "uint256"
        }
      ],
      "name": "RecoveredStake",
      "type": "event"
    },
    {
      "anonymous": false,
      "inputs": [
        {
          "indexed": true,
          "internalType": "address",
          "name": "from",
          "type": "address"
        },
        {
          "indexed": false,
          "internalType": "uint256",
          "name": "value",
          "type": "uint256"
        }
      ],
      "name": "Staked",
      "type": "event"
    },
    {
      "anonymous": false,
      "inputs": [
        {
          "indexed": true,
          "internalType": "address",
          "name": "operator",
          "type": "address"
        },
        {
          "indexed": false,
          "internalType": "uint256",
          "name": "amount",
          "type": "uint256"
        }
      ],
      "name": "TokensSeized",
      "type": "event"
    },
    {
      "anonymous": false,
      "inputs": [
        {
          "indexed": true,
          "internalType": "address",
          "name": "operator",
          "type": "address"
        },
        {
          "indexed": false,
          "internalType": "uint256",
          "name": "amount",
          "type": "uint256"
        }
      ],
      "name": "TokensSlashed",
      "type": "event"
    },
    {
      "anonymous": false,
      "inputs": [
        {
          "indexed": true,
          "internalType": "address",
          "name": "operator",
          "type": "address"
        },
        {
          "indexed": false,
          "internalType": "uint256",
          "name": "undelegatedAt",
          "type": "uint256"
        }
      ],
      "name": "Undelegated",
      "type": "event"
    },
    {
      "constant": true,
      "inputs": [
        {
          "internalType": "address",
          "name": "_operator",
          "type": "address"
        }
      ],
      "name": "authorizerOf",
      "outputs": [
        {
          "internalType": "address",
          "name": "",
          "type": "address"
        }
      ],
      "payable": false,
      "stateMutability": "view",
      "type": "function"
    },
    {
      "constant": true,
      "inputs": [
        {
          "internalType": "address",
          "name": "_address",
          "type": "address"
        }
      ],
      "name": "balanceOf",
      "outputs": [
        {
          "internalType": "uint256",
          "name": "balance",
          "type": "uint256"
        }
      ],
      "payable": false,
      "stateMutability": "view",
      "type": "function"
    },
    {
      "constant": true,
      "inputs": [],
      "name": "initializationPeriod",
      "outputs": [
        {
          "internalType": "uint256",
          "name": "",
          "type": "uint256"
        }
      ],
      "payable": false,
      "stateMutability": "view",
      "type": "function"
    },
    {
      "constant": true,
      "inputs": [
        {
          "internalType": "address",
          "name": "_operator",
          "type": "address"
        }
      ],
      "name": "magpieOf",
      "outputs": [
        {
          "internalType": "address payable",
          "name": "",
          "type": "address"
        }
      ],
      "payable": false,
      "stateMutability": "view",
      "type": "function"
    },
    {
      "constant": true,
      "inputs": [],
      "name": "minimumStakeBase",
      "outputs": [
        {
          "internalType": "uint256",
          "name": "",
          "type": "uint256"
        }
      ],
      "payable": false,
      "stateMutability": "view",
      "type": "function"
    },
    {
      "constant": true,
      "inputs": [],
      "name": "minimumStakeSchedule",
      "outputs": [
        {
          "internalType": "uint256",
          "name": "",
          "type": "uint256"
        }
      ],
      "payable": false,
      "stateMutability": "view",
      "type": "function"
    },
    {
      "constant": true,
      "inputs": [],
      "name": "minimumStakeScheduleStart",
      "outputs": [
        {
          "internalType": "uint256",
          "name": "",
          "type": "uint256"
        }
      ],
      "payable": false,
      "stateMutability": "view",
      "type": "function"
    },
    {
      "constant": true,
      "inputs": [],
      "name": "minimumStakeSteps",
      "outputs": [
        {
          "internalType": "uint256",
          "name": "",
          "type": "uint256"
        }
      ],
      "payable": false,
      "stateMutability": "view",
      "type": "function"
    },
    {
      "constant": true,
      "inputs": [
        {
          "internalType": "address",
          "name": "",
          "type": "address"
        }
      ],
      "name": "operators",
      "outputs": [
        {
          "internalType": "uint256",
          "name": "packedParams",
          "type": "uint256"
        },
        {
          "internalType": "address",
          "name": "owner",
          "type": "address"
        },
        {
          "internalType": "address payable",
          "name": "beneficiary",
          "type": "address"
        },
        {
          "internalType": "address",
          "name": "authorizer",
          "type": "address"
        }
      ],
      "payable": false,
      "stateMutability": "view",
      "type": "function"
    },
    {
      "constant": true,
      "inputs": [
        {
          "internalType": "address",
          "name": "_address",
          "type": "address"
        }
      ],
      "name": "operatorsOf",
      "outputs": [
        {
          "internalType": "address[]",
          "name": "",
          "type": "address[]"
        }
      ],
      "payable": false,
      "stateMutability": "view",
      "type": "function"
    },
    {
      "constant": true,
      "inputs": [
        {
          "internalType": "address",
          "name": "_operator",
          "type": "address"
        }
      ],
      "name": "ownerOf",
      "outputs": [
        {
          "internalType": "address",
          "name": "",
          "type": "address"
        }
      ],
      "payable": false,
      "stateMutability": "view",
      "type": "function"
    },
    {
      "constant": true,
      "inputs": [
        {
          "internalType": "address",
          "name": "",
          "type": "address"
        },
        {
          "internalType": "uint256",
          "name": "",
          "type": "uint256"
        }
      ],
      "name": "ownerOperators",
      "outputs": [
        {
          "internalType": "address",
          "name": "",
          "type": "address"
        }
      ],
      "payable": false,
      "stateMutability": "view",
      "type": "function"
    },
    {
      "constant": true,
      "inputs": [],
      "name": "registry",
      "outputs": [
        {
          "internalType": "contract Registry",
          "name": "",
          "type": "address"
        }
      ],
      "payable": false,
      "stateMutability": "view",
      "type": "function"
    },
    {
      "constant": true,
      "inputs": [],
      "name": "token",
      "outputs": [
        {
          "internalType": "contract ERC20Burnable",
          "name": "",
          "type": "address"
        }
      ],
      "payable": false,
      "stateMutability": "view",
      "type": "function"
    },
    {
      "constant": true,
      "inputs": [],
      "name": "undelegationPeriod",
      "outputs": [
        {
          "internalType": "uint256",
          "name": "",
          "type": "uint256"
        }
      ],
      "payable": false,
      "stateMutability": "view",
      "type": "function"
    },
    {
      "constant": true,
      "inputs": [],
      "name": "minimumStake",
      "outputs": [
        {
          "internalType": "uint256",
          "name": "",
          "type": "uint256"
        }
      ],
      "payable": false,
      "stateMutability": "view",
      "type": "function"
    },
    {
      "constant": false,
      "inputs": [
        {
          "internalType": "address",
          "name": "_from",
          "type": "address"
        },
        {
          "internalType": "uint256",
          "name": "_value",
          "type": "uint256"
        },
        {
          "internalType": "address",
          "name": "_token",
          "type": "address"
        },
        {
          "internalType": "bytes",
          "name": "_extraData",
          "type": "bytes"
        }
      ],
      "name": "receiveApproval",
      "outputs": [],
      "payable": false,
      "stateMutability": "nonpayable",
      "type": "function"
    },
    {
      "constant": false,
      "inputs": [
        {
          "internalType": "address",
          "name": "_operator",
          "type": "address"
        }
      ],
      "name": "cancelStake",
      "outputs": [],
      "payable": false,
      "stateMutability": "nonpayable",
      "type": "function"
    },
    {
      "constant": false,
      "inputs": [
        {
          "internalType": "address",
          "name": "_operator",
          "type": "address"
        }
      ],
      "name": "undelegate",
      "outputs": [],
      "payable": false,
      "stateMutability": "nonpayable",
      "type": "function"
    },
    {
      "constant": false,
      "inputs": [
        {
          "internalType": "address",
          "name": "_operator",
          "type": "address"
        },
        {
          "internalType": "uint256",
          "name": "_undelegationTimestamp",
          "type": "uint256"
        }
      ],
      "name": "undelegateAt",
      "outputs": [],
      "payable": false,
      "stateMutability": "nonpayable",
      "type": "function"
    },
    {
      "constant": false,
      "inputs": [
        {
          "internalType": "address",
          "name": "_operator",
          "type": "address"
        }
      ],
      "name": "recoverStake",
      "outputs": [],
      "payable": false,
      "stateMutability": "nonpayable",
      "type": "function"
    },
    {
      "constant": true,
      "inputs": [
        {
          "internalType": "address",
          "name": "_operator",
          "type": "address"
        }
      ],
      "name": "getDelegationInfo",
      "outputs": [
        {
          "internalType": "uint256",
          "name": "amount",
          "type": "uint256"
        },
        {
          "internalType": "uint256",
          "name": "createdAt",
          "type": "uint256"
        },
        {
          "internalType": "uint256",
          "name": "undelegatedAt",
          "type": "uint256"
        }
      ],
      "payable": false,
      "stateMutability": "view",
      "type": "function"
    },
    {
      "constant": false,
      "inputs": [
        {
          "internalType": "uint256",
          "name": "amountToSlash",
          "type": "uint256"
        },
        {
          "internalType": "address[]",
          "name": "misbehavedOperators",
          "type": "address[]"
        }
      ],
      "name": "slash",
      "outputs": [],
      "payable": false,
      "stateMutability": "nonpayable",
      "type": "function"
    },
    {
      "constant": false,
      "inputs": [
        {
          "internalType": "uint256",
          "name": "amountToSeize",
          "type": "uint256"
        },
        {
          "internalType": "uint256",
          "name": "rewardMultiplier",
          "type": "uint256"
        },
        {
          "internalType": "address",
          "name": "tattletale",
          "type": "address"
        },
        {
          "internalType": "address[]",
          "name": "misbehavedOperators",
          "type": "address[]"
        }
      ],
      "name": "seize",
      "outputs": [],
      "payable": false,
      "stateMutability": "nonpayable",
      "type": "function"
    },
    {
      "constant": false,
      "inputs": [
        {
          "internalType": "address",
          "name": "_operator",
          "type": "address"
        },
        {
          "internalType": "address",
          "name": "_operatorContract",
          "type": "address"
        }
      ],
      "name": "authorizeOperatorContract",
      "outputs": [],
      "payable": false,
      "stateMutability": "nonpayable",
      "type": "function"
    },
    {
      "constant": true,
      "inputs": [
        {
          "internalType": "address",
          "name": "_operator",
          "type": "address"
        },
        {
          "internalType": "address",
          "name": "_operatorContract",
          "type": "address"
        }
      ],
      "name": "isAuthorizedForOperator",
      "outputs": [
        {
          "internalType": "bool",
          "name": "",
          "type": "bool"
        }
      ],
      "payable": false,
      "stateMutability": "view",
      "type": "function"
    },
    {
      "constant": true,
      "inputs": [
        {
          "internalType": "address",
          "name": "_operator",
          "type": "address"
        },
        {
          "internalType": "address",
          "name": "_operatorContract",
          "type": "address"
        }
      ],
      "name": "eligibleStake",
      "outputs": [
        {
          "internalType": "uint256",
          "name": "balance",
          "type": "uint256"
        }
      ],
      "payable": false,
      "stateMutability": "view",
      "type": "function"
    },
    {
      "constant": true,
      "inputs": [
        {
          "internalType": "address",
          "name": "_operator",
          "type": "address"
        },
        {
          "internalType": "address",
          "name": "_operatorContract",
          "type": "address"
        }
      ],
      "name": "activeStake",
      "outputs": [
        {
          "internalType": "uint256",
          "name": "balance",
          "type": "uint256"
        }
      ],
      "payable": false,
      "stateMutability": "view",
      "type": "function"
    },
    {
      "constant": true,
      "inputs": [
        {
          "internalType": "address",
          "name": "staker",
          "type": "address"
        },
        {
          "internalType": "address",
          "name": "operatorContract",
          "type": "address"
        }
      ],
      "name": "hasMinimumStake",
      "outputs": [
        {
          "internalType": "bool",
          "name": "",
          "type": "bool"
        }
      ],
      "payable": false,
      "stateMutability": "view",
      "type": "function"
    },
    {
      "constant": false,
      "inputs": [
        {
          "internalType": "address",
          "name": "delegatedAuthoritySource",
          "type": "address"
        }
      ],
      "name": "claimDelegatedAuthority",
      "outputs": [],
      "payable": false,
      "stateMutability": "nonpayable",
      "type": "function"
    },
    {
      "constant": true,
      "inputs": [
        {
          "internalType": "address",
          "name": "operatorContract",
          "type": "address"
        }
      ],
      "name": "getAuthoritySource",
      "outputs": [
        {
          "internalType": "address",
          "name": "",
          "type": "address"
        }
      ],
      "payable": false,
      "stateMutability": "view",
      "type": "function"
    }
  ],
  "bytecode": "0x60806040523480156200001157600080fd5b506040516200458938038062004589833981810160405260808110156200003757600080fd5b8101908080519060200190929190805190602001909291908051906020019092919080519060200190929190505050600073ffffffffffffffffffffffffffffffffffffffff168473ffffffffffffffffffffffffffffffffffffffff1614156200010a576040517f08c379a000000000000000000000000000000000000000000000000000000000815260040180806020018281038252601c8152602001807f546f6b656e20616464726573732063616e2774206265207a65726f2e0000000081525060200191505060405180910390fd5b836000806101000a81548173ffffffffffffffffffffffffffffffffffffffff021916908373ffffffffffffffffffffffffffffffffffffffff16021790555082600660006101000a81548173ffffffffffffffffffffffffffffffffffffffff021916908373ffffffffffffffffffffffffffffffffffffffff160217905550816001819055508060028190555042600581905550505050506143d580620001b46000396000f3fe608060405234801561001057600080fd5b50600436106101e55760003560e01c80639557e0bb1161010f578063e064172e116100a2578063fab46d6611610071578063fab46d6614610d41578063fb1677b114610da7578063fc0c546a14610e2b578063fdd1f98614610e75576101e5565b8063e064172e14610bff578063ec5ffac214610c43578063ef1f966114610c61578063f165478314610cdd576101e5565b8063b534fbb6116100de578063b534fbb614610a80578063cbe945dc14610b19578063cdc3e90a14610b9d578063da8be86414610bbb576101e5565b80639557e0bb1461092e578063a590ae36146109a6578063aed1ec72146109ea578063afff33ef14610a08576101e5565b80634239dd8d116101875780637b103999116101565780637b103999146106ff57806389002fed146107495780638e49aa7a146107675780638f4ffcb114610829576101e5565b80634239dd8d146105875780635139a6c514610615578063525835f91461066357806370a08231146106a7576101e5565b806314afd79e116101c357806314afd79e146104435780631a051082146104c75780631cdac873146104e5578063280c384614610569576101e5565b806309055e90146101ea57806310a63ec0146102d657806313e7c9d814610352575b600080fd5b6102d46004803603608081101561020057600080fd5b810190808035906020019092919080359060200190929190803573ffffffffffffffffffffffffffffffffffffffff1690602001909291908035906020019064010000000081111561025157600080fd5b82018360208201111561026357600080fd5b8035906020019184602083028401116401000000008311171561028557600080fd5b919080806020026020016040519081016040528093929190818152602001838360200280828437600081840152601f19601f820116905080830192505050505050509192919290505050610e93565b005b610338600480360360408110156102ec57600080fd5b81019080803573ffffffffffffffffffffffffffffffffffffffff169060200190929190803573ffffffffffffffffffffffffffffffffffffffff1690602001909291905050506114b8565b604051808215151515815260200191505060405180910390f35b6103946004803603602081101561036857600080fd5b81019080803573ffffffffffffffffffffffffffffffffffffffff1690602001909291905050506114d6565b604051808581526020018473ffffffffffffffffffffffffffffffffffffffff1673ffffffffffffffffffffffffffffffffffffffff1681526020018373ffffffffffffffffffffffffffffffffffffffff1673ffffffffffffffffffffffffffffffffffffffff1681526020018273ffffffffffffffffffffffffffffffffffffffff1673ffffffffffffffffffffffffffffffffffffffff16815260200194505050505060405180910390f35b6104856004803603602081101561045957600080fd5b81019080803573ffffffffffffffffffffffffffffffffffffffff169060200190929190505050611566565b604051808273ffffffffffffffffffffffffffffffffffffffff1673ffffffffffffffffffffffffffffffffffffffff16815260200191505060405180910390f35b6104cf6115d2565b6040518082815260200191505060405180910390f35b610527600480360360208110156104fb57600080fd5b81019080803573ffffffffffffffffffffffffffffffffffffffff1690602001909291905050506115da565b604051808273ffffffffffffffffffffffffffffffffffffffff1673ffffffffffffffffffffffffffffffffffffffff16815260200191505060405180910390f35b610571611646565b6040518082815260200191505060405180910390f35b6105d36004803603604081101561059d57600080fd5b81019080803573ffffffffffffffffffffffffffffffffffffffff1690602001909291908035906020019092919050505061164b565b604051808273ffffffffffffffffffffffffffffffffffffffff1673ffffffffffffffffffffffffffffffffffffffff16815260200191505060405180910390f35b6106616004803603604081101561062b57600080fd5b81019080803573ffffffffffffffffffffffffffffffffffffffff16906020019092919080359060200190929190505050611696565b005b6106a56004803603602081101561067957600080fd5b81019080803573ffffffffffffffffffffffffffffffffffffffff169060200190929190505050611a03565b005b6106e9600480360360208110156106bd57600080fd5b81019080803573ffffffffffffffffffffffffffffffffffffffff169060200190929190505050611cab565b6040518082815260200191505060405180910390f35b610707611cff565b604051808273ffffffffffffffffffffffffffffffffffffffff1673ffffffffffffffffffffffffffffffffffffffff16815260200191505060405180910390f35b610751611d25565b6040518082815260200191505060405180910390f35b6108276004803603604081101561077d57600080fd5b8101908080359060200190929190803590602001906401000000008111156107a457600080fd5b8201836020820111156107b657600080fd5b803590602001918460208302840111640100000000831117156107d857600080fd5b919080806020026020016040519081016040528093929190818152602001838360200280828437600081840152601f19601f820116905080830192505050505050509192919290505050611d33565b005b61092c6004803603608081101561083f57600080fd5b81019080803573ffffffffffffffffffffffffffffffffffffffff16906020019092919080359060200190929190803573ffffffffffffffffffffffffffffffffffffffff169060200190929190803590602001906401000000008111156108a657600080fd5b8201836020820111156108b857600080fd5b803590602001918460018302840111640100000000831117156108da57600080fd5b91908080601f016020809104026020016040519081016040528093929190818152602001838380828437600081840152601f19601f8201169050808301925050505050505091929192905050506122cd565b005b6109906004803603604081101561094457600080fd5b81019080803573ffffffffffffffffffffffffffffffffffffffff169060200190929190803573ffffffffffffffffffffffffffffffffffffffff169060200190929190505050612832565b6040518082815260200191505060405180910390f35b6109e8600480360360208110156109bc57600080fd5b81019080803573ffffffffffffffffffffffffffffffffffffffff1690602001909291905050506128d5565b005b6109f2612bbb565b6040518082815260200191505060405180910390f35b610a6a60048036036040811015610a1e57600080fd5b81019080803573ffffffffffffffffffffffffffffffffffffffff169060200190929190803573ffffffffffffffffffffffffffffffffffffffff169060200190929190505050612bc1565b6040518082815260200191505060405180910390f35b610ac260048036036020811015610a9657600080fd5b81019080803573ffffffffffffffffffffffffffffffffffffffff169060200190929190505050612c90565b6040518080602001828103825283818151815260200191508051906020019060200280838360005b83811015610b05578082015181840152602081019050610aea565b505050509050019250505060405180910390f35b610b5b60048036036020811015610b2f57600080fd5b81019080803573ffffffffffffffffffffffffffffffffffffffff169060200190929190505050612d5d565b604051808273ffffffffffffffffffffffffffffffffffffffff1673ffffffffffffffffffffffffffffffffffffffff16815260200191505060405180910390f35b610ba5612e12565b6040518082815260200191505060405180910390f35b610bfd60048036036020811015610bd157600080fd5b81019080803573ffffffffffffffffffffffffffffffffffffffff169060200190929190505050612e18565b005b610c4160048036036020811015610c1557600080fd5b81019080803573ffffffffffffffffffffffffffffffffffffffff169060200190929190505050612e25565b005b610c4b6130d8565b6040518082815260200191505060405180910390f35b610cc360048036036040811015610c7757600080fd5b81019080803573ffffffffffffffffffffffffffffffffffffffff169060200190929190803573ffffffffffffffffffffffffffffffffffffffff169060200190929190505050613185565b604051808215151515815260200191505060405180910390f35b610d3f60048036036040811015610cf357600080fd5b81019080803573ffffffffffffffffffffffffffffffffffffffff169060200190929190803573ffffffffffffffffffffffffffffffffffffffff169060200190929190505050613221565b005b610d8360048036036020811015610d5757600080fd5b81019080803573ffffffffffffffffffffffffffffffffffffffff169060200190929190505050613584565b60405180848152602001838152602001828152602001935050505060405180910390f35b610de960048036036020811015610dbd57600080fd5b81019080803573ffffffffffffffffffffffffffffffffffffffff1690602001909291905050506135e1565b604051808273ffffffffffffffffffffffffffffffffffffffff1673ffffffffffffffffffffffffffffffffffffffff16815260200191505060405180910390f35b610e3361364d565b604051808273ffffffffffffffffffffffffffffffffffffffff1673ffffffffffffffffffffffffffffffffffffffff16815260200191505060405180910390f35b610e7d613672565b6040518082815260200191505060405180910390f35b33600660009054906101000a900473ffffffffffffffffffffffffffffffffffffffff1673ffffffffffffffffffffffffffffffffffffffff166384d57689610edb83612d5d565b6040518263ffffffff1660e01b8152600401808273ffffffffffffffffffffffffffffffffffffffff1673ffffffffffffffffffffffffffffffffffffffff16815260200191505060206040518083038186803b158015610f3b57600080fd5b505afa158015610f4f573d6000803e3d6000fd5b505050506040513d6020811015610f6557600080fd5b8101908080519060200190929190505050610fcb576040517f08c379a000000000000000000000000000000000000000000000000000000000815260040180806020018281038252602181526020018061419e6021913960400191505060405180910390fd5b60008090506000610fdb33612d5d565b905060008090505b8451811015611399576000858281518110610ffa57fe5b60200260200101519050600760008473ffffffffffffffffffffffffffffffffffffffff1673ffffffffffffffffffffffffffffffffffffffff16815260200190815260200160002060008273ffffffffffffffffffffffffffffffffffffffff1673ffffffffffffffffffffffffffffffffffffffff16815260200190815260200160002060009054906101000a900460ff16611100576040517f08c379a000000000000000000000000000000000000000000000000000000000815260040180806020018281038252600e8152602001807f4e6f7420617574686f72697a656400000000000000000000000000000000000081525060200191505060405180910390fd5b6000600460008373ffffffffffffffffffffffffffffffffffffffff1673ffffffffffffffffffffffffffffffffffffffff16815260200190815260200160002060000154905061116460015461115683613678565b61368f90919063ffffffff16565b42116111d8576040517f08c379a000000000000000000000000000000000000000000000000000000000815260040180806020018281038252601d8152602001807f4f70657261746f72207374616b65206d7573742062652061637469766500000081525060200191505060405180910390fd5b60006111e382613717565b90508a8110156112b457611200818761368f90919063ffffffff16565b9550600080905061121a818461373190919063ffffffff16565b600460008673ffffffffffffffffffffffffffffffffffffffff1673ffffffffffffffffffffffffffffffffffffffff168152602001908152602001600020600001819055508373ffffffffffffffffffffffffffffffffffffffff167fc5c18d4a60510957a4dc6dbd6d40ecfcfa32ab9517528a6b4052729e48e183d3836040518082815260200191505060405180910390a250611389565b6112c78b8761368f90919063ffffffff16565b955060006112de8c8361375690919063ffffffff16565b90506112f3818461373190919063ffffffff16565b600460008673ffffffffffffffffffffffffffffffffffffffff1673ffffffffffffffffffffffffffffffffffffffff168152602001908152602001600020600001819055508373ffffffffffffffffffffffffffffffffffffffff167fc5c18d4a60510957a4dc6dbd6d40ecfcfa32ab9517528a6b4052729e48e183d38d6040518082815260200191505060405180910390a2505b5050508080600101915050610fe3565b5060006113c2876113b46005866137a090919063ffffffff16565b6137a090919063ffffffff16565b905061141086826000809054906101000a900473ffffffffffffffffffffffffffffffffffffffff1673ffffffffffffffffffffffffffffffffffffffff166137d09092919063ffffffff16565b6000809054906101000a900473ffffffffffffffffffffffffffffffffffffffff1673ffffffffffffffffffffffffffffffffffffffff166342966c68611460838661375690919063ffffffff16565b6040518263ffffffff1660e01b815260040180828152602001915050600060405180830381600087803b15801561149657600080fd5b505af11580156114aa573d6000803e3d6000fd5b505050505050505050505050565b60006114c26130d8565b6114cc8484612832565b1015905092915050565b60046020528060005260406000206000915090508060000154908060010160009054906101000a900473ffffffffffffffffffffffffffffffffffffffff16908060020160009054906101000a900473ffffffffffffffffffffffffffffffffffffffff16908060030160009054906101000a900473ffffffffffffffffffffffffffffffffffffffff16905084565b6000600460008373ffffffffffffffffffffffffffffffffffffffff1673ffffffffffffffffffffffffffffffffffffffff16815260200190815260200160002060010160009054906101000a900473ffffffffffffffffffffffffffffffffffffffff169050919050565b6303c2670081565b6000600460008373ffffffffffffffffffffffffffffffffffffffff1673ffffffffffffffffffffffffffffffffffffffff16815260200190815260200160002060020160009054906101000a900473ffffffffffffffffffffffffffffffffffffffff169050919050565b600a81565b6003602052816000526040600020818154811061166457fe5b906000526020600020016000915091509054906101000a900473ffffffffffffffffffffffffffffffffffffffff1681565b6000600460008473ffffffffffffffffffffffffffffffffffffffff1673ffffffffffffffffffffffffffffffffffffffff16815260200190815260200160002060010160009054906101000a900473ffffffffffffffffffffffffffffffffffffffff16905060008173ffffffffffffffffffffffffffffffffffffffff163373ffffffffffffffffffffffffffffffffffffffff161490508373ffffffffffffffffffffffffffffffffffffffff163373ffffffffffffffffffffffffffffffffffffffff1614806117675750805b6117bc576040517f08c379a00000000000000000000000000000000000000000000000000000000081526004018080602001828103825260378152602001806140b56037913960400191505060405180910390fd5b42831015611815576040517f08c379a000000000000000000000000000000000000000000000000000000000815260040180806020018281038252602e81526020018061414f602e913960400191505060405180910390fd5b6000600460008673ffffffffffffffffffffffffffffffffffffffff1673ffffffffffffffffffffffffffffffffffffffff168152602001908152602001600020600001549050600061186782613678565b90506000611874836138a1565b905061188b6001548361368f90919063ffffffff16565b86116118e2576040517f08c379a00000000000000000000000000000000000000000000000000000000081526004018080602001828103825260438152602001806142566043913960600191505060405180910390fd5b60008114806118f057508581115b806118f85750835b61194d576040517f08c379a00000000000000000000000000000000000000000000000000000000081526004018080602001828103825260378152602001806143406037913960400191505060405180910390fd5b600061196287856138b490919063ffffffff16565b905080600460008a73ffffffffffffffffffffffffffffffffffffffff1673ffffffffffffffffffffffffffffffffffffffff168152602001908152602001600020600001819055508773ffffffffffffffffffffffffffffffffffffffff167f4ae68879209bc4b489a38251122202a3653305e3d95a27baf7a5681410c90b38886040518082815260200191505060405180910390a25050505050505050565b6000600460008373ffffffffffffffffffffffffffffffffffffffff1673ffffffffffffffffffffffffffffffffffffffff1681526020019081526020016000206000015490506000611a55826138a1565b1415611aac576040517f08c379a000000000000000000000000000000000000000000000000000000000815260040180806020018281038252602a8152602001806141f3602a913960400191505060405180910390fd5b611ac9600254611abb836138a1565b61368f90919063ffffffff16565b4211611b20576040517f08c379a000000000000000000000000000000000000000000000000000000000815260040180806020018281038252603981526020018061421d6039913960400191505060405180910390fd5b6000600460008473ffffffffffffffffffffffffffffffffffffffff1673ffffffffffffffffffffffffffffffffffffffff16815260200190815260200160002060010160009054906101000a900473ffffffffffffffffffffffffffffffffffffffff1690506000611b9283613717565b9050611ba860008461373190919063ffffffff16565b600460008673ffffffffffffffffffffffffffffffffffffffff1673ffffffffffffffffffffffffffffffffffffffff16815260200190815260200160002060000181905550611c3a82826000809054906101000a900473ffffffffffffffffffffffffffffffffffffffff1673ffffffffffffffffffffffffffffffffffffffff166137d09092919063ffffffff16565b7f564f402e70218efee257fcbf84954e2e95e3ecc52cebe7b06c79955463752d5a8442604051808373ffffffffffffffffffffffffffffffffffffffff1673ffffffffffffffffffffffffffffffffffffffff1681526020018281526020019250505060405180910390a150505050565b6000611cf8600460008473ffffffffffffffffffffffffffffffffffffffff1673ffffffffffffffffffffffffffffffffffffffff16815260200190815260200160002060000154613717565b9050919050565b600660009054906101000a900473ffffffffffffffffffffffffffffffffffffffff1681565b69021e19e0c9bab240000081565b33600660009054906101000a900473ffffffffffffffffffffffffffffffffffffffff1673ffffffffffffffffffffffffffffffffffffffff166384d57689611d7b83612d5d565b6040518263ffffffff1660e01b8152600401808273ffffffffffffffffffffffffffffffffffffffff1673ffffffffffffffffffffffffffffffffffffffff16815260200191505060206040518083038186803b158015611ddb57600080fd5b505afa158015611def573d6000803e3d6000fd5b505050506040513d6020811015611e0557600080fd5b8101908080519060200190929190505050611e6b576040517f08c379a000000000000000000000000000000000000000000000000000000000815260040180806020018281038252602181526020018061419e6021913960400191505060405180910390fd5b60008090506000611e7b33612d5d565b905060008090505b8451811015612239576000858281518110611e9a57fe5b60200260200101519050600760008473ffffffffffffffffffffffffffffffffffffffff1673ffffffffffffffffffffffffffffffffffffffff16815260200190815260200160002060008273ffffffffffffffffffffffffffffffffffffffff1673ffffffffffffffffffffffffffffffffffffffff16815260200190815260200160002060009054906101000a900460ff16611fa0576040517f08c379a000000000000000000000000000000000000000000000000000000000815260040180806020018281038252600e8152602001807f4e6f7420617574686f72697a656400000000000000000000000000000000000081525060200191505060405180910390fd5b6000600460008373ffffffffffffffffffffffffffffffffffffffff1673ffffffffffffffffffffffffffffffffffffffff168152602001908152602001600020600001549050612004600154611ff683613678565b61368f90919063ffffffff16565b4211612078576040517f08c379a000000000000000000000000000000000000000000000000000000000815260040180806020018281038252601d8152602001807f4f70657261746f72207374616b65206d7573742062652061637469766500000081525060200191505060405180910390fd5b600061208382613717565b905088811015612154576120a0818761368f90919063ffffffff16565b955060008090506120ba818461373190919063ffffffff16565b600460008673ffffffffffffffffffffffffffffffffffffffff1673ffffffffffffffffffffffffffffffffffffffff168152602001908152602001600020600001819055508373ffffffffffffffffffffffffffffffffffffffff167ff71d4eeef63c86ffc692e306c623b01b8373e091da8ee455aa0fe26305a4981c836040518082815260200191505060405180910390a250612229565b612167898761368f90919063ffffffff16565b9550600061217e8a8361375690919063ffffffff16565b9050612193818461373190919063ffffffff16565b600460008673ffffffffffffffffffffffffffffffffffffffff1673ffffffffffffffffffffffffffffffffffffffff168152602001908152602001600020600001819055508373ffffffffffffffffffffffffffffffffffffffff167ff71d4eeef63c86ffc692e306c623b01b8373e091da8ee455aa0fe26305a4981c8b6040518082815260200191505060405180910390a2505b5050508080600101915050611e83565b506000809054906101000a900473ffffffffffffffffffffffffffffffffffffffff1673ffffffffffffffffffffffffffffffffffffffff166342966c68836040518263ffffffff1660e01b815260040180828152602001915050600060405180830381600087803b1580156122ae57600080fd5b505af11580156122c2573d6000803e3d6000fd5b505050505050505050565b6000809054906101000a900473ffffffffffffffffffffffffffffffffffffffff1673ffffffffffffffffffffffffffffffffffffffff168273ffffffffffffffffffffffffffffffffffffffff1614612372576040517f08c379a000000000000000000000000000000000000000000000000000000000815260040180806020018281038252603c8152602001806142c0603c913960400191505060405180910390fd5b61237a6130d8565b8310156123d2576040517f08c379a00000000000000000000000000000000000000000000000000000000081526004018080602001828103825260348152602001806141bf6034913960400191505060405180910390fd5b603c81511461242c576040517f08c379a00000000000000000000000000000000000000000000000000000000081526004018080602001828103825260278152602001806142996027913960400191505060405180910390fd5b60006124426000836138d990919063ffffffff16565b9050600061245a6014846138d990919063ffffffff16565b9050600073ffffffffffffffffffffffffffffffffffffffff16600460008373ffffffffffffffffffffffffffffffffffffffff1673ffffffffffffffffffffffffffffffffffffffff16815260200190815260200160002060010160009054906101000a900473ffffffffffffffffffffffffffffffffffffffff1673ffffffffffffffffffffffffffffffffffffffff1614612543576040517f08c379a00000000000000000000000000000000000000000000000000000000081526004018080602001828103825260238152602001806142fc6023913960400191505060405180910390fd5b60006125596028856138d990919063ffffffff16565b90506125a98730886000809054906101000a900473ffffffffffffffffffffffffffffffffffffffff1673ffffffffffffffffffffffffffffffffffffffff1661396c909392919063ffffffff16565b60405180608001604052806125c088426000613a72565b81526020018873ffffffffffffffffffffffffffffffffffffffff1681526020018473ffffffffffffffffffffffffffffffffffffffff1681526020018273ffffffffffffffffffffffffffffffffffffffff16815250600460008473ffffffffffffffffffffffffffffffffffffffff1673ffffffffffffffffffffffffffffffffffffffff1681526020019081526020016000206000820151816000015560208201518160010160006101000a81548173ffffffffffffffffffffffffffffffffffffffff021916908373ffffffffffffffffffffffffffffffffffffffff16021790555060408201518160020160006101000a81548173ffffffffffffffffffffffffffffffffffffffff021916908373ffffffffffffffffffffffffffffffffffffffff16021790555060608201518160030160006101000a81548173ffffffffffffffffffffffffffffffffffffffff021916908373ffffffffffffffffffffffffffffffffffffffff160217905550905050600360008873ffffffffffffffffffffffffffffffffffffffff1673ffffffffffffffffffffffffffffffffffffffff1681526020019081526020016000208290806001815401808255809150509060018203906000526020600020016000909192909190916101000a81548173ffffffffffffffffffffffffffffffffffffffff021916908373ffffffffffffffffffffffffffffffffffffffff160217905550508173ffffffffffffffffffffffffffffffffffffffff167f9e71bc8eea02a63969f509818f2dafb9254532904319f9dbda79b67bd34a5f3d876040518082815260200191505060405180910390a250505050505050565b60008061283f8484613185565b90506000600460008673ffffffffffffffffffffffffffffffffffffffff1673ffffffffffffffffffffffffffffffffffffffff168152602001908152602001600020600001549050600061289382613678565b905060006128ac6001548361368f90919063ffffffff16565b421190508380156128ba5750805b156128cb576128c883613717565b94505b5050505092915050565b80600660009054906101000a900473ffffffffffffffffffffffffffffffffffffffff1673ffffffffffffffffffffffffffffffffffffffff166384d5768961291d83612d5d565b6040518263ffffffff1660e01b8152600401808273ffffffffffffffffffffffffffffffffffffffff1673ffffffffffffffffffffffffffffffffffffffff16815260200191505060206040518083038186803b15801561297d57600080fd5b505afa158015612991573d6000803e3d6000fd5b505050506040513d60208110156129a757600080fd5b8101908080519060200190929190505050612a0d576040517f08c379a000000000000000000000000000000000000000000000000000000000815260040180806020018281038252602181526020018061419e6021913960400191505060405180910390fd5b8173ffffffffffffffffffffffffffffffffffffffff1663d870c034336040518263ffffffff1660e01b8152600401808273ffffffffffffffffffffffffffffffffffffffff1673ffffffffffffffffffffffffffffffffffffffff168152602001915050602060405180830381600087803b158015612a8c57600080fd5b505af1158015612aa0573d6000803e3d6000fd5b505050506040513d6020811015612ab657600080fd5b8101908080519060200190929190505050612b39576040517f08c379a00000000000000000000000000000000000000000000000000000000081526004018080602001828103825260158152602001807f556e7265636f676e697a656420636c61696d616e74000000000000000000000081525060200191505060405180910390fd5b81600860003373ffffffffffffffffffffffffffffffffffffffff1673ffffffffffffffffffffffffffffffffffffffff16815260200190815260200160002060006101000a81548173ffffffffffffffffffffffffffffffffffffffff021916908373ffffffffffffffffffffffffffffffffffffffff1602179055505050565b60015481565b600080612bce8484613185565b90506000600460008673ffffffffffffffffffffffffffffffffffffffff1673ffffffffffffffffffffffffffffffffffffffff1681526020019081526020016000206000015490506000612c2282613678565b90506000612c2f836138a1565b90506000612c486001548461368f90919063ffffffff16565b421190506000808314158015612c5d57508242115b9050858015612c695750815b8015612c73575080155b15612c8457612c8185613717565b96505b50505050505092915050565b6060600360008373ffffffffffffffffffffffffffffffffffffffff1673ffffffffffffffffffffffffffffffffffffffff168152602001908152602001600020805480602002602001604051908101604052809291908181526020018280548015612d5157602002820191906000526020600020905b8160009054906101000a900473ffffffffffffffffffffffffffffffffffffffff1673ffffffffffffffffffffffffffffffffffffffff1681526020019060010190808311612d07575b50505050509050919050565b600080600860008473ffffffffffffffffffffffffffffffffffffffff1673ffffffffffffffffffffffffffffffffffffffff16815260200190815260200160002060009054906101000a900473ffffffffffffffffffffffffffffffffffffffff169050600073ffffffffffffffffffffffffffffffffffffffff168173ffffffffffffffffffffffffffffffffffffffff161415612e005782915050612e0d565b612e0981612d5d565b9150505b919050565b60055481565b612e228142611696565b50565b6000600460008373ffffffffffffffffffffffffffffffffffffffff1673ffffffffffffffffffffffffffffffffffffffff16815260200190815260200160002060010160009054906101000a900473ffffffffffffffffffffffffffffffffffffffff1690508173ffffffffffffffffffffffffffffffffffffffff163373ffffffffffffffffffffffffffffffffffffffff161480612ef157508073ffffffffffffffffffffffffffffffffffffffff163373ffffffffffffffffffffffffffffffffffffffff16145b612f46576040517f08c379a000000000000000000000000000000000000000000000000000000000815260040180806020018281038252604281526020018061410d6042913960600191505060405180910390fd5b6000600460008473ffffffffffffffffffffffffffffffffffffffff1673ffffffffffffffffffffffffffffffffffffffff168152602001908152602001600020600001549050612faa600154612f9c83613678565b61368f90919063ffffffff16565b42111561301f576040517f08c379a000000000000000000000000000000000000000000000000000000000815260040180806020018281038252601d8152602001807f496e697469616c697a6174696f6e20706572696f64206973206f76657200000081525060200191505060405180910390fd5b600061302a82613717565b905061304060008361373190919063ffffffff16565b600460008673ffffffffffffffffffffffffffffffffffffffff1673ffffffffffffffffffffffffffffffffffffffff168152602001908152602001600020600001819055506130d283826000809054906101000a900473ffffffffffffffffffffffffffffffffffffffff1673ffffffffffffffffffffffffffffffffffffffff166137d09092919063ffffffff16565b50505050565b60006130f36303c2670060055461368f90919063ffffffff16565b42101561317457600061313a6303c2670061312c61311c6005544261375690919063ffffffff16565b600a613b9b90919063ffffffff16565b613c2190919063ffffffff16565b905061316c61315382600a61375690919063ffffffff16565b69021e19e0c9bab2400000613b9b90919063ffffffff16565b915050613182565b69021e19e0c9bab240000090505b90565b60006007600061319484612d5d565b73ffffffffffffffffffffffffffffffffffffffff1673ffffffffffffffffffffffffffffffffffffffff16815260200190815260200160002060008473ffffffffffffffffffffffffffffffffffffffff1673ffffffffffffffffffffffffffffffffffffffff16815260200190815260200160002060009054906101000a900460ff16905092915050565b813373ffffffffffffffffffffffffffffffffffffffff16600460008373ffffffffffffffffffffffffffffffffffffffff1673ffffffffffffffffffffffffffffffffffffffff16815260200190815260200160002060030160009054906101000a900473ffffffffffffffffffffffffffffffffffffffff1673ffffffffffffffffffffffffffffffffffffffff1614613325576040517f08c379a00000000000000000000000000000000000000000000000000000000081526004018080602001828103825260178152602001807f4e6f74206f70657261746f7220617574686f72697a657200000000000000000081525060200191505060405180910390fd5b81600660009054906101000a900473ffffffffffffffffffffffffffffffffffffffff1673ffffffffffffffffffffffffffffffffffffffff166384d5768961336d83612d5d565b6040518263ffffffff1660e01b8152600401808273ffffffffffffffffffffffffffffffffffffffff1673ffffffffffffffffffffffffffffffffffffffff16815260200191505060206040518083038186803b1580156133cd57600080fd5b505afa1580156133e1573d6000803e3d6000fd5b505050506040513d60208110156133f757600080fd5b810190808051906020019092919050505061345d576040517f08c379a000000000000000000000000000000000000000000000000000000000815260040180806020018281038252602181526020018061419e6021913960400191505060405180910390fd5b8273ffffffffffffffffffffffffffffffffffffffff1661347d84612d5d565b73ffffffffffffffffffffffffffffffffffffffff16146134e9576040517f08c379a00000000000000000000000000000000000000000000000000000000081526004018080602001828103825260218152602001806140ec6021913960400191505060405180910390fd5b6001600760008573ffffffffffffffffffffffffffffffffffffffff1673ffffffffffffffffffffffffffffffffffffffff16815260200190815260200160002060008673ffffffffffffffffffffffffffffffffffffffff1673ffffffffffffffffffffffffffffffffffffffff16815260200190815260200160002060006101000a81548160ff02191690831515021790555050505050565b60008060006135d4600460008673ffffffffffffffffffffffffffffffffffffffff1673ffffffffffffffffffffffffffffffffffffffff16815260200190815260200160002060000154613c6b565b9250925092509193909250565b6000600460008373ffffffffffffffffffffffffffffffffffffffff1673ffffffffffffffffffffffffffffffffffffffff16815260200190815260200160002060030160009054906101000a900473ffffffffffffffffffffffffffffffffffffffff169050919050565b6000809054906101000a900473ffffffffffffffffffffffffffffffffffffffff1681565b60025481565b60006001604060020a03604083901c169050919050565b60008082840190508381101561370d576040517f08c379a000000000000000000000000000000000000000000000000000000000815260040180806020018281038252601b8152602001807f536166654d6174683a206164646974696f6e206f766572666c6f77000000000081525060200191505060405180910390fd5b8091505092915050565b60006001608060020a03604060020283901c169050919050565b600061374e8261374085613678565b613749866138a1565b613a72565b905092915050565b600061379883836040518060400160405280601e81526020017f536166654d6174683a207375627472616374696f6e206f766572666c6f770000815250613c98565b905092915050565b60006137c860646137ba8486613b9b90919063ffffffff16565b613c2190919063ffffffff16565b905092915050565b61389c838473ffffffffffffffffffffffffffffffffffffffff1663a9059cbb905060e01b8484604051602401808373ffffffffffffffffffffffffffffffffffffffff1673ffffffffffffffffffffffffffffffffffffffff16815260200182815260200192505050604051602081830303815290604052907bffffffffffffffffffffffffffffffffffffffffffffffffffffffff19166020820180517bffffffffffffffffffffffffffffffffffffffffffffffffffffffff8381831617835250505050613d58565b505050565b60006001604060020a0382169050919050565b60006138d16138c284613717565b6138cb85613678565b84613a72565b905092915050565b60008060148301905082811180156138f2575080845110155b613947576040517f08c379a000000000000000000000000000000000000000000000000000000000815260040180806020018281038252602181526020018061417d6021913960400191505060405180910390fd5b60006c0100000000000000000000000084602087010151049050809250505092915050565b613a6c848573ffffffffffffffffffffffffffffffffffffffff166323b872dd905060e01b858585604051602401808473ffffffffffffffffffffffffffffffffffffffff1673ffffffffffffffffffffffffffffffffffffffff1681526020018373ffffffffffffffffffffffffffffffffffffffff1673ffffffffffffffffffffffffffffffffffffffff1681526020018281526020019350505050604051602081830303815290604052907bffffffffffffffffffffffffffffffffffffffffffffffffffffffff19166020820180517bffffffffffffffffffffffffffffffffffffffffffffffffffffffff8381831617835250505050613d58565b50505050565b60006001608060020a03841115613af1576040517f08c379a00000000000000000000000000000000000000000000000000000000081526004018080602001828103825260178152602001807f616d6f756e742075696e74313238206f766572666c6f7700000000000000000081525060200191505060405180910390fd5b6001604060020a038284171115613b70576040517f08c379a00000000000000000000000000000000000000000000000000000000081526004018080602001828103825260198152602001807f74696d657374616d702075696e743634206f766572666c6f770000000000000081525060200191505060405180910390fd5b6000604060020285901b90506000604085901b90506000849050808284171793505050509392505050565b600080831415613bae5760009050613c1b565b6000828402905082848281613bbf57fe5b0414613c16576040517f08c379a000000000000000000000000000000000000000000000000000000000815260040180806020018281038252602181526020018061431f6021913960400191505060405180910390fd5b809150505b92915050565b6000613c6383836040518060400160405280601a81526020017f536166654d6174683a206469766973696f6e206279207a65726f000000000000815250613fa3565b905092915050565b6000806000613c7984613717565b9250613c8484613678565b9150613c8f846138a1565b90509193909250565b6000838311158290613d45576040517f08c379a00000000000000000000000000000000000000000000000000000000081526004018080602001828103825283818151815260200191508051906020019080838360005b83811015613d0a578082015181840152602081019050613cef565b50505050905090810190601f168015613d375780820380516001836020036101000a031916815260200191505b509250505060405180910390fd5b5060008385039050809150509392505050565b613d778273ffffffffffffffffffffffffffffffffffffffff16614069565b613de9576040517f08c379a000000000000000000000000000000000000000000000000000000000815260040180806020018281038252601f8152602001807f5361666545524332303a2063616c6c20746f206e6f6e2d636f6e74726163740081525060200191505060405180910390fd5b600060608373ffffffffffffffffffffffffffffffffffffffff16836040518082805190602001908083835b60208310613e385780518252602082019150602081019050602083039250613e15565b6001836020036101000a0380198251168184511680821785525050505050509050019150506000604051808303816000865af19150503d8060008114613e9a576040519150601f19603f3d011682016040523d82523d6000602084013e613e9f565b606091505b509150915081613f17576040517f08c379a00000000000000000000000000000000000000000000000000000000081526004018080602001828103825260208152602001807f5361666545524332303a206c6f772d6c6576656c2063616c6c206661696c656481525060200191505060405180910390fd5b600081511115613f9d57808060200190516020811015613f3657600080fd5b8101908080519060200190929190505050613f9c576040517f08c379a000000000000000000000000000000000000000000000000000000000815260040180806020018281038252602a815260200180614377602a913960400191505060405180910390fd5b5b50505050565b6000808311829061404f576040517f08c379a00000000000000000000000000000000000000000000000000000000081526004018080602001828103825283818151815260200191508051906020019080838360005b83811015614014578082015181840152602081019050613ff9565b50505050905090810190601f1680156140415780820380516001836020036101000a031916815260200191505b509250505060405180910390fd5b50600083858161405b57fe5b049050809150509392505050565b60008060007fc5d2460186f7233c927e7db2dcc703c0e500b653ca82273b7bfad8045d85a47060001b9050833f91506000801b82141580156140ab5750808214155b9250505091905056fe4f6e6c79206f70657261746f72206f7220746865206f776e6572206f6620746865207374616b652063616e20756e64656c65676174652e436f6e747261637420757365732064656c65676174656420617574686f726974794f6e6c79206f70657261746f72206f7220746865206f776e6572206f6620746865207374616b652063616e2063616e63656c207468652064656c65676174696f6e2e4d6179206e6f742073657420756e64656c65676174696f6e2074696d657374616d7020696e2074686520706173744164647265737320636f6e76657273696f6e206f7574206f6620626f756e64732e4f70657261746f7220636f6e7472616374206973206e6f7420617070726f766564546f6b656e7320616d6f756e74206d7573742062652067726561746572207468616e20746865206d696e696d756d207374616b6543616e206e6f74207265636f76657220776974686f757420666972737420756e64656c65676174696e6743616e206e6f74207265636f766572207374616b65206265666f726520756e64656c65676174696f6e20706572696f64206973206f7665722e43616e6e6f7420756e64656c656761746520696e20696e697469616c697a6174696f6e20706572696f642c207573652063616e63656c5374616b6520696e73746561645374616b652064656c65676174696f6e2064617461206d7573742062652070726f76696465642e546f6b656e20636f6e7472616374206d757374206265207468652073616d65206f6e65206c696e6b656420746f207468697320636f6e74726163742e4f70657261746f72206164647265737320697320616c726561647920696e207573652e536166654d6174683a206d756c7469706c69636174696f6e206f766572666c6f774f6e6c7920746865206f776e6572206d617920706f7374706f6e652070726576696f75736c792073657420756e64656c65676174696f6e5361666545524332303a204552433230206f7065726174696f6e20646964206e6f742073756363656564a265627a7a72315820ca0761eb7766df73ca4e784449f675eecdcee1b2ad73e622a5d12ea8a606070a64736f6c634300050e0032",
  "source": "pragma solidity ^0.5.4;\n\nimport \"./StakeDelegatable.sol\";\nimport \"./utils/UintArrayUtils.sol\";\nimport \"./utils/PercentUtils.sol\";\nimport \"./Registry.sol\";\nimport \"openzeppelin-solidity/contracts/token/ERC20/SafeERC20.sol\";\n\n// An operator contract can delegate authority to other operator contracts\n// by implementing the AuthorityDelegator interface.\n//\n// To delegate authority,\n// the recipient of delegated authority must call `claimDelegatedAuthority`,\n// specifying the contract it wants delegated authority from.\n// The staking contract calls `delegator.__isRecognized(recipient)`\n// and if the call returns `true`,\n// the named delegator contract is set as the recipient's authority delegator.\n// Any future checks of registry approval or per-operator authorization\n// will transparently mirror the delegator's status.\n//\n// Authority can be delegated recursively;\n// an operator contract receiving delegated authority\n// can recognize other operator contracts as recipients of its authority.\ninterface AuthorityDelegator {\n    function __isRecognized(address delegatedAuthorityRecipient) external returns (bool);\n}\n\n/**\n * @title TokenStaking\n * @dev A token staking contract for a specified standard ERC20Burnable token.\n * A holder of the specified token can stake delegate its tokens to this contract\n * and recover the stake after undelegation period is over.\n */\ncontract TokenStaking is StakeDelegatable {\n    using UintArrayUtils for uint256[];\n    using PercentUtils for uint256;\n    using SafeERC20 for ERC20Burnable;\n\n    // Minimum amount of KEEP that allows sMPC cluster client to participate in\n    // the Keep network. Expressed as number with 18-decimal places.\n    // Initial minimum stake is higher than the final and lowered periodically based\n    // on the amount of steps and the length of the minimum stake schedule in seconds.\n    uint256 public minimumStakeScheduleStart;\n    uint256 public constant minimumStakeSchedule = 86400 * 365 * 2; // 2 years in seconds (seconds per day * days in a year * years)\n    uint256 public constant minimumStakeSteps = 10;\n    uint256 public constant minimumStakeBase = 10000 * 1e18;\n\n    event Staked(address indexed from, uint256 value);\n    event Undelegated(address indexed operator, uint256 undelegatedAt);\n    event RecoveredStake(address operator, uint256 recoveredAt);\n    event TokensSlashed(address indexed operator, uint256 amount);\n    event TokensSeized(address indexed operator, uint256 amount);\n\n    // Registry contract with a list of approved operator contracts and upgraders.\n    Registry public registry;\n\n    // Authorized operator contracts.\n    mapping(address => mapping (address => bool)) internal authorizations;\n\n    // Granters of delegated authority to operator contracts.\n    // E.g. keep factories granting delegated authority to keeps.\n    // `delegatedAuthority[keep] = factory`\n    mapping(address => address) internal delegatedAuthority;\n\n    modifier onlyApprovedOperatorContract(address operatorContract) {\n        require(\n            registry.isApprovedOperatorContract(getAuthoritySource(operatorContract)),\n            \"Operator contract is not approved\"\n        );\n        _;\n    }\n\n    /**\n     * @dev Creates a token staking contract for a provided Standard ERC20Burnable token.\n     * @param _tokenAddress Address of a token that will be linked to this contract.\n     * @param _registry Address of a keep registry that will be linked to this contract.\n     * @param _initializationPeriod To avoid certain attacks on work selection, recently created\n     * operators must wait for a specific period of time before being eligible for work selection.\n     * @param _undelegationPeriod The staking contract guarantees that an undelegated operators\n     * stakes will stay locked for a period of time after undelegation, and thus available as\n     * collateral for any work the operator is engaged in.\n     */\n    constructor(\n        address _tokenAddress,\n        address _registry,\n        uint256 _initializationPeriod,\n        uint256 _undelegationPeriod\n    ) public {\n        require(_tokenAddress != address(0x0), \"Token address can't be zero.\");\n        token = ERC20Burnable(_tokenAddress);\n        registry = Registry(_registry);\n        initializationPeriod = _initializationPeriod;\n        undelegationPeriod = _undelegationPeriod;\n        minimumStakeScheduleStart = block.timestamp;\n    }\n\n    /**\n     * @notice Returns minimum amount of KEEP that allows sMPC cluster client to\n     * participate in the Keep network. Expressed as number with 18-decimal places.\n     * Initial minimum stake is higher than the final and lowered periodically based\n     * on the amount of steps and the length of the minimum stake schedule in seconds.\n     */\n    function minimumStake() public view returns (uint256) {\n        if (block.timestamp < minimumStakeScheduleStart.add(minimumStakeSchedule)) {\n            uint256 currentStep = minimumStakeSteps.mul(\n                block.timestamp.sub(minimumStakeScheduleStart)\n            ).div(minimumStakeSchedule);\n            return minimumStakeBase.mul(minimumStakeSteps.sub(currentStep));\n        }\n        return minimumStakeBase;\n    }\n\n    /**\n     * @notice Receives approval of token transfer and stakes the approved amount.\n     * @dev Makes sure provided token contract is the same one linked to this contract.\n     * @param _from The owner of the tokens who approved them to transfer.\n     * @param _value Approved amount for the transfer and stake.\n     * @param _token Token contract address.\n     * @param _extraData Data for stake delegation. This byte array must have the\n     * following values concatenated: Magpie address (20 bytes) where the rewards for participation\n     * are sent, operator's (20 bytes) address, authorizer (20 bytes) address.\n     */\n    function receiveApproval(address _from, uint256 _value, address _token, bytes memory _extraData) public {\n        require(ERC20Burnable(_token) == token, \"Token contract must be the same one linked to this contract.\");\n        require(_value >= minimumStake(), \"Tokens amount must be greater than the minimum stake\");\n        require(_extraData.length == 60, \"Stake delegation data must be provided.\");\n\n        address payable magpie = address(uint160(_extraData.toAddress(0)));\n        address operator = _extraData.toAddress(20);\n        require(operators[operator].owner == address(0), \"Operator address is already in use.\");\n        address authorizer = _extraData.toAddress(40);\n\n        // Transfer tokens to this contract.\n        token.safeTransferFrom(_from, address(this), _value);\n\n        operators[operator] = Operator(\n            OperatorParams.pack(_value, block.timestamp, 0),\n            _from,\n            magpie,\n            authorizer\n        );\n        ownerOperators[_from].push(operator);\n\n        emit Staked(operator, _value);\n    }\n\n    /**\n     * @notice Cancels stake of tokens within the operator initialization period\n     * without being subjected to the token lockup for the undelegation period.\n     * This can be used to undo mistaken delegation to the wrong operator address.\n     * @param _operator Address of the stake operator.\n     */\n    function cancelStake(address _operator) public {\n        address owner = operators[_operator].owner;\n        require(\n            msg.sender == _operator ||\n            msg.sender == owner, \"Only operator or the owner of the stake can cancel the delegation.\"\n        );\n        uint256 operatorParams = operators[_operator].packedParams;\n\n        require(\n            block.timestamp <= operatorParams.getCreationTimestamp().add(initializationPeriod),\n            \"Initialization period is over\"\n        );\n\n        uint256 amount = operatorParams.getAmount();\n        operators[_operator].packedParams = operatorParams.setAmount(0);\n\n        token.safeTransfer(owner, amount);\n    }\n\n    /**\n     * @notice Undelegates staked tokens. You will be able to recover your stake by calling\n     * `recoverStake()` with operator address once undelegation period is over.\n     * @param _operator Address of the stake operator.\n     */\n    function undelegate(address _operator) public {\n        undelegateAt(_operator, block.timestamp);\n    }\n\n    /**\n     * @notice Set an undelegation time for staked tokens.\n     * Undelegation will begin at the specified timestamp.\n     * You will be able to recover your stake by calling\n     * `recoverStake()` with operator address once undelegation period is over.\n     * @param _operator Address of the stake operator.\n     * @param _undelegationTimestamp The timestamp undelegation is to start at.\n     */\n    function undelegateAt(\n        address _operator,\n        uint256 _undelegationTimestamp\n    ) public {\n        address owner = operators[_operator].owner;\n        bool sentByOwner = msg.sender == owner;\n        require(\n            msg.sender == _operator ||\n            sentByOwner, \"Only operator or the owner of the stake can undelegate.\"\n        );\n        require(\n            _undelegationTimestamp >= block.timestamp,\n            \"May not set undelegation timestamp in the past\"\n        );\n        uint256 oldParams = operators[_operator].packedParams;\n        uint256 existingCreationTimestamp = oldParams.getCreationTimestamp();\n        uint256 existingUndelegationTimestamp = oldParams.getUndelegationTimestamp();\n        require(\n            _undelegationTimestamp > existingCreationTimestamp.add(initializationPeriod),\n            \"Cannot undelegate in initialization period, use cancelStake instead\"\n        );\n        require(\n            // Undelegation not in progress OR\n            existingUndelegationTimestamp == 0 ||\n            // Undelegating sooner than previously set time OR\n            existingUndelegationTimestamp > _undelegationTimestamp ||\n            // Owner may override\n            sentByOwner,\n            \"Only the owner may postpone previously set undelegation\"\n        );\n        uint256 newParams = oldParams.setUndelegationTimestamp(_undelegationTimestamp);\n        operators[_operator].packedParams = newParams;\n        emit Undelegated(_operator, _undelegationTimestamp);\n    }\n\n    /**\n     * @notice Recovers staked tokens and transfers them back to the owner.\n     * Recovering tokens can only be performed when the operator finished\n     * undelegating.\n     * @param _operator Operator address.\n     */\n    function recoverStake(address _operator) public {\n        uint256 operatorParams = operators[_operator].packedParams;\n        require(\n            operatorParams.getUndelegationTimestamp() != 0,\n            \"Can not recover without first undelegating\"\n        );\n        require(\n            block.timestamp > operatorParams.getUndelegationTimestamp().add(undelegationPeriod),\n            \"Can not recover stake before undelegation period is over.\"\n        );\n        address owner = operators[_operator].owner;\n        uint256 amount = operatorParams.getAmount();\n\n        operators[_operator].packedParams = operatorParams.setAmount(0);\n\n        token.safeTransfer(owner, amount);\n        emit RecoveredStake(_operator, block.timestamp);\n    }\n\n    /**\n     * @dev Gets stake delegation info for the given operator.\n     * @param _operator Operator address.\n     * @return amount The amount of tokens the given operator delegated.\n     * @return createdAt The time when the stake has been delegated.\n     * @return undelegatedAt The time when undelegation has been requested.\n     * If undelegation has not been requested, 0 is returned.\n     */\n    function getDelegationInfo(address _operator)\n    public view returns (uint256 amount, uint256 createdAt, uint256 undelegatedAt) {\n        return operators[_operator].packedParams.unpack();\n    }\n\n    /**\n     * @dev Slash provided token amount from every member in the misbehaved\n     * operators array and burn 100% of all the tokens.\n     * @param amountToSlash Token amount to slash from every misbehaved operator.\n     * @param misbehavedOperators Array of addresses to seize the tokens from.\n     */\n    function slash(uint256 amountToSlash, address[] memory misbehavedOperators)\n        public\n        onlyApprovedOperatorContract(msg.sender) {\n\n        uint256 totalAmountToBurn = 0;\n        address authoritySource = getAuthoritySource(msg.sender);\n        for (uint i = 0; i < misbehavedOperators.length; i++) {\n            address operator = misbehavedOperators[i];\n            require(authorizations[authoritySource][operator], \"Not authorized\");\n\n            uint256 operatorParams = operators[operator].packedParams;\n            require(\n                block.timestamp > operatorParams.getCreationTimestamp().add(initializationPeriod),\n                \"Operator stake must be active\"\n            );\n\n            uint256 currentAmount = operatorParams.getAmount();\n\n            if (currentAmount < amountToSlash) {\n                totalAmountToBurn = totalAmountToBurn.add(currentAmount);\n\n                uint256 newAmount = 0;\n                operators[operator].packedParams = operatorParams.setAmount(newAmount);\n                emit TokensSlashed(operator, currentAmount);\n            } else {\n                totalAmountToBurn = totalAmountToBurn.add(amountToSlash);\n\n                uint256 newAmount = currentAmount.sub(amountToSlash);\n                operators[operator].packedParams = operatorParams.setAmount(newAmount);\n                emit TokensSlashed(operator, amountToSlash);\n            }\n        }\n\n        token.burn(totalAmountToBurn);\n    }\n\n    /**\n     * @dev Seize provided token amount from every member in the misbehaved\n     * operators array. The tattletale is rewarded with 5% of the total seized\n     * amount scaled by the reward adjustment parameter and the rest 95% is burned.\n     * @param amountToSeize Token amount to seize from every misbehaved operator.\n     * @param rewardMultiplier Reward adjustment in percentage. Min 1% and 100% max.\n     * @param tattletale Address to receive the 5% reward.\n     * @param misbehavedOperators Array of addresses to seize the tokens from.\n     */\n    function seize(\n        uint256 amountToSeize,\n        uint256 rewardMultiplier,\n        address tattletale,\n        address[] memory misbehavedOperators\n    ) public onlyApprovedOperatorContract(msg.sender) {\n        uint256 totalAmountToBurn = 0;\n        address authoritySource = getAuthoritySource(msg.sender);\n        for (uint i = 0; i < misbehavedOperators.length; i++) {\n            address operator = misbehavedOperators[i];\n            require(authorizations[authoritySource][operator], \"Not authorized\");\n\n            uint256 operatorParams = operators[operator].packedParams;\n            require(\n                block.timestamp > operatorParams.getCreationTimestamp().add(initializationPeriod),\n                \"Operator stake must be active\"\n            );\n\n            uint256 currentAmount = operatorParams.getAmount();\n\n            if (currentAmount < amountToSeize) {\n                totalAmountToBurn = totalAmountToBurn.add(currentAmount);\n\n                uint256 newAmount = 0;\n                operators[operator].packedParams = operatorParams.setAmount(newAmount);\n                emit TokensSeized(operator, currentAmount);\n            } else {\n                totalAmountToBurn = totalAmountToBurn.add(amountToSeize);\n\n                uint256 newAmount = currentAmount.sub(amountToSeize);\n                operators[operator].packedParams = operatorParams.setAmount(newAmount);\n                emit TokensSeized(operator, amountToSeize);\n            }\n        }\n\n        uint256 tattletaleReward = (totalAmountToBurn.percent(5)).percent(rewardMultiplier);\n\n        token.safeTransfer(tattletale, tattletaleReward);\n        token.burn(totalAmountToBurn.sub(tattletaleReward));\n    }\n\n    /**\n     * @dev Authorizes operator contract to access staked token balance of\n     * the provided operator. Can only be executed by stake operator authorizer.\n     * Contracts using delegated authority\n     * cannot be authorized with `authorizeOperatorContract`.\n     * Instead, authorize `getAuthoritySource(_operatorContract)`.\n     * @param _operator address of stake operator.\n     * @param _operatorContract address of operator contract.\n     */\n    function authorizeOperatorContract(address _operator, address _operatorContract)\n        public\n        onlyOperatorAuthorizer(_operator)\n        onlyApprovedOperatorContract(_operatorContract) {\n        require(\n            getAuthoritySource(_operatorContract) == _operatorContract,\n            \"Contract uses delegated authority\"\n        );\n        authorizations[_operatorContract][_operator] = true;\n    }\n\n    /**\n     * @dev Checks if operator contract has access to the staked token balance of\n     * the provided operator.\n     * @param _operator address of stake operator.\n     * @param _operatorContract address of operator contract.\n     */\n    function isAuthorizedForOperator(address _operator, address _operatorContract) public view returns (bool) {\n        return authorizations[getAuthoritySource(_operatorContract)][_operator];\n    }\n\n    /**\n     * @dev Gets the eligible stake balance of the specified address.\n     * An eligible stake is a stake that passed the initialization period\n     * and is not currently undelegating. Also, the operator had to approve\n     * the specified operator contract.\n     *\n     * Operator with a minimum required amount of eligible stake can join the\n     * network and participate in new work selection.\n     *\n     * @param _operator address of stake operator.\n     * @param _operatorContract address of operator contract.\n     * @return an uint256 representing the eligible stake balance.\n     */\n    function eligibleStake(\n        address _operator,\n        address _operatorContract\n    ) public view returns (uint256 balance) {\n        bool isAuthorized = isAuthorizedForOperator(_operator, _operatorContract);\n\n        uint256 operatorParams = operators[_operator].packedParams;\n        uint256 createdAt = operatorParams.getCreationTimestamp();\n        uint256 undelegatedAt = operatorParams.getUndelegationTimestamp();\n\n        bool isActive = block.timestamp > createdAt.add(initializationPeriod);\n        // `undelegatedAt` may be set to a time in the future,\n        // to schedule undelegation in advance.\n        // In this case the operator is still eligible\n        // until the timestamp `undelegatedAt`.\n        bool isUndelegating = (undelegatedAt != 0) && (block.timestamp > undelegatedAt);\n\n        if (isAuthorized && isActive && !isUndelegating) {\n            balance = operatorParams.getAmount();\n        }\n    }\n\n    /**\n     * @dev Gets the active stake balance of the specified address.\n     * An active stake is a stake that passed the initialization period.\n     * Also, the operator had to approve the specified operator contract.\n     *\n     * The difference between eligible stake is that active stake does not make\n     * the operator eligible for work selection but it may be still finishing\n     * earlier work during undelegation period. Operator with a minimum required\n     * amount of active stake can join the network but cannot be selected to any\n     * new work.\n     *\n     * @param _operator address of stake operator.\n     * @param _operatorContract address of operator contract.\n     * @return an uint256 representing the eligible stake balance.\n     */\n    function activeStake(\n        address _operator,\n        address _operatorContract\n    ) public view returns (uint256 balance) {\n        bool isAuthorized = isAuthorizedForOperator(_operator, _operatorContract);\n\n        uint256 operatorParams = operators[_operator].packedParams;\n        uint256 createdAt = operatorParams.getCreationTimestamp();\n\n        bool isActive = block.timestamp > createdAt.add(initializationPeriod);\n\n        if (isAuthorized && isActive) {\n            balance = operatorParams.getAmount();\n        }\n    }\n\n    /**\n     * @dev Checks if the specified account has enough active stake to become\n     * network operator and that the specified operator contract has been\n     * authorized for potential slashing.\n     *\n     * Having the required minimum of active stake makes the operator eligible\n     * to join the network. If the active stake is not currently undelegating,\n     * operator is also eligible for work selection.\n     *\n     * @param staker Staker's address\n     * @param operatorContract Operator contract's address\n     * @return True if has enough active stake to participate in the network,\n     * false otherwise.\n     */\n    function hasMinimumStake(\n        address staker,\n        address operatorContract\n    ) public view returns(bool) {\n        return activeStake(staker, operatorContract) >= minimumStake();\n    }\n\n    /// @notice Grant the sender the same authority as `delegatedAuthoritySource`\n    /// @dev If `delegatedAuthoritySource` is an approved operator contract\n    /// and recognizes the claimant,\n    /// this relationship will be recorded in `delegatedAuthority`.\n    /// Later, the claimant can slash, seize, place locks etc.\n    /// on operators that have authorized the `delegatedAuthoritySource`.\n    /// If the `delegatedAuthoritySource` is disabled with the panic button,\n    /// any recipients of delegated authority from it will also be disabled.\n    function claimDelegatedAuthority(\n        address delegatedAuthoritySource\n    ) public onlyApprovedOperatorContract(delegatedAuthoritySource) {\n        require(\n            AuthorityDelegator(delegatedAuthoritySource).__isRecognized(msg.sender),\n            \"Unrecognized claimant\"\n        );\n        delegatedAuthority[msg.sender] = delegatedAuthoritySource;\n    }\n\n    /// @notice Get the source of the operator contract's authority.\n    /// If the contract uses delegated authority,\n    /// returns the original source of the delegated authority.\n    /// If the contract doesn't use delegated authority,\n    /// returns the contract itself.\n    /// Authorize `getAuthoritySource(operatorContract)`\n    /// to grant `operatorContract` the authority to penalize an operator.\n    function getAuthoritySource(\n        address operatorContract\n    ) public view returns (address) {\n        address delegatedAuthoritySource = delegatedAuthority[operatorContract];\n        if (delegatedAuthoritySource == address(0)) {\n            return operatorContract;\n        }\n        return getAuthoritySource(delegatedAuthoritySource);\n    }\n}\n",
  "sourcePath": "/tmp/88b55a3815de594f756a12265e0898a6ee173e61/solidity/contracts/TokenStaking.sol",
  "compiler": {
    "name": "solc",
    "version": "0.5.14+commit.01f1aaa4.Emscripten.clang"
  },
  "schemaVersion": "3.0.23",
  "updatedAt": "2020-04-03T18:57:26.295Z",
  "networkType": "ethereum",
  "devdoc": {
    "details": "A token staking contract for a specified standard ERC20Burnable token. A holder of the specified token can stake delegate its tokens to this contract and recover the stake after undelegation period is over.",
    "methods": {
      "activeStake(address,address)": {
        "details": "Gets the active stake balance of the specified address. An active stake is a stake that passed the initialization period. Also, the operator had to approve the specified operator contract.     * The difference between eligible stake is that active stake does not make the operator eligible for work selection but it may be still finishing earlier work during undelegation period. Operator with a minimum required amount of active stake can join the network but cannot be selected to any new work.",
        "params": {
          "_operator": "address of stake operator.",
          "_operatorContract": "address of operator contract."
        },
        "return": "an uint256 representing the eligible stake balance."
      },
      "authorizeOperatorContract(address,address)": {
        "details": "Authorizes operator contract to access staked token balance of the provided operator. Can only be executed by stake operator authorizer. Contracts using delegated authority cannot be authorized with `authorizeOperatorContract`. Instead, authorize `getAuthoritySource(_operatorContract)`.",
        "params": {
          "_operator": "address of stake operator.",
          "_operatorContract": "address of operator contract."
        }
      },
      "authorizerOf(address)": {
        "details": "Gets the authorizer for the specified operator address.",
        "return": "Authorizer address."
      },
      "balanceOf(address)": {
        "details": "Gets the stake balance of the specified address.",
        "params": {
          "_address": "The address to query the balance of."
        },
        "return": "An uint256 representing the amount staked by the passed address."
      },
      "cancelStake(address)": {
        "params": {
          "_operator": "Address of the stake operator."
        }
      },
      "claimDelegatedAuthority(address)": {
        "details": "If `delegatedAuthoritySource` is an approved operator contract and recognizes the claimant, this relationship will be recorded in `delegatedAuthority`. Later, the claimant can slash, seize, place locks etc. on operators that have authorized the `delegatedAuthoritySource`. If the `delegatedAuthoritySource` is disabled with the panic button, any recipients of delegated authority from it will also be disabled."
      },
      "constructor": {
        "details": "Creates a token staking contract for a provided Standard ERC20Burnable token.",
        "params": {
          "_initializationPeriod": "To avoid certain attacks on work selection, recently created operators must wait for a specific period of time before being eligible for work selection.",
          "_registry": "Address of a keep registry that will be linked to this contract.",
          "_tokenAddress": "Address of a token that will be linked to this contract.",
          "_undelegationPeriod": "The staking contract guarantees that an undelegated operators stakes will stay locked for a period of time after undelegation, and thus available as collateral for any work the operator is engaged in."
        }
      },
      "eligibleStake(address,address)": {
        "details": "Gets the eligible stake balance of the specified address. An eligible stake is a stake that passed the initialization period and is not currently undelegating. Also, the operator had to approve the specified operator contract.     * Operator with a minimum required amount of eligible stake can join the network and participate in new work selection.",
        "params": {
          "_operator": "address of stake operator.",
          "_operatorContract": "address of operator contract."
        },
        "return": "an uint256 representing the eligible stake balance."
      },
      "getDelegationInfo(address)": {
        "details": "Gets stake delegation info for the given operator.",
        "params": {
          "_operator": "Operator address."
        },
        "return": "amount The amount of tokens the given operator delegated.createdAt The time when the stake has been delegated.undelegatedAt The time when undelegation has been requested. If undelegation has not been requested, 0 is returned."
      },
      "hasMinimumStake(address,address)": {
        "details": "Checks if the specified account has enough active stake to become network operator and that the specified operator contract has been authorized for potential slashing.     * Having the required minimum of active stake makes the operator eligible to join the network. If the active stake is not currently undelegating, operator is also eligible for work selection.",
        "params": {
          "operatorContract": "Operator contract's address",
          "staker": "Staker's address"
        },
        "return": "True if has enough active stake to participate in the network, false otherwise."
      },
      "isAuthorizedForOperator(address,address)": {
        "details": "Checks if operator contract has access to the staked token balance of the provided operator.",
        "params": {
          "_operator": "address of stake operator.",
          "_operatorContract": "address of operator contract."
        }
      },
      "magpieOf(address)": {
        "details": "Gets the magpie for the specified operator address.",
        "return": "Magpie address."
      },
      "operatorsOf(address)": {
        "details": "Gets the list of operators of the specified address.",
        "return": "An array of addresses."
      },
      "ownerOf(address)": {
        "details": "Gets the stake owner for the specified operator address.",
        "return": "Stake owner address."
      },
      "receiveApproval(address,uint256,address,bytes)": {
        "details": "Makes sure provided token contract is the same one linked to this contract.",
        "params": {
          "_extraData": "Data for stake delegation. This byte array must have the following values concatenated: Magpie address (20 bytes) where the rewards for participation are sent, operator's (20 bytes) address, authorizer (20 bytes) address.",
          "_from": "The owner of the tokens who approved them to transfer.",
          "_token": "Token contract address.",
          "_value": "Approved amount for the transfer and stake."
        }
      },
      "recoverStake(address)": {
        "params": {
          "_operator": "Operator address."
        }
      },
      "seize(uint256,uint256,address,address[])": {
        "details": "Seize provided token amount from every member in the misbehaved operators array. The tattletale is rewarded with 5% of the total seized amount scaled by the reward adjustment parameter and the rest 95% is burned.",
        "params": {
          "amountToSeize": "Token amount to seize from every misbehaved operator.",
          "misbehavedOperators": "Array of addresses to seize the tokens from.",
          "rewardMultiplier": "Reward adjustment in percentage. Min 1% and 100% max.",
          "tattletale": "Address to receive the 5% reward."
        }
      },
      "slash(uint256,address[])": {
        "details": "Slash provided token amount from every member in the misbehaved operators array and burn 100% of all the tokens.",
        "params": {
          "amountToSlash": "Token amount to slash from every misbehaved operator.",
          "misbehavedOperators": "Array of addresses to seize the tokens from."
        }
      },
      "undelegate(address)": {
        "params": {
          "_operator": "Address of the stake operator."
        }
      },
      "undelegateAt(address,uint256)": {
        "params": {
          "_operator": "Address of the stake operator.",
          "_undelegationTimestamp": "The timestamp undelegation is to start at."
        }
      }
    },
    "title": "TokenStaking"
  },
  "userdoc": {
    "methods": {
      "cancelStake(address)": {
        "notice": "Cancels stake of tokens within the operator initialization period without being subjected to the token lockup for the undelegation period. This can be used to undo mistaken delegation to the wrong operator address."
      },
      "claimDelegatedAuthority(address)": {
        "notice": "Grant the sender the same authority as `delegatedAuthoritySource`"
      },
      "getAuthoritySource(address)": {
        "notice": "Get the source of the operator contract's authority. If the contract uses delegated authority, returns the original source of the delegated authority. If the contract doesn't use delegated authority, returns the contract itself. Authorize `getAuthoritySource(operatorContract)` to grant `operatorContract` the authority to penalize an operator."
      },
      "minimumStake()": {
        "notice": "Returns minimum amount of KEEP that allows sMPC cluster client to participate in the Keep network. Expressed as number with 18-decimal places. Initial minimum stake is higher than the final and lowered periodically based on the amount of steps and the length of the minimum stake schedule in seconds."
      },
      "receiveApproval(address,uint256,address,bytes)": {
        "notice": "Receives approval of token transfer and stakes the approved amount."
      },
      "recoverStake(address)": {
        "notice": "Recovers staked tokens and transfers them back to the owner. Recovering tokens can only be performed when the operator finished undelegating."
      },
      "undelegate(address)": {
        "notice": "Undelegates staked tokens. You will be able to recover your stake by calling `recoverStake()` with operator address once undelegation period is over."
      },
      "undelegateAt(address,uint256)": {
        "notice": "Set an undelegation time for staked tokens. Undelegation will begin at the specified timestamp. You will be able to recover your stake by calling `recoverStake()` with operator address once undelegation period is over."
      }
    }
  }
}