{
  "contractName": "TokenStaking",
  "abi": [
    {
      "constant": true,
      "inputs": [
        {
          "name": "_operator",
          "type": "address"
        }
      ],
      "name": "ownerOf",
      "outputs": [
        {
          "name": "",
          "type": "address"
        }
      ],
      "payable": false,
      "stateMutability": "view",
      "type": "function"
    },
    {
      "constant": true,
      "inputs": [],
      "name": "stakeWithdrawalDelay",
      "outputs": [
        {
          "name": "",
          "type": "uint256"
        }
      ],
      "payable": false,
      "stateMutability": "view",
      "type": "function"
    },
    {
      "constant": true,
      "inputs": [
        {
          "name": "_operator",
          "type": "address"
        }
      ],
      "name": "magpieOf",
      "outputs": [
        {
          "name": "",
          "type": "address"
        }
      ],
      "payable": false,
      "stateMutability": "view",
      "type": "function"
    },
    {
      "constant": true,
      "inputs": [
        {
          "name": "",
          "type": "address"
        }
      ],
      "name": "stakeBalances",
      "outputs": [
        {
          "name": "",
          "type": "uint256"
        }
      ],
      "payable": false,
      "stateMutability": "view",
      "type": "function"
    },
    {
      "constant": true,
      "inputs": [
        {
          "name": "",
          "type": "address"
        },
        {
          "name": "",
          "type": "uint256"
        }
      ],
      "name": "ownerOperators",
      "outputs": [
        {
          "name": "",
          "type": "address"
        }
      ],
      "payable": false,
      "stateMutability": "view",
      "type": "function"
    },
    {
      "constant": true,
      "inputs": [
        {
          "name": "",
          "type": "address"
        }
      ],
      "name": "operatorToMagpie",
      "outputs": [
        {
          "name": "",
          "type": "address"
        }
      ],
      "payable": false,
      "stateMutability": "view",
      "type": "function"
    },
    {
      "constant": true,
      "inputs": [
        {
          "name": "_address",
          "type": "address"
        }
      ],
      "name": "balanceOf",
      "outputs": [
        {
          "name": "balance",
          "type": "uint256"
        }
      ],
      "payable": false,
      "stateMutability": "view",
      "type": "function"
    },
    {
      "constant": true,
      "inputs": [
        {
          "name": "",
          "type": "address"
        }
      ],
      "name": "withdrawals",
      "outputs": [
        {
          "name": "amount",
          "type": "uint256"
        },
        {
          "name": "createdAt",
          "type": "uint256"
        }
      ],
      "payable": false,
      "stateMutability": "view",
      "type": "function"
    },
    {
      "constant": true,
      "inputs": [
        {
          "name": "",
          "type": "address"
        }
      ],
      "name": "operatorToOwner",
      "outputs": [
        {
          "name": "",
          "type": "address"
        }
      ],
      "payable": false,
      "stateMutability": "view",
      "type": "function"
    },
    {
      "constant": true,
      "inputs": [
        {
          "name": "_address",
          "type": "address"
        }
      ],
      "name": "operatorsOf",
      "outputs": [
        {
          "name": "",
          "type": "address[]"
        }
      ],
      "payable": false,
      "stateMutability": "view",
      "type": "function"
    },
    {
      "constant": true,
      "inputs": [],
      "name": "token",
      "outputs": [
        {
          "name": "",
          "type": "address"
        }
      ],
      "payable": false,
      "stateMutability": "view",
      "type": "function"
    },
    {
      "inputs": [
        {
          "name": "_tokenAddress",
          "type": "address"
        },
        {
          "name": "_delay",
          "type": "uint256"
        }
      ],
      "payable": false,
      "stateMutability": "nonpayable",
      "type": "constructor"
    },
    {
      "anonymous": false,
      "inputs": [
        {
          "indexed": true,
          "name": "from",
          "type": "address"
        },
        {
          "indexed": false,
          "name": "value",
          "type": "uint256"
        }
      ],
      "name": "Staked",
      "type": "event"
    },
    {
      "anonymous": false,
      "inputs": [
        {
          "indexed": true,
          "name": "operator",
          "type": "address"
        },
        {
          "indexed": false,
          "name": "value",
          "type": "uint256"
        },
        {
          "indexed": false,
          "name": "createdAt",
          "type": "uint256"
        }
      ],
      "name": "InitiatedUnstake",
      "type": "event"
    },
    {
      "anonymous": false,
      "inputs": [
        {
          "indexed": false,
          "name": "operator",
          "type": "address"
        }
      ],
      "name": "FinishedUnstake",
      "type": "event"
    },
    {
      "constant": false,
      "inputs": [
        {
          "name": "_from",
          "type": "address"
        },
        {
          "name": "_value",
          "type": "uint256"
        },
        {
          "name": "_token",
          "type": "address"
        },
        {
          "name": "_extraData",
          "type": "bytes"
        }
      ],
      "name": "receiveApproval",
      "outputs": [],
      "payable": false,
      "stateMutability": "nonpayable",
      "type": "function"
    },
    {
      "constant": false,
      "inputs": [
        {
          "name": "_value",
          "type": "uint256"
        },
        {
          "name": "_operator",
          "type": "address"
        }
      ],
      "name": "initiateUnstake",
      "outputs": [],
      "payable": false,
      "stateMutability": "nonpayable",
      "type": "function"
    },
    {
      "constant": false,
      "inputs": [
        {
          "name": "_operator",
          "type": "address"
        }
      ],
      "name": "finishUnstake",
      "outputs": [],
      "payable": false,
      "stateMutability": "nonpayable",
      "type": "function"
    },
    {
      "constant": true,
      "inputs": [
        {
          "name": "_operator",
          "type": "address"
        }
      ],
      "name": "getWithdrawal",
      "outputs": [
        {
          "name": "amount",
          "type": "uint256"
        },
        {
          "name": "createdAt",
          "type": "uint256"
        }
      ],
      "payable": false,
      "stateMutability": "view",
      "type": "function"
    },
    {
      "constant": false,
      "inputs": [
        {
          "name": "from",
          "type": "address"
        },
        {
          "name": "to",
          "type": "address"
        },
        {
          "name": "amount",
          "type": "uint256"
        }
      ],
      "name": "authorizedTransferFrom",
      "outputs": [],
      "payable": false,
      "stateMutability": "nonpayable",
      "type": "function"
    }
  ],
  "bytecode": "0x608060405234801561001057600080fd5b5060405160408061243f8339810180604052604081101561003057600080fd5b810190808051906020019092919080519060200190929190505050600073ffffffffffffffffffffffffffffffffffffffff168273ffffffffffffffffffffffffffffffffffffffff16141515156100f0576040517f08c379a000000000000000000000000000000000000000000000000000000000815260040180806020018281038252601c8152602001807f546f6b656e20616464726573732063616e2774206265207a65726f2e0000000081525060200191505060405180910390fd5b816000806101000a81548173ffffffffffffffffffffffffffffffffffffffff021916908373ffffffffffffffffffffffffffffffffffffffff1602179055508060018190555050506122f7806101486000396000f3fe608060405234801561001057600080fd5b506004361061011d576000357c0100000000000000000000000000000000000000000000000000000000900480637a9262a2116100b45780638f4ffcb1116100835780638f4ffcb1146105ed57806399f62bab146106f2578063b534fbb614610751578063fc0c546a146107ea5761011d565b80637a9262a21461044e5780637b520aa8146104ad57806384c7ad84146105315780638b38d27c1461057f5761011d565b80634239dd8d116100f05780634239dd8d146102a057806356d328241461032e5780635a50aeea1461037257806370a08231146103f65761011d565b806314afd79e14610122578063151db1b9146101a65780631cdac873146101c45780633b317dab14610248575b600080fd5b6101646004803603602081101561013857600080fd5b81019080803573ffffffffffffffffffffffffffffffffffffffff169060200190929190505050610834565b604051808273ffffffffffffffffffffffffffffffffffffffff1673ffffffffffffffffffffffffffffffffffffffff16815260200191505060405180910390f35b6101ae61089d565b6040518082815260200191505060405180910390f35b610206600480360360208110156101da57600080fd5b81019080803573ffffffffffffffffffffffffffffffffffffffff1690602001909291905050506108a3565b604051808273ffffffffffffffffffffffffffffffffffffffff1673ffffffffffffffffffffffffffffffffffffffff16815260200191505060405180910390f35b61028a6004803603602081101561025e57600080fd5b81019080803573ffffffffffffffffffffffffffffffffffffffff16906020019092919050505061090c565b6040518082815260200191505060405180910390f35b6102ec600480360360408110156102b657600080fd5b81019080803573ffffffffffffffffffffffffffffffffffffffff16906020019092919080359060200190929190505050610924565b604051808273ffffffffffffffffffffffffffffffffffffffff1673ffffffffffffffffffffffffffffffffffffffff16815260200191505060405180910390f35b6103706004803603602081101561034457600080fd5b81019080803573ffffffffffffffffffffffffffffffffffffffff169060200190929190505050610971565b005b6103b46004803603602081101561038857600080fd5b81019080803573ffffffffffffffffffffffffffffffffffffffff169060200190929190505050610ce8565b604051808273ffffffffffffffffffffffffffffffffffffffff1673ffffffffffffffffffffffffffffffffffffffff16815260200191505060405180910390f35b6104386004803603602081101561040c57600080fd5b81019080803573ffffffffffffffffffffffffffffffffffffffff169060200190929190505050610d1b565b6040518082815260200191505060405180910390f35b6104906004803603602081101561046457600080fd5b81019080803573ffffffffffffffffffffffffffffffffffffffff169060200190929190505050610d64565b604051808381526020018281526020019250505060405180910390f35b6104ef600480360360208110156104c357600080fd5b81019080803573ffffffffffffffffffffffffffffffffffffffff169060200190929190505050610d88565b604051808273ffffffffffffffffffffffffffffffffffffffff1673ffffffffffffffffffffffffffffffffffffffff16815260200191505060405180910390f35b61057d6004803603604081101561054757600080fd5b8101908080359060200190929190803573ffffffffffffffffffffffffffffffffffffffff169060200190929190505050610dbb565b005b6105eb6004803603606081101561059557600080fd5b81019080803573ffffffffffffffffffffffffffffffffffffffff169060200190929190803573ffffffffffffffffffffffffffffffffffffffff1690602001909291908035906020019092919050505061112a565b005b6106f06004803603608081101561060357600080fd5b81019080803573ffffffffffffffffffffffffffffffffffffffff16906020019092919080359060200190929190803573ffffffffffffffffffffffffffffffffffffffff1690602001909291908035906020019064010000000081111561066a57600080fd5b82018360208201111561067c57600080fd5b8035906020019184600183028401116401000000008311171561069e57600080fd5b91908080601f016020809104026020016040519081016040528093929190818152602001838380828437600081840152601f19601f820116905080830192505050505050509192919290505050611259565b005b6107346004803603602081101561070857600080fd5b81019080803573ffffffffffffffffffffffffffffffffffffffff16906020019092919050505061199c565b604051808381526020018281526020019250505060405180910390f35b6107936004803603602081101561076757600080fd5b81019080803573ffffffffffffffffffffffffffffffffffffffff169060200190929190505050611a2e565b6040518080602001828103825283818151815260200191508051906020019060200280838360005b838110156107d65780820151818401526020810190506107bb565b505050509050019250505060405180910390f35b6107f2611afb565b604051808273ffffffffffffffffffffffffffffffffffffffff1673ffffffffffffffffffffffffffffffffffffffff16815260200191505060405180910390f35b6000600360008373ffffffffffffffffffffffffffffffffffffffff1673ffffffffffffffffffffffffffffffffffffffff16815260200190815260200160002060009054906101000a900473ffffffffffffffffffffffffffffffffffffffff169050919050565b60015481565b6000600460008373ffffffffffffffffffffffffffffffffffffffff1673ffffffffffffffffffffffffffffffffffffffff16815260200190815260200160002060009054906101000a900473ffffffffffffffffffffffffffffffffffffffff169050919050565b60026020528060005260406000206000915090505481565b60056020528160005260406000208181548110151561093f57fe5b906000526020600020016000915091509054906101000a900473ffffffffffffffffffffffffffffffffffffffff1681565b6109c8600154600660008473ffffffffffffffffffffffffffffffffffffffff1673ffffffffffffffffffffffffffffffffffffffff16815260200190815260200160002060010154611b2090919063ffffffff16565b4210151515610a22576040517f08c379a00000000000000000000000000000000000000000000000000000000081526004018080602001828103825260378152602001806122956037913960400191505060405180910390fd5b6000600360008373ffffffffffffffffffffffffffffffffffffffff1673ffffffffffffffffffffffffffffffffffffffff16815260200190815260200160002060009054906101000a900473ffffffffffffffffffffffffffffffffffffffff169050610b1481600660008573ffffffffffffffffffffffffffffffffffffffff1673ffffffffffffffffffffffffffffffffffffffff168152602001908152602001600020600001546000809054906101000a900473ffffffffffffffffffffffffffffffffffffffff1673ffffffffffffffffffffffffffffffffffffffff16611baa9092919063ffffffff16565b600660008373ffffffffffffffffffffffffffffffffffffffff1673ffffffffffffffffffffffffffffffffffffffff168152602001908152602001600020600080820160009055600182016000905550506000600260008473ffffffffffffffffffffffffffffffffffffffff1673ffffffffffffffffffffffffffffffffffffffff16815260200190815260200160002054111515610c81576000600360008473ffffffffffffffffffffffffffffffffffffffff1673ffffffffffffffffffffffffffffffffffffffff16815260200190815260200160002060006101000a81548173ffffffffffffffffffffffffffffffffffffffff021916908373ffffffffffffffffffffffffffffffffffffffff160217905550610c7f82600560008473ffffffffffffffffffffffffffffffffffffffff1673ffffffffffffffffffffffffffffffffffffffff168152602001908152602001600020611c9790919063ffffffff16565b505b7fe68071bb24a9181ea7962f14696a078622f694c9675ede2325697a640188826582604051808273ffffffffffffffffffffffffffffffffffffffff1673ffffffffffffffffffffffffffffffffffffffff16815260200191505060405180910390a15050565b60046020528060005260406000206000915054906101000a900473ffffffffffffffffffffffffffffffffffffffff1681565b6000600260008373ffffffffffffffffffffffffffffffffffffffff1673ffffffffffffffffffffffffffffffffffffffff168152602001908152602001600020549050919050565b60066020528060005260406000206000915090508060000154908060010154905082565b60036020528060005260406000206000915054906101000a900473ffffffffffffffffffffffffffffffffffffffff1681565b6000600360008373ffffffffffffffffffffffffffffffffffffffff1673ffffffffffffffffffffffffffffffffffffffff16815260200190815260200160002060009054906101000a900473ffffffffffffffffffffffffffffffffffffffff1690508173ffffffffffffffffffffffffffffffffffffffff163373ffffffffffffffffffffffffffffffffffffffff161480610e8457508073ffffffffffffffffffffffffffffffffffffffff163373ffffffffffffffffffffffffffffffffffffffff16145b1515610edb576040517f08c379a000000000000000000000000000000000000000000000000000000000815260040180806020018281038252603d8152602001806121e1603d913960400191505060405180910390fd5b600260008373ffffffffffffffffffffffffffffffffffffffff1673ffffffffffffffffffffffffffffffffffffffff168152602001908152602001600020548311151515610f75576040517f08c379a000000000000000000000000000000000000000000000000000000000815260040180806020018281038252602a815260200180612241602a913960400191505060405180910390fd5b610fc783600260008573ffffffffffffffffffffffffffffffffffffffff1673ffffffffffffffffffffffffffffffffffffffff16815260200190815260200160002054611e0290919063ffffffff16565b600260008473ffffffffffffffffffffffffffffffffffffffff1673ffffffffffffffffffffffffffffffffffffffff168152602001908152602001600020819055506000429050604080519081016040528061106f86600660008873ffffffffffffffffffffffffffffffffffffffff1673ffffffffffffffffffffffffffffffffffffffff16815260200190815260200160002060000154611b2090919063ffffffff16565b815260200182815250600660008573ffffffffffffffffffffffffffffffffffffffff1673ffffffffffffffffffffffffffffffffffffffff16815260200190815260200160002060008201518160000155602082015181600101559050508273ffffffffffffffffffffffffffffffffffffffff167f506e3443c240a9c0163df884a390d4a72e82a1583881082c24cae5188bcd27618583604051808381526020018281526020019250505060405180910390a250505050565b61117c81600260008673ffffffffffffffffffffffffffffffffffffffff1673ffffffffffffffffffffffffffffffffffffffff16815260200190815260200160002054611e0290919063ffffffff16565b600260008573ffffffffffffffffffffffffffffffffffffffff1673ffffffffffffffffffffffffffffffffffffffff1681526020019081526020016000208190555061121181600260008573ffffffffffffffffffffffffffffffffffffffff1673ffffffffffffffffffffffffffffffffffffffff16815260200190815260200160002054611b2090919063ffffffff16565b600260008473ffffffffffffffffffffffffffffffffffffffff1673ffffffffffffffffffffffffffffffffffffffff16815260200190815260200160002081905550505050565b6000809054906101000a900473ffffffffffffffffffffffffffffffffffffffff1673ffffffffffffffffffffffffffffffffffffffff168273ffffffffffffffffffffffffffffffffffffffff16141515611300576040517f08c379a000000000000000000000000000000000000000000000000000000000815260040180806020018281038252603c8152602001806121a5603c913960400191505060405180910390fd5b6000809054906101000a900473ffffffffffffffffffffffffffffffffffffffff1673ffffffffffffffffffffffffffffffffffffffff166370a08231856040518263ffffffff167c0100000000000000000000000000000000000000000000000000000000028152600401808273ffffffffffffffffffffffffffffffffffffffff1673ffffffffffffffffffffffffffffffffffffffff16815260200191505060206040518083038186803b1580156113ba57600080fd5b505afa1580156113ce573d6000803e3d6000fd5b505050506040513d60208110156113e457600080fd5b8101908080519060200190929190505050831115151561146c576040517f08c379a000000000000000000000000000000000000000000000000000000000815260040180806020018281038252601f8152602001807f53656e646572206d757374206861766520656e6f75676820746f6b656e732e0081525060200191505060405180910390fd5b602881511415156114c8576040517f08c379a000000000000000000000000000000000000000000000000000000000815260040180806020018281038252602781526020018061217e6027913960400191505060405180910390fd5b60006114de600083611e8d90919063ffffffff16565b905060006114f6601484611e8d90919063ffffffff16565b9050600073ffffffffffffffffffffffffffffffffffffffff16600360008373ffffffffffffffffffffffffffffffffffffffff1673ffffffffffffffffffffffffffffffffffffffff16815260200190815260200160002060009054906101000a900473ffffffffffffffffffffffffffffffffffffffff1673ffffffffffffffffffffffffffffffffffffffff161415156115de576040517f08c379a000000000000000000000000000000000000000000000000000000000815260040180806020018281038252602381526020018061221e6023913960400191505060405180910390fd5b85600360008373ffffffffffffffffffffffffffffffffffffffff1673ffffffffffffffffffffffffffffffffffffffff16815260200190815260200160002060006101000a81548173ffffffffffffffffffffffffffffffffffffffff021916908373ffffffffffffffffffffffffffffffffffffffff16021790555081600460008373ffffffffffffffffffffffffffffffffffffffff1673ffffffffffffffffffffffffffffffffffffffff16815260200190815260200160002060006101000a81548173ffffffffffffffffffffffffffffffffffffffff021916908373ffffffffffffffffffffffffffffffffffffffff160217905550600560008773ffffffffffffffffffffffffffffffffffffffff1673ffffffffffffffffffffffffffffffffffffffff1681526020019081526020016000208190806001815401808255809150509060018203906000526020600020016000909192909190916101000a81548173ffffffffffffffffffffffffffffffffffffffff021916908373ffffffffffffffffffffffffffffffffffffffff160217905550506000809054906101000a900473ffffffffffffffffffffffffffffffffffffffff1673ffffffffffffffffffffffffffffffffffffffff166323b872dd8730886040518463ffffffff167c0100000000000000000000000000000000000000000000000000000000028152600401808473ffffffffffffffffffffffffffffffffffffffff1673ffffffffffffffffffffffffffffffffffffffff1681526020018373ffffffffffffffffffffffffffffffffffffffff1673ffffffffffffffffffffffffffffffffffffffff1681526020018281526020019350505050602060405180830381600087803b15801561187557600080fd5b505af1158015611889573d6000803e3d6000fd5b505050506040513d602081101561189f57600080fd5b81019080805190602001909291905050505061190385600260008473ffffffffffffffffffffffffffffffffffffffff1673ffffffffffffffffffffffffffffffffffffffff16815260200190815260200160002054611b2090919063ffffffff16565b600260008373ffffffffffffffffffffffffffffffffffffffff1673ffffffffffffffffffffffffffffffffffffffff168152602001908152602001600020819055508073ffffffffffffffffffffffffffffffffffffffff167f9e71bc8eea02a63969f509818f2dafb9254532904319f9dbda79b67bd34a5f3d866040518082815260200191505060405180910390a2505050505050565b600080600660008473ffffffffffffffffffffffffffffffffffffffff1673ffffffffffffffffffffffffffffffffffffffff16815260200190815260200160002060000154600660008573ffffffffffffffffffffffffffffffffffffffff1673ffffffffffffffffffffffffffffffffffffffff1681526020019081526020016000206001015491509150915091565b6060600560008373ffffffffffffffffffffffffffffffffffffffff1673ffffffffffffffffffffffffffffffffffffffff168152602001908152602001600020805480602002602001604051908101604052809291908181526020018280548015611aef57602002820191906000526020600020905b8160009054906101000a900473ffffffffffffffffffffffffffffffffffffffff1673ffffffffffffffffffffffffffffffffffffffff1681526020019060010190808311611aa5575b50505050509050919050565b6000809054906101000a900473ffffffffffffffffffffffffffffffffffffffff1681565b6000808284019050838110151515611ba0576040517f08c379a000000000000000000000000000000000000000000000000000000000815260040180806020018281038252601b8152602001807f536166654d6174683a206164646974696f6e206f766572666c6f77000000000081525060200191505060405180910390fd5b8091505092915050565b611c92838473ffffffffffffffffffffffffffffffffffffffff1663a9059cbb90507c0100000000000000000000000000000000000000000000000000000000028484604051602401808373ffffffffffffffffffffffffffffffffffffffff1673ffffffffffffffffffffffffffffffffffffffff16815260200182815260200192505050604051602081830303815290604052907bffffffffffffffffffffffffffffffffffffffffffffffffffffffff19166020820180517bffffffffffffffffffffffffffffffffffffffffffffffffffffffff8381831617835250505050611ec6565b505050565b600080600090505b8380549050811015611df8578381815481101515611cb957fe5b9060005260206000200160009054906101000a900473ffffffffffffffffffffffffffffffffffffffff1673ffffffffffffffffffffffffffffffffffffffff168373ffffffffffffffffffffffffffffffffffffffff161415611deb5760008190505b6001858054905003811015611dcb578460018201815481101515611d3d57fe5b9060005260206000200160009054906101000a900473ffffffffffffffffffffffffffffffffffffffff168582815481101515611d7657fe5b9060005260206000200160006101000a81548173ffffffffffffffffffffffffffffffffffffffff021916908373ffffffffffffffffffffffffffffffffffffffff1602179055508080600101915050611d1d565b5083805480919060019003611de0919061212c565b508080600190039150505b8080600101915050611c9f565b5082905092915050565b6000828211151515611e7c576040517f08c379a000000000000000000000000000000000000000000000000000000000815260040180806020018281038252601e8152602001807f536166654d6174683a207375627472616374696f6e206f766572666c6f77000081525060200191505060405180910390fd5b600082840390508091505092915050565b600060148201835110151515611ea257600080fd5b60006c01000000000000000000000000836020860101510490508091505092915050565b611ee58273ffffffffffffffffffffffffffffffffffffffff16612119565b1515611f59576040517f08c379a000000000000000000000000000000000000000000000000000000000815260040180806020018281038252601f8152602001807f5361666545524332303a2063616c6c20746f206e6f6e2d636f6e74726163740081525060200191505060405180910390fd5b600060608373ffffffffffffffffffffffffffffffffffffffff16836040518082805190602001908083835b602083101515611faa5780518252602082019150602081019050602083039250611f85565b6001836020036101000a0380198251168184511680821785525050505050509050019150506000604051808303816000865af19150503d806000811461200c576040519150601f19603f3d011682016040523d82523d6000602084013e612011565b606091505b509150915081151561208b576040517f08c379a00000000000000000000000000000000000000000000000000000000081526004018080602001828103825260208152602001807f5361666545524332303a206c6f772d6c6576656c2063616c6c206661696c656481525060200191505060405180910390fd5b600081511115612113578080602001905160208110156120aa57600080fd5b81019080805190602001909291905050501515612112576040517f08c379a000000000000000000000000000000000000000000000000000000000815260040180806020018281038252602a81526020018061226b602a913960400191505060405180910390fd5b5b50505050565b600080823b905060008111915050919050565b815481835581811115612153578183600052602060002091820191016121529190612158565b5b505050565b61217a91905b8082111561217657600081600090555060010161215e565b5090565b9056fe5374616b652064656c65676174696f6e2064617461206d7573742062652070726f76696465642e546f6b656e20636f6e7472616374206d757374206265207468652073616d65206f6e65206c696e6b656420746f207468697320636f6e74726163742e4f6e6c79206f70657261746f72206f7220746865206f776e6572206f6620746865207374616b652063616e20696e69746961746520756e7374616b652e4f70657261746f72206164647265737320697320616c726561647920696e207573652e5374616b6572206d757374206861766520656e6f75676820746f6b656e7320746f20756e7374616b652e5361666545524332303a204552433230206f7065726174696f6e20646964206e6f74207375636365656443616e206e6f742066696e69736820756e7374616b65206265666f7265207769746864726177616c2064656c6179206973206f7665722ea165627a7a72305820c279a69bbc15187c6d001794692974c82d57927da063e5038e4c62ec3c774a120029",
  "source": "pragma solidity ^0.5.4;\n\nimport \"./StakeDelegatable.sol\";\nimport \"./utils/UintArrayUtils.sol\";\n\n\n/**\n * @title TokenStaking\n * @dev A token staking contract for a specified standard ERC20 token.\n * A holder of the specified token can stake its tokens to this contract\n * and unstake after withdrawal delay is over.\n */\ncontract TokenStaking is StakeDelegatable {\n\n    using UintArrayUtils for uint256[];\n\n    event Staked(address indexed from, uint256 value);\n    event InitiatedUnstake(address indexed operator, uint256 value, uint256 createdAt);\n    event FinishedUnstake(address operator);\n\n    struct Withdrawal {\n        uint256 amount;\n        uint256 createdAt;\n    }\n\n    mapping(address => Withdrawal) public withdrawals;\n\n    /**\n     * @dev Creates a token staking contract for a provided Standard ERC20 token.\n     * @param _tokenAddress Address of a token that will be linked to this contract.\n     * @param _delay Withdrawal delay for unstake.\n     */\n    constructor(address _tokenAddress, uint256 _delay) public {\n        require(_tokenAddress != address(0x0), \"Token address can't be zero.\");\n        token = ERC20(_tokenAddress);\n        stakeWithdrawalDelay = _delay;\n    }\n\n    /**\n     * @notice Receives approval of token transfer and stakes the approved amount.\n     * @dev Makes sure provided token contract is the same one linked to this contract.\n     * @param _from The owner of the tokens who approved them to transfer.\n     * @param _value Approved amount for the transfer and stake.\n     * @param _token Token contract address.\n     * @param _extraData Data for stake delegation. This byte array must have the\n     * following values concatenated: Magpie address (20 bytes) where the rewards for participation\n     * are sent and the operator's (20 bytes) address.\n     */\n    function receiveApproval(address _from, uint256 _value, address _token, bytes memory _extraData) public {\n        require(ERC20(_token) == token, \"Token contract must be the same one linked to this contract.\");\n        require(_value <= token.balanceOf(_from), \"Sender must have enough tokens.\");\n        require(_extraData.length == 40, \"Stake delegation data must be provided.\");\n\n        address payable magpie = address(uint160(_extraData.toAddress(0)));\n        address operator = _extraData.toAddress(20);\n        require(operatorToOwner[operator] == address(0), \"Operator address is already in use.\");\n\n        operatorToOwner[operator] = _from;\n        operatorToMagpie[operator] = magpie;\n        ownerOperators[_from].push(operator);\n\n        // Transfer tokens to this contract.\n        token.transferFrom(_from, address(this), _value);\n\n        // Maintain a record of the stake amount by the sender.\n        stakeBalances[operator] = stakeBalances[operator].add(_value);\n        emit Staked(operator, _value);\n    }\n\n    /**\n     * @notice Initiates unstake of staked tokens and returns withdrawal request ID.\n     * You will be able to call `finishUnstake()` with this ID and finish\n     * unstake once withdrawal delay is over.\n     * @param _value The amount to be unstaked.\n     * @param _operator Address of the stake operator.\n     */\n    function initiateUnstake(uint256 _value, address _operator) public {\n        address owner = operatorToOwner[_operator];\n        require(\n            msg.sender == _operator ||\n            msg.sender == owner, \"Only operator or the owner of the stake can initiate unstake.\");\n        require(_value <= stakeBalances[_operator], \"Staker must have enough tokens to unstake.\");\n\n        stakeBalances[_operator] = stakeBalances[_operator].sub(_value);\n        uint256 createdAt = now;\n        withdrawals[_operator] = Withdrawal(withdrawals[_operator].amount.add(_value), createdAt);\n\n        emit InitiatedUnstake(_operator, _value, createdAt);\n    }\n\n    /**\n     * @notice Finishes unstake of the tokens of provided withdrawal request.\n     * You can only finish unstake once withdrawal delay is over for the request,\n     * otherwise the function will fail and remaining gas is returned.\n     * @param _operator Operator address.\n     */\n    function finishUnstake(address _operator) public {\n        require(now >= withdrawals[_operator].createdAt.add(stakeWithdrawalDelay), \"Can not finish unstake before withdrawal delay is over.\");\n        address owner = operatorToOwner[_operator];\n\n        // No need to call approve since msg.sender will be this staking contract.\n        token.safeTransfer(owner, withdrawals[_operator].amount);\n\n        // Cleanup withdrawal record.\n        delete withdrawals[_operator];\n\n        // Release operator only when the stake is depleted\n        if (stakeBalances[_operator] <= 0) {\n            operatorToOwner[_operator] = address(0);\n            ownerOperators[owner].removeAddress(_operator);\n        }\n\n        emit FinishedUnstake(_operator);\n    }\n\n    /**\n     * @dev Gets withdrawal request by Operator.\n     * @param _operator address of withdrawal request.\n     * @return amount, createdAt.\n     */\n    function getWithdrawal(address _operator) public view returns (uint256 amount, uint256 createdAt) {\n        return (withdrawals[_operator].amount, withdrawals[_operator].createdAt);\n    }\n\n    // TODO: replace with a secure authorization protocol (addressed in RFC 4).\n    function authorizedTransferFrom(address from, address to, uint256 amount) public {\n        stakeBalances[from] = stakeBalances[from].sub(amount);\n        stakeBalances[to] = stakeBalances[to].add(amount);\n    }\n\n}\n",
  "sourcePath": "/Users/sthompson22/Projects/keep/keep-core/contracts/solidity/contracts/TokenStaking.sol",
  "compiler": {
    "name": "solc",
    "version": "0.5.4+commit.9549d8ff.Emscripten.clang"
  },
  "schemaVersion": "3.0.19",
  "updatedAt": "2019-12-16T18:46:00.492Z",
  "networkType": "ethereum",
  "devdoc": {
    "details": "A token staking contract for a specified standard ERC20 token. A holder of the specified token can stake its tokens to this contract and unstake after withdrawal delay is over.",
    "methods": {
      "balanceOf(address)": {
        "details": "Gets the stake balance of the specified address.",
        "params": {
          "_address": "The address to query the balance of."
        },
        "return": "An uint256 representing the amount staked by the passed address."
      },
      "constructor": {
        "details": "Creates a token staking contract for a provided Standard ERC20 token.",
        "params": {
          "_delay": "Withdrawal delay for unstake.",
          "_tokenAddress": "Address of a token that will be linked to this contract."
        }
      },
      "finishUnstake(address)": {
        "params": {
          "_operator": "Operator address."
        }
      },
      "getWithdrawal(address)": {
        "details": "Gets withdrawal request by Operator.",
        "params": {
          "_operator": "address of withdrawal request."
        },
        "return": "amount, createdAt."
      },
      "initiateUnstake(uint256,address)": {
        "params": {
          "_operator": "Address of the stake operator.",
          "_value": "The amount to be unstaked."
        }
      },
      "magpieOf(address)": {
        "details": "Gets the magpie for the specified operator address.",
        "return": "Magpie address."
      },
      "operatorsOf(address)": {
        "details": "Gets the list of operators of the specified address.",
        "return": "An array of addresses."
      },
      "ownerOf(address)": {
        "details": "Gets the stake owner for the specified operator address.",
        "return": "Stake owner address."
      },
      "receiveApproval(address,uint256,address,bytes)": {
        "details": "Makes sure provided token contract is the same one linked to this contract.",
        "params": {
          "_extraData": "Data for stake delegation. This byte array must have the following values concatenated: Magpie address (20 bytes) where the rewards for participation are sent and the operator's (20 bytes) address.",
          "_from": "The owner of the tokens who approved them to transfer.",
          "_token": "Token contract address.",
          "_value": "Approved amount for the transfer and stake."
        }
      }
    },
    "title": "TokenStaking"
  },
  "userdoc": {
    "methods": {
      "finishUnstake(address)": {
        "notice": "Finishes unstake of the tokens of provided withdrawal request. You can only finish unstake once withdrawal delay is over for the request, otherwise the function will fail and remaining gas is returned."
      },
      "initiateUnstake(uint256,address)": {
        "notice": "Initiates unstake of staked tokens and returns withdrawal request ID. You will be able to call `finishUnstake()` with this ID and finish unstake once withdrawal delay is over."
      },
      "receiveApproval(address,uint256,address,bytes)": {
        "notice": "Receives approval of token transfer and stakes the approved amount."
      }
    }
  }
}