{
  "contractName": "TokenStaking",
  "abi": [
    {
      "inputs": [
        {
          "internalType": "address",
          "name": "_tokenAddress",
          "type": "address"
        },
        {
          "internalType": "address",
          "name": "_registry",
          "type": "address"
        },
        {
          "internalType": "uint256",
          "name": "_initializationPeriod",
          "type": "uint256"
        },
        {
          "internalType": "uint256",
          "name": "_undelegationPeriod",
          "type": "uint256"
        }
      ],
      "payable": false,
      "stateMutability": "nonpayable",
      "type": "constructor"
    },
    {
      "anonymous": false,
      "inputs": [
        {
          "indexed": false,
          "internalType": "address",
          "name": "operator",
          "type": "address"
        },
        {
          "indexed": false,
          "internalType": "uint256",
          "name": "recoveredAt",
          "type": "uint256"
        }
      ],
      "name": "RecoveredStake",
      "type": "event"
    },
    {
      "anonymous": false,
      "inputs": [
        {
          "indexed": true,
          "internalType": "address",
          "name": "from",
          "type": "address"
        },
        {
          "indexed": false,
          "internalType": "uint256",
          "name": "value",
          "type": "uint256"
        }
      ],
      "name": "Staked",
      "type": "event"
    },
    {
      "anonymous": false,
      "inputs": [
        {
          "indexed": true,
          "internalType": "address",
          "name": "operator",
          "type": "address"
        },
        {
          "indexed": false,
          "internalType": "uint256",
          "name": "undelegatedAt",
          "type": "uint256"
        }
      ],
      "name": "Undelegated",
      "type": "event"
    },
    {
      "constant": true,
      "inputs": [
        {
          "internalType": "address",
          "name": "_operator",
          "type": "address"
        }
      ],
      "name": "authorizerOf",
      "outputs": [
        {
          "internalType": "address",
          "name": "",
          "type": "address"
        }
      ],
      "payable": false,
      "stateMutability": "view",
      "type": "function"
    },
    {
      "constant": true,
      "inputs": [
        {
          "internalType": "address",
          "name": "_address",
          "type": "address"
        }
      ],
      "name": "balanceOf",
      "outputs": [
        {
          "internalType": "uint256",
          "name": "balance",
          "type": "uint256"
        }
      ],
      "payable": false,
      "stateMutability": "view",
      "type": "function"
    },
    {
      "constant": true,
      "inputs": [],
      "name": "initializationPeriod",
      "outputs": [
        {
          "internalType": "uint256",
          "name": "",
          "type": "uint256"
        }
      ],
      "payable": false,
      "stateMutability": "view",
      "type": "function"
    },
    {
      "constant": true,
      "inputs": [
        {
          "internalType": "address",
          "name": "_operator",
          "type": "address"
        }
      ],
      "name": "magpieOf",
      "outputs": [
        {
          "internalType": "address payable",
          "name": "",
          "type": "address"
        }
      ],
      "payable": false,
      "stateMutability": "view",
      "type": "function"
    },
    {
      "constant": true,
      "inputs": [
        {
          "internalType": "address",
          "name": "",
          "type": "address"
        }
      ],
      "name": "operators",
      "outputs": [
        {
          "internalType": "uint256",
          "name": "packedParams",
          "type": "uint256"
        },
        {
          "internalType": "address",
          "name": "owner",
          "type": "address"
        },
        {
          "internalType": "address payable",
          "name": "beneficiary",
          "type": "address"
        },
        {
          "internalType": "address",
          "name": "authorizer",
          "type": "address"
        }
      ],
      "payable": false,
      "stateMutability": "view",
      "type": "function"
    },
    {
      "constant": true,
      "inputs": [
        {
          "internalType": "address",
          "name": "_address",
          "type": "address"
        }
      ],
      "name": "operatorsOf",
      "outputs": [
        {
          "internalType": "address[]",
          "name": "",
          "type": "address[]"
        }
      ],
      "payable": false,
      "stateMutability": "view",
      "type": "function"
    },
    {
      "constant": true,
      "inputs": [
        {
          "internalType": "address",
          "name": "_operator",
          "type": "address"
        }
      ],
      "name": "ownerOf",
      "outputs": [
        {
          "internalType": "address",
          "name": "",
          "type": "address"
        }
      ],
      "payable": false,
      "stateMutability": "view",
      "type": "function"
    },
    {
      "constant": true,
      "inputs": [
        {
          "internalType": "address",
          "name": "",
          "type": "address"
        },
        {
          "internalType": "uint256",
          "name": "",
          "type": "uint256"
        }
      ],
      "name": "ownerOperators",
      "outputs": [
        {
          "internalType": "address",
          "name": "",
          "type": "address"
        }
      ],
      "payable": false,
      "stateMutability": "view",
      "type": "function"
    },
    {
      "constant": true,
      "inputs": [],
      "name": "registry",
      "outputs": [
        {
          "internalType": "contract Registry",
          "name": "",
          "type": "address"
        }
      ],
      "payable": false,
      "stateMutability": "view",
      "type": "function"
    },
    {
      "constant": true,
      "inputs": [],
      "name": "token",
      "outputs": [
        {
          "internalType": "contract ERC20Burnable",
          "name": "",
          "type": "address"
        }
      ],
      "payable": false,
      "stateMutability": "view",
      "type": "function"
    },
    {
      "constant": true,
      "inputs": [],
      "name": "undelegationPeriod",
      "outputs": [
        {
          "internalType": "uint256",
          "name": "",
          "type": "uint256"
        }
      ],
      "payable": false,
      "stateMutability": "view",
      "type": "function"
    },
    {
      "constant": false,
      "inputs": [
        {
          "internalType": "address",
          "name": "_from",
          "type": "address"
        },
        {
          "internalType": "uint256",
          "name": "_value",
          "type": "uint256"
        },
        {
          "internalType": "address",
          "name": "_token",
          "type": "address"
        },
        {
          "internalType": "bytes",
          "name": "_extraData",
          "type": "bytes"
        }
      ],
      "name": "receiveApproval",
      "outputs": [],
      "payable": false,
      "stateMutability": "nonpayable",
      "type": "function"
    },
    {
      "constant": false,
      "inputs": [
        {
          "internalType": "address",
          "name": "_operator",
          "type": "address"
        }
      ],
      "name": "cancelStake",
      "outputs": [],
      "payable": false,
      "stateMutability": "nonpayable",
      "type": "function"
    },
    {
      "constant": false,
      "inputs": [
        {
          "internalType": "address",
          "name": "_operator",
          "type": "address"
        }
      ],
      "name": "undelegate",
      "outputs": [],
      "payable": false,
      "stateMutability": "nonpayable",
      "type": "function"
    },
    {
      "constant": false,
      "inputs": [
        {
          "internalType": "address",
          "name": "_operator",
          "type": "address"
        }
      ],
      "name": "recoverStake",
      "outputs": [],
      "payable": false,
      "stateMutability": "nonpayable",
      "type": "function"
    },
    {
      "constant": true,
      "inputs": [
        {
          "internalType": "address",
          "name": "_operator",
          "type": "address"
        }
      ],
      "name": "getDelegationInfo",
      "outputs": [
        {
          "internalType": "uint256",
          "name": "amount",
          "type": "uint256"
        },
        {
          "internalType": "uint256",
          "name": "createdAt",
          "type": "uint256"
        },
        {
          "internalType": "uint256",
          "name": "undelegatedAt",
          "type": "uint256"
        }
      ],
      "payable": false,
      "stateMutability": "view",
      "type": "function"
    },
    {
      "constant": false,
      "inputs": [
        {
          "internalType": "uint256",
          "name": "amountToSlash",
          "type": "uint256"
        },
        {
          "internalType": "address[]",
          "name": "misbehavedOperators",
          "type": "address[]"
        }
      ],
      "name": "slash",
      "outputs": [],
      "payable": false,
      "stateMutability": "nonpayable",
      "type": "function"
    },
    {
      "constant": false,
      "inputs": [
        {
          "internalType": "uint256",
          "name": "amountToSeize",
          "type": "uint256"
        },
        {
          "internalType": "uint256",
          "name": "rewardMultiplier",
          "type": "uint256"
        },
        {
          "internalType": "address",
          "name": "tattletale",
          "type": "address"
        },
        {
          "internalType": "address[]",
          "name": "misbehavedOperators",
          "type": "address[]"
        }
      ],
      "name": "seize",
      "outputs": [],
      "payable": false,
      "stateMutability": "nonpayable",
      "type": "function"
    },
    {
      "constant": false,
      "inputs": [
        {
          "internalType": "address",
          "name": "_operator",
          "type": "address"
        },
        {
          "internalType": "address",
          "name": "_operatorContract",
          "type": "address"
        }
      ],
      "name": "authorizeOperatorContract",
      "outputs": [],
      "payable": false,
      "stateMutability": "nonpayable",
      "type": "function"
    },
    {
      "constant": true,
      "inputs": [
        {
          "internalType": "address",
          "name": "_operator",
          "type": "address"
        },
        {
          "internalType": "address",
          "name": "_operatorContract",
          "type": "address"
        }
      ],
      "name": "isAuthorizedForOperator",
      "outputs": [
        {
          "internalType": "bool",
          "name": "",
          "type": "bool"
        }
      ],
      "payable": false,
      "stateMutability": "view",
      "type": "function"
    },
    {
      "constant": true,
      "inputs": [
        {
          "internalType": "address",
          "name": "_operator",
          "type": "address"
        },
        {
          "internalType": "address",
          "name": "_operatorContract",
          "type": "address"
        }
      ],
      "name": "eligibleStake",
      "outputs": [
        {
          "internalType": "uint256",
          "name": "balance",
          "type": "uint256"
        }
      ],
      "payable": false,
      "stateMutability": "view",
      "type": "function"
    },
    {
      "constant": true,
      "inputs": [
        {
          "internalType": "address",
          "name": "_operator",
          "type": "address"
        },
        {
          "internalType": "address",
          "name": "_operatorContract",
          "type": "address"
        }
      ],
      "name": "activeStake",
      "outputs": [
        {
          "internalType": "uint256",
          "name": "balance",
          "type": "uint256"
        }
      ],
      "payable": false,
      "stateMutability": "view",
      "type": "function"
    }
  ],
  "bytecode": "0x608060405234801561001057600080fd5b5060405162003a0538038062003a058339818101604052608081101561003557600080fd5b8101908080519060200190929190805190602001909291908051906020019092919080519060200190929190505050600073ffffffffffffffffffffffffffffffffffffffff168473ffffffffffffffffffffffffffffffffffffffff161415610107576040517f08c379a000000000000000000000000000000000000000000000000000000000815260040180806020018281038252601c8152602001807f546f6b656e20616464726573732063616e2774206265207a65726f2e0000000081525060200191505060405180910390fd5b836000806101000a81548173ffffffffffffffffffffffffffffffffffffffff021916908373ffffffffffffffffffffffffffffffffffffffff16021790555082600560006101000a81548173ffffffffffffffffffffffffffffffffffffffff021916908373ffffffffffffffffffffffffffffffffffffffff16021790555081600181905550806002819055505050505061385b80620001aa6000396000f3fe608060405234801561001057600080fd5b50600436106101425760003560e01c8063aed1ec72116100b8578063ef1f96611161007c578063ef1f966114610996578063f165478314610a12578063fab46d6614610a76578063fb1677b114610adc578063fc0c546a14610b60578063fdd1f98614610baa57610142565b8063aed1ec72146107df578063afff33ef146107fd578063b534fbb614610875578063da8be8641461090e578063e064172e1461095257610142565b8063525835f91161010a578063525835f9146104ba57806370a08231146104fe5780637b103999146105565780638e49aa7a146105a05780638f4ffcb1146106625780639557e0bb1461076757610142565b806309055e901461014757806313e7c9d81461023357806314afd79e146103245780631cdac873146103a85780634239dd8d1461042c575b600080fd5b6102316004803603608081101561015d57600080fd5b810190808035906020019092919080359060200190929190803573ffffffffffffffffffffffffffffffffffffffff169060200190929190803590602001906401000000008111156101ae57600080fd5b8201836020820111156101c057600080fd5b803590602001918460208302840111640100000000831117156101e257600080fd5b919080806020026020016040519081016040528093929190818152602001838360200280828437600081840152601f19601f820116905080830192505050505050509192919290505050610bc8565b005b6102756004803603602081101561024957600080fd5b81019080803573ffffffffffffffffffffffffffffffffffffffff1690602001909291905050506110d0565b604051808581526020018473ffffffffffffffffffffffffffffffffffffffff1673ffffffffffffffffffffffffffffffffffffffff1681526020018373ffffffffffffffffffffffffffffffffffffffff1673ffffffffffffffffffffffffffffffffffffffff1681526020018273ffffffffffffffffffffffffffffffffffffffff1673ffffffffffffffffffffffffffffffffffffffff16815260200194505050505060405180910390f35b6103666004803603602081101561033a57600080fd5b81019080803573ffffffffffffffffffffffffffffffffffffffff169060200190929190505050611160565b604051808273ffffffffffffffffffffffffffffffffffffffff1673ffffffffffffffffffffffffffffffffffffffff16815260200191505060405180910390f35b6103ea600480360360208110156103be57600080fd5b81019080803573ffffffffffffffffffffffffffffffffffffffff1690602001909291905050506111cc565b604051808273ffffffffffffffffffffffffffffffffffffffff1673ffffffffffffffffffffffffffffffffffffffff16815260200191505060405180910390f35b6104786004803603604081101561044257600080fd5b81019080803573ffffffffffffffffffffffffffffffffffffffff16906020019092919080359060200190929190505050611238565b604051808273ffffffffffffffffffffffffffffffffffffffff1673ffffffffffffffffffffffffffffffffffffffff16815260200191505060405180910390f35b6104fc600480360360208110156104d057600080fd5b81019080803573ffffffffffffffffffffffffffffffffffffffff169060200190929190505050611283565b005b6105406004803603602081101561051457600080fd5b81019080803573ffffffffffffffffffffffffffffffffffffffff1690602001909291905050506114c9565b6040518082815260200191505060405180910390f35b61055e61151d565b604051808273ffffffffffffffffffffffffffffffffffffffff1673ffffffffffffffffffffffffffffffffffffffff16815260200191505060405180910390f35b610660600480360360408110156105b657600080fd5b8101908080359060200190929190803590602001906401000000008111156105dd57600080fd5b8201836020820111156105ef57600080fd5b8035906020019184602083028401116401000000008311171561061157600080fd5b919080806020026020016040519081016040528093929190818152602001838360200280828437600081840152601f19601f820116905080830192505050505050509192919290505050611543565b005b6107656004803603608081101561067857600080fd5b81019080803573ffffffffffffffffffffffffffffffffffffffff16906020019092919080359060200190929190803573ffffffffffffffffffffffffffffffffffffffff169060200190929190803590602001906401000000008111156106df57600080fd5b8201836020820111156106f157600080fd5b8035906020019184600183028401116401000000008311171561071357600080fd5b91908080601f016020809104026020016040519081016040528093929190818152602001838380828437600081840152601f19601f82011690508083019250505050505050919291929050505061199a565b005b6107c96004803603604081101561077d57600080fd5b81019080803573ffffffffffffffffffffffffffffffffffffffff169060200190929190803573ffffffffffffffffffffffffffffffffffffffff169060200190929190505050611fed565b6040518082815260200191505060405180910390f35b6107e7612110565b6040518082815260200191505060405180910390f35b61085f6004803603604081101561081357600080fd5b81019080803573ffffffffffffffffffffffffffffffffffffffff169060200190929190803573ffffffffffffffffffffffffffffffffffffffff169060200190929190505050612116565b6040518082815260200191505060405180910390f35b6108b76004803603602081101561088b57600080fd5b81019080803573ffffffffffffffffffffffffffffffffffffffff169060200190929190505050612264565b6040518080602001828103825283818151815260200191508051906020019060200280838360005b838110156108fa5780820151818401526020810190506108df565b505050509050019250505060405180910390f35b6109506004803603602081101561092457600080fd5b81019080803573ffffffffffffffffffffffffffffffffffffffff169060200190929190505050612331565b005b6109946004803603602081101561096857600080fd5b81019080803573ffffffffffffffffffffffffffffffffffffffff16906020019092919050505061254b565b005b6109f8600480360360408110156109ac57600080fd5b81019080803573ffffffffffffffffffffffffffffffffffffffff169060200190929190803573ffffffffffffffffffffffffffffffffffffffff1690602001909291905050506127fe565b604051808215151515815260200191505060405180910390f35b610a7460048036036040811015610a2857600080fd5b81019080803573ffffffffffffffffffffffffffffffffffffffff169060200190929190803573ffffffffffffffffffffffffffffffffffffffff169060200190929190505050612892565b005b610ab860048036036020811015610a8c57600080fd5b81019080803573ffffffffffffffffffffffffffffffffffffffff169060200190929190505050612b61565b60405180848152602001838152602001828152602001935050505060405180910390f35b610b1e60048036036020811015610af257600080fd5b81019080803573ffffffffffffffffffffffffffffffffffffffff169060200190929190505050612bbe565b604051808273ffffffffffffffffffffffffffffffffffffffff1673ffffffffffffffffffffffffffffffffffffffff16815260200191505060405180910390f35b610b68612c2a565b604051808273ffffffffffffffffffffffffffffffffffffffff1673ffffffffffffffffffffffffffffffffffffffff16815260200191505060405180910390f35b610bb2612c4f565b6040518082815260200191505060405180910390f35b33600560009054906101000a900473ffffffffffffffffffffffffffffffffffffffff1673ffffffffffffffffffffffffffffffffffffffff166384d57689826040518263ffffffff1660e01b8152600401808273ffffffffffffffffffffffffffffffffffffffff1673ffffffffffffffffffffffffffffffffffffffff16815260200191505060206040518083038186803b158015610c6857600080fd5b505afa158015610c7c573d6000803e3d6000fd5b505050506040513d6020811015610c9257600080fd5b8101908080519060200190929190505050610cf8576040517f08c379a00000000000000000000000000000000000000000000000000000000081526004018080602001828103825260218152602001806136fc6021913960400191505060405180910390fd5b600080905060008090505b8351811015610f8c576000848281518110610d1a57fe5b60200260200101519050600660003373ffffffffffffffffffffffffffffffffffffffff1673ffffffffffffffffffffffffffffffffffffffff16815260200190815260200160002060008273ffffffffffffffffffffffffffffffffffffffff1673ffffffffffffffffffffffffffffffffffffffff16815260200190815260200160002060009054906101000a900460ff16610e20576040517f08c379a000000000000000000000000000000000000000000000000000000000815260040180806020018281038252600e8152602001807f4e6f7420617574686f72697a656400000000000000000000000000000000000081525060200191505060405180910390fd5b6000600460008373ffffffffffffffffffffffffffffffffffffffff1673ffffffffffffffffffffffffffffffffffffffff1681526020019081526020016000206000015490506000610e7282612c55565b905089811015610ef557610e8f8186612c6f90919063ffffffff16565b94506000809050610ea98184612cf790919063ffffffff16565b600460008673ffffffffffffffffffffffffffffffffffffffff1673ffffffffffffffffffffffffffffffffffffffff1681526020019081526020016000206000018190555050610f7c565b610f088a86612c6f90919063ffffffff16565b94506000610f1f8b83612d1c90919063ffffffff16565b9050610f348184612cf790919063ffffffff16565b600460008673ffffffffffffffffffffffffffffffffffffffff1673ffffffffffffffffffffffffffffffffffffffff16815260200190815260200160002060000181905550505b5050508080600101915050610d03565b506000610fdb6064610fcd88610fbf6064610fb1600589612d6690919063ffffffff16565b612dec90919063ffffffff16565b612d6690919063ffffffff16565b612dec90919063ffffffff16565b905061102985826000809054906101000a900473ffffffffffffffffffffffffffffffffffffffff1673ffffffffffffffffffffffffffffffffffffffff16612e369092919063ffffffff16565b6000809054906101000a900473ffffffffffffffffffffffffffffffffffffffff1673ffffffffffffffffffffffffffffffffffffffff166342966c686110798385612d1c90919063ffffffff16565b6040518263ffffffff1660e01b815260040180828152602001915050600060405180830381600087803b1580156110af57600080fd5b505af11580156110c3573d6000803e3d6000fd5b5050505050505050505050565b60046020528060005260406000206000915090508060000154908060010160009054906101000a900473ffffffffffffffffffffffffffffffffffffffff16908060020160009054906101000a900473ffffffffffffffffffffffffffffffffffffffff16908060030160009054906101000a900473ffffffffffffffffffffffffffffffffffffffff16905084565b6000600460008373ffffffffffffffffffffffffffffffffffffffff1673ffffffffffffffffffffffffffffffffffffffff16815260200190815260200160002060010160009054906101000a900473ffffffffffffffffffffffffffffffffffffffff169050919050565b6000600460008373ffffffffffffffffffffffffffffffffffffffff1673ffffffffffffffffffffffffffffffffffffffff16815260200190815260200160002060020160009054906101000a900473ffffffffffffffffffffffffffffffffffffffff169050919050565b6003602052816000526040600020818154811061125157fe5b906000526020600020016000915091509054906101000a900473ffffffffffffffffffffffffffffffffffffffff1681565b6000600460008373ffffffffffffffffffffffffffffffffffffffff1673ffffffffffffffffffffffffffffffffffffffff1681526020019081526020016000206000015490506112e76002546112d983612f07565b612c6f90919063ffffffff16565b431161133e576040517f08c379a000000000000000000000000000000000000000000000000000000000815260040180806020018281038252603981526020018061371d6039913960400191505060405180910390fd5b6000600460008473ffffffffffffffffffffffffffffffffffffffff1673ffffffffffffffffffffffffffffffffffffffff16815260200190815260200160002060010160009054906101000a900473ffffffffffffffffffffffffffffffffffffffff16905060006113b083612c55565b90506113c6600084612cf790919063ffffffff16565b600460008673ffffffffffffffffffffffffffffffffffffffff1673ffffffffffffffffffffffffffffffffffffffff1681526020019081526020016000206000018190555061145882826000809054906101000a900473ffffffffffffffffffffffffffffffffffffffff1673ffffffffffffffffffffffffffffffffffffffff16612e369092919063ffffffff16565b7f564f402e70218efee257fcbf84954e2e95e3ecc52cebe7b06c79955463752d5a8443604051808373ffffffffffffffffffffffffffffffffffffffff1673ffffffffffffffffffffffffffffffffffffffff1681526020018281526020019250505060405180910390a150505050565b6000611516600460008473ffffffffffffffffffffffffffffffffffffffff1673ffffffffffffffffffffffffffffffffffffffff16815260200190815260200160002060000154612c55565b9050919050565b600560009054906101000a900473ffffffffffffffffffffffffffffffffffffffff1681565b33600560009054906101000a900473ffffffffffffffffffffffffffffffffffffffff1673ffffffffffffffffffffffffffffffffffffffff166384d57689826040518263ffffffff1660e01b8152600401808273ffffffffffffffffffffffffffffffffffffffff1673ffffffffffffffffffffffffffffffffffffffff16815260200191505060206040518083038186803b1580156115e357600080fd5b505afa1580156115f7573d6000803e3d6000fd5b505050506040513d602081101561160d57600080fd5b8101908080519060200190929190505050611673576040517f08c379a00000000000000000000000000000000000000000000000000000000081526004018080602001828103825260218152602001806136fc6021913960400191505060405180910390fd5b600080905060008090505b835181101561190757600084828151811061169557fe5b60200260200101519050600660003373ffffffffffffffffffffffffffffffffffffffff1673ffffffffffffffffffffffffffffffffffffffff16815260200190815260200160002060008273ffffffffffffffffffffffffffffffffffffffff1673ffffffffffffffffffffffffffffffffffffffff16815260200190815260200160002060009054906101000a900460ff1661179b576040517f08c379a000000000000000000000000000000000000000000000000000000000815260040180806020018281038252600e8152602001807f4e6f7420617574686f72697a656400000000000000000000000000000000000081525060200191505060405180910390fd5b6000600460008373ffffffffffffffffffffffffffffffffffffffff1673ffffffffffffffffffffffffffffffffffffffff16815260200190815260200160002060000154905060006117ed82612c55565b9050878110156118705761180a8186612c6f90919063ffffffff16565b945060008090506118248184612cf790919063ffffffff16565b600460008673ffffffffffffffffffffffffffffffffffffffff1673ffffffffffffffffffffffffffffffffffffffff16815260200190815260200160002060000181905550506118f7565b6118838886612c6f90919063ffffffff16565b9450600061189a8983612d1c90919063ffffffff16565b90506118af8184612cf790919063ffffffff16565b600460008673ffffffffffffffffffffffffffffffffffffffff1673ffffffffffffffffffffffffffffffffffffffff16815260200190815260200160002060000181905550505b505050808060010191505061167e565b506000809054906101000a900473ffffffffffffffffffffffffffffffffffffffff1673ffffffffffffffffffffffffffffffffffffffff166342966c68826040518263ffffffff1660e01b815260040180828152602001915050600060405180830381600087803b15801561197c57600080fd5b505af1158015611990573d6000803e3d6000fd5b5050505050505050565b6000809054906101000a900473ffffffffffffffffffffffffffffffffffffffff1673ffffffffffffffffffffffffffffffffffffffff168273ffffffffffffffffffffffffffffffffffffffff1614611a3f576040517f08c379a000000000000000000000000000000000000000000000000000000000815260040180806020018281038252603c81526020018061377d603c913960400191505060405180910390fd5b6000809054906101000a900473ffffffffffffffffffffffffffffffffffffffff1673ffffffffffffffffffffffffffffffffffffffff166370a08231856040518263ffffffff1660e01b8152600401808273ffffffffffffffffffffffffffffffffffffffff1673ffffffffffffffffffffffffffffffffffffffff16815260200191505060206040518083038186803b158015611add57600080fd5b505afa158015611af1573d6000803e3d6000fd5b505050506040513d6020811015611b0757600080fd5b8101908080519060200190929190505050831115611b8d576040517f08c379a000000000000000000000000000000000000000000000000000000000815260040180806020018281038252601f8152602001807f53656e646572206d757374206861766520656e6f75676820746f6b656e732e0081525060200191505060405180910390fd5b603c815114611be7576040517f08c379a00000000000000000000000000000000000000000000000000000000081526004018080602001828103825260278152602001806137566027913960400191505060405180910390fd5b6000611bfd600083612f1a90919063ffffffff16565b90506000611c15601484612f1a90919063ffffffff16565b9050600073ffffffffffffffffffffffffffffffffffffffff16600460008373ffffffffffffffffffffffffffffffffffffffff1673ffffffffffffffffffffffffffffffffffffffff16815260200190815260200160002060010160009054906101000a900473ffffffffffffffffffffffffffffffffffffffff1673ffffffffffffffffffffffffffffffffffffffff1614611cfe576040517f08c379a00000000000000000000000000000000000000000000000000000000081526004018080602001828103825260238152602001806137b96023913960400191505060405180910390fd5b6000611d14602885612f1a90919063ffffffff16565b9050611d648730886000809054906101000a900473ffffffffffffffffffffffffffffffffffffffff1673ffffffffffffffffffffffffffffffffffffffff16612fad909392919063ffffffff16565b6040518060800160405280611d7b884360006130b3565b81526020018873ffffffffffffffffffffffffffffffffffffffff1681526020018473ffffffffffffffffffffffffffffffffffffffff1681526020018273ffffffffffffffffffffffffffffffffffffffff16815250600460008473ffffffffffffffffffffffffffffffffffffffff1673ffffffffffffffffffffffffffffffffffffffff1681526020019081526020016000206000820151816000015560208201518160010160006101000a81548173ffffffffffffffffffffffffffffffffffffffff021916908373ffffffffffffffffffffffffffffffffffffffff16021790555060408201518160020160006101000a81548173ffffffffffffffffffffffffffffffffffffffff021916908373ffffffffffffffffffffffffffffffffffffffff16021790555060608201518160030160006101000a81548173ffffffffffffffffffffffffffffffffffffffff021916908373ffffffffffffffffffffffffffffffffffffffff160217905550905050600360008873ffffffffffffffffffffffffffffffffffffffff1673ffffffffffffffffffffffffffffffffffffffff1681526020019081526020016000208290806001815401808255809150509060018203906000526020600020016000909192909190916101000a81548173ffffffffffffffffffffffffffffffffffffffff021916908373ffffffffffffffffffffffffffffffffffffffff160217905550508173ffffffffffffffffffffffffffffffffffffffff167f9e71bc8eea02a63969f509818f2dafb9254532904319f9dbda79b67bd34a5f3d876040518082815260200191505060405180910390a250505050505050565b600080600660008473ffffffffffffffffffffffffffffffffffffffff1673ffffffffffffffffffffffffffffffffffffffff16815260200190815260200160002060008573ffffffffffffffffffffffffffffffffffffffff1673ffffffffffffffffffffffffffffffffffffffff16815260200190815260200160002060009054906101000a900460ff1690506000600460008673ffffffffffffffffffffffffffffffffffffffff1673ffffffffffffffffffffffffffffffffffffffff16815260200190815260200160002060000154905060006120ce826131dc565b905060006120e760015483612c6f90919063ffffffff16565b431190508380156120f55750805b156121065761210383612c55565b94505b5050505092915050565b60015481565b600080600660008473ffffffffffffffffffffffffffffffffffffffff1673ffffffffffffffffffffffffffffffffffffffff16815260200190815260200160002060008573ffffffffffffffffffffffffffffffffffffffff1673ffffffffffffffffffffffffffffffffffffffff16815260200190815260200160002060009054906101000a900460ff1690506000600460008673ffffffffffffffffffffffffffffffffffffffff1673ffffffffffffffffffffffffffffffffffffffff16815260200190815260200160002060000154905060006121f7826131dc565b9050600061220483612f07565b9050600061221d60015484612c6f90919063ffffffff16565b431190506000808311801561223157508243115b905085801561223d5750815b8015612247575080155b156122585761225585612c55565b96505b50505050505092915050565b6060600360008373ffffffffffffffffffffffffffffffffffffffff1673ffffffffffffffffffffffffffffffffffffffff16815260200190815260200160002080548060200260200160405190810160405280929190818152602001828054801561232557602002820191906000526020600020905b8160009054906101000a900473ffffffffffffffffffffffffffffffffffffffff1673ffffffffffffffffffffffffffffffffffffffff16815260200190600101908083116122db575b50505050509050919050565b6000600460008373ffffffffffffffffffffffffffffffffffffffff1673ffffffffffffffffffffffffffffffffffffffff16815260200190815260200160002060010160009054906101000a900473ffffffffffffffffffffffffffffffffffffffff1690508173ffffffffffffffffffffffffffffffffffffffff163373ffffffffffffffffffffffffffffffffffffffff1614806123fd57508073ffffffffffffffffffffffffffffffffffffffff163373ffffffffffffffffffffffffffffffffffffffff16145b612452576040517f08c379a00000000000000000000000000000000000000000000000000000000081526004018080602001828103825260378152602001806136626037913960400191505060405180910390fd5b6000600460008473ffffffffffffffffffffffffffffffffffffffff1673ffffffffffffffffffffffffffffffffffffffff16815260200190815260200160002060000154905060006124ae43836131f390919063ffffffff16565b905080600460008673ffffffffffffffffffffffffffffffffffffffff1673ffffffffffffffffffffffffffffffffffffffff168152602001908152602001600020600001819055508373ffffffffffffffffffffffffffffffffffffffff167f4ae68879209bc4b489a38251122202a3653305e3d95a27baf7a5681410c90b38436040518082815260200191505060405180910390a250505050565b6000600460008373ffffffffffffffffffffffffffffffffffffffff1673ffffffffffffffffffffffffffffffffffffffff16815260200190815260200160002060010160009054906101000a900473ffffffffffffffffffffffffffffffffffffffff1690508173ffffffffffffffffffffffffffffffffffffffff163373ffffffffffffffffffffffffffffffffffffffff16148061261757508073ffffffffffffffffffffffffffffffffffffffff163373ffffffffffffffffffffffffffffffffffffffff16145b61266c576040517f08c379a00000000000000000000000000000000000000000000000000000000081526004018080602001828103825260428152602001806136996042913960600191505060405180910390fd5b6000600460008473ffffffffffffffffffffffffffffffffffffffff1673ffffffffffffffffffffffffffffffffffffffff1681526020019081526020016000206000015490506126d06001546126c2836131dc565b612c6f90919063ffffffff16565b431115612745576040517f08c379a000000000000000000000000000000000000000000000000000000000815260040180806020018281038252601d8152602001807f496e697469616c697a6174696f6e20706572696f64206973206f76657200000081525060200191505060405180910390fd5b600061275082612c55565b9050612766600083612cf790919063ffffffff16565b600460008673ffffffffffffffffffffffffffffffffffffffff1673ffffffffffffffffffffffffffffffffffffffff168152602001908152602001600020600001819055506127f883826000809054906101000a900473ffffffffffffffffffffffffffffffffffffffff1673ffffffffffffffffffffffffffffffffffffffff16612e369092919063ffffffff16565b50505050565b6000600660008373ffffffffffffffffffffffffffffffffffffffff1673ffffffffffffffffffffffffffffffffffffffff16815260200190815260200160002060008473ffffffffffffffffffffffffffffffffffffffff1673ffffffffffffffffffffffffffffffffffffffff16815260200190815260200160002060009054906101000a900460ff16905092915050565b813373ffffffffffffffffffffffffffffffffffffffff16600460008373ffffffffffffffffffffffffffffffffffffffff1673ffffffffffffffffffffffffffffffffffffffff16815260200190815260200160002060030160009054906101000a900473ffffffffffffffffffffffffffffffffffffffff1673ffffffffffffffffffffffffffffffffffffffff1614612996576040517f08c379a00000000000000000000000000000000000000000000000000000000081526004018080602001828103825260178152602001807f4e6f74206f70657261746f7220617574686f72697a657200000000000000000081525060200191505060405180910390fd5b81600560009054906101000a900473ffffffffffffffffffffffffffffffffffffffff1673ffffffffffffffffffffffffffffffffffffffff166384d57689826040518263ffffffff1660e01b8152600401808273ffffffffffffffffffffffffffffffffffffffff1673ffffffffffffffffffffffffffffffffffffffff16815260200191505060206040518083038186803b158015612a3657600080fd5b505afa158015612a4a573d6000803e3d6000fd5b505050506040513d6020811015612a6057600080fd5b8101908080519060200190929190505050612ac6576040517f08c379a00000000000000000000000000000000000000000000000000000000081526004018080602001828103825260218152602001806136fc6021913960400191505060405180910390fd5b6001600660008573ffffffffffffffffffffffffffffffffffffffff1673ffffffffffffffffffffffffffffffffffffffff16815260200190815260200160002060008673ffffffffffffffffffffffffffffffffffffffff1673ffffffffffffffffffffffffffffffffffffffff16815260200190815260200160002060006101000a81548160ff02191690831515021790555050505050565b6000806000612bb1600460008673ffffffffffffffffffffffffffffffffffffffff1673ffffffffffffffffffffffffffffffffffffffff16815260200190815260200160002060000154613218565b9250925092509193909250565b6000600460008373ffffffffffffffffffffffffffffffffffffffff1673ffffffffffffffffffffffffffffffffffffffff16815260200190815260200160002060030160009054906101000a900473ffffffffffffffffffffffffffffffffffffffff169050919050565b6000809054906101000a900473ffffffffffffffffffffffffffffffffffffffff1681565b60025481565b60006001608060020a03604060020283901c169050919050565b600080828401905083811015612ced576040517f08c379a000000000000000000000000000000000000000000000000000000000815260040180806020018281038252601b8152602001807f536166654d6174683a206164646974696f6e206f766572666c6f77000000000081525060200191505060405180910390fd5b8091505092915050565b6000612d1482612d06856131dc565b612d0f86612f07565b6130b3565b905092915050565b6000612d5e83836040518060400160405280601e81526020017f536166654d6174683a207375627472616374696f6e206f766572666c6f770000815250613245565b905092915050565b600080831415612d795760009050612de6565b6000828402905082848281612d8a57fe5b0414612de1576040517f08c379a00000000000000000000000000000000000000000000000000000000081526004018080602001828103825260218152602001806137dc6021913960400191505060405180910390fd5b809150505b92915050565b6000612e2e83836040518060400160405280601a81526020017f536166654d6174683a206469766973696f6e206279207a65726f000000000000815250613305565b905092915050565b612f02838473ffffffffffffffffffffffffffffffffffffffff1663a9059cbb905060e01b8484604051602401808373ffffffffffffffffffffffffffffffffffffffff1673ffffffffffffffffffffffffffffffffffffffff16815260200182815260200192505050604051602081830303815290604052907bffffffffffffffffffffffffffffffffffffffffffffffffffffffff19166020820180517bffffffffffffffffffffffffffffffffffffffffffffffffffffffff83818316178352505050506133cb565b505050565b60006001604060020a0382169050919050565b6000806014830190508281118015612f33575080845110155b612f88576040517f08c379a00000000000000000000000000000000000000000000000000000000081526004018080602001828103825260218152602001806136db6021913960400191505060405180910390fd5b60006c0100000000000000000000000084602087010151049050809250505092915050565b6130ad848573ffffffffffffffffffffffffffffffffffffffff166323b872dd905060e01b858585604051602401808473ffffffffffffffffffffffffffffffffffffffff1673ffffffffffffffffffffffffffffffffffffffff1681526020018373ffffffffffffffffffffffffffffffffffffffff1673ffffffffffffffffffffffffffffffffffffffff1681526020018281526020019350505050604051602081830303815290604052907bffffffffffffffffffffffffffffffffffffffffffffffffffffffff19166020820180517bffffffffffffffffffffffffffffffffffffffffffffffffffffffff83818316178352505050506133cb565b50505050565b60006001608060020a03841115613132576040517f08c379a00000000000000000000000000000000000000000000000000000000081526004018080602001828103825260178152602001807f616d6f756e742075696e74313238206f766572666c6f7700000000000000000081525060200191505060405180910390fd5b6001604060020a0382841711156131b1576040517f08c379a000000000000000000000000000000000000000000000000000000000815260040180806020018281038252601b8152602001807f626c6f636b6865696768742075696e743634206f766572666c6f77000000000081525060200191505060405180910390fd5b6000604060020285901b90506000604085901b90506000849050808284171793505050509392505050565b60006001604060020a03604083901c169050919050565b600061321061320184612c55565b61320a856131dc565b846130b3565b905092915050565b600080600061322684612c55565b9250613231846131dc565b915061323c84612f07565b90509193909250565b60008383111582906132f2576040517f08c379a00000000000000000000000000000000000000000000000000000000081526004018080602001828103825283818151815260200191508051906020019080838360005b838110156132b757808201518184015260208101905061329c565b50505050905090810190601f1680156132e45780820380516001836020036101000a031916815260200191505b509250505060405180910390fd5b5060008385039050809150509392505050565b600080831182906133b1576040517f08c379a00000000000000000000000000000000000000000000000000000000081526004018080602001828103825283818151815260200191508051906020019080838360005b8381101561337657808201518184015260208101905061335b565b50505050905090810190601f1680156133a35780820380516001836020036101000a031916815260200191505b509250505060405180910390fd5b5060008385816133bd57fe5b049050809150509392505050565b6133ea8273ffffffffffffffffffffffffffffffffffffffff16613616565b61345c576040517f08c379a000000000000000000000000000000000000000000000000000000000815260040180806020018281038252601f8152602001807f5361666545524332303a2063616c6c20746f206e6f6e2d636f6e74726163740081525060200191505060405180910390fd5b600060608373ffffffffffffffffffffffffffffffffffffffff16836040518082805190602001908083835b602083106134ab5780518252602082019150602081019050602083039250613488565b6001836020036101000a0380198251168184511680821785525050505050509050019150506000604051808303816000865af19150503d806000811461350d576040519150601f19603f3d011682016040523d82523d6000602084013e613512565b606091505b50915091508161358a576040517f08c379a00000000000000000000000000000000000000000000000000000000081526004018080602001828103825260208152602001807f5361666545524332303a206c6f772d6c6576656c2063616c6c206661696c656481525060200191505060405180910390fd5b600081511115613610578080602001905160208110156135a957600080fd5b810190808051906020019092919050505061360f576040517f08c379a000000000000000000000000000000000000000000000000000000000815260040180806020018281038252602a8152602001806137fd602a913960400191505060405180910390fd5b5b50505050565b60008060007fc5d2460186f7233c927e7db2dcc703c0e500b653ca82273b7bfad8045d85a47060001b9050833f91506000801b82141580156136585750808214155b9250505091905056fe4f6e6c79206f70657261746f72206f7220746865206f776e6572206f6620746865207374616b652063616e20756e64656c65676174652e4f6e6c79206f70657261746f72206f7220746865206f776e6572206f6620746865207374616b652063616e2063616e63656c207468652064656c65676174696f6e2e4164647265737320636f6e76657273696f6e206f7574206f6620626f756e64732e4f70657261746f7220636f6e7472616374206973206e6f7420617070726f76656443616e206e6f74207265636f766572207374616b65206265666f726520756e64656c65676174696f6e20706572696f64206973206f7665722e5374616b652064656c65676174696f6e2064617461206d7573742062652070726f76696465642e546f6b656e20636f6e7472616374206d757374206265207468652073616d65206f6e65206c696e6b656420746f207468697320636f6e74726163742e4f70657261746f72206164647265737320697320616c726561647920696e207573652e536166654d6174683a206d756c7469706c69636174696f6e206f766572666c6f775361666545524332303a204552433230206f7065726174696f6e20646964206e6f742073756363656564a265627a7a7231582032668d7956113e27d76bbee9c993604316cde8575f8518fbb7a57950a5aa8d9c64736f6c634300050e0032",
  "source": "pragma solidity ^0.5.4;\n\nimport \"./StakeDelegatable.sol\";\nimport \"./utils/UintArrayUtils.sol\";\nimport \"./Registry.sol\";\nimport \"openzeppelin-solidity/contracts/token/ERC20/SafeERC20.sol\";\n\n\n/**\n * @title TokenStaking\n * @dev A token staking contract for a specified standard ERC20Burnable token.\n * A holder of the specified token can stake delegate its tokens to this contract\n * and recover the stake after undelegation period is over.\n */\ncontract TokenStaking is StakeDelegatable {\n\n    using UintArrayUtils for uint256[];\n    using SafeERC20 for ERC20Burnable;\n\n    event Staked(address indexed from, uint256 value);\n    event Undelegated(address indexed operator, uint256 undelegatedAt);\n    event RecoveredStake(address operator, uint256 recoveredAt);\n\n    // Registry contract with a list of approved operator contracts and upgraders.\n    Registry public registry;\n\n    // Authorized operator contracts.\n    mapping(address => mapping (address => bool)) internal authorizations;\n\n    modifier onlyApprovedOperatorContract(address operatorContract) {\n        require(\n            registry.isApprovedOperatorContract(operatorContract),\n            \"Operator contract is not approved\"\n        );\n        _;\n    }\n\n    /**\n     * @dev Creates a token staking contract for a provided Standard ERC20Burnable token.\n     * @param _tokenAddress Address of a token that will be linked to this contract.\n     * @param _registry Address of a keep registry that will be linked to this contract.\n     * @param _initializationPeriod To avoid certain attacks on work selection, recently created\n     * operators must wait for a specific period of time before being eligible for work selection.\n     * @param _undelegationPeriod The staking contract guarantees that an undelegated operators\n     * stakes will stay locked for a number of blocks after undelegation, and thus available as\n     * collateral for any work the operator is engaged in.\n     */\n    constructor(\n        address _tokenAddress,\n        address _registry,\n        uint256 _initializationPeriod,\n        uint256 _undelegationPeriod\n    ) public {\n        require(_tokenAddress != address(0x0), \"Token address can't be zero.\");\n        token = ERC20Burnable(_tokenAddress);\n        registry = Registry(_registry);\n        initializationPeriod = _initializationPeriod;\n        undelegationPeriod = _undelegationPeriod;\n    }\n\n    /**\n     * @notice Receives approval of token transfer and stakes the approved amount.\n     * @dev Makes sure provided token contract is the same one linked to this contract.\n     * @param _from The owner of the tokens who approved them to transfer.\n     * @param _value Approved amount for the transfer and stake.\n     * @param _token Token contract address.\n     * @param _extraData Data for stake delegation. This byte array must have the\n     * following values concatenated: Magpie address (20 bytes) where the rewards for participation\n     * are sent, operator's (20 bytes) address, authorizer (20 bytes) address.\n     */\n    function receiveApproval(address _from, uint256 _value, address _token, bytes memory _extraData) public {\n        require(ERC20Burnable(_token) == token, \"Token contract must be the same one linked to this contract.\");\n        require(_value <= token.balanceOf(_from), \"Sender must have enough tokens.\");\n        require(_extraData.length == 60, \"Stake delegation data must be provided.\");\n\n        address payable magpie = address(uint160(_extraData.toAddress(0)));\n        address operator = _extraData.toAddress(20);\n        require(operators[operator].owner == address(0), \"Operator address is already in use.\");\n        address authorizer = _extraData.toAddress(40);\n\n        // Transfer tokens to this contract.\n        token.safeTransferFrom(_from, address(this), _value);\n\n        operators[operator] = Operator(\n            OperatorParams.pack(_value, block.number, 0),\n            _from,\n            magpie,\n            authorizer\n        );\n        ownerOperators[_from].push(operator);\n\n        emit Staked(operator, _value);\n    }\n\n    /**\n     * @notice Cancels stake of tokens within the operator initialization period\n     * without being subjected to the token lockup for the undelegation period.\n     * This can be used to undo mistaken delegation to the wrong operator address.\n     * @param _operator Address of the stake operator.\n     */\n    function cancelStake(address _operator) public {\n        address owner = operators[_operator].owner;\n        require(\n            msg.sender == _operator ||\n            msg.sender == owner, \"Only operator or the owner of the stake can cancel the delegation.\"\n        );\n        uint256 operatorParams = operators[_operator].packedParams;\n\n        require(\n            block.number <= operatorParams.getCreationBlock().add(initializationPeriod),\n            \"Initialization period is over\"\n        );\n\n        uint256 amount = operatorParams.getAmount();\n        operators[_operator].packedParams = operatorParams.setAmount(0);\n\n        token.safeTransfer(owner, amount);\n    }\n\n    /**\n     * @notice Undelegates staked tokens. You will be able to recover your stake by calling\n     * `recoverStake()` with operator address once undelegation period is over.\n     * @param _operator Address of the stake operator.\n     */\n    function undelegate(address _operator) public {\n        address owner = operators[_operator].owner;\n        require(\n            msg.sender == _operator ||\n            msg.sender == owner, \"Only operator or the owner of the stake can undelegate.\"\n        );\n        uint256 oldParams = operators[_operator].packedParams;\n        uint256 newParams = oldParams.setUndelegationBlock(block.number);\n        operators[_operator].packedParams = newParams;\n        emit Undelegated(_operator, block.number);\n    }\n\n    /**\n     * @notice Recovers staked tokens and transfers them back to the owner. Recovering\n     * tokens can only be performed when the operator is finished undelegating.\n     * @param _operator Operator address.\n     */\n    function recoverStake(address _operator) public {\n        uint256 operatorParams = operators[_operator].packedParams;\n        require(\n            block.number > operatorParams.getUndelegationBlock().add(undelegationPeriod),\n            \"Can not recover stake before undelegation period is over.\"\n        );\n        address owner = operators[_operator].owner;\n        uint256 amount = operatorParams.getAmount();\n\n        operators[_operator].packedParams = operatorParams.setAmount(0);\n\n        token.safeTransfer(owner, amount);\n        emit RecoveredStake(_operator, block.number);\n    }\n\n    /**\n     * @dev Gets stake delegation info for the given operator.\n     * @param _operator Operator address.\n     * @return amount The amount of tokens the given operator delegated.\n     * @return createdAt The time when the stake has been delegated.\n     * @return undelegatedAt The time when undelegation has been requested.\n     * If undelegation has not been requested, 0 is returned.\n     */\n    function getDelegationInfo(address _operator)\n    public view returns (uint256 amount, uint256 createdAt, uint256 undelegatedAt) {\n        return operators[_operator].packedParams.unpack();\n    }\n\n    /**\n     * @dev Slash provided token amount from every member in the misbehaved\n     * operators array and burn 100% of all the tokens.\n     * @param amountToSlash Token amount to slash from every misbehaved operator.\n     * @param misbehavedOperators Array of addresses to seize the tokens from.\n     */\n    function slash(uint256 amountToSlash, address[] memory misbehavedOperators)\n        public\n        onlyApprovedOperatorContract(msg.sender) {\n\n        uint256 totalAmountToBurn = 0;\n        for (uint i = 0; i < misbehavedOperators.length; i++) {\n            address operator = misbehavedOperators[i];\n            require(authorizations[msg.sender][operator], \"Not authorized\");\n\n            uint256 operatorParams = operators[operator].packedParams;\n            uint256 currentAmount = operatorParams.getAmount();\n\n            if (currentAmount < amountToSlash) {\n                totalAmountToBurn = totalAmountToBurn.add(currentAmount);\n\n                uint256 newAmount = 0;\n                operators[operator].packedParams = operatorParams.setAmount(newAmount);\n            } else {\n                totalAmountToBurn = totalAmountToBurn.add(amountToSlash);\n\n                uint256 newAmount = currentAmount.sub(amountToSlash);\n                operators[operator].packedParams = operatorParams.setAmount(newAmount);\n            }\n        }\n\n        token.burn(totalAmountToBurn);\n    }\n\n    /**\n     * @dev Seize provided token amount from every member in the misbehaved\n     * operators array. The tattletale is rewarded with 5% of the total seized\n     * amount scaled by the reward adjustment parameter and the rest 95% is burned.\n     * @param amountToSeize Token amount to seize from every misbehaved operator.\n     * @param rewardMultiplier Reward adjustment in percentage. Min 1% and 100% max.\n     * @param tattletale Address to receive the 5% reward.\n     * @param misbehavedOperators Array of addresses to seize the tokens from.\n     */\n    function seize(\n        uint256 amountToSeize,\n        uint256 rewardMultiplier,\n        address tattletale,\n        address[] memory misbehavedOperators\n    ) public onlyApprovedOperatorContract(msg.sender) {\n        uint256 totalAmountToBurn = 0;\n        for (uint i = 0; i < misbehavedOperators.length; i++) {\n            address operator = misbehavedOperators[i];\n            require(authorizations[msg.sender][operator], \"Not authorized\");\n\n            uint256 operatorParams = operators[operator].packedParams;\n            uint256 currentAmount = operatorParams.getAmount();\n\n            if (currentAmount < amountToSeize) {\n                totalAmountToBurn = totalAmountToBurn.add(currentAmount);\n\n                uint256 newAmount = 0;\n                operators[operator].packedParams = operatorParams.setAmount(newAmount);\n            } else {\n                totalAmountToBurn = totalAmountToBurn.add(amountToSeize);\n\n                uint256 newAmount = currentAmount.sub(amountToSeize);\n                operators[operator].packedParams = operatorParams.setAmount(newAmount);\n            }\n        }\n\n        uint256 tattletaleReward = (totalAmountToBurn.mul(5).div(100)).mul(rewardMultiplier).div(100);\n\n        token.safeTransfer(tattletale, tattletaleReward);\n        token.burn(totalAmountToBurn.sub(tattletaleReward));\n    }\n\n    /**\n     * @dev Authorizes operator contract to access staked token balance of\n     * the provided operator. Can only be executed by stake operator authorizer.\n     * @param _operator address of stake operator.\n     * @param _operatorContract address of operator contract.\n     */\n    function authorizeOperatorContract(address _operator, address _operatorContract)\n        public\n        onlyOperatorAuthorizer(_operator)\n        onlyApprovedOperatorContract(_operatorContract) {\n        authorizations[_operatorContract][_operator] = true;\n    }\n\n    /**\n     * @dev Checks if operator contract has access to the staked token balance of\n     * the provided operator.\n     * @param _operator address of stake operator.\n     * @param _operatorContract address of operator contract.\n     */\n    function isAuthorizedForOperator(address _operator, address _operatorContract) public view returns (bool) {\n        return authorizations[_operatorContract][_operator];\n    }\n\n    /**\n     * @dev Gets the eligible stake balance of the specified address.\n     * An eligible stake is a stake that passed the initialization period\n     * and is not currently undelegating. Also, the operator had to approve\n     * the specified operator contract.\n     *\n     * Operator with a minimum required amount of eligible stake can join the\n     * network and participate in new work selection.\n     *\n     * @param _operator address of stake operator.\n     * @param _operatorContract address of operator contract.\n     * @return an uint256 representing the eligible stake balance.\n     */\n    function eligibleStake(\n        address _operator,\n        address _operatorContract\n    ) public view returns (uint256 balance) {\n        bool isAuthorized = authorizations[_operatorContract][_operator];\n\n        uint256 operatorParams = operators[_operator].packedParams;\n        uint256 createdAt = operatorParams.getCreationBlock();\n        uint256 undelegatedAt = operatorParams.getUndelegationBlock();\n\n        bool isActive = block.number > createdAt.add(initializationPeriod);\n        bool isUndelegating = (undelegatedAt > 0) && (block.number > undelegatedAt);\n\n        if (isAuthorized && isActive && !isUndelegating) {\n            balance = operatorParams.getAmount();\n        }\n    }\n\n    /**\n     * @dev Gets the active stake balance of the specified address.\n     * An active stake is a stake that passed the initialization period.\n     * Also, the operator had to approve the specified operator contract.\n     *\n     * The difference between eligible stake is that active stake does not make\n     * the operator eligible for work selection but it may be still finishing\n     * earlier work during undelegation period. Operator with a minimum required\n     * amount of active stake can join the network but cannot be selected to any\n     * new work.\n     *\n     * @param _operator address of stake operator.\n     * @param _operatorContract address of operator contract.\n     * @return an uint256 representing the eligible stake balance.\n     */\n    function activeStake(\n        address _operator,\n        address _operatorContract\n    ) public view returns (uint256 balance) {\n        bool isAuthorized = authorizations[_operatorContract][_operator];\n\n        uint256 operatorParams = operators[_operator].packedParams;\n        uint256 createdAt = operatorParams.getCreationBlock();\n\n        bool isActive = block.number > createdAt.add(initializationPeriod);\n\n        if (isAuthorized && isActive) {\n            balance = operatorParams.getAmount();\n        }\n    }\n}\n",
  "sourcePath": "/tmp/6e99790d8987a371cdcdc4b4434e1af81e866f0b/solidity/contracts/TokenStaking.sol",
  "compiler": {
    "name": "solc",
    "version": "0.5.14+commit.01f1aaa4.Emscripten.clang"
  },
  "schemaVersion": "3.0.23",
  "updatedAt": "2020-03-13T16:38:02.708Z",
  "networkType": "ethereum",
  "devdoc": {
    "details": "A token staking contract for a specified standard ERC20Burnable token. A holder of the specified token can stake delegate its tokens to this contract and recover the stake after undelegation period is over.",
    "methods": {
      "activeStake(address,address)": {
        "details": "Gets the active stake balance of the specified address. An active stake is a stake that passed the initialization period. Also, the operator had to approve the specified operator contract.     * The difference between eligible stake is that active stake does not make the operator eligible for work selection but it may be still finishing earlier work during undelegation period. Operator with a minimum required amount of active stake can join the network but cannot be selected to any new work.",
        "params": {
          "_operator": "address of stake operator.",
          "_operatorContract": "address of operator contract."
        },
        "return": "an uint256 representing the eligible stake balance."
      },
      "authorizeOperatorContract(address,address)": {
        "details": "Authorizes operator contract to access staked token balance of the provided operator. Can only be executed by stake operator authorizer.",
        "params": {
          "_operator": "address of stake operator.",
          "_operatorContract": "address of operator contract."
        }
      },
      "authorizerOf(address)": {
        "details": "Gets the authorizer for the specified operator address.",
        "return": "Authorizer address."
      },
      "balanceOf(address)": {
        "details": "Gets the stake balance of the specified address.",
        "params": {
          "_address": "The address to query the balance of."
        },
        "return": "An uint256 representing the amount staked by the passed address."
      },
      "cancelStake(address)": {
        "params": {
          "_operator": "Address of the stake operator."
        }
      },
      "constructor": {
        "details": "Creates a token staking contract for a provided Standard ERC20Burnable token.",
        "params": {
          "_initializationPeriod": "To avoid certain attacks on work selection, recently created operators must wait for a specific period of time before being eligible for work selection.",
          "_registry": "Address of a keep registry that will be linked to this contract.",
          "_tokenAddress": "Address of a token that will be linked to this contract.",
          "_undelegationPeriod": "The staking contract guarantees that an undelegated operators stakes will stay locked for a number of blocks after undelegation, and thus available as collateral for any work the operator is engaged in."
        }
      },
      "eligibleStake(address,address)": {
        "details": "Gets the eligible stake balance of the specified address. An eligible stake is a stake that passed the initialization period and is not currently undelegating. Also, the operator had to approve the specified operator contract.     * Operator with a minimum required amount of eligible stake can join the network and participate in new work selection.",
        "params": {
          "_operator": "address of stake operator.",
          "_operatorContract": "address of operator contract."
        },
        "return": "an uint256 representing the eligible stake balance."
      },
      "getDelegationInfo(address)": {
        "details": "Gets stake delegation info for the given operator.",
        "params": {
          "_operator": "Operator address."
        },
        "return": "amount The amount of tokens the given operator delegated.createdAt The time when the stake has been delegated.undelegatedAt The time when undelegation has been requested. If undelegation has not been requested, 0 is returned."
      },
      "isAuthorizedForOperator(address,address)": {
        "details": "Checks if operator contract has access to the staked token balance of the provided operator.",
        "params": {
          "_operator": "address of stake operator.",
          "_operatorContract": "address of operator contract."
        }
      },
      "magpieOf(address)": {
        "details": "Gets the magpie for the specified operator address.",
        "return": "Magpie address."
      },
      "operatorsOf(address)": {
        "details": "Gets the list of operators of the specified address.",
        "return": "An array of addresses."
      },
      "ownerOf(address)": {
        "details": "Gets the stake owner for the specified operator address.",
        "return": "Stake owner address."
      },
      "receiveApproval(address,uint256,address,bytes)": {
        "details": "Makes sure provided token contract is the same one linked to this contract.",
        "params": {
          "_extraData": "Data for stake delegation. This byte array must have the following values concatenated: Magpie address (20 bytes) where the rewards for participation are sent, operator's (20 bytes) address, authorizer (20 bytes) address.",
          "_from": "The owner of the tokens who approved them to transfer.",
          "_token": "Token contract address.",
          "_value": "Approved amount for the transfer and stake."
        }
      },
      "recoverStake(address)": {
        "params": {
          "_operator": "Operator address."
        }
      },
      "seize(uint256,uint256,address,address[])": {
        "details": "Seize provided token amount from every member in the misbehaved operators array. The tattletale is rewarded with 5% of the total seized amount scaled by the reward adjustment parameter and the rest 95% is burned.",
        "params": {
          "amountToSeize": "Token amount to seize from every misbehaved operator.",
          "misbehavedOperators": "Array of addresses to seize the tokens from.",
          "rewardMultiplier": "Reward adjustment in percentage. Min 1% and 100% max.",
          "tattletale": "Address to receive the 5% reward."
        }
      },
      "slash(uint256,address[])": {
        "details": "Slash provided token amount from every member in the misbehaved operators array and burn 100% of all the tokens.",
        "params": {
          "amountToSlash": "Token amount to slash from every misbehaved operator.",
          "misbehavedOperators": "Array of addresses to seize the tokens from."
        }
      },
      "undelegate(address)": {
        "params": {
          "_operator": "Address of the stake operator."
        }
      }
    },
    "title": "TokenStaking"
  },
  "userdoc": {
    "methods": {
      "cancelStake(address)": {
        "notice": "Cancels stake of tokens within the operator initialization period without being subjected to the token lockup for the undelegation period. This can be used to undo mistaken delegation to the wrong operator address."
      },
      "receiveApproval(address,uint256,address,bytes)": {
        "notice": "Receives approval of token transfer and stakes the approved amount."
      },
      "recoverStake(address)": {
        "notice": "Recovers staked tokens and transfers them back to the owner. Recovering tokens can only be performed when the operator is finished undelegating."
      },
      "undelegate(address)": {
        "notice": "Undelegates staked tokens. You will be able to recover your stake by calling `recoverStake()` with operator address once undelegation period is over."
      }
    }
  }
}