{
  "contractName": "BeaconRewards",
  "abi": [
    {
      "inputs": [
        {
          "internalType": "address",
          "name": "_token",
          "type": "address"
        },
        {
          "internalType": "address",
          "name": "_operatorContract",
          "type": "address"
        },
        {
          "internalType": "address",
          "name": "_stakingContract",
          "type": "address"
        }
      ],
      "payable": false,
      "stateMutability": "nonpayable",
      "type": "constructor"
    },
    {
      "anonymous": false,
      "inputs": [
        {
          "indexed": true,
          "internalType": "address",
          "name": "previousOwner",
          "type": "address"
        },
        {
          "indexed": true,
          "internalType": "address",
          "name": "newOwner",
          "type": "address"
        }
      ],
      "name": "OwnershipTransferred",
      "type": "event"
    },
    {
      "anonymous": false,
      "inputs": [
        {
          "indexed": false,
          "internalType": "bytes32",
          "name": "keep",
          "type": "bytes32"
        },
        {
          "indexed": false,
          "internalType": "uint256",
          "name": "amount",
          "type": "uint256"
        }
      ],
      "name": "RewardReceived",
      "type": "event"
    },
    {
      "anonymous": false,
      "inputs": [
        {
          "indexed": false,
          "internalType": "uint256",
          "name": "amountTransferred",
          "type": "uint256"
        }
      ],
      "name": "UpgradeFinalized",
      "type": "event"
    },
    {
      "anonymous": false,
      "inputs": [
        {
          "indexed": false,
          "internalType": "address",
          "name": "newRewardsContract",
          "type": "address"
        }
      ],
      "name": "UpgradeInitiated",
      "type": "event"
    },
    {
      "constant": false,
      "inputs": [
        {
          "internalType": "uint256",
          "name": "interval",
          "type": "uint256"
        }
      ],
      "name": "allocateRewards",
      "outputs": [],
      "payable": false,
      "stateMutability": "nonpayable",
      "type": "function"
    },
    {
      "constant": true,
      "inputs": [],
      "name": "dispensedRewards",
      "outputs": [
        {
          "internalType": "uint256",
          "name": "",
          "type": "uint256"
        }
      ],
      "payable": false,
      "stateMutability": "view",
      "type": "function"
    },
    {
      "constant": true,
      "inputs": [
        {
          "internalType": "bytes32",
          "name": "_keep",
          "type": "bytes32"
        }
      ],
      "name": "eligibleButTerminated",
      "outputs": [
        {
          "internalType": "bool",
          "name": "",
          "type": "bool"
        }
      ],
      "payable": false,
      "stateMutability": "view",
      "type": "function"
    },
    {
      "constant": true,
      "inputs": [
        {
          "internalType": "uint256",
          "name": "interval",
          "type": "uint256"
        }
      ],
      "name": "endOf",
      "outputs": [
        {
          "internalType": "uint256",
          "name": "",
          "type": "uint256"
        }
      ],
      "payable": false,
      "stateMutability": "view",
      "type": "function"
    },
    {
      "constant": false,
      "inputs": [],
      "name": "finalizeRewardsUpgrade",
      "outputs": [],
      "payable": false,
      "stateMutability": "nonpayable",
      "type": "function"
    },
    {
      "constant": true,
      "inputs": [],
      "name": "firstIntervalStart",
      "outputs": [
        {
          "internalType": "uint256",
          "name": "",
          "type": "uint256"
        }
      ],
      "payable": false,
      "stateMutability": "view",
      "type": "function"
    },
    {
      "constant": true,
      "inputs": [],
      "name": "funded",
      "outputs": [
        {
          "internalType": "bool",
          "name": "",
          "type": "bool"
        }
      ],
      "payable": false,
      "stateMutability": "view",
      "type": "function"
    },
    {
      "constant": true,
      "inputs": [
        {
          "internalType": "uint256",
          "name": "interval",
          "type": "uint256"
        }
      ],
      "name": "getAllocatedRewards",
      "outputs": [
        {
          "internalType": "uint256",
          "name": "",
          "type": "uint256"
        }
      ],
      "payable": false,
      "stateMutability": "view",
      "type": "function"
    },
    {
      "constant": true,
      "inputs": [],
      "name": "getIntervalCount",
      "outputs": [
        {
          "internalType": "uint256",
          "name": "",
          "type": "uint256"
        }
      ],
      "payable": false,
      "stateMutability": "view",
      "type": "function"
    },
    {
      "constant": true,
      "inputs": [
        {
          "internalType": "uint256",
          "name": "interval",
          "type": "uint256"
        }
      ],
      "name": "getIntervalWeight",
      "outputs": [
        {
          "internalType": "uint256",
          "name": "",
          "type": "uint256"
        }
      ],
      "payable": false,
      "stateMutability": "view",
      "type": "function"
    },
    {
      "constant": false,
      "inputs": [
        {
          "internalType": "address",
          "name": "_newRewardsContract",
          "type": "address"
        }
      ],
      "name": "initiateRewardsUpgrade",
      "outputs": [],
      "payable": false,
      "stateMutability": "nonpayable",
      "type": "function"
    },
    {
      "constant": true,
      "inputs": [
        {
          "internalType": "uint256",
          "name": "",
          "type": "uint256"
        }
      ],
      "name": "intervalKeepsProcessed",
      "outputs": [
        {
          "internalType": "uint256",
          "name": "",
          "type": "uint256"
        }
      ],
      "payable": false,
      "stateMutability": "view",
      "type": "function"
    },
    {
      "constant": true,
      "inputs": [
        {
          "internalType": "uint256",
          "name": "timestamp",
          "type": "uint256"
        }
      ],
      "name": "intervalOf",
      "outputs": [
        {
          "internalType": "uint256",
          "name": "",
          "type": "uint256"
        }
      ],
      "payable": false,
      "stateMutability": "view",
      "type": "function"
    },
    {
      "constant": true,
      "inputs": [
        {
          "internalType": "uint256",
          "name": "",
          "type": "uint256"
        }
      ],
      "name": "intervalWeights",
      "outputs": [
        {
          "internalType": "uint256",
          "name": "",
          "type": "uint256"
        }
      ],
      "payable": false,
      "stateMutability": "view",
      "type": "function"
    },
    {
      "constant": true,
      "inputs": [
        {
          "internalType": "uint256",
          "name": "interval",
          "type": "uint256"
        }
      ],
      "name": "isAllocated",
      "outputs": [
        {
          "internalType": "bool",
          "name": "",
          "type": "bool"
        }
      ],
      "payable": false,
      "stateMutability": "view",
      "type": "function"
    },
    {
      "constant": true,
      "inputs": [
        {
          "internalType": "uint256",
          "name": "interval",
          "type": "uint256"
        }
      ],
      "name": "isFinished",
      "outputs": [
        {
          "internalType": "bool",
          "name": "",
          "type": "bool"
        }
      ],
      "payable": false,
      "stateMutability": "view",
      "type": "function"
    },
    {
      "constant": true,
      "inputs": [],
      "name": "isOwner",
      "outputs": [
        {
          "internalType": "bool",
          "name": "",
          "type": "bool"
        }
      ],
      "payable": false,
      "stateMutability": "view",
      "type": "function"
    },
    {
      "constant": false,
      "inputs": [
        {
          "internalType": "uint256",
          "name": "interval",
          "type": "uint256"
        }
      ],
      "name": "keepsInInterval",
      "outputs": [
        {
          "internalType": "uint256",
          "name": "",
          "type": "uint256"
        }
      ],
      "payable": false,
      "stateMutability": "nonpayable",
      "type": "function"
    },
    {
      "constant": false,
      "inputs": [],
      "name": "markAsFunded",
      "outputs": [],
      "payable": false,
      "stateMutability": "nonpayable",
      "type": "function"
    },
    {
      "constant": true,
      "inputs": [],
      "name": "minimumKeepsPerInterval",
      "outputs": [
        {
          "internalType": "uint256",
          "name": "",
          "type": "uint256"
        }
      ],
      "payable": false,
      "stateMutability": "view",
      "type": "function"
    },
    {
      "constant": true,
      "inputs": [],
      "name": "newRewardsContract",
      "outputs": [
        {
          "internalType": "address",
          "name": "",
          "type": "address"
        }
      ],
      "payable": false,
      "stateMutability": "view",
      "type": "function"
    },
    {
      "constant": true,
      "inputs": [],
      "name": "owner",
      "outputs": [
        {
          "internalType": "address",
          "name": "",
          "type": "address"
        }
      ],
      "payable": false,
      "stateMutability": "view",
      "type": "function"
    },
    {
      "constant": false,
      "inputs": [
        {
          "internalType": "address",
          "name": "_from",
          "type": "address"
        },
        {
          "internalType": "uint256",
          "name": "_value",
          "type": "uint256"
        },
        {
          "internalType": "address",
          "name": "_token",
          "type": "address"
        },
        {
          "internalType": "bytes",
          "name": "",
          "type": "bytes"
        }
      ],
      "name": "receiveApproval",
      "outputs": [],
      "payable": false,
      "stateMutability": "nonpayable",
      "type": "function"
    },
    {
      "constant": false,
      "inputs": [],
      "name": "renounceOwnership",
      "outputs": [],
      "payable": false,
      "stateMutability": "nonpayable",
      "type": "function"
    },
    {
      "constant": true,
      "inputs": [
        {
          "internalType": "bytes32",
          "name": "_keep",
          "type": "bytes32"
        }
      ],
      "name": "rewardClaimed",
      "outputs": [
        {
          "internalType": "bool",
          "name": "",
          "type": "bool"
        }
      ],
      "payable": false,
      "stateMutability": "view",
      "type": "function"
    },
    {
      "constant": true,
      "inputs": [
        {
          "internalType": "uint256",
          "name": "interval",
          "type": "uint256"
        }
      ],
      "name": "startOf",
      "outputs": [
        {
          "internalType": "uint256",
          "name": "",
          "type": "uint256"
        }
      ],
      "payable": false,
      "stateMutability": "view",
      "type": "function"
    },
    {
      "constant": true,
      "inputs": [],
      "name": "termLength",
      "outputs": [
        {
          "internalType": "uint256",
          "name": "",
          "type": "uint256"
        }
      ],
      "payable": false,
      "stateMutability": "view",
      "type": "function"
    },
    {
      "constant": true,
      "inputs": [],
      "name": "token",
      "outputs": [
        {
          "internalType": "contract KeepToken",
          "name": "",
          "type": "address"
        }
      ],
      "payable": false,
      "stateMutability": "view",
      "type": "function"
    },
    {
      "constant": true,
      "inputs": [],
      "name": "totalRewards",
      "outputs": [
        {
          "internalType": "uint256",
          "name": "",
          "type": "uint256"
        }
      ],
      "payable": false,
      "stateMutability": "view",
      "type": "function"
    },
    {
      "constant": false,
      "inputs": [
        {
          "internalType": "address",
          "name": "newOwner",
          "type": "address"
        }
      ],
      "name": "transferOwnership",
      "outputs": [],
      "payable": false,
      "stateMutability": "nonpayable",
      "type": "function"
    },
    {
      "constant": true,
      "inputs": [],
      "name": "unallocatedRewards",
      "outputs": [
        {
          "internalType": "uint256",
          "name": "",
          "type": "uint256"
        }
      ],
      "payable": false,
      "stateMutability": "view",
      "type": "function"
    },
    {
      "constant": true,
      "inputs": [],
      "name": "upgradeFinalizedTimestamp",
      "outputs": [
        {
          "internalType": "uint256",
          "name": "",
          "type": "uint256"
        }
      ],
      "payable": false,
      "stateMutability": "view",
      "type": "function"
    },
    {
      "constant": true,
      "inputs": [],
      "name": "upgradeInitiatedTimestamp",
      "outputs": [
        {
          "internalType": "uint256",
          "name": "",
          "type": "uint256"
        }
      ],
      "payable": false,
      "stateMutability": "view",
      "type": "function"
    },
    {
      "constant": false,
      "inputs": [
        {
          "internalType": "bytes32",
          "name": "keepIdentifier",
          "type": "bytes32"
        }
      ],
      "name": "receiveReward",
      "outputs": [],
      "payable": false,
      "stateMutability": "nonpayable",
      "type": "function"
    },
    {
      "constant": false,
      "inputs": [
        {
          "internalType": "uint256",
          "name": "groupIndex",
          "type": "uint256"
        }
      ],
      "name": "receiveReward",
      "outputs": [],
      "payable": false,
      "stateMutability": "nonpayable",
      "type": "function"
    },
    {
      "constant": false,
      "inputs": [
        {
          "internalType": "bytes32[]",
          "name": "keepIdentifiers",
          "type": "bytes32[]"
        }
      ],
      "name": "receiveRewards",
      "outputs": [],
      "payable": false,
      "stateMutability": "nonpayable",
      "type": "function"
    },
    {
      "constant": false,
      "inputs": [
        {
          "internalType": "uint256[]",
          "name": "groupIndices",
          "type": "uint256[]"
        }
      ],
      "name": "receiveRewards",
      "outputs": [],
      "payable": false,
      "stateMutability": "nonpayable",
      "type": "function"
    },
    {
      "constant": true,
      "inputs": [
        {
          "internalType": "bytes32",
          "name": "_keep",
          "type": "bytes32"
        }
      ],
      "name": "eligibleForReward",
      "outputs": [
        {
          "internalType": "bool",
          "name": "",
          "type": "bool"
        }
      ],
      "payable": false,
      "stateMutability": "view",
      "type": "function"
    },
    {
      "constant": true,
      "inputs": [
        {
          "internalType": "uint256",
          "name": "groupIndex",
          "type": "uint256"
        }
      ],
      "name": "eligibleForReward",
      "outputs": [
        {
          "internalType": "bool",
          "name": "",
          "type": "bool"
        }
      ],
      "payable": false,
      "stateMutability": "view",
      "type": "function"
    },
    {
      "constant": false,
      "inputs": [
        {
          "internalType": "bytes32",
          "name": "keepIdentifier",
          "type": "bytes32"
        }
      ],
      "name": "reportTermination",
      "outputs": [],
      "payable": false,
      "stateMutability": "nonpayable",
      "type": "function"
    },
    {
      "constant": false,
      "inputs": [
        {
          "internalType": "uint256",
          "name": "groupIndex",
          "type": "uint256"
        }
      ],
      "name": "reportTermination",
      "outputs": [],
      "payable": false,
      "stateMutability": "nonpayable",
      "type": "function"
    },
    {
      "constant": false,
      "inputs": [
        {
          "internalType": "uint256[]",
          "name": "groupIndices",
          "type": "uint256[]"
        }
      ],
      "name": "reportTerminations",
      "outputs": [],
      "payable": false,
      "stateMutability": "nonpayable",
      "type": "function"
    },
    {
      "constant": false,
      "inputs": [
        {
          "internalType": "bytes32[]",
          "name": "keepIdentifiers",
          "type": "bytes32[]"
        }
      ],
      "name": "reportTerminations",
      "outputs": [],
      "payable": false,
      "stateMutability": "nonpayable",
      "type": "function"
    },
    {
      "constant": true,
      "inputs": [
        {
          "internalType": "uint256",
          "name": "groupIndex",
          "type": "uint256"
        }
      ],
      "name": "isTerminated",
      "outputs": [
        {
          "internalType": "bool",
          "name": "",
          "type": "bool"
        }
      ],
      "payable": false,
      "stateMutability": "view",
      "type": "function"
    }
  ],
  "bytecode": "0x60806040526000600d60006101000a81548160ff021916908315150217905550604051806103000160405280600460ff168152602001600860ff168152602001600a60ff168152602001600c60ff168152602001600f60ff168152602001600f60ff168152602001600f60ff168152602001600f60ff168152602001600f60ff168152602001600f60ff168152602001600f60ff168152602001600f60ff168152602001600f60ff168152602001600f60ff168152602001600f60ff168152602001600f60ff168152602001600f60ff168152602001600f60ff168152602001600f60ff168152602001600f60ff168152602001600f60ff168152602001600f60ff168152602001600f60ff168152602001600f60ff1681525060119060186200012b929190620003b5565b503480156200013957600080fd5b50604051620044c7380380620044c7833981810160405260608110156200015f57600080fd5b8101908080519060200190929190805190602001909291908051906020019092919050505082635f6be1806011805480602002602001604051908101604052809291908181526020018280548015620001d857602002820191906000526020600020905b815481526020019060010190808311620001c3575b505050505062278d006002620001f3620003ad60201b60201c565b6000806101000a81548173ffffffffffffffffffffffffffffffffffffffff021916908373ffffffffffffffffffffffffffffffffffffffff1602179055506000809054906101000a900473ffffffffffffffffffffffffffffffffffffffff1673ffffffffffffffffffffffffffffffffffffffff16600073ffffffffffffffffffffffffffffffffffffffff167f8be0079c531659141344cd1fd0a4f28419497f9722a3daafe3b4186f6b6457e060405160405180910390a384600160006101000a81548173ffffffffffffffffffffffffffffffffffffffff021916908373ffffffffffffffffffffffffffffffffffffffff1602179055508360088190555082600290805190602001906200030e9291906200040c565b508160038190555080600481905550505050505081601260006101000a81548173ffffffffffffffffffffffffffffffffffffffff021916908373ffffffffffffffffffffffffffffffffffffffff16021790555080601360006101000a81548173ffffffffffffffffffffffffffffffffffffffff021916908373ffffffffffffffffffffffffffffffffffffffff16021790555050505062000486565b600033905090565b828054828255906000526020600020908101928215620003f9579160200282015b82811115620003f8578251829060ff16905591602001919060010190620003d6565b5b5090506200040891906200045e565b5090565b8280548282559060005260206000209081019282156200044b579160200282015b828111156200044a5782518255916020019190600101906200042d565b5b5090506200045a91906200045e565b5090565b6200048391905b808211156200047f57600081600090555060010162000465565b5090565b90565b61403180620004966000396000f3fe608060405234801561001057600080fd5b50600436106102745760003560e01c806392672b3511610151578063b965933e116100c3578063e1fcd5e811610087578063e1fcd5e814610cf6578063e27000e714610d14578063e8ba650914610d1e578063f2fde38b14610d64578063f3a504f214610da8578063fc0c546a14610dca57610274565b8063b965933e14610bee578063c70cee6a14610c30578063ce21d8cf14610c4e578063ce2830ad14610c92578063ce2b3e3c14610cd857610274565b8063ab7239c011610115578063ab7239c0146109fc578063ad36d6cc14610ab4578063ae10d5ea14610afa578063aeae364d14610b28578063b369af7114610b6a578063b41e7f4714610bac57610274565b806392672b351461090a578063951315261461094c57806395aeca481461096a57806397a1e43414610988578063aa5c63a9146109ce57610274565b806368ec9c42116101ea57806379b18cd1116101ae57806379b18cd11461070357806381b83c331461072157806386d954c01461076b5780638da5cb5b146107995780638f32d59b146107e35780638f4ffcb11461080557610274565b806368ec9c42146105195780636a823878146105475780636c21aba714610589578063715018a61461064157806373c6d8621461064b57610274565b806328fc33c71161023c57806328fc33c71461034b5780632b6fdc7e1461037957806335c9ef711461039757806336544951146103d9578063450163121461041b5780634611ae04146104d357610274565b80630a1bb1b1146102795780630da8882f146102bf5780630e15561a146102c957806312f57063146102e7578063183affa11461032d575b600080fd5b6102a56004803603602081101561028f57600080fd5b8101908080359060200190929190505050610e14565b604051808215151515815260200191505060405180910390f35b6102c7610e2a565b005b6102d1610ec1565b6040518082815260200191505060405180910390f35b610313600480360360208110156102fd57600080fd5b8101908080359060200190929190505050610ec7565b604051808215151515815260200191505060405180910390f35b610335610efc565b6040518082815260200191505060405180910390f35b6103776004803603602081101561036157600080fd5b8101908080359060200190929190505050610f09565b005b610381611106565b6040518082815260200191505060405180910390f35b6103c3600480360360208110156103ad57600080fd5b810190808035906020019092919050505061110c565b6040518082815260200191505060405180910390f35b610405600480360360208110156103ef57600080fd5b81019080803590602001909291905050506111a7565b6040518082815260200191505060405180910390f35b6104d16004803603602081101561043157600080fd5b810190808035906020019064010000000081111561044e57600080fd5b82018360208201111561046057600080fd5b8035906020019184602083028401116401000000008311171561048257600080fd5b919080806020026020016040519081016040528093929190818152602001838360200280828437600081840152601f19601f8201169050808301925050505050505091929192905050506111fd565b005b6104ff600480360360208110156104e957600080fd5b8101908080359060200190929190505050611239565b604051808215151515815260200191505060405180910390f35b6105456004803603602081101561052f57600080fd5b810190808035906020019092919050505061124e565b005b6105736004803603602081101561055d57600080fd5b81019080803590602001909291905050506113d4565b6040518082815260200191505060405180910390f35b61063f6004803603602081101561059f57600080fd5b81019080803590602001906401000000008111156105bc57600080fd5b8201836020820111156105ce57600080fd5b803590602001918460208302840111640100000000831117156105f057600080fd5b919080806020026020016040519081016040528093929190818152602001838360200280828437600081840152601f19601f8201169050808301925050505050505091929192905050506113ec565b005b610649611480565b005b6107016004803603602081101561066157600080fd5b810190808035906020019064010000000081111561067e57600080fd5b82018360208201111561069057600080fd5b803590602001918460208302840111640100000000831117156106b257600080fd5b919080806020026020016040519081016040528093929190818152602001838360200280828437600081840152601f19601f8201169050808301925050505050505091929192905050506115b9565b005b61070b61164d565b6040518082815260200191505060405180910390f35b610729611653565b604051808273ffffffffffffffffffffffffffffffffffffffff1673ffffffffffffffffffffffffffffffffffffffff16815260200191505060405180910390f35b6107976004803603602081101561078157600080fd5b8101908080359060200190929190505050611679565b005b6107a16117ff565b604051808273ffffffffffffffffffffffffffffffffffffffff1673ffffffffffffffffffffffffffffffffffffffff16815260200191505060405180910390f35b6107eb611828565b604051808215151515815260200191505060405180910390f35b6109086004803603608081101561081b57600080fd5b81019080803573ffffffffffffffffffffffffffffffffffffffff16906020019092919080359060200190929190803573ffffffffffffffffffffffffffffffffffffffff1690602001909291908035906020019064010000000081111561088257600080fd5b82018360208201111561089457600080fd5b803590602001918460018302840111640100000000831117156108b657600080fd5b91908080601f016020809104026020016040519081016040528093929190818152602001838380828437600081840152601f19601f820116905080830192505050505050509192919290505050611886565b005b6109366004803603602081101561092057600080fd5b8101908080359060200190929190505050611b4b565b6040518082815260200191505060405180910390f35b610954611b6c565b6040518082815260200191505060405180910390f35b610972611b72565b6040518082815260200191505060405180910390f35b6109b46004803603602081101561099e57600080fd5b8101908080359060200190929190505050611b78565b604051808215151515815260200191505060405180910390f35b6109fa600480360360208110156109e457600080fd5b8101908080359060200190929190505050611b9b565b005b610ab260048036036020811015610a1257600080fd5b8101908080359060200190640100000000811115610a2f57600080fd5b820183602082011115610a4157600080fd5b80359060200191846020830284011164010000000083111715610a6357600080fd5b919080806020026020016040519081016040528093929190818152602001838360200280828437600081840152601f19601f820116905080830192505050505050509192919290505050611baa565b005b610ae060048036036020811015610aca57600080fd5b8101908080359060200190929190505050611be6565b604051808215151515815260200191505060405180910390f35b610b2660048036036020811015610b1057600080fd5b8101908080359060200190929190505050611bfb565b005b610b5460048036036020811015610b3e57600080fd5b8101908080359060200190929190505050611c0a565b6040518082815260200191505060405180910390f35b610b9660048036036020811015610b8057600080fd5b8101908080359060200190929190505050611c36565b6040518082815260200191505060405180910390f35b610bd860048036036020811015610bc257600080fd5b8101908080359060200190929190505050611c93565b6040518082815260200191505060405180910390f35b610c1a60048036036020811015610c0457600080fd5b8101908080359060200190929190505050611cc5565b6040518082815260200191505060405180910390f35b610c38611cea565b6040518082815260200191505060405180910390f35b610c9060048036036020811015610c6457600080fd5b81019080803573ffffffffffffffffffffffffffffffffffffffff169060200190929190505050611cf0565b005b610cbe60048036036020811015610ca857600080fd5b8101908080359060200190929190505050611e3a565b604051808215151515815260200191505060405180910390f35b610ce0611e64565b6040518082815260200191505060405180910390f35b610cfe611e6a565b6040518082815260200191505060405180910390f35b610d1c611e70565b005b610d4a60048036036020811015610d3457600080fd5b8101908080359060200190929190505050612283565b604051808215151515815260200191505060405180910390f35b610da660048036036020811015610d7a57600080fd5b81019080803573ffffffffffffffffffffffffffffffffffffffff169060200190929190505050612298565b005b610db061231e565b604051808215151515815260200191505060405180910390f35b610dd2612331565b604051808273ffffffffffffffffffffffffffffffffffffffff1673ffffffffffffffffffffffffffffffffffffffff16815260200191505060405180910390f35b6000806009805490509050808310915050919050565b610e32611828565b610ea4576040517f08c379a00000000000000000000000000000000000000000000000000000000081526004018080602001828103825260208152602001807f4f776e61626c653a2063616c6c6572206973206e6f7420746865206f776e657281525060200191505060405180910390fd5b6001600d60006101000a81548160ff021916908315150217905550565b60055481565b6000610ed282612357565b8015610ee35750610ee28261236d565b5b8015610ef55750610ef382611e3a565b155b9050919050565b6000600280549050905090565b80610f1381612283565b610f85576040517f08c379a00000000000000000000000000000000000000000000000000000000081526004018080602001828103825260198152602001807f496e74657276616c206861736e277420656e646564207965740000000000000081525060200191505060405180910390fd5b600d60009054906101000a900460ff16611007576040517f08c379a00000000000000000000000000000000000000000000000000000000081526004018080602001828103825260208152602001807f436f6e747261637420686173206e6f74206265656e2066756e6465642079657481525060200191505060405180910390fd5b6000600980549050905080831015611087576040517f08c379a000000000000000000000000000000000000000000000000000000000815260040180806020018281038252601a8152602001807f496e74657276616c20616c726561647920616c6c6f636174656400000000000081525060200191505060405180910390fd5b808311156110ac576110ab6110a660018561261590919063ffffffff16565b610f09565b5b60006110b78461265f565b90506110ce8160065461261590919063ffffffff16565b600681905550600981908060018154018082558091505090600182039060005260206000200160009091929091909150555050505050565b60065481565b60006009805490508210611188576040517f08c379a000000000000000000000000000000000000000000000000000000000815260040180806020018281038252601a8152602001807f496e74657276616c206e6f7420616c6c6f63617465642079657400000000000081525060200191505060405180910390fd5b6009828154811061119557fe5b90600052602060002001549050919050565b60006002805490508210156111d557600282815481106111c357fe5b906000526020600020015490506111f8565b6002600160028054905003815481106111ea57fe5b906000526020600020015490505b919050565b60008090505b81518110156112355761122882828151811061121b57fe5b602002602001015161124e565b8080600101915050611203565b5050565b60006112478260001b610ec7565b9050919050565b8061125881612357565b6112ca576040517f08c379a000000000000000000000000000000000000000000000000000000000815260040180806020018281038252601e8152602001807f4b656570206e6f74207265636f676e697a656420627920666163746f7279000081525060200191505060405180910390fd5b816112d481611e3a565b15611347576040517f08c379a00000000000000000000000000000000000000000000000000000000081526004018080602001828103825260178152602001807f5265776172647320616c726561647920636c61696d656400000000000000000081525060200191505060405180910390fd5b826113518161236d565b6113c3576040517f08c379a00000000000000000000000000000000000000000000000000000000081526004018080602001828103825260128152602001807f4b656570206973206e6f7420636c6f736564000000000000000000000000000081525060200191505060405180910390fd5b6113ce6001856126e2565b50505050565b600c6020528060005260406000206000915090505481565b6000815190506060816040519080825280602002602001820160405280156114235781602001602082028038833980820191505090505b50905060008090505b83518110156114715783818151811061144157fe5b602002602001015160001b82828151811061145857fe5b602002602001018181525050808060010191505061142c565b5061147b81611baa565b505050565b611488611828565b6114fa576040517f08c379a00000000000000000000000000000000000000000000000000000000081526004018080602001828103825260208152602001807f4f776e61626c653a2063616c6c6572206973206e6f7420746865206f776e657281525060200191505060405180910390fd5b600073ffffffffffffffffffffffffffffffffffffffff166000809054906101000a900473ffffffffffffffffffffffffffffffffffffffff1673ffffffffffffffffffffffffffffffffffffffff167f8be0079c531659141344cd1fd0a4f28419497f9722a3daafe3b4186f6b6457e060405160405180910390a360008060006101000a81548173ffffffffffffffffffffffffffffffffffffffff021916908373ffffffffffffffffffffffffffffffffffffffff160217905550565b6000815190506060816040519080825280602002602001820160405280156115f05781602001602082028038833980820191505090505b50905060008090505b835181101561163e5783818151811061160e57fe5b602002602001015160001b82828151811061162557fe5b60200260200101818152505080806001019150506115f9565b50611648816111fd565b505050565b60035481565b601060009054906101000a900473ffffffffffffffffffffffffffffffffffffffff1681565b8061168381612357565b6116f5576040517f08c379a000000000000000000000000000000000000000000000000000000000815260040180806020018281038252601e8152602001807f4b656570206e6f74207265636f676e697a656420627920666163746f7279000081525060200191505060405180910390fd5b816116ff81611e3a565b15611772576040517f08c379a00000000000000000000000000000000000000000000000000000000081526004018080602001828103825260178152602001807f5265776172647320616c726561647920636c61696d656400000000000000000081525060200191505060405180910390fd5b8261177c8161283f565b6117ee576040517f08c379a00000000000000000000000000000000000000000000000000000000081526004018080602001828103825260168152602001807f4b656570206973206e6f74207465726d696e617465640000000000000000000081525060200191505060405180910390fd5b6117f96000856126e2565b50505050565b60008060009054906101000a900473ffffffffffffffffffffffffffffffffffffffff16905090565b60008060009054906101000a900473ffffffffffffffffffffffffffffffffffffffff1673ffffffffffffffffffffffffffffffffffffffff1661186a6128f9565b73ffffffffffffffffffffffffffffffffffffffff1614905090565b600160009054906101000a900473ffffffffffffffffffffffffffffffffffffffff1673ffffffffffffffffffffffffffffffffffffffff168273ffffffffffffffffffffffffffffffffffffffff1614611949576040517f08c379a00000000000000000000000000000000000000000000000000000000081526004018080602001828103825260118152602001807f556e737570706f7274656420746f6b656e00000000000000000000000000000081525060200191505060405180910390fd5b611998843085600160009054906101000a900473ffffffffffffffffffffffffffffffffffffffff1673ffffffffffffffffffffffffffffffffffffffff16612901909392919063ffffffff16565b6000600160009054906101000a900473ffffffffffffffffffffffffffffffffffffffff1673ffffffffffffffffffffffffffffffffffffffff166370a08231306040518263ffffffff1660e01b8152600401808273ffffffffffffffffffffffffffffffffffffffff1673ffffffffffffffffffffffffffffffffffffffff16815260200191505060206040518083038186803b158015611a3957600080fd5b505afa158015611a4d573d6000803e3d6000fd5b505050506040513d6020811015611a6357600080fd5b810190808051906020019092919050505090506000611a8f60075460055461261590919063ffffffff16565b905080821015611b07576040517f08c379a000000000000000000000000000000000000000000000000000000000815260040180806020018281038252601f8152602001807f52657761726420636f6e747261637420686173206c6f737420746f6b656e730081525060200191505060405180910390fd5b6000611b1c828461261590919063ffffffff16565b9050611b3381600554612a0790919063ffffffff16565b600581905550611b4281612a8f565b50505050505050565b60028181548110611b5857fe5b906000526020600020016000915090505481565b600e5481565b60085481565b6000611b8382612357565b8015611b945750611b938261283f565b5b9050919050565b611ba78160001b611679565b50565b60008090505b8151811015611be257611bd5828281518110611bc857fe5b6020026020010151611679565b8080600101915050611bb0565b5050565b6000611bf48260001b611b78565b9050919050565b611c078160001b61124e565b50565b6000611c2f611c1883612c65565b611c2184612c9c565b61261590919063ffffffff16565b9050919050565b60008060085490506000600354905081841015611c5857600092505050611c8e565b6000611c6d838661261590919063ffffffff16565b90506000611c848383612d8890919063ffffffff16565b9050809450505050505b919050565b6000611cbe611cad60035484612dd290919063ffffffff16565b600854612a0790919063ffffffff16565b9050919050565b6000611ce3611cde600184612a0790919063ffffffff16565b611c93565b9050919050565b60045481565b611cf8611828565b611d6a576040517f08c379a00000000000000000000000000000000000000000000000000000000081526004018080602001828103825260208152602001807f4f776e61626c653a2063616c6c6572206973206e6f7420746865206f776e657281525060200191505060405180910390fd5b42600e8190555080601060006101000a81548173ffffffffffffffffffffffffffffffffffffffff021916908373ffffffffffffffffffffffffffffffffffffffff1602179055507f4508cb0974b8dda93dec7c130aa186db2705fcee58bc00d1334726761835aca1601060009054906101000a900473ffffffffffffffffffffffffffffffffffffffff16604051808273ffffffffffffffffffffffffffffffffffffffff1673ffffffffffffffffffffffffffffffffffffffff16815260200191505060405180910390a150565b6000600a600083815260200190815260200160002060009054906101000a900460ff169050919050565b600f5481565b60075481565b611e78611828565b611eea576040517f08c379a00000000000000000000000000000000000000000000000000000000081526004018080602001828103825260208152602001807f4f776e61626c653a2063616c6c6572206973206e6f7420746865206f776e657281525060200191505060405180910390fd5b6000600e541415611f63576040517f08c379a00000000000000000000000000000000000000000000000000000000081526004018080602001828103825260158152602001807f55706772616465206e6f7420696e69746961746564000000000000000000000081525060200191505060405180910390fd5b6000611f6e42611c36565b90506000611f7d600e54611c36565b9050808211611fd7576040517f08c379a000000000000000000000000000000000000000000000000000000000815260040180806020018281038252603c815260200180613fc1603c913960400191505060405180910390fd5b611ff3611fee60018461261590919063ffffffff16565b610e14565b6120145761201361200e60018461261590919063ffffffff16565b610f09565b5b600060065490506120308160055461261590919063ffffffff16565b60058190555060006006819055507f89f5b857dbf5a32a4fa55162349dc1146850c9b76ff05bedf3a47b3f14095c0a816040518082815260200191505060405180910390a16000600160009054906101000a900473ffffffffffffffffffffffffffffffffffffffff1673ffffffffffffffffffffffffffffffffffffffff1663cae9ca51601060009054906101000a900473ffffffffffffffffffffffffffffffffffffffff1684604051806020016040528060008152506040518463ffffffff1660e01b8152600401808473ffffffffffffffffffffffffffffffffffffffff1673ffffffffffffffffffffffffffffffffffffffff16815260200183815260200180602001828103825283818151815260200191508051906020019080838360005b83811015612170578082015181840152602081019050612155565b50505050905090810190601f16801561219d5780820380516001836020036101000a031916815260200191505b50945050505050602060405180830381600087803b1580156121be57600080fd5b505af11580156121d2573d6000803e3d6000fd5b505050506040513d60208110156121e857600080fd5b810190808051906020019092919050505090508061226e576040517f08c379a000000000000000000000000000000000000000000000000000000000815260040180806020018281038252601b8152602001807f557067726164652066696e616c697a6174696f6e206661696c6564000000000081525060200191505060405180910390fd5b6000600e8190555042600f8190555050505050565b600061228e82611cc5565b4210159050919050565b6122a0611828565b612312576040517f08c379a00000000000000000000000000000000000000000000000000000000081526004018080602001828103825260208152602001807f4f776e61626c653a2063616c6c6572206973206e6f7420746865206f776e657281525060200191505060405180910390fd5b61231b81612e58565b50565b600d60009054906101000a900460ff1681565b600160009054906101000a900473ffffffffffffffffffffffffffffffffffffffff1681565b60008160001c612365612f9c565b119050919050565b60006123788261283f565b156123865760009050612610565b6060601260009054906101000a900473ffffffffffffffffffffffffffffffffffffffff1673ffffffffffffffffffffffffffffffffffffffff1663ef7c8f9c8460001c6040518263ffffffff1660e01b81526004018082815260200191505060006040518083038186803b1580156123fe57600080fd5b505afa158015612412573d6000803e3d6000fd5b505050506040513d6000823e3d601f19601f82011682018060405250602081101561243c57600080fd5b810190808051604051939291908464010000000082111561245c57600080fd5b8382019150602082018581111561247257600080fd5b825186600182028301116401000000008211171561248f57600080fd5b8083526020830192505050908051906020019080838360005b838110156124c35780820151818401526020810190506124a8565b50505050905090810190601f1680156124f05780820380516001836020036101000a031916815260200191505b506040525050509050601260009054906101000a900473ffffffffffffffffffffffffffffffffffffffff1673ffffffffffffffffffffffffffffffffffffffff16632d6f8f31826040518263ffffffff1660e01b81526004018080602001828103825283818151815260200191508051906020019080838360005b8381101561258757808201518184015260208101905061256c565b50505050905090810190601f1680156125b45780820380516001836020036101000a031916815260200191505b509250505060206040518083038186803b1580156125d157600080fd5b505afa1580156125e5573d6000803e3d6000fd5b505050506040513d60208110156125fb57600080fd5b81019080805190602001909291905050509150505b919050565b600061265783836040518060400160405280601e81526020017f536166654d6174683a207375627472616374696f6e206f766572666c6f770000815250613046565b905092915050565b60008061266b83613106565b905060008114156126805760009150506126dd565b600061268b84611c0a565b9050600061269b8260045461314a565b905060008114156126b257600093505050506126dd565b6126d7816126c98486612dd290919063ffffffff16565b612d8890919063ffffffff16565b93505050505b919050565b60006126ed82613164565b905060006126fa82611c36565b905061270581610e14565b6127135761271281610f09565b5b60006009828154811061272257fe5b90600052602060002001549050600061273a83611c0a565b905060006127518284612d8890919063ffffffff16565b90506001600a600088815260200190815260200160002060006101000a81548160ff0219169083151502179055506127a66001600c600087815260200190815260200160002054612a0790919063ffffffff16565b600c600086815260200190815260200160002081905550861561282c576127d881600754612a0790919063ffffffff16565b6007819055506127e8868261321e565b7ff8fcbb083cc485f0dc726d4235dbec7c9c5c03af58254f3536275035772161708682604051808381526020018281526020019250505060405180910390a1612836565b61283581612a8f565b5b50505050505050565b6000601260009054906101000a900473ffffffffffffffffffffffffffffffffffffffff1673ffffffffffffffffffffffffffffffffffffffff1663885c02048360001c6040518263ffffffff1660e01b81526004018082815260200191505060206040518083038186803b1580156128b757600080fd5b505afa1580156128cb573d6000803e3d6000fd5b505050506040513d60208110156128e157600080fd5b81019080805190602001909291905050509050919050565b600033905090565b612a01848573ffffffffffffffffffffffffffffffffffffffff166323b872dd905060e01b858585604051602401808473ffffffffffffffffffffffffffffffffffffffff1673ffffffffffffffffffffffffffffffffffffffff1681526020018373ffffffffffffffffffffffffffffffffffffffff1673ffffffffffffffffffffffffffffffffffffffff1681526020018281526020019350505050604051602081830303815290604052907bffffffffffffffffffffffffffffffffffffffffffffffffffffffff19166020820180517bffffffffffffffffffffffffffffffffffffffffffffffffffffffff838183161783525050505061382f565b50505050565b600080828401905083811015612a85576040517f08c379a000000000000000000000000000000000000000000000000000000000815260040180806020018281038252601b8152602001807f536166654d6174683a206164646974696f6e206f766572666c6f77000000000081525060200191505060405180910390fd5b8091505092915050565b6000600f5414612c46576000600160009054906101000a900473ffffffffffffffffffffffffffffffffffffffff1673ffffffffffffffffffffffffffffffffffffffff1663cae9ca51601060009054906101000a900473ffffffffffffffffffffffffffffffffffffffff1684604051806020016040528060008152506040518463ffffffff1660e01b8152600401808473ffffffffffffffffffffffffffffffffffffffff1673ffffffffffffffffffffffffffffffffffffffff16815260200183815260200180602001828103825283818151815260200191508051906020019080838360005b83811015612b94578082015181840152602081019050612b79565b50505050905090810190601f168015612bc15780820380516001836020036101000a031916815260200191505b50945050505050602060405180830381600087803b158015612be257600080fd5b505af1158015612bf6573d6000803e3d6000fd5b505050506040513d6020811015612c0c57600080fd5b8101908080519060200190929190505050905080612c4057612c3982600654612a0790919063ffffffff16565b6006819055505b50612c62565b612c5b81600654612a0790919063ffffffff16565b6006819055505b50565b600080821415612c785760009050612c97565b612c94612c8f60018461261590919063ffffffff16565b612c9c565b90505b919050565b600081612ca881612283565b612d1a576040517f08c379a00000000000000000000000000000000000000000000000000000000081526004018080602001828103825260198152602001807f496e74657276616c206861736e277420656e646564207965740000000000000081525060200191505060405180910390fd5b6000600b60008581526020019081526020016000205490506000811415612d7a576000612d4e612d4986611cc5565b613a7a565b905060008114612d715780600b6000878152602001908152602001600020819055505b80935050612d7e565b8092505b8292505050919050565b6000612dca83836040518060400160405280601a81526020017f536166654d6174683a206469766973696f6e206279207a65726f000000000000815250613b9a565b905092915050565b600080831415612de55760009050612e52565b6000828402905082848281612df657fe5b0414612e4d576040517f08c379a0000000000000000000000000000000000000000000000000000000008152600401808060200182810382526021815260200180613f766021913960400191505060405180910390fd5b809150505b92915050565b600073ffffffffffffffffffffffffffffffffffffffff168173ffffffffffffffffffffffffffffffffffffffff161415612ede576040517f08c379a0000000000000000000000000000000000000000000000000000000008152600401808060200182810382526026815260200180613f506026913960400191505060405180910390fd5b8073ffffffffffffffffffffffffffffffffffffffff166000809054906101000a900473ffffffffffffffffffffffffffffffffffffffff1673ffffffffffffffffffffffffffffffffffffffff167f8be0079c531659141344cd1fd0a4f28419497f9722a3daafe3b4186f6b6457e060405160405180910390a3806000806101000a81548173ffffffffffffffffffffffffffffffffffffffff021916908373ffffffffffffffffffffffffffffffffffffffff16021790555050565b6000601260009054906101000a900473ffffffffffffffffffffffffffffffffffffffff1673ffffffffffffffffffffffffffffffffffffffff1663fdd18b136040518163ffffffff1660e01b815260040160206040518083038186803b15801561300657600080fd5b505afa15801561301a573d6000803e3d6000fd5b505050506040513d602081101561303057600080fd5b8101908080519060200190929190505050905090565b60008383111582906130f3576040517f08c379a00000000000000000000000000000000000000000000000000000000081526004018080602001828103825283818151815260200191508051906020019080838360005b838110156130b857808201518184015260208101905061309d565b50505050905090810190601f1680156130e55780820380516001836020036101000a031916815260200191505b509250505060405180910390fd5b5060008385039050809150509392505050565b60008060065490506000613119846111a7565b905061314160646131338385612dd290919063ffffffff16565b612d8890919063ffffffff16565b92505050919050565b60008183101561315a578161315c565b825b905092915050565b6000601260009054906101000a900473ffffffffffffffffffffffffffffffffffffffff1673ffffffffffffffffffffffffffffffffffffffff16635ec60d618360001c6040518263ffffffff1660e01b81526004018082815260200191505060206040518083038186803b1580156131dc57600080fd5b505afa1580156131f0573d6000803e3d6000fd5b505050506040513d602081101561320657600080fd5b81019080805190602001909291905050509050919050565b6060601260009054906101000a900473ffffffffffffffffffffffffffffffffffffffff1673ffffffffffffffffffffffffffffffffffffffff1663ef7c8f9c8460001c6040518263ffffffff1660e01b81526004018082815260200191505060006040518083038186803b15801561329657600080fd5b505afa1580156132aa573d6000803e3d6000fd5b505050506040513d6000823e3d601f19601f8201168201806040525060208110156132d457600080fd5b81019080805160405193929190846401000000008211156132f457600080fd5b8382019150602082018581111561330a57600080fd5b825186600182028301116401000000008211171561332757600080fd5b8083526020830192505050908051906020019080838360005b8381101561335b578082015181840152602081019050613340565b50505050905090810190601f1680156133885780820380516001836020036101000a031916815260200191505b5060405250505090506060601260009054906101000a900473ffffffffffffffffffffffffffffffffffffffff1673ffffffffffffffffffffffffffffffffffffffff1663d12f5e69836040518263ffffffff1660e01b81526004018080602001828103825283818151815260200191508051906020019080838360005b83811015613421578082015181840152602081019050613406565b50505050905090810190601f16801561344e5780820380516001836020036101000a031916815260200191505b509250505060006040518083038186803b15801561346b57600080fd5b505afa15801561347f573d6000803e3d6000fd5b505050506040513d6000823e3d601f19601f8201168201806040525060208110156134a957600080fd5b81019080805160405193929190846401000000008211156134c957600080fd5b838201915060208201858111156134df57600080fd5b82518660208202830111640100000000821117156134fc57600080fd5b8083526020830192505050908051906020019060200280838360005b83811015613533578082015181840152602081019050613518565b505050509050016040525050509050600081519050600061355d8286612d8890919063ffffffff16565b905060008111156136c15760008090505b600183038110156136bf576136b2601360009054906101000a900473ffffffffffffffffffffffffffffffffffffffff1673ffffffffffffffffffffffffffffffffffffffff1663ba7bffd38684815181106135c657fe5b60200260200101516040518263ffffffff1660e01b8152600401808273ffffffffffffffffffffffffffffffffffffffff1673ffffffffffffffffffffffffffffffffffffffff16815260200191505060206040518083038186803b15801561362e57600080fd5b505afa158015613642573d6000803e3d6000fd5b505050506040513d602081101561365857600080fd5b810190808051906020019092919050505083600160009054906101000a900473ffffffffffffffffffffffffffffffffffffffff1673ffffffffffffffffffffffffffffffffffffffff16613c609092919063ffffffff16565b808060010191505061356e565b505b60006136d68387613d3190919063ffffffff16565b9050613826601360009054906101000a900473ffffffffffffffffffffffffffffffffffffffff1673ffffffffffffffffffffffffffffffffffffffff1663ba7bffd386600187038151811061372857fe5b60200260200101516040518263ffffffff1660e01b8152600401808273ffffffffffffffffffffffffffffffffffffffff1673ffffffffffffffffffffffffffffffffffffffff16815260200191505060206040518083038186803b15801561379057600080fd5b505afa1580156137a4573d6000803e3d6000fd5b505050506040513d60208110156137ba57600080fd5b81019080805190602001909291905050506137de8385612a0790919063ffffffff16565b600160009054906101000a900473ffffffffffffffffffffffffffffffffffffffff1673ffffffffffffffffffffffffffffffffffffffff16613c609092919063ffffffff16565b50505050505050565b61384e8273ffffffffffffffffffffffffffffffffffffffff16613d7b565b6138c0576040517f08c379a000000000000000000000000000000000000000000000000000000000815260040180806020018281038252601f8152602001807f5361666545524332303a2063616c6c20746f206e6f6e2d636f6e74726163740081525060200191505060405180910390fd5b600060608373ffffffffffffffffffffffffffffffffffffffff16836040518082805190602001908083835b6020831061390f57805182526020820191506020810190506020830392506138ec565b6001836020036101000a0380198251168184511680821785525050505050509050019150506000604051808303816000865af19150503d8060008114613971576040519150601f19603f3d011682016040523d82523d6000602084013e613976565b606091505b5091509150816139ee576040517f08c379a00000000000000000000000000000000000000000000000000000000081526004018080602001828103825260208152602001807f5361666545524332303a206c6f772d6c6576656c2063616c6c206661696c656481525060200191505060405180910390fd5b600081511115613a7457808060200190516020811015613a0d57600080fd5b8101908080519060200190929190505050613a73576040517f08c379a000000000000000000000000000000000000000000000000000000000815260040180806020018281038252602a815260200180613f97602a913960400191505060405180910390fd5b5b50505050565b600042821115613af2576040517f08c379a00000000000000000000000000000000000000000000000000000000081526004018080602001828103825260198152602001807f696e74657276616c206861736e277420656e646564207965740000000000000081525060200191505060405180910390fd5b6000613afc612f9c565b90506000811415613b11576000915050613b95565b60008090506000613b29613b2483613dc6565b613164565b9050848110613b3e5760009350505050613b95565b6000613b5460018561261590919063ffffffff16565b90506000613b69613b6483613dc6565b613164565b905086811015613b80578495505050505050613b95565b613b8d848484848b613dd3565b955050505050505b919050565b60008083118290613c46576040517f08c379a00000000000000000000000000000000000000000000000000000000081526004018080602001828103825283818151815260200191508051906020019080838360005b83811015613c0b578082015181840152602081019050613bf0565b50505050905090810190601f168015613c385780820380516001836020036101000a031916815260200191505b509250505060405180910390fd5b506000838581613c5257fe5b049050809150509392505050565b613d2c838473ffffffffffffffffffffffffffffffffffffffff1663a9059cbb905060e01b8484604051602401808373ffffffffffffffffffffffffffffffffffffffff1673ffffffffffffffffffffffffffffffffffffffff16815260200182815260200192505050604051602081830303815290604052907bffffffffffffffffffffffffffffffffffffffffffffffffffffffff19166020820180517bffffffffffffffffffffffffffffffffffffffffffffffffffffffff838183161783525050505061382f565b505050565b6000613d7383836040518060400160405280601881526020017f536166654d6174683a206d6f64756c6f206279207a65726f0000000000000000815250613e8e565b905092915050565b60008060007fc5d2460186f7233c927e7db2dcc703c0e500b653ca82273b7bfad8045d85a47060001b9050833f91506000801b8214158015613dbd5750808214155b92505050919050565b60008160001b9050919050565b6000808690506000869050600086905060008690506000613dfd858461261590919063ffffffff16565b90505b6001811115613e7d576000613e31613e22600284612d8890919063ffffffff16565b87612a0790919063ffffffff16565b90506000613e46613e4183613dc6565b613164565b9050888110613e5a57819450809350613e61565b8196508095505b613e74878661261590919063ffffffff16565b92505050613e00565b829550505050505095945050505050565b6000808314158290613f3b576040517f08c379a00000000000000000000000000000000000000000000000000000000081526004018080602001828103825283818151815260200191508051906020019080838360005b83811015613f00578082015181840152602081019050613ee5565b50505050905090810190601f168015613f2d5780820380516001836020036101000a031916815260200191505b509250505060405180910390fd5b50828481613f4557fe5b069050939250505056fe4f776e61626c653a206e6577206f776e657220697320746865207a65726f2061646472657373536166654d6174683a206d756c7469706c69636174696f6e206f766572666c6f775361666545524332303a204552433230206f7065726174696f6e20646964206e6f742073756363656564496e74657276616c2061742077686963682074686520757067726164652077617320696e69746961746564206861736e277420656e64656420796574a265627a7a723158203454f4238c9d294ad3736420203b0ce03fa6ed2fd5a16d8c7d6ce52c4cfa130164736f6c63430005110032",
  "source": "/**\n     \n   \n                            \n                             \n                           \n                           \n                          \n     \n     \n\n                           Trust math, not hardware.\n*/\n\npragma solidity ^0.5.17;\n\nimport \"./Rewards.sol\";\nimport \"./KeepRandomBeaconOperator.sol\";\nimport \"./TokenStaking.sol\";\n\n/// @title KEEP Random Beacon Signer Subsidy Rewards\n/// @notice Contract distributing KEEP rewards to Random Beacon signers based\n/// on the defined reward schedule.\n///\n/// The amount of KEEP to be distributed is determined by funding the contract,\n/// and additional KEEP can be added at any time.\n/// \n/// When an interval is over, it will be allocated a percentage of the remaining\n/// unallocated rewards based on its weight, and adjusted by the number of groups\n/// created in the interval if the quota is not met.\n///\n/// The adjustment for not meeting the group quota is a percentage that equals\n/// the percentage of the quota that was met; if the number of groups created is\n/// 80% of the quota then 80% of the base reward will be allocated for the\n/// interval.\n///\n/// Any unallocated rewards will stay in the unallocated rewards pool,\n/// to be allocated for future intervals. Intervals past the initially defined\n/// schedule have a weight of 100%, meaning that all remaining unallocated\n/// rewards will be allocated to the interval.\n///\n/// Groups can receive rewards once the interval they were created in is over,\n/// and the group has been marked as stale.\n/// There is no time limit to receiving rewards, nor is there need to wait for\n/// all groups from the interval to be marked as stale.\n/// Calling `receiveReward` automatically allocates the rewards for the interval\n/// the specified group was created in and all previous intervals.\n///\n/// If a group is terminated, that fact can be reported to the reward contract.\n/// Reporting a terminated group returns its allocated reward to the pool of\n/// unallocated rewards.\ncontract BeaconRewards is Rewards {\n\n\n    // Weights of the 24 reward intervals assigned over\n    // 24 * beaconTermLength days.\n    uint256[] internal beaconIntervalWeights = [\n        4, 8, 10, 12, 15, 15,\n        15, 15, 15, 15, 15, 15,\n        15, 15, 15, 15, 15, 15,\n        15, 15, 15, 15, 15, 15\n    ];\n\n    // Beacon genesis date, 2020-09-24, is the first interval start.\n    // https://etherscan.io/tx/0xe2e8ab5631473a3d7d8122ce4853c38f5cc7d3dcbfab3607f6b27a7ef3b86da2\n    uint256 internal constant beaconFirstIntervalStart = 1600905600;\n\n    // Each interval is 30 days long.\n    uint256 internal constant beaconTermLength = 30 days;\n\n    // There has to be at least 2 groups per interval to meet the group quota\n    // and distribute the full reward for the given interval.\n    uint256 internal constant minimumBeaconGroupsPerInterval = 2;\n\n\n    KeepRandomBeaconOperator operatorContract;\n    TokenStaking tokenStaking;\n\n    constructor (\n        address _token,\n        address _operatorContract,\n        address _stakingContract\n    ) public Rewards(\n        _token,\n        beaconFirstIntervalStart,\n        beaconIntervalWeights,\n        beaconTermLength,\n        minimumBeaconGroupsPerInterval\n    ) {\n        operatorContract = KeepRandomBeaconOperator(_operatorContract);\n        tokenStaking = TokenStaking(_stakingContract);\n    }\n\n    /// @notice Sends the reward for a group to the group member beneficiaries.\n    /// @param groupIndex Index of the group to receive a reward.\n    function receiveReward(uint256 groupIndex) public {\n        receiveReward(bytes32(groupIndex));\n    }\n\n    /// @notice Stakers can receive KEEP rewards from multiple groups of their choice\n    /// in one transaction to reduce total cost comparing to single calls for rewards.\n    /// It is a caller responsibility to determine the cost and consumed gas when\n    /// receiving rewards from multiple groups.\n    /// @param groupIndices An array of group indices.\n    function receiveRewards(uint256[] memory groupIndices) public {\n        uint256 len = groupIndices.length;\n        bytes32[] memory bytes32identifiers = new bytes32[](len);\n        for (uint256 i = 0; i < groupIndices.length; i++) {\n            bytes32identifiers[i] = bytes32(groupIndices[i]);\n        }\n        receiveRewards(bytes32identifiers);\n    }\n\n    /// @notice Checks if the group is eligible to receive a reward.\n    /// Group is eligible to receive a reward if it has been marked as stale\n    /// and rewards has not been claimed yet.\n    /// @param groupIndex Index of the group to check.\n    function eligibleForReward(uint256 groupIndex) public view returns (bool) {\n        return eligibleForReward(bytes32(groupIndex));\n    }\n\n    /// @notice Report that the group was terminated, and return its allocated\n    /// rewards to the unallocated pool.\n    /// @param groupIndex Index of the terminated group.\n    function reportTermination(uint256 groupIndex) public {\n        reportTermination(bytes32(groupIndex));\n    }\n\n    /// @notice Report about the terminated groups in batch. All the allocated\n    /// rewards in these groups will be returned to the unallocated pool.\n    /// @param groupIndices An array of group indices.\n    function reportTerminations(uint256[] memory groupIndices) public {\n        uint256 len = groupIndices.length;\n        bytes32[] memory bytes32identifiers = new bytes32[](len);\n        for (uint256 i = 0; i < groupIndices.length; i++) {\n            bytes32identifiers[i] = bytes32(groupIndices[i]);\n        }\n        reportTerminations(bytes32identifiers);\n    }\n\n    /// @notice Checks if the group is terminated and thus its rewards can be\n    /// returned to the unallocated pool by calling `reportTermination`.\n    /// @param groupIndex Index of the potentially terminated group.\n    function isTerminated(uint256 groupIndex) public view returns (bool) {\n        return eligibleButTerminated(bytes32(groupIndex));\n    }\n\n    function _getKeepCount() internal view returns (uint256) {\n        return operatorContract.getNumberOfCreatedGroups();\n    }\n\n    function _getKeepAtIndex(uint256 i) internal view returns (bytes32) {\n        return bytes32(i);\n    }\n\n    function _getCreationTime(bytes32 groupIndexBytes) internal view returns (uint256) {\n        return operatorContract.getGroupRegistrationTime(uint256(groupIndexBytes));\n    }\n\n    function _isClosed(bytes32 groupIndexBytes) internal view returns (bool) {\n        if (_isTerminated(groupIndexBytes)) { return false; }\n        bytes memory groupPubkey = operatorContract.getGroupPublicKey(\n            uint256(groupIndexBytes)\n        );\n        return operatorContract.isStaleGroup(groupPubkey);\n    }\n\n    function _isTerminated(bytes32 groupIndexBytes) internal view returns (bool) {\n        return operatorContract.isGroupTerminated(uint256(groupIndexBytes));\n    }\n\n    function _recognizedByFactory(bytes32 groupIndexBytes) internal view returns (bool) {\n        return _getKeepCount() > uint256(groupIndexBytes);\n    }\n\n    function _distributeReward(bytes32 groupIndexBytes, uint256 _value) internal {\n        bytes memory groupPubkey = operatorContract.getGroupPublicKey(\n            uint256(groupIndexBytes)\n        );\n        address[] memory members = operatorContract.getGroupMembers(groupPubkey);\n\n        uint256 memberCount = members.length;\n        uint256 dividend = _value.div(memberCount);\n\n        // Only pay other members if dividend is nonzero.\n        if(dividend > 0) {\n            for (uint256 i = 0; i < memberCount - 1; i++) {\n                token.safeTransfer(\n                    tokenStaking.beneficiaryOf(members[i]),\n                    dividend\n                );\n            }\n        }\n\n        // Transfer of dividend for the last member. Remainder might be equal to\n        // zero in case of even distribution or some small number.\n        uint256 remainder = _value.mod(memberCount);\n        token.safeTransfer(\n            tokenStaking.beneficiaryOf(members[memberCount - 1]),\n            dividend.add(remainder)\n        );\n    }\n}\n",
  "sourcePath": "/home/bless/keep-core/solidity/contracts/BeaconRewards.sol",
  "compiler": {
    "name": "solc",
    "version": "0.5.17+commit.d19bba13.Emscripten.clang"
  },
  "schemaVersion": "3.3.3",
  "updatedAt": "2021-01-29T15:47:25.430Z",
  "networkType": "ethereum",
  "devdoc": {
    "methods": {
      "allocateRewards(uint256)": {
        "details": "The given interval must be finished and unallocated. To allocate rewards correctly, any earlier intervals that are still unallocated will be allocated before the given interval. With reasonable interval lengths this should not pose a problem, and if allocating a later interval results in an out-of-gas issue, forcing the allocation of an earlier interval should fix it.",
        "params": {
          "interval": "The interval to allocate."
        }
      },
      "eligibleButTerminated(bytes32)": {
        "params": {
          "_keep": "The keep to check."
        },
        "return": "True if the keep is terminated, false otherwise"
      },
      "eligibleForReward(bytes32)": {
        "details": "Keeps that close dishonorably or early are not eligible for rewards.",
        "params": {
          "_keep": "The keep to check."
        },
        "return": "True if the keep is eligible, false otherwise"
      },
      "eligibleForReward(uint256)": {
        "params": {
          "groupIndex": "Index of the group to check."
        }
      },
      "endOf(uint256)": {
        "details": "The end of an interval is exclusive; a keep created at the timestamp `endOf(i)` is in interval `i+1`.",
        "params": {
          "interval": "The interval whose end is queried."
        },
        "return": "The end timestamp of the interval."
      },
      "getAllocatedRewards(uint256)": {
        "details": "This function returns correct results for any allocated interval. Dividing the allocated rewards by the number of keeps in the interval will give the correct reward for a keep in the interval. However, if a keep in the interval is terminated its reward will be returned to the pool of unallocated tokens. This will not be reflected in the return value of this function.",
        "params": {
          "interval": "A previously allocated interval."
        },
        "return": "The total number of tokens allocated for keeps in the interval."
      },
      "getIntervalCount()": {
        "return": "The number of explicitly specified intervals."
      },
      "getIntervalWeight(uint256)": {
        "params": {
          "interval": "The interval."
        },
        "return": "The percentage weight of the interval."
      },
      "initiateRewardsUpgrade(address)": {
        "params": {
          "_newRewardsContract": "The address of a new rewards contract."
        }
      },
      "intervalOf(uint256)": {
        "details": "If the timestamp is before `firstIntervalStart`, the interval is 0.",
        "params": {
          "timestamp": "The timestamp whose interval is queried."
        },
        "return": "The interval of the timestamp."
      },
      "isAllocated(uint256)": {
        "params": {
          "interval": "The interval."
        },
        "return": "Whether the interval has been allocated yet."
      },
      "isFinished(uint256)": {
        "params": {
          "interval": "The interval."
        },
        "return": "Whether the interval is finished."
      },
      "isOwner()": {
        "details": "Returns true if the caller is the current owner."
      },
      "isTerminated(uint256)": {
        "params": {
          "groupIndex": "Index of the potentially terminated group."
        }
      },
      "keepsInInterval(uint256)": {
        "params": {
          "interval": "The interval."
        },
        "return": "Number of keeps created in the interval."
      },
      "owner()": {
        "details": "Returns the address of the current owner."
      },
      "receiveApproval(address,uint256,address,bytes)": {
        "details": "Adds the received amount of tokens to `totalRewards` and `unallocatedRewards`. May be called at any time, even after allocating some intervals. If the contract has been upgraded, the funding will be transferred to the new contract instead. Changes to `unallocatedRewards` will take effect on subsequent interval allocations. Intended to be used with `approveAndCall`. If the reward contract has received tokens outside `approveAndCall`, this collects them as well. The following invariant should hold right after calling this function: token.balanceOf(address(this)) == totalRewards.sub(dispensedRewards).",
        "params": {
          "_from": "The original sender of the tokens. Must have approved at least `_value` tokens for the rewards contract.",
          "_token": "The token to fund the rewards in. Must match the one specified in the rewards contract.",
          "_value": "The amount of tokens to fund."
        }
      },
      "receiveReward(bytes32)": {
        "params": {
          "keepIdentifier": "A unique identifier for the keep, e.g. address or number converted to a `bytes32`."
        }
      },
      "receiveReward(uint256)": {
        "params": {
          "groupIndex": "Index of the group to receive a reward."
        }
      },
      "receiveRewards(bytes32[])": {
        "params": {
          "keepIdentifiers": "An array of keep identifiers."
        }
      },
      "receiveRewards(uint256[])": {
        "params": {
          "groupIndices": "An array of group indices."
        }
      },
      "renounceOwnership()": {
        "details": "Leaves the contract without owner. It will not be possible to call `onlyOwner` functions anymore. Can only be called by the current owner.     * NOTE: Renouncing ownership will leave the contract without an owner, thereby removing any functionality that is only available to the owner."
      },
      "reportTermination(bytes32)": {
        "params": {
          "keepIdentifier": "The terminated keep."
        }
      },
      "reportTermination(uint256)": {
        "params": {
          "groupIndex": "Index of the terminated group."
        }
      },
      "reportTerminations(bytes32[])": {
        "params": {
          "keepIdentifiers": "An array of keep identifiers."
        }
      },
      "reportTerminations(uint256[])": {
        "params": {
          "groupIndices": "An array of group indices."
        }
      },
      "rewardClaimed(bytes32)": {
        "params": {
          "_keep": "The identifier of the keep."
        },
        "return": "True if rewards have been paid out for the keep, or its termination has been reported. False otherwise."
      },
      "startOf(uint256)": {
        "details": "The start of an interval is inclusive; a keep created at the timestamp `startOf(i)` is in interval `i`.",
        "params": {
          "interval": "The interval whose start is queried."
        },
        "return": "The start timestamp of the interval."
      },
      "transferOwnership(address)": {
        "details": "Transfers ownership of the contract to a new account (`newOwner`). Can only be called by the current owner."
      }
    },
    "title": "KEEP Random Beacon Signer Subsidy Rewards"
  },
  "userdoc": {
    "methods": {
      "allocateRewards(uint256)": {
        "notice": "Allocate rewards for unallocated intervals up to and including the given interval."
      },
      "eligibleButTerminated(bytes32)": {
        "notice": "Checks if a keep is terminated and thus its rewards can be returned to the unallocated pool."
      },
      "eligibleForReward(bytes32)": {
        "notice": "Checks if a keep is eligible to receive rewards."
      },
      "eligibleForReward(uint256)": {
        "notice": "Checks if the group is eligible to receive a reward. Group is eligible to receive a reward if it has been marked as stale and rewards has not been claimed yet."
      },
      "endOf(uint256)": {
        "notice": "Return the timestamp corresponding to the end of the interval."
      },
      "finalizeRewardsUpgrade()": {
        "notice": "Finalizes the process of upgrading to another rewards contract by allocating all past intervals and then, transferring the not-yet-allocated tokens to a new rewards contract. Can be called only when the interval during which the upgrade was initiated ended. Before finalizing the upgrade, make sure all terminated groups are reported."
      },
      "getAllocatedRewards(uint256)": {
        "notice": "Get the total amount of tokens allocated for all keeps in the specified interval."
      },
      "getIntervalCount()": {
        "notice": "Get the number of intervals with explicitly specified weights. All subsequent intervals will have an implicit weight of 100."
      },
      "getIntervalWeight(uint256)": {
        "notice": "Return the percentage of remaining unallocated rewards that is to be allocated to the specified interval."
      },
      "initiateRewardsUpgrade(address)": {
        "notice": "Initiates the process of upgrading to another rewards contract."
      },
      "intervalOf(uint256)": {
        "notice": "Return the interval number the provided timestamp falls within."
      },
      "isAllocated(uint256)": {
        "notice": "Return whether the specified interval has been allocated."
      },
      "isFinished(uint256)": {
        "notice": "Return whether the given interval is finished."
      },
      "isTerminated(uint256)": {
        "notice": "Checks if the group is terminated and thus its rewards can be returned to the unallocated pool by calling `reportTermination`."
      },
      "keepsInInterval(uint256)": {
        "notice": "Return the number of keeps created in the specified interval."
      },
      "receiveApproval(address,uint256,address,bytes)": {
        "notice": "Funds the rewards contract."
      },
      "receiveReward(bytes32)": {
        "notice": "Sends the reward for a keep to the keep members."
      },
      "receiveReward(uint256)": {
        "notice": "Sends the reward for a group to the group member beneficiaries."
      },
      "receiveRewards(bytes32[])": {
        "notice": "Stakers can receive KEEP rewards from multiple keeps of their choice in one transaction to reduce total cost comparing to single calls for rewards. It is a caller responsibility to determine the cost and consumed gas when receiving rewards from multiple keeps."
      },
      "receiveRewards(uint256[])": {
        "notice": "Stakers can receive KEEP rewards from multiple groups of their choice in one transaction to reduce total cost comparing to single calls for rewards. It is a caller responsibility to determine the cost and consumed gas when receiving rewards from multiple groups."
      },
      "reportTermination(bytes32)": {
        "notice": "Report that the keep was terminated, and return its allocated rewards to the unallocated pool."
      },
      "reportTermination(uint256)": {
        "notice": "Report that the group was terminated, and return its allocated rewards to the unallocated pool."
      },
      "reportTerminations(bytes32[])": {
        "notice": "Report about the terminated keeps in batch. All the allocated rewards in these keeps will be returned to the unallocated pool."
      },
      "reportTerminations(uint256[])": {
        "notice": "Report about the terminated groups in batch. All the allocated rewards in these groups will be returned to the unallocated pool."
      },
      "rewardClaimed(bytes32)": {
        "notice": "Return whether the given keep has already claimed rewards or had its rewards reallocated due to termination."
      },
      "startOf(uint256)": {
        "notice": "Return the timestamp corresponding to the start of the interval."
      }
    },
    "notice": "Contract distributing KEEP rewards to Random Beacon signers based on the defined reward schedule.  /// The amount of KEEP to be distributed is determined by funding the contract, and additional KEEP can be added at any time.  When an interval is over, it will be allocated a percentage of the remaining unallocated rewards based on its weight, and adjusted by the number of groups created in the interval if the quota is not met.  /// The adjustment for not meeting the group quota is a percentage that equals the percentage of the quota that was met; if the number of groups created is 80% of the quota then 80% of the base reward will be allocated for the interval.  /// Any unallocated rewards will stay in the unallocated rewards pool, to be allocated for future intervals. Intervals past the initially defined schedule have a weight of 100%, meaning that all remaining unallocated rewards will be allocated to the interval.  /// Groups can receive rewards once the interval they were created in is over, and the group has been marked as stale. There is no time limit to receiving rewards, nor is there need to wait for all groups from the interval to be marked as stale. Calling `receiveReward` automatically allocates the rewards for the interval the specified group was created in and all previous intervals.  /// If a group is terminated, that fact can be reported to the reward contract. Reporting a terminated group returns its allocated reward to the pool of unallocated rewards."
  }
}