{
  "contractName": "DelegatedAuthorityStub",
  "abi": [
    {
      "inputs": [
        {
          "internalType": "address",
          "name": "_recognizedContract",
          "type": "address"
        }
      ],
      "payable": false,
      "stateMutability": "nonpayable",
      "type": "constructor"
    },
    {
      "constant": true,
      "inputs": [
        {
          "internalType": "address",
          "name": "_contract",
          "type": "address"
        }
      ],
      "name": "__isRecognized",
      "outputs": [
        {
          "internalType": "bool",
          "name": "",
          "type": "bool"
        }
      ],
      "payable": false,
      "stateMutability": "view",
      "type": "function"
    },
    {
      "constant": false,
      "inputs": [
        {
          "internalType": "address",
          "name": "stakingContract",
          "type": "address"
        },
        {
          "internalType": "address",
          "name": "source",
          "type": "address"
        }
      ],
      "name": "claimAuthorityRecursively",
      "outputs": [],
      "payable": false,
      "stateMutability": "nonpayable",
      "type": "function"
    }
  ],
  "bytecode": "0x608060405234801561001057600080fd5b506040516102b83803806102b88339818101604052602081101561003357600080fd5b8101908080519060200190929190505050806000806101000a81548173ffffffffffffffffffffffffffffffffffffffff021916908373ffffffffffffffffffffffffffffffffffffffff16021790555050610224806100946000396000f3fe608060405234801561001057600080fd5b50600436106100365760003560e01c8063a489a8971461003b578063d870c0341461009f575b600080fd5b61009d6004803603604081101561005157600080fd5b81019080803573ffffffffffffffffffffffffffffffffffffffff169060200190929190803573ffffffffffffffffffffffffffffffffffffffff1690602001909291905050506100fb565b005b6100e1600480360360208110156100b557600080fd5b81019080803573ffffffffffffffffffffffffffffffffffffffff169060200190929190505050610196565b604051808215151515815260200191505060405180910390f35b8173ffffffffffffffffffffffffffffffffffffffff1663a590ae36826040518263ffffffff1660e01b8152600401808273ffffffffffffffffffffffffffffffffffffffff1673ffffffffffffffffffffffffffffffffffffffff168152602001915050600060405180830381600087803b15801561017a57600080fd5b505af115801561018e573d6000803e3d6000fd5b505050505050565b60008060009054906101000a900473ffffffffffffffffffffffffffffffffffffffff1673ffffffffffffffffffffffffffffffffffffffff168273ffffffffffffffffffffffffffffffffffffffff1614905091905056fea265627a7a723158205b9ae052a8a09f6e124bcc36b5b45a38d5489e0c3784f36536cb4ce83003859664736f6c63430005110032",
  "source": "pragma solidity 0.5.17;\n\nimport \"../TokenStaking.sol\";\n\ncontract DelegatedAuthorityStub {\n    address recognizedContract;\n\n    constructor(address _recognizedContract) public {\n        recognizedContract = _recognizedContract;\n    }\n\n    function __isRecognized(address _contract) public view returns (bool) {\n        return _contract == recognizedContract;\n    }\n\n    function claimAuthorityRecursively(\n        address stakingContract,\n        address source\n    ) public {\n        TokenStaking(stakingContract).claimDelegatedAuthority(source);\n    }\n}\n",
  "sourcePath": "/Users/konrad/Desktop/rumble/fin/local-setup/keep-core/solidity/contracts/stubs/DelegatedAuthorityStub.sol",
  "compiler": {
    "name": "solc",
    "version": "0.5.17+commit.d19bba13.Emscripten.clang"
  },
  "schemaVersion": "3.3.3",
  "updatedAt": "2021-04-30T08:21:45.000Z",
  "devdoc": {
    "methods": {}
  },
  "userdoc": {
    "methods": {}
  }
}