{
  "contractName": "GasPriceOracle",
  "abi": [
    {
      "anonymous": false,
      "inputs": [
        {
          "indexed": false,
          "internalType": "uint256",
          "name": "newValue",
          "type": "uint256"
        }
      ],
      "name": "GasPriceUpdated",
      "type": "event"
    },
    {
      "anonymous": false,
      "inputs": [
        {
          "indexed": true,
          "internalType": "address",
          "name": "previousOwner",
          "type": "address"
        },
        {
          "indexed": true,
          "internalType": "address",
          "name": "newOwner",
          "type": "address"
        }
      ],
      "name": "OwnershipTransferred",
      "type": "event"
    },
    {
      "constant": true,
      "inputs": [
        {
          "internalType": "uint256",
          "name": "",
          "type": "uint256"
        }
      ],
      "name": "consumerContracts",
      "outputs": [
        {
          "internalType": "address",
          "name": "",
          "type": "address"
        }
      ],
      "payable": false,
      "stateMutability": "view",
      "type": "function"
    },
    {
      "constant": true,
      "inputs": [],
      "name": "gasPrice",
      "outputs": [
        {
          "internalType": "uint256",
          "name": "",
          "type": "uint256"
        }
      ],
      "payable": false,
      "stateMutability": "view",
      "type": "function"
    },
    {
      "constant": true,
      "inputs": [],
      "name": "gasPriceChangeInitiated",
      "outputs": [
        {
          "internalType": "uint256",
          "name": "",
          "type": "uint256"
        }
      ],
      "payable": false,
      "stateMutability": "view",
      "type": "function"
    },
    {
      "constant": true,
      "inputs": [],
      "name": "governanceDelay",
      "outputs": [
        {
          "internalType": "uint256",
          "name": "",
          "type": "uint256"
        }
      ],
      "payable": false,
      "stateMutability": "view",
      "type": "function"
    },
    {
      "constant": true,
      "inputs": [],
      "name": "isOwner",
      "outputs": [
        {
          "internalType": "bool",
          "name": "",
          "type": "bool"
        }
      ],
      "payable": false,
      "stateMutability": "view",
      "type": "function"
    },
    {
      "constant": true,
      "inputs": [],
      "name": "newGasPrice",
      "outputs": [
        {
          "internalType": "uint256",
          "name": "",
          "type": "uint256"
        }
      ],
      "payable": false,
      "stateMutability": "view",
      "type": "function"
    },
    {
      "constant": true,
      "inputs": [],
      "name": "owner",
      "outputs": [
        {
          "internalType": "address",
          "name": "",
          "type": "address"
        }
      ],
      "payable": false,
      "stateMutability": "view",
      "type": "function"
    },
    {
      "constant": false,
      "inputs": [],
      "name": "renounceOwnership",
      "outputs": [],
      "payable": false,
      "stateMutability": "nonpayable",
      "type": "function"
    },
    {
      "constant": false,
      "inputs": [
        {
          "internalType": "address",
          "name": "newOwner",
          "type": "address"
        }
      ],
      "name": "transferOwnership",
      "outputs": [],
      "payable": false,
      "stateMutability": "nonpayable",
      "type": "function"
    },
    {
      "constant": false,
      "inputs": [
        {
          "internalType": "uint256",
          "name": "_newGasPrice",
          "type": "uint256"
        }
      ],
      "name": "beginGasPriceUpdate",
      "outputs": [],
      "payable": false,
      "stateMutability": "nonpayable",
      "type": "function"
    },
    {
      "constant": false,
      "inputs": [],
      "name": "finalizeGasPriceUpdate",
      "outputs": [],
      "payable": false,
      "stateMutability": "nonpayable",
      "type": "function"
    },
    {
      "constant": false,
      "inputs": [
        {
          "internalType": "address",
          "name": "consumerContract",
          "type": "address"
        }
      ],
      "name": "addConsumerContract",
      "outputs": [],
      "payable": false,
      "stateMutability": "nonpayable",
      "type": "function"
    },
    {
      "constant": false,
      "inputs": [
        {
          "internalType": "uint256",
          "name": "index",
          "type": "uint256"
        }
      ],
      "name": "removeConsumerContract",
      "outputs": [],
      "payable": false,
      "stateMutability": "nonpayable",
      "type": "function"
    },
    {
      "constant": true,
      "inputs": [],
      "name": "getConsumerContracts",
      "outputs": [
        {
          "internalType": "address[]",
          "name": "",
          "type": "address[]"
        }
      ],
      "payable": false,
      "stateMutability": "view",
      "type": "function"
    }
  ],
  "bytecode": "0x60806040526100126100d260201b60201c565b6000806101000a81548173ffffffffffffffffffffffffffffffffffffffff021916908373ffffffffffffffffffffffffffffffffffffffff1602179055506000809054906101000a900473ffffffffffffffffffffffffffffffffffffffff1673ffffffffffffffffffffffffffffffffffffffff16600073ffffffffffffffffffffffffffffffffffffffff167f8be0079c531659141344cd1fd0a4f28419497f9722a3daafe3b4186f6b6457e060405160405180910390a36100da565b600033905090565b610ee2806100e96000396000f3fe608060405234801561001057600080fd5b50600436106100ea5760003560e01c8063bcb22e4c1161008c578063f2fde38b11610066578063f2fde38b146102ea578063fad2c8fd1461032e578063fb656c8c1461034c578063fe173b971461037a576100ea565b8063bcb22e4c1461027e578063d615e4f4146102c2578063e02e9783146102cc576100ea565b80638da5cb5b116100c85780638da5cb5b146101865780638f32d59b146101d05780639955efd0146101f2578063bba3293914610260576100ea565b80634ce8b3bc146100ef5780635b4fb9121461011d578063715018a61461017c575b600080fd5b61011b6004803603602081101561010557600080fd5b8101908080359060200190929190505050610398565b005b610125610423565b6040518080602001828103825283818151815260200191508051906020019060200280838360005b8381101561016857808201518184015260208101905061014d565b505050509050019250505060405180910390f35b6101846104b1565b005b61018e6105ea565b604051808273ffffffffffffffffffffffffffffffffffffffff1673ffffffffffffffffffffffffffffffffffffffff16815260200191505060405180910390f35b6101d8610613565b604051808215151515815260200191505060405180910390f35b61021e6004803603602081101561020857600080fd5b8101908080359060200190929190505050610671565b604051808273ffffffffffffffffffffffffffffffffffffffff1673ffffffffffffffffffffffffffffffffffffffff16815260200191505060405180910390f35b6102686106ad565b6040518082815260200191505060405180910390f35b6102c06004803603602081101561029457600080fd5b81019080803573ffffffffffffffffffffffffffffffffffffffff1690602001909291905050506106b3565b005b6102ca610796565b005b6102d46109a6565b6040518082815260200191505060405180910390f35b61032c6004803603602081101561030057600080fd5b81019080803573ffffffffffffffffffffffffffffffffffffffff1690602001909291905050506109ac565b005b610336610a32565b6040518082815260200191505060405180910390f35b6103786004803603602081101561036257600080fd5b8101908080359060200190929190505050610a38565b005b610382610bda565b6040518082815260200191505060405180910390f35b6103a0610613565b610412576040517f08c379a00000000000000000000000000000000000000000000000000000000081526004018080602001828103825260208152602001807f4f776e61626c653a2063616c6c6572206973206e6f7420746865206f776e657281525060200191505060405180910390fd5b806002819055504260038190555050565b606060048054806020026020016040519081016040528092919081815260200182805480156104a757602002820191906000526020600020905b8160009054906101000a900473ffffffffffffffffffffffffffffffffffffffff1673ffffffffffffffffffffffffffffffffffffffff168152602001906001019080831161045d575b5050505050905090565b6104b9610613565b61052b576040517f08c379a00000000000000000000000000000000000000000000000000000000081526004018080602001828103825260208152602001807f4f776e61626c653a2063616c6c6572206973206e6f7420746865206f776e657281525060200191505060405180910390fd5b600073ffffffffffffffffffffffffffffffffffffffff166000809054906101000a900473ffffffffffffffffffffffffffffffffffffffff1673ffffffffffffffffffffffffffffffffffffffff167f8be0079c531659141344cd1fd0a4f28419497f9722a3daafe3b4186f6b6457e060405160405180910390a360008060006101000a81548173ffffffffffffffffffffffffffffffffffffffff021916908373ffffffffffffffffffffffffffffffffffffffff160217905550565b60008060009054906101000a900473ffffffffffffffffffffffffffffffffffffffff16905090565b60008060009054906101000a900473ffffffffffffffffffffffffffffffffffffffff1673ffffffffffffffffffffffffffffffffffffffff16610655610be0565b73ffffffffffffffffffffffffffffffffffffffff1614905090565b6004818154811061067e57fe5b906000526020600020016000915054906101000a900473ffffffffffffffffffffffffffffffffffffffff1681565b610e1081565b6106bb610613565b61072d576040517f08c379a00000000000000000000000000000000000000000000000000000000081526004018080602001828103825260208152602001807f4f776e61626c653a2063616c6c6572206973206e6f7420746865206f776e657281525060200191505060405180910390fd5b60048190806001815401808255809150509060018203906000526020600020016000909192909190916101000a81548173ffffffffffffffffffffffffffffffffffffffff021916908373ffffffffffffffffffffffffffffffffffffffff1602179055505050565b60006003541161080e576040517f08c379a00000000000000000000000000000000000000000000000000000000081526004018080602001828103825260148152602001807f4368616e6765206e6f7420696e6974696174656400000000000000000000000081525060200191505060405180910390fd5b610e1061082660035442610be890919063ffffffff16565b101561089a576040517f08c379a00000000000000000000000000000000000000000000000000000000081526004018080602001828103825260208152602001807f476f7665726e616e63652064656c617920686173206e6f7420656c617073656481525060200191505060405180910390fd5b600254600181905550600060028190555060006003819055507ffcdccc6074c6c42e4bd578aa9870c697dc976a270968452d2b8c8dc369fae3966001546040518082815260200191505060405180910390a160008090505b6004805490508110156109a3576004818154811061090c57fe5b9060005260206000200160009054906101000a900473ffffffffffffffffffffffffffffffffffffffff1673ffffffffffffffffffffffffffffffffffffffff1663c45751cd6040518163ffffffff1660e01b8152600401600060405180830381600087803b15801561097e57600080fd5b505af1158015610992573d6000803e3d6000fd5b5050505080806001019150506108f2565b50565b60035481565b6109b4610613565b610a26576040517f08c379a00000000000000000000000000000000000000000000000000000000081526004018080602001828103825260208152602001807f4f776e61626c653a2063616c6c6572206973206e6f7420746865206f776e657281525060200191505060405180910390fd5b610a2f81610c32565b50565b60025481565b610a40610613565b610ab2576040517f08c379a00000000000000000000000000000000000000000000000000000000081526004018080602001828103825260208152602001807f4f776e61626c653a2063616c6c6572206973206e6f7420746865206f776e657281525060200191505060405180910390fd5b6004805490508110610b2c576040517f08c379a000000000000000000000000000000000000000000000000000000000815260040180806020018281038252600d8152602001807f496e76616c696420696e6465780000000000000000000000000000000000000081525060200191505060405180910390fd5b600460016004805490500381548110610b4157fe5b9060005260206000200160009054906101000a900473ffffffffffffffffffffffffffffffffffffffff1660048281548110610b7957fe5b9060005260206000200160006101000a81548173ffffffffffffffffffffffffffffffffffffffff021916908373ffffffffffffffffffffffffffffffffffffffff1602179055506004805480919060019003610bd69190610e36565b5050565b60015481565b600033905090565b6000610c2a83836040518060400160405280601e81526020017f536166654d6174683a207375627472616374696f6e206f766572666c6f770000815250610d76565b905092915050565b600073ffffffffffffffffffffffffffffffffffffffff168173ffffffffffffffffffffffffffffffffffffffff161415610cb8576040517f08c379a0000000000000000000000000000000000000000000000000000000008152600401808060200182810382526026815260200180610e886026913960400191505060405180910390fd5b8073ffffffffffffffffffffffffffffffffffffffff166000809054906101000a900473ffffffffffffffffffffffffffffffffffffffff1673ffffffffffffffffffffffffffffffffffffffff167f8be0079c531659141344cd1fd0a4f28419497f9722a3daafe3b4186f6b6457e060405160405180910390a3806000806101000a81548173ffffffffffffffffffffffffffffffffffffffff021916908373ffffffffffffffffffffffffffffffffffffffff16021790555050565b6000838311158290610e23576040517f08c379a00000000000000000000000000000000000000000000000000000000081526004018080602001828103825283818151815260200191508051906020019080838360005b83811015610de8578082015181840152602081019050610dcd565b50505050905090810190601f168015610e155780820380516001836020036101000a031916815260200191505b509250505060405180910390fd5b5060008385039050809150509392505050565b815481835581811115610e5d57818360005260206000209182019101610e5c9190610e62565b5b505050565b610e8491905b80821115610e80576000816000905550600101610e68565b5090565b9056fe4f776e61626c653a206e6577206f776e657220697320746865207a65726f2061646472657373a265627a7a72315820d5da9e265e0e4c583ca153ad0a69c8b907a9b48cbdc4d55786bbb6e2ac13ff4064736f6c63430005110032",
  "source": "/**\n▓▓▌ ▓▓ ▐▓▓ ▓▓▓▓▓▓▓▓▓▓▌▐▓▓▓▓▓▓▓▓▓▓▓▓▓▓▓▓▓▓ ▓▓▓▓▓▓▓▓▓▓▓▓▓▓▓▓▓▓ ▓▓▓▓▓▓▓▓▓▓▓▓▓▓▓▓▓▄\n▓▓▓▓▓▓▓▓▓▓ ▓▓▓▓▓▓▓▓▓▓▌▐▓▓▓▓▓▓▓▓▓▓▓▓▓▓▓▓▓▓ ▓▓▓▓▓▓▓▓▓▓▓▓▓▓▓▓▓▓ ▓▓▓▓▓▓▓▓▓▓▓▓▓▓▓▓▓▓▓\n  ▓▓▓▓▓▓    ▓▓▓▓▓▓▓▀    ▐▓▓▓▓▓▓    ▐▓▓▓▓▓   ▓▓▓▓▓▓     ▓▓▓▓▓   ▐▓▓▓▓▓▌   ▐▓▓▓▓▓▓\n  ▓▓▓▓▓▓▄▄▓▓▓▓▓▓▓▀      ▐▓▓▓▓▓▓▄▄▄▄         ▓▓▓▓▓▓▄▄▄▄         ▐▓▓▓▓▓▌   ▐▓▓▓▓▓▓\n  ▓▓▓▓▓▓▓▓▓▓▓▓▓▀        ▐▓▓▓▓▓▓▓▓▓▓         ▓▓▓▓▓▓▓▓▓▓▌        ▐▓▓▓▓▓▓▓▓▓▓▓▓▓▓▓▓\n  ▓▓▓▓▓▓▀▀▓▓▓▓▓▓▄       ▐▓▓▓▓▓▓▀▀▀▀         ▓▓▓▓▓▓▀▀▀▀         ▐▓▓▓▓▓▓▓▓▓▓▓▓▓▓▀\n  ▓▓▓▓▓▓   ▀▓▓▓▓▓▓▄     ▐▓▓▓▓▓▓     ▓▓▓▓▓   ▓▓▓▓▓▓     ▓▓▓▓▓   ▐▓▓▓▓▓▌\n▓▓▓▓▓▓▓▓▓▓ █▓▓▓▓▓▓▓▓▓ ▐▓▓▓▓▓▓▓▓▓▓▓▓▓▓▓▓▓▓ ▓▓▓▓▓▓▓▓▓▓▓▓▓▓▓▓▓▓  ▓▓▓▓▓▓▓▓▓▓\n▓▓▓▓▓▓▓▓▓▓ ▓▓▓▓▓▓▓▓▓▓ ▐▓▓▓▓▓▓▓▓▓▓▓▓▓▓▓▓▓▓ ▓▓▓▓▓▓▓▓▓▓▓▓▓▓▓▓▓▓  ▓▓▓▓▓▓▓▓▓▓\n\n                           Trust math, not hardware.\n*/\n\npragma solidity 0.5.17;\n\nimport \"openzeppelin-solidity/contracts/math/SafeMath.sol\";\n\nimport \"openzeppelin-solidity/contracts/ownership/Ownable.sol\";\n\n/// @dev Interface expected to be implemented by contracts added as a gas price\n/// oracle consumers. Consumers are notified by GasPriceOracle every time gas\n/// price change is finalized by calling their refreshGasPrice function. Each\n/// consumer may decide to pull the new value from the oracle immediatelly or\n/// at the moment right for the consumer.\n/// Consumers must be trusted contracts whose refreshGasPrice must always\n/// succeed and never consume excessive gas.\ninterface GasPriceOracleConsumer {\n    function refreshGasPrice() external;\n}\n\n/// @notice Oracle presenting the current gas price. The oracle is manually\n/// updated by its owner.\ncontract GasPriceOracle is Ownable {\n    using SafeMath for uint256;\n\n    event GasPriceUpdated(uint256 newValue);\n\n    uint256 public constant governanceDelay = 1 hours; \n\n    uint256 public gasPrice;\n\n    uint256 public newGasPrice;\n    uint256 public gasPriceChangeInitiated;\n\n    address[] public consumerContracts;\n\n    modifier onlyAfterGovernanceDelay {\n        require(gasPriceChangeInitiated > 0, \"Change not initiated\");\n        require(\n            block.timestamp.sub(gasPriceChangeInitiated) >= governanceDelay,\n            \"Governance delay has not elapsed\"\n        );\n        _;\n    }\n\n    /// @notice Initialize the gas price update. Change is finalized after\n    /// the governance delay elapses.\n    /// @param _newGasPrice New gas price in wei.\n    function beginGasPriceUpdate(uint256 _newGasPrice) public onlyOwner {\n        newGasPrice = _newGasPrice;\n        gasPriceChangeInitiated = block.timestamp;\n    }\n\n    /// @notice Finalizes the gas price update. Finalization may happen only\n    /// after the governance delay elapses.\n    function finalizeGasPriceUpdate() public onlyAfterGovernanceDelay {\n        gasPrice = newGasPrice;\n\n        newGasPrice = 0;\n        gasPriceChangeInitiated = 0;\n\n        emit GasPriceUpdated(gasPrice);\n        \n        for (uint256 i = 0; i < consumerContracts.length; i++) {\n            GasPriceOracleConsumer(consumerContracts[i]).refreshGasPrice();\n        }\n    }\n\n    /// @notice Adds a new consumer contract to the oracle. Consumer contract is\n    /// expected to implement GasPriceOracleConsumer interface and receives\n    /// a notifcation every time gas price update is finalized.\n    /// @param consumerContract The new consumer contract to add to the oracle.\n    function addConsumerContract(address consumerContract) public onlyOwner {\n        consumerContracts.push(consumerContract);\n    }\n\n    /// @notice Removes consumer contract from the oracle by its index.\n    /// @param index Index of the consumer contract to be removed.\n    function removeConsumerContract(uint256 index) public onlyOwner {\n        require(index < consumerContracts.length, \"Invalid index\");\n        consumerContracts[index] = consumerContracts[consumerContracts.length - 1];\n        consumerContracts.length--;\n    }\n\n    /// @notice Returns all consumer contracts currently registered in the\n    /// oracle.\n    function getConsumerContracts() public view returns (address[] memory) {\n        return consumerContracts;\n    }\n}",
  "sourcePath": "/home/bless/keep-core/solidity/contracts/GasPriceOracle.sol",
  "compiler": {
    "name": "solc",
    "version": "0.5.17+commit.d19bba13.Emscripten.clang"
  },
  "schemaVersion": "3.3.3",
  "updatedAt": "2021-01-29T15:47:30.427Z",
  "networkType": "ethereum",
  "devdoc": {
    "methods": {
      "addConsumerContract(address)": {
        "params": {
          "consumerContract": "The new consumer contract to add to the oracle."
        }
      },
      "beginGasPriceUpdate(uint256)": {
        "params": {
          "_newGasPrice": "New gas price in wei."
        }
      },
      "isOwner()": {
        "details": "Returns true if the caller is the current owner."
      },
      "owner()": {
        "details": "Returns the address of the current owner."
      },
      "removeConsumerContract(uint256)": {
        "params": {
          "index": "Index of the consumer contract to be removed."
        }
      },
      "renounceOwnership()": {
        "details": "Leaves the contract without owner. It will not be possible to call `onlyOwner` functions anymore. Can only be called by the current owner.     * NOTE: Renouncing ownership will leave the contract without an owner, thereby removing any functionality that is only available to the owner."
      },
      "transferOwnership(address)": {
        "details": "Transfers ownership of the contract to a new account (`newOwner`). Can only be called by the current owner."
      }
    }
  },
  "userdoc": {
    "methods": {
      "addConsumerContract(address)": {
        "notice": "Adds a new consumer contract to the oracle. Consumer contract is expected to implement GasPriceOracleConsumer interface and receives a notifcation every time gas price update is finalized."
      },
      "beginGasPriceUpdate(uint256)": {
        "notice": "Initialize the gas price update. Change is finalized after the governance delay elapses."
      },
      "finalizeGasPriceUpdate()": {
        "notice": "Finalizes the gas price update. Finalization may happen only after the governance delay elapses."
      },
      "getConsumerContracts()": {
        "notice": "Returns all consumer contracts currently registered in the oracle."
      },
      "removeConsumerContract(uint256)": {
        "notice": "Removes consumer contract from the oracle by its index."
      }
    },
    "notice": "Oracle presenting the current gas price. The oracle is manually updated by its owner."
  }
}