{
  "contractName": "GasPriceOracleConsumerStub",
  "abi": [
    {
      "inputs": [
        {
          "internalType": "contract GasPriceOracle",
          "name": "_gasPriceOracle",
          "type": "address"
        }
      ],
      "payable": false,
      "stateMutability": "nonpayable",
      "type": "constructor"
    },
    {
      "constant": true,
      "inputs": [],
      "name": "gasPrice",
      "outputs": [
        {
          "internalType": "uint256",
          "name": "",
          "type": "uint256"
        }
      ],
      "payable": false,
      "stateMutability": "view",
      "type": "function"
    },
    {
      "constant": false,
      "inputs": [],
      "name": "refreshGasPrice",
      "outputs": [],
      "payable": false,
      "stateMutability": "nonpayable",
      "type": "function"
    }
  ],
  "bytecode": "0x608060405234801561001057600080fd5b506040516101dc3803806101dc8339818101604052602081101561003357600080fd5b8101908080519060200190929190505050806000806101000a81548173ffffffffffffffffffffffffffffffffffffffff021916908373ffffffffffffffffffffffffffffffffffffffff16021790555050610148806100946000396000f3fe608060405234801561001057600080fd5b50600436106100365760003560e01c8063c45751cd1461003b578063fe173b9714610045575b600080fd5b610043610063565b005b61004d61010d565b6040518082815260200191505060405180910390f35b6000809054906101000a900473ffffffffffffffffffffffffffffffffffffffff1673ffffffffffffffffffffffffffffffffffffffff1663fe173b976040518163ffffffff1660e01b815260040160206040518083038186803b1580156100ca57600080fd5b505afa1580156100de573d6000803e3d6000fd5b505050506040513d60208110156100f457600080fd5b8101908080519060200190929190505050600181905550565b6001548156fea265627a7a72315820a893f54c70f3b87ee8a5311023d1b332e4bdaecdf3510f5d2d7d8d349f38b03d64736f6c63430005110032",
  "source": "pragma solidity 0.5.17;\n\nimport \"../GasPriceOracle.sol\";\n\ncontract GasPriceOracleConsumerStub is GasPriceOracleConsumer {\n    GasPriceOracle gasPriceOracle;\n\n    uint256 public gasPrice;\n\n    constructor(GasPriceOracle _gasPriceOracle) public {\n        gasPriceOracle = _gasPriceOracle;\n    }\n\n    function refreshGasPrice() public {\n        gasPrice = gasPriceOracle.gasPrice();\n    }\n}",
  "sourcePath": "/Users/konrad/Desktop/rumble/fin/local-setup/keep-core/solidity/contracts/stubs/GasPriceOracleConsumerStub.sol",
  "compiler": {
    "name": "solc",
    "version": "0.5.17+commit.d19bba13.Emscripten.clang"
  },
  "schemaVersion": "3.3.3",
  "updatedAt": "2021-04-13T12:32:12.906Z",
  "devdoc": {
    "methods": {}
  },
  "userdoc": {
    "methods": {}
  }
}