{
  "contractName": "KeepRandomBeaconOperatorSlashingStub",
  "abi": [
    {
      "inputs": [
        {
          "internalType": "address",
          "name": "_serviceContract",
          "type": "address"
        },
        {
          "internalType": "address",
          "name": "_stakingContract",
          "type": "address"
        },
        {
          "internalType": "address",
          "name": "_registryContract",
          "type": "address"
        },
        {
          "internalType": "address",
          "name": "_gasPriceOracle",
          "type": "address"
        }
      ],
      "payable": false,
      "stateMutability": "nonpayable",
      "type": "constructor"
    },
    {
      "anonymous": false,
      "inputs": [
        {
          "indexed": false,
          "internalType": "uint256",
          "name": "memberIndex",
          "type": "uint256"
        },
        {
          "indexed": false,
          "internalType": "bytes",
          "name": "groupPubKey",
          "type": "bytes"
        },
        {
          "indexed": false,
          "internalType": "bytes",
          "name": "misbehaved",
          "type": "bytes"
        }
      ],
      "name": "DkgResultSubmittedEvent",
      "type": "event"
    },
    {
      "anonymous": false,
      "inputs": [
        {
          "indexed": true,
          "internalType": "address",
          "name": "beneficiary",
          "type": "address"
        },
        {
          "indexed": false,
          "internalType": "address",
          "name": "operator",
          "type": "address"
        },
        {
          "indexed": false,
          "internalType": "uint256",
          "name": "amount",
          "type": "uint256"
        },
        {
          "indexed": false,
          "internalType": "uint256",
          "name": "groupIndex",
          "type": "uint256"
        }
      ],
      "name": "GroupMemberRewardsWithdrawn",
      "type": "event"
    },
    {
      "anonymous": false,
      "inputs": [
        {
          "indexed": false,
          "internalType": "uint256",
          "name": "newEntry",
          "type": "uint256"
        }
      ],
      "name": "GroupSelectionStarted",
      "type": "event"
    },
    {
      "anonymous": false,
      "inputs": [
        {
          "indexed": false,
          "internalType": "bytes",
          "name": "groupPubKey",
          "type": "bytes"
        }
      ],
      "name": "OnGroupRegistered",
      "type": "event"
    },
    {
      "anonymous": false,
      "inputs": [
        {
          "indexed": false,
          "internalType": "bytes",
          "name": "previousEntry",
          "type": "bytes"
        },
        {
          "indexed": false,
          "internalType": "bytes",
          "name": "groupPublicKey",
          "type": "bytes"
        }
      ],
      "name": "RelayEntryRequested",
      "type": "event"
    },
    {
      "anonymous": false,
      "inputs": [],
      "name": "RelayEntrySubmitted",
      "type": "event"
    },
    {
      "anonymous": false,
      "inputs": [
        {
          "indexed": true,
          "internalType": "uint256",
          "name": "groupIndex",
          "type": "uint256"
        }
      ],
      "name": "RelayEntryTimeoutReported",
      "type": "event"
    },
    {
      "anonymous": false,
      "inputs": [
        {
          "indexed": true,
          "internalType": "uint256",
          "name": "groupIndex",
          "type": "uint256"
        }
      ],
      "name": "UnauthorizedSigningReported",
      "type": "event"
    },
    {
      "constant": false,
      "inputs": [
        {
          "internalType": "address",
          "name": "serviceContract",
          "type": "address"
        }
      ],
      "name": "addServiceContract",
      "outputs": [],
      "payable": false,
      "stateMutability": "nonpayable",
      "type": "function"
    },
    {
      "constant": false,
      "inputs": [
        {
          "internalType": "uint256",
          "name": "_newEntry",
          "type": "uint256"
        },
        {
          "internalType": "address payable",
          "name": "submitter",
          "type": "address"
        }
      ],
      "name": "createGroup",
      "outputs": [],
      "payable": true,
      "stateMutability": "payable",
      "type": "function"
    },
    {
      "constant": true,
      "inputs": [],
      "name": "currentRequestGroupIndex",
      "outputs": [
        {
          "internalType": "uint256",
          "name": "",
          "type": "uint256"
        }
      ],
      "payable": false,
      "stateMutability": "view",
      "type": "function"
    },
    {
      "constant": true,
      "inputs": [],
      "name": "currentRequestPreviousEntry",
      "outputs": [
        {
          "internalType": "bytes",
          "name": "",
          "type": "bytes"
        }
      ],
      "payable": false,
      "stateMutability": "view",
      "type": "function"
    },
    {
      "constant": true,
      "inputs": [],
      "name": "currentRequestStartBlock",
      "outputs": [
        {
          "internalType": "uint256",
          "name": "",
          "type": "uint256"
        }
      ],
      "payable": false,
      "stateMutability": "view",
      "type": "function"
    },
    {
      "constant": true,
      "inputs": [],
      "name": "dkgGasEstimate",
      "outputs": [
        {
          "internalType": "uint256",
          "name": "",
          "type": "uint256"
        }
      ],
      "payable": false,
      "stateMutability": "view",
      "type": "function"
    },
    {
      "constant": true,
      "inputs": [],
      "name": "dkgSubmitterReimbursementFee",
      "outputs": [
        {
          "internalType": "uint256",
          "name": "",
          "type": "uint256"
        }
      ],
      "payable": false,
      "stateMutability": "view",
      "type": "function"
    },
    {
      "constant": true,
      "inputs": [],
      "name": "entryVerificationFee",
      "outputs": [
        {
          "internalType": "uint256",
          "name": "",
          "type": "uint256"
        }
      ],
      "payable": false,
      "stateMutability": "view",
      "type": "function"
    },
    {
      "constant": true,
      "inputs": [],
      "name": "entryVerificationGasEstimate",
      "outputs": [
        {
          "internalType": "uint256",
          "name": "",
          "type": "uint256"
        }
      ],
      "payable": false,
      "stateMutability": "view",
      "type": "function"
    },
    {
      "constant": true,
      "inputs": [],
      "name": "gasPriceCeiling",
      "outputs": [
        {
          "internalType": "uint256",
          "name": "",
          "type": "uint256"
        }
      ],
      "payable": false,
      "stateMutability": "view",
      "type": "function"
    },
    {
      "constant": false,
      "inputs": [],
      "name": "genesis",
      "outputs": [],
      "payable": true,
      "stateMutability": "payable",
      "type": "function"
    },
    {
      "constant": true,
      "inputs": [],
      "name": "getFirstActiveGroupIndex",
      "outputs": [
        {
          "internalType": "uint256",
          "name": "",
          "type": "uint256"
        }
      ],
      "payable": false,
      "stateMutability": "view",
      "type": "function"
    },
    {
      "constant": true,
      "inputs": [
        {
          "internalType": "bytes",
          "name": "groupPubKey",
          "type": "bytes"
        }
      ],
      "name": "getGroupMemberRewards",
      "outputs": [
        {
          "internalType": "uint256",
          "name": "",
          "type": "uint256"
        }
      ],
      "payable": false,
      "stateMutability": "view",
      "type": "function"
    },
    {
      "constant": true,
      "inputs": [
        {
          "internalType": "bytes",
          "name": "groupPubKey",
          "type": "bytes"
        }
      ],
      "name": "getGroupMembers",
      "outputs": [
        {
          "internalType": "address[]",
          "name": "members",
          "type": "address[]"
        }
      ],
      "payable": false,
      "stateMutability": "view",
      "type": "function"
    },
    {
      "constant": true,
      "inputs": [
        {
          "internalType": "uint256",
          "name": "groupIndex",
          "type": "uint256"
        }
      ],
      "name": "getGroupPublicKey",
      "outputs": [
        {
          "internalType": "bytes",
          "name": "",
          "type": "bytes"
        }
      ],
      "payable": false,
      "stateMutability": "view",
      "type": "function"
    },
    {
      "constant": true,
      "inputs": [
        {
          "internalType": "uint256",
          "name": "groupIndex",
          "type": "uint256"
        }
      ],
      "name": "getGroupRegistrationTime",
      "outputs": [
        {
          "internalType": "uint256",
          "name": "",
          "type": "uint256"
        }
      ],
      "payable": false,
      "stateMutability": "view",
      "type": "function"
    },
    {
      "constant": true,
      "inputs": [],
      "name": "getNumberOfCreatedGroups",
      "outputs": [
        {
          "internalType": "uint256",
          "name": "",
          "type": "uint256"
        }
      ],
      "payable": false,
      "stateMutability": "view",
      "type": "function"
    },
    {
      "constant": true,
      "inputs": [],
      "name": "groupCreationFee",
      "outputs": [
        {
          "internalType": "uint256",
          "name": "",
          "type": "uint256"
        }
      ],
      "payable": false,
      "stateMutability": "view",
      "type": "function"
    },
    {
      "constant": true,
      "inputs": [],
      "name": "groupMemberBaseReward",
      "outputs": [
        {
          "internalType": "uint256",
          "name": "",
          "type": "uint256"
        }
      ],
      "payable": false,
      "stateMutability": "view",
      "type": "function"
    },
    {
      "constant": true,
      "inputs": [],
      "name": "groupProfitFee",
      "outputs": [
        {
          "internalType": "uint256",
          "name": "",
          "type": "uint256"
        }
      ],
      "payable": false,
      "stateMutability": "view",
      "type": "function"
    },
    {
      "constant": true,
      "inputs": [],
      "name": "groupSelectionGasEstimate",
      "outputs": [
        {
          "internalType": "uint256",
          "name": "",
          "type": "uint256"
        }
      ],
      "payable": false,
      "stateMutability": "view",
      "type": "function"
    },
    {
      "constant": true,
      "inputs": [],
      "name": "groupSize",
      "outputs": [
        {
          "internalType": "uint256",
          "name": "",
          "type": "uint256"
        }
      ],
      "payable": false,
      "stateMutability": "view",
      "type": "function"
    },
    {
      "constant": true,
      "inputs": [],
      "name": "groupThreshold",
      "outputs": [
        {
          "internalType": "uint256",
          "name": "",
          "type": "uint256"
        }
      ],
      "payable": false,
      "stateMutability": "view",
      "type": "function"
    },
    {
      "constant": true,
      "inputs": [
        {
          "internalType": "address",
          "name": "staker",
          "type": "address"
        }
      ],
      "name": "hasMinimumStake",
      "outputs": [
        {
          "internalType": "bool",
          "name": "",
          "type": "bool"
        }
      ],
      "payable": false,
      "stateMutability": "view",
      "type": "function"
    },
    {
      "constant": true,
      "inputs": [
        {
          "internalType": "address",
          "name": "operator",
          "type": "address"
        },
        {
          "internalType": "uint256",
          "name": "groupIndex",
          "type": "uint256"
        }
      ],
      "name": "hasWithdrawnRewards",
      "outputs": [
        {
          "internalType": "bool",
          "name": "",
          "type": "bool"
        }
      ],
      "payable": false,
      "stateMutability": "view",
      "type": "function"
    },
    {
      "constant": true,
      "inputs": [],
      "name": "isEntryInProgress",
      "outputs": [
        {
          "internalType": "bool",
          "name": "",
          "type": "bool"
        }
      ],
      "payable": false,
      "stateMutability": "view",
      "type": "function"
    },
    {
      "constant": true,
      "inputs": [
        {
          "internalType": "bytes",
          "name": "groupPubKey",
          "type": "bytes"
        }
      ],
      "name": "isGroupRegistered",
      "outputs": [
        {
          "internalType": "bool",
          "name": "",
          "type": "bool"
        }
      ],
      "payable": false,
      "stateMutability": "view",
      "type": "function"
    },
    {
      "constant": true,
      "inputs": [],
      "name": "isGroupSelectionPossible",
      "outputs": [
        {
          "internalType": "bool",
          "name": "",
          "type": "bool"
        }
      ],
      "payable": false,
      "stateMutability": "view",
      "type": "function"
    },
    {
      "constant": true,
      "inputs": [
        {
          "internalType": "uint256",
          "name": "groupIndex",
          "type": "uint256"
        }
      ],
      "name": "isGroupTerminated",
      "outputs": [
        {
          "internalType": "bool",
          "name": "",
          "type": "bool"
        }
      ],
      "payable": false,
      "stateMutability": "view",
      "type": "function"
    },
    {
      "constant": true,
      "inputs": [
        {
          "internalType": "bytes",
          "name": "groupPubKey",
          "type": "bytes"
        }
      ],
      "name": "isStaleGroup",
      "outputs": [
        {
          "internalType": "bool",
          "name": "",
          "type": "bool"
        }
      ],
      "payable": false,
      "stateMutability": "view",
      "type": "function"
    },
    {
      "constant": true,
      "inputs": [],
      "name": "numberOfGroups",
      "outputs": [
        {
          "internalType": "uint256",
          "name": "",
          "type": "uint256"
        }
      ],
      "payable": false,
      "stateMutability": "view",
      "type": "function"
    },
    {
      "constant": false,
      "inputs": [],
      "name": "refreshGasPrice",
      "outputs": [],
      "payable": false,
      "stateMutability": "nonpayable",
      "type": "function"
    },
    {
      "constant": false,
      "inputs": [
        {
          "internalType": "bytes",
          "name": "_groupSignature",
          "type": "bytes"
        }
      ],
      "name": "relayEntry",
      "outputs": [],
      "payable": false,
      "stateMutability": "nonpayable",
      "type": "function"
    },
    {
      "constant": true,
      "inputs": [],
      "name": "relayEntryTimeout",
      "outputs": [
        {
          "internalType": "uint256",
          "name": "",
          "type": "uint256"
        }
      ],
      "payable": false,
      "stateMutability": "view",
      "type": "function"
    },
    {
      "constant": false,
      "inputs": [],
      "name": "reportRelayEntryTimeout",
      "outputs": [],
      "payable": false,
      "stateMutability": "nonpayable",
      "type": "function"
    },
    {
      "constant": false,
      "inputs": [
        {
          "internalType": "uint256",
          "name": "groupIndex",
          "type": "uint256"
        },
        {
          "internalType": "bytes",
          "name": "signedMsgSender",
          "type": "bytes"
        }
      ],
      "name": "reportUnauthorizedSigning",
      "outputs": [],
      "payable": false,
      "stateMutability": "nonpayable",
      "type": "function"
    },
    {
      "constant": true,
      "inputs": [],
      "name": "resultPublicationBlockStep",
      "outputs": [
        {
          "internalType": "uint256",
          "name": "",
          "type": "uint256"
        }
      ],
      "payable": false,
      "stateMutability": "view",
      "type": "function"
    },
    {
      "constant": true,
      "inputs": [],
      "name": "selectedParticipants",
      "outputs": [
        {
          "internalType": "address[]",
          "name": "",
          "type": "address[]"
        }
      ],
      "payable": false,
      "stateMutability": "view",
      "type": "function"
    },
    {
      "constant": false,
      "inputs": [
        {
          "internalType": "uint256",
          "name": "requestId",
          "type": "uint256"
        },
        {
          "internalType": "bytes",
          "name": "previousEntry",
          "type": "bytes"
        }
      ],
      "name": "sign",
      "outputs": [],
      "payable": true,
      "stateMutability": "payable",
      "type": "function"
    },
    {
      "constant": false,
      "inputs": [
        {
          "internalType": "uint256",
          "name": "submitterMemberIndex",
          "type": "uint256"
        },
        {
          "internalType": "bytes",
          "name": "groupPubKey",
          "type": "bytes"
        },
        {
          "internalType": "bytes",
          "name": "misbehaved",
          "type": "bytes"
        },
        {
          "internalType": "bytes",
          "name": "signatures",
          "type": "bytes"
        },
        {
          "internalType": "uint256[]",
          "name": "signingMembersIndexes",
          "type": "uint256[]"
        }
      ],
      "name": "submitDkgResult",
      "outputs": [],
      "payable": false,
      "stateMutability": "nonpayable",
      "type": "function"
    },
    {
      "constant": false,
      "inputs": [
        {
          "internalType": "bytes32",
          "name": "ticket",
          "type": "bytes32"
        }
      ],
      "name": "submitTicket",
      "outputs": [],
      "payable": false,
      "stateMutability": "nonpayable",
      "type": "function"
    },
    {
      "constant": true,
      "inputs": [],
      "name": "submittedTickets",
      "outputs": [
        {
          "internalType": "uint64[]",
          "name": "",
          "type": "uint64[]"
        }
      ],
      "payable": false,
      "stateMutability": "view",
      "type": "function"
    },
    {
      "constant": true,
      "inputs": [],
      "name": "ticketSubmissionTimeout",
      "outputs": [
        {
          "internalType": "uint256",
          "name": "",
          "type": "uint256"
        }
      ],
      "payable": false,
      "stateMutability": "view",
      "type": "function"
    },
    {
      "constant": false,
      "inputs": [
        {
          "internalType": "address",
          "name": "operator",
          "type": "address"
        },
        {
          "internalType": "uint256",
          "name": "groupIndex",
          "type": "uint256"
        }
      ],
      "name": "withdrawGroupMemberRewards",
      "outputs": [],
      "payable": false,
      "stateMutability": "nonpayable",
      "type": "function"
    },
    {
      "constant": false,
      "inputs": [
        {
          "internalType": "bytes",
          "name": "groupPublicKey",
          "type": "bytes"
        },
        {
          "internalType": "address[]",
          "name": "members",
          "type": "address[]"
        }
      ],
      "name": "registerNewGroup",
      "outputs": [],
      "payable": false,
      "stateMutability": "nonpayable",
      "type": "function"
    }
  ],
  "bytecode": "0x608060405266038d7ea4c68000601d55640df8475800601e556040601f556021602055600660215562000045602154601f54620002f560201b620047481790919060201c565b602255620445c0602355621a8ce060245562030d406025553480156200006a57600080fd5b5060405162005e0638038062005e06833981810160405260808110156200009057600080fd5b810190808051906020019092919080519060200190929190805190602001909291908051906020019092919050505083838383600160008190555060198490806001815401808255809150509060018203906000526020600020016000909192909190916101000a81548173ffffffffffffffffffffffffffffffffffffffff021916908373ffffffffffffffffffffffffffffffffffffffff1602179055505082601b60006101000a81548173ffffffffffffffffffffffffffffffffffffffff021916908373ffffffffffffffffffffffffffffffffffffffff16021790555081601a60006101000a81548173ffffffffffffffffffffffffffffffffffffffff021916908373ffffffffffffffffffffffffffffffffffffffff16021790555080601c60006101000a81548173ffffffffffffffffffffffffffffffffffffffff021916908373ffffffffffffffffffffffffffffffffffffffff160217905550601b60009054906101000a900473ffffffffffffffffffffffffffffffffffffffff16600b60090160006101000a81548173ffffffffffffffffffffffffffffffffffffffff021916908373ffffffffffffffffffffffffffffffffffffffff16021790555062013b00600b60000181905550602254600b60010181905550604e600160030181905550601f546001600901819055506048601560000181905550602154601560010181905550601f546015600201819055506002602054601f540381620002be57fe5b046020540160156003018190555050505050600a602281905550604560016003018190555060036021819055505050505062000380565b6000808314156200030a57600090506200037a565b60008284029050828482816200031c57fe5b041462000375576040517f08c379a000000000000000000000000000000000000000000000000000000000815260040180806020018281038252602181526020018062005de56021913960400191505060405180910390fd5b809150505b92915050565b615a5580620003906000396000f3fe6080604052600436106102715760003560e01c806379f9fb7e1161014f578063bf952496116100c1578063d12f5e691161007a578063d12f5e69146111f0578063e1f4d6321461130d578063e581ff7414611338578063eb9488d31461140a578063ef7c8f9c14611435578063fdd18b13146114e957610271565b8063bf952496146110df578063c300d0581461110a578063c443894614611135578063c45751cd14611160578063c96e71fb14611177578063c98622fb146111c557610271565b80639b3d270a116101135780639b3d270a14610e165780639dabee4414610edb578063a7f0b3de14610fb7578063ac374f4b14610fc1578063b1c77c8f14611089578063b99f0c43146110b457610271565b806379f9fb7e14610d075780637d7d7dd914610d32578063885c020414610d5d5780638a3a3da814610db05780638e9e56a514610deb57610271565b8063517471a9116101e857806363b635ea116101ac57806363b635ea146109725780636dcc64f81461099d5780636e5636e4146109c85780637031b7ff146109f757806373f1daab14610a225780637760c6c714610cb657610271565b8063517471a9146107935780635c1c0710146107be5780635ec60d6114610827578063618c2656146108765780636262d54e1461090657610271565b806321a8f86c1161023a57806321a8f86c1461056057806324f173131461058f5780632d6f8f31146105ba57806336c857171461069a578063376f7a11146106c55780633926c28e1461073857610271565b80623bf87e146102765780630b19991f146102a15780631c524ac21461030d5780631ed74070146103ed5780631f28260014610404575b600080fd5b34801561028257600080fd5b5061028b611514565b6040518082815260200191505060405180910390f35b3480156102ad57600080fd5b506102b661151a565b6040518080602001828103825283818151815260200191508051906020019060200280838360005b838110156102f95780820151818401526020810190506102de565b505050509050019250505060405180910390f35b34801561031957600080fd5b506103d36004803603602081101561033057600080fd5b810190808035906020019064010000000081111561034d57600080fd5b82018360208201111561035f57600080fd5b8035906020019184600183028401116401000000008311171561038157600080fd5b91908080601f016020809104026020016040519081016040528093929190818152602001838380828437600081840152601f19601f820116905080830192505050505050509192919290505050611648565b604051808215151515815260200191505060405180910390f35b3480156103f957600080fd5b50610402611665565b005b34801561041057600080fd5b5061055e6004803603604081101561042757600080fd5b810190808035906020019064010000000081111561044457600080fd5b82018360208201111561045657600080fd5b8035906020019184600183028401116401000000008311171561047857600080fd5b91908080601f016020809104026020016040519081016040528093929190818152602001838380828437600081840152601f19601f820116905080830192505050505050509192919290803590602001906401000000008111156104db57600080fd5b8201836020820111156104ed57600080fd5b8035906020019184602083028401116401000000008311171561050f57600080fd5b919080806020026020016040519081016040528093929190818152602001838360200280828437600081840152601f19601f820116905080830192505050505050509192919290505050611876565b005b34801561056c57600080fd5b50610575611a85565b604051808215151515815260200191505060405180910390f35b34801561059b57600080fd5b506105a4611ad1565b6040518082815260200191505060405180910390f35b3480156105c657600080fd5b50610680600480360360208110156105dd57600080fd5b81019080803590602001906401000000008111156105fa57600080fd5b82018360208201111561060c57600080fd5b8035906020019184600183028401116401000000008311171561062e57600080fd5b91908080601f016020809104026020016040519081016040528093929190818152602001838380828437600081840152601f19601f820116905080830192505050505050509192919290505050611ad7565b604051808215151515815260200191505060405180910390f35b3480156106a657600080fd5b506106af611bda565b6040518082815260200191505060405180910390f35b3480156106d157600080fd5b5061071e600480360360408110156106e857600080fd5b81019080803573ffffffffffffffffffffffffffffffffffffffff16906020019092919080359060200190929190505050611be0565b604051808215151515815260200191505060405180910390f35b34801561074457600080fd5b506107916004803603604081101561075b57600080fd5b81019080803573ffffffffffffffffffffffffffffffffffffffff16906020019092919080359060200190929190505050611cb3565b005b34801561079f57600080fd5b506107a86120c0565b6040518082815260200191505060405180910390f35b3480156107ca57600080fd5b5061080d600480360360208110156107e157600080fd5b81019080803573ffffffffffffffffffffffffffffffffffffffff1690602001909291905050506120de565b604051808215151515815260200191505060405180910390f35b34801561083357600080fd5b506108606004803603602081101561084a57600080fd5b81019080803590602001909291905050506121f5565b6040518082815260200191505060405180910390f35b34801561088257600080fd5b5061088b612293565b6040518080602001828103825283818151815260200191508051906020019080838360005b838110156108cb5780820151818401526020810190506108b0565b50505050905090810190601f1680156108f85780820380516001836020036101000a031916815260200191505b509250505060405180910390f35b34801561091257600080fd5b5061091b612331565b6040518080602001828103825283818151815260200191508051906020019060200280838360005b8381101561095e578082015181840152602081019050610943565b505050509050019250505060405180910390f35b34801561097e57600080fd5b506109876123c0565b6040518082815260200191505060405180910390f35b3480156109a957600080fd5b506109b26123c6565b6040518082815260200191505060405180910390f35b3480156109d457600080fd5b506109dd6123cc565b604051808215151515815260200191505060405180910390f35b348015610a0357600080fd5b50610a0c6123d9565b6040518082815260200191505060405180910390f35b348015610a2e57600080fd5b50610cb4600480360360a0811015610a4557600080fd5b810190808035906020019092919080359060200190640100000000811115610a6c57600080fd5b820183602082011115610a7e57600080fd5b80359060200191846001830284011164010000000083111715610aa057600080fd5b91908080601f016020809104026020016040519081016040528093929190818152602001838380828437600081840152601f19601f82011690508083019250505050505050919291929080359060200190640100000000811115610b0357600080fd5b820183602082011115610b1557600080fd5b80359060200191846001830284011164010000000083111715610b3757600080fd5b91908080601f016020809104026020016040519081016040528093929190818152602001838380828437600081840152601f19601f82011690508083019250505050505050919291929080359060200190640100000000811115610b9a57600080fd5b820183602082011115610bac57600080fd5b80359060200191846001830284011164010000000083111715610bce57600080fd5b91908080601f016020809104026020016040519081016040528093929190818152602001838380828437600081840152601f19601f82011690508083019250505050505050919291929080359060200190640100000000811115610c3157600080fd5b820183602082011115610c4357600080fd5b80359060200191846020830284011164010000000083111715610c6557600080fd5b919080806020026020016040519081016040528093929190818152602001838360200280828437600081840152601f19601f8201169050808301925050505050505091929192905050506123df565b005b348015610cc257600080fd5b50610d0560048036036020811015610cd957600080fd5b81019080803573ffffffffffffffffffffffffffffffffffffffff169060200190929190505050612ac7565b005b348015610d1357600080fd5b50610d1c612caa565b6040518082815260200191505060405180910390f35b348015610d3e57600080fd5b50610d47612cb0565b6040518082815260200191505060405180910390f35b348015610d6957600080fd5b50610d9660048036036020811015610d8057600080fd5b8101908080359060200190929190505050612cb6565b604051808215151515815260200191505060405180910390f35b348015610dbc57600080fd5b50610de960048036036020811015610dd357600080fd5b8101908080359060200190929190505050612cd3565b005b348015610df757600080fd5b50610e00612e7a565b6040518082815260200191505060405180910390f35b610ed960048036036040811015610e2c57600080fd5b810190808035906020019092919080359060200190640100000000811115610e5357600080fd5b820183602082011115610e6557600080fd5b80359060200191846001830284011164010000000083111715610e8757600080fd5b91908080601f016020809104026020016040519081016040528093929190818152602001838380828437600081840152601f19601f820116905080830192505050505050509192919290505050612e80565b005b348015610ee757600080fd5b50610fa160048036036020811015610efe57600080fd5b8101908080359060200190640100000000811115610f1b57600080fd5b820183602082011115610f2d57600080fd5b80359060200191846001830284011164010000000083111715610f4f57600080fd5b91908080601f016020809104026020016040519081016040528093929190818152602001838380828437600081840152601f19601f820116905080830192505050505050509192919290505050613050565b6040518082815260200191505060405180910390f35b610fbf6130c6565b005b348015610fcd57600080fd5b5061108760048036036020811015610fe457600080fd5b810190808035906020019064010000000081111561100157600080fd5b82018360208201111561101357600080fd5b8035906020019184600183028401116401000000008311171561103557600080fd5b91908080601f016020809104026020016040519081016040528093929190818152602001838380828437600081840152601f19601f8201169050808301925050505050505091929192905050506132d3565b005b34801561109557600080fd5b5061109e613c12565b6040518082815260200191505060405180910390f35b3480156110c057600080fd5b506110c9613c18565b6040518082815260200191505060405180910390f35b3480156110eb57600080fd5b506110f4613c1e565b6040518082815260200191505060405180910390f35b34801561111657600080fd5b5061111f613c2f565b6040518082815260200191505060405180910390f35b34801561114157600080fd5b5061114a613c61565b6040518082815260200191505060405180910390f35b34801561116c57600080fd5b50611175613c7f565b005b6111c36004803603604081101561118d57600080fd5b8101908080359060200190929190803573ffffffffffffffffffffffffffffffffffffffff169060200190929190505050613d2a565b005b3480156111d157600080fd5b506111da61404b565b6040518082815260200191505060405180910390f35b3480156111fc57600080fd5b506112b66004803603602081101561121357600080fd5b810190808035906020019064010000000081111561123057600080fd5b82018360208201111561124257600080fd5b8035906020019184600183028401116401000000008311171561126457600080fd5b91908080601f016020809104026020016040519081016040528093929190818152602001838380828437600081840152601f19601f820116905080830192505050505050509192919290505050614058565b6040518080602001828103825283818151815260200191508051906020019060200280838360005b838110156112f95780820151818401526020810190506112de565b505050509050019250505060405180910390f35b34801561131957600080fd5b506113226141f5565b6040518082815260200191505060405180910390f35b34801561134457600080fd5b506114086004803603604081101561135b57600080fd5b81019080803590602001909291908035906020019064010000000081111561138257600080fd5b82018360208201111561139457600080fd5b803590602001918460018302840111640100000000831117156113b657600080fd5b91908080601f016020809104026020016040519081016040528093929190818152602001838380828437600081840152601f19601f8201169050808301925050505050505091929192905050506141fb565b005b34801561141657600080fd5b5061141f6143b5565b6040518082815260200191505060405180910390f35b34801561144157600080fd5b5061146e6004803603602081101561145857600080fd5b81019080803590602001909291905050506143c2565b6040518080602001828103825283818151815260200191508051906020019080838360005b838110156114ae578082015181840152602081019050611493565b50505050905090810190601f1680156114db5780820380516001836020036101000a031916815260200191505b509250505060405180910390f35b3480156114f557600080fd5b506114fe6143df565b6040518082815260200191505060405180910390f35b60245481565b6060600173__GroupSelection________________________63a3c6b2b390916040518263ffffffff1660e01b81526004018082815260200191505060006040518083038186803b15801561156e57600080fd5b505af4158015611582573d6000803e3d6000fd5b505050506040513d6000823e3d601f19601f8201168201806040525060208110156115ac57600080fd5b81019080805160405193929190846401000000008211156115cc57600080fd5b838201915060208201858111156115e257600080fd5b82518660208202830111640100000000821117156115ff57600080fd5b8083526020830192505050908051906020019060200280838360005b8381101561163657808201518184015260208101905061161b565b50505050905001604052505050905090565b600061165e82600b6143ef90919063ffffffff16565b9050919050565b61166d614467565b6116df576040517f08c379a00000000000000000000000000000000000000000000000000000000081526004018080602001828103825260168152602001807f456e74727920646964206e6f742074696d65206f75740000000000000000000081525060200191505060405180910390fd5b600b73__Groups________________________________63a24940029091602a54601f546040518463ffffffff1660e01b815260040180848152602001838152602001828152602001935050505060006040518083038186803b15801561174557600080fd5b505af4158015611759573d6000803e3d6000fd5b505050506000602981905550600061176f613c1e565b111561184557611844602854602b8054600181600116156101000203166002900480601f0160208091040260200160405190810160405280929190818152602001828054600181600116156101000203166002900480156118115780601f106117e657610100808354040283529160200191611811565b820191906000526020600020905b8154815290600101906020018083116117f457829003601f168201915b5050505050602e60009054906101000a900473ffffffffffffffffffffffffffffffffffffffff16602c54602d54614485565b5b602a547f6675fe3ae219641aa4ec9e58867bd7af88bf03caf819d8858f3ddf4cc635eed260405160405180910390a2565b600b73__Groups________________________________634a1a55fa9091846040518363ffffffff1660e01b81526004018083815260200180602001828103825283818151815260200191508051906020019080838360005b838110156118ea5780820151818401526020810190506118cf565b50505050905090810190601f1680156119175780820380516001836020036101000a031916815260200191505b50935050505060006040518083038186803b15801561193557600080fd5b505af4158015611949573d6000803e3d6000fd5b50505050600b73__Groups________________________________63e130bd67909184846040518463ffffffff1660e01b815260040180848152602001806020018060200180602001848103845286818151815260200191508051906020019080838360005b838110156119ca5780820151818401526020810190506119af565b50505050905090810190601f1680156119f75780820380516001836020036101000a031916815260200191505b50848103835285818151815260200191508051906020019060200280838360005b83811015611a33578082015181840152602081019050611a18565b50505050905001848103825260008152602001602001965050505050505060006040518083038186803b158015611a6957600080fd5b505af4158015611a7d573d6000803e3d6000fd5b505050505050565b6000600160050160009054906101000a900460ff16611aa75760019050611ace565b6000602154601f540260156000015460016003015460016004015401010190508043119150505b90565b60255481565b6000600b73__Groups________________________________63cc9b37c29091846040518363ffffffff1660e01b81526004018083815260200180602001828103825283818151815260200191508051906020019080838360005b83811015611b4d578082015181840152602081019050611b32565b50505050905090810190601f168015611b7a5780820380516001836020036101000a031916815260200191505b50935050505060206040518083038186803b158015611b9857600080fd5b505af4158015611bac573d6000803e3d6000fd5b505050506040513d6020811015611bc257600080fd5b81019080805190602001909291905050509050919050565b60215481565b6000600b73__Groups________________________________634a37cba2909185856040518463ffffffff1660e01b8152600401808481526020018373ffffffffffffffffffffffffffffffffffffffff1673ffffffffffffffffffffffffffffffffffffffff168152602001828152602001935050505060206040518083038186803b158015611c7057600080fd5b505af4158015611c84573d6000803e3d6000fd5b505050506040513d6020811015611c9a57600080fd5b8101908080519060200190929190505050905092915050565b600160008082825401925050819055506000805490506000600b73__Groups________________________________6319818cd3909186866040518463ffffffff1660e01b8152600401808481526020018373ffffffffffffffffffffffffffffffffffffffff1673ffffffffffffffffffffffffffffffffffffffff168152602001828152602001935050505060206040518083038186803b158015611d5957600080fd5b505af4158015611d6d573d6000803e3d6000fd5b505050506040513d6020811015611d8357600080fd5b810190808051906020019092919050505090506000601b60009054906101000a900473ffffffffffffffffffffffffffffffffffffffff1673ffffffffffffffffffffffffffffffffffffffff1663ba7bffd3866040518263ffffffff1660e01b8152600401808273ffffffffffffffffffffffffffffffffffffffff1673ffffffffffffffffffffffffffffffffffffffff16815260200191505060206040518083038186803b158015611e3757600080fd5b505afa158015611e4b573d6000803e3d6000fd5b505050506040513d6020811015611e6157600080fd5b810190808051906020019092919050505073ffffffffffffffffffffffffffffffffffffffff168260405180600001905060006040518083038185875af1925050503d8060008114611ecf576040519150601f19603f3d011682016040523d82523d6000602084013e611ed4565b606091505b50509050801561204257601b60009054906101000a900473ffffffffffffffffffffffffffffffffffffffff1673ffffffffffffffffffffffffffffffffffffffff1663ba7bffd3866040518263ffffffff1660e01b8152600401808273ffffffffffffffffffffffffffffffffffffffff1673ffffffffffffffffffffffffffffffffffffffff16815260200191505060206040518083038186803b158015611f7d57600080fd5b505afa158015611f91573d6000803e3d6000fd5b505050506040513d6020811015611fa757600080fd5b810190808051906020019092919050505073ffffffffffffffffffffffffffffffffffffffff167fd2d1d8bb9db82c3480418ddcddf25a021102ad139edec2a62b274595d408a88d868487604051808473ffffffffffffffffffffffffffffffffffffffff1673ffffffffffffffffffffffffffffffffffffffff168152602001838152602001828152602001935050505060405180910390a25b505060005481146120bb576040517f08c379a000000000000000000000000000000000000000000000000000000000815260040180806020018281038252601f8152602001807f5265656e7472616e637947756172643a207265656e7472616e742063616c6c0081525060200191505060405180910390fd5b505050565b60006120d9601e5460235461474890919063ffffffff16565b905090565b6000601b60009054906101000a900473ffffffffffffffffffffffffffffffffffffffff1673ffffffffffffffffffffffffffffffffffffffff166310a63ec083306040518363ffffffff1660e01b8152600401808373ffffffffffffffffffffffffffffffffffffffff1673ffffffffffffffffffffffffffffffffffffffff1681526020018273ffffffffffffffffffffffffffffffffffffffff1673ffffffffffffffffffffffffffffffffffffffff1681526020019250505060206040518083038186803b1580156121b357600080fd5b505afa1580156121c7573d6000803e3d6000fd5b505050506040513d60208110156121dd57600080fd5b81019080805190602001909291905050509050919050565b6000600b73__Groups________________________________634732bd3b9091846040518363ffffffff1660e01b8152600401808381526020018281526020019250505060206040518083038186803b15801561225157600080fd5b505af4158015612265573d6000803e3d6000fd5b505050506040513d602081101561227b57600080fd5b81019080805190602001909291905050509050919050565b602b8054600181600116156101000203166002900480601f0160208091040260200160405190810160405280929190818152602001828054600181600116156101000203166002900480156123295780601f106122fe57610100808354040283529160200191612329565b820191906000526020600020905b81548152906001019060200180831161230c57829003601f168201915b505050505081565b606060016000018054806020026020016040519081016040528092919081815260200182805480156123b657602002820191906000526020600020906000905b82829054906101000a900467ffffffffffffffff1667ffffffffffffffff16815260200190600801906020826007010492830192600103820291508084116123715790505b5050505050905090565b601f5481565b60205481565b6000806029541415905090565b602a5481565b6001600080828254019250508190555060008054905060606123ff61151a565b9050601573__DKGResultVerification_________________63da0a16899091898989898988600160030154600160040154016040518963ffffffff1660e01b815260040180898152602001888152602001806020018060200180602001806020018060200187815260200186810386528c818151815260200191508051906020019080838360005b838110156124a3578082015181840152602081019050612488565b50505050905090810190601f1680156124d05780820380516001836020036101000a031916815260200191505b5086810385528b818151815260200191508051906020019080838360005b838110156125095780820151818401526020810190506124ee565b50505050905090810190601f1680156125365780820380516001836020036101000a031916815260200191505b5086810384528a818151815260200191508051906020019080838360005b8381101561256f578082015181840152602081019050612554565b50505050905090810190601f16801561259c5780820380516001836020036101000a031916815260200191505b50868103835289818151815260200191508051906020019060200280838360005b838110156125d85780820151818401526020810190506125bd565b50505050905001868103825288818151815260200191508051906020019060200280838360005b8381101561261a5780820151818401526020810190506125ff565b505050509050019d505050505050505050505050505060006040518083038186803b15801561264857600080fd5b505af415801561265c573d6000803e3d6000fd5b50505050600b73__Groups________________________________63e130bd6790918884896040518563ffffffff1660e01b815260040180858152602001806020018060200180602001848103845287818151815260200191508051906020019080838360005b838110156126de5780820151818401526020810190506126c3565b50505050905090810190601f16801561270b5780820380516001836020036101000a031916815260200191505b50848103835286818151815260200191508051906020019060200280838360005b8381101561274757808201518184015260208101905061272c565b50505050905001848103825285818151815260200191508051906020019080838360005b8381101561278657808201518184015260208101905061276b565b50505050905090810190601f1680156127b35780820380516001836020036101000a031916815260200191505b5097505050505050505060006040518083038186803b1580156127d557600080fd5b505af41580156127e9573d6000803e3d6000fd5b50505050600b73__Groups________________________________634a1a55fa9091886040518363ffffffff1660e01b81526004018083815260200180602001828103825283818151815260200191508051906020019080838360005b83811015612861578082015181840152602081019050612846565b50505050905090810190601f16801561288e5780820380516001836020036101000a031916815260200191505b50935050505060006040518083038186803b1580156128ac57600080fd5b505af41580156128c0573d6000803e3d6000fd5b505050506128cc6147ce565b7fd1d71346ed0f1479c55b14e7c48b084207a7e1bcd9abe4f22d425ec23a518a1f878787604051808481526020018060200180602001838103835285818151815260200191508051906020019080838360005b8381101561293a57808201518184015260208101905061291f565b50505050905090810190601f1680156129675780820380516001836020036101000a031916815260200191505b50838103825284818151815260200191508051906020019080838360005b838110156129a0578082015181840152602081019050612985565b50505050905090810190601f1680156129cd5780820380516001836020036101000a031916815260200191505b509550505050505060405180910390a1600173__GroupSelection________________________63a4b15bac90916040518263ffffffff1660e01b81526004018082815260200191505060006040518083038186803b158015612a2f57600080fd5b505af4158015612a43573d6000803e3d6000fd5b50505050506000548114612abf576040517f08c379a000000000000000000000000000000000000000000000000000000000815260040180806020018281038252601f8152602001807f5265656e7472616e637947756172643a207265656e7472616e742063616c6c0081525060200191505060405180910390fd5b505050505050565b3373ffffffffffffffffffffffffffffffffffffffff16601a60009054906101000a900473ffffffffffffffffffffffffffffffffffffffff1673ffffffffffffffffffffffffffffffffffffffff16636557eccf306040518263ffffffff1660e01b8152600401808273ffffffffffffffffffffffffffffffffffffffff1673ffffffffffffffffffffffffffffffffffffffff16815260200191505060206040518083038186803b158015612b7d57600080fd5b505afa158015612b91573d6000803e3d6000fd5b505050506040513d6020811015612ba757600080fd5b810190808051906020019092919050505073ffffffffffffffffffffffffffffffffffffffff1614612c41576040517f08c379a000000000000000000000000000000000000000000000000000000000815260040180806020018281038252600e8152602001807f4e6f7420617574686f72697a656400000000000000000000000000000000000081525060200191505060405180910390fd5b60198190806001815401808255809150509060018203906000526020600020016000909192909190916101000a81548173ffffffffffffffffffffffffffffffffffffffff021916908373ffffffffffffffffffffffffffffffffffffffff1602179055505050565b60235481565b601d5481565b6000612ccc82600b614a7990919063ffffffff16565b9050919050565b6000612dfa600160060154601b60009054906101000a900473ffffffffffffffffffffffffffffffffffffffff1673ffffffffffffffffffffffffffffffffffffffff1663afff33ef33306040518363ffffffff1660e01b8152600401808373ffffffffffffffffffffffffffffffffffffffff1673ffffffffffffffffffffffffffffffffffffffff1681526020018273ffffffffffffffffffffffffffffffffffffffff1673ffffffffffffffffffffffffffffffffffffffff1681526020019250505060206040518083038186803b158015612db157600080fd5b505afa158015612dc5573d6000803e3d6000fd5b505050506040513d6020811015612ddb57600080fd5b8101908080519060200190929190505050614ab190919063ffffffff16565b9050600173__GroupSelection________________________63fb6ed49c909184846040518463ffffffff1660e01b815260040180848152602001838152602001828152602001935050505060006040518083038186803b158015612e5e57600080fd5b505af4158015612e72573d6000803e3d6000fd5b505050505050565b60295481565b612f19336019805480602002602001604051908101604052809291908181526020018280548015612f0657602002820191906000526020600020905b8160009054906101000a900473ffffffffffffffffffffffffffffffffffffffff1673ffffffffffffffffffffffffffffffffffffffff1681526020019060010190808311612ebc575b5050505050614afb90919063ffffffff16565b612f8b576040517f08c379a00000000000000000000000000000000000000000000000000000000081526004018080602001828103825260208152602001807f43616c6c6572206973206e6f742061207365727669636520636f6e747261637481525060200191505060405180910390fd5b6000612fae612f986120c0565b612fa0613c61565b614b7690919063ffffffff16565b905080341015613026576040517f08c379a000000000000000000000000000000000000000000000000000000000815260040180806020018281038252601a8152602001807f496e73756666696369656e74206e657720656e7472792066656500000000000081525060200191505060405180910390fd5b600061303b8234614bfe90919063ffffffff16565b905061304a8484338585614485565b50505050565b6000600b600601826040518082805190602001908083835b6020831061308b5780518252602082019150602081019050602083039250613068565b6001836020036101000a0380198251168184511680821785525050505050509050019150509081526020016040518091039020549050919050565b600b73__Groups________________________________63fff0da7590916040518263ffffffff1660e01b81526004018082815260200191505060006040518083038186803b15801561311857600080fd5b505af415801561312c573d6000803e3d6000fd5b50505050600061313a613c1e565b146131ad576040517f08c379a000000000000000000000000000000000000000000000000000000000815260040180806020018281038252600c8152602001807f47726f757073206578697374000000000000000000000000000000000000000081525060200191505060405180910390fd5b600173__GroupSelection________________________63a4b15bac90916040518263ffffffff1660e01b81526004018082815260200191505060006040518083038186803b1580156131ff57600080fd5b505af4158015613213573d6000803e3d6000fd5b5050505060196132326001601980549050614bfe90919063ffffffff16565b8154811061323c57fe5b9060005260206000200160009054906101000a900473ffffffffffffffffffffffffffffffffffffffff16602760006101000a81548173ffffffffffffffffffffffffffffffffffffffff021916908373ffffffffffffffffffffffffffffffffffffffff1602179055506132d17f4574c8c75d6e88acd28f7e467dac97b5c60c3838d9dad993900bdf402152228e34614c48565b565b600160008082825401925050819055506000805490506132f16123cc565b613363576040517f08c379a00000000000000000000000000000000000000000000000000000000081526004018080602001828103825260138152602001807f456e74727920776173207375626d69747465640000000000000000000000000081525060200191505060405180910390fd5b61336b614467565b156133de576040517f08c379a000000000000000000000000000000000000000000000000000000000815260040180806020018281038252600f8152602001807f456e7472792074696d6564206f7574000000000000000000000000000000000081525060200191505060405180910390fd5b60606133f6602a54600b614f4d90919063ffffffff16565b905073__BLS___________________________________63de8f50a182602b866040518463ffffffff1660e01b815260040180806020018060200180602001848103845287818151815260200191508051906020019080838360005b8381101561346d578082015181840152602081019050613452565b50505050905090810190601f16801561349a5780820380516001836020036101000a031916815260200191505b5084810383528681815460018160011615610100020316600290048152602001915080546001816001161561010002031660029004801561351c5780601f106134f15761010080835404028352916020019161351c565b820191906000526020600020905b8154815290600101906020018083116134ff57829003601f168201915b5050848103825285818151815260200191508051906020019080838360005b8381101561355657808201518184015260208101905061353b565b50505050905090810190601f1680156135835780820380516001836020036101000a031916815260200191505b50965050505050505060206040518083038186803b1580156135a457600080fd5b505af41580156135b8573d6000803e3d6000fd5b505050506040513d60208110156135ce57600080fd5b8101908080519060200190929190505050613651576040517f08c379a00000000000000000000000000000000000000000000000000000000081526004018080602001828103825260118152602001807f496e76616c6964207369676e617475726500000000000000000000000000000081525060200191505060405180910390fd5b7f8711cae111460cf9bde0d890f0dc09abcb8851e39bf020f406e53e86394cdbd760405160405180910390a1602e60009054906101000a900473ffffffffffffffffffffffffffffffffffffffff1673ffffffffffffffffffffffffffffffffffffffff166136cd619c40602554614b7690919063ffffffff16565b602854853360405160240180848152602001806020018373ffffffffffffffffffffffffffffffffffffffff1673ffffffffffffffffffffffffffffffffffffffff168152602001828103825284818151815260200191508051906020019080838360005b8381101561374d578082015181840152602081019050613732565b50505050905090810190601f16801561377a5780820380516001836020036101000a031916815260200191505b509450505050506040516020818303038152906040527fef7284e3000000000000000000000000000000000000000000000000000000007bffffffffffffffffffffffffffffffffffffffffffffffffffffffff19166020820180517bffffffffffffffffffffffffffffffffffffffffffffffffffffffff83818316178352505050506040518082805190602001908083835b60208310613831578051825260208201915060208101905060208303925061380e565b6001836020036101000a03801982511681845116808217855250505050505090500191505060006040518083038160008787f1925050503d8060008114613894576040519150601f19603f3d011682016040523d82523d6000602084013e613899565b606091505b5050506000602d5411156138bb576138ba838051906020012060001c615010565b5b60008060006138c8615491565b9250925092506138e48484600b61564e9092919063ffffffff16565b601b60009054906101000a900473ffffffffffffffffffffffffffffffffffffffff1673ffffffffffffffffffffffffffffffffffffffff1663ba7bffd3336040518263ffffffff1660e01b8152600401808273ffffffffffffffffffffffffffffffffffffffff1673ffffffffffffffffffffffffffffffffffffffff16815260200191505060206040518083038186803b15801561398357600080fd5b505afa158015613997573d6000803e3d6000fd5b505050506040513d60208110156139ad57600080fd5b810190808051906020019092919050505073ffffffffffffffffffffffffffffffffffffffff168260405180600001905060006040518083038185875af1925050503d8060008114613a1b576040519150601f19603f3d011682016040523d82523d6000602084013e613a20565b606091505b5050506000811115613b8b57602e60009054906101000a900473ffffffffffffffffffffffffffffffffffffffff1673ffffffffffffffffffffffffffffffffffffffff166188b8826040516024016040516020818303038152906040527f11e816ee000000000000000000000000000000000000000000000000000000007bffffffffffffffffffffffffffffffffffffffffffffffffffffffff19166020820180517bffffffffffffffffffffffffffffffffffffffffffffffffffffffff83818316178352505050506040518082805190602001908083835b60208310613b1f5780518252602082019150602081019050602083039250613afc565b6001836020036101000a038019825116818451168082178552505050505050905001915050600060405180830381858888f193505050503d8060008114613b82576040519150601f19603f3d011682016040523d82523d6000602084013e613b87565b606091505b5050505b6000602981905550505050506000548114613c0e576040517f08c379a000000000000000000000000000000000000000000000000000000000815260040180806020018281038252601f8152602001807f5265656e7472616e637947756172643a207265656e7472616e742063616c6c0081525060200191505060405180910390fd5b5050565b60265481565b60225481565b6000613c2a600b615740565b905090565b6000613c5c601e54613c4e602554602454614b7690919063ffffffff16565b61474890919063ffffffff16565b905090565b6000613c7a601f54601d5461474890919063ffffffff16565b905090565b601c60009054906101000a900473ffffffffffffffffffffffffffffffffffffffff1673ffffffffffffffffffffffffffffffffffffffff1663fe173b976040518163ffffffff1660e01b815260040160206040518083038186803b158015613ce757600080fd5b505afa158015613cfb573d6000803e3d6000fd5b505050506040513d6020811015613d1157600080fd5b8101908080519060200190929190505050601e81905550565b613dc3336019805480602002602001604051908101604052809291908181526020018280548015613db057602002820191906000526020600020905b8160009054906101000a900473ffffffffffffffffffffffffffffffffffffffff1673ffffffffffffffffffffffffffffffffffffffff1681526020019060010190808311613d66575b5050505050614afb90919063ffffffff16565b613e35576040517f08c379a00000000000000000000000000000000000000000000000000000000081526004018080602001828103825260208152602001807f43616c6c6572206973206e6f742061207365727669636520636f6e747261637481525060200191505060405180910390fd5b6000613e4e601e5460255461474890919063ffffffff16565b905033602760006101000a81548173ffffffffffffffffffffffffffffffffffffffff021916908373ffffffffffffffffffffffffffffffffffffffff160217905550613ead83613ea88334614bfe90919063ffffffff16565b614c48565b6000601b60009054906101000a900473ffffffffffffffffffffffffffffffffffffffff1673ffffffffffffffffffffffffffffffffffffffff1663ba7bffd3846040518263ffffffff1660e01b8152600401808273ffffffffffffffffffffffffffffffffffffffff1673ffffffffffffffffffffffffffffffffffffffff16815260200191505060206040518083038186803b158015613f4e57600080fd5b505afa158015613f62573d6000803e3d6000fd5b505050506040513d6020811015613f7857600080fd5b810190808051906020019092919050505073ffffffffffffffffffffffffffffffffffffffff168260405180600001905060006040518083038185875af1925050503d8060008114613fe6576040519150601f19603f3d011682016040523d82523d6000602084013e613feb565b606091505b5050905080614045576040517f08c379a00000000000000000000000000000000000000000000000000000000081526004018080602001828103825260248152602001806159fd6024913960400191505060405180910390fd5b50505050565b6000600160030154905090565b6060600b73__Groups________________________________63dc2627039091846040518363ffffffff1660e01b81526004018083815260200180602001828103825283818151815260200191508051906020019080838360005b838110156140ce5780820151818401526020810190506140b3565b50505050905090810190601f1680156140fb5780820380516001836020036101000a031916815260200191505b50935050505060006040518083038186803b15801561411957600080fd5b505af415801561412d573d6000803e3d6000fd5b505050506040513d6000823e3d601f19601f82011682018060405250602081101561415757600080fd5b810190808051604051939291908464010000000082111561417757600080fd5b8382019150602082018581111561418d57600080fd5b82518660208202830111640100000000821117156141aa57600080fd5b8083526020830192505050908051906020019060200280838360005b838110156141e15780820151818401526020810190506141c6565b505050509050016040525050509050919050565b601e5481565b600b73__Groups________________________________6320bc286690918484601b60009054906101000a900473ffffffffffffffffffffffffffffffffffffffff1673ffffffffffffffffffffffffffffffffffffffff1663ec5ffac26040518163ffffffff1660e01b815260040160206040518083038186803b15801561428357600080fd5b505afa158015614297573d6000803e3d6000fd5b505050506040513d60208110156142ad57600080fd5b81019080805190602001909291905050506040518563ffffffff1660e01b81526004018085815260200184815260200180602001838152602001828103825284818151815260200191508051906020019080838360005b8381101561431f578082015181840152602081019050614304565b50505050905090810190601f16801561434c5780820380516001836020036101000a031916815260200191505b509550505050505060006040518083038186803b15801561436c57600080fd5b505af4158015614380573d6000803e3d6000fd5b50505050817f6124f28ae7240a98a8ad3410bcd1f3bb0a113fc9834d5bd16426f9e1bd698fde60405160405180910390a25050565b6000600b60080154905090565b60606143d882600b614f4d90919063ffffffff16565b9050919050565b6000600b60030180549050905090565b60008083600201836040518082805190602001908083835b6020831061442a5780518252602082019150602081019050602083039250614407565b6001836020036101000a03801982511681845116808217855250505050505090500191505090815260200160405180910390205411905092915050565b6000806029541415801561448057506022546029540143115b905090565b61448d6123cc565b15614500576040517f08c379a000000000000000000000000000000000000000000000000000000000815260040180806020018281038252600e8152602001807f426561636f6e206973206275737900000000000000000000000000000000000081525060200191505060405180910390fd5b6000600b73__Groups________________________________6337ed6ace9091878051906020012060001c6040518363ffffffff1660e01b8152600401808381526020018281526020019250505060206040518083038186803b15801561456657600080fd5b505af415801561457a573d6000803e3d6000fd5b505050506040513d602081101561459057600080fd5b81019080805190602001909291905050509050856028819055504360298190555082602c8190555081602d8190555080602a8190555084602b90805190602001906145dc929190615936565b5083602e60006101000a81548173ffffffffffffffffffffffffffffffffffffffff021916908373ffffffffffffffffffffffffffffffffffffffff160217905550606061463482600b614f4d90919063ffffffff16565b90507ff3a8bf09e4f9146a48f9b91226985ac8d83d971beb4fc9ffdc569790e85a97e48682604051808060200180602001838103835285818151815260200191508051906020019080838360005b8381101561469d578082015181840152602081019050614682565b50505050905090810190601f1680156146ca5780820380516001836020036101000a031916815260200191505b50838103825284818151815260200191508051906020019080838360005b838110156147035780820151818401526020810190506146e8565b50505050905090810190601f1680156147305780820380516001836020036101000a031916815260200191505b5094505050505060405180910390a150505050505050565b60008083141561475b57600090506147c8565b600082840290508284828161476c57fe5b04146147c3576040517f08c379a00000000000000000000000000000000000000000000000000000000081526004018080602001828103825260218152602001806159dc6021913960400191505060405180910390fd5b809150505b92915050565b6000601e54905060003a1180156147e65750601e543a105b156147ef573a90505b60006148068260245461474890919063ffffffff16565b90506000601b60009054906101000a900473ffffffffffffffffffffffffffffffffffffffff1673ffffffffffffffffffffffffffffffffffffffff1663ba7bffd3336040518263ffffffff1660e01b8152600401808273ffffffffffffffffffffffffffffffffffffffff1673ffffffffffffffffffffffffffffffffffffffff16815260200191505060206040518083038186803b1580156148a957600080fd5b505afa1580156148bd573d6000803e3d6000fd5b505050506040513d60208110156148d357600080fd5b81019080805190602001909291905050509050602654821015614a0057600061490783602654614bfe90919063ffffffff16565b905060006026819055508173ffffffffffffffffffffffffffffffffffffffff168360405180600001905060006040518083038185875af1925050503d806000811461496f576040519150601f19603f3d011682016040523d82523d6000602084013e614974565b606091505b505050602760009054906101000a900473ffffffffffffffffffffffffffffffffffffffff1673ffffffffffffffffffffffffffffffffffffffff16634611b648826040518263ffffffff1660e01b81526004016000604051808303818588803b1580156149e157600080fd5b505af11580156149f5573d6000803e3d6000fd5b505050505050614a74565b602654915060006026819055508073ffffffffffffffffffffffffffffffffffffffff168260405180600001905060006040518083038185875af1925050503d8060008114614a6b576040519150601f19603f3d011682016040523d82523d6000602084013e614a70565b606091505b5050505b505050565b6000826003018281548110614a8a57fe5b906000526020600020906003020160020160009054906101000a900460ff16905092915050565b6000614af383836040518060400160405280601a81526020017f536166654d6174683a206469766973696f6e206279207a65726f000000000000815250615780565b905092915050565b600080600090505b8351811015614b6a57838181518110614b1857fe5b602002602001015173ffffffffffffffffffffffffffffffffffffffff168373ffffffffffffffffffffffffffffffffffffffff161415614b5d576001915050614b70565b8080600101915050614b03565b50600090505b92915050565b600080828401905083811015614bf4576040517f08c379a000000000000000000000000000000000000000000000000000000000815260040180806020018281038252601b8152602001807f536166654d6174683a206164646974696f6e206f766572666c6f77000000000081525060200191505060405180910390fd5b8091505092915050565b6000614c4083836040518060400160405280601e81526020017f536166654d6174683a207375627472616374696f6e206f766572666c6f770000815250615846565b905092915050565b614c5f602454601e5461474890919063ffffffff16565b811015614cd4576040517f08c379a00000000000000000000000000000000000000000000000000000000081526004018080602001828103825260148152602001807f496e73756666696369656e7420444b472066656500000000000000000000000081525060200191505060405180910390fd5b614cdc611a85565b614d4e576040517f08c379a000000000000000000000000000000000000000000000000000000000815260040180806020018281038252601b8152602001807f47726f75702073656c656374696f6e20696e2070726f6772657373000000000081525060200191505060405180910390fd5b60006026541115614ded57600060265490506000602681905550602760009054906101000a900473ffffffffffffffffffffffffffffffffffffffff1673ffffffffffffffffffffffffffffffffffffffff16634611b648826040518263ffffffff1660e01b81526004016000604051808303818588803b158015614dd257600080fd5b505af1158015614de6573d6000803e3d6000fd5b5050505050505b601b60009054906101000a900473ffffffffffffffffffffffffffffffffffffffff1673ffffffffffffffffffffffffffffffffffffffff1663ec5ffac26040518163ffffffff1660e01b815260040160206040518083038186803b158015614e5557600080fd5b505afa158015614e69573d6000803e3d6000fd5b505050506040513d6020811015614e7f57600080fd5b8101908080519060200190929190505050600160060181905550600173__GroupSelection________________________6352f9b3b99091846040518363ffffffff1660e01b8152600401808381526020018281526020019250505060006040518083038186803b158015614ef357600080fd5b505af4158015614f07573d6000803e3d6000fd5b505050507f0769b89b6dbd96af3cdebccc7b68ce1e4ae748abc3e6b19a73b8b58460c57a94826040518082815260200191505060405180910390a1806026819055505050565b6060826003018281548110614f5e57fe5b90600052602060002090600302016000018054600181600116156101000203166002900480601f0160208091040260200160405190810160405280929190818152602001828054600181600116156101000203166002900480156150035780601f10614fd857610100808354040283529160200191615003565b820191906000526020600020905b815481529060010190602001808311614fe657829003601f168201915b5050505050905092915050565b6000615029601e54602d54614ab190919063ffffffff16565b9050621e8480811161503b5780615040565b621e84805b90506060602e60009054906101000a900473ffffffffffffffffffffffffffffffffffffffff1673ffffffffffffffffffffffffffffffffffffffff16619c40602854604051602401808281526020019150506040516020818303038152906040527f0fda9ce4000000000000000000000000000000000000000000000000000000007bffffffffffffffffffffffffffffffffffffffffffffffffffffffff19166020820180517bffffffffffffffffffffffffffffffffffffffffffffffffffffffff83818316178352505050506040518082805190602001908083835b602083106151435780518252602082019150602081019050602083039250615120565b6001836020036101000a03801982511681845116808217855250505050505090500191505060006040518083038160008787f1925050503d80600081146151a6576040519150601f19603f3d011682016040523d82523d6000602084013e6151ab565b606091505b5090508091505060005a9050602e60009054906101000a900473ffffffffffffffffffffffffffffffffffffffff1673ffffffffffffffffffffffffffffffffffffffff16836028548660405160240180838152602001828152602001925050506040516020818303038152906040527ffc3fcec7000000000000000000000000000000000000000000000000000000007bffffffffffffffffffffffffffffffffffffffffffffffffffffffff19166020820180517bffffffffffffffffffffffffffffffffffffffffffffffffffffffff83818316178352505050506040518082805190602001908083835b602083106152bc5780518252602082019150602081019050602083039250615299565b6001836020036101000a03801982511681845116808217855250505050505090500191505060006040518083038160008787f1925050503d806000811461531f576040519150601f19603f3d011682016040523d82523d6000602084013e615324565b606091505b50505060005a905060006153418284614bfe90919063ffffffff16565b905073__Reimbursements________________________6346a50089601b60009054906101000a900473ffffffffffffffffffffffffffffffffffffffff16601e548885602d548a6040518763ffffffff1660e01b8152600401808773ffffffffffffffffffffffffffffffffffffffff1673ffffffffffffffffffffffffffffffffffffffff16815260200186815260200185815260200184815260200183815260200180602001828103825283818151815260200191508051906020019080838360005b83811015615422578082015181840152602081019050615407565b50505050905090810190601f16801561544f5780820380516001836020036101000a031916815260200191505b5097505050505050505060006040518083038186803b15801561547157600080fd5b505af4158015615485573d6000803e3d6000fd5b50505050505050505050565b600080600080662386f26fc100009050600073__DelayFactor___________________________638dfa43636029546022546040518363ffffffff1660e01b8152600401808381526020018281526020019250505060206040518083038186803b1580156154fe57600080fd5b505af4158015615512573d6000803e3d6000fd5b505050506040513d602081101561552857600080fd5b810190808051906020019092919050505090506155628261555483601d5461474890919063ffffffff16565b614ab190919063ffffffff16565b9450600061558d61557c8385614bfe90919063ffffffff16565b601d5461474890919063ffffffff16565b905060006155cb846155bd60056155af601f548761474890919063ffffffff16565b61590690919063ffffffff16565b614ab190919063ffffffff16565b905060006155eb6155da613c61565b602c54614bfe90919063ffffffff16565b90506156008282614b7690919063ffffffff16565b96506156428261563461561e601f548c61474890919063ffffffff16565b615626613c61565b614bfe90919063ffffffff16565b614bfe90919063ffffffff16565b95505050505050909192565b6156cc8184600601846040518082805190602001908083835b6020831061568a5780518252602082019150602081019050602083039250615667565b6001836020036101000a038019825116818451168082178552505050505050905001915050908152602001604051809103902054614b7690919063ffffffff16565b83600601836040518082805190602001908083835b6020831061570457805182526020820191506020810190506020830392506156e1565b6001836020036101000a038019825116818451168082178552505050505050905001915050908152602001604051809103902081905550505050565b6000615779826004018054905061576b84600801548560030180549050614bfe90919063ffffffff16565b614bfe90919063ffffffff16565b9050919050565b6000808311829061582c576040517f08c379a00000000000000000000000000000000000000000000000000000000081526004018080602001828103825283818151815260200191508051906020019080838360005b838110156157f15780820151818401526020810190506157d6565b50505050905090810190601f16801561581e5780820380516001836020036101000a031916815260200191505b509250505060405180910390fd5b50600083858161583857fe5b049050809150509392505050565b60008383111582906158f3576040517f08c379a00000000000000000000000000000000000000000000000000000000081526004018080602001828103825283818151815260200191508051906020019080838360005b838110156158b857808201518184015260208101905061589d565b50505050905090810190601f1680156158e55780820380516001836020036101000a031916815260200191505b509250505060405180910390fd5b5060008385039050809150509392505050565b600061592e6064615920848661474890919063ffffffff16565b614ab190919063ffffffff16565b905092915050565b828054600181600116156101000203166002900490600052602060002090601f016020900481019282601f1061597757805160ff19168380011785556159a5565b828001600101855582156159a5579182015b828111156159a4578251825591602001919060010190615989565b5b5090506159b291906159b6565b5090565b6159d891905b808211156159d45760008160009055506001016159bc565b5090565b9056fe536166654d6174683a206d756c7469706c69636174696f6e206f766572666c6f7747726f75702073656c656374696f6e207265696d62757273656d656e74206661696c6564a265627a7a72315820fca11b8030e0952af75aa93e0c9a25716cc70d9f5f4b1dda298de360968f4c9464736f6c63430005110032536166654d6174683a206d756c7469706c69636174696f6e206f766572666c6f77",
  "source": "pragma solidity 0.5.17;\n\nimport \"../KeepRandomBeaconOperator.sol\";\n\ncontract KeepRandomBeaconOperatorSlashingStub is KeepRandomBeaconOperator {\n\n    constructor(\n        address _serviceContract,\n        address _stakingContract,\n        address _registryContract,\n        address _gasPriceOracle\n    ) KeepRandomBeaconOperator(\n        _serviceContract,\n        _stakingContract,\n        _registryContract,\n        _gasPriceOracle\n    ) public {\n        relayEntryTimeout = 10;\n        groupSelection.ticketSubmissionTimeout = 69;\n        resultPublicationBlockStep = 3;\n    }\n\n    function registerNewGroup(\n        bytes memory groupPublicKey,\n        address[] memory members\n    ) public {\n        groups.addGroup(groupPublicKey);\n        groups.setGroupMembers(groupPublicKey, members, hex\"\");\n    }\n}\n",
  "sourcePath": "/home/bless/keep-core/solidity/contracts/stubs/KeepRandomBeaconOperatorSlashingStub.sol",
  "compiler": {
    "name": "solc",
    "version": "0.5.17+commit.d19bba13.Emscripten.clang"
  },
  "schemaVersion": "3.3.3",
  "updatedAt": "2021-01-29T15:47:02.159Z",
  "devdoc": {
    "methods": {
      "addServiceContract(address)": {
        "params": {
          "serviceContract": "Address of the service contract."
        }
      },
      "createGroup(uint256,address)": {
        "params": {
          "_newEntry": "New random beacon value that stakers will use to generate their tickets.",
          "submitter": "Operator of this contract."
        }
      },
      "hasMinimumStake(address)": {
        "params": {
          "staker": "Staker's address"
        },
        "return": "True if has enough active stake to participate in the network, false otherwise."
      },
      "numberOfGroups()": {
        "details": "Even if numberOfGroups() > 0, it is still possible requesting for a new relay entry will revert with \"no active groups\" failure message. This function returns the number of active groups as they are currently marked on-chain. However, during relay request, before group selection, we run group expiration and it may happen that some groups seen as active turns out to be expired."
      },
      "relayEntry(bytes)": {
        "params": {
          "_groupSignature": "Group BLS signature over the concatenation of the previous entry and seed."
        }
      },
      "sign(uint256,bytes)": {
        "params": {
          "previousEntry": "Previous relay entry",
          "requestId": "Request Id trackable by service contract"
        }
      },
      "submitDkgResult(uint256,bytes,bytes,bytes,uint256[])": {
        "params": {
          "groupPubKey": "Generated candidate group public key",
          "misbehaved": "Bytes array of misbehaved (disqualified or inactive) group members indexes in ascending order; Indexes reflect positions of members in the group as outputted by the group selection protocol.",
          "signatures": "Concatenation of signatures from members supporting the result.",
          "signingMembersIndexes": "Indices of members corresponding to each signature.",
          "submitterMemberIndex": "Claimed submitter candidate group member index"
        }
      },
      "submitTicket(bytes32)": {
        "params": {
          "ticket": "Bytes representation of a ticket that holds the following: - ticketValue: first 8 bytes of a result of keccak256 cryptography hash   function on the combination of the group selection seed (previous   beacon output), staker-specific value (address) and virtual staker index. - stakerValue: a staker-specific value which is the address of the staker. - virtualStakerIndex: 4-bytes number within a range of 1 to staker's weight;   has to be unique for all tickets submitted by the given staker for the   current candidate group selection."
        }
      },
      "withdrawGroupMemberRewards(address,uint256)": {
        "params": {
          "groupIndex": "Group index",
          "operator": "Operator address"
        }
      }
    }
  },
  "userdoc": {
    "methods": {
      "addServiceContract(address)": {
        "notice": "Adds service contract"
      },
      "createGroup(uint256,address)": {
        "notice": "Triggers the selection process of a new candidate group."
      },
      "entryVerificationFee()": {
        "notice": "Returns fee for entry verification in wei. Does not include group profit fee, DKG contribution or callback fee."
      },
      "genesis()": {
        "notice": "Triggers group selection if there are no active groups."
      },
      "getFirstActiveGroupIndex()": {
        "notice": "Gets the index of the first active group."
      },
      "getGroupMemberRewards(bytes)": {
        "notice": "Returns accumulated group member rewards for provided group."
      },
      "getGroupMembers(bytes)": {
        "notice": "Returns members of the given group by group public key."
      },
      "getGroupPublicKey(uint256)": {
        "notice": "Gets public key of the group with the given index."
      },
      "groupCreationFee()": {
        "notice": "Returns fee for group creation in wei. Includes the cost of DKG and the cost of triggering group selection."
      },
      "groupProfitFee()": {
        "notice": "Gets group profit fee expressed in wei."
      },
      "hasMinimumStake(address)": {
        "notice": "Checks if the specified account has enough active stake to become network operator and that this contract has been authorized for potential slashing.     /// Having the required minimum of active stake makes the operator eligible to join the network. If the active stake is not currently undelegating, operator is also eligible for work selection. "
      },
      "hasWithdrawnRewards(address,uint256)": {
        "notice": "Return whether the given operator has withdrawn their rewards from the given group."
      },
      "isEntryInProgress()": {
        "notice": "Returns true if generation of a new relay entry is currently in progress."
      },
      "isGroupRegistered(bytes)": {
        "notice": "Checks if group with the given public key is registered."
      },
      "isGroupSelectionPossible()": {
        "notice": "Checks if it is possible to fire a new group selection. Triggering new group selection is only possible when there is no pending group selection or when the pending group selection timed out."
      },
      "isStaleGroup(bytes)": {
        "notice": "Checks if a group with the given public key is a stale group. Stale group is an expired group which is no longer performing any operations. It is important to understand that an expired group may still perform some operations for which it was selected when it was still active. We consider a group to be stale when it's expired and when its expiration time and potentially executed operation timeout are both in the past."
      },
      "numberOfGroups()": {
        "notice": "Gets the number of active groups as currently marked in the contract. This is the state from when the expired groups were last updated without accounting for recent expirations. "
      },
      "refreshGasPrice()": {
        "notice": "Pulls the most recent gas price from gas price oracle."
      },
      "relayEntry(bytes)": {
        "notice": "Creates a new relay entry and stores the associated data on the chain."
      },
      "reportRelayEntryTimeout()": {
        "notice": "Function used to inform about the fact the currently ongoing new relay entry generation operation timed out. As a result, the group which was supposed to produce a new relay entry is immediately terminated and a new group is selected to produce a new relay entry. All members of the group are punished by seizing minimum stake of their tokens. The submitter of the transaction is rewarded with a tattletale reward which is limited to min(1, 20 / group_size) of the maximum tattletale reward."
      },
      "reportUnauthorizedSigning(uint256,bytes)": {
        "notice": "Reports unauthorized signing for the provided group. Must provide a valid signature of the tattletale address as a message. Successful signature verification means the private key has been leaked and all group members should be punished by seizingtheir tokens. The submitter of this proof is rewarded with 5% of the total seized amount scaled by the reward adjustment parameter and the rest 95% is burned."
      },
      "selectedParticipants()": {
        "notice": "Gets selected participants in ascending order of their tickets."
      },
      "sign(uint256,bytes)": {
        "notice": "Creates a request to generate a new relay entry, which will include a random number (by signing the previous entry's random number)."
      },
      "submitDkgResult(uint256,bytes,bytes,bytes,uint256[])": {
        "notice": "Submits result of DKG protocol. It is on-chain part of phase 14 of the protocol."
      },
      "submitTicket(bytes32)": {
        "notice": "Submits ticket to request to participate in a new candidate group."
      },
      "submittedTickets()": {
        "notice": "Gets the submitted group candidate tickets so far."
      },
      "ticketSubmissionTimeout()": {
        "notice": "Gets the timeout in blocks after which group candidate ticket submission is finished."
      },
      "withdrawGroupMemberRewards(address,uint256)": {
        "notice": "Withdraws accumulated group member rewards for operator using the provided group index. Once the accumulated reward is withdrawn from the selected group, the operator is flagged as withdrawn. Rewards can be withdrawn only from stale group."
      }
    }
  }
}