{
  "contractName": "KeepRandomBeaconServiceUpgradeExample",
  "abi": [
    {
      "inputs": [],
      "payable": false,
      "stateMutability": "nonpayable",
      "type": "constructor"
    },
    {
      "anonymous": false,
      "inputs": [
        {
          "indexed": false,
          "internalType": "uint256",
          "name": "requestId",
          "type": "uint256"
        },
        {
          "indexed": false,
          "internalType": "uint256",
          "name": "entry",
          "type": "uint256"
        }
      ],
      "name": "RelayEntryGenerated",
      "type": "event"
    },
    {
      "anonymous": false,
      "inputs": [
        {
          "indexed": false,
          "internalType": "uint256",
          "name": "requestId",
          "type": "uint256"
        }
      ],
      "name": "RelayEntryRequested",
      "type": "event"
    },
    {
      "constant": false,
      "inputs": [
        {
          "internalType": "address",
          "name": "operatorContract",
          "type": "address"
        }
      ],
      "name": "addOperatorContract",
      "outputs": [],
      "payable": false,
      "stateMutability": "nonpayable",
      "type": "function"
    },
    {
      "constant": true,
      "inputs": [],
      "name": "baseCallbackGas",
      "outputs": [
        {
          "internalType": "uint256",
          "name": "",
          "type": "uint256"
        }
      ],
      "payable": false,
      "stateMutability": "view",
      "type": "function"
    },
    {
      "constant": true,
      "inputs": [
        {
          "internalType": "uint256",
          "name": "requestId",
          "type": "uint256"
        }
      ],
      "name": "callbackSurplusRecipient",
      "outputs": [
        {
          "internalType": "address payable",
          "name": "",
          "type": "address"
        }
      ],
      "payable": false,
      "stateMutability": "view",
      "type": "function"
    },
    {
      "constant": true,
      "inputs": [],
      "name": "dkgContributionMargin",
      "outputs": [
        {
          "internalType": "uint256",
          "name": "",
          "type": "uint256"
        }
      ],
      "payable": false,
      "stateMutability": "view",
      "type": "function"
    },
    {
      "constant": true,
      "inputs": [],
      "name": "dkgFeePool",
      "outputs": [
        {
          "internalType": "uint256",
          "name": "",
          "type": "uint256"
        }
      ],
      "payable": false,
      "stateMutability": "view",
      "type": "function"
    },
    {
      "constant": false,
      "inputs": [
        {
          "internalType": "uint256",
          "name": "requestId",
          "type": "uint256"
        },
        {
          "internalType": "bytes",
          "name": "entry",
          "type": "bytes"
        },
        {
          "internalType": "address payable",
          "name": "submitter",
          "type": "address"
        }
      ],
      "name": "entryCreated",
      "outputs": [],
      "payable": false,
      "stateMutability": "nonpayable",
      "type": "function"
    },
    {
      "constant": true,
      "inputs": [],
      "name": "entryFeeBreakdown",
      "outputs": [
        {
          "internalType": "uint256",
          "name": "entryVerificationFee",
          "type": "uint256"
        },
        {
          "internalType": "uint256",
          "name": "dkgContributionFee",
          "type": "uint256"
        },
        {
          "internalType": "uint256",
          "name": "groupProfitFee",
          "type": "uint256"
        },
        {
          "internalType": "uint256",
          "name": "gasPriceCeiling",
          "type": "uint256"
        }
      ],
      "payable": false,
      "stateMutability": "view",
      "type": "function"
    },
    {
      "constant": true,
      "inputs": [
        {
          "internalType": "uint256",
          "name": "callbackGas",
          "type": "uint256"
        }
      ],
      "name": "entryFeeEstimate",
      "outputs": [
        {
          "internalType": "uint256",
          "name": "",
          "type": "uint256"
        }
      ],
      "payable": false,
      "stateMutability": "view",
      "type": "function"
    },
    {
      "constant": false,
      "inputs": [
        {
          "internalType": "uint256",
          "name": "requestId",
          "type": "uint256"
        },
        {
          "internalType": "uint256",
          "name": "entry",
          "type": "uint256"
        }
      ],
      "name": "executeCallback",
      "outputs": [],
      "payable": false,
      "stateMutability": "nonpayable",
      "type": "function"
    },
    {
      "constant": false,
      "inputs": [],
      "name": "fundDkgFeePool",
      "outputs": [],
      "payable": true,
      "stateMutability": "payable",
      "type": "function"
    },
    {
      "constant": false,
      "inputs": [],
      "name": "fundRequestSubsidyFeePool",
      "outputs": [],
      "payable": true,
      "stateMutability": "payable",
      "type": "function"
    },
    {
      "constant": false,
      "inputs": [
        {
          "internalType": "address",
          "name": "operatorContract",
          "type": "address"
        }
      ],
      "name": "removeOperatorContract",
      "outputs": [],
      "payable": false,
      "stateMutability": "nonpayable",
      "type": "function"
    },
    {
      "constant": false,
      "inputs": [],
      "name": "requestRelayEntry",
      "outputs": [
        {
          "internalType": "uint256",
          "name": "",
          "type": "uint256"
        }
      ],
      "payable": true,
      "stateMutability": "payable",
      "type": "function"
    },
    {
      "constant": false,
      "inputs": [
        {
          "internalType": "address",
          "name": "callbackContract",
          "type": "address"
        },
        {
          "internalType": "uint256",
          "name": "callbackGas",
          "type": "uint256"
        }
      ],
      "name": "requestRelayEntry",
      "outputs": [
        {
          "internalType": "uint256",
          "name": "",
          "type": "uint256"
        }
      ],
      "payable": true,
      "stateMutability": "payable",
      "type": "function"
    },
    {
      "constant": true,
      "inputs": [],
      "name": "requestSubsidyFeePool",
      "outputs": [
        {
          "internalType": "uint256",
          "name": "",
          "type": "uint256"
        }
      ],
      "payable": false,
      "stateMutability": "view",
      "type": "function"
    },
    {
      "constant": true,
      "inputs": [
        {
          "internalType": "uint256",
          "name": "seed",
          "type": "uint256"
        }
      ],
      "name": "selectOperatorContract",
      "outputs": [
        {
          "internalType": "address",
          "name": "",
          "type": "address"
        }
      ],
      "payable": false,
      "stateMutability": "view",
      "type": "function"
    },
    {
      "constant": false,
      "inputs": [
        {
          "internalType": "uint256",
          "name": "dkgContributionMargin",
          "type": "uint256"
        },
        {
          "internalType": "address",
          "name": "registry",
          "type": "address"
        }
      ],
      "name": "initialize",
      "outputs": [],
      "payable": false,
      "stateMutability": "nonpayable",
      "type": "function"
    },
    {
      "constant": true,
      "inputs": [],
      "name": "initialized",
      "outputs": [
        {
          "internalType": "bool",
          "name": "",
          "type": "bool"
        }
      ],
      "payable": false,
      "stateMutability": "view",
      "type": "function"
    },
    {
      "constant": true,
      "inputs": [],
      "name": "getNewVar",
      "outputs": [
        {
          "internalType": "uint256",
          "name": "",
          "type": "uint256"
        }
      ],
      "payable": false,
      "stateMutability": "view",
      "type": "function"
    },
    {
      "constant": true,
      "inputs": [],
      "name": "version",
      "outputs": [
        {
          "internalType": "string",
          "name": "",
          "type": "string"
        }
      ],
      "payable": false,
      "stateMutability": "pure",
      "type": "function"
    }
  ],
  "bytecode": "0x608060405234801561001057600080fd5b5060016000819055506001600a60405180807f4b65657052616e646f6d426561636f6e53657276696365496d706c5631000000815250601d019050908152602001604051809103902060006101000a81548160ff0219169083151502179055506001600a60405180807f4b65657052616e646f6d426561636f6e496d706c5632000000000000000000008152506016019050908152602001604051809103902060006101000a81548160ff021916908315150217905550612d20806100d66000396000f3fe60806040526004361061011f5760003560e01c80636a9b4fed116100a0578063e1f9589011610064578063e1f95890146104a2578063e58990c514610504578063ef7284e314610555578063efc4971f14610647578063fc3fcec7146106c25761011f565b80636a9b4fed14610362578063d09dd5741461038d578063d13f1391146103b8578063da35a26f14610407578063dede8e95146104625761011f565b80632d53fe8b116100e75780632d53fe8b1461022e5780634611b6481461024c57806354fd4d501461025657806360e07ffd146102e6578063687d088e146103375761011f565b80630fda9ce414610124578063100aea0b1461019f57806311e816ee146101ca578063158ef93e146101d4578063280f204314610203575b600080fd5b34801561013057600080fd5b5061015d6004803603602081101561014757600080fd5b8101908080359060200190929190505050610707565b604051808273ffffffffffffffffffffffffffffffffffffffff1673ffffffffffffffffffffffffffffffffffffffff16815260200191505060405180910390f35b3480156101ab57600080fd5b506101b4610747565b6040518082815260200191505060405180910390f35b6101d2610751565b005b3480156101e057600080fd5b506101e9610763565b604051808215151515815260200191505060405180910390f35b34801561020f57600080fd5b506102186107b6565b6040518082815260200191505060405180910390f35b6102366107c0565b6040518082815260200191505060405180910390f35b6102546107d2565b005b34801561026257600080fd5b5061026b6107e4565b6040518080602001828103825283818151815260200191508051906020019080838360005b838110156102ab578082015181840152602081019050610290565b50505050905090810190601f1680156102d85780820380516001836020036101000a031916815260200191505b509250505060405180910390f35b3480156102f257600080fd5b506103356004803603602081101561030957600080fd5b81019080803573ffffffffffffffffffffffffffffffffffffffff169060200190929190505050610821565b005b34801561034357600080fd5b5061034c610b1c565b6040518082815260200191505060405180910390f35b34801561036e57600080fd5b50610377610b26565b6040518082815260200191505060405180910390f35b34801561039957600080fd5b506103a2610b30565b6040518082815260200191505060405180910390f35b3480156103c457600080fd5b506103f1600480360360208110156103db57600080fd5b8101908080359060200190929190505050610b3a565b6040518082815260200191505060405180910390f35b34801561041357600080fd5b506104606004803603604081101561042a57600080fd5b8101908080359060200190929190803573ffffffffffffffffffffffffffffffffffffffff169060200190929190505050610bf9565b005b34801561046e57600080fd5b50610477610d7b565b6040518085815260200184815260200183815260200182815260200194505050505060405180910390f35b6104ee600480360360408110156104b857600080fd5b81019080803573ffffffffffffffffffffffffffffffffffffffff1690602001909291908035906020019092919050505061111a565b6040518082815260200191505060405180910390f35b34801561051057600080fd5b506105536004803603602081101561052757600080fd5b81019080803573ffffffffffffffffffffffffffffffffffffffff169060200190929190505050611854565b005b34801561056157600080fd5b506106456004803603606081101561057857600080fd5b81019080803590602001909291908035906020019064010000000081111561059f57600080fd5b8201836020820111156105b157600080fd5b803590602001918460018302840111640100000000831117156105d357600080fd5b91908080601f016020809104026020016040519081016040528093929190818152602001838380828437600081840152601f19601f820116905080830192505050505050509192919290803573ffffffffffffffffffffffffffffffffffffffff1690602001909291905050506119cf565b005b34801561065357600080fd5b506106806004803603602081101561066a57600080fd5b8101908080359060200190929190505050611b32565b604051808273ffffffffffffffffffffffffffffffffffffffff1673ffffffffffffffffffffffffffffffffffffffff16815260200191505060405180910390f35b3480156106ce57600080fd5b50610705600480360360408110156106e557600080fd5b810190808035906020019092919080359060200190929190505050611f5c565b005b60006007600083815260200190815260200160002060030160009054906101000a900473ffffffffffffffffffffffffffffffffffffffff169050919050565b6000600254905090565b34600360008282540192505081905550565b6000600a60405180807f4b65657052616e646f6d426561636f6e496d706c5632000000000000000000008152506016019050908152602001604051809103902060009054906101000a900460ff16905090565b6000600154905090565b60006107cd60008061111a565b905090565b34600260008282540192505081905550565b60606040518060400160405280600281526020017f5632000000000000000000000000000000000000000000000000000000000000815250905090565b6000600860009054906101000a900473ffffffffffffffffffffffffffffffffffffffff1673ffffffffffffffffffffffffffffffffffffffff166363dc5fcf306040518263ffffffff1660e01b8152600401808273ffffffffffffffffffffffffffffffffffffffff1673ffffffffffffffffffffffffffffffffffffffff16815260200191505060206040518083038186803b1580156108c257600080fd5b505afa1580156108d6573d6000803e3d6000fd5b505050506040513d60208110156108ec57600080fd5b810190808051906020019092919050505090503373ffffffffffffffffffffffffffffffffffffffff168173ffffffffffffffffffffffffffffffffffffffff1614610983576040517f08c379a0000000000000000000000000000000000000000000000000000000008152600401808060200182810382526028815260200180612bb36028913960400191505060405180910390fd5b600860009054906101000a900473ffffffffffffffffffffffffffffffffffffffff1673ffffffffffffffffffffffffffffffffffffffff166384d57689836040518263ffffffff1660e01b8152600401808273ffffffffffffffffffffffffffffffffffffffff1673ffffffffffffffffffffffffffffffffffffffff16815260200191505060206040518083038186803b158015610a2257600080fd5b505afa158015610a36573d6000803e3d6000fd5b505050506040513d6020811015610a4c57600080fd5b8101908080519060200190929190505050610ab2576040517f08c379a0000000000000000000000000000000000000000000000000000000008152600401808060200182810382526021815260200180612b926021913960400191505060405180910390fd5b60098290806001815401808255809150509060018203906000526020600020016000909192909190916101000a81548173ffffffffffffffffffffffffffffffffffffffff021916908373ffffffffffffffffffffffffffffffffffffffff160217905550505050565b6000600354905090565b6000600b54905090565b6000600654905090565b6000621e8480821115610b98576040517f08c379a0000000000000000000000000000000000000000000000000000000008152600401808060200182810382526026815260200180612cc66026913960400191505060405180910390fd5b600080600080610ba6610d7b565b9350935093509350610bee610bbb8783612313565b610be084610bd2878961235990919063ffffffff16565b61235990919063ffffffff16565b61235990919063ffffffff16565b945050505050919050565b610c01610763565b15610c74576040517f08c379a00000000000000000000000000000000000000000000000000000000081526004018080602001828103825260208152602001807f436f6e747261637420697320616c726561647920696e697469616c697a65642e81525060200191505060405180910390fd5b600073ffffffffffffffffffffffffffffffffffffffff168173ffffffffffffffffffffffffffffffffffffffff161415610d17576040517f08c379a000000000000000000000000000000000000000000000000000000000815260040180806020018281038252601a8152602001807f496e636f7272656374207265676973747279206164647265737300000000000081525060200191505060405180910390fd5b6001600a60405180807f4b65657052616e646f6d426561636f6e496d706c5632000000000000000000008152506016019050908152602001604051809103902060006101000a81548160ff0219169083151502179055506104d2600b819055505050565b60008060008060008090505b60098054905081101561101857600060098281548110610da357fe5b9060005260206000200160009054906101000a900473ffffffffffffffffffffffffffffffffffffffff16905060008173ffffffffffffffffffffffffffffffffffffffff1663bf9524966040518163ffffffff1660e01b815260040160206040518083038186803b158015610e1857600080fd5b505afa158015610e2c573d6000803e3d6000fd5b505050506040513d6020811015610e4257600080fd5b8101908080519060200190929190505050111561100a5760008173ffffffffffffffffffffffffffffffffffffffff1663517471a96040518163ffffffff1660e01b815260040160206040518083038186803b158015610ea157600080fd5b505afa158015610eb5573d6000803e3d6000fd5b505050506040513d6020811015610ecb57600080fd5b8101908080519060200190929190505050905086811115610eea578096505b8173ffffffffffffffffffffffffffffffffffffffff1663c44389466040518163ffffffff1660e01b815260040160206040518083038186803b158015610f3057600080fd5b505afa158015610f44573d6000803e3d6000fd5b505050506040513d6020811015610f5a57600080fd5b8101908080519060200190929190505050905084811115610f79578094505b8173ffffffffffffffffffffffffffffffffffffffff1663e1f4d6326040518163ffffffff1660e01b815260040160206040518083038186803b158015610fbf57600080fd5b505afa158015610fd3573d6000803e3d6000fd5b505050506040513d6020811015610fe957600080fd5b8101908080519060200190929190505050905083811115611008578093505b505b508080600101915050610d87565b506000600961103660016009805490506123e190919063ffffffff16565b8154811061104057fe5b9060005260206000200160009054906101000a900473ffffffffffffffffffffffffffffffffffffffff16905060008173ffffffffffffffffffffffffffffffffffffffff1663c300d0586040518163ffffffff1660e01b815260040160206040518083038186803b1580156110b557600080fd5b505afa1580156110c9573d6000803e3d6000fd5b505050506040513d60208110156110df57600080fd5b81019080805190602001909291905050509050856111086001548361242b90919063ffffffff16565b85859550955095509550505090919293565b600060016000808282540192505081905550600080549050621e848083111561118e576040517f08c379a0000000000000000000000000000000000000000000000000000000008152600401808060200182810382526026815260200180612cc66026913960400191505060405180910390fd5b61119783610b3a565b3410156111ef576040517f08c379a0000000000000000000000000000000000000000000000000000000008152600401808060200182810382526026815260200180612c6f6026913960400191505060405180910390fd5b6000806000806111fd610d7b565b9350935093509350600061123e836112308661122289346123e190919063ffffffff16565b6123e190919063ffffffff16565b6123e190919063ffffffff16565b90508360026000828254019250508190555060006112c7600560405180828054600181600116156101000203166002900480156112b25780601f106112905761010080835404028352918201916112b2565b820191906000526020600020905b81548152906001019060200180831161129e575b5050915050604051809103902060001c611b32565b905060006113de8273ffffffffffffffffffffffffffffffffffffffff1663517471a96040518163ffffffff1660e01b815260040160206040518083038186803b15801561131457600080fd5b505afa158015611328573d6000803e3d6000fd5b505050506040513d602081101561133e57600080fd5b81019080805190602001909291905050508373ffffffffffffffffffffffffffffffffffffffff1663c44389466040518163ffffffff1660e01b815260040160206040518083038186803b15801561139557600080fd5b505afa1580156113a9573d6000803e3d6000fd5b505050506040513d60208110156113bf57600080fd5b810190808051906020019092919050505061235990919063ffffffff16565b9050600460008154809291906001019190505550600060045490508273ffffffffffffffffffffffffffffffffffffffff16639b3d270a611428868561235990919063ffffffff16565b8360056040518463ffffffff1660e01b815260040180838152602001806020018281038252838181546001816001161561010002031660029004815260200191508054600181600116156101000203166002900480156114c95780601f1061149e576101008083540402835291602001916114c9565b820191906000526020600020905b8154815290600101906020018083116114ac57829003601f168201915b505093505050506000604051808303818588803b1580156114e957600080fd5b505af11580156114fd573d6000803e3d6000fd5b505050505060006115298361151b898c61235990919063ffffffff16565b6123e190919063ffffffff16565b90506115408160035461235990919063ffffffff16565b600381905550600073ffffffffffffffffffffffffffffffffffffffff168d73ffffffffffffffffffffffffffffffffffffffff16146116805760405180608001604052808e73ffffffffffffffffffffffffffffffffffffffff1681526020018681526020018d81526020013373ffffffffffffffffffffffffffffffffffffffff168152506007600084815260200190815260200160002060008201518160000160006101000a81548173ffffffffffffffffffffffffffffffffffffffff021916908373ffffffffffffffffffffffffffffffffffffffff160217905550602082015181600101556040820151816002015560608201518160030160006101000a81548173ffffffffffffffffffffffffffffffffffffffff021916908373ffffffffffffffffffffffffffffffffffffffff1602179055509050505b6064600354106117935760006116a2600160035461242b90919063ffffffff16565b90508060036000828254039250508190555060003373ffffffffffffffffffffffffffffffffffffffff168260405180600001905060006040518083038185875af1925050503d8060008114611714576040519150601f19603f3d011682016040523d82523d6000602084013e611719565b606091505b5050905080611790576040517f08c379a00000000000000000000000000000000000000000000000000000000081526004018080602001828103825260178152602001807f4661696c65642073656e6420737562736964792066656500000000000000000081525060200191505060405180910390fd5b50505b7fc65bedbc1f2ce56540b8b4e1b7b41261bef9dc7aee32cb3b6806a70c5f4828fa826040518082815260200191505060405180910390a1819a50505050505050505050600054811461184d576040517f08c379a000000000000000000000000000000000000000000000000000000000815260040180806020018281038252601f8152602001807f5265656e7472616e637947756172643a207265656e7472616e742063616c6c0081525060200191505060405180910390fd5b5092915050565b6000600860009054906101000a900473ffffffffffffffffffffffffffffffffffffffff1673ffffffffffffffffffffffffffffffffffffffff166363dc5fcf306040518263ffffffff1660e01b8152600401808273ffffffffffffffffffffffffffffffffffffffff1673ffffffffffffffffffffffffffffffffffffffff16815260200191505060206040518083038186803b1580156118f557600080fd5b505afa158015611909573d6000803e3d6000fd5b505050506040513d602081101561191f57600080fd5b810190808051906020019092919050505090503373ffffffffffffffffffffffffffffffffffffffff168173ffffffffffffffffffffffffffffffffffffffff16146119b6576040517f08c379a0000000000000000000000000000000000000000000000000000000008152600401808060200182810382526028815260200180612bb36028913960400191505060405180910390fd5b6119ca82600961245b90919063ffffffff16565b505050565b611a68336009805480602002602001604051908101604052809291908181526020018280548015611a5557602002820191906000526020600020905b8160009054906101000a900473ffffffffffffffffffffffffffffffffffffffff1673ffffffffffffffffffffffffffffffffffffffff1681526020019060010190808311611a0b575b50505050506125c090919063ffffffff16565b611abd576040517f08c379a0000000000000000000000000000000000000000000000000000000008152600401808060200182810382526037815260200180612c176037913960400191505060405180910390fd5b8160059080519060200190611ad3929190612ac0565b506000828051906020012060001c90507fddb7473cb5eaf3aaa2cf09ea9d573d4876aac471614f99773f32a4b5994ea7e18482604051808381526020018281526020019250505060405180910390a1611b2c818361263b565b50505050565b60008060006060600980549050604051908082528060200260200182016040528015611b6d5781602001602082028038833980820191505090505b50905060008090505b600980549050811015611de957600860009054906101000a900473ffffffffffffffffffffffffffffffffffffffff1673ffffffffffffffffffffffffffffffffffffffff166384d5768960098381548110611bce57fe5b9060005260206000200160009054906101000a900473ffffffffffffffffffffffffffffffffffffffff166040518263ffffffff1660e01b8152600401808273ffffffffffffffffffffffffffffffffffffffff1673ffffffffffffffffffffffffffffffffffffffff16815260200191505060206040518083038186803b158015611c5957600080fd5b505afa158015611c6d573d6000803e3d6000fd5b505050506040513d6020811015611c8357600080fd5b810190808051906020019092919050505015611ddc5760098181548110611ca657fe5b9060005260206000200160009054906101000a900473ffffffffffffffffffffffffffffffffffffffff1673ffffffffffffffffffffffffffffffffffffffff1663bf9524966040518163ffffffff1660e01b815260040160206040518083038186803b158015611d1657600080fd5b505afa158015611d2a573d6000803e3d6000fd5b505050506040513d6020811015611d4057600080fd5b81019080805190602001909291905050508401935060098181548110611d6257fe5b9060005260206000200160009054906101000a900473ffffffffffffffffffffffffffffffffffffffff16828481518110611d9957fe5b602002602001019073ffffffffffffffffffffffffffffffffffffffff16908173ffffffffffffffffffffffffffffffffffffffff168152505082806001019350505b8080600101915050611b76565b5060008311611e43576040517f08c379a0000000000000000000000000000000000000000000000000000000008152600401808060200182810382526031815260200180612c956031913960400191505060405180910390fd5b6000838681611e4e57fe5b06905060008060008090505b85811015611f3957848181518110611e6e57fe5b602002602001015173ffffffffffffffffffffffffffffffffffffffff1663bf9524966040518163ffffffff1660e01b815260040160206040518083038186803b158015611ebb57600080fd5b505afa158015611ecf573d6000803e3d6000fd5b505050506040513d6020811015611ee557600080fd5b81019080805190602001909291905050508201915081841015611f2457848381518110611f0e57fe5b6020026020010151975050505050505050611f57565b82806001019350508080600101915050611e5a565b50838281518110611f4657fe5b602002602001015196505050505050505b919050565b611ff5336009805480602002602001604051908101604052809291908181526020018280548015611fe257602002820191906000526020600020905b8160009054906101000a900473ffffffffffffffffffffffffffffffffffffffff1673ffffffffffffffffffffffffffffffffffffffff1681526020019060010190808311611f98575b50505050506125c090919063ffffffff16565b61204a576040517f08c379a000000000000000000000000000000000000000000000000000000000815260040180806020018281038252603c815260200180612bdb603c913960400191505060405180910390fd5b600073ffffffffffffffffffffffffffffffffffffffff166007600084815260200190815260200160002060000160009054906101000a900473ffffffffffffffffffffffffffffffffffffffff1673ffffffffffffffffffffffffffffffffffffffff161415612123576040517f08c379a000000000000000000000000000000000000000000000000000000000815260040180806020018281038252601b8152602001807f43616c6c6261636b20636f6e7472616374206e6f7420666f756e64000000000081525060200191505060405180910390fd5b6007600083815260200190815260200160002060000160009054906101000a900473ffffffffffffffffffffffffffffffffffffffff1673ffffffffffffffffffffffffffffffffffffffff1681604051602401808281526020019150506040516020818303038152906040527f356e0728000000000000000000000000000000000000000000000000000000007bffffffffffffffffffffffffffffffffffffffffffffffffffffffff19166020820180517bffffffffffffffffffffffffffffffffffffffffffffffffffffffff83818316178352505050506040518082805190602001908083835b60208310612231578051825260208201915060208101905060208303925061220e565b6001836020036101000a0380198251168184511680821785525050505050509050019150506000604051808303816000865af19150503d8060008114612293576040519150601f19603f3d011682016040523d82523d6000602084013e612298565b606091505b50505060076000838152602001908152602001600020600080820160006101000a81549073ffffffffffffffffffffffffffffffffffffffff0219169055600182016000905560028201600090556003820160006101000a81549073ffffffffffffffffffffffffffffffffffffffff021916905550505050565b60008060008414612338576123336006548561235990919063ffffffff16565b61233b565b60005b9050612350838261286a90919063ffffffff16565b91505092915050565b6000808284019050838110156123d7576040517f08c379a000000000000000000000000000000000000000000000000000000000815260040180806020018281038252601b8152602001807f536166654d6174683a206164646974696f6e206f766572666c6f77000000000081525060200191505060405180910390fd5b8091505092915050565b600061242383836040518060400160405280601e81526020017f536166654d6174683a207375627472616374696f6e206f766572666c6f7700008152506128f0565b905092915050565b60006124536064612445848661286a90919063ffffffff16565b6129b090919063ffffffff16565b905092915050565b600080600090505b83805490508110156125b65783818154811061247b57fe5b9060005260206000200160009054906101000a900473ffffffffffffffffffffffffffffffffffffffff1673ffffffffffffffffffffffffffffffffffffffff168373ffffffffffffffffffffffffffffffffffffffff1614156125a95760008190505b6001858054905003811015612589578460018201815481106124fd57fe5b9060005260206000200160009054906101000a900473ffffffffffffffffffffffffffffffffffffffff1685828154811061253457fe5b9060005260206000200160006101000a81548173ffffffffffffffffffffffffffffffffffffffff021916908373ffffffffffffffffffffffffffffffffffffffff16021790555080806001019150506124df565b508380548091906001900361259e9190612b40565b508080600190039150505b8080600101915050612463565b5082905092915050565b600080600090505b835181101561262f578381815181106125dd57fe5b602002602001015173ffffffffffffffffffffffffffffffffffffffff168373ffffffffffffffffffffffffffffffffffffffff161415612622576001915050612635565b80806001019150506125c8565b50600090505b92915050565b6000600961265860016009805490506123e190919063ffffffff16565b8154811061266257fe5b9060005260206000200160009054906101000a900473ffffffffffffffffffffffffffffffffffffffff16905060008173ffffffffffffffffffffffffffffffffffffffff1663c300d0586040518163ffffffff1660e01b815260040160206040518083038186803b1580156126d757600080fd5b505afa1580156126eb573d6000803e3d6000fd5b505050506040513d602081101561270157600080fd5b8101908080519060200190929190505050905080600254101580156127a357508173ffffffffffffffffffffffffffffffffffffffff166321a8f86c6040518163ffffffff1660e01b815260040160206040518083038186803b15801561276757600080fd5b505afa15801561277b573d6000803e3d6000fd5b505050506040513d602081101561279157600080fd5b81019080805190602001909291905050505b15612864578173ffffffffffffffffffffffffffffffffffffffff1663c96e71fb8286866040518463ffffffff1660e01b8152600401808381526020018273ffffffffffffffffffffffffffffffffffffffff1673ffffffffffffffffffffffffffffffffffffffff168152602001925050506000604051808303818588803b15801561282f57600080fd5b505af1158015612843573d6000803e3d6000fd5b505050505061285d816002546123e190919063ffffffff16565b6002819055505b50505050565b60008083141561287d57600090506128ea565b600082840290508284828161288e57fe5b04146128e5576040517f08c379a0000000000000000000000000000000000000000000000000000000008152600401808060200182810382526021815260200180612c4e6021913960400191505060405180910390fd5b809150505b92915050565b600083831115829061299d576040517f08c379a00000000000000000000000000000000000000000000000000000000081526004018080602001828103825283818151815260200191508051906020019080838360005b83811015612962578082015181840152602081019050612947565b50505050905090810190601f16801561298f5780820380516001836020036101000a031916815260200191505b509250505060405180910390fd5b5060008385039050809150509392505050565b60006129f283836040518060400160405280601a81526020017f536166654d6174683a206469766973696f6e206279207a65726f0000000000008152506129fa565b905092915050565b60008083118290612aa6576040517f08c379a00000000000000000000000000000000000000000000000000000000081526004018080602001828103825283818151815260200191508051906020019080838360005b83811015612a6b578082015181840152602081019050612a50565b50505050905090810190601f168015612a985780820380516001836020036101000a031916815260200191505b509250505060405180910390fd5b506000838581612ab257fe5b049050809150509392505050565b828054600181600116156101000203166002900490600052602060002090601f016020900481019282601f10612b0157805160ff1916838001178555612b2f565b82800160010185558215612b2f579182015b82811115612b2e578251825591602001919060010190612b13565b5b509050612b3c9190612b6c565b5090565b815481835581811115612b6757818360005260206000209182019101612b669190612b6c565b5b505050565b612b8e91905b80821115612b8a576000816000905550600101612b72565b5090565b9056fe4f70657261746f7220636f6e7472616374206973206e6f7420617070726f76656443616c6c6572206973206e6f74206f70657261746f7220636f6e74726163742075706772616465724f6e6c7920617574686f72697a6564206f70657261746f7220636f6e74726163742063616e2063616c6c20657865637574652063616c6c6261636b2e4f6e6c7920617574686f72697a6564206f70657261746f7220636f6e74726163742063616e2063616c6c2072656c617920656e7472792e536166654d6174683a206d756c7469706c69636174696f6e206f766572666c6f775061796d656e74206973206c657373207468616e207265717569726564206d696e696d756d2e546f74616c206e756d626572206f662067726f757073206d7573742062652067726561746572207468616e207a65726f2e43616c6c6261636b206761732065786365656473203230303030303020676173206c696d6974a265627a7a7231582035115dedb152e216c0cf085182f09be161fd381e3bf7ef7d35a96468ab53c13264736f6c63430005110032",
  "source": "pragma solidity 0.5.17;\n\nimport \"../KeepRandomBeaconServiceImplV1.sol\";\n\n\n/**\n * @title KeepRandomBeaconServiceUpgradeExample\n * @dev Example version of a new implementation contract to test upgradability\n * under Keep Random Beacon proxy.\n */\ncontract KeepRandomBeaconServiceUpgradeExample is KeepRandomBeaconServiceImplV1 {\n\n    uint256 internal _newVar;\n\n    constructor() public {\n        _initialized[\"KeepRandomBeaconImplV2\"] = true;\n    }\n\n    /**\n     * @dev Example of overriding existing function.\n     * Reference http://solidity.readthedocs.io/en/develop/contracts.html#inheritance\n     * >Functions can be overridden by another function with the same name and the\n     * same number/types of inputs.\n     */\n    function initialize(\n        uint256 dkgContributionMargin,\n        address registry\n    )\n        public\n    {\n        require(!initialized(), \"Contract is already initialized.\");\n        require(registry != address(0), \"Incorrect registry address\");\n        _initialized[\"KeepRandomBeaconImplV2\"] = true;\n        // Example of adding new data to the existing storage.\n        _newVar = 1234;\n\n        // silence solc warnings, it's just an example\n        dkgContributionMargin;\n        registry;\n    }\n\n    /**\n     * @dev Example of overriding initialized function.\n     */\n    function initialized() public view returns (bool) {\n        return _initialized[\"KeepRandomBeaconImplV2\"];\n    }\n\n    /**\n     * @dev Example of adding a new function.\n     */\n    function getNewVar() public view returns (uint256) {\n        return _newVar;\n    }\n\n    function version() public pure returns (string memory) {\n        return \"V2\";\n    }\n}\n",
  "sourcePath": "/home/bless/keep-core/solidity/contracts/examples/KeepRandomBeaconServiceUpgradeExample.sol",
  "compiler": {
    "name": "solc",
    "version": "0.5.17+commit.d19bba13.Emscripten.clang"
  },
  "schemaVersion": "3.3.3",
  "updatedAt": "2021-01-29T15:47:02.063Z",
  "devdoc": {
    "details": "Example version of a new implementation contract to test upgradability under Keep Random Beacon proxy.",
    "methods": {
      "addOperatorContract(address)": {
        "params": {
          "operatorContract": "Address of the operator contract."
        }
      },
      "entryCreated(uint256,bytes,address)": {
        "params": {
          "entry": "The generated random number.",
          "requestId": "Request id tracked internally by this contract.",
          "submitter": "Relay entry submitter."
        }
      },
      "entryFeeEstimate(uint256)": {
        "params": {
          "callbackGas": "Gas required for the callback."
        }
      },
      "executeCallback(uint256,uint256)": {
        "params": {
          "entry": "The generated random number.",
          "requestId": "Request id tracked internally by this contract."
        }
      },
      "getNewVar()": {
        "details": "Example of adding a new function."
      },
      "initialize(uint256,address)": {
        "details": "Example of overriding existing function. Reference http://solidity.readthedocs.io/en/develop/contracts.html#inheritance >Functions can be overridden by another function with the same name and the same number/types of inputs."
      },
      "initialized()": {
        "details": "Example of overriding initialized function."
      },
      "removeOperatorContract(address)": {
        "params": {
          "operatorContract": "Address of the operator contract."
        }
      },
      "requestRelayEntry()": {
        "return": "An uint256 representing uniquely generated entry Id."
      },
      "requestRelayEntry(address,uint256)": {
        "params": {
          "callbackContract": "Callback contract address. Callback is called once a new relay entry has been generated. Callback contract must declare public `__beaconCallback(uint256)` function that is going to be executed with the result, once ready.",
          "callbackGas": "Gas required for the callback (2 million gas max). The customer needs to ensure they provide a sufficient callback gas to cover the gas fee of executing the callback. Any surplus is returned to the customer. If the callback gas amount turns to be not enough to execute the callback, callback execution is skipped."
        },
        "return": "An uint256 representing uniquely generated relay request ID. It is also returned as part of the event."
      },
      "selectOperatorContract(uint256)": {
        "params": {
          "seed": "Cryptographically generated random value."
        },
        "return": "Address of operator contract."
      }
    },
    "title": "KeepRandomBeaconServiceUpgradeExample"
  },
  "userdoc": {
    "methods": {
      "addOperatorContract(address)": {
        "notice": "Adds operator contract"
      },
      "baseCallbackGas()": {
        "notice": "Get base callback gas required for relay entry callback."
      },
      "callbackSurplusRecipient(uint256)": {
        "notice": "Returns callback surplus recipient for the provided request id."
      },
      "dkgContributionMargin()": {
        "notice": "Returns DKG contribution margin - a fraction in % of the estimated cost of DKG that is included in relay request fee."
      },
      "dkgFeePool()": {
        "notice": "Returns the current DKG fee pool value. Every relay request payment includes DKG contribution that is added to the DKG fee pool, once the pool value reaches the required minimum, a new relay entry will trigger the creation of a new group. Expressed in wei."
      },
      "entryCreated(uint256,bytes,address)": {
        "notice": "Store valid entry returned by operator contract and call customer specified callback if required."
      },
      "entryFeeBreakdown()": {
        "notice": "Get the entry fee breakdown in wei for relay entry request."
      },
      "entryFeeEstimate(uint256)": {
        "notice": "Get the entry fee estimate in wei for relay entry request."
      },
      "executeCallback(uint256,uint256)": {
        "notice": "Executes customer specified callback for the relay entry request."
      },
      "fundDkgFeePool()": {
        "notice": "Add funds to DKG fee pool."
      },
      "fundRequestSubsidyFeePool()": {
        "notice": "Add funds to request subsidy fee pool."
      },
      "removeOperatorContract(address)": {
        "notice": "Removes operator contract"
      },
      "requestRelayEntry()": {
        "notice": "Creates a request to generate a new relay entry, which will include a random number (by signing the previous entry's random number)."
      },
      "requestRelayEntry(address,uint256)": {
        "notice": "Creates a request to generate a new relay entry (random number)."
      },
      "requestSubsidyFeePool()": {
        "notice": "Returns the current value of request subsidy pool. Rewards not paid out to the operators are sent to request subsidy pool to subsidize new requests: 1% of the subsidy pool is returned to the requester's surplus address. Expressed in wei."
      },
      "selectOperatorContract(uint256)": {
        "notice": "Selects an operator contract from the available list using modulo operation with seed value weighted by the number of active groups on each operator contract."
      }
    }
  }
}