{
  "contractName": "KeepRandomBeaconOperatorServicePricingStub",
  "abi": [
    {
      "inputs": [
        {
          "internalType": "address",
          "name": "_serviceContract",
          "type": "address"
        },
        {
          "internalType": "address",
          "name": "_stakingContract",
          "type": "address"
        },
        {
          "internalType": "address",
          "name": "_registryContract",
          "type": "address"
        },
        {
          "internalType": "address",
          "name": "_gasPriceOracle",
          "type": "address"
        }
      ],
      "payable": false,
      "stateMutability": "nonpayable",
      "type": "constructor"
    },
    {
      "anonymous": false,
      "inputs": [
        {
          "indexed": false,
          "internalType": "uint256",
          "name": "memberIndex",
          "type": "uint256"
        },
        {
          "indexed": false,
          "internalType": "bytes",
          "name": "groupPubKey",
          "type": "bytes"
        },
        {
          "indexed": false,
          "internalType": "bytes",
          "name": "misbehaved",
          "type": "bytes"
        }
      ],
      "name": "DkgResultSubmittedEvent",
      "type": "event"
    },
    {
      "anonymous": false,
      "inputs": [
        {
          "indexed": true,
          "internalType": "address",
          "name": "beneficiary",
          "type": "address"
        },
        {
          "indexed": false,
          "internalType": "address",
          "name": "operator",
          "type": "address"
        },
        {
          "indexed": false,
          "internalType": "uint256",
          "name": "amount",
          "type": "uint256"
        },
        {
          "indexed": false,
          "internalType": "uint256",
          "name": "groupIndex",
          "type": "uint256"
        }
      ],
      "name": "GroupMemberRewardsWithdrawn",
      "type": "event"
    },
    {
      "anonymous": false,
      "inputs": [
        {
          "indexed": false,
          "internalType": "uint256",
          "name": "newEntry",
          "type": "uint256"
        }
      ],
      "name": "GroupSelectionStarted",
      "type": "event"
    },
    {
      "anonymous": false,
      "inputs": [
        {
          "indexed": false,
          "internalType": "bytes",
          "name": "groupPubKey",
          "type": "bytes"
        }
      ],
      "name": "OnGroupRegistered",
      "type": "event"
    },
    {
      "anonymous": false,
      "inputs": [
        {
          "indexed": false,
          "internalType": "bytes",
          "name": "previousEntry",
          "type": "bytes"
        },
        {
          "indexed": false,
          "internalType": "bytes",
          "name": "groupPublicKey",
          "type": "bytes"
        }
      ],
      "name": "RelayEntryRequested",
      "type": "event"
    },
    {
      "anonymous": false,
      "inputs": [],
      "name": "RelayEntrySubmitted",
      "type": "event"
    },
    {
      "anonymous": false,
      "inputs": [
        {
          "indexed": true,
          "internalType": "uint256",
          "name": "groupIndex",
          "type": "uint256"
        }
      ],
      "name": "RelayEntryTimeoutReported",
      "type": "event"
    },
    {
      "anonymous": false,
      "inputs": [
        {
          "indexed": true,
          "internalType": "uint256",
          "name": "groupIndex",
          "type": "uint256"
        }
      ],
      "name": "UnauthorizedSigningReported",
      "type": "event"
    },
    {
      "constant": false,
      "inputs": [
        {
          "internalType": "address",
          "name": "serviceContract",
          "type": "address"
        }
      ],
      "name": "addServiceContract",
      "outputs": [],
      "payable": false,
      "stateMutability": "nonpayable",
      "type": "function"
    },
    {
      "constant": false,
      "inputs": [
        {
          "internalType": "uint256",
          "name": "_newEntry",
          "type": "uint256"
        },
        {
          "internalType": "address payable",
          "name": "submitter",
          "type": "address"
        }
      ],
      "name": "createGroup",
      "outputs": [],
      "payable": true,
      "stateMutability": "payable",
      "type": "function"
    },
    {
      "constant": true,
      "inputs": [],
      "name": "currentRequestGroupIndex",
      "outputs": [
        {
          "internalType": "uint256",
          "name": "",
          "type": "uint256"
        }
      ],
      "payable": false,
      "stateMutability": "view",
      "type": "function"
    },
    {
      "constant": true,
      "inputs": [],
      "name": "currentRequestPreviousEntry",
      "outputs": [
        {
          "internalType": "bytes",
          "name": "",
          "type": "bytes"
        }
      ],
      "payable": false,
      "stateMutability": "view",
      "type": "function"
    },
    {
      "constant": true,
      "inputs": [],
      "name": "currentRequestStartBlock",
      "outputs": [
        {
          "internalType": "uint256",
          "name": "",
          "type": "uint256"
        }
      ],
      "payable": false,
      "stateMutability": "view",
      "type": "function"
    },
    {
      "constant": true,
      "inputs": [],
      "name": "dkgGasEstimate",
      "outputs": [
        {
          "internalType": "uint256",
          "name": "",
          "type": "uint256"
        }
      ],
      "payable": false,
      "stateMutability": "view",
      "type": "function"
    },
    {
      "constant": true,
      "inputs": [],
      "name": "dkgSubmitterReimbursementFee",
      "outputs": [
        {
          "internalType": "uint256",
          "name": "",
          "type": "uint256"
        }
      ],
      "payable": false,
      "stateMutability": "view",
      "type": "function"
    },
    {
      "constant": true,
      "inputs": [],
      "name": "entryVerificationFee",
      "outputs": [
        {
          "internalType": "uint256",
          "name": "",
          "type": "uint256"
        }
      ],
      "payable": false,
      "stateMutability": "view",
      "type": "function"
    },
    {
      "constant": true,
      "inputs": [],
      "name": "entryVerificationGasEstimate",
      "outputs": [
        {
          "internalType": "uint256",
          "name": "",
          "type": "uint256"
        }
      ],
      "payable": false,
      "stateMutability": "view",
      "type": "function"
    },
    {
      "constant": true,
      "inputs": [],
      "name": "gasPriceCeiling",
      "outputs": [
        {
          "internalType": "uint256",
          "name": "",
          "type": "uint256"
        }
      ],
      "payable": false,
      "stateMutability": "view",
      "type": "function"
    },
    {
      "constant": false,
      "inputs": [],
      "name": "genesis",
      "outputs": [],
      "payable": true,
      "stateMutability": "payable",
      "type": "function"
    },
    {
      "constant": true,
      "inputs": [],
      "name": "getFirstActiveGroupIndex",
      "outputs": [
        {
          "internalType": "uint256",
          "name": "",
          "type": "uint256"
        }
      ],
      "payable": false,
      "stateMutability": "view",
      "type": "function"
    },
    {
      "constant": true,
      "inputs": [
        {
          "internalType": "bytes",
          "name": "groupPubKey",
          "type": "bytes"
        }
      ],
      "name": "getGroupMemberRewards",
      "outputs": [
        {
          "internalType": "uint256",
          "name": "",
          "type": "uint256"
        }
      ],
      "payable": false,
      "stateMutability": "view",
      "type": "function"
    },
    {
      "constant": true,
      "inputs": [
        {
          "internalType": "bytes",
          "name": "groupPubKey",
          "type": "bytes"
        }
      ],
      "name": "getGroupMembers",
      "outputs": [
        {
          "internalType": "address[]",
          "name": "members",
          "type": "address[]"
        }
      ],
      "payable": false,
      "stateMutability": "view",
      "type": "function"
    },
    {
      "constant": true,
      "inputs": [
        {
          "internalType": "uint256",
          "name": "groupIndex",
          "type": "uint256"
        }
      ],
      "name": "getGroupRegistrationTime",
      "outputs": [
        {
          "internalType": "uint256",
          "name": "",
          "type": "uint256"
        }
      ],
      "payable": false,
      "stateMutability": "view",
      "type": "function"
    },
    {
      "constant": true,
      "inputs": [],
      "name": "getNumberOfCreatedGroups",
      "outputs": [
        {
          "internalType": "uint256",
          "name": "",
          "type": "uint256"
        }
      ],
      "payable": false,
      "stateMutability": "view",
      "type": "function"
    },
    {
      "constant": true,
      "inputs": [],
      "name": "groupCreationFee",
      "outputs": [
        {
          "internalType": "uint256",
          "name": "",
          "type": "uint256"
        }
      ],
      "payable": false,
      "stateMutability": "view",
      "type": "function"
    },
    {
      "constant": true,
      "inputs": [],
      "name": "groupMemberBaseReward",
      "outputs": [
        {
          "internalType": "uint256",
          "name": "",
          "type": "uint256"
        }
      ],
      "payable": false,
      "stateMutability": "view",
      "type": "function"
    },
    {
      "constant": true,
      "inputs": [],
      "name": "groupProfitFee",
      "outputs": [
        {
          "internalType": "uint256",
          "name": "",
          "type": "uint256"
        }
      ],
      "payable": false,
      "stateMutability": "view",
      "type": "function"
    },
    {
      "constant": true,
      "inputs": [],
      "name": "groupSelectionGasEstimate",
      "outputs": [
        {
          "internalType": "uint256",
          "name": "",
          "type": "uint256"
        }
      ],
      "payable": false,
      "stateMutability": "view",
      "type": "function"
    },
    {
      "constant": true,
      "inputs": [],
      "name": "groupSize",
      "outputs": [
        {
          "internalType": "uint256",
          "name": "",
          "type": "uint256"
        }
      ],
      "payable": false,
      "stateMutability": "view",
      "type": "function"
    },
    {
      "constant": true,
      "inputs": [],
      "name": "groupThreshold",
      "outputs": [
        {
          "internalType": "uint256",
          "name": "",
          "type": "uint256"
        }
      ],
      "payable": false,
      "stateMutability": "view",
      "type": "function"
    },
    {
      "constant": true,
      "inputs": [
        {
          "internalType": "address",
          "name": "staker",
          "type": "address"
        }
      ],
      "name": "hasMinimumStake",
      "outputs": [
        {
          "internalType": "bool",
          "name": "",
          "type": "bool"
        }
      ],
      "payable": false,
      "stateMutability": "view",
      "type": "function"
    },
    {
      "constant": true,
      "inputs": [
        {
          "internalType": "address",
          "name": "operator",
          "type": "address"
        },
        {
          "internalType": "uint256",
          "name": "groupIndex",
          "type": "uint256"
        }
      ],
      "name": "hasWithdrawnRewards",
      "outputs": [
        {
          "internalType": "bool",
          "name": "",
          "type": "bool"
        }
      ],
      "payable": false,
      "stateMutability": "view",
      "type": "function"
    },
    {
      "constant": true,
      "inputs": [],
      "name": "isEntryInProgress",
      "outputs": [
        {
          "internalType": "bool",
          "name": "",
          "type": "bool"
        }
      ],
      "payable": false,
      "stateMutability": "view",
      "type": "function"
    },
    {
      "constant": true,
      "inputs": [
        {
          "internalType": "bytes",
          "name": "groupPubKey",
          "type": "bytes"
        }
      ],
      "name": "isGroupRegistered",
      "outputs": [
        {
          "internalType": "bool",
          "name": "",
          "type": "bool"
        }
      ],
      "payable": false,
      "stateMutability": "view",
      "type": "function"
    },
    {
      "constant": true,
      "inputs": [],
      "name": "isGroupSelectionPossible",
      "outputs": [
        {
          "internalType": "bool",
          "name": "",
          "type": "bool"
        }
      ],
      "payable": false,
      "stateMutability": "view",
      "type": "function"
    },
    {
      "constant": true,
      "inputs": [
        {
          "internalType": "uint256",
          "name": "groupIndex",
          "type": "uint256"
        }
      ],
      "name": "isGroupTerminated",
      "outputs": [
        {
          "internalType": "bool",
          "name": "",
          "type": "bool"
        }
      ],
      "payable": false,
      "stateMutability": "view",
      "type": "function"
    },
    {
      "constant": true,
      "inputs": [
        {
          "internalType": "bytes",
          "name": "groupPubKey",
          "type": "bytes"
        }
      ],
      "name": "isStaleGroup",
      "outputs": [
        {
          "internalType": "bool",
          "name": "",
          "type": "bool"
        }
      ],
      "payable": false,
      "stateMutability": "view",
      "type": "function"
    },
    {
      "constant": true,
      "inputs": [],
      "name": "numberOfGroups",
      "outputs": [
        {
          "internalType": "uint256",
          "name": "",
          "type": "uint256"
        }
      ],
      "payable": false,
      "stateMutability": "view",
      "type": "function"
    },
    {
      "constant": false,
      "inputs": [],
      "name": "refreshGasPrice",
      "outputs": [],
      "payable": false,
      "stateMutability": "nonpayable",
      "type": "function"
    },
    {
      "constant": false,
      "inputs": [
        {
          "internalType": "bytes",
          "name": "_groupSignature",
          "type": "bytes"
        }
      ],
      "name": "relayEntry",
      "outputs": [],
      "payable": false,
      "stateMutability": "nonpayable",
      "type": "function"
    },
    {
      "constant": true,
      "inputs": [],
      "name": "relayEntryTimeout",
      "outputs": [
        {
          "internalType": "uint256",
          "name": "",
          "type": "uint256"
        }
      ],
      "payable": false,
      "stateMutability": "view",
      "type": "function"
    },
    {
      "constant": false,
      "inputs": [],
      "name": "reportRelayEntryTimeout",
      "outputs": [],
      "payable": false,
      "stateMutability": "nonpayable",
      "type": "function"
    },
    {
      "constant": false,
      "inputs": [
        {
          "internalType": "uint256",
          "name": "groupIndex",
          "type": "uint256"
        },
        {
          "internalType": "bytes",
          "name": "signedMsgSender",
          "type": "bytes"
        }
      ],
      "name": "reportUnauthorizedSigning",
      "outputs": [],
      "payable": false,
      "stateMutability": "nonpayable",
      "type": "function"
    },
    {
      "constant": true,
      "inputs": [],
      "name": "resultPublicationBlockStep",
      "outputs": [
        {
          "internalType": "uint256",
          "name": "",
          "type": "uint256"
        }
      ],
      "payable": false,
      "stateMutability": "view",
      "type": "function"
    },
    {
      "constant": true,
      "inputs": [],
      "name": "selectedParticipants",
      "outputs": [
        {
          "internalType": "address[]",
          "name": "",
          "type": "address[]"
        }
      ],
      "payable": false,
      "stateMutability": "view",
      "type": "function"
    },
    {
      "constant": false,
      "inputs": [
        {
          "internalType": "uint256",
          "name": "requestId",
          "type": "uint256"
        },
        {
          "internalType": "bytes",
          "name": "previousEntry",
          "type": "bytes"
        }
      ],
      "name": "sign",
      "outputs": [],
      "payable": true,
      "stateMutability": "payable",
      "type": "function"
    },
    {
      "constant": false,
      "inputs": [
        {
          "internalType": "uint256",
          "name": "submitterMemberIndex",
          "type": "uint256"
        },
        {
          "internalType": "bytes",
          "name": "groupPubKey",
          "type": "bytes"
        },
        {
          "internalType": "bytes",
          "name": "misbehaved",
          "type": "bytes"
        },
        {
          "internalType": "bytes",
          "name": "signatures",
          "type": "bytes"
        },
        {
          "internalType": "uint256[]",
          "name": "signingMembersIndexes",
          "type": "uint256[]"
        }
      ],
      "name": "submitDkgResult",
      "outputs": [],
      "payable": false,
      "stateMutability": "nonpayable",
      "type": "function"
    },
    {
      "constant": false,
      "inputs": [
        {
          "internalType": "bytes32",
          "name": "ticket",
          "type": "bytes32"
        }
      ],
      "name": "submitTicket",
      "outputs": [],
      "payable": false,
      "stateMutability": "nonpayable",
      "type": "function"
    },
    {
      "constant": true,
      "inputs": [],
      "name": "submittedTickets",
      "outputs": [
        {
          "internalType": "uint64[]",
          "name": "",
          "type": "uint64[]"
        }
      ],
      "payable": false,
      "stateMutability": "view",
      "type": "function"
    },
    {
      "constant": true,
      "inputs": [],
      "name": "ticketSubmissionTimeout",
      "outputs": [
        {
          "internalType": "uint256",
          "name": "",
          "type": "uint256"
        }
      ],
      "payable": false,
      "stateMutability": "view",
      "type": "function"
    },
    {
      "constant": false,
      "inputs": [
        {
          "internalType": "address",
          "name": "operator",
          "type": "address"
        },
        {
          "internalType": "uint256",
          "name": "groupIndex",
          "type": "uint256"
        }
      ],
      "name": "withdrawGroupMemberRewards",
      "outputs": [],
      "payable": false,
      "stateMutability": "nonpayable",
      "type": "function"
    },
    {
      "constant": false,
      "inputs": [
        {
          "internalType": "bytes",
          "name": "groupPublicKey",
          "type": "bytes"
        }
      ],
      "name": "registerNewGroup",
      "outputs": [],
      "payable": false,
      "stateMutability": "nonpayable",
      "type": "function"
    },
    {
      "constant": false,
      "inputs": [
        {
          "internalType": "bytes",
          "name": "groupPublicKey",
          "type": "bytes"
        },
        {
          "internalType": "address[]",
          "name": "members",
          "type": "address[]"
        }
      ],
      "name": "setGroupMembers",
      "outputs": [],
      "payable": false,
      "stateMutability": "nonpayable",
      "type": "function"
    },
    {
      "constant": true,
      "inputs": [
        {
          "internalType": "uint256",
          "name": "groupIndex",
          "type": "uint256"
        }
      ],
      "name": "getGroupPublicKey",
      "outputs": [
        {
          "internalType": "bytes",
          "name": "",
          "type": "bytes"
        }
      ],
      "payable": false,
      "stateMutability": "view",
      "type": "function"
    },
    {
      "constant": false,
      "inputs": [
        {
          "internalType": "uint256",
          "name": "_gasPriceCeiling",
          "type": "uint256"
        }
      ],
      "name": "setGasPriceCeiling",
      "outputs": [],
      "payable": false,
      "stateMutability": "nonpayable",
      "type": "function"
    }
  ],
  "bytecode": "0x608060405266038d7ea4c68000601d55640df8475800601e556040601f556021602055600660215562000045602154601f546200031360201b620049141790919060201c565b602255620445c0602355621a8ce060245562030d406025553480156200006a57600080fd5b5060405162005ff038038062005ff0833981810160405260808110156200009057600080fd5b810190808051906020019092919080519060200190929190805190602001909291908051906020019092919050505083838383600160008190555060198490806001815401808255809150509060018203906000526020600020016000909192909190916101000a81548173ffffffffffffffffffffffffffffffffffffffff021916908373ffffffffffffffffffffffffffffffffffffffff1602179055505082601b60006101000a81548173ffffffffffffffffffffffffffffffffffffffff021916908373ffffffffffffffffffffffffffffffffffffffff16021790555081601a60006101000a81548173ffffffffffffffffffffffffffffffffffffffff021916908373ffffffffffffffffffffffffffffffffffffffff16021790555080601c60006101000a81548173ffffffffffffffffffffffffffffffffffffffff021916908373ffffffffffffffffffffffffffffffffffffffff160217905550601b60009054906101000a900473ffffffffffffffffffffffffffffffffffffffff16600b60090160006101000a81548173ffffffffffffffffffffffffffffffffffffffff021916908373ffffffffffffffffffffffffffffffffffffffff16021790555062013b00600b60000181905550602254600b60010181905550604e600160030181905550601f546001600901819055506048601560000181905550602154601560010181905550601f546015600201819055506002602054601f540381620002be57fe5b046020540160156003018190555050505050600a602281905550604560016003018190555060036021819055506003601f8190555060036001600901819055506003601560020181905550505050506200039e565b60008083141562000328576000905062000398565b60008284029050828482816200033a57fe5b041462000393576040517f08c379a000000000000000000000000000000000000000000000000000000000815260040180806020018281038252602181526020018062005fcf6021913960400191505060405180910390fd5b809150505b92915050565b615c2180620003ae6000396000f3fe6080604052600436106102875760003560e01c80637760c6c71161015a578063bf952496116100c1578063d12f5e691161007a578063d12f5e6914611309578063e1f4d63214611426578063e581ff7414611451578063eb9488d314611523578063ef7c8f9c1461154e578063fdd18b131461160257610287565b8063bf952496146111f8578063c300d05814611223578063c44389461461124e578063c45751cd14611279578063c96e71fb14611290578063c98622fb146112de57610287565b80639b3d270a116101135780639b3d270a14610f2f5780639dabee4414610ff4578063a7f0b3de146110d0578063ac374f4b146110da578063b1c77c8f146111a2578063b99f0c43146111cd57610287565b80637760c6c714610dcf57806379f9fb7e14610e205780637d7d7dd914610e4b578063885c020414610e765780638a3a3da814610ec95780638e9e56a514610f0457610287565b8063498e26b5116101fe57806363b635ea116101b757806363b635ea1461092f57806365298c641461095a5780636dcc64f814610ab65780636e5636e414610ae15780637031b7ff14610b1057806373f1daab14610b3b57610287565b8063498e26b514610715578063517471a9146107505780635c1c07101461077b5780635ec60d61146107e4578063618c2656146108335780636262d54e146108c357610287565b806321a8f86c1161025057806321a8f86c146104e257806324f17313146105115780632d6f8f311461053c57806336c857171461061c578063376f7a11146106475780633926c28e146106ba57610287565b80623bf87e1461028c57806309da3938146102b75780630b19991f1461037f5780631c524ac2146103eb5780631ed74070146104cb575b600080fd5b34801561029857600080fd5b506102a161162d565b6040518082815260200191505060405180910390f35b3480156102c357600080fd5b5061037d600480360360208110156102da57600080fd5b81019080803590602001906401000000008111156102f757600080fd5b82018360208201111561030957600080fd5b8035906020019184600183028401116401000000008311171561032b57600080fd5b91908080601f016020809104026020016040519081016040528093929190818152602001838380828437600081840152601f19601f820116905080830192505050505050509192919290505050611633565b005b34801561038b57600080fd5b5061039461170d565b6040518080602001828103825283818151815260200191508051906020019060200280838360005b838110156103d75780820151818401526020810190506103bc565b505050509050019250505060405180910390f35b3480156103f757600080fd5b506104b16004803603602081101561040e57600080fd5b810190808035906020019064010000000081111561042b57600080fd5b82018360208201111561043d57600080fd5b8035906020019184600183028401116401000000008311171561045f57600080fd5b91908080601f016020809104026020016040519081016040528093929190818152602001838380828437600081840152601f19601f82011690508083019250505050505050919291929050505061183b565b604051808215151515815260200191505060405180910390f35b3480156104d757600080fd5b506104e0611858565b005b3480156104ee57600080fd5b506104f7611a69565b604051808215151515815260200191505060405180910390f35b34801561051d57600080fd5b50610526611ab5565b6040518082815260200191505060405180910390f35b34801561054857600080fd5b506106026004803603602081101561055f57600080fd5b810190808035906020019064010000000081111561057c57600080fd5b82018360208201111561058e57600080fd5b803590602001918460018302840111640100000000831117156105b057600080fd5b91908080601f016020809104026020016040519081016040528093929190818152602001838380828437600081840152601f19601f820116905080830192505050505050509192919290505050611abb565b604051808215151515815260200191505060405180910390f35b34801561062857600080fd5b50610631611bbe565b6040518082815260200191505060405180910390f35b34801561065357600080fd5b506106a06004803603604081101561066a57600080fd5b81019080803573ffffffffffffffffffffffffffffffffffffffff16906020019092919080359060200190929190505050611bc4565b604051808215151515815260200191505060405180910390f35b3480156106c657600080fd5b50610713600480360360408110156106dd57600080fd5b81019080803573ffffffffffffffffffffffffffffffffffffffff16906020019092919080359060200190929190505050611c97565b005b34801561072157600080fd5b5061074e6004803603602081101561073857600080fd5b81019080803590602001909291905050506120a4565b005b34801561075c57600080fd5b506107656120ae565b6040518082815260200191505060405180910390f35b34801561078757600080fd5b506107ca6004803603602081101561079e57600080fd5b81019080803573ffffffffffffffffffffffffffffffffffffffff1690602001909291905050506120cc565b604051808215151515815260200191505060405180910390f35b3480156107f057600080fd5b5061081d6004803603602081101561080757600080fd5b81019080803590602001909291905050506121e3565b6040518082815260200191505060405180910390f35b34801561083f57600080fd5b50610848612281565b6040518080602001828103825283818151815260200191508051906020019080838360005b8381101561088857808201518184015260208101905061086d565b50505050905090810190601f1680156108b55780820380516001836020036101000a031916815260200191505b509250505060405180910390f35b3480156108cf57600080fd5b506108d861231f565b6040518080602001828103825283818151815260200191508051906020019060200280838360005b8381101561091b578082015181840152602081019050610900565b505050509050019250505060405180910390f35b34801561093b57600080fd5b506109446123ae565b6040518082815260200191505060405180910390f35b34801561096657600080fd5b50610ab46004803603604081101561097d57600080fd5b810190808035906020019064010000000081111561099a57600080fd5b8201836020820111156109ac57600080fd5b803590602001918460018302840111640100000000831117156109ce57600080fd5b91908080601f016020809104026020016040519081016040528093929190818152602001838380828437600081840152601f19601f82011690508083019250505050505050919291929080359060200190640100000000811115610a3157600080fd5b820183602082011115610a4357600080fd5b80359060200191846020830284011164010000000083111715610a6557600080fd5b919080806020026020016040519081016040528093929190818152602001838360200280828437600081840152601f19601f8201169050808301925050505050505091929192905050506123b4565b005b348015610ac257600080fd5b50610acb6124ec565b6040518082815260200191505060405180910390f35b348015610aed57600080fd5b50610af66124f2565b604051808215151515815260200191505060405180910390f35b348015610b1c57600080fd5b50610b256124ff565b6040518082815260200191505060405180910390f35b348015610b4757600080fd5b50610dcd600480360360a0811015610b5e57600080fd5b810190808035906020019092919080359060200190640100000000811115610b8557600080fd5b820183602082011115610b9757600080fd5b80359060200191846001830284011164010000000083111715610bb957600080fd5b91908080601f016020809104026020016040519081016040528093929190818152602001838380828437600081840152601f19601f82011690508083019250505050505050919291929080359060200190640100000000811115610c1c57600080fd5b820183602082011115610c2e57600080fd5b80359060200191846001830284011164010000000083111715610c5057600080fd5b91908080601f016020809104026020016040519081016040528093929190818152602001838380828437600081840152601f19601f82011690508083019250505050505050919291929080359060200190640100000000811115610cb357600080fd5b820183602082011115610cc557600080fd5b80359060200191846001830284011164010000000083111715610ce757600080fd5b91908080601f016020809104026020016040519081016040528093929190818152602001838380828437600081840152601f19601f82011690508083019250505050505050919291929080359060200190640100000000811115610d4a57600080fd5b820183602082011115610d5c57600080fd5b80359060200191846020830284011164010000000083111715610d7e57600080fd5b919080806020026020016040519081016040528093929190818152602001838360200280828437600081840152601f19601f820116905080830192505050505050509192919290505050612505565b005b348015610ddb57600080fd5b50610e1e60048036036020811015610df257600080fd5b81019080803573ffffffffffffffffffffffffffffffffffffffff169060200190929190505050612bed565b005b348015610e2c57600080fd5b50610e35612dd0565b6040518082815260200191505060405180910390f35b348015610e5757600080fd5b50610e60612dd6565b6040518082815260200191505060405180910390f35b348015610e8257600080fd5b50610eaf60048036036020811015610e9957600080fd5b8101908080359060200190929190505050612ddc565b604051808215151515815260200191505060405180910390f35b348015610ed557600080fd5b50610f0260048036036020811015610eec57600080fd5b8101908080359060200190929190505050612df9565b005b348015610f1057600080fd5b50610f19612fa0565b6040518082815260200191505060405180910390f35b610ff260048036036040811015610f4557600080fd5b810190808035906020019092919080359060200190640100000000811115610f6c57600080fd5b820183602082011115610f7e57600080fd5b80359060200191846001830284011164010000000083111715610fa057600080fd5b91908080601f016020809104026020016040519081016040528093929190818152602001838380828437600081840152601f19601f820116905080830192505050505050509192919290505050612fa6565b005b34801561100057600080fd5b506110ba6004803603602081101561101757600080fd5b810190808035906020019064010000000081111561103457600080fd5b82018360208201111561104657600080fd5b8035906020019184600183028401116401000000008311171561106857600080fd5b91908080601f016020809104026020016040519081016040528093929190818152602001838380828437600081840152601f19601f820116905080830192505050505050509192919290505050613176565b6040518082815260200191505060405180910390f35b6110d86131ec565b005b3480156110e657600080fd5b506111a0600480360360208110156110fd57600080fd5b810190808035906020019064010000000081111561111a57600080fd5b82018360208201111561112c57600080fd5b8035906020019184600183028401116401000000008311171561114e57600080fd5b91908080601f016020809104026020016040519081016040528093929190818152602001838380828437600081840152601f19601f8201169050808301925050505050505091929192905050506133f9565b005b3480156111ae57600080fd5b506111b7613d38565b6040518082815260200191505060405180910390f35b3480156111d957600080fd5b506111e2613d3e565b6040518082815260200191505060405180910390f35b34801561120457600080fd5b5061120d613d44565b6040518082815260200191505060405180910390f35b34801561122f57600080fd5b50611238613d55565b6040518082815260200191505060405180910390f35b34801561125a57600080fd5b50611263613d87565b6040518082815260200191505060405180910390f35b34801561128557600080fd5b5061128e613da5565b005b6112dc600480360360408110156112a657600080fd5b8101908080359060200190929190803573ffffffffffffffffffffffffffffffffffffffff169060200190929190505050613e50565b005b3480156112ea57600080fd5b506112f3614171565b6040518082815260200191505060405180910390f35b34801561131557600080fd5b506113cf6004803603602081101561132c57600080fd5b810190808035906020019064010000000081111561134957600080fd5b82018360208201111561135b57600080fd5b8035906020019184600183028401116401000000008311171561137d57600080fd5b91908080601f016020809104026020016040519081016040528093929190818152602001838380828437600081840152601f19601f82011690508083019250505050505050919291929050505061417e565b6040518080602001828103825283818151815260200191508051906020019060200280838360005b838110156114125780820151818401526020810190506113f7565b505050509050019250505060405180910390f35b34801561143257600080fd5b5061143b61431b565b6040518082815260200191505060405180910390f35b34801561145d57600080fd5b506115216004803603604081101561147457600080fd5b81019080803590602001909291908035906020019064010000000081111561149b57600080fd5b8201836020820111156114ad57600080fd5b803590602001918460018302840111640100000000831117156114cf57600080fd5b91908080601f016020809104026020016040519081016040528093929190818152602001838380828437600081840152601f19601f820116905080830192505050505050509192919290505050614321565b005b34801561152f57600080fd5b506115386144db565b6040518082815260200191505060405180910390f35b34801561155a57600080fd5b506115876004803603602081101561157157600080fd5b81019080803590602001909291905050506144e8565b6040518080602001828103825283818151815260200191508051906020019080838360005b838110156115c75780820151818401526020810190506115ac565b50505050905090810190601f1680156115f45780820380516001836020036101000a031916815260200191505b509250505060405180910390f35b34801561160e57600080fd5b506116176145ab565b6040518082815260200191505060405180910390f35b60245481565b600b73__Groups________________________________634a1a55fa9091836040518363ffffffff1660e01b81526004018083815260200180602001828103825283818151815260200191508051906020019080838360005b838110156116a757808201518184015260208101905061168c565b50505050905090810190601f1680156116d45780820380516001836020036101000a031916815260200191505b50935050505060006040518083038186803b1580156116f257600080fd5b505af4158015611706573d6000803e3d6000fd5b5050505050565b6060600173__GroupSelection________________________63a3c6b2b390916040518263ffffffff1660e01b81526004018082815260200191505060006040518083038186803b15801561176157600080fd5b505af4158015611775573d6000803e3d6000fd5b505050506040513d6000823e3d601f19601f82011682018060405250602081101561179f57600080fd5b81019080805160405193929190846401000000008211156117bf57600080fd5b838201915060208201858111156117d557600080fd5b82518660208202830111640100000000821117156117f257600080fd5b8083526020830192505050908051906020019060200280838360005b8381101561182957808201518184015260208101905061180e565b50505050905001604052505050905090565b600061185182600b6145bb90919063ffffffff16565b9050919050565b611860614633565b6118d2576040517f08c379a00000000000000000000000000000000000000000000000000000000081526004018080602001828103825260168152602001807f456e74727920646964206e6f742074696d65206f75740000000000000000000081525060200191505060405180910390fd5b600b73__Groups________________________________63a24940029091602a54601f546040518463ffffffff1660e01b815260040180848152602001838152602001828152602001935050505060006040518083038186803b15801561193857600080fd5b505af415801561194c573d6000803e3d6000fd5b5050505060006029819055506000611962613d44565b1115611a3857611a37602854602b8054600181600116156101000203166002900480601f016020809104026020016040519081016040528092919081815260200182805460018160011615610100020316600290048015611a045780601f106119d957610100808354040283529160200191611a04565b820191906000526020600020905b8154815290600101906020018083116119e757829003601f168201915b5050505050602e60009054906101000a900473ffffffffffffffffffffffffffffffffffffffff16602c54602d54614651565b5b602a547f6675fe3ae219641aa4ec9e58867bd7af88bf03caf819d8858f3ddf4cc635eed260405160405180910390a2565b6000600160050160009054906101000a900460ff16611a8b5760019050611ab2565b6000602154601f540260156000015460016003015460016004015401010190508043119150505b90565b60255481565b6000600b73__Groups________________________________63cc9b37c29091846040518363ffffffff1660e01b81526004018083815260200180602001828103825283818151815260200191508051906020019080838360005b83811015611b31578082015181840152602081019050611b16565b50505050905090810190601f168015611b5e5780820380516001836020036101000a031916815260200191505b50935050505060206040518083038186803b158015611b7c57600080fd5b505af4158015611b90573d6000803e3d6000fd5b505050506040513d6020811015611ba657600080fd5b81019080805190602001909291905050509050919050565b60215481565b6000600b73__Groups________________________________634a37cba2909185856040518463ffffffff1660e01b8152600401808481526020018373ffffffffffffffffffffffffffffffffffffffff1673ffffffffffffffffffffffffffffffffffffffff168152602001828152602001935050505060206040518083038186803b158015611c5457600080fd5b505af4158015611c68573d6000803e3d6000fd5b505050506040513d6020811015611c7e57600080fd5b8101908080519060200190929190505050905092915050565b600160008082825401925050819055506000805490506000600b73__Groups________________________________6319818cd3909186866040518463ffffffff1660e01b8152600401808481526020018373ffffffffffffffffffffffffffffffffffffffff1673ffffffffffffffffffffffffffffffffffffffff168152602001828152602001935050505060206040518083038186803b158015611d3d57600080fd5b505af4158015611d51573d6000803e3d6000fd5b505050506040513d6020811015611d6757600080fd5b810190808051906020019092919050505090506000601b60009054906101000a900473ffffffffffffffffffffffffffffffffffffffff1673ffffffffffffffffffffffffffffffffffffffff1663ba7bffd3866040518263ffffffff1660e01b8152600401808273ffffffffffffffffffffffffffffffffffffffff1673ffffffffffffffffffffffffffffffffffffffff16815260200191505060206040518083038186803b158015611e1b57600080fd5b505afa158015611e2f573d6000803e3d6000fd5b505050506040513d6020811015611e4557600080fd5b810190808051906020019092919050505073ffffffffffffffffffffffffffffffffffffffff168260405180600001905060006040518083038185875af1925050503d8060008114611eb3576040519150601f19603f3d011682016040523d82523d6000602084013e611eb8565b606091505b50509050801561202657601b60009054906101000a900473ffffffffffffffffffffffffffffffffffffffff1673ffffffffffffffffffffffffffffffffffffffff1663ba7bffd3866040518263ffffffff1660e01b8152600401808273ffffffffffffffffffffffffffffffffffffffff1673ffffffffffffffffffffffffffffffffffffffff16815260200191505060206040518083038186803b158015611f6157600080fd5b505afa158015611f75573d6000803e3d6000fd5b505050506040513d6020811015611f8b57600080fd5b810190808051906020019092919050505073ffffffffffffffffffffffffffffffffffffffff167fd2d1d8bb9db82c3480418ddcddf25a021102ad139edec2a62b274595d408a88d868487604051808473ffffffffffffffffffffffffffffffffffffffff1673ffffffffffffffffffffffffffffffffffffffff168152602001838152602001828152602001935050505060405180910390a25b5050600054811461209f576040517f08c379a000000000000000000000000000000000000000000000000000000000815260040180806020018281038252601f8152602001807f5265656e7472616e637947756172643a207265656e7472616e742063616c6c0081525060200191505060405180910390fd5b505050565b80601e8190555050565b60006120c7601e5460235461491490919063ffffffff16565b905090565b6000601b60009054906101000a900473ffffffffffffffffffffffffffffffffffffffff1673ffffffffffffffffffffffffffffffffffffffff166310a63ec083306040518363ffffffff1660e01b8152600401808373ffffffffffffffffffffffffffffffffffffffff1673ffffffffffffffffffffffffffffffffffffffff1681526020018273ffffffffffffffffffffffffffffffffffffffff1673ffffffffffffffffffffffffffffffffffffffff1681526020019250505060206040518083038186803b1580156121a157600080fd5b505afa1580156121b5573d6000803e3d6000fd5b505050506040513d60208110156121cb57600080fd5b81019080805190602001909291905050509050919050565b6000600b73__Groups________________________________634732bd3b9091846040518363ffffffff1660e01b8152600401808381526020018281526020019250505060206040518083038186803b15801561223f57600080fd5b505af4158015612253573d6000803e3d6000fd5b505050506040513d602081101561226957600080fd5b81019080805190602001909291905050509050919050565b602b8054600181600116156101000203166002900480601f0160208091040260200160405190810160405280929190818152602001828054600181600116156101000203166002900480156123175780601f106122ec57610100808354040283529160200191612317565b820191906000526020600020905b8154815290600101906020018083116122fa57829003601f168201915b505050505081565b606060016000018054806020026020016040519081016040528092919081815260200182805480156123a457602002820191906000526020600020906000905b82829054906101000a900467ffffffffffffffff1667ffffffffffffffff168152602001906008019060208260070104928301926001038202915080841161235f5790505b5050505050905090565b601f5481565b600b73__Groups________________________________63e130bd67909184846040518463ffffffff1660e01b815260040180848152602001806020018060200180602001848103845286818151815260200191508051906020019080838360005b83811015612431578082015181840152602081019050612416565b50505050905090810190601f16801561245e5780820380516001836020036101000a031916815260200191505b50848103835285818151815260200191508051906020019060200280838360005b8381101561249a57808201518184015260208101905061247f565b50505050905001848103825260008152602001602001965050505050505060006040518083038186803b1580156124d057600080fd5b505af41580156124e4573d6000803e3d6000fd5b505050505050565b60205481565b6000806029541415905090565b602a5481565b60016000808282540192505081905550600080549050606061252561170d565b9050601573__DKGResultVerification_________________63da0a16899091898989898988600160030154600160040154016040518963ffffffff1660e01b815260040180898152602001888152602001806020018060200180602001806020018060200187815260200186810386528c818151815260200191508051906020019080838360005b838110156125c95780820151818401526020810190506125ae565b50505050905090810190601f1680156125f65780820380516001836020036101000a031916815260200191505b5086810385528b818151815260200191508051906020019080838360005b8381101561262f578082015181840152602081019050612614565b50505050905090810190601f16801561265c5780820380516001836020036101000a031916815260200191505b5086810384528a818151815260200191508051906020019080838360005b8381101561269557808201518184015260208101905061267a565b50505050905090810190601f1680156126c25780820380516001836020036101000a031916815260200191505b50868103835289818151815260200191508051906020019060200280838360005b838110156126fe5780820151818401526020810190506126e3565b50505050905001868103825288818151815260200191508051906020019060200280838360005b83811015612740578082015181840152602081019050612725565b505050509050019d505050505050505050505050505060006040518083038186803b15801561276e57600080fd5b505af4158015612782573d6000803e3d6000fd5b50505050600b73__Groups________________________________63e130bd6790918884896040518563ffffffff1660e01b815260040180858152602001806020018060200180602001848103845287818151815260200191508051906020019080838360005b838110156128045780820151818401526020810190506127e9565b50505050905090810190601f1680156128315780820380516001836020036101000a031916815260200191505b50848103835286818151815260200191508051906020019060200280838360005b8381101561286d578082015181840152602081019050612852565b50505050905001848103825285818151815260200191508051906020019080838360005b838110156128ac578082015181840152602081019050612891565b50505050905090810190601f1680156128d95780820380516001836020036101000a031916815260200191505b5097505050505050505060006040518083038186803b1580156128fb57600080fd5b505af415801561290f573d6000803e3d6000fd5b50505050600b73__Groups________________________________634a1a55fa9091886040518363ffffffff1660e01b81526004018083815260200180602001828103825283818151815260200191508051906020019080838360005b8381101561298757808201518184015260208101905061296c565b50505050905090810190601f1680156129b45780820380516001836020036101000a031916815260200191505b50935050505060006040518083038186803b1580156129d257600080fd5b505af41580156129e6573d6000803e3d6000fd5b505050506129f261499a565b7fd1d71346ed0f1479c55b14e7c48b084207a7e1bcd9abe4f22d425ec23a518a1f878787604051808481526020018060200180602001838103835285818151815260200191508051906020019080838360005b83811015612a60578082015181840152602081019050612a45565b50505050905090810190601f168015612a8d5780820380516001836020036101000a031916815260200191505b50838103825284818151815260200191508051906020019080838360005b83811015612ac6578082015181840152602081019050612aab565b50505050905090810190601f168015612af35780820380516001836020036101000a031916815260200191505b509550505050505060405180910390a1600173__GroupSelection________________________63a4b15bac90916040518263ffffffff1660e01b81526004018082815260200191505060006040518083038186803b158015612b5557600080fd5b505af4158015612b69573d6000803e3d6000fd5b50505050506000548114612be5576040517f08c379a000000000000000000000000000000000000000000000000000000000815260040180806020018281038252601f8152602001807f5265656e7472616e637947756172643a207265656e7472616e742063616c6c0081525060200191505060405180910390fd5b505050505050565b3373ffffffffffffffffffffffffffffffffffffffff16601a60009054906101000a900473ffffffffffffffffffffffffffffffffffffffff1673ffffffffffffffffffffffffffffffffffffffff16636557eccf306040518263ffffffff1660e01b8152600401808273ffffffffffffffffffffffffffffffffffffffff1673ffffffffffffffffffffffffffffffffffffffff16815260200191505060206040518083038186803b158015612ca357600080fd5b505afa158015612cb7573d6000803e3d6000fd5b505050506040513d6020811015612ccd57600080fd5b810190808051906020019092919050505073ffffffffffffffffffffffffffffffffffffffff1614612d67576040517f08c379a000000000000000000000000000000000000000000000000000000000815260040180806020018281038252600e8152602001807f4e6f7420617574686f72697a656400000000000000000000000000000000000081525060200191505060405180910390fd5b60198190806001815401808255809150509060018203906000526020600020016000909192909190916101000a81548173ffffffffffffffffffffffffffffffffffffffff021916908373ffffffffffffffffffffffffffffffffffffffff1602179055505050565b60235481565b601d5481565b6000612df282600b614c4590919063ffffffff16565b9050919050565b6000612f20600160060154601b60009054906101000a900473ffffffffffffffffffffffffffffffffffffffff1673ffffffffffffffffffffffffffffffffffffffff1663afff33ef33306040518363ffffffff1660e01b8152600401808373ffffffffffffffffffffffffffffffffffffffff1673ffffffffffffffffffffffffffffffffffffffff1681526020018273ffffffffffffffffffffffffffffffffffffffff1673ffffffffffffffffffffffffffffffffffffffff1681526020019250505060206040518083038186803b158015612ed757600080fd5b505afa158015612eeb573d6000803e3d6000fd5b505050506040513d6020811015612f0157600080fd5b8101908080519060200190929190505050614c7d90919063ffffffff16565b9050600173__GroupSelection________________________63fb6ed49c909184846040518463ffffffff1660e01b815260040180848152602001838152602001828152602001935050505060006040518083038186803b158015612f8457600080fd5b505af4158015612f98573d6000803e3d6000fd5b505050505050565b60295481565b61303f33601980548060200260200160405190810160405280929190818152602001828054801561302c57602002820191906000526020600020905b8160009054906101000a900473ffffffffffffffffffffffffffffffffffffffff1673ffffffffffffffffffffffffffffffffffffffff1681526020019060010190808311612fe2575b5050505050614cc790919063ffffffff16565b6130b1576040517f08c379a00000000000000000000000000000000000000000000000000000000081526004018080602001828103825260208152602001807f43616c6c6572206973206e6f742061207365727669636520636f6e747261637481525060200191505060405180910390fd5b60006130d46130be6120ae565b6130c6613d87565b614d4290919063ffffffff16565b90508034101561314c576040517f08c379a000000000000000000000000000000000000000000000000000000000815260040180806020018281038252601a8152602001807f496e73756666696369656e74206e657720656e7472792066656500000000000081525060200191505060405180910390fd5b60006131618234614dca90919063ffffffff16565b90506131708484338585614651565b50505050565b6000600b600601826040518082805190602001908083835b602083106131b1578051825260208201915060208101905060208303925061318e565b6001836020036101000a0380198251168184511680821785525050505050509050019150509081526020016040518091039020549050919050565b600b73__Groups________________________________63fff0da7590916040518263ffffffff1660e01b81526004018082815260200191505060006040518083038186803b15801561323e57600080fd5b505af4158015613252573d6000803e3d6000fd5b505050506000613260613d44565b146132d3576040517f08c379a000000000000000000000000000000000000000000000000000000000815260040180806020018281038252600c8152602001807f47726f757073206578697374000000000000000000000000000000000000000081525060200191505060405180910390fd5b600173__GroupSelection________________________63a4b15bac90916040518263ffffffff1660e01b81526004018082815260200191505060006040518083038186803b15801561332557600080fd5b505af4158015613339573d6000803e3d6000fd5b5050505060196133586001601980549050614dca90919063ffffffff16565b8154811061336257fe5b9060005260206000200160009054906101000a900473ffffffffffffffffffffffffffffffffffffffff16602760006101000a81548173ffffffffffffffffffffffffffffffffffffffff021916908373ffffffffffffffffffffffffffffffffffffffff1602179055506133f77f4574c8c75d6e88acd28f7e467dac97b5c60c3838d9dad993900bdf402152228e34614e14565b565b600160008082825401925050819055506000805490506134176124f2565b613489576040517f08c379a00000000000000000000000000000000000000000000000000000000081526004018080602001828103825260138152602001807f456e74727920776173207375626d69747465640000000000000000000000000081525060200191505060405180910390fd5b613491614633565b15613504576040517f08c379a000000000000000000000000000000000000000000000000000000000815260040180806020018281038252600f8152602001807f456e7472792074696d6564206f7574000000000000000000000000000000000081525060200191505060405180910390fd5b606061351c602a54600b61511990919063ffffffff16565b905073__BLS___________________________________63de8f50a182602b866040518463ffffffff1660e01b815260040180806020018060200180602001848103845287818151815260200191508051906020019080838360005b83811015613593578082015181840152602081019050613578565b50505050905090810190601f1680156135c05780820380516001836020036101000a031916815260200191505b508481038352868181546001816001161561010002031660029004815260200191508054600181600116156101000203166002900480156136425780601f1061361757610100808354040283529160200191613642565b820191906000526020600020905b81548152906001019060200180831161362557829003601f168201915b5050848103825285818151815260200191508051906020019080838360005b8381101561367c578082015181840152602081019050613661565b50505050905090810190601f1680156136a95780820380516001836020036101000a031916815260200191505b50965050505050505060206040518083038186803b1580156136ca57600080fd5b505af41580156136de573d6000803e3d6000fd5b505050506040513d60208110156136f457600080fd5b8101908080519060200190929190505050613777576040517f08c379a00000000000000000000000000000000000000000000000000000000081526004018080602001828103825260118152602001807f496e76616c6964207369676e617475726500000000000000000000000000000081525060200191505060405180910390fd5b7f8711cae111460cf9bde0d890f0dc09abcb8851e39bf020f406e53e86394cdbd760405160405180910390a1602e60009054906101000a900473ffffffffffffffffffffffffffffffffffffffff1673ffffffffffffffffffffffffffffffffffffffff166137f3619c40602554614d4290919063ffffffff16565b602854853360405160240180848152602001806020018373ffffffffffffffffffffffffffffffffffffffff1673ffffffffffffffffffffffffffffffffffffffff168152602001828103825284818151815260200191508051906020019080838360005b83811015613873578082015181840152602081019050613858565b50505050905090810190601f1680156138a05780820380516001836020036101000a031916815260200191505b509450505050506040516020818303038152906040527fef7284e3000000000000000000000000000000000000000000000000000000007bffffffffffffffffffffffffffffffffffffffffffffffffffffffff19166020820180517bffffffffffffffffffffffffffffffffffffffffffffffffffffffff83818316178352505050506040518082805190602001908083835b602083106139575780518252602082019150602081019050602083039250613934565b6001836020036101000a03801982511681845116808217855250505050505090500191505060006040518083038160008787f1925050503d80600081146139ba576040519150601f19603f3d011682016040523d82523d6000602084013e6139bf565b606091505b5050506000602d5411156139e1576139e0838051906020012060001c6151dc565b5b60008060006139ee61565d565b925092509250613a0a8484600b61581a9092919063ffffffff16565b601b60009054906101000a900473ffffffffffffffffffffffffffffffffffffffff1673ffffffffffffffffffffffffffffffffffffffff1663ba7bffd3336040518263ffffffff1660e01b8152600401808273ffffffffffffffffffffffffffffffffffffffff1673ffffffffffffffffffffffffffffffffffffffff16815260200191505060206040518083038186803b158015613aa957600080fd5b505afa158015613abd573d6000803e3d6000fd5b505050506040513d6020811015613ad357600080fd5b810190808051906020019092919050505073ffffffffffffffffffffffffffffffffffffffff168260405180600001905060006040518083038185875af1925050503d8060008114613b41576040519150601f19603f3d011682016040523d82523d6000602084013e613b46565b606091505b5050506000811115613cb157602e60009054906101000a900473ffffffffffffffffffffffffffffffffffffffff1673ffffffffffffffffffffffffffffffffffffffff166188b8826040516024016040516020818303038152906040527f11e816ee000000000000000000000000000000000000000000000000000000007bffffffffffffffffffffffffffffffffffffffffffffffffffffffff19166020820180517bffffffffffffffffffffffffffffffffffffffffffffffffffffffff83818316178352505050506040518082805190602001908083835b60208310613c455780518252602082019150602081019050602083039250613c22565b6001836020036101000a038019825116818451168082178552505050505050905001915050600060405180830381858888f193505050503d8060008114613ca8576040519150601f19603f3d011682016040523d82523d6000602084013e613cad565b606091505b5050505b6000602981905550505050506000548114613d34576040517f08c379a000000000000000000000000000000000000000000000000000000000815260040180806020018281038252601f8152602001807f5265656e7472616e637947756172643a207265656e7472616e742063616c6c0081525060200191505060405180910390fd5b5050565b60265481565b60225481565b6000613d50600b61590c565b905090565b6000613d82601e54613d74602554602454614d4290919063ffffffff16565b61491490919063ffffffff16565b905090565b6000613da0601f54601d5461491490919063ffffffff16565b905090565b601c60009054906101000a900473ffffffffffffffffffffffffffffffffffffffff1673ffffffffffffffffffffffffffffffffffffffff1663fe173b976040518163ffffffff1660e01b815260040160206040518083038186803b158015613e0d57600080fd5b505afa158015613e21573d6000803e3d6000fd5b505050506040513d6020811015613e3757600080fd5b8101908080519060200190929190505050601e81905550565b613ee9336019805480602002602001604051908101604052809291908181526020018280548015613ed657602002820191906000526020600020905b8160009054906101000a900473ffffffffffffffffffffffffffffffffffffffff1673ffffffffffffffffffffffffffffffffffffffff1681526020019060010190808311613e8c575b5050505050614cc790919063ffffffff16565b613f5b576040517f08c379a00000000000000000000000000000000000000000000000000000000081526004018080602001828103825260208152602001807f43616c6c6572206973206e6f742061207365727669636520636f6e747261637481525060200191505060405180910390fd5b6000613f74601e5460255461491490919063ffffffff16565b905033602760006101000a81548173ffffffffffffffffffffffffffffffffffffffff021916908373ffffffffffffffffffffffffffffffffffffffff160217905550613fd383613fce8334614dca90919063ffffffff16565b614e14565b6000601b60009054906101000a900473ffffffffffffffffffffffffffffffffffffffff1673ffffffffffffffffffffffffffffffffffffffff1663ba7bffd3846040518263ffffffff1660e01b8152600401808273ffffffffffffffffffffffffffffffffffffffff1673ffffffffffffffffffffffffffffffffffffffff16815260200191505060206040518083038186803b15801561407457600080fd5b505afa158015614088573d6000803e3d6000fd5b505050506040513d602081101561409e57600080fd5b810190808051906020019092919050505073ffffffffffffffffffffffffffffffffffffffff168260405180600001905060006040518083038185875af1925050503d806000811461410c576040519150601f19603f3d011682016040523d82523d6000602084013e614111565b606091505b505090508061416b576040517f08c379a0000000000000000000000000000000000000000000000000000000008152600401808060200182810382526024815260200180615bc96024913960400191505060405180910390fd5b50505050565b6000600160030154905090565b6060600b73__Groups________________________________63dc2627039091846040518363ffffffff1660e01b81526004018083815260200180602001828103825283818151815260200191508051906020019080838360005b838110156141f45780820151818401526020810190506141d9565b50505050905090810190601f1680156142215780820380516001836020036101000a031916815260200191505b50935050505060006040518083038186803b15801561423f57600080fd5b505af4158015614253573d6000803e3d6000fd5b505050506040513d6000823e3d601f19601f82011682018060405250602081101561427d57600080fd5b810190808051604051939291908464010000000082111561429d57600080fd5b838201915060208201858111156142b357600080fd5b82518660208202830111640100000000821117156142d057600080fd5b8083526020830192505050908051906020019060200280838360005b838110156143075780820151818401526020810190506142ec565b505050509050016040525050509050919050565b601e5481565b600b73__Groups________________________________6320bc286690918484601b60009054906101000a900473ffffffffffffffffffffffffffffffffffffffff1673ffffffffffffffffffffffffffffffffffffffff1663ec5ffac26040518163ffffffff1660e01b815260040160206040518083038186803b1580156143a957600080fd5b505afa1580156143bd573d6000803e3d6000fd5b505050506040513d60208110156143d357600080fd5b81019080805190602001909291905050506040518563ffffffff1660e01b81526004018085815260200184815260200180602001838152602001828103825284818151815260200191508051906020019080838360005b8381101561444557808201518184015260208101905061442a565b50505050905090810190601f1680156144725780820380516001836020036101000a031916815260200191505b509550505050505060006040518083038186803b15801561449257600080fd5b505af41580156144a6573d6000803e3d6000fd5b50505050817f6124f28ae7240a98a8ad3410bcd1f3bb0a113fc9834d5bd16426f9e1bd698fde60405160405180910390a25050565b6000600b60080154905090565b6060600b60030182815481106144fa57fe5b90600052602060002090600302016000018054600181600116156101000203166002900480601f01602080910402602001604051908101604052809291908181526020018280546001816001161561010002031660029004801561459f5780601f106145745761010080835404028352916020019161459f565b820191906000526020600020905b81548152906001019060200180831161458257829003601f168201915b50505050509050919050565b6000600b60030180549050905090565b60008083600201836040518082805190602001908083835b602083106145f657805182526020820191506020810190506020830392506145d3565b6001836020036101000a03801982511681845116808217855250505050505090500191505090815260200160405180910390205411905092915050565b6000806029541415801561464c57506022546029540143115b905090565b6146596124f2565b156146cc576040517f08c379a000000000000000000000000000000000000000000000000000000000815260040180806020018281038252600e8152602001807f426561636f6e206973206275737900000000000000000000000000000000000081525060200191505060405180910390fd5b6000600b73__Groups________________________________6337ed6ace9091878051906020012060001c6040518363ffffffff1660e01b8152600401808381526020018281526020019250505060206040518083038186803b15801561473257600080fd5b505af4158015614746573d6000803e3d6000fd5b505050506040513d602081101561475c57600080fd5b81019080805190602001909291905050509050856028819055504360298190555082602c8190555081602d8190555080602a8190555084602b90805190602001906147a8929190615b02565b5083602e60006101000a81548173ffffffffffffffffffffffffffffffffffffffff021916908373ffffffffffffffffffffffffffffffffffffffff160217905550606061480082600b61511990919063ffffffff16565b90507ff3a8bf09e4f9146a48f9b91226985ac8d83d971beb4fc9ffdc569790e85a97e48682604051808060200180602001838103835285818151815260200191508051906020019080838360005b8381101561486957808201518184015260208101905061484e565b50505050905090810190601f1680156148965780820380516001836020036101000a031916815260200191505b50838103825284818151815260200191508051906020019080838360005b838110156148cf5780820151818401526020810190506148b4565b50505050905090810190601f1680156148fc5780820380516001836020036101000a031916815260200191505b5094505050505060405180910390a150505050505050565b6000808314156149275760009050614994565b600082840290508284828161493857fe5b041461498f576040517f08c379a0000000000000000000000000000000000000000000000000000000008152600401808060200182810382526021815260200180615ba86021913960400191505060405180910390fd5b809150505b92915050565b6000601e54905060003a1180156149b25750601e543a105b156149bb573a90505b60006149d28260245461491490919063ffffffff16565b90506000601b60009054906101000a900473ffffffffffffffffffffffffffffffffffffffff1673ffffffffffffffffffffffffffffffffffffffff1663ba7bffd3336040518263ffffffff1660e01b8152600401808273ffffffffffffffffffffffffffffffffffffffff1673ffffffffffffffffffffffffffffffffffffffff16815260200191505060206040518083038186803b158015614a7557600080fd5b505afa158015614a89573d6000803e3d6000fd5b505050506040513d6020811015614a9f57600080fd5b81019080805190602001909291905050509050602654821015614bcc576000614ad383602654614dca90919063ffffffff16565b905060006026819055508173ffffffffffffffffffffffffffffffffffffffff168360405180600001905060006040518083038185875af1925050503d8060008114614b3b576040519150601f19603f3d011682016040523d82523d6000602084013e614b40565b606091505b505050602760009054906101000a900473ffffffffffffffffffffffffffffffffffffffff1673ffffffffffffffffffffffffffffffffffffffff16634611b648826040518263ffffffff1660e01b81526004016000604051808303818588803b158015614bad57600080fd5b505af1158015614bc1573d6000803e3d6000fd5b505050505050614c40565b602654915060006026819055508073ffffffffffffffffffffffffffffffffffffffff168260405180600001905060006040518083038185875af1925050503d8060008114614c37576040519150601f19603f3d011682016040523d82523d6000602084013e614c3c565b606091505b5050505b505050565b6000826003018281548110614c5657fe5b906000526020600020906003020160020160009054906101000a900460ff16905092915050565b6000614cbf83836040518060400160405280601a81526020017f536166654d6174683a206469766973696f6e206279207a65726f00000000000081525061594c565b905092915050565b600080600090505b8351811015614d3657838181518110614ce457fe5b602002602001015173ffffffffffffffffffffffffffffffffffffffff168373ffffffffffffffffffffffffffffffffffffffff161415614d29576001915050614d3c565b8080600101915050614ccf565b50600090505b92915050565b600080828401905083811015614dc0576040517f08c379a000000000000000000000000000000000000000000000000000000000815260040180806020018281038252601b8152602001807f536166654d6174683a206164646974696f6e206f766572666c6f77000000000081525060200191505060405180910390fd5b8091505092915050565b6000614e0c83836040518060400160405280601e81526020017f536166654d6174683a207375627472616374696f6e206f766572666c6f770000815250615a12565b905092915050565b614e2b602454601e5461491490919063ffffffff16565b811015614ea0576040517f08c379a00000000000000000000000000000000000000000000000000000000081526004018080602001828103825260148152602001807f496e73756666696369656e7420444b472066656500000000000000000000000081525060200191505060405180910390fd5b614ea8611a69565b614f1a576040517f08c379a000000000000000000000000000000000000000000000000000000000815260040180806020018281038252601b8152602001807f47726f75702073656c656374696f6e20696e2070726f6772657373000000000081525060200191505060405180910390fd5b60006026541115614fb957600060265490506000602681905550602760009054906101000a900473ffffffffffffffffffffffffffffffffffffffff1673ffffffffffffffffffffffffffffffffffffffff16634611b648826040518263ffffffff1660e01b81526004016000604051808303818588803b158015614f9e57600080fd5b505af1158015614fb2573d6000803e3d6000fd5b5050505050505b601b60009054906101000a900473ffffffffffffffffffffffffffffffffffffffff1673ffffffffffffffffffffffffffffffffffffffff1663ec5ffac26040518163ffffffff1660e01b815260040160206040518083038186803b15801561502157600080fd5b505afa158015615035573d6000803e3d6000fd5b505050506040513d602081101561504b57600080fd5b8101908080519060200190929190505050600160060181905550600173__GroupSelection________________________6352f9b3b99091846040518363ffffffff1660e01b8152600401808381526020018281526020019250505060006040518083038186803b1580156150bf57600080fd5b505af41580156150d3573d6000803e3d6000fd5b505050507f0769b89b6dbd96af3cdebccc7b68ce1e4ae748abc3e6b19a73b8b58460c57a94826040518082815260200191505060405180910390a1806026819055505050565b606082600301828154811061512a57fe5b90600052602060002090600302016000018054600181600116156101000203166002900480601f0160208091040260200160405190810160405280929190818152602001828054600181600116156101000203166002900480156151cf5780601f106151a4576101008083540402835291602001916151cf565b820191906000526020600020905b8154815290600101906020018083116151b257829003601f168201915b5050505050905092915050565b60006151f5601e54602d54614c7d90919063ffffffff16565b9050621e84808111615207578061520c565b621e84805b90506060602e60009054906101000a900473ffffffffffffffffffffffffffffffffffffffff1673ffffffffffffffffffffffffffffffffffffffff16619c40602854604051602401808281526020019150506040516020818303038152906040527f0fda9ce4000000000000000000000000000000000000000000000000000000007bffffffffffffffffffffffffffffffffffffffffffffffffffffffff19166020820180517bffffffffffffffffffffffffffffffffffffffffffffffffffffffff83818316178352505050506040518082805190602001908083835b6020831061530f57805182526020820191506020810190506020830392506152ec565b6001836020036101000a03801982511681845116808217855250505050505090500191505060006040518083038160008787f1925050503d8060008114615372576040519150601f19603f3d011682016040523d82523d6000602084013e615377565b606091505b5090508091505060005a9050602e60009054906101000a900473ffffffffffffffffffffffffffffffffffffffff1673ffffffffffffffffffffffffffffffffffffffff16836028548660405160240180838152602001828152602001925050506040516020818303038152906040527ffc3fcec7000000000000000000000000000000000000000000000000000000007bffffffffffffffffffffffffffffffffffffffffffffffffffffffff19166020820180517bffffffffffffffffffffffffffffffffffffffffffffffffffffffff83818316178352505050506040518082805190602001908083835b602083106154885780518252602082019150602081019050602083039250615465565b6001836020036101000a03801982511681845116808217855250505050505090500191505060006040518083038160008787f1925050503d80600081146154eb576040519150601f19603f3d011682016040523d82523d6000602084013e6154f0565b606091505b50505060005a9050600061550d8284614dca90919063ffffffff16565b905073__Reimbursements________________________6346a50089601b60009054906101000a900473ffffffffffffffffffffffffffffffffffffffff16601e548885602d548a6040518763ffffffff1660e01b8152600401808773ffffffffffffffffffffffffffffffffffffffff1673ffffffffffffffffffffffffffffffffffffffff16815260200186815260200185815260200184815260200183815260200180602001828103825283818151815260200191508051906020019080838360005b838110156155ee5780820151818401526020810190506155d3565b50505050905090810190601f16801561561b5780820380516001836020036101000a031916815260200191505b5097505050505050505060006040518083038186803b15801561563d57600080fd5b505af4158015615651573d6000803e3d6000fd5b50505050505050505050565b600080600080662386f26fc100009050600073__DelayFactor___________________________638dfa43636029546022546040518363ffffffff1660e01b8152600401808381526020018281526020019250505060206040518083038186803b1580156156ca57600080fd5b505af41580156156de573d6000803e3d6000fd5b505050506040513d60208110156156f457600080fd5b8101908080519060200190929190505050905061572e8261572083601d5461491490919063ffffffff16565b614c7d90919063ffffffff16565b945060006157596157488385614dca90919063ffffffff16565b601d5461491490919063ffffffff16565b9050600061579784615789600561577b601f548761491490919063ffffffff16565b615ad290919063ffffffff16565b614c7d90919063ffffffff16565b905060006157b76157a6613d87565b602c54614dca90919063ffffffff16565b90506157cc8282614d4290919063ffffffff16565b965061580e826158006157ea601f548c61491490919063ffffffff16565b6157f2613d87565b614dca90919063ffffffff16565b614dca90919063ffffffff16565b95505050505050909192565b6158988184600601846040518082805190602001908083835b602083106158565780518252602082019150602081019050602083039250615833565b6001836020036101000a038019825116818451168082178552505050505050905001915050908152602001604051809103902054614d4290919063ffffffff16565b83600601836040518082805190602001908083835b602083106158d057805182526020820191506020810190506020830392506158ad565b6001836020036101000a038019825116818451168082178552505050505050905001915050908152602001604051809103902081905550505050565b6000615945826004018054905061593784600801548560030180549050614dca90919063ffffffff16565b614dca90919063ffffffff16565b9050919050565b600080831182906159f8576040517f08c379a00000000000000000000000000000000000000000000000000000000081526004018080602001828103825283818151815260200191508051906020019080838360005b838110156159bd5780820151818401526020810190506159a2565b50505050905090810190601f1680156159ea5780820380516001836020036101000a031916815260200191505b509250505060405180910390fd5b506000838581615a0457fe5b049050809150509392505050565b6000838311158290615abf576040517f08c379a00000000000000000000000000000000000000000000000000000000081526004018080602001828103825283818151815260200191508051906020019080838360005b83811015615a84578082015181840152602081019050615a69565b50505050905090810190601f168015615ab15780820380516001836020036101000a031916815260200191505b509250505060405180910390fd5b5060008385039050809150509392505050565b6000615afa6064615aec848661491490919063ffffffff16565b614c7d90919063ffffffff16565b905092915050565b828054600181600116156101000203166002900490600052602060002090601f016020900481019282601f10615b4357805160ff1916838001178555615b71565b82800160010185558215615b71579182015b82811115615b70578251825591602001919060010190615b55565b5b509050615b7e9190615b82565b5090565b615ba491905b80821115615ba0576000816000905550600101615b88565b5090565b9056fe536166654d6174683a206d756c7469706c69636174696f6e206f766572666c6f7747726f75702073656c656374696f6e207265696d62757273656d656e74206661696c6564a265627a7a72315820eb7ac19e046d25e35aafcc080b0452e9095dd616534e960334494026bbffd34364736f6c63430005110032536166654d6174683a206d756c7469706c69636174696f6e206f766572666c6f77",
  "source": "pragma solidity 0.5.17;\n\nimport \"../KeepRandomBeaconOperator.sol\";\n\n/**\n * @title KeepRandomBeaconOperatorServicePricingStub\n * @dev A simplified Random Beacon operator contract to help local development.\n */\ncontract KeepRandomBeaconOperatorServicePricingStub is KeepRandomBeaconOperator {\n\n    constructor(\n        address _serviceContract,\n        address _stakingContract,\n        address _registryContract,\n        address _gasPriceOracle\n    ) KeepRandomBeaconOperator(\n        _serviceContract,\n        _stakingContract,\n        _registryContract,\n        _gasPriceOracle\n    ) public {\n        relayEntryTimeout = 10;\n        groupSelection.ticketSubmissionTimeout = 69;\n        resultPublicationBlockStep = 3;\n        groupSize = 3;\n        groupSelection.groupSize = 3;\n        dkgResultVerification.groupSize = 3;\n    }\n\n    function registerNewGroup(bytes memory groupPublicKey) public {\n        groups.addGroup(groupPublicKey);\n    }\n\n    function setGroupMembers(bytes memory groupPublicKey, address[] memory members) public {\n        groups.setGroupMembers(groupPublicKey, members, hex\"\");\n    }\n\n    function getGroupPublicKey(uint256 groupIndex) public view returns (bytes memory) {\n        return groups.groups[groupIndex].groupPubKey;\n    }\n\n    function setGasPriceCeiling(uint256 _gasPriceCeiling) public {\n        gasPriceCeiling = _gasPriceCeiling;\n    }\n}\n",
  "sourcePath": "/Users/konrad/Desktop/rumble/fin/local-setup/keep-core/solidity/contracts/stubs/KeepRandomBeaconOperatorServicePricingStub.sol",
  "compiler": {
    "name": "solc",
    "version": "0.5.17+commit.d19bba13.Emscripten.clang"
  },
  "schemaVersion": "3.3.3",
  "updatedAt": "2021-04-13T12:32:13.017Z",
  "devdoc": {
    "details": "A simplified Random Beacon operator contract to help local development.",
    "methods": {
      "addServiceContract(address)": {
        "params": {
          "serviceContract": "Address of the service contract."
        }
      },
      "createGroup(uint256,address)": {
        "params": {
          "_newEntry": "New random beacon value that stakers will use to generate their tickets.",
          "submitter": "Operator of this contract."
        }
      },
      "hasMinimumStake(address)": {
        "params": {
          "staker": "Staker's address"
        },
        "return": "True if has enough active stake to participate in the network, false otherwise."
      },
      "numberOfGroups()": {
        "details": "Even if numberOfGroups() > 0, it is still possible requesting for a new relay entry will revert with \"no active groups\" failure message. This function returns the number of active groups as they are currently marked on-chain. However, during relay request, before group selection, we run group expiration and it may happen that some groups seen as active turns out to be expired."
      },
      "relayEntry(bytes)": {
        "params": {
          "_groupSignature": "Group BLS signature over the concatenation of the previous entry and seed."
        }
      },
      "sign(uint256,bytes)": {
        "params": {
          "previousEntry": "Previous relay entry",
          "requestId": "Request Id trackable by service contract"
        }
      },
      "submitDkgResult(uint256,bytes,bytes,bytes,uint256[])": {
        "params": {
          "groupPubKey": "Generated candidate group public key",
          "misbehaved": "Bytes array of misbehaved (disqualified or inactive) group members indexes in ascending order; Indexes reflect positions of members in the group as outputted by the group selection protocol.",
          "signatures": "Concatenation of signatures from members supporting the result.",
          "signingMembersIndexes": "Indices of members corresponding to each signature.",
          "submitterMemberIndex": "Claimed submitter candidate group member index"
        }
      },
      "submitTicket(bytes32)": {
        "params": {
          "ticket": "Bytes representation of a ticket that holds the following: - ticketValue: first 8 bytes of a result of keccak256 cryptography hash   function on the combination of the group selection seed (previous   beacon output), staker-specific value (address) and virtual staker index. - stakerValue: a staker-specific value which is the address of the staker. - virtualStakerIndex: 4-bytes number within a range of 1 to staker's weight;   has to be unique for all tickets submitted by the given staker for the   current candidate group selection."
        }
      },
      "withdrawGroupMemberRewards(address,uint256)": {
        "params": {
          "groupIndex": "Group index",
          "operator": "Operator address"
        }
      }
    },
    "title": "KeepRandomBeaconOperatorServicePricingStub"
  },
  "userdoc": {
    "methods": {
      "addServiceContract(address)": {
        "notice": "Adds service contract"
      },
      "createGroup(uint256,address)": {
        "notice": "Triggers the selection process of a new candidate group."
      },
      "entryVerificationFee()": {
        "notice": "Returns fee for entry verification in wei. Does not include group profit fee, DKG contribution or callback fee."
      },
      "genesis()": {
        "notice": "Triggers group selection if there are no active groups."
      },
      "getFirstActiveGroupIndex()": {
        "notice": "Gets the index of the first active group."
      },
      "getGroupMemberRewards(bytes)": {
        "notice": "Returns accumulated group member rewards for provided group."
      },
      "getGroupMembers(bytes)": {
        "notice": "Returns members of the given group by group public key."
      },
      "groupCreationFee()": {
        "notice": "Returns fee for group creation in wei. Includes the cost of DKG and the cost of triggering group selection."
      },
      "groupProfitFee()": {
        "notice": "Gets group profit fee expressed in wei."
      },
      "hasMinimumStake(address)": {
        "notice": "Checks if the specified account has enough active stake to become network operator and that this contract has been authorized for potential slashing.     /// Having the required minimum of active stake makes the operator eligible to join the network. If the active stake is not currently undelegating, operator is also eligible for work selection. "
      },
      "hasWithdrawnRewards(address,uint256)": {
        "notice": "Return whether the given operator has withdrawn their rewards from the given group."
      },
      "isEntryInProgress()": {
        "notice": "Returns true if generation of a new relay entry is currently in progress."
      },
      "isGroupRegistered(bytes)": {
        "notice": "Checks if group with the given public key is registered."
      },
      "isGroupSelectionPossible()": {
        "notice": "Checks if it is possible to fire a new group selection. Triggering new group selection is only possible when there is no pending group selection or when the pending group selection timed out."
      },
      "isStaleGroup(bytes)": {
        "notice": "Checks if a group with the given public key is a stale group. Stale group is an expired group which is no longer performing any operations. It is important to understand that an expired group may still perform some operations for which it was selected when it was still active. We consider a group to be stale when it's expired and when its expiration time and potentially executed operation timeout are both in the past."
      },
      "numberOfGroups()": {
        "notice": "Gets the number of active groups as currently marked in the contract. This is the state from when the expired groups were last updated without accounting for recent expirations. "
      },
      "refreshGasPrice()": {
        "notice": "Pulls the most recent gas price from gas price oracle."
      },
      "relayEntry(bytes)": {
        "notice": "Creates a new relay entry and stores the associated data on the chain."
      },
      "reportRelayEntryTimeout()": {
        "notice": "Function used to inform about the fact the currently ongoing new relay entry generation operation timed out. As a result, the group which was supposed to produce a new relay entry is immediately terminated and a new group is selected to produce a new relay entry. All members of the group are punished by seizing minimum stake of their tokens. The submitter of the transaction is rewarded with a tattletale reward which is limited to min(1, 20 / group_size) of the maximum tattletale reward."
      },
      "reportUnauthorizedSigning(uint256,bytes)": {
        "notice": "Reports unauthorized signing for the provided group. Must provide a valid signature of the tattletale address as a message. Successful signature verification means the private key has been leaked and all group members should be punished by seizingtheir tokens. The submitter of this proof is rewarded with 5% of the total seized amount scaled by the reward adjustment parameter and the rest 95% is burned."
      },
      "selectedParticipants()": {
        "notice": "Gets selected participants in ascending order of their tickets."
      },
      "sign(uint256,bytes)": {
        "notice": "Creates a request to generate a new relay entry, which will include a random number (by signing the previous entry's random number)."
      },
      "submitDkgResult(uint256,bytes,bytes,bytes,uint256[])": {
        "notice": "Submits result of DKG protocol. It is on-chain part of phase 14 of the protocol."
      },
      "submitTicket(bytes32)": {
        "notice": "Submits ticket to request to participate in a new candidate group."
      },
      "submittedTickets()": {
        "notice": "Gets the submitted group candidate tickets so far."
      },
      "ticketSubmissionTimeout()": {
        "notice": "Gets the timeout in blocks after which group candidate ticket submission is finished."
      },
      "withdrawGroupMemberRewards(address,uint256)": {
        "notice": "Withdraws accumulated group member rewards for operator using the provided group index. Once the accumulated reward is withdrawn from the selected group, the operator is flagged as withdrawn. Rewards can be withdrawn only from stale group."
      }
    }
  }
}