{
  "contractName": "KeepRandomBeaconOperatorPricingRewardsWithdrawStub",
  "abi": [
    {
      "inputs": [
        {
          "internalType": "address",
          "name": "_serviceContract",
          "type": "address"
        },
        {
          "internalType": "address",
          "name": "_stakingContract",
          "type": "address"
        },
        {
          "internalType": "address",
          "name": "_registryContract",
          "type": "address"
        },
        {
          "internalType": "address",
          "name": "_gasPriceOracle",
          "type": "address"
        }
      ],
      "payable": false,
      "stateMutability": "nonpayable",
      "type": "constructor"
    },
    {
      "anonymous": false,
      "inputs": [
        {
          "indexed": false,
          "internalType": "uint256",
          "name": "memberIndex",
          "type": "uint256"
        },
        {
          "indexed": false,
          "internalType": "bytes",
          "name": "groupPubKey",
          "type": "bytes"
        },
        {
          "indexed": false,
          "internalType": "bytes",
          "name": "misbehaved",
          "type": "bytes"
        }
      ],
      "name": "DkgResultSubmittedEvent",
      "type": "event"
    },
    {
      "anonymous": false,
      "inputs": [
        {
          "indexed": true,
          "internalType": "address",
          "name": "beneficiary",
          "type": "address"
        },
        {
          "indexed": false,
          "internalType": "address",
          "name": "operator",
          "type": "address"
        },
        {
          "indexed": false,
          "internalType": "uint256",
          "name": "amount",
          "type": "uint256"
        },
        {
          "indexed": false,
          "internalType": "uint256",
          "name": "groupIndex",
          "type": "uint256"
        }
      ],
      "name": "GroupMemberRewardsWithdrawn",
      "type": "event"
    },
    {
      "anonymous": false,
      "inputs": [
        {
          "indexed": false,
          "internalType": "uint256",
          "name": "newEntry",
          "type": "uint256"
        }
      ],
      "name": "GroupSelectionStarted",
      "type": "event"
    },
    {
      "anonymous": false,
      "inputs": [
        {
          "indexed": false,
          "internalType": "bytes",
          "name": "groupPubKey",
          "type": "bytes"
        }
      ],
      "name": "OnGroupRegistered",
      "type": "event"
    },
    {
      "anonymous": false,
      "inputs": [
        {
          "indexed": false,
          "internalType": "bytes",
          "name": "previousEntry",
          "type": "bytes"
        },
        {
          "indexed": false,
          "internalType": "bytes",
          "name": "groupPublicKey",
          "type": "bytes"
        }
      ],
      "name": "RelayEntryRequested",
      "type": "event"
    },
    {
      "anonymous": false,
      "inputs": [],
      "name": "RelayEntrySubmitted",
      "type": "event"
    },
    {
      "anonymous": false,
      "inputs": [
        {
          "indexed": true,
          "internalType": "uint256",
          "name": "groupIndex",
          "type": "uint256"
        }
      ],
      "name": "RelayEntryTimeoutReported",
      "type": "event"
    },
    {
      "anonymous": false,
      "inputs": [
        {
          "indexed": true,
          "internalType": "uint256",
          "name": "groupIndex",
          "type": "uint256"
        }
      ],
      "name": "UnauthorizedSigningReported",
      "type": "event"
    },
    {
      "constant": false,
      "inputs": [
        {
          "internalType": "address",
          "name": "serviceContract",
          "type": "address"
        }
      ],
      "name": "addServiceContract",
      "outputs": [],
      "payable": false,
      "stateMutability": "nonpayable",
      "type": "function"
    },
    {
      "constant": false,
      "inputs": [
        {
          "internalType": "uint256",
          "name": "_newEntry",
          "type": "uint256"
        },
        {
          "internalType": "address payable",
          "name": "submitter",
          "type": "address"
        }
      ],
      "name": "createGroup",
      "outputs": [],
      "payable": true,
      "stateMutability": "payable",
      "type": "function"
    },
    {
      "constant": true,
      "inputs": [],
      "name": "currentRequestGroupIndex",
      "outputs": [
        {
          "internalType": "uint256",
          "name": "",
          "type": "uint256"
        }
      ],
      "payable": false,
      "stateMutability": "view",
      "type": "function"
    },
    {
      "constant": true,
      "inputs": [],
      "name": "currentRequestPreviousEntry",
      "outputs": [
        {
          "internalType": "bytes",
          "name": "",
          "type": "bytes"
        }
      ],
      "payable": false,
      "stateMutability": "view",
      "type": "function"
    },
    {
      "constant": true,
      "inputs": [],
      "name": "currentRequestStartBlock",
      "outputs": [
        {
          "internalType": "uint256",
          "name": "",
          "type": "uint256"
        }
      ],
      "payable": false,
      "stateMutability": "view",
      "type": "function"
    },
    {
      "constant": true,
      "inputs": [],
      "name": "dkgGasEstimate",
      "outputs": [
        {
          "internalType": "uint256",
          "name": "",
          "type": "uint256"
        }
      ],
      "payable": false,
      "stateMutability": "view",
      "type": "function"
    },
    {
      "constant": true,
      "inputs": [],
      "name": "dkgSubmitterReimbursementFee",
      "outputs": [
        {
          "internalType": "uint256",
          "name": "",
          "type": "uint256"
        }
      ],
      "payable": false,
      "stateMutability": "view",
      "type": "function"
    },
    {
      "constant": true,
      "inputs": [],
      "name": "entryVerificationFee",
      "outputs": [
        {
          "internalType": "uint256",
          "name": "",
          "type": "uint256"
        }
      ],
      "payable": false,
      "stateMutability": "view",
      "type": "function"
    },
    {
      "constant": true,
      "inputs": [],
      "name": "entryVerificationGasEstimate",
      "outputs": [
        {
          "internalType": "uint256",
          "name": "",
          "type": "uint256"
        }
      ],
      "payable": false,
      "stateMutability": "view",
      "type": "function"
    },
    {
      "constant": true,
      "inputs": [],
      "name": "gasPriceCeiling",
      "outputs": [
        {
          "internalType": "uint256",
          "name": "",
          "type": "uint256"
        }
      ],
      "payable": false,
      "stateMutability": "view",
      "type": "function"
    },
    {
      "constant": false,
      "inputs": [],
      "name": "genesis",
      "outputs": [],
      "payable": true,
      "stateMutability": "payable",
      "type": "function"
    },
    {
      "constant": true,
      "inputs": [],
      "name": "getFirstActiveGroupIndex",
      "outputs": [
        {
          "internalType": "uint256",
          "name": "",
          "type": "uint256"
        }
      ],
      "payable": false,
      "stateMutability": "view",
      "type": "function"
    },
    {
      "constant": true,
      "inputs": [
        {
          "internalType": "bytes",
          "name": "groupPubKey",
          "type": "bytes"
        }
      ],
      "name": "getGroupMemberRewards",
      "outputs": [
        {
          "internalType": "uint256",
          "name": "",
          "type": "uint256"
        }
      ],
      "payable": false,
      "stateMutability": "view",
      "type": "function"
    },
    {
      "constant": true,
      "inputs": [
        {
          "internalType": "bytes",
          "name": "groupPubKey",
          "type": "bytes"
        }
      ],
      "name": "getGroupMembers",
      "outputs": [
        {
          "internalType": "address[]",
          "name": "members",
          "type": "address[]"
        }
      ],
      "payable": false,
      "stateMutability": "view",
      "type": "function"
    },
    {
      "constant": true,
      "inputs": [
        {
          "internalType": "uint256",
          "name": "groupIndex",
          "type": "uint256"
        }
      ],
      "name": "getGroupPublicKey",
      "outputs": [
        {
          "internalType": "bytes",
          "name": "",
          "type": "bytes"
        }
      ],
      "payable": false,
      "stateMutability": "view",
      "type": "function"
    },
    {
      "constant": true,
      "inputs": [
        {
          "internalType": "uint256",
          "name": "groupIndex",
          "type": "uint256"
        }
      ],
      "name": "getGroupRegistrationTime",
      "outputs": [
        {
          "internalType": "uint256",
          "name": "",
          "type": "uint256"
        }
      ],
      "payable": false,
      "stateMutability": "view",
      "type": "function"
    },
    {
      "constant": true,
      "inputs": [],
      "name": "getNumberOfCreatedGroups",
      "outputs": [
        {
          "internalType": "uint256",
          "name": "",
          "type": "uint256"
        }
      ],
      "payable": false,
      "stateMutability": "view",
      "type": "function"
    },
    {
      "constant": true,
      "inputs": [],
      "name": "groupCreationFee",
      "outputs": [
        {
          "internalType": "uint256",
          "name": "",
          "type": "uint256"
        }
      ],
      "payable": false,
      "stateMutability": "view",
      "type": "function"
    },
    {
      "constant": true,
      "inputs": [],
      "name": "groupMemberBaseReward",
      "outputs": [
        {
          "internalType": "uint256",
          "name": "",
          "type": "uint256"
        }
      ],
      "payable": false,
      "stateMutability": "view",
      "type": "function"
    },
    {
      "constant": true,
      "inputs": [],
      "name": "groupProfitFee",
      "outputs": [
        {
          "internalType": "uint256",
          "name": "",
          "type": "uint256"
        }
      ],
      "payable": false,
      "stateMutability": "view",
      "type": "function"
    },
    {
      "constant": true,
      "inputs": [],
      "name": "groupSelectionGasEstimate",
      "outputs": [
        {
          "internalType": "uint256",
          "name": "",
          "type": "uint256"
        }
      ],
      "payable": false,
      "stateMutability": "view",
      "type": "function"
    },
    {
      "constant": true,
      "inputs": [],
      "name": "groupSize",
      "outputs": [
        {
          "internalType": "uint256",
          "name": "",
          "type": "uint256"
        }
      ],
      "payable": false,
      "stateMutability": "view",
      "type": "function"
    },
    {
      "constant": true,
      "inputs": [],
      "name": "groupThreshold",
      "outputs": [
        {
          "internalType": "uint256",
          "name": "",
          "type": "uint256"
        }
      ],
      "payable": false,
      "stateMutability": "view",
      "type": "function"
    },
    {
      "constant": true,
      "inputs": [
        {
          "internalType": "address",
          "name": "staker",
          "type": "address"
        }
      ],
      "name": "hasMinimumStake",
      "outputs": [
        {
          "internalType": "bool",
          "name": "",
          "type": "bool"
        }
      ],
      "payable": false,
      "stateMutability": "view",
      "type": "function"
    },
    {
      "constant": true,
      "inputs": [
        {
          "internalType": "address",
          "name": "operator",
          "type": "address"
        },
        {
          "internalType": "uint256",
          "name": "groupIndex",
          "type": "uint256"
        }
      ],
      "name": "hasWithdrawnRewards",
      "outputs": [
        {
          "internalType": "bool",
          "name": "",
          "type": "bool"
        }
      ],
      "payable": false,
      "stateMutability": "view",
      "type": "function"
    },
    {
      "constant": true,
      "inputs": [],
      "name": "isEntryInProgress",
      "outputs": [
        {
          "internalType": "bool",
          "name": "",
          "type": "bool"
        }
      ],
      "payable": false,
      "stateMutability": "view",
      "type": "function"
    },
    {
      "constant": true,
      "inputs": [
        {
          "internalType": "bytes",
          "name": "groupPubKey",
          "type": "bytes"
        }
      ],
      "name": "isGroupRegistered",
      "outputs": [
        {
          "internalType": "bool",
          "name": "",
          "type": "bool"
        }
      ],
      "payable": false,
      "stateMutability": "view",
      "type": "function"
    },
    {
      "constant": true,
      "inputs": [],
      "name": "isGroupSelectionPossible",
      "outputs": [
        {
          "internalType": "bool",
          "name": "",
          "type": "bool"
        }
      ],
      "payable": false,
      "stateMutability": "view",
      "type": "function"
    },
    {
      "constant": true,
      "inputs": [
        {
          "internalType": "uint256",
          "name": "groupIndex",
          "type": "uint256"
        }
      ],
      "name": "isGroupTerminated",
      "outputs": [
        {
          "internalType": "bool",
          "name": "",
          "type": "bool"
        }
      ],
      "payable": false,
      "stateMutability": "view",
      "type": "function"
    },
    {
      "constant": true,
      "inputs": [
        {
          "internalType": "bytes",
          "name": "groupPubKey",
          "type": "bytes"
        }
      ],
      "name": "isStaleGroup",
      "outputs": [
        {
          "internalType": "bool",
          "name": "",
          "type": "bool"
        }
      ],
      "payable": false,
      "stateMutability": "view",
      "type": "function"
    },
    {
      "constant": true,
      "inputs": [],
      "name": "numberOfGroups",
      "outputs": [
        {
          "internalType": "uint256",
          "name": "",
          "type": "uint256"
        }
      ],
      "payable": false,
      "stateMutability": "view",
      "type": "function"
    },
    {
      "constant": false,
      "inputs": [],
      "name": "refreshGasPrice",
      "outputs": [],
      "payable": false,
      "stateMutability": "nonpayable",
      "type": "function"
    },
    {
      "constant": true,
      "inputs": [],
      "name": "relayEntryTimeout",
      "outputs": [
        {
          "internalType": "uint256",
          "name": "",
          "type": "uint256"
        }
      ],
      "payable": false,
      "stateMutability": "view",
      "type": "function"
    },
    {
      "constant": false,
      "inputs": [],
      "name": "reportRelayEntryTimeout",
      "outputs": [],
      "payable": false,
      "stateMutability": "nonpayable",
      "type": "function"
    },
    {
      "constant": false,
      "inputs": [
        {
          "internalType": "uint256",
          "name": "groupIndex",
          "type": "uint256"
        },
        {
          "internalType": "bytes",
          "name": "signedMsgSender",
          "type": "bytes"
        }
      ],
      "name": "reportUnauthorizedSigning",
      "outputs": [],
      "payable": false,
      "stateMutability": "nonpayable",
      "type": "function"
    },
    {
      "constant": true,
      "inputs": [],
      "name": "resultPublicationBlockStep",
      "outputs": [
        {
          "internalType": "uint256",
          "name": "",
          "type": "uint256"
        }
      ],
      "payable": false,
      "stateMutability": "view",
      "type": "function"
    },
    {
      "constant": true,
      "inputs": [],
      "name": "selectedParticipants",
      "outputs": [
        {
          "internalType": "address[]",
          "name": "",
          "type": "address[]"
        }
      ],
      "payable": false,
      "stateMutability": "view",
      "type": "function"
    },
    {
      "constant": false,
      "inputs": [
        {
          "internalType": "uint256",
          "name": "requestId",
          "type": "uint256"
        },
        {
          "internalType": "bytes",
          "name": "previousEntry",
          "type": "bytes"
        }
      ],
      "name": "sign",
      "outputs": [],
      "payable": true,
      "stateMutability": "payable",
      "type": "function"
    },
    {
      "constant": false,
      "inputs": [
        {
          "internalType": "uint256",
          "name": "submitterMemberIndex",
          "type": "uint256"
        },
        {
          "internalType": "bytes",
          "name": "groupPubKey",
          "type": "bytes"
        },
        {
          "internalType": "bytes",
          "name": "misbehaved",
          "type": "bytes"
        },
        {
          "internalType": "bytes",
          "name": "signatures",
          "type": "bytes"
        },
        {
          "internalType": "uint256[]",
          "name": "signingMembersIndexes",
          "type": "uint256[]"
        }
      ],
      "name": "submitDkgResult",
      "outputs": [],
      "payable": false,
      "stateMutability": "nonpayable",
      "type": "function"
    },
    {
      "constant": false,
      "inputs": [
        {
          "internalType": "bytes32",
          "name": "ticket",
          "type": "bytes32"
        }
      ],
      "name": "submitTicket",
      "outputs": [],
      "payable": false,
      "stateMutability": "nonpayable",
      "type": "function"
    },
    {
      "constant": true,
      "inputs": [],
      "name": "submittedTickets",
      "outputs": [
        {
          "internalType": "uint64[]",
          "name": "",
          "type": "uint64[]"
        }
      ],
      "payable": false,
      "stateMutability": "view",
      "type": "function"
    },
    {
      "constant": true,
      "inputs": [],
      "name": "ticketSubmissionTimeout",
      "outputs": [
        {
          "internalType": "uint256",
          "name": "",
          "type": "uint256"
        }
      ],
      "payable": false,
      "stateMutability": "view",
      "type": "function"
    },
    {
      "constant": false,
      "inputs": [
        {
          "internalType": "address",
          "name": "operator",
          "type": "address"
        },
        {
          "internalType": "uint256",
          "name": "groupIndex",
          "type": "uint256"
        }
      ],
      "name": "withdrawGroupMemberRewards",
      "outputs": [],
      "payable": false,
      "stateMutability": "nonpayable",
      "type": "function"
    },
    {
      "constant": false,
      "inputs": [
        {
          "internalType": "bytes",
          "name": "groupPublicKey",
          "type": "bytes"
        },
        {
          "internalType": "address[]",
          "name": "members",
          "type": "address[]"
        }
      ],
      "name": "registerNewGroup",
      "outputs": [],
      "payable": false,
      "stateMutability": "nonpayable",
      "type": "function"
    },
    {
      "constant": false,
      "inputs": [],
      "name": "relayEntry",
      "outputs": [
        {
          "internalType": "uint256",
          "name": "",
          "type": "uint256"
        }
      ],
      "payable": false,
      "stateMutability": "nonpayable",
      "type": "function"
    },
    {
      "constant": false,
      "inputs": [
        {
          "internalType": "bytes",
          "name": "_groupSignature",
          "type": "bytes"
        }
      ],
      "name": "relayEntry",
      "outputs": [],
      "payable": false,
      "stateMutability": "nonpayable",
      "type": "function"
    }
  ],
  "bytecode": "0x608060405266038d7ea4c68000601d55640df8475800601e556040601f556021602055600660215562000045602154601f54620002f860201b620047c41790919060201c565b602255620445c0602355621a8ce060245562030d406025553480156200006a57600080fd5b5060405162005e8538038062005e85833981810160405260808110156200009057600080fd5b810190808051906020019092919080519060200190929190805190602001909291908051906020019092919050505083838383600160008190555060198490806001815401808255809150509060018203906000526020600020016000909192909190916101000a81548173ffffffffffffffffffffffffffffffffffffffff021916908373ffffffffffffffffffffffffffffffffffffffff1602179055505082601b60006101000a81548173ffffffffffffffffffffffffffffffffffffffff021916908373ffffffffffffffffffffffffffffffffffffffff16021790555081601a60006101000a81548173ffffffffffffffffffffffffffffffffffffffff021916908373ffffffffffffffffffffffffffffffffffffffff16021790555080601c60006101000a81548173ffffffffffffffffffffffffffffffffffffffff021916908373ffffffffffffffffffffffffffffffffffffffff160217905550601b60009054906101000a900473ffffffffffffffffffffffffffffffffffffffff16600b60090160006101000a81548173ffffffffffffffffffffffffffffffffffffffff021916908373ffffffffffffffffffffffffffffffffffffffff16021790555062013b00600b60000181905550602254600b60010181905550604e600160030181905550601f546001600901819055506048601560000181905550602154601560010181905550601f546015600201819055506002602054601f540381620002be57fe5b0460205401601560030181905550505050506003601f819055506003600b60000181905550600a600b600101819055505050505062000383565b6000808314156200030d57600090506200037d565b60008284029050828482816200031f57fe5b041462000378576040517f08c379a000000000000000000000000000000000000000000000000000000000815260040180806020018281038252602181526020018062005e646021913960400191505060405180910390fd5b809150505b92915050565b615ad180620003936000396000f3fe60806040526004361061027c5760003560e01c80637d7d7dd91161014f578063bf952496116100c1578063d12f5e691161007a578063d12f5e6914611226578063e1f4d63214611343578063e581ff741461136e578063eb9488d314611440578063ef7c8f9c1461146b578063fdd18b131461151f5761027c565b8063bf95249614611115578063c300d05814611140578063c44389461461116b578063c45751cd14611196578063c96e71fb146111ad578063c98622fb146111fb5761027c565b80639dabee44116101135780639dabee4414610ee6578063a78cbd3614610fc2578063a7f0b3de14610fed578063ac374f4b14610ff7578063b1c77c8f146110bf578063b99f0c43146110ea5761027c565b80637d7d7dd914610d3d578063885c020414610d685780638a3a3da814610dbb5780638e9e56a514610df65780639b3d270a14610e215761027c565b8063517471a9116101f35780636dcc64f8116101ac5780636dcc64f8146109a85780636e5636e4146109d35780637031b7ff14610a0257806373f1daab14610a2d5780637760c6c714610cc157806379f9fb7e14610d125761027c565b8063517471a91461079e5780635c1c0710146107c95780635ec60d6114610832578063618c2656146108815780636262d54e1461091157806363b635ea1461097d5761027c565b806321a8f86c1161024557806321a8f86c1461056b57806324f173131461059a5780632d6f8f31146105c557806336c85717146106a5578063376f7a11146106d05780633926c28e146107435761027c565b80623bf87e146102815780630b19991f146102ac5780631c524ac2146103185780631ed74070146103f85780631f2826001461040f575b600080fd5b34801561028d57600080fd5b5061029661154a565b6040518082815260200191505060405180910390f35b3480156102b857600080fd5b506102c1611550565b6040518080602001828103825283818151815260200191508051906020019060200280838360005b838110156103045780820151818401526020810190506102e9565b505050509050019250505060405180910390f35b34801561032457600080fd5b506103de6004803603602081101561033b57600080fd5b810190808035906020019064010000000081111561035857600080fd5b82018360208201111561036a57600080fd5b8035906020019184600183028401116401000000008311171561038c57600080fd5b91908080601f016020809104026020016040519081016040528093929190818152602001838380828437600081840152601f19601f82011690508083019250505050505050919291929050505061167e565b604051808215151515815260200191505060405180910390f35b34801561040457600080fd5b5061040d61169b565b005b34801561041b57600080fd5b506105696004803603604081101561043257600080fd5b810190808035906020019064010000000081111561044f57600080fd5b82018360208201111561046157600080fd5b8035906020019184600183028401116401000000008311171561048357600080fd5b91908080601f016020809104026020016040519081016040528093929190818152602001838380828437600081840152601f19601f820116905080830192505050505050509192919290803590602001906401000000008111156104e657600080fd5b8201836020820111156104f857600080fd5b8035906020019184602083028401116401000000008311171561051a57600080fd5b919080806020026020016040519081016040528093929190818152602001838360200280828437600081840152601f19601f8201169050808301925050505050505091929192905050506118ac565b005b34801561057757600080fd5b50610580611abb565b604051808215151515815260200191505060405180910390f35b3480156105a657600080fd5b506105af611b07565b6040518082815260200191505060405180910390f35b3480156105d157600080fd5b5061068b600480360360208110156105e857600080fd5b810190808035906020019064010000000081111561060557600080fd5b82018360208201111561061757600080fd5b8035906020019184600183028401116401000000008311171561063957600080fd5b91908080601f016020809104026020016040519081016040528093929190818152602001838380828437600081840152601f19601f820116905080830192505050505050509192919290505050611b0d565b604051808215151515815260200191505060405180910390f35b3480156106b157600080fd5b506106ba611c10565b6040518082815260200191505060405180910390f35b3480156106dc57600080fd5b50610729600480360360408110156106f357600080fd5b81019080803573ffffffffffffffffffffffffffffffffffffffff16906020019092919080359060200190929190505050611c16565b604051808215151515815260200191505060405180910390f35b34801561074f57600080fd5b5061079c6004803603604081101561076657600080fd5b81019080803573ffffffffffffffffffffffffffffffffffffffff16906020019092919080359060200190929190505050611ce9565b005b3480156107aa57600080fd5b506107b36120f6565b6040518082815260200191505060405180910390f35b3480156107d557600080fd5b50610818600480360360208110156107ec57600080fd5b81019080803573ffffffffffffffffffffffffffffffffffffffff169060200190929190505050612114565b604051808215151515815260200191505060405180910390f35b34801561083e57600080fd5b5061086b6004803603602081101561085557600080fd5b810190808035906020019092919050505061222b565b6040518082815260200191505060405180910390f35b34801561088d57600080fd5b506108966122c9565b6040518080602001828103825283818151815260200191508051906020019080838360005b838110156108d65780820151818401526020810190506108bb565b50505050905090810190601f1680156109035780820380516001836020036101000a031916815260200191505b509250505060405180910390f35b34801561091d57600080fd5b50610926612367565b6040518080602001828103825283818151815260200191508051906020019060200280838360005b8381101561096957808201518184015260208101905061094e565b505050509050019250505060405180910390f35b34801561098957600080fd5b506109926123f6565b6040518082815260200191505060405180910390f35b3480156109b457600080fd5b506109bd6123fc565b6040518082815260200191505060405180910390f35b3480156109df57600080fd5b506109e8612402565b604051808215151515815260200191505060405180910390f35b348015610a0e57600080fd5b50610a1761240f565b6040518082815260200191505060405180910390f35b348015610a3957600080fd5b50610cbf600480360360a0811015610a5057600080fd5b810190808035906020019092919080359060200190640100000000811115610a7757600080fd5b820183602082011115610a8957600080fd5b80359060200191846001830284011164010000000083111715610aab57600080fd5b91908080601f016020809104026020016040519081016040528093929190818152602001838380828437600081840152601f19601f82011690508083019250505050505050919291929080359060200190640100000000811115610b0e57600080fd5b820183602082011115610b2057600080fd5b80359060200191846001830284011164010000000083111715610b4257600080fd5b91908080601f016020809104026020016040519081016040528093929190818152602001838380828437600081840152601f19601f82011690508083019250505050505050919291929080359060200190640100000000811115610ba557600080fd5b820183602082011115610bb757600080fd5b80359060200191846001830284011164010000000083111715610bd957600080fd5b91908080601f016020809104026020016040519081016040528093929190818152602001838380828437600081840152601f19601f82011690508083019250505050505050919291929080359060200190640100000000811115610c3c57600080fd5b820183602082011115610c4e57600080fd5b80359060200191846020830284011164010000000083111715610c7057600080fd5b919080806020026020016040519081016040528093929190818152602001838360200280828437600081840152601f19601f820116905080830192505050505050509192919290505050612415565b005b348015610ccd57600080fd5b50610d1060048036036020811015610ce457600080fd5b81019080803573ffffffffffffffffffffffffffffffffffffffff169060200190929190505050612afd565b005b348015610d1e57600080fd5b50610d27612ce0565b6040518082815260200191505060405180910390f35b348015610d4957600080fd5b50610d52612ce6565b6040518082815260200191505060405180910390f35b348015610d7457600080fd5b50610da160048036036020811015610d8b57600080fd5b8101908080359060200190929190505050612cec565b604051808215151515815260200191505060405180910390f35b348015610dc757600080fd5b50610df460048036036020811015610dde57600080fd5b8101908080359060200190929190505050612d09565b005b348015610e0257600080fd5b50610e0b612eb0565b6040518082815260200191505060405180910390f35b610ee460048036036040811015610e3757600080fd5b810190808035906020019092919080359060200190640100000000811115610e5e57600080fd5b820183602082011115610e7057600080fd5b80359060200191846001830284011164010000000083111715610e9257600080fd5b91908080601f016020809104026020016040519081016040528093929190818152602001838380828437600081840152601f19601f820116905080830192505050505050509192919290505050612eb6565b005b348015610ef257600080fd5b50610fac60048036036020811015610f0957600080fd5b8101908080359060200190640100000000811115610f2657600080fd5b820183602082011115610f3857600080fd5b80359060200191846001830284011164010000000083111715610f5a57600080fd5b91908080601f016020809104026020016040519081016040528093929190818152602001838380828437600081840152601f19601f820116905080830192505050505050509192919290505050613086565b6040518082815260200191505060405180910390f35b348015610fce57600080fd5b50610fd76130fc565b6040518082815260200191505060405180910390f35b610ff5613142565b005b34801561100357600080fd5b506110bd6004803603602081101561101a57600080fd5b810190808035906020019064010000000081111561103757600080fd5b82018360208201111561104957600080fd5b8035906020019184600183028401116401000000008311171561106b57600080fd5b91908080601f016020809104026020016040519081016040528093929190818152602001838380828437600081840152601f19601f82011690508083019250505050505050919291929050505061334f565b005b3480156110cb57600080fd5b506110d4613c8e565b6040518082815260200191505060405180910390f35b3480156110f657600080fd5b506110ff613c94565b6040518082815260200191505060405180910390f35b34801561112157600080fd5b5061112a613c9a565b6040518082815260200191505060405180910390f35b34801561114c57600080fd5b50611155613cab565b6040518082815260200191505060405180910390f35b34801561117757600080fd5b50611180613cdd565b6040518082815260200191505060405180910390f35b3480156111a257600080fd5b506111ab613cfb565b005b6111f9600480360360408110156111c357600080fd5b8101908080359060200190929190803573ffffffffffffffffffffffffffffffffffffffff169060200190929190505050613da6565b005b34801561120757600080fd5b506112106140c7565b6040518082815260200191505060405180910390f35b34801561123257600080fd5b506112ec6004803603602081101561124957600080fd5b810190808035906020019064010000000081111561126657600080fd5b82018360208201111561127857600080fd5b8035906020019184600183028401116401000000008311171561129a57600080fd5b91908080601f016020809104026020016040519081016040528093929190818152602001838380828437600081840152601f19601f8201169050808301925050505050505091929192905050506140d4565b6040518080602001828103825283818151815260200191508051906020019060200280838360005b8381101561132f578082015181840152602081019050611314565b505050509050019250505060405180910390f35b34801561134f57600080fd5b50611358614271565b6040518082815260200191505060405180910390f35b34801561137a57600080fd5b5061143e6004803603604081101561139157600080fd5b8101908080359060200190929190803590602001906401000000008111156113b857600080fd5b8201836020820111156113ca57600080fd5b803590602001918460018302840111640100000000831117156113ec57600080fd5b91908080601f016020809104026020016040519081016040528093929190818152602001838380828437600081840152601f19601f820116905080830192505050505050509192919290505050614277565b005b34801561144c57600080fd5b50611455614431565b6040518082815260200191505060405180910390f35b34801561147757600080fd5b506114a46004803603602081101561148e57600080fd5b810190808035906020019092919050505061443e565b6040518080602001828103825283818151815260200191508051906020019080838360005b838110156114e45780820151818401526020810190506114c9565b50505050905090810190601f1680156115115780820380516001836020036101000a031916815260200191505b509250505060405180910390f35b34801561152b57600080fd5b5061153461445b565b6040518082815260200191505060405180910390f35b60245481565b6060600173__GroupSelection________________________63a3c6b2b390916040518263ffffffff1660e01b81526004018082815260200191505060006040518083038186803b1580156115a457600080fd5b505af41580156115b8573d6000803e3d6000fd5b505050506040513d6000823e3d601f19601f8201168201806040525060208110156115e257600080fd5b810190808051604051939291908464010000000082111561160257600080fd5b8382019150602082018581111561161857600080fd5b825186602082028301116401000000008211171561163557600080fd5b8083526020830192505050908051906020019060200280838360005b8381101561166c578082015181840152602081019050611651565b50505050905001604052505050905090565b600061169482600b61446b90919063ffffffff16565b9050919050565b6116a36144e3565b611715576040517f08c379a00000000000000000000000000000000000000000000000000000000081526004018080602001828103825260168152602001807f456e74727920646964206e6f742074696d65206f75740000000000000000000081525060200191505060405180910390fd5b600b73__Groups________________________________63a24940029091602a54601f546040518463ffffffff1660e01b815260040180848152602001838152602001828152602001935050505060006040518083038186803b15801561177b57600080fd5b505af415801561178f573d6000803e3d6000fd5b50505050600060298190555060006117a5613c9a565b111561187b5761187a602854602b8054600181600116156101000203166002900480601f0160208091040260200160405190810160405280929190818152602001828054600181600116156101000203166002900480156118475780601f1061181c57610100808354040283529160200191611847565b820191906000526020600020905b81548152906001019060200180831161182a57829003601f168201915b5050505050602e60009054906101000a900473ffffffffffffffffffffffffffffffffffffffff16602c54602d54614501565b5b602a547f6675fe3ae219641aa4ec9e58867bd7af88bf03caf819d8858f3ddf4cc635eed260405160405180910390a2565b600b73__Groups________________________________634a1a55fa9091846040518363ffffffff1660e01b81526004018083815260200180602001828103825283818151815260200191508051906020019080838360005b83811015611920578082015181840152602081019050611905565b50505050905090810190601f16801561194d5780820380516001836020036101000a031916815260200191505b50935050505060006040518083038186803b15801561196b57600080fd5b505af415801561197f573d6000803e3d6000fd5b50505050600b73__Groups________________________________63e130bd67909184846040518463ffffffff1660e01b815260040180848152602001806020018060200180602001848103845286818151815260200191508051906020019080838360005b83811015611a005780820151818401526020810190506119e5565b50505050905090810190601f168015611a2d5780820380516001836020036101000a031916815260200191505b50848103835285818151815260200191508051906020019060200280838360005b83811015611a69578082015181840152602081019050611a4e565b50505050905001848103825260008152602001602001965050505050505060006040518083038186803b158015611a9f57600080fd5b505af4158015611ab3573d6000803e3d6000fd5b505050505050565b6000600160050160009054906101000a900460ff16611add5760019050611b04565b6000602154601f540260156000015460016003015460016004015401010190508043119150505b90565b60255481565b6000600b73__Groups________________________________63cc9b37c29091846040518363ffffffff1660e01b81526004018083815260200180602001828103825283818151815260200191508051906020019080838360005b83811015611b83578082015181840152602081019050611b68565b50505050905090810190601f168015611bb05780820380516001836020036101000a031916815260200191505b50935050505060206040518083038186803b158015611bce57600080fd5b505af4158015611be2573d6000803e3d6000fd5b505050506040513d6020811015611bf857600080fd5b81019080805190602001909291905050509050919050565b60215481565b6000600b73__Groups________________________________634a37cba2909185856040518463ffffffff1660e01b8152600401808481526020018373ffffffffffffffffffffffffffffffffffffffff1673ffffffffffffffffffffffffffffffffffffffff168152602001828152602001935050505060206040518083038186803b158015611ca657600080fd5b505af4158015611cba573d6000803e3d6000fd5b505050506040513d6020811015611cd057600080fd5b8101908080519060200190929190505050905092915050565b600160008082825401925050819055506000805490506000600b73__Groups________________________________6319818cd3909186866040518463ffffffff1660e01b8152600401808481526020018373ffffffffffffffffffffffffffffffffffffffff1673ffffffffffffffffffffffffffffffffffffffff168152602001828152602001935050505060206040518083038186803b158015611d8f57600080fd5b505af4158015611da3573d6000803e3d6000fd5b505050506040513d6020811015611db957600080fd5b810190808051906020019092919050505090506000601b60009054906101000a900473ffffffffffffffffffffffffffffffffffffffff1673ffffffffffffffffffffffffffffffffffffffff1663ba7bffd3866040518263ffffffff1660e01b8152600401808273ffffffffffffffffffffffffffffffffffffffff1673ffffffffffffffffffffffffffffffffffffffff16815260200191505060206040518083038186803b158015611e6d57600080fd5b505afa158015611e81573d6000803e3d6000fd5b505050506040513d6020811015611e9757600080fd5b810190808051906020019092919050505073ffffffffffffffffffffffffffffffffffffffff168260405180600001905060006040518083038185875af1925050503d8060008114611f05576040519150601f19603f3d011682016040523d82523d6000602084013e611f0a565b606091505b50509050801561207857601b60009054906101000a900473ffffffffffffffffffffffffffffffffffffffff1673ffffffffffffffffffffffffffffffffffffffff1663ba7bffd3866040518263ffffffff1660e01b8152600401808273ffffffffffffffffffffffffffffffffffffffff1673ffffffffffffffffffffffffffffffffffffffff16815260200191505060206040518083038186803b158015611fb357600080fd5b505afa158015611fc7573d6000803e3d6000fd5b505050506040513d6020811015611fdd57600080fd5b810190808051906020019092919050505073ffffffffffffffffffffffffffffffffffffffff167fd2d1d8bb9db82c3480418ddcddf25a021102ad139edec2a62b274595d408a88d868487604051808473ffffffffffffffffffffffffffffffffffffffff1673ffffffffffffffffffffffffffffffffffffffff168152602001838152602001828152602001935050505060405180910390a25b505060005481146120f1576040517f08c379a000000000000000000000000000000000000000000000000000000000815260040180806020018281038252601f8152602001807f5265656e7472616e637947756172643a207265656e7472616e742063616c6c0081525060200191505060405180910390fd5b505050565b600061210f601e546023546147c490919063ffffffff16565b905090565b6000601b60009054906101000a900473ffffffffffffffffffffffffffffffffffffffff1673ffffffffffffffffffffffffffffffffffffffff166310a63ec083306040518363ffffffff1660e01b8152600401808373ffffffffffffffffffffffffffffffffffffffff1673ffffffffffffffffffffffffffffffffffffffff1681526020018273ffffffffffffffffffffffffffffffffffffffff1673ffffffffffffffffffffffffffffffffffffffff1681526020019250505060206040518083038186803b1580156121e957600080fd5b505afa1580156121fd573d6000803e3d6000fd5b505050506040513d602081101561221357600080fd5b81019080805190602001909291905050509050919050565b6000600b73__Groups________________________________634732bd3b9091846040518363ffffffff1660e01b8152600401808381526020018281526020019250505060206040518083038186803b15801561228757600080fd5b505af415801561229b573d6000803e3d6000fd5b505050506040513d60208110156122b157600080fd5b81019080805190602001909291905050509050919050565b602b8054600181600116156101000203166002900480601f01602080910402602001604051908101604052809291908181526020018280546001816001161561010002031660029004801561235f5780601f106123345761010080835404028352916020019161235f565b820191906000526020600020905b81548152906001019060200180831161234257829003601f168201915b505050505081565b606060016000018054806020026020016040519081016040528092919081815260200182805480156123ec57602002820191906000526020600020906000905b82829054906101000a900467ffffffffffffffff1667ffffffffffffffff16815260200190600801906020826007010492830192600103820291508084116123a75790505b5050505050905090565b601f5481565b60205481565b6000806029541415905090565b602a5481565b600160008082825401925050819055506000805490506060612435611550565b9050601573__DKGResultVerification_________________63da0a16899091898989898988600160030154600160040154016040518963ffffffff1660e01b815260040180898152602001888152602001806020018060200180602001806020018060200187815260200186810386528c818151815260200191508051906020019080838360005b838110156124d95780820151818401526020810190506124be565b50505050905090810190601f1680156125065780820380516001836020036101000a031916815260200191505b5086810385528b818151815260200191508051906020019080838360005b8381101561253f578082015181840152602081019050612524565b50505050905090810190601f16801561256c5780820380516001836020036101000a031916815260200191505b5086810384528a818151815260200191508051906020019080838360005b838110156125a557808201518184015260208101905061258a565b50505050905090810190601f1680156125d25780820380516001836020036101000a031916815260200191505b50868103835289818151815260200191508051906020019060200280838360005b8381101561260e5780820151818401526020810190506125f3565b50505050905001868103825288818151815260200191508051906020019060200280838360005b83811015612650578082015181840152602081019050612635565b505050509050019d505050505050505050505050505060006040518083038186803b15801561267e57600080fd5b505af4158015612692573d6000803e3d6000fd5b50505050600b73__Groups________________________________63e130bd6790918884896040518563ffffffff1660e01b815260040180858152602001806020018060200180602001848103845287818151815260200191508051906020019080838360005b838110156127145780820151818401526020810190506126f9565b50505050905090810190601f1680156127415780820380516001836020036101000a031916815260200191505b50848103835286818151815260200191508051906020019060200280838360005b8381101561277d578082015181840152602081019050612762565b50505050905001848103825285818151815260200191508051906020019080838360005b838110156127bc5780820151818401526020810190506127a1565b50505050905090810190601f1680156127e95780820380516001836020036101000a031916815260200191505b5097505050505050505060006040518083038186803b15801561280b57600080fd5b505af415801561281f573d6000803e3d6000fd5b50505050600b73__Groups________________________________634a1a55fa9091886040518363ffffffff1660e01b81526004018083815260200180602001828103825283818151815260200191508051906020019080838360005b8381101561289757808201518184015260208101905061287c565b50505050905090810190601f1680156128c45780820380516001836020036101000a031916815260200191505b50935050505060006040518083038186803b1580156128e257600080fd5b505af41580156128f6573d6000803e3d6000fd5b5050505061290261484a565b7fd1d71346ed0f1479c55b14e7c48b084207a7e1bcd9abe4f22d425ec23a518a1f878787604051808481526020018060200180602001838103835285818151815260200191508051906020019080838360005b83811015612970578082015181840152602081019050612955565b50505050905090810190601f16801561299d5780820380516001836020036101000a031916815260200191505b50838103825284818151815260200191508051906020019080838360005b838110156129d65780820151818401526020810190506129bb565b50505050905090810190601f168015612a035780820380516001836020036101000a031916815260200191505b509550505050505060405180910390a1600173__GroupSelection________________________63a4b15bac90916040518263ffffffff1660e01b81526004018082815260200191505060006040518083038186803b158015612a6557600080fd5b505af4158015612a79573d6000803e3d6000fd5b50505050506000548114612af5576040517f08c379a000000000000000000000000000000000000000000000000000000000815260040180806020018281038252601f8152602001807f5265656e7472616e637947756172643a207265656e7472616e742063616c6c0081525060200191505060405180910390fd5b505050505050565b3373ffffffffffffffffffffffffffffffffffffffff16601a60009054906101000a900473ffffffffffffffffffffffffffffffffffffffff1673ffffffffffffffffffffffffffffffffffffffff16636557eccf306040518263ffffffff1660e01b8152600401808273ffffffffffffffffffffffffffffffffffffffff1673ffffffffffffffffffffffffffffffffffffffff16815260200191505060206040518083038186803b158015612bb357600080fd5b505afa158015612bc7573d6000803e3d6000fd5b505050506040513d6020811015612bdd57600080fd5b810190808051906020019092919050505073ffffffffffffffffffffffffffffffffffffffff1614612c77576040517f08c379a000000000000000000000000000000000000000000000000000000000815260040180806020018281038252600e8152602001807f4e6f7420617574686f72697a656400000000000000000000000000000000000081525060200191505060405180910390fd5b60198190806001815401808255809150509060018203906000526020600020016000909192909190916101000a81548173ffffffffffffffffffffffffffffffffffffffff021916908373ffffffffffffffffffffffffffffffffffffffff1602179055505050565b60235481565b601d5481565b6000612d0282600b614af590919063ffffffff16565b9050919050565b6000612e30600160060154601b60009054906101000a900473ffffffffffffffffffffffffffffffffffffffff1673ffffffffffffffffffffffffffffffffffffffff1663afff33ef33306040518363ffffffff1660e01b8152600401808373ffffffffffffffffffffffffffffffffffffffff1673ffffffffffffffffffffffffffffffffffffffff1681526020018273ffffffffffffffffffffffffffffffffffffffff1673ffffffffffffffffffffffffffffffffffffffff1681526020019250505060206040518083038186803b158015612de757600080fd5b505afa158015612dfb573d6000803e3d6000fd5b505050506040513d6020811015612e1157600080fd5b8101908080519060200190929190505050614b2d90919063ffffffff16565b9050600173__GroupSelection________________________63fb6ed49c909184846040518463ffffffff1660e01b815260040180848152602001838152602001828152602001935050505060006040518083038186803b158015612e9457600080fd5b505af4158015612ea8573d6000803e3d6000fd5b505050505050565b60295481565b612f4f336019805480602002602001604051908101604052809291908181526020018280548015612f3c57602002820191906000526020600020905b8160009054906101000a900473ffffffffffffffffffffffffffffffffffffffff1673ffffffffffffffffffffffffffffffffffffffff1681526020019060010190808311612ef2575b5050505050614b7790919063ffffffff16565b612fc1576040517f08c379a00000000000000000000000000000000000000000000000000000000081526004018080602001828103825260208152602001807f43616c6c6572206973206e6f742061207365727669636520636f6e747261637481525060200191505060405180910390fd5b6000612fe4612fce6120f6565b612fd6613cdd565b614bf290919063ffffffff16565b90508034101561305c576040517f08c379a000000000000000000000000000000000000000000000000000000000815260040180806020018281038252601a8152602001807f496e73756666696369656e74206e657720656e7472792066656500000000000081525060200191505060405180910390fd5b60006130718234614c7a90919063ffffffff16565b90506130808484338585614501565b50505050565b6000600b600601826040518082805190602001908083835b602083106130c1578051825260208201915060208101905060208303925061309e565b6001836020036101000a0380198251168184511680821785525050505050509050019150509081526020016040518091039020549050919050565b600080613107614cc4565b50509050613136613124602a54600b614e8190919063ffffffff16565b82600b614f449092919063ffffffff16565b60006029819055505090565b600b73__Groups________________________________63fff0da7590916040518263ffffffff1660e01b81526004018082815260200191505060006040518083038186803b15801561319457600080fd5b505af41580156131a8573d6000803e3d6000fd5b5050505060006131b6613c9a565b14613229576040517f08c379a000000000000000000000000000000000000000000000000000000000815260040180806020018281038252600c8152602001807f47726f757073206578697374000000000000000000000000000000000000000081525060200191505060405180910390fd5b600173__GroupSelection________________________63a4b15bac90916040518263ffffffff1660e01b81526004018082815260200191505060006040518083038186803b15801561327b57600080fd5b505af415801561328f573d6000803e3d6000fd5b5050505060196132ae6001601980549050614c7a90919063ffffffff16565b815481106132b857fe5b9060005260206000200160009054906101000a900473ffffffffffffffffffffffffffffffffffffffff16602760006101000a81548173ffffffffffffffffffffffffffffffffffffffff021916908373ffffffffffffffffffffffffffffffffffffffff16021790555061334d7f4574c8c75d6e88acd28f7e467dac97b5c60c3838d9dad993900bdf402152228e34615036565b565b6001600080828254019250508190555060008054905061336d612402565b6133df576040517f08c379a00000000000000000000000000000000000000000000000000000000081526004018080602001828103825260138152602001807f456e74727920776173207375626d69747465640000000000000000000000000081525060200191505060405180910390fd5b6133e76144e3565b1561345a576040517f08c379a000000000000000000000000000000000000000000000000000000000815260040180806020018281038252600f8152602001807f456e7472792074696d6564206f7574000000000000000000000000000000000081525060200191505060405180910390fd5b6060613472602a54600b614e8190919063ffffffff16565b905073__BLS___________________________________63de8f50a182602b866040518463ffffffff1660e01b815260040180806020018060200180602001848103845287818151815260200191508051906020019080838360005b838110156134e95780820151818401526020810190506134ce565b50505050905090810190601f1680156135165780820380516001836020036101000a031916815260200191505b508481038352868181546001816001161561010002031660029004815260200191508054600181600116156101000203166002900480156135985780601f1061356d57610100808354040283529160200191613598565b820191906000526020600020905b81548152906001019060200180831161357b57829003601f168201915b5050848103825285818151815260200191508051906020019080838360005b838110156135d25780820151818401526020810190506135b7565b50505050905090810190601f1680156135ff5780820380516001836020036101000a031916815260200191505b50965050505050505060206040518083038186803b15801561362057600080fd5b505af4158015613634573d6000803e3d6000fd5b505050506040513d602081101561364a57600080fd5b81019080805190602001909291905050506136cd576040517f08c379a00000000000000000000000000000000000000000000000000000000081526004018080602001828103825260118152602001807f496e76616c6964207369676e617475726500000000000000000000000000000081525060200191505060405180910390fd5b7f8711cae111460cf9bde0d890f0dc09abcb8851e39bf020f406e53e86394cdbd760405160405180910390a1602e60009054906101000a900473ffffffffffffffffffffffffffffffffffffffff1673ffffffffffffffffffffffffffffffffffffffff16613749619c40602554614bf290919063ffffffff16565b602854853360405160240180848152602001806020018373ffffffffffffffffffffffffffffffffffffffff1673ffffffffffffffffffffffffffffffffffffffff168152602001828103825284818151815260200191508051906020019080838360005b838110156137c95780820151818401526020810190506137ae565b50505050905090810190601f1680156137f65780820380516001836020036101000a031916815260200191505b509450505050506040516020818303038152906040527fef7284e3000000000000000000000000000000000000000000000000000000007bffffffffffffffffffffffffffffffffffffffffffffffffffffffff19166020820180517bffffffffffffffffffffffffffffffffffffffffffffffffffffffff83818316178352505050506040518082805190602001908083835b602083106138ad578051825260208201915060208101905060208303925061388a565b6001836020036101000a03801982511681845116808217855250505050505090500191505060006040518083038160008787f1925050503d8060008114613910576040519150601f19603f3d011682016040523d82523d6000602084013e613915565b606091505b5050506000602d54111561393757613936838051906020012060001c61533b565b5b6000806000613944614cc4565b9250925092506139608484600b614f449092919063ffffffff16565b601b60009054906101000a900473ffffffffffffffffffffffffffffffffffffffff1673ffffffffffffffffffffffffffffffffffffffff1663ba7bffd3336040518263ffffffff1660e01b8152600401808273ffffffffffffffffffffffffffffffffffffffff1673ffffffffffffffffffffffffffffffffffffffff16815260200191505060206040518083038186803b1580156139ff57600080fd5b505afa158015613a13573d6000803e3d6000fd5b505050506040513d6020811015613a2957600080fd5b810190808051906020019092919050505073ffffffffffffffffffffffffffffffffffffffff168260405180600001905060006040518083038185875af1925050503d8060008114613a97576040519150601f19603f3d011682016040523d82523d6000602084013e613a9c565b606091505b5050506000811115613c0757602e60009054906101000a900473ffffffffffffffffffffffffffffffffffffffff1673ffffffffffffffffffffffffffffffffffffffff166188b8826040516024016040516020818303038152906040527f11e816ee000000000000000000000000000000000000000000000000000000007bffffffffffffffffffffffffffffffffffffffffffffffffffffffff19166020820180517bffffffffffffffffffffffffffffffffffffffffffffffffffffffff83818316178352505050506040518082805190602001908083835b60208310613b9b5780518252602082019150602081019050602083039250613b78565b6001836020036101000a038019825116818451168082178552505050505050905001915050600060405180830381858888f193505050503d8060008114613bfe576040519150601f19603f3d011682016040523d82523d6000602084013e613c03565b606091505b5050505b6000602981905550505050506000548114613c8a576040517f08c379a000000000000000000000000000000000000000000000000000000000815260040180806020018281038252601f8152602001807f5265656e7472616e637947756172643a207265656e7472616e742063616c6c0081525060200191505060405180910390fd5b5050565b60265481565b60225481565b6000613ca6600b6157bc565b905090565b6000613cd8601e54613cca602554602454614bf290919063ffffffff16565b6147c490919063ffffffff16565b905090565b6000613cf6601f54601d546147c490919063ffffffff16565b905090565b601c60009054906101000a900473ffffffffffffffffffffffffffffffffffffffff1673ffffffffffffffffffffffffffffffffffffffff1663fe173b976040518163ffffffff1660e01b815260040160206040518083038186803b158015613d6357600080fd5b505afa158015613d77573d6000803e3d6000fd5b505050506040513d6020811015613d8d57600080fd5b8101908080519060200190929190505050601e81905550565b613e3f336019805480602002602001604051908101604052809291908181526020018280548015613e2c57602002820191906000526020600020905b8160009054906101000a900473ffffffffffffffffffffffffffffffffffffffff1673ffffffffffffffffffffffffffffffffffffffff1681526020019060010190808311613de2575b5050505050614b7790919063ffffffff16565b613eb1576040517f08c379a00000000000000000000000000000000000000000000000000000000081526004018080602001828103825260208152602001807f43616c6c6572206973206e6f742061207365727669636520636f6e747261637481525060200191505060405180910390fd5b6000613eca601e546025546147c490919063ffffffff16565b905033602760006101000a81548173ffffffffffffffffffffffffffffffffffffffff021916908373ffffffffffffffffffffffffffffffffffffffff160217905550613f2983613f248334614c7a90919063ffffffff16565b615036565b6000601b60009054906101000a900473ffffffffffffffffffffffffffffffffffffffff1673ffffffffffffffffffffffffffffffffffffffff1663ba7bffd3846040518263ffffffff1660e01b8152600401808273ffffffffffffffffffffffffffffffffffffffff1673ffffffffffffffffffffffffffffffffffffffff16815260200191505060206040518083038186803b158015613fca57600080fd5b505afa158015613fde573d6000803e3d6000fd5b505050506040513d6020811015613ff457600080fd5b810190808051906020019092919050505073ffffffffffffffffffffffffffffffffffffffff168260405180600001905060006040518083038185875af1925050503d8060008114614062576040519150601f19603f3d011682016040523d82523d6000602084013e614067565b606091505b50509050806140c1576040517f08c379a0000000000000000000000000000000000000000000000000000000008152600401808060200182810382526024815260200180615a796024913960400191505060405180910390fd5b50505050565b6000600160030154905090565b6060600b73__Groups________________________________63dc2627039091846040518363ffffffff1660e01b81526004018083815260200180602001828103825283818151815260200191508051906020019080838360005b8381101561414a57808201518184015260208101905061412f565b50505050905090810190601f1680156141775780820380516001836020036101000a031916815260200191505b50935050505060006040518083038186803b15801561419557600080fd5b505af41580156141a9573d6000803e3d6000fd5b505050506040513d6000823e3d601f19601f8201168201806040525060208110156141d357600080fd5b81019080805160405193929190846401000000008211156141f357600080fd5b8382019150602082018581111561420957600080fd5b825186602082028301116401000000008211171561422657600080fd5b8083526020830192505050908051906020019060200280838360005b8381101561425d578082015181840152602081019050614242565b505050509050016040525050509050919050565b601e5481565b600b73__Groups________________________________6320bc286690918484601b60009054906101000a900473ffffffffffffffffffffffffffffffffffffffff1673ffffffffffffffffffffffffffffffffffffffff1663ec5ffac26040518163ffffffff1660e01b815260040160206040518083038186803b1580156142ff57600080fd5b505afa158015614313573d6000803e3d6000fd5b505050506040513d602081101561432957600080fd5b81019080805190602001909291905050506040518563ffffffff1660e01b81526004018085815260200184815260200180602001838152602001828103825284818151815260200191508051906020019080838360005b8381101561439b578082015181840152602081019050614380565b50505050905090810190601f1680156143c85780820380516001836020036101000a031916815260200191505b509550505050505060006040518083038186803b1580156143e857600080fd5b505af41580156143fc573d6000803e3d6000fd5b50505050817f6124f28ae7240a98a8ad3410bcd1f3bb0a113fc9834d5bd16426f9e1bd698fde60405160405180910390a25050565b6000600b60080154905090565b606061445482600b614e8190919063ffffffff16565b9050919050565b6000600b60030180549050905090565b60008083600201836040518082805190602001908083835b602083106144a65780518252602082019150602081019050602083039250614483565b6001836020036101000a03801982511681845116808217855250505050505090500191505090815260200160405180910390205411905092915050565b600080602954141580156144fc57506022546029540143115b905090565b614509612402565b1561457c576040517f08c379a000000000000000000000000000000000000000000000000000000000815260040180806020018281038252600e8152602001807f426561636f6e206973206275737900000000000000000000000000000000000081525060200191505060405180910390fd5b6000600b73__Groups________________________________6337ed6ace9091878051906020012060001c6040518363ffffffff1660e01b8152600401808381526020018281526020019250505060206040518083038186803b1580156145e257600080fd5b505af41580156145f6573d6000803e3d6000fd5b505050506040513d602081101561460c57600080fd5b81019080805190602001909291905050509050856028819055504360298190555082602c8190555081602d8190555080602a8190555084602b90805190602001906146589291906159b2565b5083602e60006101000a81548173ffffffffffffffffffffffffffffffffffffffff021916908373ffffffffffffffffffffffffffffffffffffffff16021790555060606146b082600b614e8190919063ffffffff16565b90507ff3a8bf09e4f9146a48f9b91226985ac8d83d971beb4fc9ffdc569790e85a97e48682604051808060200180602001838103835285818151815260200191508051906020019080838360005b838110156147195780820151818401526020810190506146fe565b50505050905090810190601f1680156147465780820380516001836020036101000a031916815260200191505b50838103825284818151815260200191508051906020019080838360005b8381101561477f578082015181840152602081019050614764565b50505050905090810190601f1680156147ac5780820380516001836020036101000a031916815260200191505b5094505050505060405180910390a150505050505050565b6000808314156147d75760009050614844565b60008284029050828482816147e857fe5b041461483f576040517f08c379a0000000000000000000000000000000000000000000000000000000008152600401808060200182810382526021815260200180615a586021913960400191505060405180910390fd5b809150505b92915050565b6000601e54905060003a1180156148625750601e543a105b1561486b573a90505b6000614882826024546147c490919063ffffffff16565b90506000601b60009054906101000a900473ffffffffffffffffffffffffffffffffffffffff1673ffffffffffffffffffffffffffffffffffffffff1663ba7bffd3336040518263ffffffff1660e01b8152600401808273ffffffffffffffffffffffffffffffffffffffff1673ffffffffffffffffffffffffffffffffffffffff16815260200191505060206040518083038186803b15801561492557600080fd5b505afa158015614939573d6000803e3d6000fd5b505050506040513d602081101561494f57600080fd5b81019080805190602001909291905050509050602654821015614a7c57600061498383602654614c7a90919063ffffffff16565b905060006026819055508173ffffffffffffffffffffffffffffffffffffffff168360405180600001905060006040518083038185875af1925050503d80600081146149eb576040519150601f19603f3d011682016040523d82523d6000602084013e6149f0565b606091505b505050602760009054906101000a900473ffffffffffffffffffffffffffffffffffffffff1673ffffffffffffffffffffffffffffffffffffffff16634611b648826040518263ffffffff1660e01b81526004016000604051808303818588803b158015614a5d57600080fd5b505af1158015614a71573d6000803e3d6000fd5b505050505050614af0565b602654915060006026819055508073ffffffffffffffffffffffffffffffffffffffff168260405180600001905060006040518083038185875af1925050503d8060008114614ae7576040519150601f19603f3d011682016040523d82523d6000602084013e614aec565b606091505b5050505b505050565b6000826003018281548110614b0657fe5b906000526020600020906003020160020160009054906101000a900460ff16905092915050565b6000614b6f83836040518060400160405280601a81526020017f536166654d6174683a206469766973696f6e206279207a65726f0000000000008152506157fc565b905092915050565b600080600090505b8351811015614be657838181518110614b9457fe5b602002602001015173ffffffffffffffffffffffffffffffffffffffff168373ffffffffffffffffffffffffffffffffffffffff161415614bd9576001915050614bec565b8080600101915050614b7f565b50600090505b92915050565b600080828401905083811015614c70576040517f08c379a000000000000000000000000000000000000000000000000000000000815260040180806020018281038252601b8152602001807f536166654d6174683a206164646974696f6e206f766572666c6f77000000000081525060200191505060405180910390fd5b8091505092915050565b6000614cbc83836040518060400160405280601e81526020017f536166654d6174683a207375627472616374696f6e206f766572666c6f7700008152506158c2565b905092915050565b600080600080662386f26fc100009050600073__DelayFactor___________________________638dfa43636029546022546040518363ffffffff1660e01b8152600401808381526020018281526020019250505060206040518083038186803b158015614d3157600080fd5b505af4158015614d45573d6000803e3d6000fd5b505050506040513d6020811015614d5b57600080fd5b81019080805190602001909291905050509050614d9582614d8783601d546147c490919063ffffffff16565b614b2d90919063ffffffff16565b94506000614dc0614daf8385614c7a90919063ffffffff16565b601d546147c490919063ffffffff16565b90506000614dfe84614df06005614de2601f54876147c490919063ffffffff16565b61598290919063ffffffff16565b614b2d90919063ffffffff16565b90506000614e1e614e0d613cdd565b602c54614c7a90919063ffffffff16565b9050614e338282614bf290919063ffffffff16565b9650614e7582614e67614e51601f548c6147c490919063ffffffff16565b614e59613cdd565b614c7a90919063ffffffff16565b614c7a90919063ffffffff16565b95505050505050909192565b6060826003018281548110614e9257fe5b90600052602060002090600302016000018054600181600116156101000203166002900480601f016020809104026020016040519081016040528092919081815260200182805460018160011615610100020316600290048015614f375780601f10614f0c57610100808354040283529160200191614f37565b820191906000526020600020905b815481529060010190602001808311614f1a57829003601f168201915b5050505050905092915050565b614fc28184600601846040518082805190602001908083835b60208310614f805780518252602082019150602081019050602083039250614f5d565b6001836020036101000a038019825116818451168082178552505050505050905001915050908152602001604051809103902054614bf290919063ffffffff16565b83600601836040518082805190602001908083835b60208310614ffa5780518252602082019150602081019050602083039250614fd7565b6001836020036101000a038019825116818451168082178552505050505050905001915050908152602001604051809103902081905550505050565b61504d602454601e546147c490919063ffffffff16565b8110156150c2576040517f08c379a00000000000000000000000000000000000000000000000000000000081526004018080602001828103825260148152602001807f496e73756666696369656e7420444b472066656500000000000000000000000081525060200191505060405180910390fd5b6150ca611abb565b61513c576040517f08c379a000000000000000000000000000000000000000000000000000000000815260040180806020018281038252601b8152602001807f47726f75702073656c656374696f6e20696e2070726f6772657373000000000081525060200191505060405180910390fd5b600060265411156151db57600060265490506000602681905550602760009054906101000a900473ffffffffffffffffffffffffffffffffffffffff1673ffffffffffffffffffffffffffffffffffffffff16634611b648826040518263ffffffff1660e01b81526004016000604051808303818588803b1580156151c057600080fd5b505af11580156151d4573d6000803e3d6000fd5b5050505050505b601b60009054906101000a900473ffffffffffffffffffffffffffffffffffffffff1673ffffffffffffffffffffffffffffffffffffffff1663ec5ffac26040518163ffffffff1660e01b815260040160206040518083038186803b15801561524357600080fd5b505afa158015615257573d6000803e3d6000fd5b505050506040513d602081101561526d57600080fd5b8101908080519060200190929190505050600160060181905550600173__GroupSelection________________________6352f9b3b99091846040518363ffffffff1660e01b8152600401808381526020018281526020019250505060006040518083038186803b1580156152e157600080fd5b505af41580156152f5573d6000803e3d6000fd5b505050507f0769b89b6dbd96af3cdebccc7b68ce1e4ae748abc3e6b19a73b8b58460c57a94826040518082815260200191505060405180910390a1806026819055505050565b6000615354601e54602d54614b2d90919063ffffffff16565b9050621e84808111615366578061536b565b621e84805b90506060602e60009054906101000a900473ffffffffffffffffffffffffffffffffffffffff1673ffffffffffffffffffffffffffffffffffffffff16619c40602854604051602401808281526020019150506040516020818303038152906040527f0fda9ce4000000000000000000000000000000000000000000000000000000007bffffffffffffffffffffffffffffffffffffffffffffffffffffffff19166020820180517bffffffffffffffffffffffffffffffffffffffffffffffffffffffff83818316178352505050506040518082805190602001908083835b6020831061546e578051825260208201915060208101905060208303925061544b565b6001836020036101000a03801982511681845116808217855250505050505090500191505060006040518083038160008787f1925050503d80600081146154d1576040519150601f19603f3d011682016040523d82523d6000602084013e6154d6565b606091505b5090508091505060005a9050602e60009054906101000a900473ffffffffffffffffffffffffffffffffffffffff1673ffffffffffffffffffffffffffffffffffffffff16836028548660405160240180838152602001828152602001925050506040516020818303038152906040527ffc3fcec7000000000000000000000000000000000000000000000000000000007bffffffffffffffffffffffffffffffffffffffffffffffffffffffff19166020820180517bffffffffffffffffffffffffffffffffffffffffffffffffffffffff83818316178352505050506040518082805190602001908083835b602083106155e757805182526020820191506020810190506020830392506155c4565b6001836020036101000a03801982511681845116808217855250505050505090500191505060006040518083038160008787f1925050503d806000811461564a576040519150601f19603f3d011682016040523d82523d6000602084013e61564f565b606091505b50505060005a9050600061566c8284614c7a90919063ffffffff16565b905073__Reimbursements________________________6346a50089601b60009054906101000a900473ffffffffffffffffffffffffffffffffffffffff16601e548885602d548a6040518763ffffffff1660e01b8152600401808773ffffffffffffffffffffffffffffffffffffffff1673ffffffffffffffffffffffffffffffffffffffff16815260200186815260200185815260200184815260200183815260200180602001828103825283818151815260200191508051906020019080838360005b8381101561574d578082015181840152602081019050615732565b50505050905090810190601f16801561577a5780820380516001836020036101000a031916815260200191505b5097505050505050505060006040518083038186803b15801561579c57600080fd5b505af41580156157b0573d6000803e3d6000fd5b50505050505050505050565b60006157f582600401805490506157e784600801548560030180549050614c7a90919063ffffffff16565b614c7a90919063ffffffff16565b9050919050565b600080831182906158a8576040517f08c379a00000000000000000000000000000000000000000000000000000000081526004018080602001828103825283818151815260200191508051906020019080838360005b8381101561586d578082015181840152602081019050615852565b50505050905090810190601f16801561589a5780820380516001836020036101000a031916815260200191505b509250505060405180910390fd5b5060008385816158b457fe5b049050809150509392505050565b600083831115829061596f576040517f08c379a00000000000000000000000000000000000000000000000000000000081526004018080602001828103825283818151815260200191508051906020019080838360005b83811015615934578082015181840152602081019050615919565b50505050905090810190601f1680156159615780820380516001836020036101000a031916815260200191505b509250505060405180910390fd5b5060008385039050809150509392505050565b60006159aa606461599c84866147c490919063ffffffff16565b614b2d90919063ffffffff16565b905092915050565b828054600181600116156101000203166002900490600052602060002090601f016020900481019282601f106159f357805160ff1916838001178555615a21565b82800160010185558215615a21579182015b82811115615a20578251825591602001919060010190615a05565b5b509050615a2e9190615a32565b5090565b615a5491905b80821115615a50576000816000905550600101615a38565b5090565b9056fe536166654d6174683a206d756c7469706c69636174696f6e206f766572666c6f7747726f75702073656c656374696f6e207265696d62757273656d656e74206661696c6564a265627a7a72315820efd7f35cea824cfc374ac4386a4b80feeb8dfda21fd40143f9c9c09e1ec2819764736f6c63430005110032536166654d6174683a206d756c7469706c69636174696f6e206f766572666c6f77",
  "source": "pragma solidity 0.5.17;\n\nimport \"../KeepRandomBeaconOperator.sol\";\nimport \"../utils/BytesLib.sol\";\n\ncontract KeepRandomBeaconOperatorPricingRewardsWithdrawStub is KeepRandomBeaconOperator {\n\n    using BytesLib for bytes;\n\n    constructor(\n        address _serviceContract,\n        address _stakingContract,\n        address _registryContract,\n        address _gasPriceOracle\n    ) KeepRandomBeaconOperator(\n        _serviceContract,\n        _stakingContract,\n        _registryContract,\n        _gasPriceOracle\n    ) public {\n        groupSize = 3;\n        groups.groupActiveTime = 3;\n        groups.relayEntryTimeout = 10;\n    }\n\n    function registerNewGroup(bytes memory groupPublicKey, address[] memory members) public {\n        groups.addGroup(groupPublicKey);\n        groups.setGroupMembers(groupPublicKey, members, hex\"\");\n    }\n\n    function relayEntry() public returns (uint256) {\n        (uint256 groupMemberReward,,) = newEntryRewardsBreakdown();\n        groups.addGroupMemberReward(\n            groups.getGroupPublicKey(currentRequestGroupIndex),\n            groupMemberReward\n        );\n        currentRequestStartBlock = 0;\n    }\n}\n",
  "sourcePath": "/Users/konrad/Desktop/rumble/fin/local-setup/keep-core/solidity/contracts/stubs/KeepRandomBeaconOperatorPricingRewardsWithdrawStub.sol",
  "compiler": {
    "name": "solc",
    "version": "0.5.17+commit.d19bba13.Emscripten.clang"
  },
  "schemaVersion": "3.3.3",
  "updatedAt": "2021-04-13T12:32:12.983Z",
  "devdoc": {
    "methods": {
      "addServiceContract(address)": {
        "params": {
          "serviceContract": "Address of the service contract."
        }
      },
      "createGroup(uint256,address)": {
        "params": {
          "_newEntry": "New random beacon value that stakers will use to generate their tickets.",
          "submitter": "Operator of this contract."
        }
      },
      "hasMinimumStake(address)": {
        "params": {
          "staker": "Staker's address"
        },
        "return": "True if has enough active stake to participate in the network, false otherwise."
      },
      "numberOfGroups()": {
        "details": "Even if numberOfGroups() > 0, it is still possible requesting for a new relay entry will revert with \"no active groups\" failure message. This function returns the number of active groups as they are currently marked on-chain. However, during relay request, before group selection, we run group expiration and it may happen that some groups seen as active turns out to be expired."
      },
      "relayEntry(bytes)": {
        "params": {
          "_groupSignature": "Group BLS signature over the concatenation of the previous entry and seed."
        }
      },
      "sign(uint256,bytes)": {
        "params": {
          "previousEntry": "Previous relay entry",
          "requestId": "Request Id trackable by service contract"
        }
      },
      "submitDkgResult(uint256,bytes,bytes,bytes,uint256[])": {
        "params": {
          "groupPubKey": "Generated candidate group public key",
          "misbehaved": "Bytes array of misbehaved (disqualified or inactive) group members indexes in ascending order; Indexes reflect positions of members in the group as outputted by the group selection protocol.",
          "signatures": "Concatenation of signatures from members supporting the result.",
          "signingMembersIndexes": "Indices of members corresponding to each signature.",
          "submitterMemberIndex": "Claimed submitter candidate group member index"
        }
      },
      "submitTicket(bytes32)": {
        "params": {
          "ticket": "Bytes representation of a ticket that holds the following: - ticketValue: first 8 bytes of a result of keccak256 cryptography hash   function on the combination of the group selection seed (previous   beacon output), staker-specific value (address) and virtual staker index. - stakerValue: a staker-specific value which is the address of the staker. - virtualStakerIndex: 4-bytes number within a range of 1 to staker's weight;   has to be unique for all tickets submitted by the given staker for the   current candidate group selection."
        }
      },
      "withdrawGroupMemberRewards(address,uint256)": {
        "params": {
          "groupIndex": "Group index",
          "operator": "Operator address"
        }
      }
    }
  },
  "userdoc": {
    "methods": {
      "addServiceContract(address)": {
        "notice": "Adds service contract"
      },
      "createGroup(uint256,address)": {
        "notice": "Triggers the selection process of a new candidate group."
      },
      "entryVerificationFee()": {
        "notice": "Returns fee for entry verification in wei. Does not include group profit fee, DKG contribution or callback fee."
      },
      "genesis()": {
        "notice": "Triggers group selection if there are no active groups."
      },
      "getFirstActiveGroupIndex()": {
        "notice": "Gets the index of the first active group."
      },
      "getGroupMemberRewards(bytes)": {
        "notice": "Returns accumulated group member rewards for provided group."
      },
      "getGroupMembers(bytes)": {
        "notice": "Returns members of the given group by group public key."
      },
      "getGroupPublicKey(uint256)": {
        "notice": "Gets public key of the group with the given index."
      },
      "groupCreationFee()": {
        "notice": "Returns fee for group creation in wei. Includes the cost of DKG and the cost of triggering group selection."
      },
      "groupProfitFee()": {
        "notice": "Gets group profit fee expressed in wei."
      },
      "hasMinimumStake(address)": {
        "notice": "Checks if the specified account has enough active stake to become network operator and that this contract has been authorized for potential slashing.     /// Having the required minimum of active stake makes the operator eligible to join the network. If the active stake is not currently undelegating, operator is also eligible for work selection. "
      },
      "hasWithdrawnRewards(address,uint256)": {
        "notice": "Return whether the given operator has withdrawn their rewards from the given group."
      },
      "isEntryInProgress()": {
        "notice": "Returns true if generation of a new relay entry is currently in progress."
      },
      "isGroupRegistered(bytes)": {
        "notice": "Checks if group with the given public key is registered."
      },
      "isGroupSelectionPossible()": {
        "notice": "Checks if it is possible to fire a new group selection. Triggering new group selection is only possible when there is no pending group selection or when the pending group selection timed out."
      },
      "isStaleGroup(bytes)": {
        "notice": "Checks if a group with the given public key is a stale group. Stale group is an expired group which is no longer performing any operations. It is important to understand that an expired group may still perform some operations for which it was selected when it was still active. We consider a group to be stale when it's expired and when its expiration time and potentially executed operation timeout are both in the past."
      },
      "numberOfGroups()": {
        "notice": "Gets the number of active groups as currently marked in the contract. This is the state from when the expired groups were last updated without accounting for recent expirations. "
      },
      "refreshGasPrice()": {
        "notice": "Pulls the most recent gas price from gas price oracle."
      },
      "relayEntry(bytes)": {
        "notice": "Creates a new relay entry and stores the associated data on the chain."
      },
      "reportRelayEntryTimeout()": {
        "notice": "Function used to inform about the fact the currently ongoing new relay entry generation operation timed out. As a result, the group which was supposed to produce a new relay entry is immediately terminated and a new group is selected to produce a new relay entry. All members of the group are punished by seizing minimum stake of their tokens. The submitter of the transaction is rewarded with a tattletale reward which is limited to min(1, 20 / group_size) of the maximum tattletale reward."
      },
      "reportUnauthorizedSigning(uint256,bytes)": {
        "notice": "Reports unauthorized signing for the provided group. Must provide a valid signature of the tattletale address as a message. Successful signature verification means the private key has been leaked and all group members should be punished by seizingtheir tokens. The submitter of this proof is rewarded with 5% of the total seized amount scaled by the reward adjustment parameter and the rest 95% is burned."
      },
      "selectedParticipants()": {
        "notice": "Gets selected participants in ascending order of their tickets."
      },
      "sign(uint256,bytes)": {
        "notice": "Creates a request to generate a new relay entry, which will include a random number (by signing the previous entry's random number)."
      },
      "submitDkgResult(uint256,bytes,bytes,bytes,uint256[])": {
        "notice": "Submits result of DKG protocol. It is on-chain part of phase 14 of the protocol."
      },
      "submitTicket(bytes32)": {
        "notice": "Submits ticket to request to participate in a new candidate group."
      },
      "submittedTickets()": {
        "notice": "Gets the submitted group candidate tickets so far."
      },
      "ticketSubmissionTimeout()": {
        "notice": "Gets the timeout in blocks after which group candidate ticket submission is finished."
      },
      "withdrawGroupMemberRewards(address,uint256)": {
        "notice": "Withdraws accumulated group member rewards for operator using the provided group index. Once the accumulated reward is withdrawn from the selected group, the operator is flagged as withdrawn. Rewards can be withdrawn only from stale group."
      }
    }
  }
}