{
  "contractName": "KeepRandomBeaconOperator",
  "abi": [
    {
      "inputs": [
        {
          "internalType": "address",
          "name": "_serviceContract",
          "type": "address"
        },
        {
          "internalType": "address",
          "name": "_tokenStaking",
          "type": "address"
        },
        {
          "internalType": "address",
          "name": "_keepRegistry",
          "type": "address"
        },
        {
          "internalType": "address",
          "name": "_gasPriceOracle",
          "type": "address"
        }
      ],
      "payable": false,
      "stateMutability": "nonpayable",
      "type": "constructor"
    },
    {
      "anonymous": false,
      "inputs": [
        {
          "indexed": false,
          "internalType": "uint256",
          "name": "memberIndex",
          "type": "uint256"
        },
        {
          "indexed": false,
          "internalType": "bytes",
          "name": "groupPubKey",
          "type": "bytes"
        },
        {
          "indexed": false,
          "internalType": "bytes",
          "name": "misbehaved",
          "type": "bytes"
        }
      ],
      "name": "DkgResultSubmittedEvent",
      "type": "event"
    },
    {
      "anonymous": false,
      "inputs": [
        {
          "indexed": true,
          "internalType": "address",
          "name": "beneficiary",
          "type": "address"
        },
        {
          "indexed": false,
          "internalType": "address",
          "name": "operator",
          "type": "address"
        },
        {
          "indexed": false,
          "internalType": "uint256",
          "name": "amount",
          "type": "uint256"
        },
        {
          "indexed": false,
          "internalType": "uint256",
          "name": "groupIndex",
          "type": "uint256"
        }
      ],
      "name": "GroupMemberRewardsWithdrawn",
      "type": "event"
    },
    {
      "anonymous": false,
      "inputs": [
        {
          "indexed": false,
          "internalType": "uint256",
          "name": "newEntry",
          "type": "uint256"
        }
      ],
      "name": "GroupSelectionStarted",
      "type": "event"
    },
    {
      "anonymous": false,
      "inputs": [
        {
          "indexed": false,
          "internalType": "bytes",
          "name": "groupPubKey",
          "type": "bytes"
        }
      ],
      "name": "OnGroupRegistered",
      "type": "event"
    },
    {
      "anonymous": false,
      "inputs": [
        {
          "indexed": false,
          "internalType": "bytes",
          "name": "previousEntry",
          "type": "bytes"
        },
        {
          "indexed": false,
          "internalType": "bytes",
          "name": "groupPublicKey",
          "type": "bytes"
        }
      ],
      "name": "RelayEntryRequested",
      "type": "event"
    },
    {
      "anonymous": false,
      "inputs": [],
      "name": "RelayEntrySubmitted",
      "type": "event"
    },
    {
      "anonymous": false,
      "inputs": [
        {
          "indexed": true,
          "internalType": "uint256",
          "name": "groupIndex",
          "type": "uint256"
        }
      ],
      "name": "RelayEntryTimeoutReported",
      "type": "event"
    },
    {
      "anonymous": false,
      "inputs": [
        {
          "indexed": true,
          "internalType": "uint256",
          "name": "groupIndex",
          "type": "uint256"
        }
      ],
      "name": "UnauthorizedSigningReported",
      "type": "event"
    },
    {
      "constant": true,
      "inputs": [],
      "name": "currentRequestGroupIndex",
      "outputs": [
        {
          "internalType": "uint256",
          "name": "",
          "type": "uint256"
        }
      ],
      "payable": false,
      "stateMutability": "view",
      "type": "function"
    },
    {
      "constant": true,
      "inputs": [],
      "name": "currentRequestPreviousEntry",
      "outputs": [
        {
          "internalType": "bytes",
          "name": "",
          "type": "bytes"
        }
      ],
      "payable": false,
      "stateMutability": "view",
      "type": "function"
    },
    {
      "constant": true,
      "inputs": [],
      "name": "currentRequestStartBlock",
      "outputs": [
        {
          "internalType": "uint256",
          "name": "",
          "type": "uint256"
        }
      ],
      "payable": false,
      "stateMutability": "view",
      "type": "function"
    },
    {
      "constant": true,
      "inputs": [],
      "name": "dkgGasEstimate",
      "outputs": [
        {
          "internalType": "uint256",
          "name": "",
          "type": "uint256"
        }
      ],
      "payable": false,
      "stateMutability": "view",
      "type": "function"
    },
    {
      "constant": true,
      "inputs": [],
      "name": "dkgSubmitterReimbursementFee",
      "outputs": [
        {
          "internalType": "uint256",
          "name": "",
          "type": "uint256"
        }
      ],
      "payable": false,
      "stateMutability": "view",
      "type": "function"
    },
    {
      "constant": true,
      "inputs": [],
      "name": "entryVerificationGasEstimate",
      "outputs": [
        {
          "internalType": "uint256",
          "name": "",
          "type": "uint256"
        }
      ],
      "payable": false,
      "stateMutability": "view",
      "type": "function"
    },
    {
      "constant": true,
      "inputs": [],
      "name": "gasPriceCeiling",
      "outputs": [
        {
          "internalType": "uint256",
          "name": "",
          "type": "uint256"
        }
      ],
      "payable": false,
      "stateMutability": "view",
      "type": "function"
    },
    {
      "constant": true,
      "inputs": [],
      "name": "groupMemberBaseReward",
      "outputs": [
        {
          "internalType": "uint256",
          "name": "",
          "type": "uint256"
        }
      ],
      "payable": false,
      "stateMutability": "view",
      "type": "function"
    },
    {
      "constant": true,
      "inputs": [],
      "name": "groupSelectionGasEstimate",
      "outputs": [
        {
          "internalType": "uint256",
          "name": "",
          "type": "uint256"
        }
      ],
      "payable": false,
      "stateMutability": "view",
      "type": "function"
    },
    {
      "constant": true,
      "inputs": [],
      "name": "groupSize",
      "outputs": [
        {
          "internalType": "uint256",
          "name": "",
          "type": "uint256"
        }
      ],
      "payable": false,
      "stateMutability": "view",
      "type": "function"
    },
    {
      "constant": true,
      "inputs": [],
      "name": "groupThreshold",
      "outputs": [
        {
          "internalType": "uint256",
          "name": "",
          "type": "uint256"
        }
      ],
      "payable": false,
      "stateMutability": "view",
      "type": "function"
    },
    {
      "constant": true,
      "inputs": [],
      "name": "relayEntryTimeout",
      "outputs": [
        {
          "internalType": "uint256",
          "name": "",
          "type": "uint256"
        }
      ],
      "payable": false,
      "stateMutability": "view",
      "type": "function"
    },
    {
      "constant": true,
      "inputs": [],
      "name": "resultPublicationBlockStep",
      "outputs": [
        {
          "internalType": "uint256",
          "name": "",
          "type": "uint256"
        }
      ],
      "payable": false,
      "stateMutability": "view",
      "type": "function"
    },
    {
      "constant": false,
      "inputs": [],
      "name": "genesis",
      "outputs": [],
      "payable": true,
      "stateMutability": "payable",
      "type": "function"
    },
    {
      "constant": false,
      "inputs": [
        {
          "internalType": "address",
          "name": "serviceContract",
          "type": "address"
        }
      ],
      "name": "addServiceContract",
      "outputs": [],
      "payable": false,
      "stateMutability": "nonpayable",
      "type": "function"
    },
    {
      "constant": false,
      "inputs": [],
      "name": "refreshGasPrice",
      "outputs": [],
      "payable": false,
      "stateMutability": "nonpayable",
      "type": "function"
    },
    {
      "constant": false,
      "inputs": [
        {
          "internalType": "uint256",
          "name": "_newEntry",
          "type": "uint256"
        },
        {
          "internalType": "address payable",
          "name": "submitter",
          "type": "address"
        }
      ],
      "name": "createGroup",
      "outputs": [],
      "payable": true,
      "stateMutability": "payable",
      "type": "function"
    },
    {
      "constant": true,
      "inputs": [],
      "name": "isGroupSelectionPossible",
      "outputs": [
        {
          "internalType": "bool",
          "name": "",
          "type": "bool"
        }
      ],
      "payable": false,
      "stateMutability": "view",
      "type": "function"
    },
    {
      "constant": false,
      "inputs": [
        {
          "internalType": "bytes32",
          "name": "ticket",
          "type": "bytes32"
        }
      ],
      "name": "submitTicket",
      "outputs": [],
      "payable": false,
      "stateMutability": "nonpayable",
      "type": "function"
    },
    {
      "constant": true,
      "inputs": [],
      "name": "ticketSubmissionTimeout",
      "outputs": [
        {
          "internalType": "uint256",
          "name": "",
          "type": "uint256"
        }
      ],
      "payable": false,
      "stateMutability": "view",
      "type": "function"
    },
    {
      "constant": true,
      "inputs": [],
      "name": "submittedTickets",
      "outputs": [
        {
          "internalType": "uint64[]",
          "name": "",
          "type": "uint64[]"
        }
      ],
      "payable": false,
      "stateMutability": "view",
      "type": "function"
    },
    {
      "constant": true,
      "inputs": [],
      "name": "selectedParticipants",
      "outputs": [
        {
          "internalType": "address[]",
          "name": "",
          "type": "address[]"
        }
      ],
      "payable": false,
      "stateMutability": "view",
      "type": "function"
    },
    {
      "constant": false,
      "inputs": [
        {
          "internalType": "uint256",
          "name": "submitterMemberIndex",
          "type": "uint256"
        },
        {
          "internalType": "bytes",
          "name": "groupPubKey",
          "type": "bytes"
        },
        {
          "internalType": "bytes",
          "name": "misbehaved",
          "type": "bytes"
        },
        {
          "internalType": "bytes",
          "name": "signatures",
          "type": "bytes"
        },
        {
          "internalType": "uint256[]",
          "name": "signingMembersIndexes",
          "type": "uint256[]"
        }
      ],
      "name": "submitDkgResult",
      "outputs": [],
      "payable": false,
      "stateMutability": "nonpayable",
      "type": "function"
    },
    {
      "constant": false,
      "inputs": [
        {
          "internalType": "uint256",
          "name": "requestId",
          "type": "uint256"
        },
        {
          "internalType": "bytes",
          "name": "previousEntry",
          "type": "bytes"
        }
      ],
      "name": "sign",
      "outputs": [],
      "payable": true,
      "stateMutability": "payable",
      "type": "function"
    },
    {
      "constant": false,
      "inputs": [
        {
          "internalType": "bytes",
          "name": "_groupSignature",
          "type": "bytes"
        }
      ],
      "name": "relayEntry",
      "outputs": [],
      "payable": false,
      "stateMutability": "nonpayable",
      "type": "function"
    },
    {
      "constant": true,
      "inputs": [],
      "name": "isEntryInProgress",
      "outputs": [
        {
          "internalType": "bool",
          "name": "",
          "type": "bool"
        }
      ],
      "payable": false,
      "stateMutability": "view",
      "type": "function"
    },
    {
      "constant": false,
      "inputs": [],
      "name": "reportRelayEntryTimeout",
      "outputs": [],
      "payable": false,
      "stateMutability": "nonpayable",
      "type": "function"
    },
    {
      "constant": true,
      "inputs": [],
      "name": "groupProfitFee",
      "outputs": [
        {
          "internalType": "uint256",
          "name": "",
          "type": "uint256"
        }
      ],
      "payable": false,
      "stateMutability": "view",
      "type": "function"
    },
    {
      "constant": true,
      "inputs": [
        {
          "internalType": "address",
          "name": "staker",
          "type": "address"
        }
      ],
      "name": "hasMinimumStake",
      "outputs": [
        {
          "internalType": "bool",
          "name": "",
          "type": "bool"
        }
      ],
      "payable": false,
      "stateMutability": "view",
      "type": "function"
    },
    {
      "constant": true,
      "inputs": [
        {
          "internalType": "bytes",
          "name": "groupPubKey",
          "type": "bytes"
        }
      ],
      "name": "isGroupRegistered",
      "outputs": [
        {
          "internalType": "bool",
          "name": "",
          "type": "bool"
        }
      ],
      "payable": false,
      "stateMutability": "view",
      "type": "function"
    },
    {
      "constant": true,
      "inputs": [
        {
          "internalType": "bytes",
          "name": "groupPubKey",
          "type": "bytes"
        }
      ],
      "name": "isStaleGroup",
      "outputs": [
        {
          "internalType": "bool",
          "name": "",
          "type": "bool"
        }
      ],
      "payable": false,
      "stateMutability": "view",
      "type": "function"
    },
    {
      "constant": true,
      "inputs": [],
      "name": "numberOfGroups",
      "outputs": [
        {
          "internalType": "uint256",
          "name": "",
          "type": "uint256"
        }
      ],
      "payable": false,
      "stateMutability": "view",
      "type": "function"
    },
    {
      "constant": true,
      "inputs": [
        {
          "internalType": "bytes",
          "name": "groupPubKey",
          "type": "bytes"
        }
      ],
      "name": "getGroupMemberRewards",
      "outputs": [
        {
          "internalType": "uint256",
          "name": "",
          "type": "uint256"
        }
      ],
      "payable": false,
      "stateMutability": "view",
      "type": "function"
    },
    {
      "constant": true,
      "inputs": [
        {
          "internalType": "address",
          "name": "operator",
          "type": "address"
        },
        {
          "internalType": "uint256",
          "name": "groupIndex",
          "type": "uint256"
        }
      ],
      "name": "hasWithdrawnRewards",
      "outputs": [
        {
          "internalType": "bool",
          "name": "",
          "type": "bool"
        }
      ],
      "payable": false,
      "stateMutability": "view",
      "type": "function"
    },
    {
      "constant": false,
      "inputs": [
        {
          "internalType": "address",
          "name": "operator",
          "type": "address"
        },
        {
          "internalType": "uint256",
          "name": "groupIndex",
          "type": "uint256"
        }
      ],
      "name": "withdrawGroupMemberRewards",
      "outputs": [],
      "payable": false,
      "stateMutability": "nonpayable",
      "type": "function"
    },
    {
      "constant": true,
      "inputs": [],
      "name": "getFirstActiveGroupIndex",
      "outputs": [
        {
          "internalType": "uint256",
          "name": "",
          "type": "uint256"
        }
      ],
      "payable": false,
      "stateMutability": "view",
      "type": "function"
    },
    {
      "constant": true,
      "inputs": [
        {
          "internalType": "uint256",
          "name": "groupIndex",
          "type": "uint256"
        }
      ],
      "name": "getGroupPublicKey",
      "outputs": [
        {
          "internalType": "bytes",
          "name": "",
          "type": "bytes"
        }
      ],
      "payable": false,
      "stateMutability": "view",
      "type": "function"
    },
    {
      "constant": true,
      "inputs": [],
      "name": "entryVerificationFee",
      "outputs": [
        {
          "internalType": "uint256",
          "name": "",
          "type": "uint256"
        }
      ],
      "payable": false,
      "stateMutability": "view",
      "type": "function"
    },
    {
      "constant": true,
      "inputs": [],
      "name": "groupCreationFee",
      "outputs": [
        {
          "internalType": "uint256",
          "name": "",
          "type": "uint256"
        }
      ],
      "payable": false,
      "stateMutability": "view",
      "type": "function"
    },
    {
      "constant": true,
      "inputs": [
        {
          "internalType": "bytes",
          "name": "groupPubKey",
          "type": "bytes"
        }
      ],
      "name": "getGroupMembers",
      "outputs": [
        {
          "internalType": "address[]",
          "name": "members",
          "type": "address[]"
        }
      ],
      "payable": false,
      "stateMutability": "view",
      "type": "function"
    },
    {
      "constant": true,
      "inputs": [],
      "name": "getNumberOfCreatedGroups",
      "outputs": [
        {
          "internalType": "uint256",
          "name": "",
          "type": "uint256"
        }
      ],
      "payable": false,
      "stateMutability": "view",
      "type": "function"
    },
    {
      "constant": true,
      "inputs": [
        {
          "internalType": "uint256",
          "name": "groupIndex",
          "type": "uint256"
        }
      ],
      "name": "getGroupRegistrationTime",
      "outputs": [
        {
          "internalType": "uint256",
          "name": "",
          "type": "uint256"
        }
      ],
      "payable": false,
      "stateMutability": "view",
      "type": "function"
    },
    {
      "constant": true,
      "inputs": [
        {
          "internalType": "uint256",
          "name": "groupIndex",
          "type": "uint256"
        }
      ],
      "name": "isGroupTerminated",
      "outputs": [
        {
          "internalType": "bool",
          "name": "",
          "type": "bool"
        }
      ],
      "payable": false,
      "stateMutability": "view",
      "type": "function"
    },
    {
      "constant": false,
      "inputs": [
        {
          "internalType": "uint256",
          "name": "groupIndex",
          "type": "uint256"
        },
        {
          "internalType": "bytes",
          "name": "signedMsgSender",
          "type": "bytes"
        }
      ],
      "name": "reportUnauthorizedSigning",
      "outputs": [],
      "payable": false,
      "stateMutability": "nonpayable",
      "type": "function"
    }
  ],
  "bytecode": "0x608060405266038d7ea4c68000601d55640df8475800601e556040601f556021602055600660215562000045602154601f54620002d260201b620043d21790919060201c565b602255620445c0602355621a8ce060245562030d406025553480156200006a57600080fd5b5060405162005a6d38038062005a6d833981810160405260808110156200009057600080fd5b8101908080519060200190929190805190602001909291908051906020019092919080519060200190929190505050600160008190555060198490806001815401808255809150509060018203906000526020600020016000909192909190916101000a81548173ffffffffffffffffffffffffffffffffffffffff021916908373ffffffffffffffffffffffffffffffffffffffff1602179055505082601b60006101000a81548173ffffffffffffffffffffffffffffffffffffffff021916908373ffffffffffffffffffffffffffffffffffffffff16021790555081601a60006101000a81548173ffffffffffffffffffffffffffffffffffffffff021916908373ffffffffffffffffffffffffffffffffffffffff16021790555080601c60006101000a81548173ffffffffffffffffffffffffffffffffffffffff021916908373ffffffffffffffffffffffffffffffffffffffff160217905550601b60009054906101000a900473ffffffffffffffffffffffffffffffffffffffff16600b60090160006101000a81548173ffffffffffffffffffffffffffffffffffffffff021916908373ffffffffffffffffffffffffffffffffffffffff16021790555062013b00600b60000181905550602254600b60010181905550604e600160030181905550601f546001600901819055506048601560000181905550602154601560010181905550601f546015600201819055506002602054601f540381620002ba57fe5b0460205401601560030181905550505050506200035d565b600080831415620002e7576000905062000357565b6000828402905082848281620002f957fe5b041462000352576040517f08c379a000000000000000000000000000000000000000000000000000000000815260040180806020018281038252602181526020018062005a4c6021913960400191505060405180910390fd5b809150505b92915050565b6156df806200036d6000396000f3fe6080604052600436106102665760003560e01c80637d7d7dd911610144578063c300d058116100b6578063d12f5e691161007a578063d12f5e6914611089578063e1f4d632146111a6578063e581ff74146111d1578063eb9488d3146112a3578063ef7c8f9c146112ce578063fdd18b131461138257610266565b8063c300d05814610fa3578063c443894614610fce578063c45751cd14610ff9578063c96e71fb14611010578063c98622fb1461105e57610266565b80639dabee44116101085780639dabee4414610d74578063a7f0b3de14610e50578063ac374f4b14610e5a578063b1c77c8f14610f22578063b99f0c4314610f4d578063bf95249614610f7857610266565b80637d7d7dd914610bcb578063885c020414610bf65780638a3a3da814610c495780638e9e56a514610c845780639b3d270a14610caf57610266565b80635c1c0710116101dd5780636dcc64f8116101a15780636dcc64f8146108365780636e5636e4146108615780637031b7ff1461089057806373f1daab146108bb5780637760c6c714610b4f57806379f9fb7e14610ba057610266565b80635c1c0710146106575780635ec60d61146106c0578063618c26561461070f5780636262d54e1461079f57806363b635ea1461080b57610266565b806324f173131161022f57806324f17313146104285780632d6f8f311461045357806336c8571714610533578063376f7a111461055e5780633926c28e146105d1578063517471a91461062c57610266565b80623bf87e1461026b5780630b19991f146102965780631c524ac2146103025780631ed74070146103e257806321a8f86c146103f9575b600080fd5b34801561027757600080fd5b506102806113ad565b6040518082815260200191505060405180910390f35b3480156102a257600080fd5b506102ab6113b3565b6040518080602001828103825283818151815260200191508051906020019060200280838360005b838110156102ee5780820151818401526020810190506102d3565b505050509050019250505060405180910390f35b34801561030e57600080fd5b506103c86004803603602081101561032557600080fd5b810190808035906020019064010000000081111561034257600080fd5b82018360208201111561035457600080fd5b8035906020019184600183028401116401000000008311171561037657600080fd5b91908080601f016020809104026020016040519081016040528093929190818152602001838380828437600081840152601f19601f8201169050808301925050505050505091929192905050506114e1565b604051808215151515815260200191505060405180910390f35b3480156103ee57600080fd5b506103f76114fe565b005b34801561040557600080fd5b5061040e61170f565b604051808215151515815260200191505060405180910390f35b34801561043457600080fd5b5061043d61175b565b6040518082815260200191505060405180910390f35b34801561045f57600080fd5b506105196004803603602081101561047657600080fd5b810190808035906020019064010000000081111561049357600080fd5b8201836020820111156104a557600080fd5b803590602001918460018302840111640100000000831117156104c757600080fd5b91908080601f016020809104026020016040519081016040528093929190818152602001838380828437600081840152601f19601f820116905080830192505050505050509192919290505050611761565b604051808215151515815260200191505060405180910390f35b34801561053f57600080fd5b50610548611864565b6040518082815260200191505060405180910390f35b34801561056a57600080fd5b506105b76004803603604081101561058157600080fd5b81019080803573ffffffffffffffffffffffffffffffffffffffff1690602001909291908035906020019092919050505061186a565b604051808215151515815260200191505060405180910390f35b3480156105dd57600080fd5b5061062a600480360360408110156105f457600080fd5b81019080803573ffffffffffffffffffffffffffffffffffffffff1690602001909291908035906020019092919050505061193d565b005b34801561063857600080fd5b50610641611d4a565b6040518082815260200191505060405180910390f35b34801561066357600080fd5b506106a66004803603602081101561067a57600080fd5b81019080803573ffffffffffffffffffffffffffffffffffffffff169060200190929190505050611d68565b604051808215151515815260200191505060405180910390f35b3480156106cc57600080fd5b506106f9600480360360208110156106e357600080fd5b8101908080359060200190929190505050611e7f565b6040518082815260200191505060405180910390f35b34801561071b57600080fd5b50610724611f1d565b6040518080602001828103825283818151815260200191508051906020019080838360005b83811015610764578082015181840152602081019050610749565b50505050905090810190601f1680156107915780820380516001836020036101000a031916815260200191505b509250505060405180910390f35b3480156107ab57600080fd5b506107b4611fbb565b6040518080602001828103825283818151815260200191508051906020019060200280838360005b838110156107f75780820151818401526020810190506107dc565b505050509050019250505060405180910390f35b34801561081757600080fd5b5061082061204a565b6040518082815260200191505060405180910390f35b34801561084257600080fd5b5061084b612050565b6040518082815260200191505060405180910390f35b34801561086d57600080fd5b50610876612056565b604051808215151515815260200191505060405180910390f35b34801561089c57600080fd5b506108a5612063565b6040518082815260200191505060405180910390f35b3480156108c757600080fd5b50610b4d600480360360a08110156108de57600080fd5b81019080803590602001909291908035906020019064010000000081111561090557600080fd5b82018360208201111561091757600080fd5b8035906020019184600183028401116401000000008311171561093957600080fd5b91908080601f016020809104026020016040519081016040528093929190818152602001838380828437600081840152601f19601f8201169050808301925050505050505091929192908035906020019064010000000081111561099c57600080fd5b8201836020820111156109ae57600080fd5b803590602001918460018302840111640100000000831117156109d057600080fd5b91908080601f016020809104026020016040519081016040528093929190818152602001838380828437600081840152601f19601f82011690508083019250505050505050919291929080359060200190640100000000811115610a3357600080fd5b820183602082011115610a4557600080fd5b80359060200191846001830284011164010000000083111715610a6757600080fd5b91908080601f016020809104026020016040519081016040528093929190818152602001838380828437600081840152601f19601f82011690508083019250505050505050919291929080359060200190640100000000811115610aca57600080fd5b820183602082011115610adc57600080fd5b80359060200191846020830284011164010000000083111715610afe57600080fd5b919080806020026020016040519081016040528093929190818152602001838360200280828437600081840152601f19601f820116905080830192505050505050509192919290505050612069565b005b348015610b5b57600080fd5b50610b9e60048036036020811015610b7257600080fd5b81019080803573ffffffffffffffffffffffffffffffffffffffff169060200190929190505050612751565b005b348015610bac57600080fd5b50610bb5612934565b6040518082815260200191505060405180910390f35b348015610bd757600080fd5b50610be061293a565b6040518082815260200191505060405180910390f35b348015610c0257600080fd5b50610c2f60048036036020811015610c1957600080fd5b8101908080359060200190929190505050612940565b604051808215151515815260200191505060405180910390f35b348015610c5557600080fd5b50610c8260048036036020811015610c6c57600080fd5b810190808035906020019092919050505061295d565b005b348015610c9057600080fd5b50610c99612b04565b6040518082815260200191505060405180910390f35b610d7260048036036040811015610cc557600080fd5b810190808035906020019092919080359060200190640100000000811115610cec57600080fd5b820183602082011115610cfe57600080fd5b80359060200191846001830284011164010000000083111715610d2057600080fd5b91908080601f016020809104026020016040519081016040528093929190818152602001838380828437600081840152601f19601f820116905080830192505050505050509192919290505050612b0a565b005b348015610d8057600080fd5b50610e3a60048036036020811015610d9757600080fd5b8101908080359060200190640100000000811115610db457600080fd5b820183602082011115610dc657600080fd5b80359060200191846001830284011164010000000083111715610de857600080fd5b91908080601f016020809104026020016040519081016040528093929190818152602001838380828437600081840152601f19601f820116905080830192505050505050509192919290505050612cda565b6040518082815260200191505060405180910390f35b610e58612d50565b005b348015610e6657600080fd5b50610f2060048036036020811015610e7d57600080fd5b8101908080359060200190640100000000811115610e9a57600080fd5b820183602082011115610eac57600080fd5b80359060200191846001830284011164010000000083111715610ece57600080fd5b91908080601f016020809104026020016040519081016040528093929190818152602001838380828437600081840152601f19601f820116905080830192505050505050509192919290505050612f5d565b005b348015610f2e57600080fd5b50610f3761389c565b6040518082815260200191505060405180910390f35b348015610f5957600080fd5b50610f626138a2565b6040518082815260200191505060405180910390f35b348015610f8457600080fd5b50610f8d6138a8565b6040518082815260200191505060405180910390f35b348015610faf57600080fd5b50610fb86138b9565b6040518082815260200191505060405180910390f35b348015610fda57600080fd5b50610fe36138eb565b6040518082815260200191505060405180910390f35b34801561100557600080fd5b5061100e613909565b005b61105c6004803603604081101561102657600080fd5b8101908080359060200190929190803573ffffffffffffffffffffffffffffffffffffffff1690602001909291905050506139b4565b005b34801561106a57600080fd5b50611073613cd5565b6040518082815260200191505060405180910390f35b34801561109557600080fd5b5061114f600480360360208110156110ac57600080fd5b81019080803590602001906401000000008111156110c957600080fd5b8201836020820111156110db57600080fd5b803590602001918460018302840111640100000000831117156110fd57600080fd5b91908080601f016020809104026020016040519081016040528093929190818152602001838380828437600081840152601f19601f820116905080830192505050505050509192919290505050613ce2565b6040518080602001828103825283818151815260200191508051906020019060200280838360005b83811015611192578082015181840152602081019050611177565b505050509050019250505060405180910390f35b3480156111b257600080fd5b506111bb613e7f565b6040518082815260200191505060405180910390f35b3480156111dd57600080fd5b506112a1600480360360408110156111f457600080fd5b81019080803590602001909291908035906020019064010000000081111561121b57600080fd5b82018360208201111561122d57600080fd5b8035906020019184600183028401116401000000008311171561124f57600080fd5b91908080601f016020809104026020016040519081016040528093929190818152602001838380828437600081840152601f19601f820116905080830192505050505050509192919290505050613e85565b005b3480156112af57600080fd5b506112b861403f565b6040518082815260200191505060405180910390f35b3480156112da57600080fd5b50611307600480360360208110156112f157600080fd5b810190808035906020019092919050505061404c565b6040518080602001828103825283818151815260200191508051906020019080838360005b8381101561134757808201518184015260208101905061132c565b50505050905090810190601f1680156113745780820380516001836020036101000a031916815260200191505b509250505060405180910390f35b34801561138e57600080fd5b50611397614069565b6040518082815260200191505060405180910390f35b60245481565b6060600173__GroupSelection________________________63a3c6b2b390916040518263ffffffff1660e01b81526004018082815260200191505060006040518083038186803b15801561140757600080fd5b505af415801561141b573d6000803e3d6000fd5b505050506040513d6000823e3d601f19601f82011682018060405250602081101561144557600080fd5b810190808051604051939291908464010000000082111561146557600080fd5b8382019150602082018581111561147b57600080fd5b825186602082028301116401000000008211171561149857600080fd5b8083526020830192505050908051906020019060200280838360005b838110156114cf5780820151818401526020810190506114b4565b50505050905001604052505050905090565b60006114f782600b61407990919063ffffffff16565b9050919050565b6115066140f1565b611578576040517f08c379a00000000000000000000000000000000000000000000000000000000081526004018080602001828103825260168152602001807f456e74727920646964206e6f742074696d65206f75740000000000000000000081525060200191505060405180910390fd5b600b73__Groups________________________________63a24940029091602a54601f546040518463ffffffff1660e01b815260040180848152602001838152602001828152602001935050505060006040518083038186803b1580156115de57600080fd5b505af41580156115f2573d6000803e3d6000fd5b50505050600060298190555060006116086138a8565b11156116de576116dd602854602b8054600181600116156101000203166002900480601f0160208091040260200160405190810160405280929190818152602001828054600181600116156101000203166002900480156116aa5780601f1061167f576101008083540402835291602001916116aa565b820191906000526020600020905b81548152906001019060200180831161168d57829003601f168201915b5050505050602e60009054906101000a900473ffffffffffffffffffffffffffffffffffffffff16602c54602d5461410f565b5b602a547f6675fe3ae219641aa4ec9e58867bd7af88bf03caf819d8858f3ddf4cc635eed260405160405180910390a2565b6000600160050160009054906101000a900460ff166117315760019050611758565b6000602154601f540260156000015460016003015460016004015401010190508043119150505b90565b60255481565b6000600b73__Groups________________________________63cc9b37c29091846040518363ffffffff1660e01b81526004018083815260200180602001828103825283818151815260200191508051906020019080838360005b838110156117d75780820151818401526020810190506117bc565b50505050905090810190601f1680156118045780820380516001836020036101000a031916815260200191505b50935050505060206040518083038186803b15801561182257600080fd5b505af4158015611836573d6000803e3d6000fd5b505050506040513d602081101561184c57600080fd5b81019080805190602001909291905050509050919050565b60215481565b6000600b73__Groups________________________________634a37cba2909185856040518463ffffffff1660e01b8152600401808481526020018373ffffffffffffffffffffffffffffffffffffffff1673ffffffffffffffffffffffffffffffffffffffff168152602001828152602001935050505060206040518083038186803b1580156118fa57600080fd5b505af415801561190e573d6000803e3d6000fd5b505050506040513d602081101561192457600080fd5b8101908080519060200190929190505050905092915050565b600160008082825401925050819055506000805490506000600b73__Groups________________________________6319818cd3909186866040518463ffffffff1660e01b8152600401808481526020018373ffffffffffffffffffffffffffffffffffffffff1673ffffffffffffffffffffffffffffffffffffffff168152602001828152602001935050505060206040518083038186803b1580156119e357600080fd5b505af41580156119f7573d6000803e3d6000fd5b505050506040513d6020811015611a0d57600080fd5b810190808051906020019092919050505090506000601b60009054906101000a900473ffffffffffffffffffffffffffffffffffffffff1673ffffffffffffffffffffffffffffffffffffffff1663ba7bffd3866040518263ffffffff1660e01b8152600401808273ffffffffffffffffffffffffffffffffffffffff1673ffffffffffffffffffffffffffffffffffffffff16815260200191505060206040518083038186803b158015611ac157600080fd5b505afa158015611ad5573d6000803e3d6000fd5b505050506040513d6020811015611aeb57600080fd5b810190808051906020019092919050505073ffffffffffffffffffffffffffffffffffffffff168260405180600001905060006040518083038185875af1925050503d8060008114611b59576040519150601f19603f3d011682016040523d82523d6000602084013e611b5e565b606091505b505090508015611ccc57601b60009054906101000a900473ffffffffffffffffffffffffffffffffffffffff1673ffffffffffffffffffffffffffffffffffffffff1663ba7bffd3866040518263ffffffff1660e01b8152600401808273ffffffffffffffffffffffffffffffffffffffff1673ffffffffffffffffffffffffffffffffffffffff16815260200191505060206040518083038186803b158015611c0757600080fd5b505afa158015611c1b573d6000803e3d6000fd5b505050506040513d6020811015611c3157600080fd5b810190808051906020019092919050505073ffffffffffffffffffffffffffffffffffffffff167fd2d1d8bb9db82c3480418ddcddf25a021102ad139edec2a62b274595d408a88d868487604051808473ffffffffffffffffffffffffffffffffffffffff1673ffffffffffffffffffffffffffffffffffffffff168152602001838152602001828152602001935050505060405180910390a25b50506000548114611d45576040517f08c379a000000000000000000000000000000000000000000000000000000000815260040180806020018281038252601f8152602001807f5265656e7472616e637947756172643a207265656e7472616e742063616c6c0081525060200191505060405180910390fd5b505050565b6000611d63601e546023546143d290919063ffffffff16565b905090565b6000601b60009054906101000a900473ffffffffffffffffffffffffffffffffffffffff1673ffffffffffffffffffffffffffffffffffffffff166310a63ec083306040518363ffffffff1660e01b8152600401808373ffffffffffffffffffffffffffffffffffffffff1673ffffffffffffffffffffffffffffffffffffffff1681526020018273ffffffffffffffffffffffffffffffffffffffff1673ffffffffffffffffffffffffffffffffffffffff1681526020019250505060206040518083038186803b158015611e3d57600080fd5b505afa158015611e51573d6000803e3d6000fd5b505050506040513d6020811015611e6757600080fd5b81019080805190602001909291905050509050919050565b6000600b73__Groups________________________________634732bd3b9091846040518363ffffffff1660e01b8152600401808381526020018281526020019250505060206040518083038186803b158015611edb57600080fd5b505af4158015611eef573d6000803e3d6000fd5b505050506040513d6020811015611f0557600080fd5b81019080805190602001909291905050509050919050565b602b8054600181600116156101000203166002900480601f016020809104026020016040519081016040528092919081815260200182805460018160011615610100020316600290048015611fb35780601f10611f8857610100808354040283529160200191611fb3565b820191906000526020600020905b815481529060010190602001808311611f9657829003601f168201915b505050505081565b6060600160000180548060200260200160405190810160405280929190818152602001828054801561204057602002820191906000526020600020906000905b82829054906101000a900467ffffffffffffffff1667ffffffffffffffff1681526020019060080190602082600701049283019260010382029150808411611ffb5790505b5050505050905090565b601f5481565b60205481565b6000806029541415905090565b602a5481565b6001600080828254019250508190555060008054905060606120896113b3565b9050601573__DKGResultVerification_________________63da0a16899091898989898988600160030154600160040154016040518963ffffffff1660e01b815260040180898152602001888152602001806020018060200180602001806020018060200187815260200186810386528c818151815260200191508051906020019080838360005b8381101561212d578082015181840152602081019050612112565b50505050905090810190601f16801561215a5780820380516001836020036101000a031916815260200191505b5086810385528b818151815260200191508051906020019080838360005b83811015612193578082015181840152602081019050612178565b50505050905090810190601f1680156121c05780820380516001836020036101000a031916815260200191505b5086810384528a818151815260200191508051906020019080838360005b838110156121f95780820151818401526020810190506121de565b50505050905090810190601f1680156122265780820380516001836020036101000a031916815260200191505b50868103835289818151815260200191508051906020019060200280838360005b83811015612262578082015181840152602081019050612247565b50505050905001868103825288818151815260200191508051906020019060200280838360005b838110156122a4578082015181840152602081019050612289565b505050509050019d505050505050505050505050505060006040518083038186803b1580156122d257600080fd5b505af41580156122e6573d6000803e3d6000fd5b50505050600b73__Groups________________________________63e130bd6790918884896040518563ffffffff1660e01b815260040180858152602001806020018060200180602001848103845287818151815260200191508051906020019080838360005b8381101561236857808201518184015260208101905061234d565b50505050905090810190601f1680156123955780820380516001836020036101000a031916815260200191505b50848103835286818151815260200191508051906020019060200280838360005b838110156123d15780820151818401526020810190506123b6565b50505050905001848103825285818151815260200191508051906020019080838360005b838110156124105780820151818401526020810190506123f5565b50505050905090810190601f16801561243d5780820380516001836020036101000a031916815260200191505b5097505050505050505060006040518083038186803b15801561245f57600080fd5b505af4158015612473573d6000803e3d6000fd5b50505050600b73__Groups________________________________634a1a55fa9091886040518363ffffffff1660e01b81526004018083815260200180602001828103825283818151815260200191508051906020019080838360005b838110156124eb5780820151818401526020810190506124d0565b50505050905090810190601f1680156125185780820380516001836020036101000a031916815260200191505b50935050505060006040518083038186803b15801561253657600080fd5b505af415801561254a573d6000803e3d6000fd5b50505050612556614458565b7fd1d71346ed0f1479c55b14e7c48b084207a7e1bcd9abe4f22d425ec23a518a1f878787604051808481526020018060200180602001838103835285818151815260200191508051906020019080838360005b838110156125c45780820151818401526020810190506125a9565b50505050905090810190601f1680156125f15780820380516001836020036101000a031916815260200191505b50838103825284818151815260200191508051906020019080838360005b8381101561262a57808201518184015260208101905061260f565b50505050905090810190601f1680156126575780820380516001836020036101000a031916815260200191505b509550505050505060405180910390a1600173__GroupSelection________________________63a4b15bac90916040518263ffffffff1660e01b81526004018082815260200191505060006040518083038186803b1580156126b957600080fd5b505af41580156126cd573d6000803e3d6000fd5b50505050506000548114612749576040517f08c379a000000000000000000000000000000000000000000000000000000000815260040180806020018281038252601f8152602001807f5265656e7472616e637947756172643a207265656e7472616e742063616c6c0081525060200191505060405180910390fd5b505050505050565b3373ffffffffffffffffffffffffffffffffffffffff16601a60009054906101000a900473ffffffffffffffffffffffffffffffffffffffff1673ffffffffffffffffffffffffffffffffffffffff16636557eccf306040518263ffffffff1660e01b8152600401808273ffffffffffffffffffffffffffffffffffffffff1673ffffffffffffffffffffffffffffffffffffffff16815260200191505060206040518083038186803b15801561280757600080fd5b505afa15801561281b573d6000803e3d6000fd5b505050506040513d602081101561283157600080fd5b810190808051906020019092919050505073ffffffffffffffffffffffffffffffffffffffff16146128cb576040517f08c379a000000000000000000000000000000000000000000000000000000000815260040180806020018281038252600e8152602001807f4e6f7420617574686f72697a656400000000000000000000000000000000000081525060200191505060405180910390fd5b60198190806001815401808255809150509060018203906000526020600020016000909192909190916101000a81548173ffffffffffffffffffffffffffffffffffffffff021916908373ffffffffffffffffffffffffffffffffffffffff1602179055505050565b60235481565b601d5481565b600061295682600b61470390919063ffffffff16565b9050919050565b6000612a84600160060154601b60009054906101000a900473ffffffffffffffffffffffffffffffffffffffff1673ffffffffffffffffffffffffffffffffffffffff1663afff33ef33306040518363ffffffff1660e01b8152600401808373ffffffffffffffffffffffffffffffffffffffff1673ffffffffffffffffffffffffffffffffffffffff1681526020018273ffffffffffffffffffffffffffffffffffffffff1673ffffffffffffffffffffffffffffffffffffffff1681526020019250505060206040518083038186803b158015612a3b57600080fd5b505afa158015612a4f573d6000803e3d6000fd5b505050506040513d6020811015612a6557600080fd5b810190808051906020019092919050505061473b90919063ffffffff16565b9050600173__GroupSelection________________________63fb6ed49c909184846040518463ffffffff1660e01b815260040180848152602001838152602001828152602001935050505060006040518083038186803b158015612ae857600080fd5b505af4158015612afc573d6000803e3d6000fd5b505050505050565b60295481565b612ba3336019805480602002602001604051908101604052809291908181526020018280548015612b9057602002820191906000526020600020905b8160009054906101000a900473ffffffffffffffffffffffffffffffffffffffff1673ffffffffffffffffffffffffffffffffffffffff1681526020019060010190808311612b46575b505050505061478590919063ffffffff16565b612c15576040517f08c379a00000000000000000000000000000000000000000000000000000000081526004018080602001828103825260208152602001807f43616c6c6572206973206e6f742061207365727669636520636f6e747261637481525060200191505060405180910390fd5b6000612c38612c22611d4a565b612c2a6138eb565b61480090919063ffffffff16565b905080341015612cb0576040517f08c379a000000000000000000000000000000000000000000000000000000000815260040180806020018281038252601a8152602001807f496e73756666696369656e74206e657720656e7472792066656500000000000081525060200191505060405180910390fd5b6000612cc5823461488890919063ffffffff16565b9050612cd4848433858561410f565b50505050565b6000600b600601826040518082805190602001908083835b60208310612d155780518252602082019150602081019050602083039250612cf2565b6001836020036101000a0380198251168184511680821785525050505050509050019150509081526020016040518091039020549050919050565b600b73__Groups________________________________63fff0da7590916040518263ffffffff1660e01b81526004018082815260200191505060006040518083038186803b158015612da257600080fd5b505af4158015612db6573d6000803e3d6000fd5b505050506000612dc46138a8565b14612e37576040517f08c379a000000000000000000000000000000000000000000000000000000000815260040180806020018281038252600c8152602001807f47726f757073206578697374000000000000000000000000000000000000000081525060200191505060405180910390fd5b600173__GroupSelection________________________63a4b15bac90916040518263ffffffff1660e01b81526004018082815260200191505060006040518083038186803b158015612e8957600080fd5b505af4158015612e9d573d6000803e3d6000fd5b505050506019612ebc600160198054905061488890919063ffffffff16565b81548110612ec657fe5b9060005260206000200160009054906101000a900473ffffffffffffffffffffffffffffffffffffffff16602760006101000a81548173ffffffffffffffffffffffffffffffffffffffff021916908373ffffffffffffffffffffffffffffffffffffffff160217905550612f5b7f4574c8c75d6e88acd28f7e467dac97b5c60c3838d9dad993900bdf402152228e346148d2565b565b60016000808282540192505081905550600080549050612f7b612056565b612fed576040517f08c379a00000000000000000000000000000000000000000000000000000000081526004018080602001828103825260138152602001807f456e74727920776173207375626d69747465640000000000000000000000000081525060200191505060405180910390fd5b612ff56140f1565b15613068576040517f08c379a000000000000000000000000000000000000000000000000000000000815260040180806020018281038252600f8152602001807f456e7472792074696d6564206f7574000000000000000000000000000000000081525060200191505060405180910390fd5b6060613080602a54600b614bd790919063ffffffff16565b905073__BLS___________________________________63de8f50a182602b866040518463ffffffff1660e01b815260040180806020018060200180602001848103845287818151815260200191508051906020019080838360005b838110156130f75780820151818401526020810190506130dc565b50505050905090810190601f1680156131245780820380516001836020036101000a031916815260200191505b508481038352868181546001816001161561010002031660029004815260200191508054600181600116156101000203166002900480156131a65780601f1061317b576101008083540402835291602001916131a6565b820191906000526020600020905b81548152906001019060200180831161318957829003601f168201915b5050848103825285818151815260200191508051906020019080838360005b838110156131e05780820151818401526020810190506131c5565b50505050905090810190601f16801561320d5780820380516001836020036101000a031916815260200191505b50965050505050505060206040518083038186803b15801561322e57600080fd5b505af4158015613242573d6000803e3d6000fd5b505050506040513d602081101561325857600080fd5b81019080805190602001909291905050506132db576040517f08c379a00000000000000000000000000000000000000000000000000000000081526004018080602001828103825260118152602001807f496e76616c6964207369676e617475726500000000000000000000000000000081525060200191505060405180910390fd5b7f8711cae111460cf9bde0d890f0dc09abcb8851e39bf020f406e53e86394cdbd760405160405180910390a1602e60009054906101000a900473ffffffffffffffffffffffffffffffffffffffff1673ffffffffffffffffffffffffffffffffffffffff16613357619c4060255461480090919063ffffffff16565b602854853360405160240180848152602001806020018373ffffffffffffffffffffffffffffffffffffffff1673ffffffffffffffffffffffffffffffffffffffff168152602001828103825284818151815260200191508051906020019080838360005b838110156133d75780820151818401526020810190506133bc565b50505050905090810190601f1680156134045780820380516001836020036101000a031916815260200191505b509450505050506040516020818303038152906040527fef7284e3000000000000000000000000000000000000000000000000000000007bffffffffffffffffffffffffffffffffffffffffffffffffffffffff19166020820180517bffffffffffffffffffffffffffffffffffffffffffffffffffffffff83818316178352505050506040518082805190602001908083835b602083106134bb5780518252602082019150602081019050602083039250613498565b6001836020036101000a03801982511681845116808217855250505050505090500191505060006040518083038160008787f1925050503d806000811461351e576040519150601f19603f3d011682016040523d82523d6000602084013e613523565b606091505b5050506000602d54111561354557613544838051906020012060001c614c9a565b5b600080600061355261511b565b92509250925061356e8484600b6152d89092919063ffffffff16565b601b60009054906101000a900473ffffffffffffffffffffffffffffffffffffffff1673ffffffffffffffffffffffffffffffffffffffff1663ba7bffd3336040518263ffffffff1660e01b8152600401808273ffffffffffffffffffffffffffffffffffffffff1673ffffffffffffffffffffffffffffffffffffffff16815260200191505060206040518083038186803b15801561360d57600080fd5b505afa158015613621573d6000803e3d6000fd5b505050506040513d602081101561363757600080fd5b810190808051906020019092919050505073ffffffffffffffffffffffffffffffffffffffff168260405180600001905060006040518083038185875af1925050503d80600081146136a5576040519150601f19603f3d011682016040523d82523d6000602084013e6136aa565b606091505b505050600081111561381557602e60009054906101000a900473ffffffffffffffffffffffffffffffffffffffff1673ffffffffffffffffffffffffffffffffffffffff166188b8826040516024016040516020818303038152906040527f11e816ee000000000000000000000000000000000000000000000000000000007bffffffffffffffffffffffffffffffffffffffffffffffffffffffff19166020820180517bffffffffffffffffffffffffffffffffffffffffffffffffffffffff83818316178352505050506040518082805190602001908083835b602083106137a95780518252602082019150602081019050602083039250613786565b6001836020036101000a038019825116818451168082178552505050505050905001915050600060405180830381858888f193505050503d806000811461380c576040519150601f19603f3d011682016040523d82523d6000602084013e613811565b606091505b5050505b6000602981905550505050506000548114613898576040517f08c379a000000000000000000000000000000000000000000000000000000000815260040180806020018281038252601f8152602001807f5265656e7472616e637947756172643a207265656e7472616e742063616c6c0081525060200191505060405180910390fd5b5050565b60265481565b60225481565b60006138b4600b6153ca565b905090565b60006138e6601e546138d860255460245461480090919063ffffffff16565b6143d290919063ffffffff16565b905090565b6000613904601f54601d546143d290919063ffffffff16565b905090565b601c60009054906101000a900473ffffffffffffffffffffffffffffffffffffffff1673ffffffffffffffffffffffffffffffffffffffff1663fe173b976040518163ffffffff1660e01b815260040160206040518083038186803b15801561397157600080fd5b505afa158015613985573d6000803e3d6000fd5b505050506040513d602081101561399b57600080fd5b8101908080519060200190929190505050601e81905550565b613a4d336019805480602002602001604051908101604052809291908181526020018280548015613a3a57602002820191906000526020600020905b8160009054906101000a900473ffffffffffffffffffffffffffffffffffffffff1673ffffffffffffffffffffffffffffffffffffffff16815260200190600101908083116139f0575b505050505061478590919063ffffffff16565b613abf576040517f08c379a00000000000000000000000000000000000000000000000000000000081526004018080602001828103825260208152602001807f43616c6c6572206973206e6f742061207365727669636520636f6e747261637481525060200191505060405180910390fd5b6000613ad8601e546025546143d290919063ffffffff16565b905033602760006101000a81548173ffffffffffffffffffffffffffffffffffffffff021916908373ffffffffffffffffffffffffffffffffffffffff160217905550613b3783613b32833461488890919063ffffffff16565b6148d2565b6000601b60009054906101000a900473ffffffffffffffffffffffffffffffffffffffff1673ffffffffffffffffffffffffffffffffffffffff1663ba7bffd3846040518263ffffffff1660e01b8152600401808273ffffffffffffffffffffffffffffffffffffffff1673ffffffffffffffffffffffffffffffffffffffff16815260200191505060206040518083038186803b158015613bd857600080fd5b505afa158015613bec573d6000803e3d6000fd5b505050506040513d6020811015613c0257600080fd5b810190808051906020019092919050505073ffffffffffffffffffffffffffffffffffffffff168260405180600001905060006040518083038185875af1925050503d8060008114613c70576040519150601f19603f3d011682016040523d82523d6000602084013e613c75565b606091505b5050905080613ccf576040517f08c379a00000000000000000000000000000000000000000000000000000000081526004018080602001828103825260248152602001806156876024913960400191505060405180910390fd5b50505050565b6000600160030154905090565b6060600b73__Groups________________________________63dc2627039091846040518363ffffffff1660e01b81526004018083815260200180602001828103825283818151815260200191508051906020019080838360005b83811015613d58578082015181840152602081019050613d3d565b50505050905090810190601f168015613d855780820380516001836020036101000a031916815260200191505b50935050505060006040518083038186803b158015613da357600080fd5b505af4158015613db7573d6000803e3d6000fd5b505050506040513d6000823e3d601f19601f820116820180604052506020811015613de157600080fd5b8101908080516040519392919084640100000000821115613e0157600080fd5b83820191506020820185811115613e1757600080fd5b8251866020820283011164010000000082111715613e3457600080fd5b8083526020830192505050908051906020019060200280838360005b83811015613e6b578082015181840152602081019050613e50565b505050509050016040525050509050919050565b601e5481565b600b73__Groups________________________________6320bc286690918484601b60009054906101000a900473ffffffffffffffffffffffffffffffffffffffff1673ffffffffffffffffffffffffffffffffffffffff1663ec5ffac26040518163ffffffff1660e01b815260040160206040518083038186803b158015613f0d57600080fd5b505afa158015613f21573d6000803e3d6000fd5b505050506040513d6020811015613f3757600080fd5b81019080805190602001909291905050506040518563ffffffff1660e01b81526004018085815260200184815260200180602001838152602001828103825284818151815260200191508051906020019080838360005b83811015613fa9578082015181840152602081019050613f8e565b50505050905090810190601f168015613fd65780820380516001836020036101000a031916815260200191505b509550505050505060006040518083038186803b158015613ff657600080fd5b505af415801561400a573d6000803e3d6000fd5b50505050817f6124f28ae7240a98a8ad3410bcd1f3bb0a113fc9834d5bd16426f9e1bd698fde60405160405180910390a25050565b6000600b60080154905090565b606061406282600b614bd790919063ffffffff16565b9050919050565b6000600b60030180549050905090565b60008083600201836040518082805190602001908083835b602083106140b45780518252602082019150602081019050602083039250614091565b6001836020036101000a03801982511681845116808217855250505050505090500191505090815260200160405180910390205411905092915050565b6000806029541415801561410a57506022546029540143115b905090565b614117612056565b1561418a576040517f08c379a000000000000000000000000000000000000000000000000000000000815260040180806020018281038252600e8152602001807f426561636f6e206973206275737900000000000000000000000000000000000081525060200191505060405180910390fd5b6000600b73__Groups________________________________6337ed6ace9091878051906020012060001c6040518363ffffffff1660e01b8152600401808381526020018281526020019250505060206040518083038186803b1580156141f057600080fd5b505af4158015614204573d6000803e3d6000fd5b505050506040513d602081101561421a57600080fd5b81019080805190602001909291905050509050856028819055504360298190555082602c8190555081602d8190555080602a8190555084602b90805190602001906142669291906155c0565b5083602e60006101000a81548173ffffffffffffffffffffffffffffffffffffffff021916908373ffffffffffffffffffffffffffffffffffffffff16021790555060606142be82600b614bd790919063ffffffff16565b90507ff3a8bf09e4f9146a48f9b91226985ac8d83d971beb4fc9ffdc569790e85a97e48682604051808060200180602001838103835285818151815260200191508051906020019080838360005b8381101561432757808201518184015260208101905061430c565b50505050905090810190601f1680156143545780820380516001836020036101000a031916815260200191505b50838103825284818151815260200191508051906020019080838360005b8381101561438d578082015181840152602081019050614372565b50505050905090810190601f1680156143ba5780820380516001836020036101000a031916815260200191505b5094505050505060405180910390a150505050505050565b6000808314156143e55760009050614452565b60008284029050828482816143f657fe5b041461444d576040517f08c379a00000000000000000000000000000000000000000000000000000000081526004018080602001828103825260218152602001806156666021913960400191505060405180910390fd5b809150505b92915050565b6000601e54905060003a1180156144705750601e543a105b15614479573a90505b6000614490826024546143d290919063ffffffff16565b90506000601b60009054906101000a900473ffffffffffffffffffffffffffffffffffffffff1673ffffffffffffffffffffffffffffffffffffffff1663ba7bffd3336040518263ffffffff1660e01b8152600401808273ffffffffffffffffffffffffffffffffffffffff1673ffffffffffffffffffffffffffffffffffffffff16815260200191505060206040518083038186803b15801561453357600080fd5b505afa158015614547573d6000803e3d6000fd5b505050506040513d602081101561455d57600080fd5b8101908080519060200190929190505050905060265482101561468a5760006145918360265461488890919063ffffffff16565b905060006026819055508173ffffffffffffffffffffffffffffffffffffffff168360405180600001905060006040518083038185875af1925050503d80600081146145f9576040519150601f19603f3d011682016040523d82523d6000602084013e6145fe565b606091505b505050602760009054906101000a900473ffffffffffffffffffffffffffffffffffffffff1673ffffffffffffffffffffffffffffffffffffffff16634611b648826040518263ffffffff1660e01b81526004016000604051808303818588803b15801561466b57600080fd5b505af115801561467f573d6000803e3d6000fd5b5050505050506146fe565b602654915060006026819055508073ffffffffffffffffffffffffffffffffffffffff168260405180600001905060006040518083038185875af1925050503d80600081146146f5576040519150601f19603f3d011682016040523d82523d6000602084013e6146fa565b606091505b5050505b505050565b600082600301828154811061471457fe5b906000526020600020906003020160020160009054906101000a900460ff16905092915050565b600061477d83836040518060400160405280601a81526020017f536166654d6174683a206469766973696f6e206279207a65726f00000000000081525061540a565b905092915050565b600080600090505b83518110156147f4578381815181106147a257fe5b602002602001015173ffffffffffffffffffffffffffffffffffffffff168373ffffffffffffffffffffffffffffffffffffffff1614156147e75760019150506147fa565b808060010191505061478d565b50600090505b92915050565b60008082840190508381101561487e576040517f08c379a000000000000000000000000000000000000000000000000000000000815260040180806020018281038252601b8152602001807f536166654d6174683a206164646974696f6e206f766572666c6f77000000000081525060200191505060405180910390fd5b8091505092915050565b60006148ca83836040518060400160405280601e81526020017f536166654d6174683a207375627472616374696f6e206f766572666c6f7700008152506154d0565b905092915050565b6148e9602454601e546143d290919063ffffffff16565b81101561495e576040517f08c379a00000000000000000000000000000000000000000000000000000000081526004018080602001828103825260148152602001807f496e73756666696369656e7420444b472066656500000000000000000000000081525060200191505060405180910390fd5b61496661170f565b6149d8576040517f08c379a000000000000000000000000000000000000000000000000000000000815260040180806020018281038252601b8152602001807f47726f75702073656c656374696f6e20696e2070726f6772657373000000000081525060200191505060405180910390fd5b60006026541115614a7757600060265490506000602681905550602760009054906101000a900473ffffffffffffffffffffffffffffffffffffffff1673ffffffffffffffffffffffffffffffffffffffff16634611b648826040518263ffffffff1660e01b81526004016000604051808303818588803b158015614a5c57600080fd5b505af1158015614a70573d6000803e3d6000fd5b5050505050505b601b60009054906101000a900473ffffffffffffffffffffffffffffffffffffffff1673ffffffffffffffffffffffffffffffffffffffff1663ec5ffac26040518163ffffffff1660e01b815260040160206040518083038186803b158015614adf57600080fd5b505afa158015614af3573d6000803e3d6000fd5b505050506040513d6020811015614b0957600080fd5b8101908080519060200190929190505050600160060181905550600173__GroupSelection________________________6352f9b3b99091846040518363ffffffff1660e01b8152600401808381526020018281526020019250505060006040518083038186803b158015614b7d57600080fd5b505af4158015614b91573d6000803e3d6000fd5b505050507f0769b89b6dbd96af3cdebccc7b68ce1e4ae748abc3e6b19a73b8b58460c57a94826040518082815260200191505060405180910390a1806026819055505050565b6060826003018281548110614be857fe5b90600052602060002090600302016000018054600181600116156101000203166002900480601f016020809104026020016040519081016040528092919081815260200182805460018160011615610100020316600290048015614c8d5780601f10614c6257610100808354040283529160200191614c8d565b820191906000526020600020905b815481529060010190602001808311614c7057829003601f168201915b5050505050905092915050565b6000614cb3601e54602d5461473b90919063ffffffff16565b9050621e84808111614cc55780614cca565b621e84805b90506060602e60009054906101000a900473ffffffffffffffffffffffffffffffffffffffff1673ffffffffffffffffffffffffffffffffffffffff16619c40602854604051602401808281526020019150506040516020818303038152906040527f0fda9ce4000000000000000000000000000000000000000000000000000000007bffffffffffffffffffffffffffffffffffffffffffffffffffffffff19166020820180517bffffffffffffffffffffffffffffffffffffffffffffffffffffffff83818316178352505050506040518082805190602001908083835b60208310614dcd5780518252602082019150602081019050602083039250614daa565b6001836020036101000a03801982511681845116808217855250505050505090500191505060006040518083038160008787f1925050503d8060008114614e30576040519150601f19603f3d011682016040523d82523d6000602084013e614e35565b606091505b5090508091505060005a9050602e60009054906101000a900473ffffffffffffffffffffffffffffffffffffffff1673ffffffffffffffffffffffffffffffffffffffff16836028548660405160240180838152602001828152602001925050506040516020818303038152906040527ffc3fcec7000000000000000000000000000000000000000000000000000000007bffffffffffffffffffffffffffffffffffffffffffffffffffffffff19166020820180517bffffffffffffffffffffffffffffffffffffffffffffffffffffffff83818316178352505050506040518082805190602001908083835b60208310614f465780518252602082019150602081019050602083039250614f23565b6001836020036101000a03801982511681845116808217855250505050505090500191505060006040518083038160008787f1925050503d8060008114614fa9576040519150601f19603f3d011682016040523d82523d6000602084013e614fae565b606091505b50505060005a90506000614fcb828461488890919063ffffffff16565b905073__Reimbursements________________________6346a50089601b60009054906101000a900473ffffffffffffffffffffffffffffffffffffffff16601e548885602d548a6040518763ffffffff1660e01b8152600401808773ffffffffffffffffffffffffffffffffffffffff1673ffffffffffffffffffffffffffffffffffffffff16815260200186815260200185815260200184815260200183815260200180602001828103825283818151815260200191508051906020019080838360005b838110156150ac578082015181840152602081019050615091565b50505050905090810190601f1680156150d95780820380516001836020036101000a031916815260200191505b5097505050505050505060006040518083038186803b1580156150fb57600080fd5b505af415801561510f573d6000803e3d6000fd5b50505050505050505050565b600080600080662386f26fc100009050600073__DelayFactor___________________________638dfa43636029546022546040518363ffffffff1660e01b8152600401808381526020018281526020019250505060206040518083038186803b15801561518857600080fd5b505af415801561519c573d6000803e3d6000fd5b505050506040513d60208110156151b257600080fd5b810190808051906020019092919050505090506151ec826151de83601d546143d290919063ffffffff16565b61473b90919063ffffffff16565b94506000615217615206838561488890919063ffffffff16565b601d546143d290919063ffffffff16565b90506000615255846152476005615239601f54876143d290919063ffffffff16565b61559090919063ffffffff16565b61473b90919063ffffffff16565b905060006152756152646138eb565b602c5461488890919063ffffffff16565b905061528a828261480090919063ffffffff16565b96506152cc826152be6152a8601f548c6143d290919063ffffffff16565b6152b06138eb565b61488890919063ffffffff16565b61488890919063ffffffff16565b95505050505050909192565b6153568184600601846040518082805190602001908083835b6020831061531457805182526020820191506020810190506020830392506152f1565b6001836020036101000a03801982511681845116808217855250505050505090500191505090815260200160405180910390205461480090919063ffffffff16565b83600601836040518082805190602001908083835b6020831061538e578051825260208201915060208101905060208303925061536b565b6001836020036101000a038019825116818451168082178552505050505050905001915050908152602001604051809103902081905550505050565b600061540382600401805490506153f58460080154856003018054905061488890919063ffffffff16565b61488890919063ffffffff16565b9050919050565b600080831182906154b6576040517f08c379a00000000000000000000000000000000000000000000000000000000081526004018080602001828103825283818151815260200191508051906020019080838360005b8381101561547b578082015181840152602081019050615460565b50505050905090810190601f1680156154a85780820380516001836020036101000a031916815260200191505b509250505060405180910390fd5b5060008385816154c257fe5b049050809150509392505050565b600083831115829061557d576040517f08c379a00000000000000000000000000000000000000000000000000000000081526004018080602001828103825283818151815260200191508051906020019080838360005b83811015615542578082015181840152602081019050615527565b50505050905090810190601f16801561556f5780820380516001836020036101000a031916815260200191505b509250505060405180910390fd5b5060008385039050809150509392505050565b60006155b860646155aa84866143d290919063ffffffff16565b61473b90919063ffffffff16565b905092915050565b828054600181600116156101000203166002900490600052602060002090601f016020900481019282601f1061560157805160ff191683800117855561562f565b8280016001018555821561562f579182015b8281111561562e578251825591602001919060010190615613565b5b50905061563c9190615640565b5090565b61566291905b8082111561565e576000816000905550600101615646565b5090565b9056fe536166654d6174683a206d756c7469706c69636174696f6e206f766572666c6f7747726f75702073656c656374696f6e207265696d62757273656d656e74206661696c6564a265627a7a72315820dbd447dd2943527ba3fdfed9b5d8abce031c037ff9001efb69b4bc046e48569264736f6c63430005110032536166654d6174683a206d756c7469706c69636174696f6e206f766572666c6f77",
  "source": "/**\n     \n   \n                            \n                             \n                           \n                           \n                          \n     \n     \n\n                           Trust math, not hardware.\n*/\n\npragma solidity 0.5.17;\n\nimport \"openzeppelin-solidity/contracts/math/SafeMath.sol\";\nimport \"openzeppelin-solidity/contracts/utils/ReentrancyGuard.sol\";\nimport \"./TokenStaking.sol\";\nimport \"./KeepRegistry.sol\";\nimport \"./GasPriceOracle.sol\";\nimport \"./cryptography/BLS.sol\";\nimport \"./utils/AddressArrayUtils.sol\";\nimport \"./utils/PercentUtils.sol\";\nimport \"./libraries/operator/GroupSelection.sol\";\nimport \"./libraries/operator/Groups.sol\";\nimport \"./libraries/operator/DKGResultVerification.sol\";\nimport \"./libraries/operator/Reimbursements.sol\";\nimport \"./libraries/operator/DelayFactor.sol\";\n\ninterface ServiceContract {\n    function entryCreated(uint256 requestId, bytes calldata entry, address payable submitter) external;\n    function fundRequestSubsidyFeePool() external payable;\n    function fundDkgFeePool() external payable;\n    function callbackSurplusRecipient(uint256 requestId) external view returns(address payable);\n}\n\n/// @title KeepRandomBeaconOperator\n/// @notice Keep client facing contract for random beacon security-critical operations.\n/// Handles group creation and expiration, BLS signature verification and incentives.\n/// The contract is not upgradeable. New functionality can be implemented by deploying\n/// new versions following Keep client update and re-authorization by the stakers.\ncontract KeepRandomBeaconOperator is ReentrancyGuard, GasPriceOracleConsumer {\n    using SafeMath for uint256;\n    using PercentUtils for uint256;\n    using AddressArrayUtils for address[];\n    using GroupSelection for GroupSelection.Storage;\n    using Groups for Groups.Storage;\n    using DKGResultVerification for DKGResultVerification.Storage;\n\n    event OnGroupRegistered(bytes groupPubKey);\n    event DkgResultSubmittedEvent(\n        uint256 memberIndex,\n        bytes groupPubKey,\n        bytes misbehaved\n    );\n    event RelayEntryRequested(bytes previousEntry, bytes groupPublicKey);\n    event RelayEntrySubmitted();\n    event GroupSelectionStarted(uint256 newEntry);\n    event GroupMemberRewardsWithdrawn(\n        address indexed beneficiary,\n        address operator,\n        uint256 amount,\n        uint256 groupIndex\n    );\n    event RelayEntryTimeoutReported(uint256 indexed groupIndex);\n    event UnauthorizedSigningReported(uint256 indexed groupIndex);\n\n    GroupSelection.Storage groupSelection;\n    Groups.Storage groups;\n    DKGResultVerification.Storage dkgResultVerification;\n\n    address[] internal serviceContracts;\n\n    KeepRegistry internal registry;\n\n    TokenStaking internal stakingContract;\n\n    GasPriceOracle internal gasPriceOracle;\n\n    /// @dev Each signing group member reward expressed in wei.\n    uint256 public groupMemberBaseReward = 1000000*1e9; // 1M Gwei\n\n    /// @dev Gas price ceiling value used to calculate the gas price for reimbursement\n    /// next to the actual gas price from the transaction. We use gas price\n    /// ceiling to defend against malicious miner-submitters who can manipulate\n    /// transaction gas price.\n    uint256 public gasPriceCeiling = 60*1e9; // (60 Gwei = 60 * 10^9 wei)\n\n    /// @dev Size of a group in the threshold relay.\n    uint256 public groupSize = 64;\n\n    /// @dev Minimum number of group members needed to interact according to the\n    /// protocol to produce a relay entry.\n    uint256 public groupThreshold = 33;\n\n    /// @dev Time in blocks after which the next group member is eligible\n    /// to submit the result.\n    uint256 public resultPublicationBlockStep = 6;\n\n    /// @dev Timeout in blocks for a relay entry to appear on the chain. Blocks\n    /// are counted from the moment relay request occur.\n    ///\n    /// Timeout is never shorter than the time needed by clients to generate\n    /// relay entry and the time it takes for the last group member to become\n    /// eligible to submit the result plus at least one block to submit it.\n    uint256 public relayEntryTimeout = groupSize.mul(resultPublicationBlockStep);\n\n    /// @dev Gas required to verify BLS signature and produce successful relay\n    /// entry. Excludes callback and DKG gas. The worst case (most expensive)\n    /// scenario.\n    uint256 public entryVerificationGasEstimate = 280000;\n\n    /// @dev Gas required to submit DKG result. Excludes initiation of group selection.\n    uint256 public dkgGasEstimate = 1740000;\n\n    /// @dev Gas required to trigger DKG (starting group selection).\n    uint256 public groupSelectionGasEstimate = 200000;\n\n    /// @dev Reimbursement for the submitter of the DKG result. This value is set\n    /// when a new DKG request comes to the operator contract.\n    ///\n    /// When submitting DKG result, the submitter is reimbursed with the actual cost\n    /// and some part of the fee stored in this field may be returned to the service\n    /// contract.\n    uint256 public dkgSubmitterReimbursementFee;\n\n    /// @dev Seed value used for the genesis group selection.\n    /// https://www.wolframalpha.com/input/?i=pi+to+78+digits\n    uint256 internal constant _genesisGroupSeed = 31415926535897932384626433832795028841971693993751058209749445923078164062862;\n\n    /// @dev Service contract that triggered current group selection.\n    ServiceContract internal groupSelectionStarterContract;\n\n    // current relay request data\n    uint256 internal currentRequestId;\n    uint256 public currentRequestStartBlock;\n    uint256 public currentRequestGroupIndex;\n    bytes public currentRequestPreviousEntry;\n    uint256 internal  currentRequestEntryVerificationAndProfitFee;\n    uint256 internal currentRequestCallbackFee;\n    address internal currentRequestServiceContract;\n\n\n    /// @notice Triggers group selection if there are no active groups.\n    function genesis() public payable {\n        // If we run into a very unlikely situation when there are no active\n        // groups on the contract because of slashing and groups terminated\n        // or because beacon has not been used for a very long time and all\n        // groups expired, we first want to make a cleanup.\n        groups.expireOldGroups();\n        require(numberOfGroups() == 0, \"Groups exist\");\n        // Cleanup after potential failed DKG\n        groupSelection.finish();\n        // Set latest added service contract as a group selection starter to receive any DKG fee surplus.\n        groupSelectionStarterContract = ServiceContract(serviceContracts[serviceContracts.length.sub(1)]);\n        startGroupSelection(_genesisGroupSeed, msg.value);\n    }\n\n    modifier onlyServiceContract() {\n        require(\n            serviceContracts.contains(msg.sender),\n            \"Caller is not a service contract\"\n        );\n        _;\n    }\n\n    constructor(\n        address _serviceContract,\n        address _tokenStaking,\n        address _keepRegistry,\n        address _gasPriceOracle\n    ) public {\n        serviceContracts.push(_serviceContract);\n\n        stakingContract = TokenStaking(_tokenStaking);\n        registry = KeepRegistry(_keepRegistry);\n        gasPriceOracle = GasPriceOracle(_gasPriceOracle);\n\n        groups.stakingContract = stakingContract;\n        groups.groupActiveTime = 86400 * 14 / 15; // 14 days equivalent in 15s blocks\n        groups.relayEntryTimeout = relayEntryTimeout;\n\n        // There are 78 blocks to submit group selection tickets. To minimize\n        // the submitter's cost by minimizing the number of redundant tickets\n        // that are not selected into the group, the following approach is\n        // recommended:\n        //\n        // Tickets are submitted in 11 rounds, each round taking 6 blocks.\n        // As the basic principle, the number of leading zeros in the ticket\n        // value is subtracted from the number of rounds to determine the round\n        // the ticket should be submitted in:\n        // - in round 0, tickets with 11 or more leading zeros are submitted\n        // - in round 1, tickets with 10 or more leading zeros are submitted\n        // (...)\n        // - in round 11, tickets with no leading zeros are submitted.\n        //\n        // In each round, group member candidate needs to monitor tickets\n        // submitted by other candidates and compare them against tickets of\n        // the candidate not yet submitted to determine if continuing with\n        // ticket submission still makes sense.\n        //\n        // After 66 blocks, there is a 12 blocks mining lag allowing all\n        // outstanding ticket submissions to have a higher chance of being\n        // mined before the deadline.\n        groupSelection.ticketSubmissionTimeout = 6 * 11 + 12;\n\n        groupSelection.groupSize = groupSize;\n\n        dkgResultVerification.timeDKG = 5*(1+5) + 2*(1+10) + 20;\n        dkgResultVerification.resultPublicationBlockStep = resultPublicationBlockStep;\n        dkgResultVerification.groupSize = groupSize;\n        dkgResultVerification.signatureThreshold = groupThreshold + (groupSize - groupThreshold) / 2;\n    }\n\n    /// @notice Adds service contract\n    /// @param serviceContract Address of the service contract.\n    function addServiceContract(address serviceContract) public {\n        require(\n            registry.serviceContractUpgraderFor(address(this)) == msg.sender,\n            \"Not authorized\"\n        );\n\n        serviceContracts.push(serviceContract);\n    }\n\n    /// @notice Pulls the most recent gas price from gas price oracle.\n    function refreshGasPrice() public {\n        gasPriceCeiling = gasPriceOracle.gasPrice();\n    }\n\n    /// @notice Triggers the selection process of a new candidate group.\n    /// @param _newEntry New random beacon value that stakers will use to\n    /// generate their tickets.\n    /// @param submitter Operator of this contract.\n    function createGroup(uint256 _newEntry, address payable submitter) public payable onlyServiceContract {\n        uint256 groupSelectionStartFee = groupSelectionGasEstimate.mul(gasPriceCeiling);\n\n        groupSelectionStarterContract = ServiceContract(msg.sender);\n        startGroupSelection(_newEntry, msg.value.sub(groupSelectionStartFee));\n\n        // reimbursing a submitter that triggered group selection\n        (bool success, ) = stakingContract.beneficiaryOf(submitter).call.value(groupSelectionStartFee)(\"\");\n        require(success, \"Group selection reimbursement failed\");\n    }\n\n    function startGroupSelection(uint256 _newEntry, uint256 _payment) internal {\n        require(\n            _payment >= gasPriceCeiling.mul(dkgGasEstimate),\n            \"Insufficient DKG fee\"\n        );\n\n        require(isGroupSelectionPossible(), \"Group selection in progress\");\n\n        // If previous group selection failed and there is reimbursement left\n        // return it to the DKG fee pool.\n        if (dkgSubmitterReimbursementFee > 0) {\n            uint256 surplus = dkgSubmitterReimbursementFee;\n            dkgSubmitterReimbursementFee = 0;\n            ServiceContract(groupSelectionStarterContract).fundDkgFeePool.value(surplus)();\n        }\n\n        groupSelection.minimumStake = stakingContract.minimumStake();\n        groupSelection.start(_newEntry);\n        emit GroupSelectionStarted(_newEntry);\n        dkgSubmitterReimbursementFee = _payment;\n    }\n\n    /// @notice Checks if it is possible to fire a new group selection.\n    /// Triggering new group selection is only possible when there is no\n    /// pending group selection or when the pending group selection timed out.\n    function isGroupSelectionPossible() public view returns (bool) {\n        if (!groupSelection.inProgress) {\n            return true;\n        }\n\n        // dkgTimeout is the time after key generation protocol is expected to\n        // be complete plus the expected time to submit the result.\n        uint256 dkgTimeout = groupSelection.ticketSubmissionStartBlock +\n        groupSelection.ticketSubmissionTimeout +\n        dkgResultVerification.timeDKG +\n        groupSize * resultPublicationBlockStep;\n\n        return block.number > dkgTimeout;\n    }\n\n    /// @notice Submits ticket to request to participate in a new candidate group.\n    /// @param ticket Bytes representation of a ticket that holds the following:\n    /// - ticketValue: first 8 bytes of a result of keccak256 cryptography hash\n    ///   function on the combination of the group selection seed (previous\n    ///   beacon output), staker-specific value (address) and virtual staker index.\n    /// - stakerValue: a staker-specific value which is the address of the staker.\n    /// - virtualStakerIndex: 4-bytes number within a range of 1 to staker's weight;\n    ///   has to be unique for all tickets submitted by the given staker for the\n    ///   current candidate group selection.\n    function submitTicket(bytes32 ticket) public {\n        uint256 stakingWeight = stakingContract.eligibleStake(\n            msg.sender, address(this)\n        ).div(groupSelection.minimumStake);\n        groupSelection.submitTicket(ticket, stakingWeight);\n    }\n\n    /// @notice Gets the timeout in blocks after which group candidate ticket\n    /// submission is finished.\n    function ticketSubmissionTimeout() public view returns (uint256) {\n        return groupSelection.ticketSubmissionTimeout;\n    }\n\n    /// @notice Gets the submitted group candidate tickets so far.\n    function submittedTickets() public view returns (uint64[] memory) {\n        return groupSelection.tickets;\n    }\n\n    /// @notice Gets selected participants in ascending order of their tickets.\n    function selectedParticipants() public view returns (address[] memory) {\n        return groupSelection.selectedParticipants();\n    }\n\n    /// @notice Submits result of DKG protocol. It is on-chain part of phase 14 of\n    /// the protocol.\n    /// @param submitterMemberIndex Claimed submitter candidate group member index\n    /// @param groupPubKey Generated candidate group public key\n    /// @param misbehaved Bytes array of misbehaved (disqualified or inactive)\n    /// group members indexes in ascending order; Indexes reflect positions of\n    /// members in the group as outputted by the group selection protocol.\n    /// @param signatures Concatenation of signatures from members supporting the\n    /// result.\n    /// @param signingMembersIndexes Indices of members corresponding to each\n    /// signature.\n    function submitDkgResult(\n        uint256 submitterMemberIndex,\n        bytes memory groupPubKey,\n        bytes memory misbehaved,\n        bytes memory signatures,\n        uint[] memory signingMembersIndexes\n    ) public nonReentrant {\n        address[] memory members = selectedParticipants();\n\n        dkgResultVerification.verify(\n            submitterMemberIndex,\n            groupPubKey,\n            misbehaved,\n            signatures,\n            signingMembersIndexes,\n            members,\n            groupSelection.ticketSubmissionStartBlock + groupSelection.ticketSubmissionTimeout\n        );\n\n        groups.setGroupMembers(groupPubKey, members, misbehaved);\n        groups.addGroup(groupPubKey);\n        reimburseDkgSubmitter();\n        emit DkgResultSubmittedEvent(submitterMemberIndex, groupPubKey, misbehaved);\n        groupSelection.finish();\n    }\n\n    /// @notice Compare the reimbursement fee calculated based on the current\n    /// transaction gas price and the current price feed estimate with the DKG\n    /// reimbursement fee calculated and paid at the moment when the DKG was\n    /// requested. If there is any surplus, it will be returned to the DKG fee\n    /// pool of the service contract which triggered the DKG.\n    function reimburseDkgSubmitter() internal {\n        uint256 gasPrice = gasPriceCeiling;\n        // We need to check if tx.gasprice is non-zero as a workaround to a bug\n        // in go-ethereum:\n        // https://github.com/ethereum/go-ethereum/pull/20189\n        if (tx.gasprice > 0 && tx.gasprice < gasPriceCeiling) {\n            gasPrice = tx.gasprice;\n        }\n\n        uint256 reimbursementFee = dkgGasEstimate.mul(gasPrice);\n        address payable beneficiary = stakingContract.beneficiaryOf(msg.sender);\n\n        if (reimbursementFee < dkgSubmitterReimbursementFee) {\n            uint256 surplus = dkgSubmitterReimbursementFee.sub(reimbursementFee);\n            dkgSubmitterReimbursementFee = 0;\n            // Reimburse submitter with actual DKG cost.\n            beneficiary.call.value(reimbursementFee)(\"\");\n\n            // Return surplus to the contract that started DKG.\n            groupSelectionStarterContract.fundDkgFeePool.value(surplus)();\n        } else {\n            // If submitter used higher gas price reimburse only\n            // dkgSubmitterReimbursementFee max.\n            reimbursementFee = dkgSubmitterReimbursementFee;\n            dkgSubmitterReimbursementFee = 0;\n            beneficiary.call.value(reimbursementFee)(\"\");\n        }\n    }\n\n    /// @notice Creates a request to generate a new relay entry, which will include\n    /// a random number (by signing the previous entry's random number).\n    /// @param requestId Request Id trackable by service contract\n    /// @param previousEntry Previous relay entry\n    function sign(\n        uint256 requestId,\n        bytes memory previousEntry\n    ) public payable onlyServiceContract {\n        uint256 entryVerificationAndProfitFee = groupProfitFee().add(\n            entryVerificationFee()\n        );\n        require(\n            msg.value >= entryVerificationAndProfitFee,\n            \"Insufficient new entry fee\"\n        );\n        uint256 callbackFee = msg.value.sub(entryVerificationAndProfitFee);\n        signRelayEntry(\n            requestId, previousEntry, msg.sender,\n            entryVerificationAndProfitFee, callbackFee\n        );\n    }\n\n    function signRelayEntry(\n        uint256 requestId,\n        bytes memory previousEntry,\n        address serviceContract,\n        uint256 entryVerificationAndProfitFee,\n        uint256 callbackFee\n    ) internal {\n        require(!isEntryInProgress(), \"Beacon is busy\");\n\n        uint256 groupIndex = groups.selectGroup(uint256(keccak256(previousEntry)));\n\n        currentRequestId = requestId;\n        currentRequestStartBlock = block.number;\n        currentRequestEntryVerificationAndProfitFee = entryVerificationAndProfitFee;\n        currentRequestCallbackFee = callbackFee;\n        currentRequestGroupIndex = groupIndex;\n        currentRequestPreviousEntry = previousEntry;\n        currentRequestServiceContract = serviceContract;\n\n        bytes memory groupPubKey = groups.getGroupPublicKey(groupIndex);\n        emit RelayEntryRequested(previousEntry, groupPubKey);\n    }\n\n    /// @notice Creates a new relay entry and stores the associated data on the chain.\n    /// @param _groupSignature Group BLS signature over the concatenation of the\n    /// previous entry and seed.\n    function relayEntry(bytes memory _groupSignature) public nonReentrant {\n        require(isEntryInProgress(), \"Entry was submitted\");\n        require(!hasEntryTimedOut(), \"Entry timed out\");\n\n        bytes memory groupPubKey = groups.getGroupPublicKey(currentRequestGroupIndex);\n\n        require(\n            BLS.verify(\n                groupPubKey,\n                currentRequestPreviousEntry,\n                _groupSignature\n            ),\n            \"Invalid signature\"\n        );\n\n        emit RelayEntrySubmitted();\n\n        // Spend no more than groupSelectionGasEstimate + 40000 gas max\n        // This will prevent relayEntry failure in case the service contract is compromised\n        currentRequestServiceContract.call.gas(groupSelectionGasEstimate.add(40000))(\n            abi.encodeWithSignature(\n                \"entryCreated(uint256,bytes,address)\",\n                currentRequestId,\n                _groupSignature,\n                msg.sender\n            )\n        );\n\n        if (currentRequestCallbackFee > 0) {\n            executeCallback(uint256(keccak256(_groupSignature)));\n        }\n\n        (uint256 groupMemberReward, uint256 submitterReward, uint256 subsidy) = newEntryRewardsBreakdown();\n        groups.addGroupMemberReward(groupPubKey, groupMemberReward);\n\n        stakingContract.beneficiaryOf(msg.sender).call.value(submitterReward)(\"\");\n\n        if (subsidy > 0) {\n            currentRequestServiceContract.call.gas(35000).value(subsidy)(\n                abi.encodeWithSignature(\"fundRequestSubsidyFeePool()\")\n            );\n        }\n\n        currentRequestStartBlock = 0;\n    }\n\n    /// @notice Executes customer specified callback for the relay entry request.\n    /// @param entry The generated random number.\n    function executeCallback(uint256 entry) internal {\n        // Make sure not to spend more than what was received from the service\n        // contract for the callback\n        uint256 gasLimit = currentRequestCallbackFee.div(gasPriceCeiling);\n\n        // Make sure not to spend more than 2 million gas on a callback.\n        // This is to protect members from relay entry failure and potential\n        // slashing in case of any changes in .call() gas limit.\n        gasLimit = gasLimit > 2000000 ? 2000000 : gasLimit;\n\n        bytes memory callbackSurplusRecipientData;\n        (, callbackSurplusRecipientData) = currentRequestServiceContract.call.gas(\n            40000\n        )(abi.encodeWithSignature(\n            \"callbackSurplusRecipient(uint256)\",\n            currentRequestId\n        ));\n\n        uint256 gasBeforeCallback = gasleft();\n        currentRequestServiceContract.call.gas(\n            gasLimit\n        )(abi.encodeWithSignature(\n            \"executeCallback(uint256,uint256)\",\n            currentRequestId,\n            entry\n        ));\n\n        uint256 gasAfterCallback = gasleft();\n        uint256 gasSpent = gasBeforeCallback.sub(gasAfterCallback);\n\n        Reimbursements.reimburseCallback(\n            stakingContract,\n            gasPriceCeiling,\n            gasLimit,\n            gasSpent,\n            currentRequestCallbackFee,\n            callbackSurplusRecipientData\n        );\n    }\n\n    /// @notice Get rewards breakdown in wei for successful entry for the\n    /// current signing request.\n    function newEntryRewardsBreakdown() internal view returns(\n        uint256 groupMemberReward,\n        uint256 submitterReward,\n        uint256 subsidy\n    ) {\n        uint256 decimals = 1e16; // Adding 16 decimals to perform float division.\n\n        uint256 delayFactor = DelayFactor.calculate(\n            currentRequestStartBlock,\n            relayEntryTimeout\n        );\n        groupMemberReward = groupMemberBaseReward.mul(delayFactor).div(decimals);\n\n        // delay penalty = base reward * (1 - delay factor)\n        uint256 groupMemberDelayPenalty = groupMemberBaseReward.mul(decimals.sub(delayFactor));\n\n        // The submitter reward consists of:\n        // The callback gas expenditure (reimbursed by the service contract)\n        // The entry verification fee to cover the cost of verifying the submission,\n        // paid regardless of their gas expenditure\n        // Submitter extra reward - 5% of the delay penalties of the entire group\n        uint256 submitterExtraReward = groupMemberDelayPenalty.mul(groupSize).percent(5).div(decimals);\n        uint256 entryVerificationFee = currentRequestEntryVerificationAndProfitFee.sub(groupProfitFee());\n        submitterReward = entryVerificationFee.add(submitterExtraReward);\n\n        // Rewards not paid out to the operators are paid out to requesters to subsidize new requests.\n        subsidy = groupProfitFee().sub(groupMemberReward.mul(groupSize)).sub(submitterExtraReward);\n    }\n\n    /// @notice Returns true if generation of a new relay entry is currently in\n    /// progress.\n    function isEntryInProgress() public view returns (bool) {\n        return currentRequestStartBlock != 0;\n    }\n\n    /// @notice Returns true if the currently ongoing new relay entry generation\n    /// operation timed out. There is a certain timeout for a new relay entry\n    /// to be produced, see `relayEntryTimeout` value.\n    function hasEntryTimedOut() internal view returns (bool) {\n        return currentRequestStartBlock != 0 && block.number > currentRequestStartBlock + relayEntryTimeout;\n    }\n\n    /// @notice Function used to inform about the fact the currently ongoing\n    /// new relay entry generation operation timed out. As a result, the group\n    /// which was supposed to produce a new relay entry is immediately\n    /// terminated and a new group is selected to produce a new relay entry.\n    /// All members of the group are punished by seizing minimum stake of\n    /// their tokens. The submitter of the transaction is rewarded with a\n    /// tattletale reward which is limited to min(1, 20 / group_size) of the\n    /// maximum tattletale reward.\n    function reportRelayEntryTimeout() public {\n        require(hasEntryTimedOut(), \"Entry did not time out\");\n        groups.reportRelayEntryTimeout(currentRequestGroupIndex, groupSize);\n        currentRequestStartBlock = 0;\n\n        // We could terminate the last active group. If that's the case,\n        // do not try to execute signing again because there is no group\n        // which can handle it.\n        if (numberOfGroups() > 0) {\n            signRelayEntry(\n                currentRequestId,\n                currentRequestPreviousEntry,\n                currentRequestServiceContract,\n                currentRequestEntryVerificationAndProfitFee,\n                currentRequestCallbackFee\n            );\n        }\n\n        emit RelayEntryTimeoutReported(currentRequestGroupIndex);\n    }\n\n    /// @notice Gets group profit fee expressed in wei.\n    function groupProfitFee() public view returns(uint256) {\n        return groupMemberBaseReward.mul(groupSize);\n    }\n\n    /// @notice Checks if the specified account has enough active stake to become\n    /// network operator and that this contract has been authorized for potential\n    /// slashing.\n    ///\n    /// Having the required minimum of active stake makes the operator eligible\n    /// to join the network. If the active stake is not currently undelegating,\n    /// operator is also eligible for work selection.\n    ///\n    /// @param staker Staker's address\n    /// @return True if has enough active stake to participate in the network,\n    /// false otherwise.\n    function hasMinimumStake(address staker) public view returns(bool) {\n        return stakingContract.hasMinimumStake(staker, address(this));\n    }\n\n    /// @notice Checks if group with the given public key is registered.\n    function isGroupRegistered(bytes memory groupPubKey) public view returns(bool) {\n        return groups.isGroupRegistered(groupPubKey);\n    }\n\n    /// @notice Checks if a group with the given public key is a stale group.\n    /// Stale group is an expired group which is no longer performing any\n    /// operations. It is important to understand that an expired group may\n    /// still perform some operations for which it was selected when it was still\n    /// active. We consider a group to be stale when it's expired and when its\n    /// expiration time and potentially executed operation timeout are both in\n    /// the past.\n    function isStaleGroup(bytes memory groupPubKey) public view returns(bool) {\n        return groups.isStaleGroup(groupPubKey);\n    }\n\n    /// @notice Gets the number of active groups as currently marked in the\n    /// contract. This is the state from when the expired groups were last updated\n    /// without accounting for recent expirations.\n    ///\n    /// @dev Even if numberOfGroups() > 0, it is still possible requesting for\n    /// a new relay entry will revert with \"no active groups\" failure message.\n    /// This function returns the number of active groups as they are currently\n    /// marked on-chain. However, during relay request, before group selection,\n    /// we run group expiration and it may happen that some groups seen as active\n    /// turns out to be expired.\n    function numberOfGroups() public view returns(uint256) {\n        return groups.numberOfGroups();\n    }\n\n    /// @notice Returns accumulated group member rewards for provided group.\n    function getGroupMemberRewards(bytes memory groupPubKey) public view returns (uint256) {\n        return groups.groupMemberRewards[groupPubKey];\n    }\n\n    /// @notice Return whether the given operator has withdrawn their rewards\n    /// from the given group.\n    function hasWithdrawnRewards(address operator, uint256 groupIndex)\n        public view returns (bool) {\n        return groups.hasWithdrawnRewards(operator, groupIndex);\n    }\n\n    /// @notice Withdraws accumulated group member rewards for operator\n    /// using the provided group index.\n    /// Once the accumulated reward is withdrawn from the selected group,\n    /// the operator is flagged as withdrawn.\n    /// Rewards can be withdrawn only from stale group.\n    /// @param operator Operator address\n    /// @param groupIndex Group index\n    function withdrawGroupMemberRewards(address operator, uint256 groupIndex)\n        public nonReentrant {\n        uint256 accumulatedRewards = groups.withdrawFromGroup(operator, groupIndex);\n        (bool success, ) = stakingContract.beneficiaryOf(operator).call.value(accumulatedRewards)(\"\");\n        if (success) {\n            emit GroupMemberRewardsWithdrawn(stakingContract.beneficiaryOf(operator), operator, accumulatedRewards, groupIndex);\n        }\n    }\n\n    /// @notice Gets the index of the first active group.\n    function getFirstActiveGroupIndex() public view returns (uint256) {\n        return groups.expiredGroupOffset;\n    }\n\n    /// @notice Gets public key of the group with the given index.\n    function getGroupPublicKey(uint256 groupIndex) public view returns (bytes memory) {\n        return groups.getGroupPublicKey(groupIndex);\n    }\n\n    /// @notice Returns fee for entry verification in wei. Does not include group\n    /// profit fee, DKG contribution or callback fee.\n    function entryVerificationFee() public view returns (uint256) {\n        return entryVerificationGasEstimate.mul(gasPriceCeiling);\n    }\n\n    /// @notice Returns fee for group creation in wei. Includes the cost of DKG\n    /// and the cost of triggering group selection.\n    function groupCreationFee() public view returns (uint256) {\n        return dkgGasEstimate.add(groupSelectionGasEstimate).mul(gasPriceCeiling);\n    }\n\n    /// @notice Returns members of the given group by group public key.\n    function getGroupMembers(bytes memory groupPubKey) public view returns (address[] memory members) {\n        return groups.getGroupMembers(groupPubKey);\n    }\n\n    function getNumberOfCreatedGroups() public view returns (uint256) {\n        return groups.groups.length;\n    }\n\n    function getGroupRegistrationTime(uint256 groupIndex) public view returns (uint256) {\n        return groups.getGroupRegistrationTime(groupIndex);\n    }\n\n    function isGroupTerminated(uint256 groupIndex) public view returns (bool) {\n        return groups.isGroupTerminated(groupIndex);\n    }\n\n    /// @notice Reports unauthorized signing for the provided group. Must provide\n    /// a valid signature of the tattletale address as a message. Successful signature\n    /// verification means the private key has been leaked and all group members\n    /// should be punished by seizingtheir tokens. The submitter of this proof is\n    /// rewarded with 5% of the total seized amount scaled by the reward adjustment\n    /// parameter and the rest 95% is burned.\n    function reportUnauthorizedSigning(\n        uint256 groupIndex,\n        bytes memory signedMsgSender\n    ) public {\n        groups.reportUnauthorizedSigning(\n            groupIndex,\n            signedMsgSender,\n            stakingContract.minimumStake()\n        );\n        emit UnauthorizedSigningReported(groupIndex);\n    }\n}\n",
  "sourcePath": "/Users/konrad/Desktop/rumble/fin/local-setup/keep-core/solidity/contracts/KeepRandomBeaconOperator.sol",
  "compiler": {
    "name": "solc",
    "version": "0.5.17+commit.d19bba13.Emscripten.clang"
  },
  "schemaVersion": "3.3.3",
  "updatedAt": "2021-04-30T08:50:06.753Z",
  "networkType": "ethereum",
  "devdoc": {
    "methods": {
      "addServiceContract(address)": {
        "params": {
          "serviceContract": "Address of the service contract."
        }
      },
      "createGroup(uint256,address)": {
        "params": {
          "_newEntry": "New random beacon value that stakers will use to generate their tickets.",
          "submitter": "Operator of this contract."
        }
      },
      "hasMinimumStake(address)": {
        "params": {
          "staker": "Staker's address"
        },
        "return": "True if has enough active stake to participate in the network, false otherwise."
      },
      "numberOfGroups()": {
        "details": "Even if numberOfGroups() > 0, it is still possible requesting for a new relay entry will revert with \"no active groups\" failure message. This function returns the number of active groups as they are currently marked on-chain. However, during relay request, before group selection, we run group expiration and it may happen that some groups seen as active turns out to be expired."
      },
      "relayEntry(bytes)": {
        "params": {
          "_groupSignature": "Group BLS signature over the concatenation of the previous entry and seed."
        }
      },
      "sign(uint256,bytes)": {
        "params": {
          "previousEntry": "Previous relay entry",
          "requestId": "Request Id trackable by service contract"
        }
      },
      "submitDkgResult(uint256,bytes,bytes,bytes,uint256[])": {
        "params": {
          "groupPubKey": "Generated candidate group public key",
          "misbehaved": "Bytes array of misbehaved (disqualified or inactive) group members indexes in ascending order; Indexes reflect positions of members in the group as outputted by the group selection protocol.",
          "signatures": "Concatenation of signatures from members supporting the result.",
          "signingMembersIndexes": "Indices of members corresponding to each signature.",
          "submitterMemberIndex": "Claimed submitter candidate group member index"
        }
      },
      "submitTicket(bytes32)": {
        "params": {
          "ticket": "Bytes representation of a ticket that holds the following: - ticketValue: first 8 bytes of a result of keccak256 cryptography hash   function on the combination of the group selection seed (previous   beacon output), staker-specific value (address) and virtual staker index. - stakerValue: a staker-specific value which is the address of the staker. - virtualStakerIndex: 4-bytes number within a range of 1 to staker's weight;   has to be unique for all tickets submitted by the given staker for the   current candidate group selection."
        }
      },
      "withdrawGroupMemberRewards(address,uint256)": {
        "params": {
          "groupIndex": "Group index",
          "operator": "Operator address"
        }
      }
    },
    "title": "KeepRandomBeaconOperator"
  },
  "userdoc": {
    "methods": {
      "addServiceContract(address)": {
        "notice": "Adds service contract"
      },
      "createGroup(uint256,address)": {
        "notice": "Triggers the selection process of a new candidate group."
      },
      "entryVerificationFee()": {
        "notice": "Returns fee for entry verification in wei. Does not include group profit fee, DKG contribution or callback fee."
      },
      "genesis()": {
        "notice": "Triggers group selection if there are no active groups."
      },
      "getFirstActiveGroupIndex()": {
        "notice": "Gets the index of the first active group."
      },
      "getGroupMemberRewards(bytes)": {
        "notice": "Returns accumulated group member rewards for provided group."
      },
      "getGroupMembers(bytes)": {
        "notice": "Returns members of the given group by group public key."
      },
      "getGroupPublicKey(uint256)": {
        "notice": "Gets public key of the group with the given index."
      },
      "groupCreationFee()": {
        "notice": "Returns fee for group creation in wei. Includes the cost of DKG and the cost of triggering group selection."
      },
      "groupProfitFee()": {
        "notice": "Gets group profit fee expressed in wei."
      },
      "hasMinimumStake(address)": {
        "notice": "Checks if the specified account has enough active stake to become network operator and that this contract has been authorized for potential slashing.     /// Having the required minimum of active stake makes the operator eligible to join the network. If the active stake is not currently undelegating, operator is also eligible for work selection. "
      },
      "hasWithdrawnRewards(address,uint256)": {
        "notice": "Return whether the given operator has withdrawn their rewards from the given group."
      },
      "isEntryInProgress()": {
        "notice": "Returns true if generation of a new relay entry is currently in progress."
      },
      "isGroupRegistered(bytes)": {
        "notice": "Checks if group with the given public key is registered."
      },
      "isGroupSelectionPossible()": {
        "notice": "Checks if it is possible to fire a new group selection. Triggering new group selection is only possible when there is no pending group selection or when the pending group selection timed out."
      },
      "isStaleGroup(bytes)": {
        "notice": "Checks if a group with the given public key is a stale group. Stale group is an expired group which is no longer performing any operations. It is important to understand that an expired group may still perform some operations for which it was selected when it was still active. We consider a group to be stale when it's expired and when its expiration time and potentially executed operation timeout are both in the past."
      },
      "numberOfGroups()": {
        "notice": "Gets the number of active groups as currently marked in the contract. This is the state from when the expired groups were last updated without accounting for recent expirations. "
      },
      "refreshGasPrice()": {
        "notice": "Pulls the most recent gas price from gas price oracle."
      },
      "relayEntry(bytes)": {
        "notice": "Creates a new relay entry and stores the associated data on the chain."
      },
      "reportRelayEntryTimeout()": {
        "notice": "Function used to inform about the fact the currently ongoing new relay entry generation operation timed out. As a result, the group which was supposed to produce a new relay entry is immediately terminated and a new group is selected to produce a new relay entry. All members of the group are punished by seizing minimum stake of their tokens. The submitter of the transaction is rewarded with a tattletale reward which is limited to min(1, 20 / group_size) of the maximum tattletale reward."
      },
      "reportUnauthorizedSigning(uint256,bytes)": {
        "notice": "Reports unauthorized signing for the provided group. Must provide a valid signature of the tattletale address as a message. Successful signature verification means the private key has been leaked and all group members should be punished by seizingtheir tokens. The submitter of this proof is rewarded with 5% of the total seized amount scaled by the reward adjustment parameter and the rest 95% is burned."
      },
      "selectedParticipants()": {
        "notice": "Gets selected participants in ascending order of their tickets."
      },
      "sign(uint256,bytes)": {
        "notice": "Creates a request to generate a new relay entry, which will include a random number (by signing the previous entry's random number)."
      },
      "submitDkgResult(uint256,bytes,bytes,bytes,uint256[])": {
        "notice": "Submits result of DKG protocol. It is on-chain part of phase 14 of the protocol."
      },
      "submitTicket(bytes32)": {
        "notice": "Submits ticket to request to participate in a new candidate group."
      },
      "submittedTickets()": {
        "notice": "Gets the submitted group candidate tickets so far."
      },
      "ticketSubmissionTimeout()": {
        "notice": "Gets the timeout in blocks after which group candidate ticket submission is finished."
      },
      "withdrawGroupMemberRewards(address,uint256)": {
        "notice": "Withdraws accumulated group member rewards for operator using the provided group index. Once the accumulated reward is withdrawn from the selected group, the operator is flagged as withdrawn. Rewards can be withdrawn only from stale group."
      }
    },
    "notice": "Keep client facing contract for random beacon security-critical operations. Handles group creation and expiration, BLS signature verification and incentives. The contract is not upgradeable. New functionality can be implemented by deploying new versions following Keep client update and re-authorization by the stakers."
  }
}