{
  "contractName": "Locks",
  "abi": [
    {
      "anonymous": false,
      "inputs": [
        {
          "indexed": true,
          "internalType": "address",
          "name": "operator",
          "type": "address"
        },
        {
          "indexed": false,
          "internalType": "address",
          "name": "lockCreator",
          "type": "address"
        }
      ],
      "name": "ExpiredLockReleased",
      "type": "event"
    },
    {
      "anonymous": false,
      "inputs": [
        {
          "indexed": true,
          "internalType": "address",
          "name": "operator",
          "type": "address"
        },
        {
          "indexed": false,
          "internalType": "address",
          "name": "lockCreator",
          "type": "address"
        }
      ],
      "name": "LockReleased",
      "type": "event"
    },
    {
      "anonymous": false,
      "inputs": [
        {
          "indexed": true,
          "internalType": "address",
          "name": "operator",
          "type": "address"
        },
        {
          "indexed": false,
          "internalType": "address",
          "name": "lockCreator",
          "type": "address"
        },
        {
          "indexed": false,
          "internalType": "uint256",
          "name": "until",
          "type": "uint256"
        }
      ],
      "name": "StakeLocked",
      "type": "event"
    },
    {
      "constant": true,
      "inputs": [],
      "name": "maximumLockDuration",
      "outputs": [
        {
          "internalType": "uint256",
          "name": "",
          "type": "uint256"
        }
      ],
      "payable": false,
      "stateMutability": "view",
      "type": "function"
    }
  ],
  "bytecode": "0x6114c5610026600b82828239805160001a60731461001957fe5b30600052607381538281f3fe73000000000000000000000000000000000000000030146080604052600436106100875760003560e01c80637b5e35e1116100655780637b5e35e1146102085780639ff3f125146102f3578063d4224f9a14610311578063f5d13cd01461039757610087565b8063075e89941461008c57806318bc8f01146100e757806361e1568614610182575b600080fd5b81801561009857600080fd5b506100e5600480360360408110156100af57600080fd5b8101908080359060200190929190803573ffffffffffffffffffffffffffffffffffffffff1690602001909291905050506103fc565b005b8180156100f357600080fd5b506101806004803603608081101561010a57600080fd5b8101908080359060200190929190803573ffffffffffffffffffffffffffffffffffffffff169060200190929190803573ffffffffffffffffffffffffffffffffffffffff169060200190929190803573ffffffffffffffffffffffffffffffffffffffff1690602001909291905050506104cd565b005b6101ee6004803603606081101561019857600080fd5b8101908080359060200190929190803573ffffffffffffffffffffffffffffffffffffffff169060200190929190803573ffffffffffffffffffffffffffffffffffffffff16906020019092919050505061078d565b604051808215151515815260200191505060405180910390f35b6102546004803603604081101561021e57600080fd5b8101908080359060200190929190803573ffffffffffffffffffffffffffffffffffffffff1690602001909291905050506109ab565b604051808060200180602001838103835285818151815260200191508051906020019060200280838360005b8381101561029b578082015181840152602081019050610280565b50505050905001838103825284818151815260200191508051906020019060200280838360005b838110156102dd5780820151818401526020810190506102c2565b5050505090500194505050505060405180910390f35b6102fb610bfb565b6040518082815260200191505060405180910390f35b61037d6004803603606081101561032757600080fd5b8101908080359060200190929190803573ffffffffffffffffffffffffffffffffffffffff169060200190929190803573ffffffffffffffffffffffffffffffffffffffff169060200190929190505050610c03565b604051808215151515815260200191505060405180910390f35b8180156103a357600080fd5b506103fa600480360360608110156103ba57600080fd5b8101908080359060200190929190803573ffffffffffffffffffffffffffffffffffffffff16906020019092919080359060200190929190505050610c77565b005b61044f338360000160008473ffffffffffffffffffffffffffffffffffffffff1673ffffffffffffffffffffffffffffffffffffffff168152602001908152602001600020610df190919063ffffffff16565b8073ffffffffffffffffffffffffffffffffffffffff167f9519d27283057289b75ef2605d6818602822861717fc48c918d37fe1fdc523f433604051808273ffffffffffffffffffffffffffffffffffffffff1673ffffffffffffffffffffffffffffffffffffffff16815260200191505060405180910390a25050565b60008460000160008573ffffffffffffffffffffffffffffffffffffffff1673ffffffffffffffffffffffffffffffffffffffff1681526020019081526020016000209050610525838261106790919063ffffffff16565b610597576040517f08c379a00000000000000000000000000000000000000000000000000000000081526004018080602001828103825260188152602001807f4e6f206d61746368696e67206c6f636b2070726573656e74000000000000000081525060200191505060405180910390fd5b60006105ac84836110b690919063ffffffff16565b6bffffffffffffffffffffffff16421015905060008373ffffffffffffffffffffffffffffffffffffffff166384d57689866040518263ffffffff1660e01b8152600401808273ffffffffffffffffffffffffffffffffffffffff1673ffffffffffffffffffffffffffffffffffffffff16815260200191505060206040518083038186803b15801561063e57600080fd5b505afa158015610652573d6000803e3d6000fd5b505050506040513d602081101561066857600080fd5b810190808051906020019092919050505015905081806106855750805b6106f7576040517f08c379a000000000000000000000000000000000000000000000000000000000815260040180806020018281038252601b8152602001807f4c6f636b207374696c6c2061637469766520616e642076616c6964000000000081525060200191505060405180910390fd5b61070a8584610df190919063ffffffff16565b8573ffffffffffffffffffffffffffffffffffffffff167f53232732101f51eae5873796ea83c72cecad5d155b851edfc11732b9dd4006f686604051808273ffffffffffffffffffffffffffffffffffffffff1673ffffffffffffffffffffffffffffffffffffffff16815260200191505060405180910390a250505050505050565b6000808460000160008573ffffffffffffffffffffffffffffffffffffffff1673ffffffffffffffffffffffffffffffffffffffff16815260200190815260200160002060000190506107de6113c1565b60008090505b828054905081101561099c578281815481106107fc57fe5b906000526020600020016040518060400160405290816000820160009054906101000a900473ffffffffffffffffffffffffffffffffffffffff1673ffffffffffffffffffffffffffffffffffffffff1673ffffffffffffffffffffffffffffffffffffffff1681526020016000820160149054906101000a90046bffffffffffffffffffffffff166bffffffffffffffffffffffff166bffffffffffffffffffffffff1681525050915081602001516bffffffffffffffffffffffff1642101561098f578473ffffffffffffffffffffffffffffffffffffffff166384d5768983600001516040518263ffffffff1660e01b8152600401808273ffffffffffffffffffffffffffffffffffffffff1673ffffffffffffffffffffffffffffffffffffffff16815260200191505060206040518083038186803b15801561094257600080fd5b505afa158015610956573d6000803e3d6000fd5b505050506040513d602081101561096c57600080fd5b81019080805190602001909291905050501561098e57600193505050506109a4565b5b80806001019150506107e4565b506000925050505b9392505050565b60608060008460000160008573ffffffffffffffffffffffffffffffffffffffff1673ffffffffffffffffffffffffffffffffffffffff16815260200190815260200160002060000180549050905080604051908082528060200260200182016040528015610a295781602001602082028038833980820191505090505b50925080604051908082528060200260200182016040528015610a5b5781602001602082028038833980820191505090505b509150610a666113c1565b60008090505b82811015610bf1578660000160008773ffffffffffffffffffffffffffffffffffffffff1673ffffffffffffffffffffffffffffffffffffffff1681526020019081526020016000206000018181548110610ac357fe5b906000526020600020016040518060400160405290816000820160009054906101000a900473ffffffffffffffffffffffffffffffffffffffff1673ffffffffffffffffffffffffffffffffffffffff1673ffffffffffffffffffffffffffffffffffffffff1681526020016000820160149054906101000a90046bffffffffffffffffffffffff166bffffffffffffffffffffffff166bffffffffffffffffffffffff168152505091508160000151858281518110610b7f57fe5b602002602001019073ffffffffffffffffffffffffffffffffffffffff16908173ffffffffffffffffffffffffffffffffffffffff168152505081602001516bffffffffffffffffffffffff16848281518110610bd857fe5b6020026020010181815250508080600101915050610a6c565b5050509250929050565b630107ac0081565b6000808460000160008573ffffffffffffffffffffffffffffffffffffffff1673ffffffffffffffffffffffffffffffffffffffff1681526020019081526020016000209050610c5c83826110b690919063ffffffff16565b6bffffffffffffffffffffffff164210159150509392505050565b630107ac00811115610cf1576040517f08c379a00000000000000000000000000000000000000000000000000000000081526004018080602001828103825260168152602001807f4c6f636b206475726174696f6e20746f6f206c6f6e670000000000000000000081525060200191505060405180910390fd5b610d5833610d08834261115290919063ffffffff16565b8560000160008673ffffffffffffffffffffffffffffffffffffffff1673ffffffffffffffffffffffffffffffffffffffff1681526020019081526020016000206111da9092919063ffffffff16565b8173ffffffffffffffffffffffffffffffffffffffff167f82358c8f3a8a41c7cae8a1196ae5106f7b58ce60eb38b7bc6fe3086d079d2a4e33610da4844261115290919063ffffffff16565b604051808373ffffffffffffffffffffffffffffffffffffffff1673ffffffffffffffffffffffffffffffffffffffff1681526020018281526020019250505060405180910390a2505050565b60008260010160008373ffffffffffffffffffffffffffffffffffffffff1673ffffffffffffffffffffffffffffffffffffffff168152602001908152602001600020549050600081146110625760008360000180549050905080821461100157610e5a6113c1565b846000016001830381548110610e6c57fe5b906000526020600020016040518060400160405290816000820160009054906101000a900473ffffffffffffffffffffffffffffffffffffffff1673ffffffffffffffffffffffffffffffffffffffff1673ffffffffffffffffffffffffffffffffffffffff1681526020016000820160149054906101000a90046bffffffffffffffffffffffff166bffffffffffffffffffffffff166bffffffffffffffffffffffff1681525050905080856000016001850381548110610f2a57fe5b9060005260206000200160008201518160000160006101000a81548173ffffffffffffffffffffffffffffffffffffffff021916908373ffffffffffffffffffffffffffffffffffffffff16021790555060208201518160000160146101000a8154816bffffffffffffffffffffffff02191690836bffffffffffffffffffffffff16021790555090505082856001016000836000015173ffffffffffffffffffffffffffffffffffffffff1673ffffffffffffffffffffffffffffffffffffffff16815260200190815260200160002081905550505b8360000180548091906001900361101891906113ff565b5060008460010160008573ffffffffffffffffffffffffffffffffffffffff1673ffffffffffffffffffffffffffffffffffffffff16815260200190815260200160002081905550505b505050565b6000808360010160008473ffffffffffffffffffffffffffffffffffffffff1673ffffffffffffffffffffffffffffffffffffffff168152602001908152602001600020541415905092915050565b6000808360010160008473ffffffffffffffffffffffffffffffffffffffff1673ffffffffffffffffffffffffffffffffffffffff168152602001908152602001600020549050600081141561111057600091505061114c565b83600001600182038154811061112257fe5b9060005260206000200160000160149054906101000a90046bffffffffffffffffffffffff169150505b92915050565b6000808284019050838110156111d0576040517f08c379a000000000000000000000000000000000000000000000000000000000815260040180806020018281038252601b8152602001807f536166654d6174683a206164646974696f6e206f766572666c6f77000000000081525060200191505060405180910390fd5b8091505092915050565b60008360010160008473ffffffffffffffffffffffffffffffffffffffff1673ffffffffffffffffffffffffffffffffffffffff1681526020019081526020016000205490506112286113c1565b60405180604001604052808573ffffffffffffffffffffffffffffffffffffffff168152602001846bffffffffffffffffffffffff168152509050600082141561136b57846000018190806001815401808255809150509060018203906000526020600020016000909192909190915060008201518160000160006101000a81548173ffffffffffffffffffffffffffffffffffffffff021916908373ffffffffffffffffffffffffffffffffffffffff16021790555060208201518160000160146101000a8154816bffffffffffffffffffffffff02191690836bffffffffffffffffffffffff16021790555050505084600001805490508560010160008673ffffffffffffffffffffffffffffffffffffffff1673ffffffffffffffffffffffffffffffffffffffff168152602001908152602001600020819055506113ba565b8285600001600184038154811061137e57fe5b9060005260206000200160000160146101000a8154816bffffffffffffffffffffffff02191690836bffffffffffffffffffffffff1602179055505b5050505050565b6040518060400160405280600073ffffffffffffffffffffffffffffffffffffffff16815260200160006bffffffffffffffffffffffff1681525090565b81548183558181111561142657818360005260206000209182019101611425919061142b565b5b505050565b61148d91905b8082111561148957600080820160006101000a81549073ffffffffffffffffffffffffffffffffffffffff02191690556000820160146101000a8154906bffffffffffffffffffffffff021916905550600101611431565b5090565b9056fea265627a7a723158209210e0bb5496a7721f641c5aa38fdccde331ec8412e5de8a3901e06da019da7b64736f6c63430005110032",
  "source": "pragma solidity 0.5.17;\n\nimport \"openzeppelin-solidity/contracts/math/SafeMath.sol\";\nimport { AuthorityVerifier } from \"../../Authorizations.sol\";\nimport \"./LockUtils.sol\";\n\nlibrary Locks {\n    using SafeMath for uint256;\n    using LockUtils for LockUtils.LockSet;\n\n    event StakeLocked(address indexed operator, address lockCreator, uint256 until);\n    event LockReleased(address indexed operator, address lockCreator);\n    event ExpiredLockReleased(address indexed operator, address lockCreator);\n\n    uint256 public constant maximumLockDuration = 86400 * 200; // 200 days in seconds\n\n    struct Storage {\n        // Locks placed on the operator.\n        // `operatorLocks[operator]` returns all locks placed on the operator.\n        // Each authorized operator contract can place one lock on an operator.\n        mapping(address => LockUtils.LockSet) operatorLocks;\n    }\n\n    function lockStake(\n        Storage storage self,\n        address operator,\n        uint256 duration\n    ) public {\n        require(duration <= maximumLockDuration, \"Lock duration too long\");\n        self.operatorLocks[operator].setLock(\n            msg.sender,\n            uint96(block.timestamp.add(duration))\n        );\n        emit StakeLocked(operator, msg.sender, block.timestamp.add(duration));\n    }\n\n    function releaseLock(\n        Storage storage self,\n        address operator\n    ) public {\n        self.operatorLocks[operator].releaseLock(msg.sender);\n        emit LockReleased(operator, msg.sender);\n    }\n\n    function releaseExpiredLock(\n        Storage storage self,\n        address operator,\n        address operatorContract,\n        address authorityVerifier\n    ) public {\n        LockUtils.LockSet storage locks = self.operatorLocks[operator];\n\n        require(\n            locks.contains(operatorContract),\n            \"No matching lock present\"\n        );\n\n        bool expired = block.timestamp >= locks.getLockTime(operatorContract);\n        bool disabled = !AuthorityVerifier(authorityVerifier)\n            .isApprovedOperatorContract(operatorContract);\n\n        require(\n            expired || disabled,\n            \"Lock still active and valid\"\n        );\n\n        locks.releaseLock(operatorContract);\n\n        emit ExpiredLockReleased(operator, operatorContract);\n    }\n\n    /// @dev AuthorityVerifier is a trusted implementation and not a third-party,\n    /// external contract. AuthorityVerifier never reverts on the check and\n    /// has a reasonable gas consumption.\n    function isStakeLocked(\n        Storage storage self,\n        address operator,\n        address authorityVerifier\n    ) public view returns (bool) {\n        LockUtils.Lock[] storage _locks = self.operatorLocks[operator].locks;\n        LockUtils.Lock memory lock;\n        for (uint i = 0; i < _locks.length; i++) {\n            lock = _locks[i];\n            if (block.timestamp < lock.expiresAt) {\n                if (\n                    AuthorityVerifier(authorityVerifier)\n                        .isApprovedOperatorContract(lock.creator)\n                ) {\n                    return true;\n                }\n            }\n        }\n        return false;\n    }\n\n    function isStakeReleased(\n        Storage storage self,\n        address operator,\n        address operatorContract\n    ) public view returns (bool) {\n        LockUtils.LockSet storage locks = self.operatorLocks[operator];\n        // `getLockTime` returns 0 if the lock doesn't exist,\n        // thus we don't need to check for its presence separately.\n        return block.timestamp >= locks.getLockTime(operatorContract);\n    }\n\n    function getLocks(\n        Storage storage self,\n        address operator\n    ) public view returns (address[] memory creators, uint256[] memory expirations) {\n        uint256 lockCount = self.operatorLocks[operator].locks.length;\n        creators = new address[](lockCount);\n        expirations = new uint256[](lockCount);\n        LockUtils.Lock memory lock;\n        for (uint i = 0; i < lockCount; i++) {\n            lock = self.operatorLocks[operator].locks[i];\n            creators[i] = lock.creator;\n            expirations[i] = lock.expiresAt;\n        }\n    }\n} \n",
  "sourcePath": "/Users/konrad/Desktop/rumble/fin/local-setup/keep-core/solidity/contracts/libraries/staking/Locks.sol",
  "compiler": {
    "name": "solc",
    "version": "0.5.17+commit.d19bba13.Emscripten.clang"
  },
  "schemaVersion": "3.3.3",
  "updatedAt": "2021-04-13T13:16:24.777Z",
  "networkType": "ethereum",
  "devdoc": {
    "methods": {
      "isStakeLocked(Locks.Storage storage,address,address)": {
        "details": "AuthorityVerifier is a trusted implementation and not a third-party, external contract. AuthorityVerifier never reverts on the check and has a reasonable gas consumption."
      }
    }
  },
  "userdoc": {
    "methods": {}
  }
}