{
  "contractName": "LockStub",
  "abi": [
    {
      "constant": true,
      "inputs": [
        {
          "internalType": "address",
          "name": "creator",
          "type": "address"
        }
      ],
      "name": "publicContains",
      "outputs": [
        {
          "internalType": "bool",
          "name": "",
          "type": "bool"
        }
      ],
      "payable": false,
      "stateMutability": "view",
      "type": "function"
    },
    {
      "constant": true,
      "inputs": [
        {
          "internalType": "address",
          "name": "creator",
          "type": "address"
        }
      ],
      "name": "publicGetLockTime",
      "outputs": [
        {
          "internalType": "uint256",
          "name": "",
          "type": "uint256"
        }
      ],
      "payable": false,
      "stateMutability": "view",
      "type": "function"
    },
    {
      "constant": false,
      "inputs": [
        {
          "internalType": "address",
          "name": "creator",
          "type": "address"
        },
        {
          "internalType": "uint256",
          "name": "expiresAt",
          "type": "uint256"
        }
      ],
      "name": "publicSetLock",
      "outputs": [],
      "payable": false,
      "stateMutability": "nonpayable",
      "type": "function"
    },
    {
      "constant": false,
      "inputs": [
        {
          "internalType": "address",
          "name": "creator",
          "type": "address"
        }
      ],
      "name": "publicReleaseLock",
      "outputs": [],
      "payable": false,
      "stateMutability": "nonpayable",
      "type": "function"
    },
    {
      "constant": true,
      "inputs": [],
      "name": "publicEnumerateCreators",
      "outputs": [
        {
          "internalType": "address[]",
          "name": "",
          "type": "address[]"
        }
      ],
      "payable": false,
      "stateMutability": "view",
      "type": "function"
    }
  ],
  "bytecode": "0x608060405234801561001057600080fd5b506109af806100206000396000f3fe608060405234801561001057600080fd5b50600436106100575760003560e01c8063189efe241461005c578063b0cfb1b2146100bb578063d0bb7c9314610109578063e022e77c1461014d578063f5310178146101a5575b600080fd5b610064610201565b6040518080602001828103825283818151815260200191508051906020019060200280838360005b838110156100a757808201518184015260208101905061008c565b505050509050019250505060405180910390f35b610107600480360360408110156100d157600080fd5b81019080803573ffffffffffffffffffffffffffffffffffffffff169060200190929190803590602001909291905050506102ea565b005b61014b6004803603602081101561011f57600080fd5b81019080803573ffffffffffffffffffffffffffffffffffffffff169060200190929190505050610304565b005b61018f6004803603602081101561016357600080fd5b81019080803573ffffffffffffffffffffffffffffffffffffffff16906020019092919050505061031b565b6040518082815260200191505060405180910390f35b6101e7600480360360208110156101bb57600080fd5b81019080803573ffffffffffffffffffffffffffffffffffffffff169060200190929190505050610346565b604051808215151515815260200191505060405180910390f35b606080600080018054905060405190808252806020026020018201604052801561023a5781602001602082028038833980820191505090505b50905060008090505b60008001805490508110156102e25760008001818154811061026157fe5b9060005260206000200160000160009054906101000a900473ffffffffffffffffffffffffffffffffffffffff1682828151811061029b57fe5b602002602001019073ffffffffffffffffffffffffffffffffffffffff16908173ffffffffffffffffffffffffffffffffffffffff16815250508080600101915050610243565b508091505090565b610300828260006103639092919063ffffffff16565b5050565b61031881600061054a90919063ffffffff16565b50565b60006103318260006107c090919063ffffffff16565b6bffffffffffffffffffffffff169050919050565b600061035c82600061085c90919063ffffffff16565b9050919050565b60008360010160008473ffffffffffffffffffffffffffffffffffffffff1673ffffffffffffffffffffffffffffffffffffffff1681526020019081526020016000205490506103b16108ab565b60405180604001604052808573ffffffffffffffffffffffffffffffffffffffff168152602001846bffffffffffffffffffffffff16815250905060008214156104f457846000018190806001815401808255809150509060018203906000526020600020016000909192909190915060008201518160000160006101000a81548173ffffffffffffffffffffffffffffffffffffffff021916908373ffffffffffffffffffffffffffffffffffffffff16021790555060208201518160000160146101000a8154816bffffffffffffffffffffffff02191690836bffffffffffffffffffffffff16021790555050505084600001805490508560010160008673ffffffffffffffffffffffffffffffffffffffff1673ffffffffffffffffffffffffffffffffffffffff16815260200190815260200160002081905550610543565b8285600001600184038154811061050757fe5b9060005260206000200160000160146101000a8154816bffffffffffffffffffffffff02191690836bffffffffffffffffffffffff1602179055505b5050505050565b60008260010160008373ffffffffffffffffffffffffffffffffffffffff1673ffffffffffffffffffffffffffffffffffffffff168152602001908152602001600020549050600081146107bb5760008360000180549050905080821461075a576105b36108ab565b8460000160018303815481106105c557fe5b906000526020600020016040518060400160405290816000820160009054906101000a900473ffffffffffffffffffffffffffffffffffffffff1673ffffffffffffffffffffffffffffffffffffffff1673ffffffffffffffffffffffffffffffffffffffff1681526020016000820160149054906101000a90046bffffffffffffffffffffffff166bffffffffffffffffffffffff166bffffffffffffffffffffffff168152505090508085600001600185038154811061068357fe5b9060005260206000200160008201518160000160006101000a81548173ffffffffffffffffffffffffffffffffffffffff021916908373ffffffffffffffffffffffffffffffffffffffff16021790555060208201518160000160146101000a8154816bffffffffffffffffffffffff02191690836bffffffffffffffffffffffff16021790555090505082856001016000836000015173ffffffffffffffffffffffffffffffffffffffff1673ffffffffffffffffffffffffffffffffffffffff16815260200190815260200160002081905550505b8360000180548091906001900361077191906108e9565b5060008460010160008573ffffffffffffffffffffffffffffffffffffffff1673ffffffffffffffffffffffffffffffffffffffff16815260200190815260200160002081905550505b505050565b6000808360010160008473ffffffffffffffffffffffffffffffffffffffff1673ffffffffffffffffffffffffffffffffffffffff168152602001908152602001600020549050600081141561081a576000915050610856565b83600001600182038154811061082c57fe5b9060005260206000200160000160149054906101000a90046bffffffffffffffffffffffff169150505b92915050565b6000808360010160008473ffffffffffffffffffffffffffffffffffffffff1673ffffffffffffffffffffffffffffffffffffffff168152602001908152602001600020541415905092915050565b6040518060400160405280600073ffffffffffffffffffffffffffffffffffffffff16815260200160006bffffffffffffffffffffffff1681525090565b8154818355818111156109105781836000526020600020918201910161090f9190610915565b5b505050565b61097791905b8082111561097357600080820160006101000a81549073ffffffffffffffffffffffffffffffffffffffff02191690556000820160146101000a8154906bffffffffffffffffffffffff02191690555060010161091b565b5090565b9056fea265627a7a723158200fe93753eaa26f01c02f36f737771427948a8fbadba3daa027039d482886136c64736f6c63430005110032",
  "source": "pragma solidity 0.5.17;\n\nimport \"../libraries/staking/LockUtils.sol\";\n\ncontract LockStub {\n    using LockUtils for LockUtils.LockSet;\n\n    LockUtils.LockSet _locks;\n\n    function publicContains(address creator) public view returns (bool) {\n        return _locks.contains(creator);\n    }\n\n    function publicGetLockTime(address creator) public view returns (uint256) {\n        return uint256(_locks.getLockTime(creator));\n    }\n\n    function publicSetLock(address creator, uint256 expiresAt) public {\n        _locks.setLock(creator, uint96(expiresAt));\n    }\n\n    function publicReleaseLock(address creator) public {\n        _locks.releaseLock(creator);\n    }\n\n    function publicEnumerateCreators() public view returns (address[] memory) {\n        address[] memory creators = new address[](_locks.locks.length);\n        for (uint256 i = 0; i < _locks.locks.length; i++) {\n            creators[i] = _locks.locks[i].creator;\n        }\n        return creators;\n    }\n}\n",
  "sourcePath": "/home/bless/keep-core/solidity/contracts/stubs/LockStub.sol",
  "compiler": {
    "name": "solc",
    "version": "0.5.17+commit.d19bba13.Emscripten.clang"
  },
  "schemaVersion": "3.3.3",
  "updatedAt": "2021-01-29T15:47:02.164Z",
  "devdoc": {
    "methods": {}
  },
  "userdoc": {
    "methods": {}
  }
}