{
  "contractName": "ManagedGrantFactory",
  "abi": [
    {
      "inputs": [
        {
          "internalType": "address",
          "name": "_tokenAddress",
          "type": "address"
        },
        {
          "internalType": "address",
          "name": "_tokenGrant",
          "type": "address"
        }
      ],
      "payable": false,
      "stateMutability": "nonpayable",
      "type": "constructor"
    },
    {
      "anonymous": false,
      "inputs": [
        {
          "indexed": false,
          "internalType": "address",
          "name": "grantAddress",
          "type": "address"
        },
        {
          "indexed": true,
          "internalType": "address",
          "name": "grantee",
          "type": "address"
        }
      ],
      "name": "ManagedGrantCreated",
      "type": "event"
    },
    {
      "constant": true,
      "inputs": [],
      "name": "token",
      "outputs": [
        {
          "internalType": "contract KeepToken",
          "name": "",
          "type": "address"
        }
      ],
      "payable": false,
      "stateMutability": "view",
      "type": "function"
    },
    {
      "constant": true,
      "inputs": [],
      "name": "tokenGrant",
      "outputs": [
        {
          "internalType": "contract TokenGrant",
          "name": "",
          "type": "address"
        }
      ],
      "payable": false,
      "stateMutability": "view",
      "type": "function"
    },
    {
      "constant": false,
      "inputs": [
        {
          "internalType": "address",
          "name": "_from",
          "type": "address"
        },
        {
          "internalType": "uint256",
          "name": "_amount",
          "type": "uint256"
        },
        {
          "internalType": "address",
          "name": "_token",
          "type": "address"
        },
        {
          "internalType": "bytes",
          "name": "_extraData",
          "type": "bytes"
        }
      ],
      "name": "receiveApproval",
      "outputs": [],
      "payable": false,
      "stateMutability": "nonpayable",
      "type": "function"
    },
    {
      "constant": false,
      "inputs": [
        {
          "internalType": "address",
          "name": "grantee",
          "type": "address"
        },
        {
          "internalType": "uint256",
          "name": "amount",
          "type": "uint256"
        },
        {
          "internalType": "uint256",
          "name": "duration",
          "type": "uint256"
        },
        {
          "internalType": "uint256",
          "name": "start",
          "type": "uint256"
        },
        {
          "internalType": "uint256",
          "name": "cliffDuration",
          "type": "uint256"
        },
        {
          "internalType": "bool",
          "name": "revocable",
          "type": "bool"
        },
        {
          "internalType": "address",
          "name": "policy",
          "type": "address"
        }
      ],
      "name": "createManagedGrant",
      "outputs": [
        {
          "internalType": "address",
          "name": "_managedGrant",
          "type": "address"
        }
      ],
      "payable": false,
      "stateMutability": "nonpayable",
      "type": "function"
    }
  ],
  "bytecode": "0x608060405234801561001057600080fd5b506040516133153803806133158339818101604052604081101561003357600080fd5b810190808051906020019092919080519060200190929190505050816000806101000a81548173ffffffffffffffffffffffffffffffffffffffff021916908373ffffffffffffffffffffffffffffffffffffffff16021790555080600160006101000a81548173ffffffffffffffffffffffffffffffffffffffff021916908373ffffffffffffffffffffffffffffffffffffffff1602179055505050613235806100e06000396000f3fe608060405234801561001057600080fd5b506004361061004c5760003560e01c8063319b84b7146100515780638f4ffcb114610129578063d92db09f1461022e578063fc0c546a14610278575b600080fd5b6100e7600480360360e081101561006757600080fd5b81019080803573ffffffffffffffffffffffffffffffffffffffff16906020019092919080359060200190929190803590602001909291908035906020019092919080359060200190929190803515159060200190929190803573ffffffffffffffffffffffffffffffffffffffff1690602001909291905050506102c2565b604051808273ffffffffffffffffffffffffffffffffffffffff1673ffffffffffffffffffffffffffffffffffffffff16815260200191505060405180910390f35b61022c6004803603608081101561013f57600080fd5b81019080803573ffffffffffffffffffffffffffffffffffffffff16906020019092919080359060200190929190803573ffffffffffffffffffffffffffffffffffffffff169060200190929190803590602001906401000000008111156101a657600080fd5b8201836020820111156101b857600080fd5b803590602001918460018302840111640100000000831117156101da57600080fd5b91908080601f016020809104026020016040519081016040528093929190818152602001838380828437600081840152601f19601f820116905080830192505050505050509192919290505050610363565b005b610236610531565b604051808273ffffffffffffffffffffffffffffffffffffffff1673ffffffffffffffffffffffffffffffffffffffff16815260200191505060405180910390f35b610280610557565b604051808273ffffffffffffffffffffffffffffffffffffffff1673ffffffffffffffffffffffffffffffffffffffff16815260200191505060405180910390f35b60006102cc610f68565b6040518061010001604052803373ffffffffffffffffffffffffffffffffffffffff1681526020018a73ffffffffffffffffffffffffffffffffffffffff16815260200189815260200188815260200187815260200186815260200185151581526020018473ffffffffffffffffffffffffffffffffffffffff1681525090506103558161057c565b915050979650505050505050565b6000809054906101000a900473ffffffffffffffffffffffffffffffffffffffff1673ffffffffffffffffffffffffffffffffffffffff168273ffffffffffffffffffffffffffffffffffffffff1614610425576040517f08c379a00000000000000000000000000000000000000000000000000000000081526004018080602001828103825260168152602001807f496e76616c696420746f6b656e20636f6e74726163740000000000000000000081525060200191505060405180910390fd5b6000806000806000808680602001905160c081101561044357600080fd5b8101908080519060200190929190805190602001909291908051906020019092919080519060200190929190805190602001909291908051906020019092919050505095509550955095509550955061049a610f68565b6040518061010001604052808c73ffffffffffffffffffffffffffffffffffffffff1681526020018873ffffffffffffffffffffffffffffffffffffffff1681526020018b815260200187815260200186815260200185815260200184151581526020018373ffffffffffffffffffffffffffffffffffffffff1681525090506105238161057c565b505050505050505050505050565b600160009054906101000a900473ffffffffffffffffffffffffffffffffffffffff1681565b6000809054906101000a900473ffffffffffffffffffffffffffffffffffffffff1681565b60008073ffffffffffffffffffffffffffffffffffffffff16826020015173ffffffffffffffffffffffffffffffffffffffff161415610624576040517f08c379a000000000000000000000000000000000000000000000000000000000815260040180806020018281038252601e8152602001807f4772616e74656520616464726573732063616e2774206265207a65726f2e000081525060200191505060405180910390fd5b81606001518260a001511115610685576040517f08c379a00000000000000000000000000000000000000000000000000000000081526004018080602001828103825260488152602001806131b96048913960600191505060405180910390fd5b6106db82600001513084604001516000809054906101000a900473ffffffffffffffffffffffffffffffffffffffff1673ffffffffffffffffffffffffffffffffffffffff16610bcc909392919063ffffffff16565b6000600160009054906101000a900473ffffffffffffffffffffffffffffffffffffffff1673ffffffffffffffffffffffffffffffffffffffff1663f81a64636040518163ffffffff1660e01b815260040160206040518083038186803b15801561074557600080fd5b505afa158015610759573d6000803e3d6000fd5b505050506040513d602081101561076f57600080fd5b8101908080519060200190929190505050905060008060009054906101000a900473ffffffffffffffffffffffffffffffffffffffff16600160009054906101000a900473ffffffffffffffffffffffffffffffffffffffff1685600001518487602001516040516107e090610ff1565b808673ffffffffffffffffffffffffffffffffffffffff1673ffffffffffffffffffffffffffffffffffffffff1681526020018573ffffffffffffffffffffffffffffffffffffffff1673ffffffffffffffffffffffffffffffffffffffff1681526020018473ffffffffffffffffffffffffffffffffffffffff1673ffffffffffffffffffffffffffffffffffffffff1681526020018381526020018273ffffffffffffffffffffffffffffffffffffffff1673ffffffffffffffffffffffffffffffffffffffff16815260200195505050505050604051809103906000f0801580156108d2573d6000803e3d6000fd5b5090508092506060846000015184866060015187608001518860a001518960c001518a60e00151604051602001808873ffffffffffffffffffffffffffffffffffffffff1673ffffffffffffffffffffffffffffffffffffffff1681526020018773ffffffffffffffffffffffffffffffffffffffff1673ffffffffffffffffffffffffffffffffffffffff168152602001868152602001858152602001848152602001831515151581526020018273ffffffffffffffffffffffffffffffffffffffff1673ffffffffffffffffffffffffffffffffffffffff16815260200197505050505050505060405160208183030381529060405290506000809054906101000a900473ffffffffffffffffffffffffffffffffffffffff1673ffffffffffffffffffffffffffffffffffffffff1663cae9ca51600160009054906101000a900473ffffffffffffffffffffffffffffffffffffffff168760400151846040518463ffffffff1660e01b8152600401808473ffffffffffffffffffffffffffffffffffffffff1673ffffffffffffffffffffffffffffffffffffffff16815260200183815260200180602001828103825283818151815260200191508051906020019080838360005b83811015610ab9578082015181840152602081019050610a9e565b50505050905090810190601f168015610ae65780820380516001836020036101000a031916815260200191505b50945050505050602060405180830381600087803b158015610b0757600080fd5b505af1158015610b1b573d6000803e3d6000fd5b505050506040513d6020811015610b3157600080fd5b810190808051906020019092919050505050846020015173ffffffffffffffffffffffffffffffffffffffff167fd670b8855e91e4ed32e465e934368080baed18d1aba14c28902bc9b934f3368a85604051808273ffffffffffffffffffffffffffffffffffffffff1673ffffffffffffffffffffffffffffffffffffffff16815260200191505060405180910390a2839350505050919050565b610ccc848573ffffffffffffffffffffffffffffffffffffffff166323b872dd905060e01b858585604051602401808473ffffffffffffffffffffffffffffffffffffffff1673ffffffffffffffffffffffffffffffffffffffff1681526020018373ffffffffffffffffffffffffffffffffffffffff1673ffffffffffffffffffffffffffffffffffffffff1681526020018281526020019350505050604051602081830303815290604052907bffffffffffffffffffffffffffffffffffffffffffffffffffffffff19166020820180517bffffffffffffffffffffffffffffffffffffffffffffffffffffffff8381831617835250505050610cd2565b50505050565b610cf18273ffffffffffffffffffffffffffffffffffffffff16610f1d565b610d63576040517f08c379a000000000000000000000000000000000000000000000000000000000815260040180806020018281038252601f8152602001807f5361666545524332303a2063616c6c20746f206e6f6e2d636f6e74726163740081525060200191505060405180910390fd5b600060608373ffffffffffffffffffffffffffffffffffffffff16836040518082805190602001908083835b60208310610db25780518252602082019150602081019050602083039250610d8f565b6001836020036101000a0380198251168184511680821785525050505050509050019150506000604051808303816000865af19150503d8060008114610e14576040519150601f19603f3d011682016040523d82523d6000602084013e610e19565b606091505b509150915081610e91576040517f08c379a00000000000000000000000000000000000000000000000000000000081526004018080602001828103825260208152602001807f5361666545524332303a206c6f772d6c6576656c2063616c6c206661696c656481525060200191505060405180910390fd5b600081511115610f1757808060200190516020811015610eb057600080fd5b8101908080519060200190929190505050610f16576040517f08c379a000000000000000000000000000000000000000000000000000000000815260040180806020018281038252602a81526020018061318f602a913960400191505060405180910390fd5b5b50505050565b60008060007fc5d2460186f7233c927e7db2dcc703c0e500b653ca82273b7bfad8045d85a47060001b9050833f91506000801b8214158015610f5f5750808214155b92505050919050565b604051806101000160405280600073ffffffffffffffffffffffffffffffffffffffff168152602001600073ffffffffffffffffffffffffffffffffffffffff16815260200160008152602001600081526020016000815260200160008152602001600015158152602001600073ffffffffffffffffffffffffffffffffffffffff1681525090565b61219080610fff8339019056fe608060405234801561001057600080fd5b50604051612190380380612190833981810160405260a081101561003357600080fd5b810190808051906020019092919080519060200190929190805190602001909291908051906020019092919080519060200190929190505050846000806101000a81548173ffffffffffffffffffffffffffffffffffffffff021916908373ffffffffffffffffffffffffffffffffffffffff16021790555083600160006101000a81548173ffffffffffffffffffffffffffffffffffffffff021916908373ffffffffffffffffffffffffffffffffffffffff16021790555082600260006101000a81548173ffffffffffffffffffffffffffffffffffffffff021916908373ffffffffffffffffffffffffffffffffffffffff1602179055508160038190555080600460006101000a81548173ffffffffffffffffffffffffffffffffffffffff021916908373ffffffffffffffffffffffffffffffffffffffff16021790555050505050506120068061018a6000396000f3fe608060405234801561001057600080fd5b50600436106100f55760003560e01c80636254d76c11610097578063da8be86411610066578063da8be8641461042b578063e064172e1461046f578063f30c0e08146104b3578063fc0c546a146104d1576100f5565b80636254d76c1461030f5780638669c08314610353578063d5f5207614610397578063d92db09f146103e1576100f5565b80633e12170f116100d35780633e12170f14610158578063525835f91461023d578063545c156b146102815780635bd8c8e6146102cb576100f5565b80630af8d820146100fa578063289f51b1146101045780633ccfd60b1461014e575b600080fd5b61010261051b565b005b61010c610755565b604051808273ffffffffffffffffffffffffffffffffffffffff1673ffffffffffffffffffffffffffffffffffffffff16815260200191505060405180910390f35b61015661077b565b005b61023b6004803603606081101561016e57600080fd5b81019080803573ffffffffffffffffffffffffffffffffffffffff16906020019092919080359060200190929190803590602001906401000000008111156101b557600080fd5b8201836020820111156101c757600080fd5b803590602001918460018302840111640100000000831117156101e957600080fd5b91908080601f016020809104026020016040519081016040528093929190818152602001838380828437600081840152601f19601f820116905080830192505050505050509192919290505050610b32565b005b61027f6004803603602081101561025357600080fd5b81019080803573ffffffffffffffffffffffffffffffffffffffff169060200190929190505050610d15565b005b610289610dd1565b604051808273ffffffffffffffffffffffffffffffffffffffff1673ffffffffffffffffffffffffffffffffffffffff16815260200191505060405180910390f35b61030d600480360360208110156102e157600080fd5b81019080803573ffffffffffffffffffffffffffffffffffffffff169060200190929190505050610df7565b005b6103516004803603602081101561032557600080fd5b81019080803573ffffffffffffffffffffffffffffffffffffffff169060200190929190505050610fd0565b005b6103956004803603602081101561036957600080fd5b81019080803573ffffffffffffffffffffffffffffffffffffffff169060200190929190505050611365565b005b61039f61163d565b604051808273ffffffffffffffffffffffffffffffffffffffff1673ffffffffffffffffffffffffffffffffffffffff16815260200191505060405180910390f35b6103e9611663565b604051808273ffffffffffffffffffffffffffffffffffffffff1673ffffffffffffffffffffffffffffffffffffffff16815260200191505060405180910390f35b61046d6004803603602081101561044157600080fd5b81019080803573ffffffffffffffffffffffffffffffffffffffff169060200190929190505050611689565b005b6104b16004803603602081101561048557600080fd5b81019080803573ffffffffffffffffffffffffffffffffffffffff169060200190929190505050611823565b005b6104bb6119bd565b6040518082815260200191505060405180910390f35b6104d96119c3565b604051808273ffffffffffffffffffffffffffffffffffffffff1673ffffffffffffffffffffffffffffffffffffffff16815260200191505060405180910390f35b600460009054906101000a900473ffffffffffffffffffffffffffffffffffffffff1673ffffffffffffffffffffffffffffffffffffffff163373ffffffffffffffffffffffffffffffffffffffff16146105c1576040517f08c379a0000000000000000000000000000000000000000000000000000000008152600401808060200182810382526024815260200180611f546024913960400191505060405180910390fd5b600073ffffffffffffffffffffffffffffffffffffffff16600560009054906101000a900473ffffffffffffffffffffffffffffffffffffffff1673ffffffffffffffffffffffffffffffffffffffff161415610686576040517f08c379a00000000000000000000000000000000000000000000000000000000081526004018080602001828103825260198152602001807f4e6f20726561737369676e6d656e74207265717565737465640000000000000081525060200191505060405180910390fd5b6000600560009054906101000a900473ffffffffffffffffffffffffffffffffffffffff1690506000600560006101000a81548173ffffffffffffffffffffffffffffffffffffffff021916908373ffffffffffffffffffffffffffffffffffffffff1602179055507f079bdabd0be4cb9ac4abae5f8236a5ffa1e3b2cb8292e13683586aa56e5bdcaa81604051808273ffffffffffffffffffffffffffffffffffffffff1673ffffffffffffffffffffffffffffffffffffffff16815260200191505060405180910390a150565b600560009054906101000a900473ffffffffffffffffffffffffffffffffffffffff1681565b600460009054906101000a900473ffffffffffffffffffffffffffffffffffffffff1673ffffffffffffffffffffffffffffffffffffffff163373ffffffffffffffffffffffffffffffffffffffff1614610821576040517f08c379a0000000000000000000000000000000000000000000000000000000008152600401808060200182810382526024815260200180611f546024913960400191505060405180910390fd5b600073ffffffffffffffffffffffffffffffffffffffff16600560009054906101000a900473ffffffffffffffffffffffffffffffffffffffff1673ffffffffffffffffffffffffffffffffffffffff16146108c8576040517f08c379a000000000000000000000000000000000000000000000000000000000815260040180806020018281038252602a815260200180611f07602a913960400191505060405180910390fd5b600160009054906101000a900473ffffffffffffffffffffffffffffffffffffffff1673ffffffffffffffffffffffffffffffffffffffff16632e1a7d4d6003546040518263ffffffff1660e01b815260040180828152602001915050600060405180830381600087803b15801561093f57600080fd5b505af1158015610953573d6000803e3d6000fd5b5050505060008060009054906101000a900473ffffffffffffffffffffffffffffffffffffffff1673ffffffffffffffffffffffffffffffffffffffff166370a08231306040518263ffffffff1660e01b8152600401808273ffffffffffffffffffffffffffffffffffffffff1673ffffffffffffffffffffffffffffffffffffffff16815260200191505060206040518083038186803b1580156109f757600080fd5b505afa158015610a0b573d6000803e3d6000fd5b505050506040513d6020811015610a2157600080fd5b81019080805190602001909291905050509050610aa2600460009054906101000a900473ffffffffffffffffffffffffffffffffffffffff16826000809054906101000a900473ffffffffffffffffffffffffffffffffffffffff1673ffffffffffffffffffffffffffffffffffffffff166119e89092919063ffffffff16565b7f6352c5382c4a4578e712449ca65e83cdb392d045dfcf1cad9615189db2da244b600460009054906101000a900473ffffffffffffffffffffffffffffffffffffffff1682604051808373ffffffffffffffffffffffffffffffffffffffff1673ffffffffffffffffffffffffffffffffffffffff1681526020018281526020019250505060405180910390a150565b600460009054906101000a900473ffffffffffffffffffffffffffffffffffffffff1673ffffffffffffffffffffffffffffffffffffffff163373ffffffffffffffffffffffffffffffffffffffff1614610bd8576040517f08c379a0000000000000000000000000000000000000000000000000000000008152600401808060200182810382526024815260200180611f546024913960400191505060405180910390fd5b600160009054906101000a900473ffffffffffffffffffffffffffffffffffffffff1673ffffffffffffffffffffffffffffffffffffffff16635860280c6003548585856040518563ffffffff1660e01b8152600401808581526020018473ffffffffffffffffffffffffffffffffffffffff1673ffffffffffffffffffffffffffffffffffffffff16815260200183815260200180602001828103825283818151815260200191508051906020019080838360005b83811015610ca9578082015181840152602081019050610c8e565b50505050905090810190601f168015610cd65780820380516001836020036101000a031916815260200191505b5095505050505050600060405180830381600087803b158015610cf857600080fd5b505af1158015610d0c573d6000803e3d6000fd5b50505050505050565b600160009054906101000a900473ffffffffffffffffffffffffffffffffffffffff1673ffffffffffffffffffffffffffffffffffffffff1663525835f9826040518263ffffffff1660e01b8152600401808273ffffffffffffffffffffffffffffffffffffffff1673ffffffffffffffffffffffffffffffffffffffff168152602001915050600060405180830381600087803b158015610db657600080fd5b505af1158015610dca573d6000803e3d6000fd5b5050505050565b600260009054906101000a900473ffffffffffffffffffffffffffffffffffffffff1681565b600460009054906101000a900473ffffffffffffffffffffffffffffffffffffffff1673ffffffffffffffffffffffffffffffffffffffff163373ffffffffffffffffffffffffffffffffffffffff1614610e9d576040517f08c379a0000000000000000000000000000000000000000000000000000000008152600401808060200182810382526024815260200180611f546024913960400191505060405180910390fd5b600073ffffffffffffffffffffffffffffffffffffffff16600560009054906101000a900473ffffffffffffffffffffffffffffffffffffffff1673ffffffffffffffffffffffffffffffffffffffff1614610f61576040517f08c379a000000000000000000000000000000000000000000000000000000000815260040180806020018281038252601e8152602001807f526561737369676e6d656e7420616c726561647920726571756573746564000081525060200191505060405180910390fd5b610f6a81611ab9565b7fafd45caea5ec652705350c2ba80247df0fa5dfadf447277da0f21465a74d8fe081604051808273ffffffffffffffffffffffffffffffffffffffff1673ffffffffffffffffffffffffffffffffffffffff16815260200191505060405180910390a150565b600260009054906101000a900473ffffffffffffffffffffffffffffffffffffffff1673ffffffffffffffffffffffffffffffffffffffff163373ffffffffffffffffffffffffffffffffffffffff1614611076576040517f08c379a0000000000000000000000000000000000000000000000000000000008152600401808060200182810382526029815260200180611ede6029913960400191505060405180910390fd5b600073ffffffffffffffffffffffffffffffffffffffff16600560009054906101000a900473ffffffffffffffffffffffffffffffffffffffff1673ffffffffffffffffffffffffffffffffffffffff16141561113b576040517f08c379a00000000000000000000000000000000000000000000000000000000081526004018080602001828103825260198152602001807f4e6f20726561737369676e6d656e74207265717565737465640000000000000081525060200191505060405180910390fd5b6000600460009054906101000a900473ffffffffffffffffffffffffffffffffffffffff1690508173ffffffffffffffffffffffffffffffffffffffff16600560009054906101000a900473ffffffffffffffffffffffffffffffffffffffff1673ffffffffffffffffffffffffffffffffffffffff1614611225576040517f08c379a000000000000000000000000000000000000000000000000000000000815260040180806020018281038252601d8152602001807f526561737369676e6d656e742061646472657373206d69736d6174636800000081525060200191505060405180910390fd5b600560009054906101000a900473ffffffffffffffffffffffffffffffffffffffff16600460006101000a81548173ffffffffffffffffffffffffffffffffffffffff021916908373ffffffffffffffffffffffffffffffffffffffff1602179055506000600560006101000a81548173ffffffffffffffffffffffffffffffffffffffff021916908373ffffffffffffffffffffffffffffffffffffffff1602179055507fc859af038814fe1f4f2cd57c83de6406ddb0cd2dd3c2294f5995244f3f012c598183604051808373ffffffffffffffffffffffffffffffffffffffff1673ffffffffffffffffffffffffffffffffffffffff1681526020018273ffffffffffffffffffffffffffffffffffffffff1673ffffffffffffffffffffffffffffffffffffffff1681526020019250505060405180910390a15050565b600460009054906101000a900473ffffffffffffffffffffffffffffffffffffffff1673ffffffffffffffffffffffffffffffffffffffff163373ffffffffffffffffffffffffffffffffffffffff161461140b576040517f08c379a0000000000000000000000000000000000000000000000000000000008152600401808060200182810382526024815260200180611f546024913960400191505060405180910390fd5b600073ffffffffffffffffffffffffffffffffffffffff16600560009054906101000a900473ffffffffffffffffffffffffffffffffffffffff1673ffffffffffffffffffffffffffffffffffffffff1614156114d0576040517f08c379a00000000000000000000000000000000000000000000000000000000081526004018080602001828103825260198152602001807f4e6f20726561737369676e6d656e74207265717565737465640000000000000081525060200191505060405180910390fd5b6000600560009054906101000a900473ffffffffffffffffffffffffffffffffffffffff1690508173ffffffffffffffffffffffffffffffffffffffff168173ffffffffffffffffffffffffffffffffffffffff161415611599576040517f08c379a000000000000000000000000000000000000000000000000000000000815260040180806020018281038252601e8152602001807f556e6368616e67656420726561737369676e6d656e742072657175657374000081525060200191505060405180910390fd5b6115a282611ab9565b7f609d93008f7d94dde9255b321cebd574e91bce227f60c61dc2162004af43892c8183604051808373ffffffffffffffffffffffffffffffffffffffff1673ffffffffffffffffffffffffffffffffffffffff1681526020018273ffffffffffffffffffffffffffffffffffffffff1673ffffffffffffffffffffffffffffffffffffffff1681526020019250505060405180910390a15050565b600460009054906101000a900473ffffffffffffffffffffffffffffffffffffffff1681565b600160009054906101000a900473ffffffffffffffffffffffffffffffffffffffff1681565b80600460009054906101000a900473ffffffffffffffffffffffffffffffffffffffff1673ffffffffffffffffffffffffffffffffffffffff163373ffffffffffffffffffffffffffffffffffffffff16148061171157508073ffffffffffffffffffffffffffffffffffffffff163373ffffffffffffffffffffffffffffffffffffffff16145b611766576040517f08c379a0000000000000000000000000000000000000000000000000000000008152600401808060200182810382526030815260200180611f786030913960400191505060405180910390fd5b600160009054906101000a900473ffffffffffffffffffffffffffffffffffffffff1673ffffffffffffffffffffffffffffffffffffffff1663da8be864836040518263ffffffff1660e01b8152600401808273ffffffffffffffffffffffffffffffffffffffff1673ffffffffffffffffffffffffffffffffffffffff168152602001915050600060405180830381600087803b15801561180757600080fd5b505af115801561181b573d6000803e3d6000fd5b505050505050565b80600460009054906101000a900473ffffffffffffffffffffffffffffffffffffffff1673ffffffffffffffffffffffffffffffffffffffff163373ffffffffffffffffffffffffffffffffffffffff1614806118ab57508073ffffffffffffffffffffffffffffffffffffffff163373ffffffffffffffffffffffffffffffffffffffff16145b611900576040517f08c379a0000000000000000000000000000000000000000000000000000000008152600401808060200182810382526030815260200180611f786030913960400191505060405180910390fd5b600160009054906101000a900473ffffffffffffffffffffffffffffffffffffffff1673ffffffffffffffffffffffffffffffffffffffff1663e064172e836040518263ffffffff1660e01b8152600401808273ffffffffffffffffffffffffffffffffffffffff1673ffffffffffffffffffffffffffffffffffffffff168152602001915050600060405180830381600087803b1580156119a157600080fd5b505af11580156119b5573d6000803e3d6000fd5b505050505050565b60035481565b6000809054906101000a900473ffffffffffffffffffffffffffffffffffffffff1681565b611ab4838473ffffffffffffffffffffffffffffffffffffffff1663a9059cbb905060e01b8484604051602401808373ffffffffffffffffffffffffffffffffffffffff1673ffffffffffffffffffffffffffffffffffffffff16815260200182815260200192505050604051602081830303815290604052907bffffffffffffffffffffffffffffffffffffffffffffffffffffffff19166020820180517bffffffffffffffffffffffffffffffffffffffffffffffffffffffff8381831617835250505050611c47565b505050565b600073ffffffffffffffffffffffffffffffffffffffff168173ffffffffffffffffffffffffffffffffffffffff161415611b5c576040517f08c379a000000000000000000000000000000000000000000000000000000000815260040180806020018281038252601b8152602001807f496e76616c6964206e6577206772616e7465652061646472657373000000000081525060200191505060405180910390fd5b600460009054906101000a900473ffffffffffffffffffffffffffffffffffffffff1673ffffffffffffffffffffffffffffffffffffffff168173ffffffffffffffffffffffffffffffffffffffff161415611c03576040517f08c379a0000000000000000000000000000000000000000000000000000000008152600401808060200182810382526023815260200180611f316023913960400191505060405180910390fd5b80600560006101000a81548173ffffffffffffffffffffffffffffffffffffffff021916908373ffffffffffffffffffffffffffffffffffffffff16021790555050565b611c668273ffffffffffffffffffffffffffffffffffffffff16611e92565b611cd8576040517f08c379a000000000000000000000000000000000000000000000000000000000815260040180806020018281038252601f8152602001807f5361666545524332303a2063616c6c20746f206e6f6e2d636f6e74726163740081525060200191505060405180910390fd5b600060608373ffffffffffffffffffffffffffffffffffffffff16836040518082805190602001908083835b60208310611d275780518252602082019150602081019050602083039250611d04565b6001836020036101000a0380198251168184511680821785525050505050509050019150506000604051808303816000865af19150503d8060008114611d89576040519150601f19603f3d011682016040523d82523d6000602084013e611d8e565b606091505b509150915081611e06576040517f08c379a00000000000000000000000000000000000000000000000000000000081526004018080602001828103825260208152602001807f5361666545524332303a206c6f772d6c6576656c2063616c6c206661696c656481525060200191505060405180910390fd5b600081511115611e8c57808060200190516020811015611e2557600080fd5b8101908080519060200190929190505050611e8b576040517f08c379a000000000000000000000000000000000000000000000000000000000815260040180806020018281038252602a815260200180611fa8602a913960400191505060405180910390fd5b5b50505050565b60008060007fc5d2460186f7233c927e7db2dcc703c0e500b653ca82273b7bfad8045d85a47060001b9050833f91506000801b8214158015611ed45750808214155b9250505091905056fe4f6e6c79206772616e744d616e61676572206d617920706572666f726d207468697320616374696f6e43616e206e6f7420776974686472617720776974682070656e64696e6720726561737369676e6d656e744e6577206772616e7465652073616d652061732063757272656e74206772616e7465654f6e6c79206772616e746565206d617920706572666f726d207468697320616374696f6e4f6e6c79206772616e746565206f72206f70657261746f72206d617920706572666f726d207468697320616374696f6e5361666545524332303a204552433230206f7065726174696f6e20646964206e6f742073756363656564a265627a7a723158200b851743ddecff2430ba9fcc3ce8517c477f1ae967a6e1c764567981fc5647fc64736f6c634300051100325361666545524332303a204552433230206f7065726174696f6e20646964206e6f742073756363656564556e6c6f636b696e6720636c696666206475726174696f6e206d757374206265206c657373206f7220657175616c20746f74616c20756e6c6f636b696e67206475726174696f6e2ea265627a7a72315820abaa69d6f6c4f61d1af9ac78b76878213537804e1da82b809cff5fc9431868a364736f6c63430005110032",
  "source": "pragma solidity ^0.5.4;\n\nimport \"openzeppelin-solidity/contracts/token/ERC20/SafeERC20.sol\";\n\nimport \"./utils/BytesLib.sol\";\n\nimport \"./KeepToken.sol\";\nimport \"./ManagedGrant.sol\";\nimport \"./TokenGrant.sol\";\nimport \"./GrantStakingPolicy.sol\";\n\n/// @title ManagedGrantFactory\n/// @notice Creates managed grants that permit grantee reassignment\n/// and use pre-defined staking policies.\ncontract ManagedGrantFactory {\n    using SafeERC20 for KeepToken;\n    using BytesLib for bytes;\n    using BytesLib for address;\n\n    KeepToken public token;\n    TokenGrant public tokenGrant;\n\n    struct Params {\n        address grantCreator;\n        address grantee;\n        uint256 amount;\n        uint256 duration;\n        uint256 start;\n        uint256 cliffDuration;\n        bool revocable;\n        address policy;\n    }\n\n    event ManagedGrantCreated(\n        address grantAddress,\n        address indexed grantee\n    );\n\n    constructor(\n        address _tokenAddress,\n        address _tokenGrant\n    ) public {\n        token = KeepToken(_tokenAddress);\n        tokenGrant = TokenGrant(_tokenGrant);\n    }\n\n    /// @notice Create a managed grant\n    /// with the parameters specified in `_extraData`.\n    /// @dev Requires no setup beforehand,\n    /// but only provides the managed grant address through an event.\n    /// The sender of the tokens is assigned as the grant manager.\n    /// @param _from The owner of the tokens who approved them to transfer.\n    /// @param _amount Approved amount for the transfer to create the grant.\n    /// @param _token Address of the token contract;\n    /// must match the token specified when the factory was created.\n    /// @param _extraData The following values encoded with `abi.encode`:\n    /// grantee (address) Address of the grantee.\n    /// duration (uint256) Duration in seconds of the unlocking period.\n    /// start (uint256) Timestamp at which unlocking will start.\n    /// cliffDuration (uint256) Duration in seconds of the cliff before which no tokens will unlock.\n    /// revocable (bool) Whether the token grant is revocable or not.\n    /// policy (address) Address of the staking policy to be used.\n    function receiveApproval(\n        address _from,\n        uint256 _amount,\n        address _token,\n        bytes memory _extraData\n    ) public {\n        require(KeepToken(_token) == token, \"Invalid token contract\");\n        (address _grantee,\n         uint256 _duration,\n         uint256 _start,\n         uint256 _cliffDuration,\n         bool _revocable,\n         address _policy) = abi.decode(\n             _extraData,\n             (address, uint256, uint256, uint256, bool, address)\n        );\n        Params memory params = Params(\n            _from,\n            _grantee,\n            _amount,\n            _duration,\n            _start,\n            _cliffDuration,\n            _revocable,\n            _policy\n        );\n        _createGrant(params);\n    }\n\n    /// @notice Create a managed grant with the given parameters.\n    /// @dev At least `amount` tokens to be approved for the factory beforehand.\n    /// The grant will use the staking policy specified for its type\n    /// (revocable or non-revocable)\n    /// when the factory was created.\n    /// The msg.sender is assigned as the grant manager.\n    /// @param grantee The initial grantee.\n    /// @param amount The number of tokens to grant.\n    /// @param duration Duration in seconds of the unlocking period.\n    /// @param start Timestamp at which unlocking will start.\n    /// @param cliffDuration Duration in seconds of the cliff before which no tokens will unlock.\n    /// @param revocable Whether the token grant is revocable or not.\n    /// @param policy Address of the staking policy to be used.\n    /// @return The address of the managed grant.\n    function createManagedGrant(\n        address grantee,\n        uint256 amount,\n        uint256 duration,\n        uint256 start,\n        uint256 cliffDuration,\n        bool revocable,\n        address policy\n    ) public returns (address _managedGrant) {\n        Params memory params = Params(\n            msg.sender,\n            grantee,\n            amount,\n            duration,\n            start,\n            cliffDuration,\n            revocable,\n            policy\n        );\n        return _createGrant(params);\n    }\n\n    function _createGrant(\n        Params memory params\n    ) internal returns (address _managedGrant) {\n        require(params.grantee != address(0), \"Grantee address can't be zero.\");\n        require(\n            params.cliffDuration <= params.duration,\n            \"Unlocking cliff duration must be less or equal total unlocking duration.\"\n        );\n\n        token.safeTransferFrom(params.grantCreator, address(this), params.amount);\n\n        // Grant ID is predictable in advance\n        uint256 grantId = tokenGrant.numGrants();\n\n        ManagedGrant managedGrant = new ManagedGrant(\n            address(token),\n            address(tokenGrant),\n            params.grantCreator,\n            grantId,\n            params.grantee\n        );\n        _managedGrant = address(managedGrant);\n\n        bytes memory grantData = abi.encode(\n            params.grantCreator,\n            _managedGrant,\n            params.duration,\n            params.start,\n            params.cliffDuration,\n            params.revocable,\n            params.policy\n        );\n\n        token.approveAndCall(\n            address(tokenGrant),\n            params.amount,\n            grantData\n        );\n\n        emit ManagedGrantCreated(\n            _managedGrant,\n            params.grantee\n        );\n        return _managedGrant;\n    }\n}\n",
  "sourcePath": "/home/bless/keep-core/solidity/contracts/ManagedGrantFactory.sol",
  "compiler": {
    "name": "solc",
    "version": "0.5.17+commit.d19bba13.Emscripten.clang"
  },
  "schemaVersion": "3.3.3",
  "updatedAt": "2021-01-29T15:47:25.232Z",
  "networkType": "ethereum",
  "devdoc": {
    "methods": {
      "createManagedGrant(address,uint256,uint256,uint256,uint256,bool,address)": {
        "details": "At least `amount` tokens to be approved for the factory beforehand. The grant will use the staking policy specified for its type (revocable or non-revocable) when the factory was created. The msg.sender is assigned as the grant manager.",
        "params": {
          "amount": "The number of tokens to grant.",
          "cliffDuration": "Duration in seconds of the cliff before which no tokens will unlock.",
          "duration": "Duration in seconds of the unlocking period.",
          "grantee": "The initial grantee.",
          "policy": "Address of the staking policy to be used.",
          "revocable": "Whether the token grant is revocable or not.",
          "start": "Timestamp at which unlocking will start."
        },
        "return": "The address of the managed grant."
      },
      "receiveApproval(address,uint256,address,bytes)": {
        "details": "Requires no setup beforehand, but only provides the managed grant address through an event. The sender of the tokens is assigned as the grant manager.",
        "params": {
          "_amount": "Approved amount for the transfer to create the grant.",
          "_extraData": "The following values encoded with `abi.encode`: grantee (address) Address of the grantee. duration (uint256) Duration in seconds of the unlocking period. start (uint256) Timestamp at which unlocking will start. cliffDuration (uint256) Duration in seconds of the cliff before which no tokens will unlock. revocable (bool) Whether the token grant is revocable or not. policy (address) Address of the staking policy to be used.",
          "_from": "The owner of the tokens who approved them to transfer.",
          "_token": "Address of the token contract; must match the token specified when the factory was created."
        }
      }
    },
    "title": "ManagedGrantFactory"
  },
  "userdoc": {
    "methods": {
      "createManagedGrant(address,uint256,uint256,uint256,uint256,bool,address)": {
        "notice": "Create a managed grant with the given parameters."
      },
      "receiveApproval(address,uint256,address,bytes)": {
        "notice": "Create a managed grant with the parameters specified in `_extraData`."
      }
    },
    "notice": "Creates managed grants that permit grantee reassignment and use pre-defined staking policies."
  }
}