{
  "contractName": "ManagedGrant",
  "abi": [
    {
      "inputs": [
        {
          "internalType": "address",
          "name": "_tokenAddress",
          "type": "address"
        },
        {
          "internalType": "address",
          "name": "_tokenGrant",
          "type": "address"
        },
        {
          "internalType": "address",
          "name": "_grantManager",
          "type": "address"
        },
        {
          "internalType": "uint256",
          "name": "_grantId",
          "type": "uint256"
        },
        {
          "internalType": "address",
          "name": "_grantee",
          "type": "address"
        }
      ],
      "payable": false,
      "stateMutability": "nonpayable",
      "type": "constructor"
    },
    {
      "anonymous": false,
      "inputs": [
        {
          "indexed": false,
          "internalType": "address",
          "name": "cancelledRequestedGrantee",
          "type": "address"
        }
      ],
      "name": "GranteeReassignmentCancelled",
      "type": "event"
    },
    {
      "anonymous": false,
      "inputs": [
        {
          "indexed": false,
          "internalType": "address",
          "name": "previouslyRequestedGrantee",
          "type": "address"
        },
        {
          "indexed": false,
          "internalType": "address",
          "name": "newRequestedGrantee",
          "type": "address"
        }
      ],
      "name": "GranteeReassignmentChanged",
      "type": "event"
    },
    {
      "anonymous": false,
      "inputs": [
        {
          "indexed": false,
          "internalType": "address",
          "name": "oldGrantee",
          "type": "address"
        },
        {
          "indexed": false,
          "internalType": "address",
          "name": "newGrantee",
          "type": "address"
        }
      ],
      "name": "GranteeReassignmentConfirmed",
      "type": "event"
    },
    {
      "anonymous": false,
      "inputs": [
        {
          "indexed": false,
          "internalType": "address",
          "name": "newGrantee",
          "type": "address"
        }
      ],
      "name": "GranteeReassignmentRequested",
      "type": "event"
    },
    {
      "anonymous": false,
      "inputs": [
        {
          "indexed": false,
          "internalType": "address",
          "name": "destination",
          "type": "address"
        },
        {
          "indexed": false,
          "internalType": "uint256",
          "name": "amount",
          "type": "uint256"
        }
      ],
      "name": "TokensWithdrawn",
      "type": "event"
    },
    {
      "constant": true,
      "inputs": [],
      "name": "grantId",
      "outputs": [
        {
          "internalType": "uint256",
          "name": "",
          "type": "uint256"
        }
      ],
      "payable": false,
      "stateMutability": "view",
      "type": "function"
    },
    {
      "constant": true,
      "inputs": [],
      "name": "grantManager",
      "outputs": [
        {
          "internalType": "address",
          "name": "",
          "type": "address"
        }
      ],
      "payable": false,
      "stateMutability": "view",
      "type": "function"
    },
    {
      "constant": true,
      "inputs": [],
      "name": "grantee",
      "outputs": [
        {
          "internalType": "address",
          "name": "",
          "type": "address"
        }
      ],
      "payable": false,
      "stateMutability": "view",
      "type": "function"
    },
    {
      "constant": true,
      "inputs": [],
      "name": "requestedNewGrantee",
      "outputs": [
        {
          "internalType": "address",
          "name": "",
          "type": "address"
        }
      ],
      "payable": false,
      "stateMutability": "view",
      "type": "function"
    },
    {
      "constant": true,
      "inputs": [],
      "name": "token",
      "outputs": [
        {
          "internalType": "contract ERC20Burnable",
          "name": "",
          "type": "address"
        }
      ],
      "payable": false,
      "stateMutability": "view",
      "type": "function"
    },
    {
      "constant": true,
      "inputs": [],
      "name": "tokenGrant",
      "outputs": [
        {
          "internalType": "contract TokenGrant",
          "name": "",
          "type": "address"
        }
      ],
      "payable": false,
      "stateMutability": "view",
      "type": "function"
    },
    {
      "constant": false,
      "inputs": [
        {
          "internalType": "address",
          "name": "_newGrantee",
          "type": "address"
        }
      ],
      "name": "requestGranteeReassignment",
      "outputs": [],
      "payable": false,
      "stateMutability": "nonpayable",
      "type": "function"
    },
    {
      "constant": false,
      "inputs": [],
      "name": "cancelReassignmentRequest",
      "outputs": [],
      "payable": false,
      "stateMutability": "nonpayable",
      "type": "function"
    },
    {
      "constant": false,
      "inputs": [
        {
          "internalType": "address",
          "name": "_newGrantee",
          "type": "address"
        }
      ],
      "name": "changeReassignmentRequest",
      "outputs": [],
      "payable": false,
      "stateMutability": "nonpayable",
      "type": "function"
    },
    {
      "constant": false,
      "inputs": [
        {
          "internalType": "address",
          "name": "_newGrantee",
          "type": "address"
        }
      ],
      "name": "confirmGranteeReassignment",
      "outputs": [],
      "payable": false,
      "stateMutability": "nonpayable",
      "type": "function"
    },
    {
      "constant": false,
      "inputs": [],
      "name": "withdraw",
      "outputs": [],
      "payable": false,
      "stateMutability": "nonpayable",
      "type": "function"
    },
    {
      "constant": false,
      "inputs": [
        {
          "internalType": "address",
          "name": "_stakingContract",
          "type": "address"
        },
        {
          "internalType": "uint256",
          "name": "_amount",
          "type": "uint256"
        },
        {
          "internalType": "bytes",
          "name": "_extraData",
          "type": "bytes"
        }
      ],
      "name": "stake",
      "outputs": [],
      "payable": false,
      "stateMutability": "nonpayable",
      "type": "function"
    },
    {
      "constant": false,
      "inputs": [
        {
          "internalType": "address",
          "name": "_operator",
          "type": "address"
        }
      ],
      "name": "cancelStake",
      "outputs": [],
      "payable": false,
      "stateMutability": "nonpayable",
      "type": "function"
    },
    {
      "constant": false,
      "inputs": [
        {
          "internalType": "address",
          "name": "_operator",
          "type": "address"
        }
      ],
      "name": "undelegate",
      "outputs": [],
      "payable": false,
      "stateMutability": "nonpayable",
      "type": "function"
    },
    {
      "constant": false,
      "inputs": [
        {
          "internalType": "address",
          "name": "_operator",
          "type": "address"
        }
      ],
      "name": "recoverStake",
      "outputs": [],
      "payable": false,
      "stateMutability": "nonpayable",
      "type": "function"
    }
  ],
  "bytecode": "0x608060405234801561001057600080fd5b50604051612190380380612190833981810160405260a081101561003357600080fd5b810190808051906020019092919080519060200190929190805190602001909291908051906020019092919080519060200190929190505050846000806101000a81548173ffffffffffffffffffffffffffffffffffffffff021916908373ffffffffffffffffffffffffffffffffffffffff16021790555083600160006101000a81548173ffffffffffffffffffffffffffffffffffffffff021916908373ffffffffffffffffffffffffffffffffffffffff16021790555082600260006101000a81548173ffffffffffffffffffffffffffffffffffffffff021916908373ffffffffffffffffffffffffffffffffffffffff1602179055508160038190555080600460006101000a81548173ffffffffffffffffffffffffffffffffffffffff021916908373ffffffffffffffffffffffffffffffffffffffff16021790555050505050506120068061018a6000396000f3fe608060405234801561001057600080fd5b50600436106100f55760003560e01c80636254d76c11610097578063da8be86411610066578063da8be8641461042b578063e064172e1461046f578063f30c0e08146104b3578063fc0c546a146104d1576100f5565b80636254d76c1461030f5780638669c08314610353578063d5f5207614610397578063d92db09f146103e1576100f5565b80633e12170f116100d35780633e12170f14610158578063525835f91461023d578063545c156b146102815780635bd8c8e6146102cb576100f5565b80630af8d820146100fa578063289f51b1146101045780633ccfd60b1461014e575b600080fd5b61010261051b565b005b61010c610755565b604051808273ffffffffffffffffffffffffffffffffffffffff1673ffffffffffffffffffffffffffffffffffffffff16815260200191505060405180910390f35b61015661077b565b005b61023b6004803603606081101561016e57600080fd5b81019080803573ffffffffffffffffffffffffffffffffffffffff16906020019092919080359060200190929190803590602001906401000000008111156101b557600080fd5b8201836020820111156101c757600080fd5b803590602001918460018302840111640100000000831117156101e957600080fd5b91908080601f016020809104026020016040519081016040528093929190818152602001838380828437600081840152601f19601f820116905080830192505050505050509192919290505050610b32565b005b61027f6004803603602081101561025357600080fd5b81019080803573ffffffffffffffffffffffffffffffffffffffff169060200190929190505050610d15565b005b610289610dd1565b604051808273ffffffffffffffffffffffffffffffffffffffff1673ffffffffffffffffffffffffffffffffffffffff16815260200191505060405180910390f35b61030d600480360360208110156102e157600080fd5b81019080803573ffffffffffffffffffffffffffffffffffffffff169060200190929190505050610df7565b005b6103516004803603602081101561032557600080fd5b81019080803573ffffffffffffffffffffffffffffffffffffffff169060200190929190505050610fd0565b005b6103956004803603602081101561036957600080fd5b81019080803573ffffffffffffffffffffffffffffffffffffffff169060200190929190505050611365565b005b61039f61163d565b604051808273ffffffffffffffffffffffffffffffffffffffff1673ffffffffffffffffffffffffffffffffffffffff16815260200191505060405180910390f35b6103e9611663565b604051808273ffffffffffffffffffffffffffffffffffffffff1673ffffffffffffffffffffffffffffffffffffffff16815260200191505060405180910390f35b61046d6004803603602081101561044157600080fd5b81019080803573ffffffffffffffffffffffffffffffffffffffff169060200190929190505050611689565b005b6104b16004803603602081101561048557600080fd5b81019080803573ffffffffffffffffffffffffffffffffffffffff169060200190929190505050611823565b005b6104bb6119bd565b6040518082815260200191505060405180910390f35b6104d96119c3565b604051808273ffffffffffffffffffffffffffffffffffffffff1673ffffffffffffffffffffffffffffffffffffffff16815260200191505060405180910390f35b600460009054906101000a900473ffffffffffffffffffffffffffffffffffffffff1673ffffffffffffffffffffffffffffffffffffffff163373ffffffffffffffffffffffffffffffffffffffff16146105c1576040517f08c379a0000000000000000000000000000000000000000000000000000000008152600401808060200182810382526024815260200180611f546024913960400191505060405180910390fd5b600073ffffffffffffffffffffffffffffffffffffffff16600560009054906101000a900473ffffffffffffffffffffffffffffffffffffffff1673ffffffffffffffffffffffffffffffffffffffff161415610686576040517f08c379a00000000000000000000000000000000000000000000000000000000081526004018080602001828103825260198152602001807f4e6f20726561737369676e6d656e74207265717565737465640000000000000081525060200191505060405180910390fd5b6000600560009054906101000a900473ffffffffffffffffffffffffffffffffffffffff1690506000600560006101000a81548173ffffffffffffffffffffffffffffffffffffffff021916908373ffffffffffffffffffffffffffffffffffffffff1602179055507f079bdabd0be4cb9ac4abae5f8236a5ffa1e3b2cb8292e13683586aa56e5bdcaa81604051808273ffffffffffffffffffffffffffffffffffffffff1673ffffffffffffffffffffffffffffffffffffffff16815260200191505060405180910390a150565b600560009054906101000a900473ffffffffffffffffffffffffffffffffffffffff1681565b600460009054906101000a900473ffffffffffffffffffffffffffffffffffffffff1673ffffffffffffffffffffffffffffffffffffffff163373ffffffffffffffffffffffffffffffffffffffff1614610821576040517f08c379a0000000000000000000000000000000000000000000000000000000008152600401808060200182810382526024815260200180611f546024913960400191505060405180910390fd5b600073ffffffffffffffffffffffffffffffffffffffff16600560009054906101000a900473ffffffffffffffffffffffffffffffffffffffff1673ffffffffffffffffffffffffffffffffffffffff16146108c8576040517f08c379a000000000000000000000000000000000000000000000000000000000815260040180806020018281038252602a815260200180611f07602a913960400191505060405180910390fd5b600160009054906101000a900473ffffffffffffffffffffffffffffffffffffffff1673ffffffffffffffffffffffffffffffffffffffff16632e1a7d4d6003546040518263ffffffff1660e01b815260040180828152602001915050600060405180830381600087803b15801561093f57600080fd5b505af1158015610953573d6000803e3d6000fd5b5050505060008060009054906101000a900473ffffffffffffffffffffffffffffffffffffffff1673ffffffffffffffffffffffffffffffffffffffff166370a08231306040518263ffffffff1660e01b8152600401808273ffffffffffffffffffffffffffffffffffffffff1673ffffffffffffffffffffffffffffffffffffffff16815260200191505060206040518083038186803b1580156109f757600080fd5b505afa158015610a0b573d6000803e3d6000fd5b505050506040513d6020811015610a2157600080fd5b81019080805190602001909291905050509050610aa2600460009054906101000a900473ffffffffffffffffffffffffffffffffffffffff16826000809054906101000a900473ffffffffffffffffffffffffffffffffffffffff1673ffffffffffffffffffffffffffffffffffffffff166119e89092919063ffffffff16565b7f6352c5382c4a4578e712449ca65e83cdb392d045dfcf1cad9615189db2da244b600460009054906101000a900473ffffffffffffffffffffffffffffffffffffffff1682604051808373ffffffffffffffffffffffffffffffffffffffff1673ffffffffffffffffffffffffffffffffffffffff1681526020018281526020019250505060405180910390a150565b600460009054906101000a900473ffffffffffffffffffffffffffffffffffffffff1673ffffffffffffffffffffffffffffffffffffffff163373ffffffffffffffffffffffffffffffffffffffff1614610bd8576040517f08c379a0000000000000000000000000000000000000000000000000000000008152600401808060200182810382526024815260200180611f546024913960400191505060405180910390fd5b600160009054906101000a900473ffffffffffffffffffffffffffffffffffffffff1673ffffffffffffffffffffffffffffffffffffffff16635860280c6003548585856040518563ffffffff1660e01b8152600401808581526020018473ffffffffffffffffffffffffffffffffffffffff1673ffffffffffffffffffffffffffffffffffffffff16815260200183815260200180602001828103825283818151815260200191508051906020019080838360005b83811015610ca9578082015181840152602081019050610c8e565b50505050905090810190601f168015610cd65780820380516001836020036101000a031916815260200191505b5095505050505050600060405180830381600087803b158015610cf857600080fd5b505af1158015610d0c573d6000803e3d6000fd5b50505050505050565b600160009054906101000a900473ffffffffffffffffffffffffffffffffffffffff1673ffffffffffffffffffffffffffffffffffffffff1663525835f9826040518263ffffffff1660e01b8152600401808273ffffffffffffffffffffffffffffffffffffffff1673ffffffffffffffffffffffffffffffffffffffff168152602001915050600060405180830381600087803b158015610db657600080fd5b505af1158015610dca573d6000803e3d6000fd5b5050505050565b600260009054906101000a900473ffffffffffffffffffffffffffffffffffffffff1681565b600460009054906101000a900473ffffffffffffffffffffffffffffffffffffffff1673ffffffffffffffffffffffffffffffffffffffff163373ffffffffffffffffffffffffffffffffffffffff1614610e9d576040517f08c379a0000000000000000000000000000000000000000000000000000000008152600401808060200182810382526024815260200180611f546024913960400191505060405180910390fd5b600073ffffffffffffffffffffffffffffffffffffffff16600560009054906101000a900473ffffffffffffffffffffffffffffffffffffffff1673ffffffffffffffffffffffffffffffffffffffff1614610f61576040517f08c379a000000000000000000000000000000000000000000000000000000000815260040180806020018281038252601e8152602001807f526561737369676e6d656e7420616c726561647920726571756573746564000081525060200191505060405180910390fd5b610f6a81611ab9565b7fafd45caea5ec652705350c2ba80247df0fa5dfadf447277da0f21465a74d8fe081604051808273ffffffffffffffffffffffffffffffffffffffff1673ffffffffffffffffffffffffffffffffffffffff16815260200191505060405180910390a150565b600260009054906101000a900473ffffffffffffffffffffffffffffffffffffffff1673ffffffffffffffffffffffffffffffffffffffff163373ffffffffffffffffffffffffffffffffffffffff1614611076576040517f08c379a0000000000000000000000000000000000000000000000000000000008152600401808060200182810382526029815260200180611ede6029913960400191505060405180910390fd5b600073ffffffffffffffffffffffffffffffffffffffff16600560009054906101000a900473ffffffffffffffffffffffffffffffffffffffff1673ffffffffffffffffffffffffffffffffffffffff16141561113b576040517f08c379a00000000000000000000000000000000000000000000000000000000081526004018080602001828103825260198152602001807f4e6f20726561737369676e6d656e74207265717565737465640000000000000081525060200191505060405180910390fd5b6000600460009054906101000a900473ffffffffffffffffffffffffffffffffffffffff1690508173ffffffffffffffffffffffffffffffffffffffff16600560009054906101000a900473ffffffffffffffffffffffffffffffffffffffff1673ffffffffffffffffffffffffffffffffffffffff1614611225576040517f08c379a000000000000000000000000000000000000000000000000000000000815260040180806020018281038252601d8152602001807f526561737369676e6d656e742061646472657373206d69736d6174636800000081525060200191505060405180910390fd5b600560009054906101000a900473ffffffffffffffffffffffffffffffffffffffff16600460006101000a81548173ffffffffffffffffffffffffffffffffffffffff021916908373ffffffffffffffffffffffffffffffffffffffff1602179055506000600560006101000a81548173ffffffffffffffffffffffffffffffffffffffff021916908373ffffffffffffffffffffffffffffffffffffffff1602179055507fc859af038814fe1f4f2cd57c83de6406ddb0cd2dd3c2294f5995244f3f012c598183604051808373ffffffffffffffffffffffffffffffffffffffff1673ffffffffffffffffffffffffffffffffffffffff1681526020018273ffffffffffffffffffffffffffffffffffffffff1673ffffffffffffffffffffffffffffffffffffffff1681526020019250505060405180910390a15050565b600460009054906101000a900473ffffffffffffffffffffffffffffffffffffffff1673ffffffffffffffffffffffffffffffffffffffff163373ffffffffffffffffffffffffffffffffffffffff161461140b576040517f08c379a0000000000000000000000000000000000000000000000000000000008152600401808060200182810382526024815260200180611f546024913960400191505060405180910390fd5b600073ffffffffffffffffffffffffffffffffffffffff16600560009054906101000a900473ffffffffffffffffffffffffffffffffffffffff1673ffffffffffffffffffffffffffffffffffffffff1614156114d0576040517f08c379a00000000000000000000000000000000000000000000000000000000081526004018080602001828103825260198152602001807f4e6f20726561737369676e6d656e74207265717565737465640000000000000081525060200191505060405180910390fd5b6000600560009054906101000a900473ffffffffffffffffffffffffffffffffffffffff1690508173ffffffffffffffffffffffffffffffffffffffff168173ffffffffffffffffffffffffffffffffffffffff161415611599576040517f08c379a000000000000000000000000000000000000000000000000000000000815260040180806020018281038252601e8152602001807f556e6368616e67656420726561737369676e6d656e742072657175657374000081525060200191505060405180910390fd5b6115a282611ab9565b7f609d93008f7d94dde9255b321cebd574e91bce227f60c61dc2162004af43892c8183604051808373ffffffffffffffffffffffffffffffffffffffff1673ffffffffffffffffffffffffffffffffffffffff1681526020018273ffffffffffffffffffffffffffffffffffffffff1673ffffffffffffffffffffffffffffffffffffffff1681526020019250505060405180910390a15050565b600460009054906101000a900473ffffffffffffffffffffffffffffffffffffffff1681565b600160009054906101000a900473ffffffffffffffffffffffffffffffffffffffff1681565b80600460009054906101000a900473ffffffffffffffffffffffffffffffffffffffff1673ffffffffffffffffffffffffffffffffffffffff163373ffffffffffffffffffffffffffffffffffffffff16148061171157508073ffffffffffffffffffffffffffffffffffffffff163373ffffffffffffffffffffffffffffffffffffffff16145b611766576040517f08c379a0000000000000000000000000000000000000000000000000000000008152600401808060200182810382526030815260200180611f786030913960400191505060405180910390fd5b600160009054906101000a900473ffffffffffffffffffffffffffffffffffffffff1673ffffffffffffffffffffffffffffffffffffffff1663da8be864836040518263ffffffff1660e01b8152600401808273ffffffffffffffffffffffffffffffffffffffff1673ffffffffffffffffffffffffffffffffffffffff168152602001915050600060405180830381600087803b15801561180757600080fd5b505af115801561181b573d6000803e3d6000fd5b505050505050565b80600460009054906101000a900473ffffffffffffffffffffffffffffffffffffffff1673ffffffffffffffffffffffffffffffffffffffff163373ffffffffffffffffffffffffffffffffffffffff1614806118ab57508073ffffffffffffffffffffffffffffffffffffffff163373ffffffffffffffffffffffffffffffffffffffff16145b611900576040517f08c379a0000000000000000000000000000000000000000000000000000000008152600401808060200182810382526030815260200180611f786030913960400191505060405180910390fd5b600160009054906101000a900473ffffffffffffffffffffffffffffffffffffffff1673ffffffffffffffffffffffffffffffffffffffff1663e064172e836040518263ffffffff1660e01b8152600401808273ffffffffffffffffffffffffffffffffffffffff1673ffffffffffffffffffffffffffffffffffffffff168152602001915050600060405180830381600087803b1580156119a157600080fd5b505af11580156119b5573d6000803e3d6000fd5b505050505050565b60035481565b6000809054906101000a900473ffffffffffffffffffffffffffffffffffffffff1681565b611ab4838473ffffffffffffffffffffffffffffffffffffffff1663a9059cbb905060e01b8484604051602401808373ffffffffffffffffffffffffffffffffffffffff1673ffffffffffffffffffffffffffffffffffffffff16815260200182815260200192505050604051602081830303815290604052907bffffffffffffffffffffffffffffffffffffffffffffffffffffffff19166020820180517bffffffffffffffffffffffffffffffffffffffffffffffffffffffff8381831617835250505050611c47565b505050565b600073ffffffffffffffffffffffffffffffffffffffff168173ffffffffffffffffffffffffffffffffffffffff161415611b5c576040517f08c379a000000000000000000000000000000000000000000000000000000000815260040180806020018281038252601b8152602001807f496e76616c6964206e6577206772616e7465652061646472657373000000000081525060200191505060405180910390fd5b600460009054906101000a900473ffffffffffffffffffffffffffffffffffffffff1673ffffffffffffffffffffffffffffffffffffffff168173ffffffffffffffffffffffffffffffffffffffff161415611c03576040517f08c379a0000000000000000000000000000000000000000000000000000000008152600401808060200182810382526023815260200180611f316023913960400191505060405180910390fd5b80600560006101000a81548173ffffffffffffffffffffffffffffffffffffffff021916908373ffffffffffffffffffffffffffffffffffffffff16021790555050565b611c668273ffffffffffffffffffffffffffffffffffffffff16611e92565b611cd8576040517f08c379a000000000000000000000000000000000000000000000000000000000815260040180806020018281038252601f8152602001807f5361666545524332303a2063616c6c20746f206e6f6e2d636f6e74726163740081525060200191505060405180910390fd5b600060608373ffffffffffffffffffffffffffffffffffffffff16836040518082805190602001908083835b60208310611d275780518252602082019150602081019050602083039250611d04565b6001836020036101000a0380198251168184511680821785525050505050509050019150506000604051808303816000865af19150503d8060008114611d89576040519150601f19603f3d011682016040523d82523d6000602084013e611d8e565b606091505b509150915081611e06576040517f08c379a00000000000000000000000000000000000000000000000000000000081526004018080602001828103825260208152602001807f5361666545524332303a206c6f772d6c6576656c2063616c6c206661696c656481525060200191505060405180910390fd5b600081511115611e8c57808060200190516020811015611e2557600080fd5b8101908080519060200190929190505050611e8b576040517f08c379a000000000000000000000000000000000000000000000000000000000815260040180806020018281038252602a815260200180611fa8602a913960400191505060405180910390fd5b5b50505050565b60008060007fc5d2460186f7233c927e7db2dcc703c0e500b653ca82273b7bfad8045d85a47060001b9050833f91506000801b8214158015611ed45750808214155b9250505091905056fe4f6e6c79206772616e744d616e61676572206d617920706572666f726d207468697320616374696f6e43616e206e6f7420776974686472617720776974682070656e64696e6720726561737369676e6d656e744e6577206772616e7465652073616d652061732063757272656e74206772616e7465654f6e6c79206772616e746565206d617920706572666f726d207468697320616374696f6e4f6e6c79206772616e746565206f72206f70657261746f72206d617920706572666f726d207468697320616374696f6e5361666545524332303a204552433230206f7065726174696f6e20646964206e6f742073756363656564a265627a7a723158200b851743ddecff2430ba9fcc3ce8517c477f1ae967a6e1c764567981fc5647fc64736f6c63430005110032",
  "source": "pragma solidity ^0.5.4;\n\nimport \"openzeppelin-solidity/contracts/token/ERC20/ERC20Burnable.sol\";\nimport \"openzeppelin-solidity/contracts/token/ERC20/SafeERC20.sol\";\nimport \"./TokenGrant.sol\";\n\n/// @title ManagedGrant\n/// @notice A managed grant acts as the grantee towards the token grant contract,\n/// proxying instructions from the actual grantee.\n/// The address used by the actual grantee\n/// to issue instructions and withdraw tokens\n/// can be reassigned with the consent of the grant manager.\ncontract ManagedGrant {\n    using SafeERC20 for ERC20Burnable;\n\n    ERC20Burnable public token;\n    TokenGrant public tokenGrant;\n    address public grantManager;\n    uint256 public grantId;\n    address public grantee;\n    address public requestedNewGrantee;\n\n    event GranteeReassignmentRequested(\n        address newGrantee\n    );\n    event GranteeReassignmentConfirmed(\n        address oldGrantee,\n        address newGrantee\n    );\n    event GranteeReassignmentCancelled(\n        address cancelledRequestedGrantee\n    );\n    event GranteeReassignmentChanged(\n        address previouslyRequestedGrantee,\n        address newRequestedGrantee\n    );\n    event TokensWithdrawn(\n        address destination,\n        uint256 amount\n    );\n\n    constructor(\n        address _tokenAddress,\n        address _tokenGrant,\n        address _grantManager,\n        uint256 _grantId,\n        address _grantee\n    ) public {\n        token = ERC20Burnable(_tokenAddress);\n        tokenGrant = TokenGrant(_tokenGrant);\n        grantManager = _grantManager;\n        grantId = _grantId;\n        grantee = _grantee;\n    }\n\n    /// @notice Request a reassignment of the grantee address.\n    /// Can only be called by the grantee.\n    /// @param _newGrantee The requested new grantee.\n    function requestGranteeReassignment(address _newGrantee)\n        public\n        onlyGrantee\n        noRequestedReassignment\n    {\n        _setRequestedNewGrantee(_newGrantee);\n        emit GranteeReassignmentRequested(_newGrantee);\n    }\n\n    /// @notice Cancel a pending grantee reassignment request.\n    /// Can only be called by the grantee.\n    function cancelReassignmentRequest()\n        public\n        onlyGrantee\n        withRequestedReassignment\n    {\n        address cancelledGrantee = requestedNewGrantee;\n        requestedNewGrantee = address(0);\n        emit GranteeReassignmentCancelled(cancelledGrantee);\n    }\n\n    /// @notice Change a pending reassignment request to a different grantee.\n    /// Can only be called by the grantee.\n    /// @param _newGrantee The address of the new requested grantee.\n    function changeReassignmentRequest(address _newGrantee)\n        public\n        onlyGrantee\n        withRequestedReassignment\n    {\n        address previouslyRequestedGrantee = requestedNewGrantee;\n        require(\n            previouslyRequestedGrantee != _newGrantee,\n            \"Unchanged reassignment request\"\n        );\n        _setRequestedNewGrantee(_newGrantee);\n        emit GranteeReassignmentChanged(previouslyRequestedGrantee, _newGrantee);\n    }\n\n    /// @notice Confirm a grantee reassignment request and set the new grantee as the grantee.\n    /// Can only be called by the grant manager.\n    /// @param _newGrantee The address of the new grantee.\n    /// Must match the currently requested new grantee.\n    function confirmGranteeReassignment(address _newGrantee)\n        public\n        onlyManager\n        withRequestedReassignment\n    {\n        address oldGrantee = grantee;\n        require(\n            requestedNewGrantee == _newGrantee,\n            \"Reassignment address mismatch\"\n        );\n        grantee = requestedNewGrantee;\n        requestedNewGrantee = address(0);\n        emit GranteeReassignmentConfirmed(oldGrantee, _newGrantee);\n    }\n\n    /// @notice Withdraw all unlocked tokens from the grant.\n    function withdraw() public onlyGrantee {\n        require(\n            requestedNewGrantee == address(0),\n            \"Can not withdraw with pending reassignment\"\n        );\n        tokenGrant.withdraw(grantId);\n        uint256 amount = token.balanceOf(address(this));\n        token.safeTransfer(grantee, amount);\n        emit TokensWithdrawn(grantee, amount);\n    }\n\n    /// @notice Stake tokens from the grant.\n    /// @param _stakingContract The contract to stake the tokens on.\n    /// @param _amount The amount of tokens to stake.\n    /// @param _extraData Data for the stake delegation.\n    /// This byte array must have the following values concatenated:\n    /// beneficiary address (20 bytes)\n    /// operator address (20 bytes)\n    /// authorizer address (20 bytes)\n    function stake(\n        address _stakingContract,\n        uint256 _amount,\n        bytes memory _extraData\n    ) public onlyGrantee {\n        tokenGrant.stake(grantId, _stakingContract, _amount, _extraData);\n    }\n\n    /// @notice Cancel delegating tokens to the given operator.\n    function cancelStake(address _operator) public onlyGranteeOr(_operator) {\n        tokenGrant.cancelStake(_operator);\n    }\n\n    /// @notice Begin undelegating tokens from the given operator.\n    function undelegate(address _operator) public onlyGranteeOr(_operator) {\n        tokenGrant.undelegate(_operator);\n    }\n\n    /// @notice Recover tokens previously staked and delegated to the operator.\n    function recoverStake(address _operator) public {\n        tokenGrant.recoverStake(_operator);\n    }\n\n    function _setRequestedNewGrantee(address _newGrantee) internal {\n        require(_newGrantee != address(0), \"Invalid new grantee address\");\n        require(_newGrantee != grantee, \"New grantee same as current grantee\");\n\n        requestedNewGrantee = _newGrantee;\n    }\n\n    modifier withRequestedReassignment {\n        require(\n            requestedNewGrantee != address(0),\n            \"No reassignment requested\"\n        );\n        _;\n    }\n\n    modifier noRequestedReassignment {\n        require(\n            requestedNewGrantee == address(0),\n            \"Reassignment already requested\"\n        );\n        _;\n    }\n\n    modifier onlyGrantee {\n        require(\n            msg.sender == grantee,\n            \"Only grantee may perform this action\"\n        );\n        _;\n    }\n\n    modifier onlyGranteeOr(address _operator) {\n        require(\n            msg.sender == grantee || msg.sender == _operator,\n            \"Only grantee or operator may perform this action\"\n        );\n        _;\n    }\n\n    modifier onlyManager {\n        require(\n            msg.sender == grantManager,\n            \"Only grantManager may perform this action\"\n        );\n        _;\n    }\n}\n",
  "sourcePath": "/home/bless/keep-core/solidity/contracts/ManagedGrant.sol",
  "compiler": {
    "name": "solc",
    "version": "0.5.17+commit.d19bba13.Emscripten.clang"
  },
  "schemaVersion": "3.3.3",
  "updatedAt": "2021-01-29T15:47:01.899Z",
  "devdoc": {
    "methods": {
      "changeReassignmentRequest(address)": {
        "params": {
          "_newGrantee": "The address of the new requested grantee."
        }
      },
      "confirmGranteeReassignment(address)": {
        "params": {
          "_newGrantee": "The address of the new grantee. Must match the currently requested new grantee."
        }
      },
      "requestGranteeReassignment(address)": {
        "params": {
          "_newGrantee": "The requested new grantee."
        }
      },
      "stake(address,uint256,bytes)": {
        "params": {
          "_amount": "The amount of tokens to stake.",
          "_extraData": "Data for the stake delegation. This byte array must have the following values concatenated: beneficiary address (20 bytes) operator address (20 bytes) authorizer address (20 bytes)",
          "_stakingContract": "The contract to stake the tokens on."
        }
      }
    },
    "title": "ManagedGrant"
  },
  "userdoc": {
    "methods": {
      "cancelReassignmentRequest()": {
        "notice": "Cancel a pending grantee reassignment request. Can only be called by the grantee."
      },
      "cancelStake(address)": {
        "notice": "Cancel delegating tokens to the given operator."
      },
      "changeReassignmentRequest(address)": {
        "notice": "Change a pending reassignment request to a different grantee. Can only be called by the grantee."
      },
      "confirmGranteeReassignment(address)": {
        "notice": "Confirm a grantee reassignment request and set the new grantee as the grantee. Can only be called by the grant manager."
      },
      "recoverStake(address)": {
        "notice": "Recover tokens previously staked and delegated to the operator."
      },
      "requestGranteeReassignment(address)": {
        "notice": "Request a reassignment of the grantee address. Can only be called by the grantee."
      },
      "stake(address,uint256,bytes)": {
        "notice": "Stake tokens from the grant."
      },
      "undelegate(address)": {
        "notice": "Begin undelegating tokens from the given operator."
      },
      "withdraw()": {
        "notice": "Withdraw all unlocked tokens from the grant."
      }
    },
    "notice": "A managed grant acts as the grantee towards the token grant contract, proxying instructions from the actual grantee. The address used by the actual grantee to issue instructions and withdraw tokens can be reassigned with the consent of the grant manager."
  }
}