{
  "contractName": "MinimumStakeScheduleStub",
  "abi": [
    {
      "constant": true,
      "inputs": [],
      "name": "current",
      "outputs": [
        {
          "internalType": "uint256",
          "name": "",
          "type": "uint256"
        }
      ],
      "payable": false,
      "stateMutability": "view",
      "type": "function"
    }
  ],
  "bytecode": "0x60806040524260005534801561001457600080fd5b50610489806100246000396000f3fe608060405234801561001057600080fd5b506004361061002b5760003560e01c80639fa6a6e314610030575b600080fd5b61003861004e565b6040518082815260200191505060405180910390f35b600061005b600054610060565b905090565b60006100796303c267008361010b90919063ffffffff16565b4210156100f85760006100be6303c267006100b06100a0864261019390919063ffffffff16565b600a6101dd90919063ffffffff16565b61026390919063ffffffff16565b90506100f06100d782600a61019390919063ffffffff16565b69021e19e0c9bab24000006101dd90919063ffffffff16565b915050610106565b69021e19e0c9bab240000090505b919050565b600080828401905083811015610189576040517f08c379a000000000000000000000000000000000000000000000000000000000815260040180806020018281038252601b8152602001807f536166654d6174683a206164646974696f6e206f766572666c6f77000000000081525060200191505060405180910390fd5b8091505092915050565b60006101d583836040518060400160405280601e81526020017f536166654d6174683a207375627472616374696f6e206f766572666c6f7700008152506102ad565b905092915050565b6000808314156101f0576000905061025d565b600082840290508284828161020157fe5b0414610258576040517f08c379a00000000000000000000000000000000000000000000000000000000081526004018080602001828103825260218152602001806104346021913960400191505060405180910390fd5b809150505b92915050565b60006102a583836040518060400160405280601a81526020017f536166654d6174683a206469766973696f6e206279207a65726f00000000000081525061036d565b905092915050565b600083831115829061035a576040517f08c379a00000000000000000000000000000000000000000000000000000000081526004018080602001828103825283818151815260200191508051906020019080838360005b8381101561031f578082015181840152602081019050610304565b50505050905090810190601f16801561034c5780820380516001836020036101000a031916815260200191505b509250505060405180910390fd5b5060008385039050809150509392505050565b60008083118290610419576040517f08c379a00000000000000000000000000000000000000000000000000000000081526004018080602001828103825283818151815260200191508051906020019080838360005b838110156103de5780820151818401526020810190506103c3565b50505050905090810190601f16801561040b5780820380516001836020036101000a031916815260200191505b509250505060405180910390fd5b50600083858161042557fe5b04905080915050939250505056fe536166654d6174683a206d756c7469706c69636174696f6e206f766572666c6f77a265627a7a72315820878c97a0061751be30c02d7b2c26ae566e35c5fdb0ceabb9de75fa21ba4d8b8364736f6c63430005110032",
  "source": "pragma solidity 0.5.17;\n\nimport \"../libraries/staking/MinimumStakeSchedule.sol\";\n\ncontract MinimumStakeScheduleStub {\n\n    uint256 scheduleStart = now;\n\n    function current() public view returns (uint256) {\n        return MinimumStakeSchedule.current(scheduleStart);\n    }\n}",
  "sourcePath": "/home/bless/keep-core/solidity/contracts/stubs/MinimumStakeScheduleStub.sol",
  "compiler": {
    "name": "solc",
    "version": "0.5.17+commit.d19bba13.Emscripten.clang"
  },
  "schemaVersion": "3.3.3",
  "updatedAt": "2021-01-29T15:47:02.166Z",
  "devdoc": {
    "methods": {}
  },
  "userdoc": {
    "methods": {}
  }
}