{
  "contractName": "MinimumStakeSchedule",
  "abi": [
    {
      "constant": true,
      "inputs": [],
      "name": "base",
      "outputs": [
        {
          "internalType": "uint256",
          "name": "",
          "type": "uint256"
        }
      ],
      "payable": false,
      "stateMutability": "view",
      "type": "function"
    },
    {
      "constant": true,
      "inputs": [],
      "name": "schedule",
      "outputs": [
        {
          "internalType": "uint256",
          "name": "",
          "type": "uint256"
        }
      ],
      "payable": false,
      "stateMutability": "view",
      "type": "function"
    },
    {
      "constant": true,
      "inputs": [],
      "name": "steps",
      "outputs": [
        {
          "internalType": "uint256",
          "name": "",
          "type": "uint256"
        }
      ],
      "payable": false,
      "stateMutability": "view",
      "type": "function"
    }
  ],
  "bytecode": "0x60f0610025600b82828239805160001a60731461001857fe5b30600052607381538281f3fe730000000000000000000000000000000000000000301460806040526004361060475760003560e01c80635001f3b514604c57806360192799146068578063b0604a26146084575b600080fd5b605260a0565b6040518082815260200191505060405180910390f35b606e60ae565b6040518082815260200191505060405180910390f35b608a60b3565b6040518082815260200191505060405180910390f35b69021e19e0c9bab240000081565b600a81565b6303c267008156fea265627a7a72315820774ee6d7311eb390232ffededa617c6a2bafc1f653b0b796f76547a355f263db64736f6c63430005110032",
  "source": "pragma solidity 0.5.17;\n\nimport \"openzeppelin-solidity/contracts/math/SafeMath.sol\";\n\n/// @notice MinimumStakeSchedule defines the minimum stake parametrization and\n/// schedule. It starts with a minimum stake of 100k KEEP. Over the following\n/// 2 years, the minimum stake is lowered periodically using a uniform stepwise\n/// function, eventually ending at 10k.\nlibrary MinimumStakeSchedule {\n    using SafeMath for uint256;\n\n    // 2 years in seconds (seconds per day * days in a year * years)\n    uint256 public constant schedule = 86400 * 365 * 2;\n    uint256 public constant steps = 10;\n    uint256 public constant base = 10000 * 1e18;\n\n    /// @notice Returns the current value of the minimum stake. The minimum\n    /// stake is lowered periodically over the course of 2 years since the time\n    /// of the shedule start and eventually ends at 10k KEEP.\n    function current(uint256 scheduleStart) internal view returns (uint256) {\n        if (now < scheduleStart.add(schedule)) {\n            uint256 currentStep = steps.mul(now.sub(scheduleStart)).div(schedule);\n            return base.mul(steps.sub(currentStep));\n        }\n        return base;\n    }\n}",
  "sourcePath": "/Users/konrad/Desktop/rumble/fin/local-setup/keep-core/solidity/contracts/libraries/staking/MinimumStakeSchedule.sol",
  "compiler": {
    "name": "solc",
    "version": "0.5.17+commit.d19bba13.Emscripten.clang"
  },
  "schemaVersion": "3.3.3",
  "updatedAt": "2021-04-30T08:46:00.700Z",
  "networkType": "ethereum",
  "devdoc": {
    "methods": {}
  },
  "userdoc": {
    "methods": {},
    "notice": "MinimumStakeSchedule defines the minimum stake parametrization and schedule. It starts with a minimum stake of 100k KEEP. Over the following 2 years, the minimum stake is lowered periodically using a uniform stepwise function, eventually ending at 10k."
  }
}