{
  "contractName": "OperatorParamsStub",
  "abi": [
    {
      "constant": true,
      "inputs": [
        {
          "internalType": "uint256",
          "name": "amount",
          "type": "uint256"
        },
        {
          "internalType": "uint256",
          "name": "createdAt",
          "type": "uint256"
        },
        {
          "internalType": "uint256",
          "name": "undelegatedAt",
          "type": "uint256"
        }
      ],
      "name": "publicPack",
      "outputs": [
        {
          "internalType": "uint256",
          "name": "",
          "type": "uint256"
        }
      ],
      "payable": false,
      "stateMutability": "pure",
      "type": "function"
    },
    {
      "constant": true,
      "inputs": [
        {
          "internalType": "uint256",
          "name": "packed",
          "type": "uint256"
        }
      ],
      "name": "publicGetAmount",
      "outputs": [
        {
          "internalType": "uint256",
          "name": "",
          "type": "uint256"
        }
      ],
      "payable": false,
      "stateMutability": "pure",
      "type": "function"
    },
    {
      "constant": true,
      "inputs": [
        {
          "internalType": "uint256",
          "name": "packed",
          "type": "uint256"
        },
        {
          "internalType": "uint256",
          "name": "amount",
          "type": "uint256"
        }
      ],
      "name": "publicSetAmount",
      "outputs": [
        {
          "internalType": "uint256",
          "name": "",
          "type": "uint256"
        }
      ],
      "payable": false,
      "stateMutability": "pure",
      "type": "function"
    },
    {
      "constant": true,
      "inputs": [
        {
          "internalType": "uint256",
          "name": "packed",
          "type": "uint256"
        }
      ],
      "name": "publicGetCreationTimestamp",
      "outputs": [
        {
          "internalType": "uint256",
          "name": "",
          "type": "uint256"
        }
      ],
      "payable": false,
      "stateMutability": "pure",
      "type": "function"
    },
    {
      "constant": true,
      "inputs": [
        {
          "internalType": "uint256",
          "name": "packed",
          "type": "uint256"
        },
        {
          "internalType": "uint256",
          "name": "creationTimestamp",
          "type": "uint256"
        }
      ],
      "name": "publicSetCreationTimestamp",
      "outputs": [
        {
          "internalType": "uint256",
          "name": "",
          "type": "uint256"
        }
      ],
      "payable": false,
      "stateMutability": "pure",
      "type": "function"
    },
    {
      "constant": true,
      "inputs": [
        {
          "internalType": "uint256",
          "name": "packed",
          "type": "uint256"
        }
      ],
      "name": "publicGetUndelegationTimestamp",
      "outputs": [
        {
          "internalType": "uint256",
          "name": "",
          "type": "uint256"
        }
      ],
      "payable": false,
      "stateMutability": "pure",
      "type": "function"
    },
    {
      "constant": true,
      "inputs": [
        {
          "internalType": "uint256",
          "name": "packed",
          "type": "uint256"
        },
        {
          "internalType": "uint256",
          "name": "undelegationTimestamp",
          "type": "uint256"
        }
      ],
      "name": "publicSetUndelegationTimestamp",
      "outputs": [
        {
          "internalType": "uint256",
          "name": "",
          "type": "uint256"
        }
      ],
      "payable": false,
      "stateMutability": "pure",
      "type": "function"
    },
    {
      "constant": true,
      "inputs": [
        {
          "internalType": "uint256",
          "name": "packed",
          "type": "uint256"
        },
        {
          "internalType": "uint256",
          "name": "amount",
          "type": "uint256"
        },
        {
          "internalType": "uint256",
          "name": "creationTimestamp",
          "type": "uint256"
        }
      ],
      "name": "publicSetAmountAndCreationTimestamp",
      "outputs": [
        {
          "internalType": "uint256",
          "name": "",
          "type": "uint256"
        }
      ],
      "payable": false,
      "stateMutability": "pure",
      "type": "function"
    }
  ],
  "bytecode": "0x608060405234801561001057600080fd5b506105c3806100206000396000f3fe608060405234801561001057600080fd5b50600436106100885760003560e01c806374bfaf901161005b57806374bfaf90146101a95780637d07bac6146101ff5780637ddc8a0514610241578063e64a0b8b1461028d57610088565b8063311b9e391461008d5780633b662f5e146100cf578063503ffb631461011b578063684694ac1461015d575b600080fd5b6100b9600480360360208110156100a357600080fd5b81019080803590602001909291905050506102e3565b6040518082815260200191505060405180910390f35b610105600480360360408110156100e557600080fd5b8101908080359060200190929190803590602001909291905050506102f5565b6040518082815260200191505060405180910390f35b6101476004803603602081101561013157600080fd5b8101908080359060200190929190505050610312565b6040518082815260200191505060405180910390f35b6101936004803603604081101561017357600080fd5b810190808035906020019092919080359060200190929190505050610324565b6040518082815260200191505060405180910390f35b6101e9600480360360608110156101bf57600080fd5b81019080803590602001909291908035906020019092919080359060200190929190505050610341565b6040518082815260200191505060405180910390f35b61022b6004803603602081101561021557600080fd5b8101908080359060200190929190505050610357565b6040518082815260200191505060405180910390f35b6102776004803603604081101561025757600080fd5b810190808035906020019092919080359060200190929190505050610369565b6040518082815260200191505060405180910390f35b6102cd600480360360608110156102a357600080fd5b81019080803590602001909291908035906020019092919080359060200190929190505050610386565b6040518082815260200191505060405180910390f35b60006102ee826103a6565b9050919050565b600061030a82846103c090919063ffffffff16565b905092915050565b600061031d826103e5565b9050919050565b600061033982846103fc90919063ffffffff16565b905092915050565b600061034e848484610421565b90509392505050565b600061036282610538565b9050919050565b600061037e828461054b90919063ffffffff16565b905092915050565b600061039d8383866105709092919063ffffffff16565b90509392505050565b60006001608060020a03604060020283901c169050919050565b60006103dd6103ce846103a6565b836103d886610538565b610421565b905092915050565b60006001604060020a03604083901c169050919050565b600061041961040a846103a6565b610413856103e5565b84610421565b905092915050565b60006001608060020a038411156104a0576040517f08c379a00000000000000000000000000000000000000000000000000000000081526004018080602001828103825260108152602001807f75696e74313238206f766572666c6f770000000000000000000000000000000081525060200191505060405180910390fd5b6001604060020a03828417111561051f576040517f08c379a000000000000000000000000000000000000000000000000000000000815260040180806020018281038252600f8152602001807f75696e743634206f766572666c6f77000000000000000000000000000000000081525060200191505060405180910390fd5b81604084901b604060020286901b171790509392505050565b60006001604060020a0382169050919050565b60006105688261055a856103e5565b61056386610538565b610421565b905092915050565b6000610585838361058087610538565b610421565b9050939250505056fea265627a7a72315820509276c7a228037f3c0a2bf04601a90da3a98976c52536bce58cbc626ce2559264736f6c63430005110032",
  "source": "pragma solidity 0.5.17;\nimport \"../utils/OperatorParams.sol\";\n\ncontract OperatorParamsStub {\n    using OperatorParams for uint256;\n\n    function publicPack(\n        uint256 amount,\n        uint256 createdAt,\n        uint256 undelegatedAt\n    ) public pure returns (uint256) {\n        return OperatorParams.pack(amount, createdAt, undelegatedAt);\n    }\n\n    function publicGetAmount(uint256 packed) public pure returns (uint256) {\n        return packed.getAmount();\n    }\n\n    function publicSetAmount(uint256 packed, uint256 amount) public pure returns (uint256) {\n        return packed.setAmount(amount);\n    }\n\n    function publicGetCreationTimestamp(uint256 packed) public pure returns (uint256) {\n        return packed.getCreationTimestamp();\n    }\n\n    function publicSetCreationTimestamp(uint256 packed, uint256 creationTimestamp) public pure returns (uint256) {\n        return packed.setCreationTimestamp(creationTimestamp);\n    }\n\n    function publicGetUndelegationTimestamp(uint256 packed) public pure returns (uint256) {\n        return packed.getUndelegationTimestamp();\n    }\n\n    function publicSetUndelegationTimestamp(uint256 packed, uint256 undelegationTimestamp) public pure returns (uint256) {\n        return packed.setUndelegationTimestamp(undelegationTimestamp);\n    }\n\n    function publicSetAmountAndCreationTimestamp(\n        uint256 packed,\n        uint256 amount,\n        uint256 creationTimestamp\n    ) public pure returns (uint256) {\n        return packed.setAmountAndCreationTimestamp(amount, creationTimestamp);\n    }\n}\n",
  "sourcePath": "/Users/konrad/Desktop/rumble/fin/local-setup/keep-core/solidity/contracts/stubs/OperatorParamsStub.sol",
  "compiler": {
    "name": "solc",
    "version": "0.5.17+commit.d19bba13.Emscripten.clang"
  },
  "schemaVersion": "3.3.3",
  "updatedAt": "2021-04-30T08:21:45.066Z",
  "devdoc": {
    "methods": {}
  },
  "userdoc": {
    "methods": {}
  }
}