{
  "contractName": "PermissiveStakingPolicy",
  "abi": [
    {
      "constant": true,
      "inputs": [
        {
          "internalType": "uint256",
          "name": "_now",
          "type": "uint256"
        },
        {
          "internalType": "uint256",
          "name": "grantedAmount",
          "type": "uint256"
        },
        {
          "internalType": "uint256",
          "name": "duration",
          "type": "uint256"
        },
        {
          "internalType": "uint256",
          "name": "start",
          "type": "uint256"
        },
        {
          "internalType": "uint256",
          "name": "cliff",
          "type": "uint256"
        },
        {
          "internalType": "uint256",
          "name": "withdrawn",
          "type": "uint256"
        }
      ],
      "name": "getStakeableAmount",
      "outputs": [
        {
          "internalType": "uint256",
          "name": "",
          "type": "uint256"
        }
      ],
      "payable": false,
      "stateMutability": "view",
      "type": "function"
    }
  ],
  "bytecode": "0x608060405234801561001057600080fd5b50610204806100206000396000f3fe608060405234801561001057600080fd5b506004361061002b5760003560e01c8063dab4093514610030575b600080fd5b61008e600480360360c081101561004657600080fd5b810190808035906020019092919080359060200190929190803590602001909291908035906020019092919080359060200190929190803590602001909291905050506100a4565b6040518082815260200191505060405180910390f35b60006100b982876100c590919063ffffffff16565b90509695505050505050565b600061010783836040518060400160405280601e81526020017f536166654d6174683a207375627472616374696f6e206f766572666c6f77000081525061010f565b905092915050565b60008383111582906101bc576040517f08c379a00000000000000000000000000000000000000000000000000000000081526004018080602001828103825283818151815260200191508051906020019080838360005b83811015610181578082015181840152602081019050610166565b50505050905090810190601f1680156101ae5780820380516001836020036101000a031916815260200191505b509250505060405180910390fd5b506000838503905080915050939250505056fea265627a7a7231582097cd3ddc2048fa05f2715234f7537819e12ef9153631a091fbc03d1f6045256064736f6c63430005110032",
  "source": "pragma solidity 0.5.17;\n\nimport \"openzeppelin-solidity/contracts/math/SafeMath.sol\";\nimport \"./GrantStakingPolicy.sol\";\n\n/// @title PermissiveStakingPolicy\n/// @notice A staking policy which allows the grantee to stake the entire grant,\n/// regardless of its unlocking status.\ncontract PermissiveStakingPolicy is GrantStakingPolicy {\n    using SafeMath for uint256;\n\n    function getStakeableAmount (\n        uint256 _now,\n        uint256 grantedAmount,\n        uint256 duration,\n        uint256 start,\n        uint256 cliff,\n        uint256 withdrawn\n    ) public view returns (uint256) {\n        // Can always stake the entire remaining amount.\n        return grantedAmount.sub(withdrawn);\n    }\n}\n",
  "sourcePath": "/home/bless/keep-core/solidity/contracts/PermissiveStakingPolicy.sol",
  "compiler": {
    "name": "solc",
    "version": "0.5.17+commit.d19bba13.Emscripten.clang"
  },
  "schemaVersion": "3.3.3",
  "updatedAt": "2021-01-29T15:47:25.190Z",
  "networkType": "ethereum",
  "devdoc": {
    "methods": {},
    "title": "PermissiveStakingPolicy"
  },
  "userdoc": {
    "methods": {},
    "notice": "A staking policy which allows the grantee to stake the entire grant, regardless of its unlocking status."
  }
}