{
  "contractName": "ReceivingEscrowStub",
  "abi": [
    {
      "constant": true,
      "inputs": [
        {
          "internalType": "address",
          "name": "",
          "type": "address"
        }
      ],
      "name": "received",
      "outputs": [
        {
          "internalType": "uint256",
          "name": "grantId",
          "type": "uint256"
        },
        {
          "internalType": "uint256",
          "name": "amount",
          "type": "uint256"
        }
      ],
      "payable": false,
      "stateMutability": "view",
      "type": "function"
    },
    {
      "constant": false,
      "inputs": [
        {
          "internalType": "address",
          "name": "from",
          "type": "address"
        },
        {
          "internalType": "uint256",
          "name": "value",
          "type": "uint256"
        },
        {
          "internalType": "address",
          "name": "token",
          "type": "address"
        },
        {
          "internalType": "bytes",
          "name": "extraData",
          "type": "bytes"
        }
      ],
      "name": "receiveApproval",
      "outputs": [],
      "payable": false,
      "stateMutability": "nonpayable",
      "type": "function"
    },
    {
      "constant": true,
      "inputs": [
        {
          "internalType": "address",
          "name": "operator",
          "type": "address"
        }
      ],
      "name": "depositedAmount",
      "outputs": [
        {
          "internalType": "uint256",
          "name": "",
          "type": "uint256"
        }
      ],
      "payable": false,
      "stateMutability": "view",
      "type": "function"
    },
    {
      "constant": true,
      "inputs": [
        {
          "internalType": "address",
          "name": "operator",
          "type": "address"
        }
      ],
      "name": "depositGrantId",
      "outputs": [
        {
          "internalType": "uint256",
          "name": "",
          "type": "uint256"
        }
      ],
      "payable": false,
      "stateMutability": "view",
      "type": "function"
    }
  ],
  "bytecode": "0x608060405234801561001057600080fd5b506103fd806100206000396000f3fe608060405234801561001057600080fd5b506004361061004c5760003560e01c80634a4643f7146100515780637589d761146100a95780638f4ffcb114610101578063df0cb93414610206575b600080fd5b6100936004803603602081101561006757600080fd5b81019080803573ffffffffffffffffffffffffffffffffffffffff169060200190929190505050610265565b6040518082815260200191505060405180910390f35b6100eb600480360360208110156100bf57600080fd5b81019080803573ffffffffffffffffffffffffffffffffffffffff1690602001909291905050506102b0565b6040518082815260200191505060405180910390f35b6102046004803603608081101561011757600080fd5b81019080803573ffffffffffffffffffffffffffffffffffffffff16906020019092919080359060200190929190803573ffffffffffffffffffffffffffffffffffffffff1690602001909291908035906020019064010000000081111561017e57600080fd5b82018360208201111561019057600080fd5b803590602001918460018302840111640100000000831117156101b257600080fd5b91908080601f016020809104026020016040519081016040528093929190818152602001838380828437600081840152601f19601f8201169050808301925050505050505091929192905050506102fb565b005b6102486004803603602081101561021c57600080fd5b81019080803573ffffffffffffffffffffffffffffffffffffffff1690602001909291905050506103a4565b604051808381526020018281526020019250505060405180910390f35b60008060008373ffffffffffffffffffffffffffffffffffffffff1673ffffffffffffffffffffffffffffffffffffffff168152602001908152602001600020600101549050919050565b60008060008373ffffffffffffffffffffffffffffffffffffffff1673ffffffffffffffffffffffffffffffffffffffff168152602001908152602001600020600001549050919050565b60008082806020019051604081101561031357600080fd5b810190808051906020019092919080519060200190929190505050915091506040518060400160405280828152602001868152506000808473ffffffffffffffffffffffffffffffffffffffff1673ffffffffffffffffffffffffffffffffffffffff1681526020019081526020016000206000820151816000015560208201518160010155905050505050505050565b6000602052806000526040600020600091509050806000015490806001015490508256fea265627a7a72315820f1d0ba296480b05861dc4499fd3d88d0b6c32adec9546f509c02114a2408094c64736f6c63430005110032",
  "source": "pragma solidity 0.5.17;\n\n/// @dev Stub used in TokenStakingEscrow to test migration of tokens between\n/// escrows.\ncontract ReceivingEscrowStub {\n\n    struct Received {\n        uint256 grantId;\n        uint256 amount;\n    }\n\n    mapping (address => Received) public received;\n\n    function receiveApproval(\n        address from,\n        uint256 value,\n        address token,\n        bytes memory extraData\n    ) public {\n        (address operator, uint256 grantId) = abi.decode(\n            extraData, (address, uint256)\n        );\n        received[operator] = Received(grantId, value);\n    }\n\n    function depositedAmount(address operator) public view returns (uint256) {\n        return received[operator].amount;\n    }\n\n    function depositGrantId(address operator) public view returns (uint256) {\n        return received[operator].grantId;\n    }\n}",
  "sourcePath": "/Users/konrad/Desktop/rumble/fin/local-setup/keep-core/solidity/contracts/stubs/ReceivingEscrowStub.sol",
  "compiler": {
    "name": "solc",
    "version": "0.5.17+commit.d19bba13.Emscripten.clang"
  },
  "schemaVersion": "3.3.3",
  "updatedAt": "2021-04-13T12:32:13.075Z",
  "devdoc": {
    "details": "Stub used in TokenStakingEscrow to test migration of tokens between escrows.",
    "methods": {}
  },
  "userdoc": {
    "methods": {}
  }
}