{
  "contractName": "RewardsStub",
  "abi": [
    {
      "inputs": [
        {
          "internalType": "address",
          "name": "_token",
          "type": "address"
        },
        {
          "internalType": "uint256",
          "name": "_minimumKeepsPerInterval",
          "type": "uint256"
        },
        {
          "internalType": "uint256",
          "name": "_firstIntervalStart",
          "type": "uint256"
        },
        {
          "internalType": "uint256[]",
          "name": "_intervalWeights",
          "type": "uint256[]"
        },
        {
          "internalType": "uint256[]",
          "name": "_creationTimes",
          "type": "uint256[]"
        },
        {
          "internalType": "uint256",
          "name": "_termLength",
          "type": "uint256"
        }
      ],
      "payable": false,
      "stateMutability": "nonpayable",
      "type": "constructor"
    },
    {
      "anonymous": false,
      "inputs": [
        {
          "indexed": true,
          "internalType": "address",
          "name": "previousOwner",
          "type": "address"
        },
        {
          "indexed": true,
          "internalType": "address",
          "name": "newOwner",
          "type": "address"
        }
      ],
      "name": "OwnershipTransferred",
      "type": "event"
    },
    {
      "anonymous": false,
      "inputs": [
        {
          "indexed": false,
          "internalType": "bytes32",
          "name": "keep",
          "type": "bytes32"
        },
        {
          "indexed": false,
          "internalType": "uint256",
          "name": "amount",
          "type": "uint256"
        }
      ],
      "name": "RewardReceived",
      "type": "event"
    },
    {
      "anonymous": false,
      "inputs": [
        {
          "indexed": false,
          "internalType": "uint256",
          "name": "amountTransferred",
          "type": "uint256"
        }
      ],
      "name": "UpgradeFinalized",
      "type": "event"
    },
    {
      "anonymous": false,
      "inputs": [
        {
          "indexed": false,
          "internalType": "address",
          "name": "newRewardsContract",
          "type": "address"
        }
      ],
      "name": "UpgradeInitiated",
      "type": "event"
    },
    {
      "constant": false,
      "inputs": [
        {
          "internalType": "uint256",
          "name": "interval",
          "type": "uint256"
        }
      ],
      "name": "allocateRewards",
      "outputs": [],
      "payable": false,
      "stateMutability": "nonpayable",
      "type": "function"
    },
    {
      "constant": true,
      "inputs": [],
      "name": "dispensedRewards",
      "outputs": [
        {
          "internalType": "uint256",
          "name": "",
          "type": "uint256"
        }
      ],
      "payable": false,
      "stateMutability": "view",
      "type": "function"
    },
    {
      "constant": true,
      "inputs": [
        {
          "internalType": "bytes32",
          "name": "_keep",
          "type": "bytes32"
        }
      ],
      "name": "eligibleButTerminated",
      "outputs": [
        {
          "internalType": "bool",
          "name": "",
          "type": "bool"
        }
      ],
      "payable": false,
      "stateMutability": "view",
      "type": "function"
    },
    {
      "constant": true,
      "inputs": [
        {
          "internalType": "uint256",
          "name": "interval",
          "type": "uint256"
        }
      ],
      "name": "endOf",
      "outputs": [
        {
          "internalType": "uint256",
          "name": "",
          "type": "uint256"
        }
      ],
      "payable": false,
      "stateMutability": "view",
      "type": "function"
    },
    {
      "constant": false,
      "inputs": [],
      "name": "finalizeRewardsUpgrade",
      "outputs": [],
      "payable": false,
      "stateMutability": "nonpayable",
      "type": "function"
    },
    {
      "constant": true,
      "inputs": [],
      "name": "firstIntervalStart",
      "outputs": [
        {
          "internalType": "uint256",
          "name": "",
          "type": "uint256"
        }
      ],
      "payable": false,
      "stateMutability": "view",
      "type": "function"
    },
    {
      "constant": true,
      "inputs": [],
      "name": "funded",
      "outputs": [
        {
          "internalType": "bool",
          "name": "",
          "type": "bool"
        }
      ],
      "payable": false,
      "stateMutability": "view",
      "type": "function"
    },
    {
      "constant": true,
      "inputs": [
        {
          "internalType": "uint256",
          "name": "interval",
          "type": "uint256"
        }
      ],
      "name": "getAllocatedRewards",
      "outputs": [
        {
          "internalType": "uint256",
          "name": "",
          "type": "uint256"
        }
      ],
      "payable": false,
      "stateMutability": "view",
      "type": "function"
    },
    {
      "constant": true,
      "inputs": [],
      "name": "getIntervalCount",
      "outputs": [
        {
          "internalType": "uint256",
          "name": "",
          "type": "uint256"
        }
      ],
      "payable": false,
      "stateMutability": "view",
      "type": "function"
    },
    {
      "constant": true,
      "inputs": [
        {
          "internalType": "uint256",
          "name": "interval",
          "type": "uint256"
        }
      ],
      "name": "getIntervalWeight",
      "outputs": [
        {
          "internalType": "uint256",
          "name": "",
          "type": "uint256"
        }
      ],
      "payable": false,
      "stateMutability": "view",
      "type": "function"
    },
    {
      "constant": false,
      "inputs": [
        {
          "internalType": "address",
          "name": "_newRewardsContract",
          "type": "address"
        }
      ],
      "name": "initiateRewardsUpgrade",
      "outputs": [],
      "payable": false,
      "stateMutability": "nonpayable",
      "type": "function"
    },
    {
      "constant": true,
      "inputs": [
        {
          "internalType": "uint256",
          "name": "",
          "type": "uint256"
        }
      ],
      "name": "intervalKeepsProcessed",
      "outputs": [
        {
          "internalType": "uint256",
          "name": "",
          "type": "uint256"
        }
      ],
      "payable": false,
      "stateMutability": "view",
      "type": "function"
    },
    {
      "constant": true,
      "inputs": [
        {
          "internalType": "uint256",
          "name": "timestamp",
          "type": "uint256"
        }
      ],
      "name": "intervalOf",
      "outputs": [
        {
          "internalType": "uint256",
          "name": "",
          "type": "uint256"
        }
      ],
      "payable": false,
      "stateMutability": "view",
      "type": "function"
    },
    {
      "constant": true,
      "inputs": [
        {
          "internalType": "uint256",
          "name": "",
          "type": "uint256"
        }
      ],
      "name": "intervalWeights",
      "outputs": [
        {
          "internalType": "uint256",
          "name": "",
          "type": "uint256"
        }
      ],
      "payable": false,
      "stateMutability": "view",
      "type": "function"
    },
    {
      "constant": true,
      "inputs": [
        {
          "internalType": "uint256",
          "name": "interval",
          "type": "uint256"
        }
      ],
      "name": "isAllocated",
      "outputs": [
        {
          "internalType": "bool",
          "name": "",
          "type": "bool"
        }
      ],
      "payable": false,
      "stateMutability": "view",
      "type": "function"
    },
    {
      "constant": true,
      "inputs": [
        {
          "internalType": "uint256",
          "name": "interval",
          "type": "uint256"
        }
      ],
      "name": "isFinished",
      "outputs": [
        {
          "internalType": "bool",
          "name": "",
          "type": "bool"
        }
      ],
      "payable": false,
      "stateMutability": "view",
      "type": "function"
    },
    {
      "constant": true,
      "inputs": [],
      "name": "isOwner",
      "outputs": [
        {
          "internalType": "bool",
          "name": "",
          "type": "bool"
        }
      ],
      "payable": false,
      "stateMutability": "view",
      "type": "function"
    },
    {
      "constant": false,
      "inputs": [
        {
          "internalType": "uint256",
          "name": "interval",
          "type": "uint256"
        }
      ],
      "name": "keepsInInterval",
      "outputs": [
        {
          "internalType": "uint256",
          "name": "",
          "type": "uint256"
        }
      ],
      "payable": false,
      "stateMutability": "nonpayable",
      "type": "function"
    },
    {
      "constant": false,
      "inputs": [],
      "name": "markAsFunded",
      "outputs": [],
      "payable": false,
      "stateMutability": "nonpayable",
      "type": "function"
    },
    {
      "constant": true,
      "inputs": [],
      "name": "minimumKeepsPerInterval",
      "outputs": [
        {
          "internalType": "uint256",
          "name": "",
          "type": "uint256"
        }
      ],
      "payable": false,
      "stateMutability": "view",
      "type": "function"
    },
    {
      "constant": true,
      "inputs": [],
      "name": "newRewardsContract",
      "outputs": [
        {
          "internalType": "address",
          "name": "",
          "type": "address"
        }
      ],
      "payable": false,
      "stateMutability": "view",
      "type": "function"
    },
    {
      "constant": true,
      "inputs": [],
      "name": "owner",
      "outputs": [
        {
          "internalType": "address",
          "name": "",
          "type": "address"
        }
      ],
      "payable": false,
      "stateMutability": "view",
      "type": "function"
    },
    {
      "constant": false,
      "inputs": [
        {
          "internalType": "address",
          "name": "_from",
          "type": "address"
        },
        {
          "internalType": "uint256",
          "name": "_value",
          "type": "uint256"
        },
        {
          "internalType": "address",
          "name": "_token",
          "type": "address"
        },
        {
          "internalType": "bytes",
          "name": "",
          "type": "bytes"
        }
      ],
      "name": "receiveApproval",
      "outputs": [],
      "payable": false,
      "stateMutability": "nonpayable",
      "type": "function"
    },
    {
      "constant": false,
      "inputs": [],
      "name": "renounceOwnership",
      "outputs": [],
      "payable": false,
      "stateMutability": "nonpayable",
      "type": "function"
    },
    {
      "constant": true,
      "inputs": [
        {
          "internalType": "bytes32",
          "name": "_keep",
          "type": "bytes32"
        }
      ],
      "name": "rewardClaimed",
      "outputs": [
        {
          "internalType": "bool",
          "name": "",
          "type": "bool"
        }
      ],
      "payable": false,
      "stateMutability": "view",
      "type": "function"
    },
    {
      "constant": true,
      "inputs": [
        {
          "internalType": "uint256",
          "name": "interval",
          "type": "uint256"
        }
      ],
      "name": "startOf",
      "outputs": [
        {
          "internalType": "uint256",
          "name": "",
          "type": "uint256"
        }
      ],
      "payable": false,
      "stateMutability": "view",
      "type": "function"
    },
    {
      "constant": true,
      "inputs": [],
      "name": "termLength",
      "outputs": [
        {
          "internalType": "uint256",
          "name": "",
          "type": "uint256"
        }
      ],
      "payable": false,
      "stateMutability": "view",
      "type": "function"
    },
    {
      "constant": true,
      "inputs": [],
      "name": "token",
      "outputs": [
        {
          "internalType": "contract KeepToken",
          "name": "",
          "type": "address"
        }
      ],
      "payable": false,
      "stateMutability": "view",
      "type": "function"
    },
    {
      "constant": true,
      "inputs": [],
      "name": "totalRewards",
      "outputs": [
        {
          "internalType": "uint256",
          "name": "",
          "type": "uint256"
        }
      ],
      "payable": false,
      "stateMutability": "view",
      "type": "function"
    },
    {
      "constant": false,
      "inputs": [
        {
          "internalType": "address",
          "name": "newOwner",
          "type": "address"
        }
      ],
      "name": "transferOwnership",
      "outputs": [],
      "payable": false,
      "stateMutability": "nonpayable",
      "type": "function"
    },
    {
      "constant": true,
      "inputs": [],
      "name": "unallocatedRewards",
      "outputs": [
        {
          "internalType": "uint256",
          "name": "",
          "type": "uint256"
        }
      ],
      "payable": false,
      "stateMutability": "view",
      "type": "function"
    },
    {
      "constant": true,
      "inputs": [],
      "name": "upgradeFinalizedTimestamp",
      "outputs": [
        {
          "internalType": "uint256",
          "name": "",
          "type": "uint256"
        }
      ],
      "payable": false,
      "stateMutability": "view",
      "type": "function"
    },
    {
      "constant": true,
      "inputs": [],
      "name": "upgradeInitiatedTimestamp",
      "outputs": [
        {
          "internalType": "uint256",
          "name": "",
          "type": "uint256"
        }
      ],
      "payable": false,
      "stateMutability": "view",
      "type": "function"
    },
    {
      "constant": false,
      "inputs": [
        {
          "internalType": "bytes32",
          "name": "keepIdentifier",
          "type": "bytes32"
        }
      ],
      "name": "receiveReward",
      "outputs": [],
      "payable": false,
      "stateMutability": "nonpayable",
      "type": "function"
    },
    {
      "constant": false,
      "inputs": [
        {
          "internalType": "uint256",
          "name": "i",
          "type": "uint256"
        }
      ],
      "name": "receiveReward",
      "outputs": [],
      "payable": false,
      "stateMutability": "nonpayable",
      "type": "function"
    },
    {
      "constant": false,
      "inputs": [
        {
          "internalType": "bytes32[]",
          "name": "keepIdentifiers",
          "type": "bytes32[]"
        }
      ],
      "name": "receiveRewards",
      "outputs": [],
      "payable": false,
      "stateMutability": "nonpayable",
      "type": "function"
    },
    {
      "constant": false,
      "inputs": [
        {
          "internalType": "uint256[]",
          "name": "identifiers",
          "type": "uint256[]"
        }
      ],
      "name": "receiveRewards",
      "outputs": [],
      "payable": false,
      "stateMutability": "nonpayable",
      "type": "function"
    },
    {
      "constant": false,
      "inputs": [
        {
          "internalType": "bytes32",
          "name": "keepIdentifier",
          "type": "bytes32"
        }
      ],
      "name": "reportTermination",
      "outputs": [],
      "payable": false,
      "stateMutability": "nonpayable",
      "type": "function"
    },
    {
      "constant": false,
      "inputs": [
        {
          "internalType": "uint256",
          "name": "i",
          "type": "uint256"
        }
      ],
      "name": "reportTermination",
      "outputs": [],
      "payable": false,
      "stateMutability": "nonpayable",
      "type": "function"
    },
    {
      "constant": false,
      "inputs": [
        {
          "internalType": "uint256[]",
          "name": "identifiers",
          "type": "uint256[]"
        }
      ],
      "name": "reportTerminations",
      "outputs": [],
      "payable": false,
      "stateMutability": "nonpayable",
      "type": "function"
    },
    {
      "constant": false,
      "inputs": [
        {
          "internalType": "bytes32[]",
          "name": "keepIdentifiers",
          "type": "bytes32[]"
        }
      ],
      "name": "reportTerminations",
      "outputs": [],
      "payable": false,
      "stateMutability": "nonpayable",
      "type": "function"
    },
    {
      "constant": true,
      "inputs": [
        {
          "internalType": "bytes32",
          "name": "_keep",
          "type": "bytes32"
        }
      ],
      "name": "eligibleForReward",
      "outputs": [
        {
          "internalType": "bool",
          "name": "",
          "type": "bool"
        }
      ],
      "payable": false,
      "stateMutability": "view",
      "type": "function"
    },
    {
      "constant": true,
      "inputs": [
        {
          "internalType": "uint256",
          "name": "i",
          "type": "uint256"
        }
      ],
      "name": "eligibleForReward",
      "outputs": [
        {
          "internalType": "bool",
          "name": "",
          "type": "bool"
        }
      ],
      "payable": false,
      "stateMutability": "view",
      "type": "function"
    },
    {
      "constant": true,
      "inputs": [
        {
          "internalType": "uint256",
          "name": "i",
          "type": "uint256"
        }
      ],
      "name": "eligibleButTerminatedWithUint",
      "outputs": [
        {
          "internalType": "bool",
          "name": "",
          "type": "bool"
        }
      ],
      "payable": false,
      "stateMutability": "view",
      "type": "function"
    },
    {
      "constant": true,
      "inputs": [
        {
          "internalType": "uint256",
          "name": "intervalEndpoint",
          "type": "uint256"
        }
      ],
      "name": "findEndpoint",
      "outputs": [
        {
          "internalType": "uint256",
          "name": "",
          "type": "uint256"
        }
      ],
      "payable": false,
      "stateMutability": "view",
      "type": "function"
    },
    {
      "constant": false,
      "inputs": [
        {
          "internalType": "uint256",
          "name": "interval",
          "type": "uint256"
        }
      ],
      "name": "getEndpoint",
      "outputs": [
        {
          "internalType": "uint256",
          "name": "",
          "type": "uint256"
        }
      ],
      "payable": false,
      "stateMutability": "nonpayable",
      "type": "function"
    },
    {
      "constant": true,
      "inputs": [
        {
          "internalType": "uint256",
          "name": "interval",
          "type": "uint256"
        }
      ],
      "name": "baseAllocation",
      "outputs": [
        {
          "internalType": "uint256",
          "name": "",
          "type": "uint256"
        }
      ],
      "payable": false,
      "stateMutability": "view",
      "type": "function"
    },
    {
      "constant": false,
      "inputs": [
        {
          "internalType": "uint256",
          "name": "interval",
          "type": "uint256"
        }
      ],
      "name": "adjustedAllocation",
      "outputs": [
        {
          "internalType": "uint256",
          "name": "",
          "type": "uint256"
        }
      ],
      "payable": false,
      "stateMutability": "nonpayable",
      "type": "function"
    },
    {
      "constant": false,
      "inputs": [
        {
          "internalType": "uint256",
          "name": "interval",
          "type": "uint256"
        }
      ],
      "name": "rewardPerKeep",
      "outputs": [
        {
          "internalType": "uint256",
          "name": "",
          "type": "uint256"
        }
      ],
      "payable": false,
      "stateMutability": "nonpayable",
      "type": "function"
    },
    {
      "constant": false,
      "inputs": [
        {
          "internalType": "uint256",
          "name": "i",
          "type": "uint256"
        }
      ],
      "name": "terminate",
      "outputs": [],
      "payable": false,
      "stateMutability": "nonpayable",
      "type": "function"
    },
    {
      "constant": false,
      "inputs": [
        {
          "internalType": "uint256",
          "name": "i",
          "type": "uint256"
        }
      ],
      "name": "setCloseTime",
      "outputs": [],
      "payable": false,
      "stateMutability": "nonpayable",
      "type": "function"
    }
  ],
  "bytecode": "0x60806040526000600d60006101000a81548160ff0219169083151502179055503480156200002c57600080fd5b5060405162003bba38038062003bba833981810160405260c08110156200005257600080fd5b81019080805190602001909291908051906020019092919080519060200190929190805160405193929190846401000000008211156200009157600080fd5b83820191506020820185811115620000a857600080fd5b8251866020820283011164010000000082111715620000c657600080fd5b8083526020830192505050908051906020019060200280838360005b83811015620000ff578082015181840152602081019050620000e2565b50505050905001604052602001805160405193929190846401000000008211156200012957600080fd5b838201915060208201858111156200014057600080fd5b82518660208202830111640100000000821117156200015e57600080fd5b8083526020830192505050908051906020019060200280838360005b83811015620001975780820151818401526020810190506200017a565b50505050905001604052602001805190602001909291905050508584848388620001c66200031a60201b60201c565b6000806101000a81548173ffffffffffffffffffffffffffffffffffffffff021916908373ffffffffffffffffffffffffffffffffffffffff1602179055506000809054906101000a900473ffffffffffffffffffffffffffffffffffffffff1673ffffffffffffffffffffffffffffffffffffffff16600073ffffffffffffffffffffffffffffffffffffffff167f8be0079c531659141344cd1fd0a4f28419497f9722a3daafe3b4186f6b6457e060405160405180910390a384600160006101000a81548173ffffffffffffffffffffffffffffffffffffffff021916908373ffffffffffffffffffffffffffffffffffffffff160217905550836008819055508260029080519060200190620002e192919062000322565b508160038190555080600481905550505050505081601190805190602001906200030d92919062000322565b505050505050506200039c565b600033905090565b82805482825590600052602060002090810192821562000361579160200282015b828111156200036057825182559160200191906001019062000343565b5b50905062000370919062000374565b5090565b6200039991905b80821115620003955760008160009055506001016200037b565b5090565b90565b61380e80620003ac6000396000f3fe608060405234801561001057600080fd5b50600436106102f15760003560e01c80638f4ffcb11161019d578063b41e7f47116100e9578063e1fcd5e8116100a2578063ee5c1c2c1161007c578063ee5c1c2c14610f41578063f2fde38b14610f87578063f3a504f214610fcb578063fc0c546a14610fed576102f1565b8063e1fcd5e814610ed3578063e27000e714610ef1578063e8ba650914610efb576102f1565b8063b41e7f4714610d89578063b965933e14610dcb578063c70cee6a14610e0d578063ce21d8cf14610e2b578063ce2830ad14610e6f578063ce2b3e3c14610eb5576102f1565b8063a3221c0711610156578063ae10d5ea11610130578063ae10d5ea14610c95578063aeae364d14610cc3578063af3e791a14610d05578063b369af7114610d47576102f1565b8063a3221c0714610b6d578063aa5c63a914610baf578063ab7239c014610bdd576102f1565b80638f4ffcb11461096257806392672b3514610a67578063937bbc4a14610aa95780639513152614610aeb57806395aeca4814610b0957806397a1e43414610b27576102f1565b80634611ae041161025c57806375b09c551161021557806381b83c33116101ef57806381b83c331461087e57806386d954c0146108c85780638da5cb5b146108f65780638f32d59b14610940576102f1565b806375b09c55146107f057806379b18cd1146108325780637a828b2814610850576102f1565b80634611ae04146105c057806368ec9c42146106065780636a823878146106345780636c21aba714610676578063715018a61461072e57806373c6d86214610738576102f1565b806328fc33c7116102ae57806328fc33c71461040a5780632b6fdc7e1461043857806335c9ef711461045657806336544951146104985780633be3a3f5146104da5780634501631214610508576102f1565b80630a1bb1b1146102f65780630da8882f1461033c5780630e15561a1461034657806312f570631461036457806317531d9c146103aa578063183affa1146103ec575b600080fd5b6103226004803603602081101561030c57600080fd5b8101908080359060200190929190505050611037565b604051808215151515815260200191505060405180910390f35b61034461104d565b005b61034e6110e4565b6040518082815260200191505060405180910390f35b6103906004803603602081101561037a57600080fd5b81019080803590602001909291905050506110ea565b604051808215151515815260200191505060405180910390f35b6103d6600480360360208110156103c057600080fd5b810190808035906020019092919050505061111f565b6040518082815260200191505060405180910390f35b6103f4611131565b6040518082815260200191505060405180910390f35b6104366004803603602081101561042057600080fd5b810190808035906020019092919050505061113e565b005b61044061133b565b6040518082815260200191505060405180910390f35b6104826004803603602081101561046c57600080fd5b8101908080359060200190929190505050611341565b6040518082815260200191505060405180910390f35b6104c4600480360360208110156104ae57600080fd5b81019080803590602001909291905050506113dc565b6040518082815260200191505060405180910390f35b610506600480360360208110156104f057600080fd5b8101908080359060200190929190505050611432565b005b6105be6004803603602081101561051e57600080fd5b810190808035906020019064010000000081111561053b57600080fd5b82018360208201111561054d57600080fd5b8035906020019184602083028401116401000000008311171561056f57600080fd5b919080806020026020016040519081016040528093929190818152602001838360200280828437600081840152601f19601f82011690508083019250505050505050919291929050505061143c565b005b6105ec600480360360208110156105d657600080fd5b8101908080359060200190929190505050611478565b604051808215151515815260200191505060405180910390f35b6106326004803603602081101561061c57600080fd5b810190808035906020019092919050505061148d565b005b6106606004803603602081101561064a57600080fd5b8101908080359060200190929190505050611613565b6040518082815260200191505060405180910390f35b61072c6004803603602081101561068c57600080fd5b81019080803590602001906401000000008111156106a957600080fd5b8201836020820111156106bb57600080fd5b803590602001918460208302840111640100000000831117156106dd57600080fd5b919080806020026020016040519081016040528093929190818152602001838360200280828437600081840152601f19601f82011690508083019250505050505050919291929050505061162b565b005b6107366116bf565b005b6107ee6004803603602081101561074e57600080fd5b810190808035906020019064010000000081111561076b57600080fd5b82018360208201111561077d57600080fd5b8035906020019184602083028401116401000000008311171561079f57600080fd5b919080806020026020016040519081016040528093929190818152602001838360200280828437600081840152601f19601f8201169050808301925050505050505091929192905050506117f8565b005b61081c6004803603602081101561080657600080fd5b810190808035906020019092919050505061188c565b6040518082815260200191505060405180910390f35b61083a6118e1565b6040518082815260200191505060405180910390f35b61087c6004803603602081101561086657600080fd5b81019080803590602001909291905050506118e7565b005b610886611916565b604051808273ffffffffffffffffffffffffffffffffffffffff1673ffffffffffffffffffffffffffffffffffffffff16815260200191505060405180910390f35b6108f4600480360360208110156108de57600080fd5b810190808035906020019092919050505061193c565b005b6108fe611ac2565b604051808273ffffffffffffffffffffffffffffffffffffffff1673ffffffffffffffffffffffffffffffffffffffff16815260200191505060405180910390f35b610948611aeb565b604051808215151515815260200191505060405180910390f35b610a656004803603608081101561097857600080fd5b81019080803573ffffffffffffffffffffffffffffffffffffffff16906020019092919080359060200190929190803573ffffffffffffffffffffffffffffffffffffffff169060200190929190803590602001906401000000008111156109df57600080fd5b8201836020820111156109f157600080fd5b80359060200191846001830284011164010000000083111715610a1357600080fd5b91908080601f016020809104026020016040519081016040528093929190818152602001838380828437600081840152601f19601f820116905080830192505050505050509192919290505050611b49565b005b610a9360048036036020811015610a7d57600080fd5b8101908080359060200190929190505050611e0e565b6040518082815260200191505060405180910390f35b610ad560048036036020811015610abf57600080fd5b8101908080359060200190929190505050611e2f565b6040518082815260200191505060405180910390f35b610af3611e41565b6040518082815260200191505060405180910390f35b610b11611e47565b6040518082815260200191505060405180910390f35b610b5360048036036020811015610b3d57600080fd5b8101908080359060200190929190505050611e4d565b604051808215151515815260200191505060405180910390f35b610b9960048036036020811015610b8357600080fd5b8101908080359060200190929190505050611e70565b6040518082815260200191505060405180910390f35b610bdb60048036036020811015610bc557600080fd5b8101908080359060200190929190505050611e82565b005b610c9360048036036020811015610bf357600080fd5b8101908080359060200190640100000000811115610c1057600080fd5b820183602082011115610c2257600080fd5b80359060200191846020830284011164010000000083111715610c4457600080fd5b919080806020026020016040519081016040528093929190818152602001838360200280828437600081840152601f19601f820116905080830192505050505050509192919290505050611e91565b005b610cc160048036036020811015610cab57600080fd5b8101908080359060200190929190505050611ecd565b005b610cef60048036036020811015610cd957600080fd5b8101908080359060200190929190505050611edc565b6040518082815260200191505060405180910390f35b610d3160048036036020811015610d1b57600080fd5b8101908080359060200190929190505050611f08565b6040518082815260200191505060405180910390f35b610d7360048036036020811015610d5d57600080fd5b8101908080359060200190929190505050611f1a565b6040518082815260200191505060405180910390f35b610db560048036036020811015610d9f57600080fd5b8101908080359060200190929190505050611f77565b6040518082815260200191505060405180910390f35b610df760048036036020811015610de157600080fd5b8101908080359060200190929190505050611fa9565b6040518082815260200191505060405180910390f35b610e15611fce565b6040518082815260200191505060405180910390f35b610e6d60048036036020811015610e4157600080fd5b81019080803573ffffffffffffffffffffffffffffffffffffffff169060200190929190505050611fd4565b005b610e9b60048036036020811015610e8557600080fd5b810190808035906020019092919050505061211e565b604051808215151515815260200191505060405180910390f35b610ebd612148565b6040518082815260200191505060405180910390f35b610edb61214e565b6040518082815260200191505060405180910390f35b610ef9612154565b005b610f2760048036036020811015610f1157600080fd5b8101908080359060200190929190505050612567565b604051808215151515815260200191505060405180910390f35b610f6d60048036036020811015610f5757600080fd5b810190808035906020019092919050505061257c565b604051808215151515815260200191505060405180910390f35b610fc960048036036020811015610f9d57600080fd5b81019080803573ffffffffffffffffffffffffffffffffffffffff169060200190929190505050612591565b005b610fd3612617565b604051808215151515815260200191505060405180910390f35b610ff561262a565b604051808273ffffffffffffffffffffffffffffffffffffffff1673ffffffffffffffffffffffffffffffffffffffff16815260200191505060405180910390f35b6000806009805490509050808310915050919050565b611055611aeb565b6110c7576040517f08c379a00000000000000000000000000000000000000000000000000000000081526004018080602001828103825260208152602001807f4f776e61626c653a2063616c6c6572206973206e6f7420746865206f776e657281525060200191505060405180910390fd5b6001600d60006101000a81548160ff021916908315150217905550565b60055481565b60006110f582612650565b8015611106575061110582612666565b5b801561111857506111168261211e565b155b9050919050565b600061112a8261267d565b9050919050565b6000600280549050905090565b8061114881612567565b6111ba576040517f08c379a00000000000000000000000000000000000000000000000000000000081526004018080602001828103825260198152602001807f496e74657276616c206861736e277420656e646564207965740000000000000081525060200191505060405180910390fd5b600d60009054906101000a900460ff1661123c576040517f08c379a00000000000000000000000000000000000000000000000000000000081526004018080602001828103825260208152602001807f436f6e747261637420686173206e6f74206265656e2066756e6465642079657481525060200191505060405180910390fd5b60006009805490509050808310156112bc576040517f08c379a000000000000000000000000000000000000000000000000000000000815260040180806020018281038252601a8152602001807f496e74657276616c20616c726561647920616c6c6f636174656400000000000081525060200191505060405180910390fd5b808311156112e1576112e06112db6001856126c190919063ffffffff16565b61113e565b5b60006112ec8461270b565b9050611303816006546126c190919063ffffffff16565b600681905550600981908060018154018082558091505090600182039060005260206000200160009091929091909150555050505050565b60065481565b600060098054905082106113bd576040517f08c379a000000000000000000000000000000000000000000000000000000000815260040180806020018281038252601a8152602001807f496e74657276616c206e6f7420616c6c6f63617465642079657400000000000081525060200191505060405180910390fd5b600982815481106113ca57fe5b90600052602060002001549050919050565b600060028054905082101561140a57600282815481106113f857fe5b9060005260206000200154905061142d565b60026001600280549050038154811061141f57fe5b906000526020600020015490505b919050565b8060128190555050565b60008090505b81518110156114745761146782828151811061145a57fe5b602002602001015161148d565b8080600101915050611442565b5050565b60006114868260001b6110ea565b9050919050565b8061149781612650565b611509576040517f08c379a000000000000000000000000000000000000000000000000000000000815260040180806020018281038252601e8152602001807f4b656570206e6f74207265636f676e697a656420627920666163746f7279000081525060200191505060405180910390fd5b816115138161211e565b15611586576040517f08c379a00000000000000000000000000000000000000000000000000000000081526004018080602001828103825260178152602001807f5265776172647320616c726561647920636c61696d656400000000000000000081525060200191505060405180910390fd5b8261159081612666565b611602576040517f08c379a00000000000000000000000000000000000000000000000000000000081526004018080602001828103825260128152602001807f4b656570206973206e6f7420636c6f736564000000000000000000000000000081525060200191505060405180910390fd5b61160d60018561278e565b50505050565b600c6020528060005260406000206000915090505481565b6000815190506060816040519080825280602002602001820160405280156116625781602001602082028038833980820191505090505b50905060008090505b83518110156116b05783818151811061168057fe5b602002602001015160001b82828151811061169757fe5b602002602001018181525050808060010191505061166b565b506116ba81611e91565b505050565b6116c7611aeb565b611739576040517f08c379a00000000000000000000000000000000000000000000000000000000081526004018080602001828103825260208152602001807f4f776e61626c653a2063616c6c6572206973206e6f7420746865206f776e657281525060200191505060405180910390fd5b600073ffffffffffffffffffffffffffffffffffffffff166000809054906101000a900473ffffffffffffffffffffffffffffffffffffffff1673ffffffffffffffffffffffffffffffffffffffff167f8be0079c531659141344cd1fd0a4f28419497f9722a3daafe3b4186f6b6457e060405160405180910390a360008060006101000a81548173ffffffffffffffffffffffffffffffffffffffff021916908373ffffffffffffffffffffffffffffffffffffffff160217905550565b60008151905060608160405190808252806020026020018201604052801561182f5781602001602082028038833980820191505090505b50905060008090505b835181101561187d5783818151811061184d57fe5b602002602001015160001b82828151811061186457fe5b6020026020010181815250508080600101915050611838565b506118878161143c565b505050565b6000806118988361270b565b905060008114156118ad5760009150506118dc565b60006118b884611edc565b9050600081116118c457fe5b6118d781836128eb90919063ffffffff16565b925050505b919050565b60035481565b60016013600083815260200190815260200160002060006101000a81548160ff02191690831515021790555050565b601060009054906101000a900473ffffffffffffffffffffffffffffffffffffffff1681565b8061194681612650565b6119b8576040517f08c379a000000000000000000000000000000000000000000000000000000000815260040180806020018281038252601e8152602001807f4b656570206e6f74207265636f676e697a656420627920666163746f7279000081525060200191505060405180910390fd5b816119c28161211e565b15611a35576040517f08c379a00000000000000000000000000000000000000000000000000000000081526004018080602001828103825260178152602001807f5265776172647320616c726561647920636c61696d656400000000000000000081525060200191505060405180910390fd5b82611a3f81612935565b611ab1576040517f08c379a00000000000000000000000000000000000000000000000000000000081526004018080602001828103825260168152602001807f4b656570206973206e6f74207465726d696e617465640000000000000000000081525060200191505060405180910390fd5b611abc60008561278e565b50505050565b60008060009054906101000a900473ffffffffffffffffffffffffffffffffffffffff16905090565b60008060009054906101000a900473ffffffffffffffffffffffffffffffffffffffff1673ffffffffffffffffffffffffffffffffffffffff16611b2d612962565b73ffffffffffffffffffffffffffffffffffffffff1614905090565b600160009054906101000a900473ffffffffffffffffffffffffffffffffffffffff1673ffffffffffffffffffffffffffffffffffffffff168273ffffffffffffffffffffffffffffffffffffffff1614611c0c576040517f08c379a00000000000000000000000000000000000000000000000000000000081526004018080602001828103825260118152602001807f556e737570706f7274656420746f6b656e00000000000000000000000000000081525060200191505060405180910390fd5b611c5b843085600160009054906101000a900473ffffffffffffffffffffffffffffffffffffffff1673ffffffffffffffffffffffffffffffffffffffff1661296a909392919063ffffffff16565b6000600160009054906101000a900473ffffffffffffffffffffffffffffffffffffffff1673ffffffffffffffffffffffffffffffffffffffff166370a08231306040518263ffffffff1660e01b8152600401808273ffffffffffffffffffffffffffffffffffffffff1673ffffffffffffffffffffffffffffffffffffffff16815260200191505060206040518083038186803b158015611cfc57600080fd5b505afa158015611d10573d6000803e3d6000fd5b505050506040513d6020811015611d2657600080fd5b810190808051906020019092919050505090506000611d526007546005546126c190919063ffffffff16565b905080821015611dca576040517f08c379a000000000000000000000000000000000000000000000000000000000815260040180806020018281038252601f8152602001807f52657761726420636f6e747261637420686173206c6f737420746f6b656e730081525060200191505060405180910390fd5b6000611ddf82846126c190919063ffffffff16565b9050611df681600554612a7090919063ffffffff16565b600581905550611e0581612af8565b50505050505050565b60028181548110611e1b57fe5b906000526020600020016000915090505481565b6000611e3a82612cce565b9050919050565b600e5481565b60085481565b6000611e5882612650565b8015611e695750611e6882612935565b5b9050919050565b6000611e7b82612dba565b9050919050565b611e8e8160001b61193c565b50565b60008090505b8151811015611ec957611ebc828281518110611eaf57fe5b602002602001015161193c565b8080600101915050611e97565b5050565b611ed98160001b61148d565b50565b6000611f01611eea83612eda565b611ef384612cce565b6126c190919063ffffffff16565b9050919050565b6000611f138261270b565b9050919050565b60008060085490506000600354905081841015611f3c57600092505050611f72565b6000611f5183866126c190919063ffffffff16565b90506000611f6883836128eb90919063ffffffff16565b9050809450505050505b919050565b6000611fa2611f9160035484612f1190919063ffffffff16565b600854612a7090919063ffffffff16565b9050919050565b6000611fc7611fc2600184612a7090919063ffffffff16565b611f77565b9050919050565b60045481565b611fdc611aeb565b61204e576040517f08c379a00000000000000000000000000000000000000000000000000000000081526004018080602001828103825260208152602001807f4f776e61626c653a2063616c6c6572206973206e6f7420746865206f776e657281525060200191505060405180910390fd5b42600e8190555080601060006101000a81548173ffffffffffffffffffffffffffffffffffffffff021916908373ffffffffffffffffffffffffffffffffffffffff1602179055507f4508cb0974b8dda93dec7c130aa186db2705fcee58bc00d1334726761835aca1601060009054906101000a900473ffffffffffffffffffffffffffffffffffffffff16604051808273ffffffffffffffffffffffffffffffffffffffff1673ffffffffffffffffffffffffffffffffffffffff16815260200191505060405180910390a150565b6000600a600083815260200190815260200160002060009054906101000a900460ff169050919050565b600f5481565b60075481565b61215c611aeb565b6121ce576040517f08c379a00000000000000000000000000000000000000000000000000000000081526004018080602001828103825260208152602001807f4f776e61626c653a2063616c6c6572206973206e6f7420746865206f776e657281525060200191505060405180910390fd5b6000600e541415612247576040517f08c379a00000000000000000000000000000000000000000000000000000000081526004018080602001828103825260158152602001807f55706772616465206e6f7420696e69746961746564000000000000000000000081525060200191505060405180910390fd5b600061225242611f1a565b90506000612261600e54611f1a565b90508082116122bb576040517f08c379a000000000000000000000000000000000000000000000000000000000815260040180806020018281038252603c81526020018061379e603c913960400191505060405180910390fd5b6122d76122d26001846126c190919063ffffffff16565b611037565b6122f8576122f76122f26001846126c190919063ffffffff16565b61113e565b5b60006006549050612314816005546126c190919063ffffffff16565b60058190555060006006819055507f89f5b857dbf5a32a4fa55162349dc1146850c9b76ff05bedf3a47b3f14095c0a816040518082815260200191505060405180910390a16000600160009054906101000a900473ffffffffffffffffffffffffffffffffffffffff1673ffffffffffffffffffffffffffffffffffffffff1663cae9ca51601060009054906101000a900473ffffffffffffffffffffffffffffffffffffffff1684604051806020016040528060008152506040518463ffffffff1660e01b8152600401808473ffffffffffffffffffffffffffffffffffffffff1673ffffffffffffffffffffffffffffffffffffffff16815260200183815260200180602001828103825283818151815260200191508051906020019080838360005b83811015612454578082015181840152602081019050612439565b50505050905090810190601f1680156124815780820380516001836020036101000a031916815260200191505b50945050505050602060405180830381600087803b1580156124a257600080fd5b505af11580156124b6573d6000803e3d6000fd5b505050506040513d60208110156124cc57600080fd5b8101908080519060200190929190505050905080612552576040517f08c379a000000000000000000000000000000000000000000000000000000000815260040180806020018281038252601b8152602001807f557067726164652066696e616c697a6174696f6e206661696c6564000000000081525060200191505060405180910390fd5b6000600e8190555042600f8190555050505050565b600061257282611fa9565b4210159050919050565b600061258a8260001b611e4d565b9050919050565b612599611aeb565b61260b576040517f08c379a00000000000000000000000000000000000000000000000000000000081526004018080602001828103825260208152602001807f4f776e61626c653a2063616c6c6572206973206e6f7420746865206f776e657281525060200191505060405180910390fd5b61261481612f97565b50565b600d60009054906101000a900460ff1681565b600160009054906101000a900473ffffffffffffffffffffffffffffffffffffffff1681565b60008160001c61265e6130db565b119050919050565b6000601254612674836130e8565b11159050919050565b60008060065490506000612690846113dc565b90506126b860646126aa8385612f1190919063ffffffff16565b6128eb90919063ffffffff16565b92505050919050565b600061270383836040518060400160405280601e81526020017f536166654d6174683a207375627472616374696f6e206f766572666c6f77000081525061310c565b905092915050565b6000806127178361267d565b9050600081141561272c576000915050612789565b600061273784611edc565b90506000612747826004546131cc565b9050600081141561275e5760009350505050612789565b612783816127758486612f1190919063ffffffff16565b6128eb90919063ffffffff16565b93505050505b919050565b6000612799826130e8565b905060006127a682611f1a565b90506127b181611037565b6127bf576127be8161113e565b5b6000600982815481106127ce57fe5b9060005260206000200154905060006127e683611edc565b905060006127fd82846128eb90919063ffffffff16565b90506001600a600088815260200190815260200160002060006101000a81548160ff0219169083151502179055506128526001600c600087815260200190815260200160002054612a7090919063ffffffff16565b600c60008681526020019081526020016000208190555086156128d85761288481600754612a7090919063ffffffff16565b60078190555061289486826131e6565b7ff8fcbb083cc485f0dc726d4235dbec7c9c5c03af58254f3536275035772161708682604051808381526020018281526020019250505060405180910390a16128e2565b6128e181612af8565b5b50505050505050565b600061292d83836040518060400160405280601a81526020017f536166654d6174683a206469766973696f6e206279207a65726f000000000000815250613237565b905092915050565b6000601360008360001c815260200190815260200160002060009054906101000a900460ff169050919050565b600033905090565b612a6a848573ffffffffffffffffffffffffffffffffffffffff166323b872dd905060e01b858585604051602401808473ffffffffffffffffffffffffffffffffffffffff1673ffffffffffffffffffffffffffffffffffffffff1681526020018373ffffffffffffffffffffffffffffffffffffffff1673ffffffffffffffffffffffffffffffffffffffff1681526020018281526020019350505050604051602081830303815290604052907bffffffffffffffffffffffffffffffffffffffffffffffffffffffff19166020820180517bffffffffffffffffffffffffffffffffffffffffffffffffffffffff83818316178352505050506132fd565b50505050565b600080828401905083811015612aee576040517f08c379a000000000000000000000000000000000000000000000000000000000815260040180806020018281038252601b8152602001807f536166654d6174683a206164646974696f6e206f766572666c6f77000000000081525060200191505060405180910390fd5b8091505092915050565b6000600f5414612caf576000600160009054906101000a900473ffffffffffffffffffffffffffffffffffffffff1673ffffffffffffffffffffffffffffffffffffffff1663cae9ca51601060009054906101000a900473ffffffffffffffffffffffffffffffffffffffff1684604051806020016040528060008152506040518463ffffffff1660e01b8152600401808473ffffffffffffffffffffffffffffffffffffffff1673ffffffffffffffffffffffffffffffffffffffff16815260200183815260200180602001828103825283818151815260200191508051906020019080838360005b83811015612bfd578082015181840152602081019050612be2565b50505050905090810190601f168015612c2a5780820380516001836020036101000a031916815260200191505b50945050505050602060405180830381600087803b158015612c4b57600080fd5b505af1158015612c5f573d6000803e3d6000fd5b505050506040513d6020811015612c7557600080fd5b8101908080519060200190929190505050905080612ca957612ca282600654612a7090919063ffffffff16565b6006819055505b50612ccb565b612cc481600654612a7090919063ffffffff16565b6006819055505b50565b600081612cda81612567565b612d4c576040517f08c379a00000000000000000000000000000000000000000000000000000000081526004018080602001828103825260198152602001807f496e74657276616c206861736e277420656e646564207965740000000000000081525060200191505060405180910390fd5b6000600b60008581526020019081526020016000205490506000811415612dac576000612d80612d7b86611fa9565b612dba565b905060008114612da35780600b6000878152602001908152602001600020819055505b80935050612db0565b8092505b8292505050919050565b600042821115612e32576040517f08c379a00000000000000000000000000000000000000000000000000000000081526004018080602001828103825260198152602001807f696e74657276616c206861736e277420656e646564207965740000000000000081525060200191505060405180910390fd5b6000612e3c6130db565b90506000811415612e51576000915050612ed5565b60008090506000612e69612e6483613548565b6130e8565b9050848110612e7e5760009350505050612ed5565b6000612e946001856126c190919063ffffffff16565b90506000612ea9612ea483613548565b6130e8565b905086811015612ec0578495505050505050612ed5565b612ecd848484848b613555565b955050505050505b919050565b600080821415612eed5760009050612f0c565b612f09612f046001846126c190919063ffffffff16565b612cce565b90505b919050565b600080831415612f245760009050612f91565b6000828402905082848281612f3557fe5b0414612f8c576040517f08c379a00000000000000000000000000000000000000000000000000000000081526004018080602001828103825260218152602001806137536021913960400191505060405180910390fd5b809150505b92915050565b600073ffffffffffffffffffffffffffffffffffffffff168173ffffffffffffffffffffffffffffffffffffffff16141561301d576040517f08c379a000000000000000000000000000000000000000000000000000000000815260040180806020018281038252602681526020018061372d6026913960400191505060405180910390fd5b8073ffffffffffffffffffffffffffffffffffffffff166000809054906101000a900473ffffffffffffffffffffffffffffffffffffffff1673ffffffffffffffffffffffffffffffffffffffff167f8be0079c531659141344cd1fd0a4f28419497f9722a3daafe3b4186f6b6457e060405160405180910390a3806000806101000a81548173ffffffffffffffffffffffffffffffffffffffff021916908373ffffffffffffffffffffffffffffffffffffffff16021790555050565b6000601180549050905090565b600060118260001c815481106130fa57fe5b90600052602060002001549050919050565b60008383111582906131b9576040517f08c379a00000000000000000000000000000000000000000000000000000000081526004018080602001828103825283818151815260200191508051906020019080838360005b8381101561317e578082015181840152602081019050613163565b50505050905090810190601f1680156131ab5780820380516001836020036101000a031916815260200191505b509250505060405180910390fd5b5060008385039050809150509392505050565b6000818310156131dc57816131de565b825b905092915050565b6132333382600160009054906101000a900473ffffffffffffffffffffffffffffffffffffffff1673ffffffffffffffffffffffffffffffffffffffff166136109092919063ffffffff16565b5050565b600080831182906132e3576040517f08c379a00000000000000000000000000000000000000000000000000000000081526004018080602001828103825283818151815260200191508051906020019080838360005b838110156132a857808201518184015260208101905061328d565b50505050905090810190601f1680156132d55780820380516001836020036101000a031916815260200191505b509250505060405180910390fd5b5060008385816132ef57fe5b049050809150509392505050565b61331c8273ffffffffffffffffffffffffffffffffffffffff166136e1565b61338e576040517f08c379a000000000000000000000000000000000000000000000000000000000815260040180806020018281038252601f8152602001807f5361666545524332303a2063616c6c20746f206e6f6e2d636f6e74726163740081525060200191505060405180910390fd5b600060608373ffffffffffffffffffffffffffffffffffffffff16836040518082805190602001908083835b602083106133dd57805182526020820191506020810190506020830392506133ba565b6001836020036101000a0380198251168184511680821785525050505050509050019150506000604051808303816000865af19150503d806000811461343f576040519150601f19603f3d011682016040523d82523d6000602084013e613444565b606091505b5091509150816134bc576040517f08c379a00000000000000000000000000000000000000000000000000000000081526004018080602001828103825260208152602001807f5361666545524332303a206c6f772d6c6576656c2063616c6c206661696c656481525060200191505060405180910390fd5b600081511115613542578080602001905160208110156134db57600080fd5b8101908080519060200190929190505050613541576040517f08c379a000000000000000000000000000000000000000000000000000000000815260040180806020018281038252602a815260200180613774602a913960400191505060405180910390fd5b5b50505050565b60008160001b9050919050565b600080869050600086905060008690506000869050600061357f85846126c190919063ffffffff16565b90505b60018111156135ff5760006135b36135a46002846128eb90919063ffffffff16565b87612a7090919063ffffffff16565b905060006135c86135c383613548565b6130e8565b90508881106135dc578194508093506135e3565b8196508095505b6135f687866126c190919063ffffffff16565b92505050613582565b829550505050505095945050505050565b6136dc838473ffffffffffffffffffffffffffffffffffffffff1663a9059cbb905060e01b8484604051602401808373ffffffffffffffffffffffffffffffffffffffff1673ffffffffffffffffffffffffffffffffffffffff16815260200182815260200192505050604051602081830303815290604052907bffffffffffffffffffffffffffffffffffffffffffffffffffffffff19166020820180517bffffffffffffffffffffffffffffffffffffffffffffffffffffffff83818316178352505050506132fd565b505050565b60008060007fc5d2460186f7233c927e7db2dcc703c0e500b653ca82273b7bfad8045d85a47060001b9050833f91506000801b82141580156137235750808214155b9250505091905056fe4f776e61626c653a206e6577206f776e657220697320746865207a65726f2061646472657373536166654d6174683a206d756c7469706c69636174696f6e206f766572666c6f775361666545524332303a204552433230206f7065726174696f6e20646964206e6f742073756363656564496e74657276616c2061742077686963682074686520757067726164652077617320696e69746961746564206861736e277420656e64656420796574a265627a7a723158202d1426adc1c5e690fe7974fb7d9265e63063ce2fa3fd256289a4e72035daa35a64736f6c63430005110032",
  "source": "pragma solidity ^0.5.17;\n\nimport \"../Rewards.sol\";\n\ncontract RewardsStub is Rewards {\n    uint256[] creationTimes;\n    uint256 closedTime;\n    mapping(uint256 => bool) terminated;\n\n    constructor (\n        address _token,\n        uint256 _minimumKeepsPerInterval,\n        uint256 _firstIntervalStart,\n        uint256[] memory _intervalWeights,\n        uint256[] memory _creationTimes,\n        uint256 _termLength\n    ) public Rewards(\n        _token,\n        _firstIntervalStart,\n        _intervalWeights,\n        _termLength,\n        _minimumKeepsPerInterval\n    ) {\n        creationTimes = _creationTimes;\n    }\n\n    function receiveReward(uint256 i) public {\n        receiveReward(bytes32(i));\n    }\n\n    function receiveRewards(uint256[] memory identifiers) public {\n        uint256 len = identifiers.length;\n        bytes32[] memory bytes32identifiers = new bytes32[](len);\n        for (uint256 i = 0; i < identifiers.length; i++) {\n            bytes32identifiers[i] = bytes32(identifiers[i]);\n        }\n        receiveRewards(bytes32identifiers);\n    }\n\n    function reportTermination(uint256 i) public {\n        reportTermination(bytes32(i));\n    }\n\n    function reportTerminations(uint256[] memory identifiers) public {\n        uint256 len = identifiers.length;\n        bytes32[] memory bytes32identifiers = new bytes32[](len);\n        for (uint256 i = 0; i < identifiers.length; i++) {\n            bytes32identifiers[i] = bytes32(identifiers[i]);\n        }\n        reportTerminations(bytes32identifiers);\n    }\n\n    function eligibleForReward(uint256 i) public view returns (bool) {\n        return eligibleForReward(bytes32(i));\n    }\n\n    function eligibleButTerminatedWithUint(uint256 i) public view returns (bool) {\n        return eligibleButTerminated(bytes32(i));\n    }\n\n    function findEndpoint(uint256 intervalEndpoint) public view returns (uint256) {\n        return _findEndpoint(intervalEndpoint);\n    }\n\n    function getEndpoint(uint256 interval) public returns (uint256) {\n        return _getEndpoint(interval);\n    }\n\n    function baseAllocation(uint256 interval) public view returns (uint256) {\n        return _baseAllocation(interval);\n    }\n\n    function adjustedAllocation(uint256 interval) public returns (uint256) {\n        return _adjustedAllocation(interval);\n    }\n\n    function rewardPerKeep(uint256 interval) public returns (uint256) {\n        uint256 __adjustedAllocation = _adjustedAllocation(interval);\n        if (__adjustedAllocation == 0) {\n            return 0;\n        }\n        uint256 keepCount = keepsInInterval(interval);\n        // Adjusted allocation would be zero if keep count was zero\n        assert(keepCount > 0);\n        return __adjustedAllocation.div(keepCount);\n    }\n\n    function terminate(uint256 i) public {\n        terminated[i] = true;\n    }\n\n    function setCloseTime(uint256 i) public {\n        closedTime = i;\n    }\n\n    function _getKeepCount() internal view returns (uint256) {\n        return creationTimes.length;\n    }\n\n    function _getKeepAtIndex(uint256 i) internal view returns (bytes32) {\n        return bytes32(i);\n    }\n\n    function _getCreationTime(bytes32 groupIndexBytes) internal view returns (uint256) {\n        return creationTimes[uint256(groupIndexBytes)];\n    }\n\n    function _isClosed(bytes32 groupIndexBytes) internal view returns (bool) {\n        return _getCreationTime(groupIndexBytes) <= closedTime;\n    }\n\n    function _isTerminated(bytes32 groupIndexBytes) internal view returns (bool) {\n        return terminated[uint256(groupIndexBytes)];\n    }\n\n    function _recognizedByFactory(bytes32 groupIndexBytes) internal view returns (bool) {\n        return _getKeepCount() > uint256(groupIndexBytes);\n    }\n\n    function _distributeReward(bytes32 groupIndexBytes, uint256 _value) internal {\n        token.safeTransfer(\n            msg.sender,\n            _value\n        );\n    }\n}\n",
  "sourcePath": "/Users/konrad/Desktop/rumble/fin/local-setup/keep-core/solidity/contracts/stubs/RewardsStub.sol",
  "compiler": {
    "name": "solc",
    "version": "0.5.17+commit.d19bba13.Emscripten.clang"
  },
  "schemaVersion": "3.3.3",
  "updatedAt": "2021-04-13T12:32:13.077Z",
  "devdoc": {
    "methods": {
      "allocateRewards(uint256)": {
        "details": "The given interval must be finished and unallocated. To allocate rewards correctly, any earlier intervals that are still unallocated will be allocated before the given interval. With reasonable interval lengths this should not pose a problem, and if allocating a later interval results in an out-of-gas issue, forcing the allocation of an earlier interval should fix it.",
        "params": {
          "interval": "The interval to allocate."
        }
      },
      "eligibleButTerminated(bytes32)": {
        "params": {
          "_keep": "The keep to check."
        },
        "return": "True if the keep is terminated, false otherwise"
      },
      "eligibleForReward(bytes32)": {
        "details": "Keeps that close dishonorably or early are not eligible for rewards.",
        "params": {
          "_keep": "The keep to check."
        },
        "return": "True if the keep is eligible, false otherwise"
      },
      "endOf(uint256)": {
        "details": "The end of an interval is exclusive; a keep created at the timestamp `endOf(i)` is in interval `i+1`.",
        "params": {
          "interval": "The interval whose end is queried."
        },
        "return": "The end timestamp of the interval."
      },
      "getAllocatedRewards(uint256)": {
        "details": "This function returns correct results for any allocated interval. Dividing the allocated rewards by the number of keeps in the interval will give the correct reward for a keep in the interval. However, if a keep in the interval is terminated its reward will be returned to the pool of unallocated tokens. This will not be reflected in the return value of this function.",
        "params": {
          "interval": "A previously allocated interval."
        },
        "return": "The total number of tokens allocated for keeps in the interval."
      },
      "getIntervalCount()": {
        "return": "The number of explicitly specified intervals."
      },
      "getIntervalWeight(uint256)": {
        "params": {
          "interval": "The interval."
        },
        "return": "The percentage weight of the interval."
      },
      "initiateRewardsUpgrade(address)": {
        "params": {
          "_newRewardsContract": "The address of a new rewards contract."
        }
      },
      "intervalOf(uint256)": {
        "details": "If the timestamp is before `firstIntervalStart`, the interval is 0.",
        "params": {
          "timestamp": "The timestamp whose interval is queried."
        },
        "return": "The interval of the timestamp."
      },
      "isAllocated(uint256)": {
        "params": {
          "interval": "The interval."
        },
        "return": "Whether the interval has been allocated yet."
      },
      "isFinished(uint256)": {
        "params": {
          "interval": "The interval."
        },
        "return": "Whether the interval is finished."
      },
      "isOwner()": {
        "details": "Returns true if the caller is the current owner."
      },
      "keepsInInterval(uint256)": {
        "params": {
          "interval": "The interval."
        },
        "return": "Number of keeps created in the interval."
      },
      "owner()": {
        "details": "Returns the address of the current owner."
      },
      "receiveApproval(address,uint256,address,bytes)": {
        "details": "Adds the received amount of tokens to `totalRewards` and `unallocatedRewards`. May be called at any time, even after allocating some intervals. If the contract has been upgraded, the funding will be transferred to the new contract instead. Changes to `unallocatedRewards` will take effect on subsequent interval allocations. Intended to be used with `approveAndCall`. If the reward contract has received tokens outside `approveAndCall`, this collects them as well. The following invariant should hold right after calling this function: token.balanceOf(address(this)) == totalRewards.sub(dispensedRewards).",
        "params": {
          "_from": "The original sender of the tokens. Must have approved at least `_value` tokens for the rewards contract.",
          "_token": "The token to fund the rewards in. Must match the one specified in the rewards contract.",
          "_value": "The amount of tokens to fund."
        }
      },
      "receiveReward(bytes32)": {
        "params": {
          "keepIdentifier": "A unique identifier for the keep, e.g. address or number converted to a `bytes32`."
        }
      },
      "receiveRewards(bytes32[])": {
        "params": {
          "keepIdentifiers": "An array of keep identifiers."
        }
      },
      "renounceOwnership()": {
        "details": "Leaves the contract without owner. It will not be possible to call `onlyOwner` functions anymore. Can only be called by the current owner.     * NOTE: Renouncing ownership will leave the contract without an owner, thereby removing any functionality that is only available to the owner."
      },
      "reportTermination(bytes32)": {
        "params": {
          "keepIdentifier": "The terminated keep."
        }
      },
      "reportTerminations(bytes32[])": {
        "params": {
          "keepIdentifiers": "An array of keep identifiers."
        }
      },
      "rewardClaimed(bytes32)": {
        "params": {
          "_keep": "The identifier of the keep."
        },
        "return": "True if rewards have been paid out for the keep, or its termination has been reported. False otherwise."
      },
      "startOf(uint256)": {
        "details": "The start of an interval is inclusive; a keep created at the timestamp `startOf(i)` is in interval `i`.",
        "params": {
          "interval": "The interval whose start is queried."
        },
        "return": "The start timestamp of the interval."
      },
      "transferOwnership(address)": {
        "details": "Transfers ownership of the contract to a new account (`newOwner`). Can only be called by the current owner."
      }
    }
  },
  "userdoc": {
    "methods": {
      "allocateRewards(uint256)": {
        "notice": "Allocate rewards for unallocated intervals up to and including the given interval."
      },
      "eligibleButTerminated(bytes32)": {
        "notice": "Checks if a keep is terminated and thus its rewards can be returned to the unallocated pool."
      },
      "eligibleForReward(bytes32)": {
        "notice": "Checks if a keep is eligible to receive rewards."
      },
      "endOf(uint256)": {
        "notice": "Return the timestamp corresponding to the end of the interval."
      },
      "finalizeRewardsUpgrade()": {
        "notice": "Finalizes the process of upgrading to another rewards contract by allocating all past intervals and then, transferring the not-yet-allocated tokens to a new rewards contract. Can be called only when the interval during which the upgrade was initiated ended. Before finalizing the upgrade, make sure all terminated groups are reported."
      },
      "getAllocatedRewards(uint256)": {
        "notice": "Get the total amount of tokens allocated for all keeps in the specified interval."
      },
      "getIntervalCount()": {
        "notice": "Get the number of intervals with explicitly specified weights. All subsequent intervals will have an implicit weight of 100."
      },
      "getIntervalWeight(uint256)": {
        "notice": "Return the percentage of remaining unallocated rewards that is to be allocated to the specified interval."
      },
      "initiateRewardsUpgrade(address)": {
        "notice": "Initiates the process of upgrading to another rewards contract."
      },
      "intervalOf(uint256)": {
        "notice": "Return the interval number the provided timestamp falls within."
      },
      "isAllocated(uint256)": {
        "notice": "Return whether the specified interval has been allocated."
      },
      "isFinished(uint256)": {
        "notice": "Return whether the given interval is finished."
      },
      "keepsInInterval(uint256)": {
        "notice": "Return the number of keeps created in the specified interval."
      },
      "receiveApproval(address,uint256,address,bytes)": {
        "notice": "Funds the rewards contract."
      },
      "receiveReward(bytes32)": {
        "notice": "Sends the reward for a keep to the keep members."
      },
      "receiveRewards(bytes32[])": {
        "notice": "Stakers can receive KEEP rewards from multiple keeps of their choice in one transaction to reduce total cost comparing to single calls for rewards. It is a caller responsibility to determine the cost and consumed gas when receiving rewards from multiple keeps."
      },
      "reportTermination(bytes32)": {
        "notice": "Report that the keep was terminated, and return its allocated rewards to the unallocated pool."
      },
      "reportTerminations(bytes32[])": {
        "notice": "Report about the terminated keeps in batch. All the allocated rewards in these keeps will be returned to the unallocated pool."
      },
      "rewardClaimed(bytes32)": {
        "notice": "Return whether the given keep has already claimed rewards or had its rewards reallocated due to termination."
      },
      "startOf(uint256)": {
        "notice": "Return the timestamp corresponding to the start of the interval."
      }
    }
  }
}