{
  "contractName": "RolesLookupStub",
  "abi": [
    {
      "inputs": [
        {
          "internalType": "contract TokenStaking",
          "name": "_tokenStaking",
          "type": "address"
        },
        {
          "internalType": "contract TokenGrant",
          "name": "_tokenGrant",
          "type": "address"
        }
      ],
      "payable": false,
      "stateMutability": "nonpayable",
      "type": "constructor"
    },
    {
      "constant": true,
      "inputs": [
        {
          "internalType": "address",
          "name": "tokenOwner",
          "type": "address"
        },
        {
          "internalType": "address",
          "name": "operator",
          "type": "address"
        }
      ],
      "name": "isTokenOwnerForOperator",
      "outputs": [
        {
          "internalType": "bool",
          "name": "",
          "type": "bool"
        }
      ],
      "payable": false,
      "stateMutability": "view",
      "type": "function"
    },
    {
      "constant": true,
      "inputs": [
        {
          "internalType": "address",
          "name": "grantee",
          "type": "address"
        },
        {
          "internalType": "address",
          "name": "operator",
          "type": "address"
        }
      ],
      "name": "isGranteeForOperator",
      "outputs": [
        {
          "internalType": "bool",
          "name": "",
          "type": "bool"
        }
      ],
      "payable": false,
      "stateMutability": "view",
      "type": "function"
    },
    {
      "constant": true,
      "inputs": [
        {
          "internalType": "address",
          "name": "grantee",
          "type": "address"
        },
        {
          "internalType": "address",
          "name": "operator",
          "type": "address"
        },
        {
          "internalType": "address",
          "name": "granteeContract",
          "type": "address"
        }
      ],
      "name": "isManagedGranteeForOperator",
      "outputs": [
        {
          "internalType": "bool",
          "name": "",
          "type": "bool"
        }
      ],
      "payable": false,
      "stateMutability": "view",
      "type": "function"
    },
    {
      "constant": false,
      "inputs": [
        {
          "internalType": "address",
          "name": "grantee",
          "type": "address"
        },
        {
          "internalType": "uint256",
          "name": "grantId",
          "type": "uint256"
        }
      ],
      "name": "isManagedGranteeForGrant",
      "outputs": [
        {
          "internalType": "bool",
          "name": "",
          "type": "bool"
        }
      ],
      "payable": false,
      "stateMutability": "nonpayable",
      "type": "function"
    }
  ],
  "bytecode": "0x608060405234801561001057600080fd5b50604051610c3b380380610c3b8339818101604052604081101561003357600080fd5b810190808051906020019092919080519060200190929190505050816000806101000a81548173ffffffffffffffffffffffffffffffffffffffff021916908373ffffffffffffffffffffffffffffffffffffffff16021790555080600160006101000a81548173ffffffffffffffffffffffffffffffffffffffff021916908373ffffffffffffffffffffffffffffffffffffffff1602179055505050610b5b806100e06000396000f3fe608060405234801561001057600080fd5b506004361061004c5760003560e01c806361d25c8c1461005157806363436396146100ed57806374de80e0146101695780638d2bd527146101cf575b600080fd5b6100d36004803603606081101561006757600080fd5b81019080803573ffffffffffffffffffffffffffffffffffffffff169060200190929190803573ffffffffffffffffffffffffffffffffffffffff169060200190929190803573ffffffffffffffffffffffffffffffffffffffff16906020019092919050505061024b565b604051808215151515815260200191505060405180910390f35b61014f6004803603604081101561010357600080fd5b81019080803573ffffffffffffffffffffffffffffffffffffffff169060200190929190803573ffffffffffffffffffffffffffffffffffffffff169060200190929190505050610284565b604051808215151515815260200191505060405180910390f35b6101b56004803603604081101561017f57600080fd5b81019080803573ffffffffffffffffffffffffffffffffffffffff169060200190929190803590602001909291905050506102bb565b604051808215151515815260200191505060405180910390f35b610231600480360360408110156101e557600080fd5b81019080803573ffffffffffffffffffffffffffffffffffffffff169060200190929190803573ffffffffffffffffffffffffffffffffffffffff1690602001909291905050506102f2565b604051808215151515815260200191505060405180910390f35b600061027b848484600160009054906101000a900473ffffffffffffffffffffffffffffffffffffffff16610328565b90509392505050565b60006102b38383600160009054906101000a900473ffffffffffffffffffffffffffffffffffffffff166105a2565b905092915050565b60006102ea8383600160009054906101000a900473ffffffffffffffffffffffffffffffffffffffff16610717565b905092915050565b600061032083836000809054906101000a900473ffffffffffffffffffffffffffffffffffffffff16610994565b905092915050565b60008473ffffffffffffffffffffffffffffffffffffffff168373ffffffffffffffffffffffffffffffffffffffff1663d5f520766040518163ffffffff1660e01b815260040160206040518083038186803b15801561038757600080fd5b505afa15801561039b573d6000803e3d6000fd5b505050506040513d60208110156103b157600080fd5b810190808051906020019092919050505073ffffffffffffffffffffffffffffffffffffffff161461042e576040517f08c379a0000000000000000000000000000000000000000000000000000000008152600401808060200182810382526026815260200180610b016026913960400191505060405180910390fd5b60608273ffffffffffffffffffffffffffffffffffffffff1663ca9a33ce856040518263ffffffff1660e01b8152600401808273ffffffffffffffffffffffffffffffffffffffff1673ffffffffffffffffffffffffffffffffffffffff16815260200191505060006040518083038186803b1580156104ad57600080fd5b505afa1580156104c1573d6000803e3d6000fd5b505050506040513d6000823e3d601f19601f8201168201806040525060208110156104eb57600080fd5b810190808051604051939291908464010000000082111561050b57600080fd5b8382019150602082018581111561052157600080fd5b825186602082028301116401000000008211171561053e57600080fd5b8083526020830192505050908051906020019060200280838360005b8381101561057557808201518184015260208101905061055a565b5050505090500160405250505090506105978582610a8590919063ffffffff16565b915050949350505050565b600060608273ffffffffffffffffffffffffffffffffffffffff1663ca9a33ce866040518263ffffffff1660e01b8152600401808273ffffffffffffffffffffffffffffffffffffffff1673ffffffffffffffffffffffffffffffffffffffff16815260200191505060006040518083038186803b15801561062357600080fd5b505afa158015610637573d6000803e3d6000fd5b505050506040513d6000823e3d601f19601f82011682018060405250602081101561066157600080fd5b810190808051604051939291908464010000000082111561068157600080fd5b8382019150602082018581111561069757600080fd5b82518660208202830111640100000000821117156106b457600080fd5b8083526020830192505050908051906020019060200280838360005b838110156106eb5780820151818401526020810190506106d0565b50505050905001604052505050905061070d8482610a8590919063ffffffff16565b9150509392505050565b6000808273ffffffffffffffffffffffffffffffffffffffff1663b8cc6c93856040518263ffffffff1660e01b81526004018082815260200191505060c06040518083038186803b15801561076b57600080fd5b505afa15801561077f573d6000803e3d6000fd5b505050506040513d60c081101561079557600080fd5b810190808051906020019092919080519060200190929190805190602001909291908051906020019092919080519060200190929190805190602001909291905050509550505050505060608173ffffffffffffffffffffffffffffffffffffffff166040516024016040516020818303038152906040527fd5f52076000000000000000000000000000000000000000000000000000000007bffffffffffffffffffffffffffffffffffffffffffffffffffffffff19166020820180517bffffffffffffffffffffffffffffffffffffffffffffffffffffffff83818316178352505050506040518082805190602001908083835b602083106108ae578051825260208201915060208101905060208303925061088b565b6001836020036101000a0380198251168184511680821785525050505050509050019150506000604051808303816000865af19150503d8060008114610910576040519150601f19603f3d011682016040523d82523d6000602084013e610915565b606091505b5091505060008151141561092e5760009250505061098d565b600081806020019051602081101561094557600080fd5b810190808051906020019092919050505090508073ffffffffffffffffffffffffffffffffffffffff168773ffffffffffffffffffffffffffffffffffffffff161493505050505b9392505050565b60008373ffffffffffffffffffffffffffffffffffffffff168273ffffffffffffffffffffffffffffffffffffffff166314afd79e856040518263ffffffff1660e01b8152600401808273ffffffffffffffffffffffffffffffffffffffff1673ffffffffffffffffffffffffffffffffffffffff16815260200191505060206040518083038186803b158015610a2a57600080fd5b505afa158015610a3e573d6000803e3d6000fd5b505050506040513d6020811015610a5457600080fd5b810190808051906020019092919050505073ffffffffffffffffffffffffffffffffffffffff161490509392505050565b600080600090505b8351811015610af457838181518110610aa257fe5b602002602001015173ffffffffffffffffffffffffffffffffffffffff168373ffffffffffffffffffffffffffffffffffffffff161415610ae7576001915050610afa565b8080600101915050610a8d565b50600090505b9291505056fe4e6f742061206772616e746565206f66207468652070726f766964656420636f6e7472616374a265627a7a72315820081d48d14f4215cf820c634b192c594c5883862b78002186a515d901e75a653564736f6c63430005110032",
  "source": "pragma solidity 0.5.17;\n\nimport \"../libraries/RolesLookup.sol\";\n\ncontract RolesLookupStub {\n\n    TokenStaking internal tokenStaking;\n    TokenGrant internal tokenGrant;\n\n    constructor(TokenStaking _tokenStaking, TokenGrant _tokenGrant) public {\n        tokenStaking = _tokenStaking;\n        tokenGrant = _tokenGrant;\n    }\n\n    function isTokenOwnerForOperator(\n        address tokenOwner,\n        address operator\n    ) public view returns (bool) {\n        return RolesLookup.isTokenOwnerForOperator(\n            tokenOwner,\n            operator,\n            tokenStaking\n        );\n    }\n\n    function isGranteeForOperator(\n        address grantee,\n        address operator\n    ) public view returns (bool) {\n        return RolesLookup.isGranteeForOperator(\n            grantee,\n            operator,\n            tokenGrant\n        );\n    }\n\n    function isManagedGranteeForOperator(\n        address grantee,\n        address operator,\n        address granteeContract\n    ) public view returns (bool) {\n        return RolesLookup.isManagedGranteeForOperator(\n            grantee,\n            operator,\n            granteeContract,\n            tokenGrant\n        );\n    }\n\n    function isManagedGranteeForGrant(\n        address grantee,\n        uint256 grantId\n    ) public returns (bool) {\n        return RolesLookup.isManagedGranteeForGrant(\n            grantee,\n            grantId,\n            tokenGrant\n        );\n    }\n}",
  "sourcePath": "/Users/konrad/Desktop/rumble/fin/local-setup/keep-core/solidity/contracts/stubs/RolesLookupStub.sol",
  "compiler": {
    "name": "solc",
    "version": "0.5.17+commit.d19bba13.Emscripten.clang"
  },
  "schemaVersion": "3.3.3",
  "updatedAt": "2021-04-30T08:21:45.078Z",
  "devdoc": {
    "methods": {}
  },
  "userdoc": {
    "methods": {}
  }
}