{
  "contractName": "TestSimpleBeneficiary",
  "abi": [
    {
      "constant": false,
      "inputs": [
        {
          "internalType": "uint256",
          "name": "amount",
          "type": "uint256"
        }
      ],
      "name": "__escrowSentTokens",
      "outputs": [],
      "payable": false,
      "stateMutability": "nonpayable",
      "type": "function"
    }
  ],
  "bytecode": "0x6080604052348015600f57600080fd5b5060908061001e6000396000f3fe6080604052348015600f57600080fd5b506004361060285760003560e01c80634a5f545614602d575b600080fd5b605660048036036020811015604157600080fd5b81019080803590602001909291905050506058565b005b5056fea265627a7a72315820b6db9d6948dd6c61f8177db4e53e1017b602fae1bd504d5e3f10ac5a73a4b6a864736f6c63430005110032",
  "source": "pragma solidity 0.5.17;\n\nimport \"openzeppelin-solidity/contracts/math/SafeMath.sol\";\nimport \"openzeppelin-solidity/contracts/ownership/Ownable.sol\";\nimport \"openzeppelin-solidity/contracts/token/ERC20/SafeERC20.sol\";\n\n// Simple beneficiary that does nothing when notified that it has received\n// tokens.\ncontract TestSimpleBeneficiary {\n    function __escrowSentTokens(uint256 amount) external {}\n}\n\n// CurveRewards contract mock for curvefi.\ncontract TestCurveRewards {\n    using SafeERC20 for IERC20;\n\n    IERC20 public token;\n\n    event RewardAdded(uint256 reward);\n\n    constructor(IERC20 _token) public {\n        token = _token;\n    }\n\n    function notifyRewardAmount(uint256 reward) external {\n        token.safeTransferFrom(msg.sender, address(this), reward);\n        emit RewardAdded(reward);\n    }\n}\n\n// Simple reward contract mock for testing purposes.\ncontract TestSimpleStakerRewards {\n    using SafeERC20 for IERC20;\n\n    IERC20 public token;\n\n    constructor(IERC20 _token) public {\n        token = _token;\n    }\n\n    function receiveApproval(\n        address _from,\n        uint256 _value,\n        address _token,\n        bytes memory\n    ) public {\n        token.safeTransferFrom(_from, address(this), _value);\n    }\n}\n",
  "sourcePath": "/Users/konrad/Desktop/rumble/fin/local-setup/keep-core/solidity/contracts/stubs/TestPhasedEscrowBeneficiaries.sol",
  "compiler": {
    "name": "solc",
    "version": "0.5.17+commit.d19bba13.Emscripten.clang"
  },
  "schemaVersion": "3.3.3",
  "updatedAt": "2021-04-30T08:21:45.139Z",
  "devdoc": {
    "methods": {}
  },
  "userdoc": {
    "methods": {}
  }
}