{
  "contractName": "TestArrayUtils",
  "abi": [
    {
      "constant": true,
      "inputs": [
        {
          "internalType": "uint256",
          "name": "",
          "type": "uint256"
        },
        {
          "internalType": "uint256",
          "name": "",
          "type": "uint256"
        }
      ],
      "name": "addressArrays",
      "outputs": [
        {
          "internalType": "address",
          "name": "",
          "type": "address"
        }
      ],
      "payable": false,
      "stateMutability": "view",
      "type": "function"
    },
    {
      "constant": true,
      "inputs": [
        {
          "internalType": "uint256",
          "name": "",
          "type": "uint256"
        }
      ],
      "name": "values",
      "outputs": [
        {
          "internalType": "uint256",
          "name": "",
          "type": "uint256"
        }
      ],
      "payable": false,
      "stateMutability": "view",
      "type": "function"
    },
    {
      "constant": false,
      "inputs": [],
      "name": "runCanHandleEmptyArrayTest",
      "outputs": [],
      "payable": false,
      "stateMutability": "nonpayable",
      "type": "function"
    },
    {
      "constant": false,
      "inputs": [],
      "name": "runCanRemoveAddressFromSingleElementArrayTest",
      "outputs": [],
      "payable": false,
      "stateMutability": "nonpayable",
      "type": "function"
    },
    {
      "constant": false,
      "inputs": [],
      "name": "runCanRemoveIdenticalAddressesTest",
      "outputs": [],
      "payable": false,
      "stateMutability": "nonpayable",
      "type": "function"
    },
    {
      "constant": false,
      "inputs": [],
      "name": "runCanRemoveAddressTest",
      "outputs": [],
      "payable": false,
      "stateMutability": "nonpayable",
      "type": "function"
    },
    {
      "constant": false,
      "inputs": [],
      "name": "runCanHandleEmptyValueArrayTest",
      "outputs": [],
      "payable": false,
      "stateMutability": "nonpayable",
      "type": "function"
    },
    {
      "constant": false,
      "inputs": [],
      "name": "runCanRemoveValueFromSingleElementArrayTest",
      "outputs": [],
      "payable": false,
      "stateMutability": "nonpayable",
      "type": "function"
    },
    {
      "constant": false,
      "inputs": [],
      "name": "runCanRemoveIdenticalValuesTest",
      "outputs": [],
      "payable": false,
      "stateMutability": "nonpayable",
      "type": "function"
    },
    {
      "constant": false,
      "inputs": [],
      "name": "runCanRemoveValueTest",
      "outputs": [],
      "payable": false,
      "stateMutability": "nonpayable",
      "type": "function"
    }
  ],
  "bytecode": "0x608060405234801561001057600080fd5b5061132c806100206000396000f3fe608060405234801561001057600080fd5b506004361061009e5760003560e01c80635e383d21116100665780635e383d2114610143578063836f524614610185578063a3f3479a1461018f578063e322b7bc14610199578063fd09697e146101a35761009e565b806311f263ef146100a357806332711aa0146100ad57806349e238d6146100b75780635a88b08a146100c15780635daa8c9614610139575b600080fd5b6100ab6101ad565b005b6100b561031c565b005b6100bf610392565b005b6100f7600480360360408110156100d757600080fd5b810190808035906020019092919080359060200190929190505050610440565b604051808273ffffffffffffffffffffffffffffffffffffffff1673ffffffffffffffffffffffffffffffffffffffff16815260200191505060405180910390f35b61014161048b565b005b61016f6004803603602081101561015957600080fd5b8101908080359060200190929190505050610690565b6040518082815260200191505060405180910390f35b61018d6106b1565b005b6101976107c4565b005b6101a161085e565b005b6101ab6108f8565b005b60008090506040518060c00160405280600260ff168152602001600160ff168152602001600260ff168152602001600260ff168152602001600360ff168152602001600260ff168152506004906006610207929190610f8c565b5061021d60026004610d6890919063ffffffff16565b5060008090505b6004805490508110156102635760026004828154811061024057fe5b9060005260206000200154141561025657600191505b8080600101915050610224565b5080156102bb576040517f08c379a000000000000000000000000000000000000000000000000000000000815260040180806020018281038252603e8152602001806111c7603e913960400191505060405180910390fd5b600260048054905014610319576040517f08c379a00000000000000000000000000000000000000000000000000000000081526004018080602001828103825260278152602001806112056027913960400191505060405180910390fd5b50565b61033160026004610d6890919063ffffffff16565b50600060048054905014610390576040517f08c379a00000000000000000000000000000000000000000000000000000000081526004018080602001828103825260458152602001806111826045913960600191505060405180910390fd5b565b6040518060600160405280600260ff168152602001600260ff168152602001600260ff1681525060049060036103c9929190610fde565b506103df60026004610d6890919063ffffffff16565b5060006004805490501461043e576040517f08c379a000000000000000000000000000000000000000000000000000000000815260040180806020018281038252604381526020018061122c6043913960600191505060405180910390fd5b565b6000826004811061044d57fe5b01818154811061045957fe5b906000526020600020016000915091509054906101000a900473ffffffffffffffffffffffffffffffffffffffff1681565b60008060026004811061049a57fe5b0190508073222222222222222222222222222222222222222290806001815401808255809150509060018203906000526020600020016000909192909190916101000a81548173ffffffffffffffffffffffffffffffffffffffff021916908373ffffffffffffffffffffffffffffffffffffffff160217905550508073222222222222222222222222222222222222222290806001815401808255809150509060018203906000526020600020016000909192909190916101000a81548173ffffffffffffffffffffffffffffffffffffffff021916908373ffffffffffffffffffffffffffffffffffffffff160217905550508073222222222222222222222222222222222222222290806001815401808255809150509060018203906000526020600020016000909192909190916101000a81548173ffffffffffffffffffffffffffffffffffffffff021916908373ffffffffffffffffffffffffffffffffffffffff1602179055505061062f73222222222222222222222222222222222222222282610e2790919063ffffffff16565b50600081805490501461068d576040517f08c379a000000000000000000000000000000000000000000000000000000000815260040180806020018281038252604381526020018061122c6043913960600191505060405180910390fd5b50565b6004818154811061069d57fe5b906000526020600020016000915090505481565b6000806001600481106106c057fe5b0190508073222222222222222222222222222222222222222290806001815401808255809150509060018203906000526020600020016000909192909190916101000a81548173ffffffffffffffffffffffffffffffffffffffff021916908373ffffffffffffffffffffffffffffffffffffffff1602179055505061076373222222222222222222222222222222222222222282610e2790919063ffffffff16565b5060008180549050146107c1576040517f08c379a00000000000000000000000000000000000000000000000000000000081526004018080602001828103825260428152602001806111006042913960600191505060405180910390fd5b50565b6040518060200160405280600260ff1681525060049060016107e7929190611030565b506107fd60026004610d6890919063ffffffff16565b5060006004805490501461085c576040517f08c379a000000000000000000000000000000000000000000000000000000000815260040180806020018281038252604281526020018061126f6042913960600191505060405180910390fd5b565b60008060006004811061086d57fe5b01905061089773222222222222222222222222222222222222222282610e2790919063ffffffff16565b5060008180549050146108f5576040517f08c379a00000000000000000000000000000000000000000000000000000000081526004018080602001828103825260478152602001806112b16047913960600191505060405180910390fd5b50565b60008060036004811061090757fe5b01905060008090508173222222222222222222222222222222222222222290806001815401808255809150509060018203906000526020600020016000909192909190916101000a81548173ffffffffffffffffffffffffffffffffffffffff021916908373ffffffffffffffffffffffffffffffffffffffff160217905550508173111111111111111111111111111111111111111190806001815401808255809150509060018203906000526020600020016000909192909190916101000a81548173ffffffffffffffffffffffffffffffffffffffff021916908373ffffffffffffffffffffffffffffffffffffffff160217905550508173222222222222222222222222222222222222222290806001815401808255809150509060018203906000526020600020016000909192909190916101000a81548173ffffffffffffffffffffffffffffffffffffffff021916908373ffffffffffffffffffffffffffffffffffffffff160217905550508173222222222222222222222222222222222222222290806001815401808255809150509060018203906000526020600020016000909192909190916101000a81548173ffffffffffffffffffffffffffffffffffffffff021916908373ffffffffffffffffffffffffffffffffffffffff160217905550508173333333333333333333333333333333333333333390806001815401808255809150509060018203906000526020600020016000909192909190916101000a81548173ffffffffffffffffffffffffffffffffffffffff021916908373ffffffffffffffffffffffffffffffffffffffff160217905550508173222222222222222222222222222222222222222290806001815401808255809150509060018203906000526020600020016000909192909190916101000a81548173ffffffffffffffffffffffffffffffffffffffff021916908373ffffffffffffffffffffffffffffffffffffffff16021790555050610c0c73222222222222222222222222222222222222222283610e2790919063ffffffff16565b5060008090505b8280549050811015610caf5773222222222222222222222222222222222222222273ffffffffffffffffffffffffffffffffffffffff16838281548110610c5657fe5b9060005260206000200160009054906101000a900473ffffffffffffffffffffffffffffffffffffffff1673ffffffffffffffffffffffffffffffffffffffff161415610ca257600191505b8080600101915050610c13565b508015610d07576040517f08c379a00000000000000000000000000000000000000000000000000000000081526004018080602001828103825260408152602001806111426040913960400191505060405180910390fd5b6002828054905014610d64576040517f08c379a00000000000000000000000000000000000000000000000000000000081526004018080602001828103825260278152602001806112056027913960400191505060405180910390fd5b5050565b600080600090505b8380549050811015610e1d57838181548110610d8857fe5b9060005260206000200154831415610e105760008190505b6001858054905003811015610df057846001820181548110610dbe57fe5b9060005260206000200154858281548110610dd557fe5b90600052602060002001819055508080600101915050610da0565b5083805480919060019003610e059190611082565b508080600190039150505b8080600101915050610d70565b5082905092915050565b600080600090505b8380549050811015610f8257838181548110610e4757fe5b9060005260206000200160009054906101000a900473ffffffffffffffffffffffffffffffffffffffff1673ffffffffffffffffffffffffffffffffffffffff168373ffffffffffffffffffffffffffffffffffffffff161415610f755760008190505b6001858054905003811015610f5557846001820181548110610ec957fe5b9060005260206000200160009054906101000a900473ffffffffffffffffffffffffffffffffffffffff16858281548110610f0057fe5b9060005260206000200160006101000a81548173ffffffffffffffffffffffffffffffffffffffff021916908373ffffffffffffffffffffffffffffffffffffffff1602179055508080600101915050610eab565b5083805480919060019003610f6a91906110ae565b508080600190039150505b8080600101915050610e2f565b5082905092915050565b828054828255906000526020600020908101928215610fcd579160200282015b82811115610fcc578251829060ff16905591602001919060010190610fac565b5b509050610fda91906110da565b5090565b82805482825590600052602060002090810192821561101f579160200282015b8281111561101e578251829060ff16905591602001919060010190610ffe565b5b50905061102c91906110da565b5090565b828054828255906000526020600020908101928215611071579160200282015b82811115611070578251829060ff16905591602001919060010190611050565b5b50905061107e91906110da565b5090565b8154818355818111156110a9578183600052602060002091820191016110a891906110da565b5b505050565b8154818355818111156110d5578183600052602060002091820191016110d491906110da565b5b505050565b6110fc91905b808211156110f85760008160009055506001016110e0565b5090565b9056fe4f6363757272656e6365206f66206164647265737320696e20612073696e676c6520656c656d656e742061727261792073686f756c642062652072656d6f7665642e416c6c206f6363757272656e636573206f662074686520616464726573732073686f756c642062652072656d6f7665642066726f6d207468652061727261792e456d7074792061727261792073686f756c64207374617920756e6368616e676564206f6e20617474656d707420746f2072656d6f76652076616c75652066726f6d2069742e416c6c206f6363757272656e636573206f66207468652076616c75652073686f756c642062652072656d6f7665642066726f6d207468652061727261792e4172726179206c656e6774682073686f756c64206368616e6765206163636f7264696e676c792e416c6c206f6363757272656e6365732073686f756c642062652072656d6f76656420616e64206172726179206c656e6774682073686f756c64206265636f6d6520302e4f6363757272656e6365206f6620612076616c756520696e20612073696e676c6520656c656d656e742061727261792073686f756c642062652072656d6f7665642e456d7074792061727261792073686f756c64207374617920756e6368616e676564206f6e20617474656d707420746f2072656d6f766520616464726573732066726f6d2069742ea265627a7a72315820b06ef6071345302d4a3779944fbdfefc17f083f900362d214802341646b262fd64736f6c63430005110032",
  "source": "pragma solidity 0.5.17;\n\nimport \"../utils/AddressArrayUtils.sol\";\nimport \"../utils/UintArrayUtils.sol\";\n\n\ncontract TestArrayUtils {\n\n    using AddressArrayUtils for address[];\n    using UintArrayUtils for uint256[];\n\n    address[][4] public addressArrays;\n    uint256[] public values;\n\n    function runCanHandleEmptyArrayTest() public {\n        address[] storage addresses = addressArrays[0];\n        addresses.removeAddress(0x2222222222222222222222222222222222222222);\n        require(addresses.length == 0, \"Empty array should stay unchanged on attempt to remove address from it.\");\n    }\n\n    function runCanRemoveAddressFromSingleElementArrayTest() public {\n        address[] storage addresses = addressArrays[1];\n        addresses.push(0x2222222222222222222222222222222222222222);\n        addresses.removeAddress(0x2222222222222222222222222222222222222222);\n        require(addresses.length == 0, \"Occurrence of address in a single element array should be removed.\");\n    }\n\n    function runCanRemoveIdenticalAddressesTest() public {\n        address[] storage addresses = addressArrays[2];\n        addresses.push(0x2222222222222222222222222222222222222222);\n        addresses.push(0x2222222222222222222222222222222222222222);\n        addresses.push(0x2222222222222222222222222222222222222222);\n        addresses.removeAddress(0x2222222222222222222222222222222222222222);\n        require(addresses.length == 0, \"All occurrences should be removed and array length should become 0.\");\n    }\n\n    function runCanRemoveAddressTest() public {\n        address[] storage addresses = addressArrays[3];\n        bool exists = false;\n        addresses.push(0x2222222222222222222222222222222222222222);\n        addresses.push(0x1111111111111111111111111111111111111111);\n        addresses.push(0x2222222222222222222222222222222222222222);\n        addresses.push(0x2222222222222222222222222222222222222222);\n        addresses.push(0x3333333333333333333333333333333333333333);\n        addresses.push(0x2222222222222222222222222222222222222222);\n\n        addresses.removeAddress(0x2222222222222222222222222222222222222222);\n        for (uint i = 0; i < addresses.length; i++) {\n            if (addresses[i] == 0x2222222222222222222222222222222222222222) {\n                exists = true;\n            }\n        }\n\n        require(!exists, \"All occurrences of the address should be removed from the array.\");\n        require(addresses.length == 2, \"Array length should change accordingly.\");\n    }\n\n    function runCanHandleEmptyValueArrayTest() public {\n        values.removeValue(2);\n        require(values.length == 0, \"Empty array should stay unchanged on attempt to remove value from it.\");\n    }\n\n    function runCanRemoveValueFromSingleElementArrayTest() public {\n        values = [2];\n        values.removeValue(2);\n        require(values.length == 0, \"Occurrence of a value in a single element array should be removed.\");\n    }\n\n    function runCanRemoveIdenticalValuesTest() public {\n        values = [2, 2, 2];\n        values.removeValue(2);\n        require(values.length == 0, \"All occurrences should be removed and array length should become 0.\");\n    }\n\n    function runCanRemoveValueTest() public {\n        bool exists = false;\n        values = [2, 1, 2, 2, 3, 2];\n\n        values.removeValue(2);\n        for (uint i = 0; i < values.length; i++) {\n            if (values[i] == 2) {\n                exists = true;\n            }\n        }\n\n        require(!exists, \"All occurrences of the value should be removed from the array.\");\n        require(values.length == 2, \"Array length should change accordingly.\");\n    }\n}\n",
  "sourcePath": "/Users/konrad/Desktop/rumble/fin/local-setup/keep-core/solidity/contracts/stubs/TestArrayUtils.sol",
  "compiler": {
    "name": "solc",
    "version": "0.5.17+commit.d19bba13.Emscripten.clang"
  },
  "schemaVersion": "3.3.3",
  "updatedAt": "2021-04-30T08:21:45.105Z",
  "devdoc": {
    "methods": {}
  },
  "userdoc": {
    "methods": {}
  }
}