{
  "contractName": "TestCurveRewards",
  "abi": [
    {
      "inputs": [
        {
          "internalType": "contract IERC20",
          "name": "_token",
          "type": "address"
        }
      ],
      "payable": false,
      "stateMutability": "nonpayable",
      "type": "constructor"
    },
    {
      "anonymous": false,
      "inputs": [
        {
          "indexed": false,
          "internalType": "uint256",
          "name": "reward",
          "type": "uint256"
        }
      ],
      "name": "RewardAdded",
      "type": "event"
    },
    {
      "constant": true,
      "inputs": [],
      "name": "token",
      "outputs": [
        {
          "internalType": "contract IERC20",
          "name": "",
          "type": "address"
        }
      ],
      "payable": false,
      "stateMutability": "view",
      "type": "function"
    },
    {
      "constant": false,
      "inputs": [
        {
          "internalType": "uint256",
          "name": "reward",
          "type": "uint256"
        }
      ],
      "name": "notifyRewardAmount",
      "outputs": [],
      "payable": false,
      "stateMutability": "nonpayable",
      "type": "function"
    }
  ],
  "bytecode": "0x608060405234801561001057600080fd5b506040516105ef3803806105ef8339818101604052602081101561003357600080fd5b8101908080519060200190929190505050806000806101000a81548173ffffffffffffffffffffffffffffffffffffffff021916908373ffffffffffffffffffffffffffffffffffffffff1602179055505061055b806100946000396000f3fe608060405234801561001057600080fd5b50600436106100365760003560e01c80633c6b16ab1461003b578063fc0c546a14610069575b600080fd5b6100676004803603602081101561005157600080fd5b81019080803590602001909291905050506100b3565b005b61007161013b565b604051808273ffffffffffffffffffffffffffffffffffffffff1673ffffffffffffffffffffffffffffffffffffffff16815260200191505060405180910390f35b6101013330836000809054906101000a900473ffffffffffffffffffffffffffffffffffffffff1673ffffffffffffffffffffffffffffffffffffffff16610160909392919063ffffffff16565b7fde88a922e0d3b88b24e9623efeb464919c6bf9f66857a65e2bfcf2ce87a9433d816040518082815260200191505060405180910390a150565b6000809054906101000a900473ffffffffffffffffffffffffffffffffffffffff1681565b610260848573ffffffffffffffffffffffffffffffffffffffff166323b872dd905060e01b858585604051602401808473ffffffffffffffffffffffffffffffffffffffff1673ffffffffffffffffffffffffffffffffffffffff1681526020018373ffffffffffffffffffffffffffffffffffffffff1673ffffffffffffffffffffffffffffffffffffffff1681526020018281526020019350505050604051602081830303815290604052907bffffffffffffffffffffffffffffffffffffffffffffffffffffffff19166020820180517bffffffffffffffffffffffffffffffffffffffffffffffffffffffff8381831617835250505050610266565b50505050565b6102858273ffffffffffffffffffffffffffffffffffffffff166104b1565b6102f7576040517f08c379a000000000000000000000000000000000000000000000000000000000815260040180806020018281038252601f8152602001807f5361666545524332303a2063616c6c20746f206e6f6e2d636f6e74726163740081525060200191505060405180910390fd5b600060608373ffffffffffffffffffffffffffffffffffffffff16836040518082805190602001908083835b602083106103465780518252602082019150602081019050602083039250610323565b6001836020036101000a0380198251168184511680821785525050505050509050019150506000604051808303816000865af19150503d80600081146103a8576040519150601f19603f3d011682016040523d82523d6000602084013e6103ad565b606091505b509150915081610425576040517f08c379a00000000000000000000000000000000000000000000000000000000081526004018080602001828103825260208152602001807f5361666545524332303a206c6f772d6c6576656c2063616c6c206661696c656481525060200191505060405180910390fd5b6000815111156104ab5780806020019051602081101561044457600080fd5b81019080805190602001909291905050506104aa576040517f08c379a000000000000000000000000000000000000000000000000000000000815260040180806020018281038252602a8152602001806104fd602a913960400191505060405180910390fd5b5b50505050565b60008060007fc5d2460186f7233c927e7db2dcc703c0e500b653ca82273b7bfad8045d85a47060001b9050833f91506000801b82141580156104f35750808214155b9250505091905056fe5361666545524332303a204552433230206f7065726174696f6e20646964206e6f742073756363656564a265627a7a72315820c8490cb14841a95c562e764d4b0956b1437d0d23ebb5f6d138aeaf475d785f3664736f6c63430005110032",
  "source": "pragma solidity 0.5.17;\n\nimport \"openzeppelin-solidity/contracts/math/SafeMath.sol\";\nimport \"openzeppelin-solidity/contracts/ownership/Ownable.sol\";\nimport \"openzeppelin-solidity/contracts/token/ERC20/SafeERC20.sol\";\n\n// Simple beneficiary that does nothing when notified that it has received\n// tokens.\ncontract TestSimpleBeneficiary {\n    function __escrowSentTokens(uint256 amount) external {}\n}\n\n// CurveRewards contract mock for curvefi.\ncontract TestCurveRewards {\n    using SafeERC20 for IERC20;\n\n    IERC20 public token;\n\n    event RewardAdded(uint256 reward);\n\n    constructor(IERC20 _token) public {\n        token = _token;\n    }\n\n    function notifyRewardAmount(uint256 reward) external {\n        token.safeTransferFrom(msg.sender, address(this), reward);\n        emit RewardAdded(reward);\n    }\n}\n\n// Simple reward contract mock for testing purposes.\ncontract TestSimpleStakerRewards {\n    using SafeERC20 for IERC20;\n\n    IERC20 public token;\n\n    constructor(IERC20 _token) public {\n        token = _token;\n    }\n\n    function receiveApproval(\n        address _from,\n        uint256 _value,\n        address _token,\n        bytes memory\n    ) public {\n        token.safeTransferFrom(_from, address(this), _value);\n    }\n}\n",
  "sourcePath": "/home/bless/keep-core/solidity/contracts/stubs/TestPhasedEscrowBeneficiaries.sol",
  "compiler": {
    "name": "solc",
    "version": "0.5.17+commit.d19bba13.Emscripten.clang"
  },
  "schemaVersion": "3.3.3",
  "updatedAt": "2021-01-29T15:47:02.220Z",
  "devdoc": {
    "methods": {}
  },
  "userdoc": {
    "methods": {}
  }
}