{
  "contractName": "TokenStakingEscrow",
  "abi": [
    {
      "inputs": [
        {
          "internalType": "contract KeepToken",
          "name": "_keepToken",
          "type": "address"
        },
        {
          "internalType": "contract TokenGrant",
          "name": "_tokenGrant",
          "type": "address"
        }
      ],
      "payable": false,
      "stateMutability": "nonpayable",
      "type": "constructor"
    },
    {
      "anonymous": false,
      "inputs": [
        {
          "indexed": true,
          "internalType": "address",
          "name": "previousOperator",
          "type": "address"
        },
        {
          "indexed": true,
          "internalType": "address",
          "name": "newOperator",
          "type": "address"
        },
        {
          "indexed": true,
          "internalType": "uint256",
          "name": "grantId",
          "type": "uint256"
        },
        {
          "indexed": false,
          "internalType": "uint256",
          "name": "amount",
          "type": "uint256"
        }
      ],
      "name": "DepositRedelegated",
      "type": "event"
    },
    {
      "anonymous": false,
      "inputs": [
        {
          "indexed": true,
          "internalType": "address",
          "name": "operator",
          "type": "address"
        },
        {
          "indexed": true,
          "internalType": "address",
          "name": "grantee",
          "type": "address"
        },
        {
          "indexed": false,
          "internalType": "uint256",
          "name": "amount",
          "type": "uint256"
        }
      ],
      "name": "DepositWithdrawn",
      "type": "event"
    },
    {
      "anonymous": false,
      "inputs": [
        {
          "indexed": true,
          "internalType": "address",
          "name": "operator",
          "type": "address"
        },
        {
          "indexed": true,
          "internalType": "uint256",
          "name": "grantId",
          "type": "uint256"
        },
        {
          "indexed": false,
          "internalType": "uint256",
          "name": "amount",
          "type": "uint256"
        }
      ],
      "name": "Deposited",
      "type": "event"
    },
    {
      "anonymous": false,
      "inputs": [
        {
          "indexed": true,
          "internalType": "address",
          "name": "grantManager",
          "type": "address"
        },
        {
          "indexed": false,
          "internalType": "address",
          "name": "escrow",
          "type": "address"
        }
      ],
      "name": "EscrowAuthorized",
      "type": "event"
    },
    {
      "anonymous": false,
      "inputs": [
        {
          "indexed": true,
          "internalType": "address",
          "name": "previousOwner",
          "type": "address"
        },
        {
          "indexed": true,
          "internalType": "address",
          "name": "newOwner",
          "type": "address"
        }
      ],
      "name": "OwnershipTransferred",
      "type": "event"
    },
    {
      "anonymous": false,
      "inputs": [
        {
          "indexed": true,
          "internalType": "address",
          "name": "operator",
          "type": "address"
        },
        {
          "indexed": true,
          "internalType": "address",
          "name": "grantManager",
          "type": "address"
        },
        {
          "indexed": false,
          "internalType": "uint256",
          "name": "amount",
          "type": "uint256"
        }
      ],
      "name": "RevokedDepositWithdrawn",
      "type": "event"
    },
    {
      "constant": true,
      "inputs": [],
      "name": "isOwner",
      "outputs": [
        {
          "internalType": "bool",
          "name": "",
          "type": "bool"
        }
      ],
      "payable": false,
      "stateMutability": "view",
      "type": "function"
    },
    {
      "constant": true,
      "inputs": [],
      "name": "keepToken",
      "outputs": [
        {
          "internalType": "contract IERC20",
          "name": "",
          "type": "address"
        }
      ],
      "payable": false,
      "stateMutability": "view",
      "type": "function"
    },
    {
      "constant": true,
      "inputs": [],
      "name": "owner",
      "outputs": [
        {
          "internalType": "address",
          "name": "",
          "type": "address"
        }
      ],
      "payable": false,
      "stateMutability": "view",
      "type": "function"
    },
    {
      "constant": false,
      "inputs": [],
      "name": "renounceOwnership",
      "outputs": [],
      "payable": false,
      "stateMutability": "nonpayable",
      "type": "function"
    },
    {
      "constant": true,
      "inputs": [],
      "name": "tokenGrant",
      "outputs": [
        {
          "internalType": "contract TokenGrant",
          "name": "",
          "type": "address"
        }
      ],
      "payable": false,
      "stateMutability": "view",
      "type": "function"
    },
    {
      "constant": false,
      "inputs": [
        {
          "internalType": "address",
          "name": "newOwner",
          "type": "address"
        }
      ],
      "name": "transferOwnership",
      "outputs": [],
      "payable": false,
      "stateMutability": "nonpayable",
      "type": "function"
    },
    {
      "constant": false,
      "inputs": [
        {
          "internalType": "address",
          "name": "from",
          "type": "address"
        },
        {
          "internalType": "uint256",
          "name": "value",
          "type": "uint256"
        },
        {
          "internalType": "address",
          "name": "token",
          "type": "address"
        },
        {
          "internalType": "bytes",
          "name": "extraData",
          "type": "bytes"
        }
      ],
      "name": "receiveApproval",
      "outputs": [],
      "payable": false,
      "stateMutability": "nonpayable",
      "type": "function"
    },
    {
      "constant": false,
      "inputs": [
        {
          "internalType": "address",
          "name": "previousOperator",
          "type": "address"
        },
        {
          "internalType": "uint256",
          "name": "amount",
          "type": "uint256"
        },
        {
          "internalType": "bytes",
          "name": "extraData",
          "type": "bytes"
        }
      ],
      "name": "redelegate",
      "outputs": [],
      "payable": false,
      "stateMutability": "nonpayable",
      "type": "function"
    },
    {
      "constant": true,
      "inputs": [
        {
          "internalType": "address",
          "name": "operator",
          "type": "address"
        }
      ],
      "name": "hasDeposit",
      "outputs": [
        {
          "internalType": "bool",
          "name": "",
          "type": "bool"
        }
      ],
      "payable": false,
      "stateMutability": "view",
      "type": "function"
    },
    {
      "constant": true,
      "inputs": [
        {
          "internalType": "address",
          "name": "operator",
          "type": "address"
        }
      ],
      "name": "availableAmount",
      "outputs": [
        {
          "internalType": "uint256",
          "name": "",
          "type": "uint256"
        }
      ],
      "payable": false,
      "stateMutability": "view",
      "type": "function"
    },
    {
      "constant": true,
      "inputs": [
        {
          "internalType": "address",
          "name": "operator",
          "type": "address"
        }
      ],
      "name": "depositedAmount",
      "outputs": [
        {
          "internalType": "uint256",
          "name": "",
          "type": "uint256"
        }
      ],
      "payable": false,
      "stateMutability": "view",
      "type": "function"
    },
    {
      "constant": true,
      "inputs": [
        {
          "internalType": "address",
          "name": "operator",
          "type": "address"
        }
      ],
      "name": "depositGrantId",
      "outputs": [
        {
          "internalType": "uint256",
          "name": "",
          "type": "uint256"
        }
      ],
      "payable": false,
      "stateMutability": "view",
      "type": "function"
    },
    {
      "constant": true,
      "inputs": [
        {
          "internalType": "address",
          "name": "operator",
          "type": "address"
        }
      ],
      "name": "depositWithdrawnAmount",
      "outputs": [
        {
          "internalType": "uint256",
          "name": "",
          "type": "uint256"
        }
      ],
      "payable": false,
      "stateMutability": "view",
      "type": "function"
    },
    {
      "constant": true,
      "inputs": [
        {
          "internalType": "address",
          "name": "operator",
          "type": "address"
        }
      ],
      "name": "depositRedelegatedAmount",
      "outputs": [
        {
          "internalType": "uint256",
          "name": "",
          "type": "uint256"
        }
      ],
      "payable": false,
      "stateMutability": "view",
      "type": "function"
    },
    {
      "constant": true,
      "inputs": [
        {
          "internalType": "address",
          "name": "operator",
          "type": "address"
        }
      ],
      "name": "withdrawable",
      "outputs": [
        {
          "internalType": "uint256",
          "name": "",
          "type": "uint256"
        }
      ],
      "payable": false,
      "stateMutability": "view",
      "type": "function"
    },
    {
      "constant": false,
      "inputs": [
        {
          "internalType": "address",
          "name": "operator",
          "type": "address"
        }
      ],
      "name": "withdrawToManagedGrantee",
      "outputs": [],
      "payable": false,
      "stateMutability": "nonpayable",
      "type": "function"
    },
    {
      "constant": false,
      "inputs": [
        {
          "internalType": "address",
          "name": "operator",
          "type": "address"
        },
        {
          "internalType": "address",
          "name": "receivingEscrow",
          "type": "address"
        }
      ],
      "name": "migrate",
      "outputs": [],
      "payable": false,
      "stateMutability": "nonpayable",
      "type": "function"
    },
    {
      "constant": false,
      "inputs": [
        {
          "internalType": "address",
          "name": "anotherEscrow",
          "type": "address"
        }
      ],
      "name": "authorizeEscrow",
      "outputs": [],
      "payable": false,
      "stateMutability": "nonpayable",
      "type": "function"
    },
    {
      "constant": true,
      "inputs": [
        {
          "internalType": "address",
          "name": "managedGrant",
          "type": "address"
        }
      ],
      "name": "getManagedGrantee",
      "outputs": [
        {
          "internalType": "address",
          "name": "",
          "type": "address"
        }
      ],
      "payable": false,
      "stateMutability": "view",
      "type": "function"
    },
    {
      "constant": false,
      "inputs": [
        {
          "internalType": "address",
          "name": "operator",
          "type": "address"
        }
      ],
      "name": "withdraw",
      "outputs": [],
      "payable": false,
      "stateMutability": "nonpayable",
      "type": "function"
    },
    {
      "constant": false,
      "inputs": [
        {
          "internalType": "address",
          "name": "operator",
          "type": "address"
        }
      ],
      "name": "withdrawRevoked",
      "outputs": [],
      "payable": false,
      "stateMutability": "nonpayable",
      "type": "function"
    }
  ],
  "bytecode": "0x60806040523480156200001157600080fd5b5060405162003b4d38038062003b4d833981810160405260408110156200003757600080fd5b81019080805190602001909291908051906020019092919050505062000062620001a760201b60201c565b6000806101000a81548173ffffffffffffffffffffffffffffffffffffffff021916908373ffffffffffffffffffffffffffffffffffffffff1602179055506000809054906101000a900473ffffffffffffffffffffffffffffffffffffffff1673ffffffffffffffffffffffffffffffffffffffff16600073ffffffffffffffffffffffffffffffffffffffff167f8be0079c531659141344cd1fd0a4f28419497f9722a3daafe3b4186f6b6457e060405160405180910390a381600160006101000a81548173ffffffffffffffffffffffffffffffffffffffff021916908373ffffffffffffffffffffffffffffffffffffffff16021790555080600260006101000a81548173ffffffffffffffffffffffffffffffffffffffff021916908373ffffffffffffffffffffffffffffffffffffffff1602179055505050620001af565b600033905090565b61398e80620001bf6000396000f3fe608060405234801561001057600080fd5b50600436106101375760003560e01c8063715018a6116100b8578063a6cedc841161007c578063a6cedc8414610671578063af2b5888146106c9578063ce513b6f146107ae578063d92db09f14610806578063e5dd7bcb14610850578063f2fde38b1461089457610137565b8063715018a61461049e5780637589d761146104a85780638da5cb5b146105005780638f32d59b1461054a5780638f4ffcb11461056c57610137565b8063467c5adf116100ff578063467c5adf1461031c5780634a4643f7146103665780634d6f9646146103be57806351cff8d914610402578063654259dd1461044657610137565b8063012b19731461013c5780630e6cdbdd146101c05780631068361f146102045780631c48c7ec146102685780632c5cd1ed146102c4575b600080fd5b61017e6004803603602081101561015257600080fd5b81019080803573ffffffffffffffffffffffffffffffffffffffff1690602001909291905050506108d8565b604051808273ffffffffffffffffffffffffffffffffffffffff1673ffffffffffffffffffffffffffffffffffffffff16815260200191505060405180910390f35b610202600480360360208110156101d657600080fd5b81019080803573ffffffffffffffffffffffffffffffffffffffff169060200190929190505050610967565b005b6102666004803603604081101561021a57600080fd5b81019080803573ffffffffffffffffffffffffffffffffffffffff169060200190929190803573ffffffffffffffffffffffffffffffffffffffff169060200190929190505050610acc565b005b6102aa6004803603602081101561027e57600080fd5b81019080803573ffffffffffffffffffffffffffffffffffffffff169060200190929190505050610ecb565b604051808215151515815260200191505060405180910390f35b610306600480360360208110156102da57600080fd5b81019080803573ffffffffffffffffffffffffffffffffffffffff169060200190929190505050610edf565b6040518082815260200191505060405180910390f35b610324610f2b565b604051808273ffffffffffffffffffffffffffffffffffffffff1673ffffffffffffffffffffffffffffffffffffffff16815260200191505060405180910390f35b6103a86004803603602081101561037c57600080fd5b81019080803573ffffffffffffffffffffffffffffffffffffffff169060200190929190505050610f51565b6040518082815260200191505060405180910390f35b610400600480360360208110156103d457600080fd5b81019080803573ffffffffffffffffffffffffffffffffffffffff169060200190929190505050610f9d565b005b6104446004803603602081101561041857600080fd5b81019080803573ffffffffffffffffffffffffffffffffffffffff169060200190929190505050611152565b005b6104886004803603602081101561045c57600080fd5b81019080803573ffffffffffffffffffffffffffffffffffffffff169060200190929190505050611472565b6040518082815260200191505060405180910390f35b6104a6611529565b005b6104ea600480360360208110156104be57600080fd5b81019080803573ffffffffffffffffffffffffffffffffffffffff169060200190929190505050611662565b6040518082815260200191505060405180910390f35b6105086116ae565b604051808273ffffffffffffffffffffffffffffffffffffffff1673ffffffffffffffffffffffffffffffffffffffff16815260200191505060405180910390f35b6105526116d7565b604051808215151515815260200191505060405180910390f35b61066f6004803603608081101561058257600080fd5b81019080803573ffffffffffffffffffffffffffffffffffffffff16906020019092919080359060200190929190803573ffffffffffffffffffffffffffffffffffffffff169060200190929190803590602001906401000000008111156105e957600080fd5b8201836020820111156105fb57600080fd5b8035906020019184600183028401116401000000008311171561061d57600080fd5b91908080601f016020809104026020016040519081016040528093929190818152602001838380828437600081840152601f19601f820116905080830192505050505050509192919290505050611735565b005b6106b36004803603602081101561068757600080fd5b81019080803573ffffffffffffffffffffffffffffffffffffffff16906020019092919050505061195b565b6040518082815260200191505060405180910390f35b6107ac600480360360608110156106df57600080fd5b81019080803573ffffffffffffffffffffffffffffffffffffffff169060200190929190803590602001909291908035906020019064010000000081111561072657600080fd5b82018360208201111561073857600080fd5b8035906020019184600183028401116401000000008311171561075a57600080fd5b91908080601f016020809104026020016040519081016040528093929190818152602001838380828437600081840152601f19601f8201169050808301925050505050505091929192905050506119a7565b005b6107f0600480360360208110156107c457600080fd5b81019080803573ffffffffffffffffffffffffffffffffffffffff169060200190929190505050611f04565b6040518082815260200191505060405180910390f35b61080e61203b565b604051808273ffffffffffffffffffffffffffffffffffffffff1673ffffffffffffffffffffffffffffffffffffffff16815260200191505060405180910390f35b6108926004803603602081101561086657600080fd5b81019080803573ffffffffffffffffffffffffffffffffffffffff169060200190929190505050612061565b005b6108d6600480360360208110156108aa57600080fd5b81019080803573ffffffffffffffffffffffffffffffffffffffff169060200190929190505050612180565b005b6000808290508073ffffffffffffffffffffffffffffffffffffffff1663d5f520766040518163ffffffff1660e01b815260040160206040518083038186803b15801561092457600080fd5b505afa158015610938573d6000803e3d6000fd5b505050506040513d602081101561094e57600080fd5b8101908080519060200190929190505050915050919050565b61096f6137c9565b600360008373ffffffffffffffffffffffffffffffffffffffff1673ffffffffffffffffffffffffffffffffffffffff168152602001908152602001600020604051806080016040529081600082015481526020016001820154815260200160028201548152602001600382015481525050905060006109f28260000151612206565b905060006109ff826108d8565b90508073ffffffffffffffffffffffffffffffffffffffff163373ffffffffffffffffffffffffffffffffffffffff161480610a6657508373ffffffffffffffffffffffffffffffffffffffff163373ffffffffffffffffffffffffffffffffffffffff16145b610abb576040517f08c379a000000000000000000000000000000000000000000000000000000000815260040180806020018281038252602581526020018061385c6025913960400191505060405180910390fd5b610ac6838583612305565b50505050565b610ad46137c9565b600360008473ffffffffffffffffffffffffffffffffffffffff1673ffffffffffffffffffffffffffffffffffffffff1681526020019081526020016000206040518060800160405290816000820154815260200160018201548152602001600282015481526020016003820154815250509050610b56338260000151612427565b610bc8576040517f08c379a000000000000000000000000000000000000000000000000000000000815260040180806020018281038252600e8152602001807f4e6f7420617574686f72697a656400000000000000000000000000000000000081525060200191505060405180910390fd5b6000610bd7826000015161265e565b9050600460008273ffffffffffffffffffffffffffffffffffffffff1673ffffffffffffffffffffffffffffffffffffffff16815260200190815260200160002060008473ffffffffffffffffffffffffffffffffffffffff1673ffffffffffffffffffffffffffffffffffffffff16815260200190815260200160002060009054906101000a900460ff16610cd5576040517f08c379a00000000000000000000000000000000000000000000000000000000081526004018080602001828103825260158152602001807f457363726f77206e6f7420617574686f72697a6564000000000000000000000081525060200191505060405180910390fd5b6000610ce085611472565b9050610cf981846040015161274990919063ffffffff16565b600360008773ffffffffffffffffffffffffffffffffffffffff1673ffffffffffffffffffffffffffffffffffffffff16815260200190815260200160002060020181905550600160009054906101000a900473ffffffffffffffffffffffffffffffffffffffff1673ffffffffffffffffffffffffffffffffffffffff1663cae9ca518583888760000151604051602001808373ffffffffffffffffffffffffffffffffffffffff1673ffffffffffffffffffffffffffffffffffffffff168152602001828152602001925050506040516020818303038152906040526040518463ffffffff1660e01b8152600401808473ffffffffffffffffffffffffffffffffffffffff1673ffffffffffffffffffffffffffffffffffffffff16815260200183815260200180602001828103825283818151815260200191508051906020019080838360005b83811015610e5e578082015181840152602081019050610e43565b50505050905090810190601f168015610e8b5780820380516001836020036101000a031916815260200191505b50945050505050600060405180830381600087803b158015610eac57600080fd5b505af1158015610ec0573d6000803e3d6000fd5b505050505050505050565b600080610ed783610f51565b119050919050565b6000600360008373ffffffffffffffffffffffffffffffffffffffff1673ffffffffffffffffffffffffffffffffffffffff168152602001908152602001600020600301549050919050565b600160009054906101000a900473ffffffffffffffffffffffffffffffffffffffff1681565b6000600360008373ffffffffffffffffffffffffffffffffffffffff1673ffffffffffffffffffffffffffffffffffffffff168152602001908152602001600020600101549050919050565b600073ffffffffffffffffffffffffffffffffffffffff168173ffffffffffffffffffffffffffffffffffffffff161415611040576040517f08c379a000000000000000000000000000000000000000000000000000000000815260040180806020018281038252601c8152602001807f457363726f7720616464726573732063616e2774206265207a65726f0000000081525060200191505060405180910390fd5b6001600460003373ffffffffffffffffffffffffffffffffffffffff1673ffffffffffffffffffffffffffffffffffffffff16815260200190815260200160002060008373ffffffffffffffffffffffffffffffffffffffff1673ffffffffffffffffffffffffffffffffffffffff16815260200190815260200160002060006101000a81548160ff0219169083151502179055503373ffffffffffffffffffffffffffffffffffffffff167fb3cf0aa974be748a2b3911557e90014a19e73153dc123266fb73f5611d7df24282604051808273ffffffffffffffffffffffffffffffffffffffff1673ffffffffffffffffffffffffffffffffffffffff16815260200191505060405180910390a250565b61115a6137c9565b600360008373ffffffffffffffffffffffffffffffffffffffff1673ffffffffffffffffffffffffffffffffffffffff168152602001908152602001600020604051806080016040529081600082015481526020016001820154815260200160028201548152602001600382015481525050905060006111dd8260000151612206565b905060003073ffffffffffffffffffffffffffffffffffffffff1682604051602401808273ffffffffffffffffffffffffffffffffffffffff1673ffffffffffffffffffffffffffffffffffffffff1681526020019150506040516020818303038152906040527f012b1973000000000000000000000000000000000000000000000000000000007bffffffffffffffffffffffffffffffffffffffffffffffffffffffff19166020820180517bffffffffffffffffffffffffffffffffffffffffffffffffffffffff83818316178352505050506040518082805190602001908083835b602083106112e557805182526020820191506020810190506020830392506112c2565b6001836020036101000a0380198251168184511680821785525050505050509050019150506000604051808303816000865af19150503d8060008114611347576040519150601f19603f3d011682016040523d82523d6000602084013e61134c565b606091505b5050905080156113a7576040517f08c379a00000000000000000000000000000000000000000000000000000000081526004018080602001828103825260238152602001806137f26023913960400191505060405180910390fd5b8173ffffffffffffffffffffffffffffffffffffffff163373ffffffffffffffffffffffffffffffffffffffff16148061140c57508373ffffffffffffffffffffffffffffffffffffffff163373ffffffffffffffffffffffffffffffffffffffff16145b611461576040517f08c379a000000000000000000000000000000000000000000000000000000000815260040180806020018281038252602581526020018061385c6025913960400191505060405180910390fd5b61146c838584612305565b50505050565b600061147c6137c9565b600360008473ffffffffffffffffffffffffffffffffffffffff1673ffffffffffffffffffffffffffffffffffffffff16815260200190815260200160002060405180608001604052908160008201548152602001600182015481526020016002820154815260200160038201548152505090506115218160600151611513836040015184602001516127d190919063ffffffff16565b6127d190919063ffffffff16565b915050919050565b6115316116d7565b6115a3576040517f08c379a00000000000000000000000000000000000000000000000000000000081526004018080602001828103825260208152602001807f4f776e61626c653a2063616c6c6572206973206e6f7420746865206f776e657281525060200191505060405180910390fd5b600073ffffffffffffffffffffffffffffffffffffffff166000809054906101000a900473ffffffffffffffffffffffffffffffffffffffff1673ffffffffffffffffffffffffffffffffffffffff167f8be0079c531659141344cd1fd0a4f28419497f9722a3daafe3b4186f6b6457e060405160405180910390a360008060006101000a81548173ffffffffffffffffffffffffffffffffffffffff021916908373ffffffffffffffffffffffffffffffffffffffff160217905550565b6000600360008373ffffffffffffffffffffffffffffffffffffffff1673ffffffffffffffffffffffffffffffffffffffff168152602001908152602001600020600001549050919050565b60008060009054906101000a900473ffffffffffffffffffffffffffffffffffffffff16905090565b60008060009054906101000a900473ffffffffffffffffffffffffffffffffffffffff1673ffffffffffffffffffffffffffffffffffffffff1661171961281b565b73ffffffffffffffffffffffffffffffffffffffff1614905090565b600160009054906101000a900473ffffffffffffffffffffffffffffffffffffffff1673ffffffffffffffffffffffffffffffffffffffff168273ffffffffffffffffffffffffffffffffffffffff16146117f8576040517f08c379a00000000000000000000000000000000000000000000000000000000081526004018080602001828103825260108152602001807f4e6f742061204b45455020746f6b656e0000000000000000000000000000000081525060200191505060405180910390fd5b8173ffffffffffffffffffffffffffffffffffffffff163373ffffffffffffffffffffffffffffffffffffffff1614611899576040517f08c379a000000000000000000000000000000000000000000000000000000000815260040180806020018281038252601c8152602001807f4b45455020746f6b656e206973206e6f74207468652073656e6465720000000081525060200191505060405180910390fd5b6040815114611910576040517f08c379a00000000000000000000000000000000000000000000000000000000081526004018080602001828103825260168152602001807f556e65787065637465642064617461206c656e6774680000000000000000000081525060200191505060405180910390fd5b60008082806020019051604081101561192857600080fd5b8101908080519060200190929190805190602001909291905050509150915061195386868484612823565b505050505050565b6000600360008373ffffffffffffffffffffffffffffffffffffffff1673ffffffffffffffffffffffffffffffffffffffff168152602001908152602001600020600201549050919050565b603c815114611a1e576040517f08c379a00000000000000000000000000000000000000000000000000000000081526004018080602001828103825260198152602001807f436f727275707465642064656c65676174696f6e20646174610000000000000081525060200191505060405180910390fd5b611a266137c9565b600360008573ffffffffffffffffffffffffffffffffffffffff1673ffffffffffffffffffffffffffffffffffffffff16815260200190815260200160002060405180608001604052908160008201548152602001600182015481526020016002820154815260200160038201548152505090506000816000015190506000611ab9601485612abc90919063ffffffff16565b9050611ac53383612427565b611b37576040517f08c379a000000000000000000000000000000000000000000000000000000000815260040180806020018281038252600e8152602001807f4e6f7420617574686f72697a656400000000000000000000000000000000000081525060200191505060405180910390fd5b6000611b4283612b4f565b14611bb5576040517f08c379a000000000000000000000000000000000000000000000000000000000815260040180806020018281038252600d8152602001807f4772616e74207265766f6b65640000000000000000000000000000000000000081525060200191505060405180910390fd5b84611bbf87611472565b1015611c33576040517f08c379a00000000000000000000000000000000000000000000000000000000081526004018080602001828103825260148152602001807f496e73756666696369656e742062616c616e636500000000000000000000000081525060200191505060405180910390fd5b611c3c81610ecb565b15611c92576040517f08c379a00000000000000000000000000000000000000000000000000000000081526004018080602001828103825260378152602001806138f96037913960400191505060405180910390fd5b611ca985846060015161274990919063ffffffff16565b600360008873ffffffffffffffffffffffffffffffffffffffff1673ffffffffffffffffffffffffffffffffffffffff16815260200190815260200160002060030181905550600160009054906101000a900473ffffffffffffffffffffffffffffffffffffffff1673ffffffffffffffffffffffffffffffffffffffff1663cae9ca51611d356116ae565b8787866040516020018083805190602001908083835b60208310611d6e5780518252602082019150602081019050602083039250611d4b565b6001836020036101000a038019825116818451168082178552505050505050905001828152602001925050506040516020818303038152906040526040518463ffffffff1660e01b8152600401808473ffffffffffffffffffffffffffffffffffffffff1673ffffffffffffffffffffffffffffffffffffffff16815260200183815260200180602001828103825283818151815260200191508051906020019080838360005b83811015611e30578082015181840152602081019050611e15565b50505050905090810190601f168015611e5d5780820380516001836020036101000a031916815260200191505b50945050505050600060405180830381600087803b158015611e7e57600080fd5b505af1158015611e92573d6000803e3d6000fd5b50505050818173ffffffffffffffffffffffffffffffffffffffff168773ffffffffffffffffffffffffffffffffffffffff167f2b7cac54d08d3b38cfada0cdfd02770b546ef37fbd5cfe413d4986cda6e56886886040518082815260200191505060405180910390a4505050505050565b6000611f0e6137c9565b600360008473ffffffffffffffffffffffffffffffffffffffff1673ffffffffffffffffffffffffffffffffffffffff16815260200190815260200160002060405180608001604052908160008201548152602001600182015481526020016002820154815260200160038201548152505090506000611f918260000151612b4f565b1415612030576000806000611fa98460000151612c4c565b9250925092506000611fce856020015185858542612d4090949392919063ffffffff16565b905080611fec8660600151876040015161274990919063ffffffff16565b101561202b5761201f85606001516120118760400151846127d190919063ffffffff16565b6127d190919063ffffffff16565b95505050505050612036565b505050505b60009150505b919050565b600260009054906101000a900473ffffffffffffffffffffffffffffffffffffffff1681565b6120696137c9565b600360008373ffffffffffffffffffffffffffffffffffffffff1673ffffffffffffffffffffffffffffffffffffffff168152602001908152602001600020604051806080016040529081600082015481526020016001820154815260200160028201548152602001600382015481525050905060006120ec8260000151612b4f565b1161215f576040517f08c379a000000000000000000000000000000000000000000000000000000000815260040180806020018281038252601d8152602001807f4e6f207265766f6b656420746f6b656e7320746f20776974686472617700000081525060200191505060405180910390fd5b600061216e826000015161265e565b905061217b828483612dbc565b505050565b6121886116d7565b6121fa576040517f08c379a00000000000000000000000000000000000000000000000000000000081526004018080602001828103825260208152602001807f4f776e61626c653a2063616c6c6572206973206e6f7420746865206f776e657281525060200191505060405180910390fd5b61220381612ec8565b50565b6000600260009054906101000a900473ffffffffffffffffffffffffffffffffffffffff1673ffffffffffffffffffffffffffffffffffffffff1663b8cc6c93836040518263ffffffff1660e01b81526004018082815260200191505060c06040518083038186803b15801561227b57600080fd5b505afa15801561228f573d6000803e3d6000fd5b505050506040513d60c08110156122a557600080fd5b81019080805190602001909291908051906020019092919080519060200190929190805190602001909291908051906020019092919080519060200190929190505050909192939450909192935090919250909150905080915050919050565b600061231083611f04565b905061232981856040015161274990919063ffffffff16565b600360008573ffffffffffffffffffffffffffffffffffffffff1673ffffffffffffffffffffffffffffffffffffffff168152602001908152602001600020600201819055506123bc8282600160009054906101000a900473ffffffffffffffffffffffffffffffffffffffff1673ffffffffffffffffffffffffffffffffffffffff1661300c9092919063ffffffff16565b8173ffffffffffffffffffffffffffffffffffffffff168373ffffffffffffffffffffffffffffffffffffffff167f2cd6435b1b961c13f55202979edd0765a809f69a539d8a477436c94c1211e43e836040518082815260200191505060405180910390a350505050565b60008061243383612206565b90508073ffffffffffffffffffffffffffffffffffffffff168473ffffffffffffffffffffffffffffffffffffffff161415612473576001915050612658565b60603073ffffffffffffffffffffffffffffffffffffffff1682604051602401808273ffffffffffffffffffffffffffffffffffffffff1673ffffffffffffffffffffffffffffffffffffffff1681526020019150506040516020818303038152906040527f012b1973000000000000000000000000000000000000000000000000000000007bffffffffffffffffffffffffffffffffffffffffffffffffffffffff19166020820180517bffffffffffffffffffffffffffffffffffffffffffffffffffffffff83818316178352505050506040518082805190602001908083835b602083106125795780518252602082019150602081019050602083039250612556565b6001836020036101000a0380198251168184511680821785525050505050509050019150506000604051808303816000865af19150503d80600081146125db576040519150601f19603f3d011682016040523d82523d6000602084013e6125e0565b606091505b509150506000815114156125f957600092505050612658565b600081806020019051602081101561261057600080fd5b810190808051906020019092919050505090508073ffffffffffffffffffffffffffffffffffffffff168673ffffffffffffffffffffffffffffffffffffffff161493505050505b92915050565b6000600260009054906101000a900473ffffffffffffffffffffffffffffffffffffffff1673ffffffffffffffffffffffffffffffffffffffff1663c6076b7a836040518263ffffffff1660e01b81526004018082815260200191505060a06040518083038186803b1580156126d357600080fd5b505afa1580156126e7573d6000803e3d6000fd5b505050506040513d60a08110156126fd57600080fd5b8101908080519060200190929190805190602001909291908051906020019092919080519060200190929190805190602001909291905050509091925090915090505080915050919050565b6000808284019050838110156127c7576040517f08c379a000000000000000000000000000000000000000000000000000000000815260040180806020018281038252601b8152602001807f536166654d6174683a206164646974696f6e206f766572666c6f77000000000081525060200191505060405180910390fd5b8091505092915050565b600061281383836040518060400160405280601e81526020017f536166654d6174683a207375627472616374696f6e206f766572666c6f7700008152506130dd565b905092915050565b600033905090565b61282b6116ae565b73ffffffffffffffffffffffffffffffffffffffff168473ffffffffffffffffffffffffffffffffffffffff16146128cb576040517f08c379a00000000000000000000000000000000000000000000000000000000081526004018080602001828103825260168152602001807f4f6e6c79206f776e65722063616e206465706f7369740000000000000000000081525060200191505060405180910390fd5b60006128d68261319d565b1161292c576040517f08c379a00000000000000000000000000000000000000000000000000000000081526004018080602001828103825260218152602001806138d86021913960400191505060405180910390fd5b61293582610ecb565b1561298b576040517f08c379a00000000000000000000000000000000000000000000000000000000081526004018080602001828103825260368152602001806138816036913960400191505060405180910390fd5b6129da843085600160009054906101000a900473ffffffffffffffffffffffffffffffffffffffff1673ffffffffffffffffffffffffffffffffffffffff16613297909392919063ffffffff16565b6040518060800160405280828152602001848152602001600081526020016000815250600360008473ffffffffffffffffffffffffffffffffffffffff1673ffffffffffffffffffffffffffffffffffffffff16815260200190815260200160002060008201518160000155602082015181600101556040820151816002015560608201518160030155905050808273ffffffffffffffffffffffffffffffffffffffff167f73a19dd210f1a7f902193214c0ee91dd35ee5b4d920cba8d519eca65a7b488ca856040518082815260200191505060405180910390a350505050565b6000806014830190508281118015612ad5575080845110155b612b2a576040517f08c379a000000000000000000000000000000000000000000000000000000000815260040180806020018281038252602181526020018061383b6021913960400191505060405180910390fd5b60006c0100000000000000000000000084602087010151049050809250505092915050565b6000600260009054906101000a900473ffffffffffffffffffffffffffffffffffffffff1673ffffffffffffffffffffffffffffffffffffffff1663b8cc6c93836040518263ffffffff1660e01b81526004018082815260200191505060c06040518083038186803b158015612bc457600080fd5b505afa158015612bd8573d6000803e3d6000fd5b505050506040513d60c0811015612bee57600080fd5b8101908080519060200190929190805190602001909291908051906020019092919080519060200190929190805190602001909291908051906020019092919050505090919293945090919293509091925090505080915050919050565b6000806000600260009054906101000a900473ffffffffffffffffffffffffffffffffffffffff1673ffffffffffffffffffffffffffffffffffffffff1663c6076b7a856040518263ffffffff1660e01b81526004018082815260200191505060a06040518083038186803b158015612cc457600080fd5b505afa158015612cd8573d6000803e3d6000fd5b505050506040513d60a0811015612cee57600080fd5b8101908080519060200190929190805190602001909291908051906020019092919080519060200190929190805190602001909291905050509091929350508093508194508295505050509193909250565b60008082871090508015612d58576000915050612db3565b6000612d6d85896127d190919063ffffffff16565b905060008682101590508015612d8857879350505050612db3565b612dad87612d9f848b61339d90919063ffffffff16565b61342390919063ffffffff16565b93505050505b95945050505050565b6000612dc783611472565b905080600360008573ffffffffffffffffffffffffffffffffffffffff1673ffffffffffffffffffffffffffffffffffffffff16815260200190815260200160002060020181905550612e5d8282600160009054906101000a900473ffffffffffffffffffffffffffffffffffffffff1673ffffffffffffffffffffffffffffffffffffffff1661300c9092919063ffffffff16565b8173ffffffffffffffffffffffffffffffffffffffff168373ffffffffffffffffffffffffffffffffffffffff167f85a6a53c6a902a6ef08ddf46c4ea735fea23691d9a0651e3c1516238501b87bc836040518082815260200191505060405180910390a350505050565b600073ffffffffffffffffffffffffffffffffffffffff168173ffffffffffffffffffffffffffffffffffffffff161415612f4e576040517f08c379a00000000000000000000000000000000000000000000000000000000081526004018080602001828103825260268152602001806138156026913960400191505060405180910390fd5b8073ffffffffffffffffffffffffffffffffffffffff166000809054906101000a900473ffffffffffffffffffffffffffffffffffffffff1673ffffffffffffffffffffffffffffffffffffffff167f8be0079c531659141344cd1fd0a4f28419497f9722a3daafe3b4186f6b6457e060405160405180910390a3806000806101000a81548173ffffffffffffffffffffffffffffffffffffffff021916908373ffffffffffffffffffffffffffffffffffffffff16021790555050565b6130d8838473ffffffffffffffffffffffffffffffffffffffff1663a9059cbb905060e01b8484604051602401808373ffffffffffffffffffffffffffffffffffffffff1673ffffffffffffffffffffffffffffffffffffffff16815260200182815260200192505050604051602081830303815290604052907bffffffffffffffffffffffffffffffffffffffffffffffffffffffff19166020820180517bffffffffffffffffffffffffffffffffffffffffffffffffffffffff838183161783525050505061346d565b505050565b600083831115829061318a576040517f08c379a00000000000000000000000000000000000000000000000000000000081526004018080602001828103825283818151815260200191508051906020019080838360005b8381101561314f578082015181840152602081019050613134565b50505050905090810190601f16801561317c5780820380516001836020036101000a031916815260200191505b509250505060405180910390fd5b5060008385039050809150509392505050565b6000600260009054906101000a900473ffffffffffffffffffffffffffffffffffffffff1673ffffffffffffffffffffffffffffffffffffffff1663b8cc6c93836040518263ffffffff1660e01b81526004018082815260200191505060c06040518083038186803b15801561321257600080fd5b505afa158015613226573d6000803e3d6000fd5b505050506040513d60c081101561323c57600080fd5b8101908080519060200190929190805190602001909291908051906020019092919080519060200190929190805190602001909291908051906020019092919050505090919293509091925090915090505080915050919050565b613397848573ffffffffffffffffffffffffffffffffffffffff166323b872dd905060e01b858585604051602401808473ffffffffffffffffffffffffffffffffffffffff1673ffffffffffffffffffffffffffffffffffffffff1681526020018373ffffffffffffffffffffffffffffffffffffffff1673ffffffffffffffffffffffffffffffffffffffff1681526020018281526020019350505050604051602081830303815290604052907bffffffffffffffffffffffffffffffffffffffffffffffffffffffff19166020820180517bffffffffffffffffffffffffffffffffffffffffffffffffffffffff838183161783525050505061346d565b50505050565b6000808314156133b0576000905061341d565b60008284029050828482816133c157fe5b0414613418576040517f08c379a00000000000000000000000000000000000000000000000000000000081526004018080602001828103825260218152602001806138b76021913960400191505060405180910390fd5b809150505b92915050565b600061346583836040518060400160405280601a81526020017f536166654d6174683a206469766973696f6e206279207a65726f0000000000008152506136b8565b905092915050565b61348c8273ffffffffffffffffffffffffffffffffffffffff1661377e565b6134fe576040517f08c379a000000000000000000000000000000000000000000000000000000000815260040180806020018281038252601f8152602001807f5361666545524332303a2063616c6c20746f206e6f6e2d636f6e74726163740081525060200191505060405180910390fd5b600060608373ffffffffffffffffffffffffffffffffffffffff16836040518082805190602001908083835b6020831061354d578051825260208201915060208101905060208303925061352a565b6001836020036101000a0380198251168184511680821785525050505050509050019150506000604051808303816000865af19150503d80600081146135af576040519150601f19603f3d011682016040523d82523d6000602084013e6135b4565b606091505b50915091508161362c576040517f08c379a00000000000000000000000000000000000000000000000000000000081526004018080602001828103825260208152602001807f5361666545524332303a206c6f772d6c6576656c2063616c6c206661696c656481525060200191505060405180910390fd5b6000815111156136b25780806020019051602081101561364b57600080fd5b81019080805190602001909291905050506136b1576040517f08c379a000000000000000000000000000000000000000000000000000000000815260040180806020018281038252602a815260200180613930602a913960400191505060405180910390fd5b5b50505050565b60008083118290613764576040517f08c379a00000000000000000000000000000000000000000000000000000000081526004018080602001828103825283818151815260200191508051906020019080838360005b8381101561372957808201518184015260208101905061370e565b50505050905090810190601f1680156137565780820380516001836020036101000a031916815260200191505b509250505060405180910390fd5b50600083858161377057fe5b049050809150509392505050565b60008060007fc5d2460186f7233c927e7db2dcc703c0e500b653ca82273b7bfad8045d85a47060001b9050833f91506000801b82141580156137c05750808214155b92505050919050565b604051806080016040528060008152602001600081526020016000815260200160008152509056fe43616e206e6f742062652063616c6c656420666f72206d616e61676564206772616e744f776e61626c653a206e6577206f776e657220697320746865207a65726f20616464726573734164647265737320636f6e76657273696f6e206f7574206f6620626f756e64732e4f6e6c79206772616e746565206f72206f70657261746f722063616e2077697468647261775374616b6520666f7220746865206f70657261746f7220616c7265616479206465706f736974656420696e2074686520657363726f77536166654d6174683a206d756c7469706c69636174696f6e206f766572666c6f774772616e742077697468207468697320494420646f6573206e6f74206578697374526564656c65676174696e6720746f2070726576696f75736c792075736564206f70657261746f72206973206e6f7420616c6c6f7765645361666545524332303a204552433230206f7065726174696f6e20646964206e6f742073756363656564a265627a7a723158207313849b1b02a75f2515f3efd16b7fa059870ece6dba98c132be738d410bea8864736f6c63430005110032",
  "source": "/**\n     \n   \n                            \n                             \n                           \n                           \n                          \n     \n     \n\n                           Trust math, not hardware.\n*/\n\npragma solidity 0.5.17;\n\nimport \"openzeppelin-solidity/contracts/ownership/Ownable.sol\";\nimport \"openzeppelin-solidity/contracts/token/ERC20/SafeERC20.sol\";\nimport \"openzeppelin-solidity/contracts/math/SafeMath.sol\";\n\nimport \"./libraries/grant/UnlockingSchedule.sol\";\nimport \"./utils/BytesLib.sol\";\nimport \"./KeepToken.sol\";\nimport \"./utils/BytesLib.sol\";\nimport \"./TokenGrant.sol\";\nimport \"./ManagedGrant.sol\";\nimport \"./TokenSender.sol\";\n\n/// @title TokenStakingEscrow\n/// @notice Escrow lets the staking contract to deposit undelegated, granted\n/// tokens and either withdraw them based on the grant unlocking schedule or\n/// re-delegate them to another operator.\n/// @dev The owner of TokenStakingEscrow is TokenStaking contract and only owner\n/// can deposit. This contract works with an assumption that operator is unique\n/// in the scope of `TokenStaking`, that is, no more than one delegation in the\n/// `TokenStaking` can be done do the given operator ever. Even if the previous\n/// delegation ended, operator address cannot be reused.\ncontract TokenStakingEscrow is Ownable {\n\n    using SafeERC20 for IERC20;\n    using SafeMath for uint256;\n    using BytesLib for bytes;\n    using UnlockingSchedule for uint256;\n\n    event Deposited(\n        address indexed operator,\n        uint256 indexed grantId,\n        uint256 amount\n    );\n    event DepositRedelegated(\n        address indexed previousOperator,\n        address indexed newOperator,\n        uint256 indexed grantId,\n        uint256 amount\n    );\n    event DepositWithdrawn(\n        address indexed operator,\n        address indexed grantee,\n        uint256 amount\n    );\n    event RevokedDepositWithdrawn(\n        address indexed operator,\n        address indexed grantManager,\n        uint256 amount\n    );\n    event EscrowAuthorized(\n        address indexed grantManager,\n        address escrow\n    );\n\n    IERC20 public keepToken;\n    TokenGrant public tokenGrant;\n\n    struct Deposit {\n        uint256 grantId;\n        uint256 amount;\n        uint256 withdrawn;\n        uint256 redelegated;\n    }\n\n    // operator address -> KEEP deposit\n    mapping(address => Deposit) internal deposits;\n\n    // Other escrows authorized by grant manager. Grantee may request to migrate\n    // tokens to another authorized escrow.\n    // grant manager -> escrow -> authorized?\n    mapping(address => mapping (address => bool)) internal authorizedEscrows;\n\n    constructor(\n        KeepToken _keepToken,\n        TokenGrant _tokenGrant\n    ) public {\n        keepToken = _keepToken;\n        tokenGrant = _tokenGrant;\n    }\n\n    /// @notice receiveApproval accepts deposits from staking contract and\n    /// stores them in the escrow by the operator address from which they were\n    /// undelegated. Function expects operator address and grant identifier to\n    /// be passed as ABI-encoded information in extraData. Grant with the given\n    /// identifier has to exist.\n    /// @param from Address depositing tokens - it has to be the address of\n    /// TokenStaking contract owning TokenStakingEscrow.\n    /// @param value The amount of KEEP tokens deposited.\n    /// @param token The address of KEEP token contract.\n    /// @param extraData ABI-encoded data containing operator address (32 bytes)\n    /// and grant ID (32 bytes).\n    function receiveApproval(\n        address from,\n        uint256 value,\n        address token,\n        bytes memory extraData\n    ) public {\n        require(IERC20(token) == keepToken, \"Not a KEEP token\");\n        require(msg.sender == token, \"KEEP token is not the sender\");\n        require(extraData.length == 64, \"Unexpected data length\");\n\n        (address operator, uint256 grantId) = abi.decode(\n            extraData, (address, uint256)\n        );\n        receiveDeposit(from, value, operator, grantId);\n    }\n\n    /// @notice Redelegates deposit or part of the deposit to another operator.\n    /// Uses the same staking contract as the original delegation.\n    /// @param previousOperator Address of the operator from the undelegated/canceled\n    /// delegation from which tokens were deposited.\n    /// @dev Only grantee is allowed to call this function. For managed grant,\n    /// caller has to be the managed grantee.\n    /// @param amount Amount of tokens to delegate.\n    /// @param extraData Data for stake delegation. This byte array must have\n    /// the following values concatenated:\n    /// - Beneficiary address (20 bytes)\n    /// - Operator address (20 bytes)\n    /// - Authorizer address (20 bytes)\n    function redelegate(\n        address previousOperator,\n        uint256 amount,\n        bytes memory extraData\n    ) public {\n        require(extraData.length == 60, \"Corrupted delegation data\");\n\n        Deposit memory deposit = deposits[previousOperator];\n\n        uint256 grantId = deposit.grantId;\n        address newOperator = extraData.toAddress(20);\n        require(isGrantee(msg.sender, grantId), \"Not authorized\");\n        require(getAmountRevoked(grantId) == 0, \"Grant revoked\");\n        require(\n            availableAmount(previousOperator) >= amount,\n            \"Insufficient balance\"\n        );\n        require(\n            !hasDeposit(newOperator),\n            \"Redelegating to previously used operator is not allowed\"\n        );\n\n        deposits[previousOperator].redelegated = deposit.redelegated.add(amount);\n\n        TokenSender(address(keepToken)).approveAndCall(\n            owner(), // TokenStaking contract associated with the escrow\n            amount,\n            abi.encodePacked(extraData, grantId)\n        );\n\n        emit DepositRedelegated(\n            previousOperator,\n            newOperator,\n            grantId,\n            amount\n        );\n    }\n\n    /// @notice Returns true if there is a deposit for the given operator in\n    /// the escrow. Otherwise, returns false.\n    /// @param operator Address of the operator from the undelegated/canceled\n    /// delegation from which tokens were deposited.\n    function hasDeposit(address operator) public view returns (bool) {\n        return depositedAmount(operator) > 0;\n    }\n\n    /// @notice Returns the currently available amount deposited in the escrow\n    /// that may or may not be currently withdrawable. The available amount\n    /// is the amount initially deposited minus the amount withdrawn and\n    /// redelegated so far from that deposit.\n    /// @param operator Address of the operator from the undelegated/canceled\n    /// delegation from which tokens were deposited.\n    function availableAmount(address operator) public view returns (uint256) {\n        Deposit memory deposit = deposits[operator];\n        return deposit.amount.sub(deposit.withdrawn).sub(deposit.redelegated);\n    }\n\n    /// @notice Returns the total amount deposited in the escrow after\n    /// undelegating it from the provided operator.\n    /// @param operator Address of the operator from the undelegated/canceled\n    /// delegation from which tokens were deposited.\n    function depositedAmount(address operator) public view returns (uint256) {\n        return deposits[operator].amount;\n    }\n\n    /// @notice Returns grant ID for the amount deposited in the escrow after\n    /// undelegating it from the provided operator.\n    /// @param operator Address of the operator from the undelegated/canceled\n    /// delegation from which tokens were deposited.\n    function depositGrantId(address operator) public view returns (uint256) {\n        return deposits[operator].grantId;\n    }\n\n    /// @notice Returns the amount withdrawn so far from the value deposited\n    /// in the escrow contract after undelegating it from the provided operator.\n    /// @param operator Address of the operator from the undelegated/canceled\n    /// delegation from which tokens were deposited.\n    function depositWithdrawnAmount(address operator) public view returns (uint256) {\n        return deposits[operator].withdrawn;\n    }\n\n    /// @notice Returns the total amount redelegated so far from the value\n    /// deposited in the escrow contract after undelegating it from the provided\n    /// operator.\n    /// @param operator Address of the operator from the undelegated/canceled\n    /// delegation from which tokens were deposited.\n    function depositRedelegatedAmount(address operator) public view returns (uint256) {\n        return deposits[operator].redelegated;\n    }\n\n    /// @notice Returns the currently withdrawable amount that was previously\n    /// deposited in the escrow after undelegating it from the provided operator.\n    /// Tokens are unlocked based on their grant unlocking schedule.\n    /// Function returns 0 for non-existing deposits and revoked grants if they\n    /// have been revoked before they fully unlocked.\n    /// @param operator Address of the operator from the undelegated/canceled\n    /// delegation from which tokens were deposited.\n    function withdrawable(address operator) public view returns (uint256) {\n        Deposit memory deposit = deposits[operator];\n\n        // Staked tokens can be only withdrawn by grantee for non-revoked grant\n        // assuming that grant has not fully unlocked before it's been\n        // revoked.\n        //\n        // It is not possible for the escrow to determine the number of tokens\n        // it should return to the grantee of a revoked grant given different\n        // possible staking contracts and staking policies.\n        //\n        // If the entire grant unlocked before it's been reverted, escrow\n        // lets to withdraw the entire deposited amount.\n        if (getAmountRevoked(deposit.grantId) == 0) {\n            (\n                uint256 duration,\n                uint256 start,\n                uint256 cliff\n            ) = getUnlockingSchedule(deposit.grantId);\n\n            uint256 unlocked = now.getUnlockedAmount(\n                deposit.amount,\n                duration,\n                start,\n                cliff\n            );\n\n            if (deposit.withdrawn.add(deposit.redelegated) < unlocked) {\n                return unlocked.sub(deposit.withdrawn).sub(deposit.redelegated);\n            }\n        }\n\n        return 0;\n    }\n\n    /// @notice Withdraws currently unlocked tokens deposited in the escrow\n    /// after undelegating them from the provided operator. Only grantee or\n    /// operator can call this function. Important: this function can not be\n    /// called for a `ManagedGrant` grantee. This may lead to locking tokens.\n    /// For `ManagedGrant`, please use `withdrawToManagedGrantee` instead.\n    /// @param operator Address of the operator from the undelegated/canceled\n    /// delegation from which tokens were deposited.\n    function withdraw(address operator) public {\n        Deposit memory deposit = deposits[operator];\n        address grantee = getGrantee(deposit.grantId);\n\n        // Make sure this function is not called for a managed grant.\n        // If called for a managed grant, tokens could be locked there.\n        // Better be safe than sorry.\n        (bool success, ) = address(this).call(\n            abi.encodeWithSignature(\"getManagedGrantee(address)\", grantee)\n        );\n        require(!success, \"Can not be called for managed grant\");\n\n        require(\n            msg.sender == grantee || msg.sender == operator,\n            \"Only grantee or operator can withdraw\"\n        );\n\n        withdraw(deposit, operator, grantee);\n    }\n\n    /// @notice Withdraws currently unlocked tokens deposited in the escrow\n    /// after undelegating them from the provided operator. Only grantee or\n    /// operator can call this function. This function works only for\n    /// `ManagedGrant` grantees. For a standard grant, please use `withdraw`\n    /// instead.\n    /// @param operator Address of the operator from the undelegated/canceled\n    /// delegation from which tokens were deposited.\n    function withdrawToManagedGrantee(address operator) public {\n        Deposit memory deposit = deposits[operator];\n        address managedGrant = getGrantee(deposit.grantId);\n        address grantee = getManagedGrantee(managedGrant);\n\n        require(\n            msg.sender == grantee || msg.sender == operator,\n            \"Only grantee or operator can withdraw\"\n        );\n\n        withdraw(deposit, operator, grantee);\n    }\n\n    /// @notice Migrates all available tokens to another authorized escrow.\n    /// Can be requested only by grantee.\n    /// @param operator Address of the operator from the undelegated/canceled\n    /// delegation from which tokens were deposited.\n    /// @param receivingEscrow Escrow to which tokens should be migrated.\n    /// @dev The receiving escrow needs to accept deposits from this escrow, at\n    /// least for the period of migration.\n    function migrate(\n        address operator,\n        address receivingEscrow\n    ) public {\n        Deposit memory deposit = deposits[operator];\n        require(isGrantee(msg.sender, deposit.grantId), \"Not authorized\");\n\n        address grantManager = getGrantManager(deposit.grantId);\n        require(\n            authorizedEscrows[grantManager][receivingEscrow],\n            \"Escrow not authorized\"\n        );\n\n        uint256 amountLeft = availableAmount(operator);\n        deposits[operator].withdrawn = deposit.withdrawn.add(amountLeft);\n        TokenSender(address(keepToken)).approveAndCall(\n            receivingEscrow,\n            amountLeft,\n            abi.encode(operator, deposit.grantId)\n        );\n    }\n\n    /// @notice Withdraws the entire amount that is still deposited in the\n    /// escrow in case the grant has been revoked. Anyone can call this function\n    /// and the entire amount is transferred back to the grant manager.\n    /// @param operator Address of the operator from the undelegated/canceled\n    /// delegation from which tokens were deposited.\n    function withdrawRevoked(address operator) public {\n        Deposit memory deposit = deposits[operator];\n\n        require(\n            getAmountRevoked(deposit.grantId) > 0,\n            \"No revoked tokens to withdraw\"\n        );\n\n        address grantManager = getGrantManager(deposit.grantId);\n        withdrawRevoked(deposit, operator, grantManager);\n    }\n\n    /// @notice Used by grant manager to authorize another escrows for\n    // funds migration.\n    function authorizeEscrow(address anotherEscrow) public {\n        require(\n            anotherEscrow != address(0x0),\n            \"Escrow address can't be zero\"\n        );\n        authorizedEscrows[msg.sender][anotherEscrow] = true;\n        emit EscrowAuthorized(msg.sender, anotherEscrow);\n    }\n\n    /// @notice Resolves the final grantee of ManagedGrant contract. If the\n    /// provided address is not a ManagedGrant contract, function reverts.\n    /// @param managedGrant Address of the managed grant contract.\n    function getManagedGrantee(\n        address managedGrant\n    ) public view returns(address) {\n        ManagedGrant grant = ManagedGrant(managedGrant);\n        return grant.grantee();\n    }\n\n    function receiveDeposit(\n        address from,\n        uint256 value,\n        address operator,\n        uint256 grantId\n    ) internal {\n        // This contract works with an assumption that operator is unique.\n        // This is fine as long as the staking contract works with the same\n        // assumption so we are limiting deposits to the staking contract only.\n        require(from == owner(), \"Only owner can deposit\");\n        require(\n            getAmountGranted(grantId) > 0,\n            \"Grant with this ID does not exist\"\n        );\n\n        require(\n            !hasDeposit(operator),\n            \"Stake for the operator already deposited in the escrow\"\n        );\n\n        keepToken.safeTransferFrom(from, address(this), value);\n        deposits[operator] = Deposit(grantId, value, 0, 0);\n\n        emit Deposited(operator, grantId, value);\n    }\n\n    function isGrantee(\n        address maybeGrantee,\n        uint256 grantId\n    ) internal returns (bool) {\n        // Let's check the simplest case first - standard grantee.\n        // If the given address is set as a grantee for grant with the given ID,\n        // we return true.\n        address grantee = getGrantee(grantId);\n        if (maybeGrantee == grantee) {\n            return true;\n        }\n\n        // If the given address is not a standard grantee, there is still\n        // a chance that address is a managed grantee. We are calling\n        // getManagedGrantee that will cast the grantee to ManagedGrant and try\n        // to call getGrantee() function. If this call returns non-zero address,\n        // it means we are dealing with a ManagedGrant.\n        (, bytes memory result) = address(this).call(\n            abi.encodeWithSignature(\"getManagedGrantee(address)\", grantee)\n        );\n        if (result.length == 0) {\n            return false;\n        }\n        // At this point we know we are dealing with a ManagedGrant, so the last\n        // thing we need to check is whether the managed grantee of that grant\n        // is the grantee address passed as a parameter.\n        address managedGrantee = abi.decode(result, (address));\n        return maybeGrantee == managedGrantee;\n    }\n\n    function withdraw(\n        Deposit memory deposit,\n        address operator,\n        address grantee\n    ) internal {\n        uint256 amount = withdrawable(operator);\n\n        deposits[operator].withdrawn = deposit.withdrawn.add(amount);\n        keepToken.safeTransfer(grantee, amount);\n\n        emit DepositWithdrawn(operator, grantee, amount);\n    }\n\n    function withdrawRevoked(\n        Deposit memory deposit,\n        address operator,\n        address grantManager\n    ) internal {\n        uint256 amount = availableAmount(operator);\n        deposits[operator].withdrawn = amount;\n        keepToken.safeTransfer(grantManager, amount);\n\n        emit RevokedDepositWithdrawn(operator, grantManager, amount);\n    }\n\n    function getAmountGranted(uint256 grantId) internal view returns (\n        uint256 amountGranted\n    ) {\n        (amountGranted,,,,,) = tokenGrant.getGrant(grantId);\n    }\n\n    function getAmountRevoked(uint256 grantId) internal view returns (\n        uint256 amountRevoked\n    ) {\n        (,,,amountRevoked,,) = tokenGrant.getGrant(grantId);\n    }\n\n    function getUnlockingSchedule(uint256 grantId) internal view returns (\n        uint256 duration,\n        uint256 start,\n        uint256 cliff\n    ) {\n        (,duration,start,cliff,) = tokenGrant.getGrantUnlockingSchedule(grantId);\n    }\n\n    function getGrantee(uint256 grantId) internal view returns (\n        address grantee\n    ) {\n        (,,,,,grantee) = tokenGrant.getGrant(grantId);\n    }\n\n    function getGrantManager(uint256 grantId) internal view returns (\n        address grantManager\n    ) {\n        (grantManager,,,,) = tokenGrant.getGrantUnlockingSchedule(grantId);\n    }\n}",
  "sourcePath": "/Users/konrad/Desktop/rumble/fin/local-setup/keep-core/solidity/contracts/TokenStakingEscrow.sol",
  "compiler": {
    "name": "solc",
    "version": "0.5.17+commit.d19bba13.Emscripten.clang"
  },
  "schemaVersion": "3.3.3",
  "updatedAt": "2021-04-13T13:21:26.139Z",
  "networkType": "ethereum",
  "devdoc": {
    "details": "The owner of TokenStakingEscrow is TokenStaking contract and only owner can deposit. This contract works with an assumption that operator is unique in the scope of `TokenStaking`, that is, no more than one delegation in the `TokenStaking` can be done do the given operator ever. Even if the previous delegation ended, operator address cannot be reused.",
    "methods": {
      "availableAmount(address)": {
        "params": {
          "operator": "Address of the operator from the undelegated/canceled delegation from which tokens were deposited."
        }
      },
      "depositGrantId(address)": {
        "params": {
          "operator": "Address of the operator from the undelegated/canceled delegation from which tokens were deposited."
        }
      },
      "depositRedelegatedAmount(address)": {
        "params": {
          "operator": "Address of the operator from the undelegated/canceled delegation from which tokens were deposited."
        }
      },
      "depositWithdrawnAmount(address)": {
        "params": {
          "operator": "Address of the operator from the undelegated/canceled delegation from which tokens were deposited."
        }
      },
      "depositedAmount(address)": {
        "params": {
          "operator": "Address of the operator from the undelegated/canceled delegation from which tokens were deposited."
        }
      },
      "getManagedGrantee(address)": {
        "params": {
          "managedGrant": "Address of the managed grant contract."
        }
      },
      "hasDeposit(address)": {
        "params": {
          "operator": "Address of the operator from the undelegated/canceled delegation from which tokens were deposited."
        }
      },
      "isOwner()": {
        "details": "Returns true if the caller is the current owner."
      },
      "migrate(address,address)": {
        "details": "The receiving escrow needs to accept deposits from this escrow, at least for the period of migration.",
        "params": {
          "operator": "Address of the operator from the undelegated/canceled delegation from which tokens were deposited.",
          "receivingEscrow": "Escrow to which tokens should be migrated."
        }
      },
      "owner()": {
        "details": "Returns the address of the current owner."
      },
      "receiveApproval(address,uint256,address,bytes)": {
        "params": {
          "extraData": "ABI-encoded data containing operator address (32 bytes) and grant ID (32 bytes).",
          "from": "Address depositing tokens - it has to be the address of TokenStaking contract owning TokenStakingEscrow.",
          "token": "The address of KEEP token contract.",
          "value": "The amount of KEEP tokens deposited."
        }
      },
      "redelegate(address,uint256,bytes)": {
        "details": "Only grantee is allowed to call this function. For managed grant, caller has to be the managed grantee.",
        "params": {
          "amount": "Amount of tokens to delegate.",
          "extraData": "Data for stake delegation. This byte array must have the following values concatenated: - Beneficiary address (20 bytes) - Operator address (20 bytes) - Authorizer address (20 bytes)",
          "previousOperator": "Address of the operator from the undelegated/canceled delegation from which tokens were deposited."
        }
      },
      "renounceOwnership()": {
        "details": "Leaves the contract without owner. It will not be possible to call `onlyOwner` functions anymore. Can only be called by the current owner.     * NOTE: Renouncing ownership will leave the contract without an owner, thereby removing any functionality that is only available to the owner."
      },
      "transferOwnership(address)": {
        "details": "Transfers ownership of the contract to a new account (`newOwner`). Can only be called by the current owner."
      },
      "withdraw(address)": {
        "params": {
          "operator": "Address of the operator from the undelegated/canceled delegation from which tokens were deposited."
        }
      },
      "withdrawRevoked(address)": {
        "params": {
          "operator": "Address of the operator from the undelegated/canceled delegation from which tokens were deposited."
        }
      },
      "withdrawToManagedGrantee(address)": {
        "params": {
          "operator": "Address of the operator from the undelegated/canceled delegation from which tokens were deposited."
        }
      },
      "withdrawable(address)": {
        "params": {
          "operator": "Address of the operator from the undelegated/canceled delegation from which tokens were deposited."
        }
      }
    },
    "title": "TokenStakingEscrow"
  },
  "userdoc": {
    "methods": {
      "authorizeEscrow(address)": {
        "notice": "Used by grant manager to authorize another escrows for"
      },
      "availableAmount(address)": {
        "notice": "Returns the currently available amount deposited in the escrow that may or may not be currently withdrawable. The available amount is the amount initially deposited minus the amount withdrawn and redelegated so far from that deposit."
      },
      "depositGrantId(address)": {
        "notice": "Returns grant ID for the amount deposited in the escrow after undelegating it from the provided operator."
      },
      "depositRedelegatedAmount(address)": {
        "notice": "Returns the total amount redelegated so far from the value deposited in the escrow contract after undelegating it from the provided operator."
      },
      "depositWithdrawnAmount(address)": {
        "notice": "Returns the amount withdrawn so far from the value deposited in the escrow contract after undelegating it from the provided operator."
      },
      "depositedAmount(address)": {
        "notice": "Returns the total amount deposited in the escrow after undelegating it from the provided operator."
      },
      "getManagedGrantee(address)": {
        "notice": "Resolves the final grantee of ManagedGrant contract. If the provided address is not a ManagedGrant contract, function reverts."
      },
      "hasDeposit(address)": {
        "notice": "Returns true if there is a deposit for the given operator in the escrow. Otherwise, returns false."
      },
      "migrate(address,address)": {
        "notice": "Migrates all available tokens to another authorized escrow. Can be requested only by grantee."
      },
      "receiveApproval(address,uint256,address,bytes)": {
        "notice": "receiveApproval accepts deposits from staking contract and stores them in the escrow by the operator address from which they were undelegated. Function expects operator address and grant identifier to be passed as ABI-encoded information in extraData. Grant with the given identifier has to exist."
      },
      "redelegate(address,uint256,bytes)": {
        "notice": "Redelegates deposit or part of the deposit to another operator. Uses the same staking contract as the original delegation."
      },
      "withdraw(address)": {
        "notice": "Withdraws currently unlocked tokens deposited in the escrow after undelegating them from the provided operator. Only grantee or operator can call this function. Important: this function can not be called for a `ManagedGrant` grantee. This may lead to locking tokens. For `ManagedGrant`, please use `withdrawToManagedGrantee` instead."
      },
      "withdrawRevoked(address)": {
        "notice": "Withdraws the entire amount that is still deposited in the escrow in case the grant has been revoked. Anyone can call this function and the entire amount is transferred back to the grant manager."
      },
      "withdrawToManagedGrantee(address)": {
        "notice": "Withdraws currently unlocked tokens deposited in the escrow after undelegating them from the provided operator. Only grantee or operator can call this function. This function works only for `ManagedGrant` grantees. For a standard grant, please use `withdraw` instead."
      },
      "withdrawable(address)": {
        "notice": "Returns the currently withdrawable amount that was previously deposited in the escrow after undelegating it from the provided operator. Tokens are unlocked based on their grant unlocking schedule. Function returns 0 for non-existing deposits and revoked grants if they have been revoked before they fully unlocked."
      }
    },
    "notice": "Escrow lets the staking contract to deposit undelegated, granted tokens and either withdraw them based on the grant unlocking schedule or re-delegate them to another operator."
  }
}