{
  "address": "0xF23fc18EcE6Afe7fb57ba59979e8600bb4B0294a",
  "abi": [
    {
      "anonymous": false,
      "inputs": [
        {
          "indexed": true,
          "internalType": "address",
          "name": "previousOwner",
          "type": "address"
        },
        {
          "indexed": true,
          "internalType": "address",
          "name": "newOwner",
          "type": "address"
        }
      ],
      "name": "OwnershipTransferred",
      "type": "event"
    },
    {
      "anonymous": false,
      "inputs": [
        {
          "indexed": true,
          "internalType": "address",
          "name": "requester",
          "type": "address"
        },
        {
          "indexed": false,
          "internalType": "bool",
          "name": "isAuthorized",
          "type": "bool"
        }
      ],
      "name": "RequesterAuthorizationUpdated",
      "type": "event"
    },
    {
      "inputs": [
        {
          "internalType": "address",
          "name": "",
          "type": "address"
        }
      ],
      "name": "authorizedRequesters",
      "outputs": [
        {
          "internalType": "bool",
          "name": "",
          "type": "bool"
        }
      ],
      "stateMutability": "view",
      "type": "function"
    },
    {
      "inputs": [],
      "name": "owner",
      "outputs": [
        {
          "internalType": "address",
          "name": "",
          "type": "address"
        }
      ],
      "stateMutability": "view",
      "type": "function"
    },
    {
      "inputs": [],
      "name": "renounceOwnership",
      "outputs": [],
      "stateMutability": "nonpayable",
      "type": "function"
    },
    {
      "inputs": [
        {
          "internalType": "contract IRandomBeaconConsumer",
          "name": "callbackContract",
          "type": "address"
        }
      ],
      "name": "requestRelayEntry",
      "outputs": [],
      "stateMutability": "nonpayable",
      "type": "function"
    },
    {
      "inputs": [
        {
          "internalType": "address",
          "name": "requester",
          "type": "address"
        },
        {
          "internalType": "bool",
          "name": "isAuthorized",
          "type": "bool"
        }
      ],
      "name": "setRequesterAuthorization",
      "outputs": [],
      "stateMutability": "nonpayable",
      "type": "function"
    },
    {
      "inputs": [
        {
          "internalType": "address",
          "name": "newOwner",
          "type": "address"
        }
      ],
      "name": "transferOwnership",
      "outputs": [],
      "stateMutability": "nonpayable",
      "type": "function"
    }
  ],
  "transactionHash": "0xe5ebe8852b1129b89e7f623456c4b6eb12dab7905c276e2adefecac7d28f9e2c",
  "args": [],
  "numDeployments": 1,
  "solcInputHash": "80578d526a96a7b525015dc80b70bbc3",
  "bytecode": "0x60806040526e345a2a05aba6d6b069b7f5b1b12dc960025534801561002357600080fd5b5061002d33610032565b610082565b600080546001600160a01b038381166001600160a01b0319831681178455604051919092169283917f8be0079c531659141344cd1fd0a4f28419497f9722a3daafe3b4186f6b6457e09190a35050565b61043d806100916000396000f3fe608060405234801561001057600080fd5b50600436106100625760003560e01c80633ea478aa146100675780634368ec0c1461009f578063715018a6146100b45780638da5cb5b146100bc578063985e6487146100d7578063f2fde38b146100ea575b600080fd5b61008a6100753660046103a5565b60016020526000908152604090205460ff1681565b60405190151581526020015b60405180910390f35b6100b26100ad3660046103a5565b6100fd565b005b6100b26101f2565b6000546040516001600160a01b039091168152602001610096565b6100b26100e53660046103c9565b610206565b6100b26100f83660046103a5565b61026d565b3360009081526001602052604090205460ff166101615760405162461bcd60e51b815260206004820152601c60248201527f526571756573746572206d75737420626520617574686f72697a65640000000060448201526064015b60405180910390fd5b60025460405160200161017691815260200190565b60408051808303601f190181529082905280516020909101206002819055631bfaf51960e21b825260048201524360248201526001600160a01b03821690636febd46490604401600060405180830381600087803b1580156101d757600080fd5b505af11580156101eb573d6000803e3d6000fd5b5050505050565b6101fa6102e6565b6102046000610340565b565b61020e6102e6565b6001600160a01b038216600081815260016020908152604091829020805460ff191685151590811790915591519182527fb4d9db68405970190721d2b3726fc9f728c1413038755e60518dea67d5545556910160405180910390a25050565b6102756102e6565b6001600160a01b0381166102da5760405162461bcd60e51b815260206004820152602660248201527f4f776e61626c653a206e6577206f776e657220697320746865207a65726f206160448201526564647265737360d01b6064820152608401610158565b6102e381610340565b50565b6000546001600160a01b031633146102045760405162461bcd60e51b815260206004820181905260248201527f4f776e61626c653a2063616c6c6572206973206e6f7420746865206f776e65726044820152606401610158565b600080546001600160a01b038381166001600160a01b0319831681178455604051919092169283917f8be0079c531659141344cd1fd0a4f28419497f9722a3daafe3b4186f6b6457e09190a35050565b6001600160a01b03811681146102e357600080fd5b6000602082840312156103b757600080fd5b81356103c281610390565b9392505050565b600080604083850312156103dc57600080fd5b82356103e781610390565b9150602083013580151581146103fc57600080fd5b80915050925092905056fea2646970667358221220856a0ad265f63854383336ddb70989db38bfa9bf236963c74a4e7212b45ca4c564736f6c63430008110033",
  "devdoc": {
    "kind": "dev",
    "methods": {
      "owner()": {
        "details": "Returns the address of the current owner."
      },
      "renounceOwnership()": {
        "details": "Leaves the contract without owner. It will not be possible to call `onlyOwner` functions anymore. Can only be called by the current owner. NOTE: Renouncing ownership will leave the contract without an owner, thereby removing any functionality that is only available to the owner."
      },
      "requestRelayEntry(address)": {
        "details": "The caller must be an authorized requester.",
        "params": {
          "callbackContract": "Beacon consumer callback contract - Wallet Registry"
        }
      },
      "transferOwnership(address)": {
        "details": "Transfers ownership of the contract to a new account (`newOwner`). Can only be called by the current owner."
      }
    },
    "title": "Keep Random Beacon Chaosnet",
    "version": 1
  },
  "userdoc": {
    "kind": "user",
    "methods": {
      "authorizedRequesters(address)": {
        "notice": "Authorized addresses that can request a relay entry."
      },
      "requestRelayEntry(address)": {
        "notice": "Executes the callback with an arbitrary relay entry number."
      },
      "setRequesterAuthorization(address,bool)": {
        "notice": "Authorizes a requester of the relay entry."
      }
    },
    "notice": "A stub contract that will be used temporarily until the real-world         random beacon client implementation is ready.",
    "version": 1
  },
  "storageLayout": {
    "storage": [
      {
        "astId": 3888,
        "contract": "contracts/RandomBeaconChaosnet.sol:RandomBeaconChaosnet",
        "label": "_owner",
        "offset": 0,
        "slot": "0",
        "type": "t_address"
      },
      {
        "astId": 12172,
        "contract": "contracts/RandomBeaconChaosnet.sol:RandomBeaconChaosnet",
        "label": "authorizedRequesters",
        "offset": 0,
        "slot": "1",
        "type": "t_mapping(t_address,t_bool)"
      },
      {
        "astId": 12176,
        "contract": "contracts/RandomBeaconChaosnet.sol:RandomBeaconChaosnet",
        "label": "entry",
        "offset": 0,
        "slot": "2",
        "type": "t_uint256"
      }
    ],
    "types": {
      "t_address": {
        "encoding": "inplace",
        "label": "address",
        "numberOfBytes": "20"
      },
      "t_bool": {
        "encoding": "inplace",
        "label": "bool",
        "numberOfBytes": "1"
      },
      "t_mapping(t_address,t_bool)": {
        "encoding": "mapping",
        "key": "t_address",
        "label": "mapping(address => bool)",
        "numberOfBytes": "32",
        "value": "t_bool"
      },
      "t_uint256": {
        "encoding": "inplace",
        "label": "uint256",
        "numberOfBytes": "32"
      }
    }
  }
}