{
  "address": "0x8adF3f35dBE4026112bCFc078872bcb967732Ea8",
  "abi": [
    {
      "inputs": [
        {
          "internalType": "uint256",
          "name": "_staticGas",
          "type": "uint256"
        },
        {
          "internalType": "uint256",
          "name": "_maxGasPrice",
          "type": "uint256"
        }
      ],
      "stateMutability": "nonpayable",
      "type": "constructor"
    },
    {
      "anonymous": false,
      "inputs": [
        {
          "indexed": false,
          "internalType": "address",
          "name": "thirdPartyContract",
          "type": "address"
        }
      ],
      "name": "AuthorizedContract",
      "type": "event"
    },
    {
      "anonymous": false,
      "inputs": [
        {
          "indexed": false,
          "internalType": "uint256",
          "name": "withdrawnAmount",
          "type": "uint256"
        },
        {
          "indexed": false,
          "internalType": "address",
          "name": "receiver",
          "type": "address"
        }
      ],
      "name": "FundsWithdrawn",
      "type": "event"
    },
    {
      "anonymous": false,
      "inputs": [
        {
          "indexed": false,
          "internalType": "uint256",
          "name": "newMaxGasPrice",
          "type": "uint256"
        }
      ],
      "name": "MaxGasPriceUpdated",
      "type": "event"
    },
    {
      "anonymous": false,
      "inputs": [
        {
          "indexed": true,
          "internalType": "address",
          "name": "previousOwner",
          "type": "address"
        },
        {
          "indexed": true,
          "internalType": "address",
          "name": "newOwner",
          "type": "address"
        }
      ],
      "name": "OwnershipTransferred",
      "type": "event"
    },
    {
      "anonymous": false,
      "inputs": [
        {
          "indexed": false,
          "internalType": "uint256",
          "name": "refundAmount",
          "type": "uint256"
        },
        {
          "indexed": false,
          "internalType": "address",
          "name": "receiver",
          "type": "address"
        }
      ],
      "name": "SendingEtherFailed",
      "type": "event"
    },
    {
      "anonymous": false,
      "inputs": [
        {
          "indexed": false,
          "internalType": "uint256",
          "name": "newStaticGas",
          "type": "uint256"
        }
      ],
      "name": "StaticGasUpdated",
      "type": "event"
    },
    {
      "anonymous": false,
      "inputs": [
        {
          "indexed": false,
          "internalType": "address",
          "name": "thirdPartyContract",
          "type": "address"
        }
      ],
      "name": "UnauthorizedContract",
      "type": "event"
    },
    {
      "inputs": [
        {
          "internalType": "address",
          "name": "_contract",
          "type": "address"
        }
      ],
      "name": "authorize",
      "outputs": [],
      "stateMutability": "nonpayable",
      "type": "function"
    },
    {
      "inputs": [
        {
          "internalType": "address",
          "name": "",
          "type": "address"
        }
      ],
      "name": "isAuthorized",
      "outputs": [
        {
          "internalType": "bool",
          "name": "",
          "type": "bool"
        }
      ],
      "stateMutability": "view",
      "type": "function"
    },
    {
      "inputs": [],
      "name": "maxGasPrice",
      "outputs": [
        {
          "internalType": "uint256",
          "name": "",
          "type": "uint256"
        }
      ],
      "stateMutability": "view",
      "type": "function"
    },
    {
      "inputs": [],
      "name": "owner",
      "outputs": [
        {
          "internalType": "address",
          "name": "",
          "type": "address"
        }
      ],
      "stateMutability": "view",
      "type": "function"
    },
    {
      "inputs": [
        {
          "internalType": "uint256",
          "name": "gasSpent",
          "type": "uint256"
        },
        {
          "internalType": "address",
          "name": "receiver",
          "type": "address"
        }
      ],
      "name": "refund",
      "outputs": [],
      "stateMutability": "nonpayable",
      "type": "function"
    },
    {
      "inputs": [],
      "name": "renounceOwnership",
      "outputs": [],
      "stateMutability": "nonpayable",
      "type": "function"
    },
    {
      "inputs": [
        {
          "internalType": "uint256",
          "name": "_maxGasPrice",
          "type": "uint256"
        }
      ],
      "name": "setMaxGasPrice",
      "outputs": [],
      "stateMutability": "nonpayable",
      "type": "function"
    },
    {
      "inputs": [
        {
          "internalType": "uint256",
          "name": "_staticGas",
          "type": "uint256"
        }
      ],
      "name": "setStaticGas",
      "outputs": [],
      "stateMutability": "nonpayable",
      "type": "function"
    },
    {
      "inputs": [],
      "name": "staticGas",
      "outputs": [
        {
          "internalType": "uint256",
          "name": "",
          "type": "uint256"
        }
      ],
      "stateMutability": "view",
      "type": "function"
    },
    {
      "inputs": [
        {
          "internalType": "address",
          "name": "newOwner",
          "type": "address"
        }
      ],
      "name": "transferOwnership",
      "outputs": [],
      "stateMutability": "nonpayable",
      "type": "function"
    },
    {
      "inputs": [
        {
          "internalType": "address",
          "name": "_contract",
          "type": "address"
        }
      ],
      "name": "unauthorize",
      "outputs": [],
      "stateMutability": "nonpayable",
      "type": "function"
    },
    {
      "inputs": [
        {
          "internalType": "uint256",
          "name": "amount",
          "type": "uint256"
        },
        {
          "internalType": "address",
          "name": "receiver",
          "type": "address"
        }
      ],
      "name": "withdraw",
      "outputs": [],
      "stateMutability": "nonpayable",
      "type": "function"
    },
    {
      "inputs": [
        {
          "internalType": "address",
          "name": "receiver",
          "type": "address"
        }
      ],
      "name": "withdrawAll",
      "outputs": [],
      "stateMutability": "nonpayable",
      "type": "function"
    },
    {
      "stateMutability": "payable",
      "type": "receive"
    }
  ],
  "transactionHash": "0xee0d41cc8b64e436197e3f7521773a3733a7b0d42af14934c712efeaabff84fc",
  "args": [
    40800,
    500000000000
  ],
  "numDeployments": 1,
  "solcInputHash": "315dd8aa56418c14cbdc8d65adaa494b",
  "bytecode": "0x608060405234801561001057600080fd5b50604051610a49380380610a4983398101604081905261002f9161009a565b6100383361004a565b600180556003919091556004556100be565b600080546001600160a01b038381166001600160a01b0319831681178455604051919092169283917f8be0079c531659141344cd1fd0a4f28419497f9722a3daafe3b4186f6b6457e09190a35050565b600080604083850312156100ad57600080fd5b505080516020909101519092909150565b61097c806100cd6000396000f3fe6080604052600436106100c55760003560e01c8063b6a5d7de1161007f578063f0b37c0411610059578063f0b37c04146101ef578063f2fde38b1461020f578063fa09e6301461022f578063fe9fbb801461024f57600080fd5b8063b6a5d7de14610199578063d2fa635e146101b9578063e25b5345146101d957600080fd5b8062f714ce146100d15780633de39c11146100f35780633e2174041461011c578063715018a61461013c5780637ad226dc146101515780638da5cb5b1461017157600080fd5b366100cc57005b600080fd5b3480156100dd57600080fd5b506100f16100ec366004610858565b61028f565b005b3480156100ff57600080fd5b5061010960045481565b6040519081526020015b60405180910390f35b34801561012857600080fd5b506100f1610137366004610884565b6103f2565b34801561014857600080fd5b506100f1610436565b34801561015d57600080fd5b506100f161016c366004610858565b61044a565b34801561017d57600080fd5b506000546040516001600160a01b039091168152602001610113565b3480156101a557600080fd5b506100f16101b436600461089d565b610615565b3480156101c557600080fd5b506100f16101d4366004610884565b610671565b3480156101e557600080fd5b5061010960035481565b3480156101fb57600080fd5b506100f161020a36600461089d565b6106ae565b34801561021b57600080fd5b506100f161022a36600461089d565b610707565b34801561023b57600080fd5b506100f161024a36600461089d565b610780565b34801561025b57600080fd5b5061027f61026a36600461089d565b60026020526000908152604090205460ff1681565b6040519015158152602001610113565b610297610792565b814710156102ec5760405162461bcd60e51b815260206004820152601d60248201527f496e73756666696369656e7420636f6e74726163742062616c616e636500000060448201526064015b60405180910390fd5b6001600160a01b0381166103125760405162461bcd60e51b81526004016102e3906108bf565b604080518381526001600160a01b03831660208201527f6141b54b56b8a52a8c6f5cd2a857f6117b18ffbf4d46bd3106f300a839cbf5ea910160405180910390a16000816001600160a01b03168360405160006040518083038185875af1925050503d80600081146103a0576040519150601f19603f3d011682016040523d82523d6000602084013e6103a5565b606091505b50509050806103ed5760405162461bcd60e51b81526020600482015260146024820152732330b4b632b2103a379039b2b7321022ba3432b960611b60448201526064016102e3565b505050565b6103fa610792565b60038190556040518181527fa86b6e9a406df021f05f513a796a1d5bea0bd3e18fe1d3f6082a3cccfc898d14906020015b60405180910390a150565b61043e610792565b61044860006107ec565b565b60026001540361049c5760405162461bcd60e51b815260206004820152601f60248201527f5265656e7472616e637947756172643a207265656e7472616e742063616c6c0060448201526064016102e3565b60026001819055336000908152602091909152604090205460ff166105135760405162461bcd60e51b815260206004820152602760248201527f436f6e7472616374206973206e6f7420617574686f72697a656420666f722061604482015266081c99599d5b9960ca1b60648201526084016102e3565b6001600160a01b0381166105395760405162461bcd60e51b81526004016102e3906108bf565b60006004543a1061054c5760045461054e565b3a5b9050600081600354856105619190610916565b61056b919061092f565b90506000836001600160a01b03168260405160006040518083038185875af1925050503d80600081146105ba576040519150601f19603f3d011682016040523d82523d6000602084013e6105bf565b606091505b505090508061060a57604080518381526001600160a01b03861660208201527fd955712c3ae4c3c40451db84ea0c4531c61cc0ea75c13fe9168ae0e07d71e050910160405180910390a15b505060018055505050565b61061d610792565b6001600160a01b038116600081815260026020908152604091829020805460ff1916600117905590519182527f2c74592fddad593c2c4403101ce9b30930711ab87571268ddd1e1989ee1d7917910161042b565b610679610792565b60048190556040518181527fa7a07f821dfdfca8e4baa9ccc4bbe7b782baac5946918bd19f1c9c761db414109060200161042b565b6106b6610792565b6001600160a01b038116600081815260026020908152604091829020805460ff1916905590519182527fe195aa139c7c69ba98f719c94aecd784e12fabc0789ef81335150078bc087317910161042b565b61070f610792565b6001600160a01b0381166107745760405162461bcd60e51b815260206004820152602660248201527f4f776e61626c653a206e6577206f776e657220697320746865207a65726f206160448201526564647265737360d01b60648201526084016102e3565b61077d816107ec565b50565b610788610792565b61077d478261028f565b6000546001600160a01b031633146104485760405162461bcd60e51b815260206004820181905260248201527f4f776e61626c653a2063616c6c6572206973206e6f7420746865206f776e657260448201526064016102e3565b600080546001600160a01b038381166001600160a01b0319831681178455604051919092169283917f8be0079c531659141344cd1fd0a4f28419497f9722a3daafe3b4186f6b6457e09190a35050565b80356001600160a01b038116811461085357600080fd5b919050565b6000806040838503121561086b57600080fd5b8235915061087b6020840161083c565b90509250929050565b60006020828403121561089657600080fd5b5035919050565b6000602082840312156108af57600080fd5b6108b88261083c565b9392505050565b60208082526021908201527f5265636569766572277320616464726573732063616e6e6f74206265207a65726040820152606f60f81b606082015260800190565b634e487b7160e01b600052601160045260246000fd5b8082018082111561092957610929610900565b92915050565b80820281158282048414176109295761092961090056fea2646970667358221220578df9772b15d4ba1bc520679b4729538fcffa2275405fa7f9472c205cf79f2764736f6c63430008110033",
  "devdoc": {
    "kind": "dev",
    "methods": {
      "authorize(address)": {
        "params": {
          "_contract": "Authorized contract."
        }
      },
      "owner()": {
        "details": "Returns the address of the current owner."
      },
      "refund(uint256,address)": {
        "details": "Ignoring the result of sending ETH to a receiver is made on purpose.      For EOA receiving ETH should always work. If a receiver is a smart      contract, then we do not want to fail a transaction, because in some      cases the refund is done at the very end of multiple calls where all      the previous calls were already paid off. It is a receiver's smart      contract resposibility to make sure it can receive ETH.Only authorized contracts are allowed calling this function.",
        "params": {
          "gasSpent": "Gas spent on a transaction that needs to be reimbursed.",
          "receiver": "Address where the reimbursment is sent."
        }
      },
      "renounceOwnership()": {
        "details": "Leaves the contract without owner. It will not be possible to call `onlyOwner` functions anymore. Can only be called by the current owner. NOTE: Renouncing ownership will leave the contract without an owner, thereby removing any functionality that is only available to the owner."
      },
      "setMaxGasPrice(uint256)": {
        "params": {
          "_maxGasPrice": "Max gas price used to reimburse tx submitters."
        }
      },
      "setStaticGas(uint256)": {
        "params": {
          "_staticGas": "Static gas cost."
        }
      },
      "transferOwnership(address)": {
        "details": "Transfers ownership of the contract to a new account (`newOwner`). Can only be called by the current owner."
      },
      "unauthorize(address)": {
        "params": {
          "_contract": "Authorized contract."
        }
      },
      "withdraw(uint256,address)": {
        "params": {
          "amount": "Amount to withdraw from the pool.",
          "receiver": "An address where ETH is sent."
        }
      },
      "withdrawAll(address)": {
        "params": {
          "receiver": "An address where ETH is sent."
        }
      }
    },
    "version": 1
  },
  "userdoc": {
    "kind": "user",
    "methods": {
      "authorize(address)": {
        "notice": "Authorize a contract that can interact with this reimbursment pool.         Can be authorized by the owner only."
      },
      "isAuthorized(address)": {
        "notice": "Authorized contracts that can interact with the reimbursment pool.         Authorization can be granted and removed by the owner."
      },
      "maxGasPrice()": {
        "notice": "Max gas price used to reimburse a transaction submitter. Protects         against malicious operator-miners."
      },
      "refund(uint256,address)": {
        "notice": "Refunds ETH to a spender for executing specific transactions."
      },
      "setMaxGasPrice(uint256)": {
        "notice": "Setting a max gas price for transactions. Can be set by the         owner only."
      },
      "setStaticGas(uint256)": {
        "notice": "Setting a static gas cost for executing a transaction. Can be set         by the owner only."
      },
      "staticGas()": {
        "notice": "Static gas includes:         - cost of the refund function         - base transaction cost"
      },
      "unauthorize(address)": {
        "notice": "Unauthorize a contract that was previously authorized to interact         with this reimbursment pool. Can be unauthorized by the         owner only."
      },
      "withdraw(uint256,address)": {
        "notice": "Withdraws ETH amount from this pool which are sent to a given         address. Can be set by the owner only."
      },
      "withdrawAll(address)": {
        "notice": "Withdraws all ETH from this pool which are sent to a given         address. Can be set by the owner only."
      }
    },
    "version": 1
  },
  "storageLayout": {
    "storage": [
      {
        "astId": 3888,
        "contract": "contracts/ReimbursementPool.sol:ReimbursementPool",
        "label": "_owner",
        "offset": 0,
        "slot": "0",
        "type": "t_address"
      },
      {
        "astId": 4004,
        "contract": "contracts/ReimbursementPool.sol:ReimbursementPool",
        "label": "_status",
        "offset": 0,
        "slot": "1",
        "type": "t_uint256"
      },
      {
        "astId": 14694,
        "contract": "contracts/ReimbursementPool.sol:ReimbursementPool",
        "label": "isAuthorized",
        "offset": 0,
        "slot": "2",
        "type": "t_mapping(t_address,t_bool)"
      },
      {
        "astId": 14697,
        "contract": "contracts/ReimbursementPool.sol:ReimbursementPool",
        "label": "staticGas",
        "offset": 0,
        "slot": "3",
        "type": "t_uint256"
      },
      {
        "astId": 14700,
        "contract": "contracts/ReimbursementPool.sol:ReimbursementPool",
        "label": "maxGasPrice",
        "offset": 0,
        "slot": "4",
        "type": "t_uint256"
      }
    ],
    "types": {
      "t_address": {
        "encoding": "inplace",
        "label": "address",
        "numberOfBytes": "20"
      },
      "t_bool": {
        "encoding": "inplace",
        "label": "bool",
        "numberOfBytes": "1"
      },
      "t_mapping(t_address,t_bool)": {
        "encoding": "mapping",
        "key": "t_address",
        "label": "mapping(address => bool)",
        "numberOfBytes": "32",
        "value": "t_bool"
      },
      "t_uint256": {
        "encoding": "inplace",
        "label": "uint256",
        "numberOfBytes": "32"
      }
    }
  }
}