{
  "address": "0xCdF7028ceAB81fA0C6971208e83fa7872994beE5",
  "abi": [
    {
      "inputs": [],
      "stateMutability": "nonpayable",
      "type": "constructor"
    },
    {
      "anonymous": false,
      "inputs": [
        {
          "indexed": true,
          "internalType": "address",
          "name": "owner",
          "type": "address"
        },
        {
          "indexed": true,
          "internalType": "address",
          "name": "spender",
          "type": "address"
        },
        {
          "indexed": false,
          "internalType": "uint256",
          "name": "value",
          "type": "uint256"
        }
      ],
      "name": "Approval",
      "type": "event"
    },
    {
      "anonymous": false,
      "inputs": [
        {
          "indexed": true,
          "internalType": "address",
          "name": "delegator",
          "type": "address"
        },
        {
          "indexed": true,
          "internalType": "address",
          "name": "fromDelegate",
          "type": "address"
        },
        {
          "indexed": true,
          "internalType": "address",
          "name": "toDelegate",
          "type": "address"
        }
      ],
      "name": "DelegateChanged",
      "type": "event"
    },
    {
      "anonymous": false,
      "inputs": [
        {
          "indexed": true,
          "internalType": "address",
          "name": "delegate",
          "type": "address"
        },
        {
          "indexed": false,
          "internalType": "uint256",
          "name": "previousBalance",
          "type": "uint256"
        },
        {
          "indexed": false,
          "internalType": "uint256",
          "name": "newBalance",
          "type": "uint256"
        }
      ],
      "name": "DelegateVotesChanged",
      "type": "event"
    },
    {
      "anonymous": false,
      "inputs": [
        {
          "indexed": true,
          "internalType": "address",
          "name": "previousOwner",
          "type": "address"
        },
        {
          "indexed": true,
          "internalType": "address",
          "name": "newOwner",
          "type": "address"
        }
      ],
      "name": "OwnershipTransferred",
      "type": "event"
    },
    {
      "anonymous": false,
      "inputs": [
        {
          "indexed": true,
          "internalType": "address",
          "name": "from",
          "type": "address"
        },
        {
          "indexed": true,
          "internalType": "address",
          "name": "to",
          "type": "address"
        },
        {
          "indexed": false,
          "internalType": "uint256",
          "name": "value",
          "type": "uint256"
        }
      ],
      "name": "Transfer",
      "type": "event"
    },
    {
      "inputs": [],
      "name": "DELEGATION_TYPEHASH",
      "outputs": [
        {
          "internalType": "bytes32",
          "name": "",
          "type": "bytes32"
        }
      ],
      "stateMutability": "view",
      "type": "function"
    },
    {
      "inputs": [],
      "name": "DOMAIN_SEPARATOR",
      "outputs": [
        {
          "internalType": "bytes32",
          "name": "",
          "type": "bytes32"
        }
      ],
      "stateMutability": "view",
      "type": "function"
    },
    {
      "inputs": [],
      "name": "PERMIT_TYPEHASH",
      "outputs": [
        {
          "internalType": "bytes32",
          "name": "",
          "type": "bytes32"
        }
      ],
      "stateMutability": "view",
      "type": "function"
    },
    {
      "inputs": [
        {
          "internalType": "address",
          "name": "",
          "type": "address"
        },
        {
          "internalType": "address",
          "name": "",
          "type": "address"
        }
      ],
      "name": "allowance",
      "outputs": [
        {
          "internalType": "uint256",
          "name": "",
          "type": "uint256"
        }
      ],
      "stateMutability": "view",
      "type": "function"
    },
    {
      "inputs": [
        {
          "internalType": "address",
          "name": "spender",
          "type": "address"
        },
        {
          "internalType": "uint256",
          "name": "amount",
          "type": "uint256"
        }
      ],
      "name": "approve",
      "outputs": [
        {
          "internalType": "bool",
          "name": "",
          "type": "bool"
        }
      ],
      "stateMutability": "nonpayable",
      "type": "function"
    },
    {
      "inputs": [
        {
          "internalType": "address",
          "name": "spender",
          "type": "address"
        },
        {
          "internalType": "uint256",
          "name": "amount",
          "type": "uint256"
        },
        {
          "internalType": "bytes",
          "name": "extraData",
          "type": "bytes"
        }
      ],
      "name": "approveAndCall",
      "outputs": [
        {
          "internalType": "bool",
          "name": "",
          "type": "bool"
        }
      ],
      "stateMutability": "nonpayable",
      "type": "function"
    },
    {
      "inputs": [
        {
          "internalType": "address",
          "name": "",
          "type": "address"
        }
      ],
      "name": "balanceOf",
      "outputs": [
        {
          "internalType": "uint256",
          "name": "",
          "type": "uint256"
        }
      ],
      "stateMutability": "view",
      "type": "function"
    },
    {
      "inputs": [
        {
          "internalType": "uint256",
          "name": "amount",
          "type": "uint256"
        }
      ],
      "name": "burn",
      "outputs": [],
      "stateMutability": "nonpayable",
      "type": "function"
    },
    {
      "inputs": [
        {
          "internalType": "address",
          "name": "account",
          "type": "address"
        },
        {
          "internalType": "uint256",
          "name": "amount",
          "type": "uint256"
        }
      ],
      "name": "burnFrom",
      "outputs": [],
      "stateMutability": "nonpayable",
      "type": "function"
    },
    {
      "inputs": [],
      "name": "cachedChainId",
      "outputs": [
        {
          "internalType": "uint256",
          "name": "",
          "type": "uint256"
        }
      ],
      "stateMutability": "view",
      "type": "function"
    },
    {
      "inputs": [],
      "name": "cachedDomainSeparator",
      "outputs": [
        {
          "internalType": "bytes32",
          "name": "",
          "type": "bytes32"
        }
      ],
      "stateMutability": "view",
      "type": "function"
    },
    {
      "inputs": [
        {
          "internalType": "address",
          "name": "account",
          "type": "address"
        },
        {
          "internalType": "uint32",
          "name": "pos",
          "type": "uint32"
        }
      ],
      "name": "checkpoints",
      "outputs": [
        {
          "components": [
            {
              "internalType": "uint32",
              "name": "fromBlock",
              "type": "uint32"
            },
            {
              "internalType": "uint96",
              "name": "votes",
              "type": "uint96"
            }
          ],
          "internalType": "struct Checkpoints.Checkpoint",
          "name": "checkpoint",
          "type": "tuple"
        }
      ],
      "stateMutability": "view",
      "type": "function"
    },
    {
      "inputs": [],
      "name": "decimals",
      "outputs": [
        {
          "internalType": "uint8",
          "name": "",
          "type": "uint8"
        }
      ],
      "stateMutability": "view",
      "type": "function"
    },
    {
      "inputs": [
        {
          "internalType": "address",
          "name": "delegatee",
          "type": "address"
        }
      ],
      "name": "delegate",
      "outputs": [],
      "stateMutability": "nonpayable",
      "type": "function"
    },
    {
      "inputs": [
        {
          "internalType": "address",
          "name": "signatory",
          "type": "address"
        },
        {
          "internalType": "address",
          "name": "delegatee",
          "type": "address"
        },
        {
          "internalType": "uint256",
          "name": "deadline",
          "type": "uint256"
        },
        {
          "internalType": "uint8",
          "name": "v",
          "type": "uint8"
        },
        {
          "internalType": "bytes32",
          "name": "r",
          "type": "bytes32"
        },
        {
          "internalType": "bytes32",
          "name": "s",
          "type": "bytes32"
        }
      ],
      "name": "delegateBySig",
      "outputs": [],
      "stateMutability": "nonpayable",
      "type": "function"
    },
    {
      "inputs": [
        {
          "internalType": "address",
          "name": "account",
          "type": "address"
        }
      ],
      "name": "delegates",
      "outputs": [
        {
          "internalType": "address",
          "name": "",
          "type": "address"
        }
      ],
      "stateMutability": "view",
      "type": "function"
    },
    {
      "inputs": [
        {
          "internalType": "uint256",
          "name": "blockNumber",
          "type": "uint256"
        }
      ],
      "name": "getPastTotalSupply",
      "outputs": [
        {
          "internalType": "uint96",
          "name": "",
          "type": "uint96"
        }
      ],
      "stateMutability": "view",
      "type": "function"
    },
    {
      "inputs": [
        {
          "internalType": "address",
          "name": "account",
          "type": "address"
        },
        {
          "internalType": "uint256",
          "name": "blockNumber",
          "type": "uint256"
        }
      ],
      "name": "getPastVotes",
      "outputs": [
        {
          "internalType": "uint96",
          "name": "",
          "type": "uint96"
        }
      ],
      "stateMutability": "view",
      "type": "function"
    },
    {
      "inputs": [
        {
          "internalType": "address",
          "name": "account",
          "type": "address"
        }
      ],
      "name": "getVotes",
      "outputs": [
        {
          "internalType": "uint96",
          "name": "",
          "type": "uint96"
        }
      ],
      "stateMutability": "view",
      "type": "function"
    },
    {
      "inputs": [
        {
          "internalType": "address",
          "name": "recipient",
          "type": "address"
        },
        {
          "internalType": "uint256",
          "name": "amount",
          "type": "uint256"
        }
      ],
      "name": "mint",
      "outputs": [],
      "stateMutability": "nonpayable",
      "type": "function"
    },
    {
      "inputs": [],
      "name": "name",
      "outputs": [
        {
          "internalType": "string",
          "name": "",
          "type": "string"
        }
      ],
      "stateMutability": "view",
      "type": "function"
    },
    {
      "inputs": [
        {
          "internalType": "address",
          "name": "",
          "type": "address"
        }
      ],
      "name": "nonce",
      "outputs": [
        {
          "internalType": "uint256",
          "name": "",
          "type": "uint256"
        }
      ],
      "stateMutability": "view",
      "type": "function"
    },
    {
      "inputs": [
        {
          "internalType": "address",
          "name": "account",
          "type": "address"
        }
      ],
      "name": "numCheckpoints",
      "outputs": [
        {
          "internalType": "uint32",
          "name": "",
          "type": "uint32"
        }
      ],
      "stateMutability": "view",
      "type": "function"
    },
    {
      "inputs": [],
      "name": "owner",
      "outputs": [
        {
          "internalType": "address",
          "name": "",
          "type": "address"
        }
      ],
      "stateMutability": "view",
      "type": "function"
    },
    {
      "inputs": [
        {
          "internalType": "address",
          "name": "owner",
          "type": "address"
        },
        {
          "internalType": "address",
          "name": "spender",
          "type": "address"
        },
        {
          "internalType": "uint256",
          "name": "amount",
          "type": "uint256"
        },
        {
          "internalType": "uint256",
          "name": "deadline",
          "type": "uint256"
        },
        {
          "internalType": "uint8",
          "name": "v",
          "type": "uint8"
        },
        {
          "internalType": "bytes32",
          "name": "r",
          "type": "bytes32"
        },
        {
          "internalType": "bytes32",
          "name": "s",
          "type": "bytes32"
        }
      ],
      "name": "permit",
      "outputs": [],
      "stateMutability": "nonpayable",
      "type": "function"
    },
    {
      "inputs": [
        {
          "internalType": "contract IERC20",
          "name": "token",
          "type": "address"
        },
        {
          "internalType": "address",
          "name": "recipient",
          "type": "address"
        },
        {
          "internalType": "uint256",
          "name": "amount",
          "type": "uint256"
        }
      ],
      "name": "recoverERC20",
      "outputs": [],
      "stateMutability": "nonpayable",
      "type": "function"
    },
    {
      "inputs": [
        {
          "internalType": "contract IERC721",
          "name": "token",
          "type": "address"
        },
        {
          "internalType": "address",
          "name": "recipient",
          "type": "address"
        },
        {
          "internalType": "uint256",
          "name": "tokenId",
          "type": "uint256"
        },
        {
          "internalType": "bytes",
          "name": "data",
          "type": "bytes"
        }
      ],
      "name": "recoverERC721",
      "outputs": [],
      "stateMutability": "nonpayable",
      "type": "function"
    },
    {
      "inputs": [],
      "name": "renounceOwnership",
      "outputs": [],
      "stateMutability": "nonpayable",
      "type": "function"
    },
    {
      "inputs": [],
      "name": "symbol",
      "outputs": [
        {
          "internalType": "string",
          "name": "",
          "type": "string"
        }
      ],
      "stateMutability": "view",
      "type": "function"
    },
    {
      "inputs": [],
      "name": "totalSupply",
      "outputs": [
        {
          "internalType": "uint256",
          "name": "",
          "type": "uint256"
        }
      ],
      "stateMutability": "view",
      "type": "function"
    },
    {
      "inputs": [
        {
          "internalType": "address",
          "name": "recipient",
          "type": "address"
        },
        {
          "internalType": "uint256",
          "name": "amount",
          "type": "uint256"
        }
      ],
      "name": "transfer",
      "outputs": [
        {
          "internalType": "bool",
          "name": "",
          "type": "bool"
        }
      ],
      "stateMutability": "nonpayable",
      "type": "function"
    },
    {
      "inputs": [
        {
          "internalType": "address",
          "name": "spender",
          "type": "address"
        },
        {
          "internalType": "address",
          "name": "recipient",
          "type": "address"
        },
        {
          "internalType": "uint256",
          "name": "amount",
          "type": "uint256"
        }
      ],
      "name": "transferFrom",
      "outputs": [
        {
          "internalType": "bool",
          "name": "",
          "type": "bool"
        }
      ],
      "stateMutability": "nonpayable",
      "type": "function"
    },
    {
      "inputs": [
        {
          "internalType": "address",
          "name": "newOwner",
          "type": "address"
        }
      ],
      "name": "transferOwnership",
      "outputs": [],
      "stateMutability": "nonpayable",
      "type": "function"
    }
  ],
  "transactionHash": "0xdfc479f92a88c0a7a2148227c0d4c07db077df75ced4b0409465459a6b1a2454",
  "args": [],
  "solcInputHash": "43eb8b17fe7c2ce0e21167459a2d9d30",
  "bytecode": "0x60c06040523480156200001157600080fd5b506040518060400160405280601781526020017f5468726573686f6c64204e6574776f726b20546f6b656e000000000000000000815250604051806040016040528060018152602001601560fa1b8152506200007c62000076620000c260201b60201c565b620000c6565b815162000091906005906020850190620001c7565b508051620000a7906006906020840190620001c7565b5046608052620000b662000116565b60a052506200034e9050565b3390565b600080546001600160a01b038381166001600160a01b0319831681178455604051919092169283917f8be0079c531659141344cd1fd0a4f28419497f9722a3daafe3b4186f6b6457e09190a35050565b60007f8b73c3c69bb8fe3d512ecc4cf759cc79239f7b179b0ffacaa9a75d522b39400f60056040516200014a9190620002aa565b60408051918290038220828201825260018352603160f81b6020938401528151928301939093528101919091527fc89efdaa54c0f20c7adf612882df0950f5a951637e0307cdcb4c672f298b8bc660608201524660808201523060a082015260c00160405160208183030381529060405280519060200120905090565b828054620001d5906200026d565b90600052602060002090601f016020900481019282620001f9576000855562000244565b82601f106200021457805160ff191683800117855562000244565b8280016001018555821562000244579182015b828111156200024457825182559160200191906001019062000227565b506200025292915062000256565b5090565b5b8082111562000252576000815560010162000257565b600181811c908216806200028257607f821691505b60208210811415620002a457634e487b7160e01b600052602260045260246000fd5b50919050565b600080835481600182811c915080831680620002c757607f831692505b6020808410821415620002e857634e487b7160e01b86526022600452602486fd5b818015620002ff5760018114620003115762000340565b60ff1986168952848901965062000340565b60008a81526020902060005b86811015620003385781548b8201529085019083016200031d565b505084890196505b509498975050505050505050565b60805160a05161262d620003826000396000818161042301526106f501526000818161038d01526106cc015261262d6000f3fe608060405234801561001057600080fd5b50600436106101bb5760003560e01c8063715018a6116100fa578063b20d7fa91161009d578063b20d7fa91461040b578063b4f94b2e1461041e578063cae9ca5114610445578063d505accf14610458578063dd62ed3e1461046b578063e7a324dc14610496578063f1127ed8146104bd578063f2fde38b146104fa578063fc4e51f61461050d57600080fd5b8063715018a614610380578063771da5c51461038857806379cc6790146103af5780638da5cb5b146103c25780638e539e8c146103ca57806395d89b41146103dd5780639ab24eb0146103e5578063a9059cbb146103f857600080fd5b80633a46b1a8116101625780633a46b1a81461028957806340c10f19146102b457806342966c68146102c7578063587cde1e146102da5780635c19a95c146103055780636fcfff451461031857806370a082311461034057806370ae92d21461036057600080fd5b806306fdde03146101c0578063095ea7b3146101de5780631171bda91461020157806318160ddd1461021657806323b872dd1461022d57806330adf81f14610240578063313ce567146102675780633644e51514610281575b600080fd5b6101c8610520565b6040516101d59190611f0c565b60405180910390f35b6101f16101ec366004611f34565b6105ae565b60405190151581526020016101d5565b61021461020f366004611f60565b6105c4565b005b61021f60045481565b6040519081526020016101d5565b6101f161023b366004611f60565b610615565b61021f7f6e71edae12b1b97f4d1f60370fef10105fa2faae0126114a169c64845d6126c981565b61026f601281565b60405160ff90911681526020016101d5565b61021f6106c8565b61029c610297366004611f34565b610724565b6040516001600160601b0390911681526020016101d5565b6102146102c2366004611f34565b610746565b6102146102d5366004611fa1565b610849565b6102ed6102e8366004611fba565b610856565b6040516001600160a01b0390911681526020016101d5565b610214610313366004611fba565b610874565b61032b610326366004611fba565b61087e565b60405163ffffffff90911681526020016101d5565b61021f61034e366004611fba565b60016020526000908152604090205481565b61021f61036e366004611fba565b60036020526000908152604090205481565b6102146108a6565b61021f7f000000000000000000000000000000000000000000000000000000000000000081565b6102146103bd366004611f34565b6108e1565b6102ed610977565b61029c6103d8366004611fa1565b610986565b6101c8610993565b61029c6103f3366004611fba565b6109a0565b6101f1610406366004611f34565b610a30565b610214610419366004611fed565b610a3d565b61021f7f000000000000000000000000000000000000000000000000000000000000000081565b6101f1610453366004612066565b610c6a565b610214610466366004612133565b610cf2565b61021f6104793660046121a1565b600260209081526000928352604080842090915290825290205481565b61021f7f76995fe87be88484696cfd6792aeb71e0b61f81dfa3b641e5adffa38a0d3b8e281565b6104d06104cb3660046121da565b610f2c565b60408051825163ffffffff1681526020928301516001600160601b031692810192909252016101d5565b610214610508366004611fba565b610fd8565b61021461051b366004612211565b611075565b6005805461052d906122b0565b80601f0160208091040260200160405190810160405280929190818152602001828054610559906122b0565b80156105a65780601f1061057b576101008083540402835291602001916105a6565b820191906000526020600020905b81548152906001019060200180831161058957829003601f168201915b505050505081565b60006105bb338484611106565b50600192915050565b336105cd610977565b6001600160a01b0316146105fc5760405162461bcd60e51b81526004016105f3906122eb565b60405180910390fd5b6106106001600160a01b0384168383611214565b505050565b6001600160a01b038316600090815260026020908152604080832033845290915281205460001981146106b0578281101561069c5760405162461bcd60e51b815260206004820152602160248201527f5472616e7366657220616d6f756e74206578636565647320616c6c6f77616e636044820152606560f81b60648201526084016105f3565b6106b085336106ab8685612336565b611106565b6106bb858585611266565b60019150505b9392505050565b60007f000000000000000000000000000000000000000000000000000000000000000046141561071757507f000000000000000000000000000000000000000000000000000000000000000090565b61071f611467565b905090565b6001600160a01b03821660009081526008602052604081206106c19083611516565b3361074f610977565b6001600160a01b0316146107755760405162461bcd60e51b81526004016105f3906122eb565b6001600160a01b0382166107c65760405162461bcd60e51b81526020600482015260186024820152774d696e7420746f20746865207a65726f206164647265737360401b60448201526064016105f3565b6107d260008383611611565b80600460008282546107e4919061234d565b90915550506001600160a01b0382166000908152600160205260408120805483929061081190849061234d565b90915550506040518181526001600160a01b038316906000906000805160206125d88339815191529060200160405180910390a35050565b61085333826116fd565b50565b6001600160a01b039081166000908152600760205260409020541690565b61085333826117db565b6001600160a01b0381166000908152600860205260408120546108a09061187d565b92915050565b336108af610977565b6001600160a01b0316146108d55760405162461bcd60e51b81526004016105f3906122eb565b6108df60006118e6565b565b6001600160a01b0382166000908152600260209081526040808320338452909152902054600019811461096d578181101561095e5760405162461bcd60e51b815260206004820152601d60248201527f4275726e20616d6f756e74206578636565647320616c6c6f77616e636500000060448201526064016105f3565b61096d83336106ab8585612336565b61061083836116fd565b6000546001600160a01b031690565b60006108a0600983611516565b6006805461052d906122b0565b6001600160a01b0381166000908152600860205260408120548015610a27576001600160a01b0383166000908152600860205260409020610a22906109e6600184612336565b815481106109f6576109f6612365565b90600052602060002090600291828204019190066010029054906101000a90046001600160801b031690565b6106c1565b60009392505050565b60006105bb338484611266565b42841015610a825760405162461bcd60e51b815260206004820152601260248201527111195b1959d85d1a5bdb88195e1c1a5c995960721b60448201526064016105f3565b6fa2a8918ca85bafe22016d0b997e4df60600160ff1b03811115610ab85760405162461bcd60e51b81526004016105f39061237b565b8260ff16601b1480610acd57508260ff16601c145b610ae95760405162461bcd60e51b81526004016105f3906123b2565b6000610af36106c8565b6001600160a01b038816600090815260036020526040812080547f76995fe87be88484696cfd6792aeb71e0b61f81dfa3b641e5adffa38a0d3b8e2928a9290610b3b836123e9565b9190505588604051602001610b7294939291909384526001600160a01b039290921660208401526040830152606082015260800190565b60405160208183030381529060405280519060200120604051602001610b99929190612404565b60408051601f198184030181528282528051602091820120600080855291840180845281905260ff88169284019290925260608301869052608083018590529092509060019060a0016020604051602081039080840390855afa158015610c04573d6000803e3d6000fd5b5050604051601f1901519150506001600160a01b03811615801590610c3a5750876001600160a01b0316816001600160a01b0316145b610c565760405162461bcd60e51b81526004016105f39061241f565b610c6088886117db565b5050505050505050565b6000610c7684846105ae565b15610ce857604051638f4ffcb160e01b81526001600160a01b03851690638f4ffcb190610cad90339087903090889060040161244a565b600060405180830381600087803b158015610cc757600080fd5b505af1158015610cdb573d6000803e3d6000fd5b50505050600190506106c1565b5060009392505050565b42841015610d375760405162461bcd60e51b815260206004820152601260248201527114195c9b5a5cdcda5bdb88195e1c1a5c995960721b60448201526064016105f3565b6fa2a8918ca85bafe22016d0b997e4df60600160ff1b03811115610d6d5760405162461bcd60e51b81526004016105f39061237b565b8260ff16601b1480610d8257508260ff16601c145b610d9e5760405162461bcd60e51b81526004016105f3906123b2565b6000610da86106c8565b6001600160a01b038916600090815260036020526040812080547f6e71edae12b1b97f4d1f60370fef10105fa2faae0126114a169c64845d6126c9928c928c928c92909190610df6836123e9565b909155506040805160208101969096526001600160a01b0394851690860152929091166060840152608083015260a082015260c0810187905260e00160405160208183030381529060405280519060200120604051602001610e59929190612404565b60408051601f198184030181528282528051602091820120600080855291840180845281905260ff88169284019290925260608301869052608083018590529092509060019060a0016020604051602081039080840390855afa158015610ec4573d6000803e3d6000fd5b5050604051601f1901519150506001600160a01b03811615801590610efa5750886001600160a01b0316816001600160a01b0316145b610f165760405162461bcd60e51b81526004016105f39061241f565b610f21898989611106565b505050505050505050565b60408051808201909152600080825260208201526001600160a01b038316600090815260086020526040812080548291610fad9163ffffffff8716908110610f7657610f76612365565b90600052602060002090600291828204019190066010029054906101000a90046001600160801b031663ffffffff606082901c1691565b6040805180820190915263ffffffff90921682526001600160601b0316602082015295945050505050565b33610fe1610977565b6001600160a01b0316146110075760405162461bcd60e51b81526004016105f3906122eb565b6001600160a01b03811661106c5760405162461bcd60e51b815260206004820152602660248201527f4f776e61626c653a206e6577206f776e657220697320746865207a65726f206160448201526564647265737360d01b60648201526084016105f3565b610853816118e6565b3361107e610977565b6001600160a01b0316146110a45760405162461bcd60e51b81526004016105f3906122eb565b604051635c46a7ef60e11b81526001600160a01b0386169063b88d4fde906110d89030908890889088908890600401612487565b600060405180830381600087803b1580156110f257600080fd5b505af1158015610f21573d6000803e3d6000fd5b6001600160a01b03831661115c5760405162461bcd60e51b815260206004820152601d60248201527f417070726f76652066726f6d20746865207a65726f206164647265737300000060448201526064016105f3565b6001600160a01b0382166111b25760405162461bcd60e51b815260206004820152601b60248201527f417070726f766520746f20746865207a65726f2061646472657373000000000060448201526064016105f3565b6001600160a01b0383811660008181526002602090815260408083209487168084529482529182902085905590518481527f8c5be1e5ebec7d5bd14f71427d1e84f3dd0314c0f7b2291e5b200ac8c7c3b92591015b60405180910390a3505050565b604080516001600160a01b038416602482015260448082018490528251808303909101815260649091019091526020810180516001600160e01b031663a9059cbb60e01b179052610610908490611936565b6001600160a01b0383166112bc5760405162461bcd60e51b815260206004820152601e60248201527f5472616e736665722066726f6d20746865207a65726f2061646472657373000060448201526064016105f3565b6001600160a01b0382166113125760405162461bcd60e51b815260206004820152601c60248201527f5472616e7366657220746f20746865207a65726f20616464726573730000000060448201526064016105f3565b6001600160a01b03821630141561136b5760405162461bcd60e51b815260206004820152601d60248201527f5472616e7366657220746f2074686520746f6b656e206164647265737300000060448201526064016105f3565b611376838383611611565b6001600160a01b038316600090815260016020526040902054818110156113df5760405162461bcd60e51b815260206004820152601f60248201527f5472616e7366657220616d6f756e7420657863656564732062616c616e63650060448201526064016105f3565b6113e98282612336565b6001600160a01b03808616600090815260016020526040808220939093559085168152908120805484929061141f90849061234d565b92505081905550826001600160a01b0316846001600160a01b03166000805160206125d88339815191528460405161145991815260200190565b60405180910390a350505050565b60007f8b73c3c69bb8fe3d512ecc4cf759cc79239f7b179b0ffacaa9a75d522b39400f600560405161149991906124db565b60408051918290038220828201825260018352603160f81b6020938401528151928301939093528101919091527fc89efdaa54c0f20c7adf612882df0950f5a951637e0307cdcb4c672f298b8bc660608201524660808201523060a082015260c00160405160208183030381529060405280519060200120905090565b60004382106115625760405162461bcd60e51b8152602060048201526018602482015277109b1bd8dac81b9bdd081e595d0819195d195c9b5a5b995960421b60448201526064016105f3565b825460005b818110156115eb57600061157b8284611a08565b905060006115be87838154811061159457611594612365565b6000918252602090912060028204015463ffffffff60019092166010026101000a900460601c1690565b9050858163ffffffff1611156115d6578193506115e4565b6115e182600161234d565b92505b5050611567565b811561160557611600856109e6600185612336565b611608565b60005b95945050505050565b600061161c82611a23565b90506001600160a01b0384166116ab576004546001600160601b039061164390849061234d565b11156116915760405162461bcd60e51b815260206004820152601d60248201527f4d6178696d756d20746f74616c20737570706c7920657863656564656400000060448201526064016105f3565b6116a86009611a8b836001600160601b0316611a97565b50505b6001600160a01b0383166116d3576116d06009611bf3836001600160601b0316611a97565b50505b6116f76116df85610856565b6116e885610856565b836001600160601b0316611bff565b50505050565b6001600160a01b038216600090815260016020526040902054818110156117665760405162461bcd60e51b815260206004820152601b60248201527f4275726e20616d6f756e7420657863656564732062616c616e6365000000000060448201526064016105f3565b61177283600084611611565b61177c8282612336565b6001600160a01b038416600090815260016020526040812091909155600480548492906117aa908490612336565b90915550506040518281526000906001600160a01b038516906000805160206125d883398151915290602001611207565b60006117e683610856565b6001600160a01b0384166000908152600160205260408120549192509061180c90611a23565b6001600160a01b0385811660008181526007602052604080822080546001600160a01b031916898616908117909155905194955093928616927f3134e8a2e6d97e929a7e54011ea5485d7d196dd5f0ba4d4ef95803e8e3fc257f9190a46116f78284836001600160601b0316611bff565b600063ffffffff8211156118e25760405162461bcd60e51b815260206004820152602660248201527f53616665436173743a2076616c756520646f65736e27742066697420696e203360448201526532206269747360d01b60648201526084016105f3565b5090565b600080546001600160a01b038381166001600160a01b0319831681178455604051919092169283917f8be0079c531659141344cd1fd0a4f28419497f9722a3daafe3b4186f6b6457e09190a35050565b600061198b826040518060400160405280602081526020017f5361666545524332303a206c6f772d6c6576656c2063616c6c206661696c6564815250856001600160a01b0316611d3c9092919063ffffffff16565b80519091501561061057808060200190518101906119a99190612577565b6106105760405162461bcd60e51b815260206004820152602a60248201527f5361666545524332303a204552433230206f7065726174696f6e20646964206e6044820152691bdd081cdd58d8d9595960b21b60648201526084016105f3565b6000611a176002848418612599565b6106c19084841661234d565b60006001600160601b038211156118e25760405162461bcd60e51b815260206004820152602660248201527f53616665436173743a2076616c756520646f65736e27742066697420696e203960448201526536206269747360d01b60648201526084016105f3565b60006106c1828461234d565b825460009081908015611ab857611ab3866109e6600184612336565b611abb565b60005b6001600160601b03169250611ad483858763ffffffff16565b91508015611b94576000611afd87611aed600185612336565b8154811061159457611594612365565b9050438163ffffffff161415611b9257611b3681611b1a85611a23565b6001600160601b031660609190911b63ffffffff60601b161790565b87611b42600185612336565b81548110611b5257611b52612365565b90600052602060002090600291828204019190066010026101000a8154816001600160801b0302191690836001600160801b031602179055505050611beb565b505b85611baa611ba14361187d565b611b1a85611a23565b81546001818101845560009384526020909320600282040180546001600160801b03938416601093909516929092026101000a938402929093021916179055505b935093915050565b60006106c18284612336565b816001600160a01b0316836001600160a01b031614158015611c215750600081115b15610610576001600160a01b03831615611caf576001600160a01b03831660009081526008602052604081208190611c5c90611bf385611a97565b91509150846001600160a01b03167fdec2bacdd2f05b59de34da9b523dff8be42e5e38e818c82fdb0bae774387a7248383604051611ca4929190918252602082015260400190565b60405180910390a250505b6001600160a01b03821615610610576001600160a01b03821660009081526008602052604081208190611ce590611a8b85611a97565b91509150836001600160a01b03167fdec2bacdd2f05b59de34da9b523dff8be42e5e38e818c82fdb0bae774387a7248383604051611d2d929190918252602082015260400190565b60405180910390a25050505050565b6060611d4b8484600085611d53565b949350505050565b606082471015611db45760405162461bcd60e51b815260206004820152602660248201527f416464726573733a20696e73756666696369656e742062616c616e636520666f6044820152651c8818d85b1b60d21b60648201526084016105f3565b843b611e025760405162461bcd60e51b815260206004820152601d60248201527f416464726573733a2063616c6c20746f206e6f6e2d636f6e747261637400000060448201526064016105f3565b600080866001600160a01b03168587604051611e1e91906125bb565b60006040518083038185875af1925050503d8060008114611e5b576040519150601f19603f3d011682016040523d82523d6000602084013e611e60565b606091505b5091509150611e70828286611e7b565b979650505050505050565b60608315611e8a5750816106c1565b825115611e9a5782518084602001fd5b8160405162461bcd60e51b81526004016105f39190611f0c565b60005b83811015611ecf578181015183820152602001611eb7565b838111156116f75750506000910152565b60008151808452611ef8816020860160208601611eb4565b601f01601f19169290920160200192915050565b6020815260006106c16020830184611ee0565b6001600160a01b038116811461085357600080fd5b60008060408385031215611f4757600080fd5b8235611f5281611f1f565b946020939093013593505050565b600080600060608486031215611f7557600080fd5b8335611f8081611f1f565b92506020840135611f9081611f1f565b929592945050506040919091013590565b600060208284031215611fb357600080fd5b5035919050565b600060208284031215611fcc57600080fd5b81356106c181611f1f565b803560ff81168114611fe857600080fd5b919050565b60008060008060008060c0878903121561200657600080fd5b863561201181611f1f565b9550602087013561202181611f1f565b94506040870135935061203660608801611fd7565b92506080870135915060a087013590509295509295509295565b634e487b7160e01b600052604160045260246000fd5b60008060006060848603121561207b57600080fd5b833561208681611f1f565b925060208401359150604084013567ffffffffffffffff808211156120aa57600080fd5b818601915086601f8301126120be57600080fd5b8135818111156120d0576120d0612050565b604051601f8201601f19908116603f011681019083821181831017156120f8576120f8612050565b8160405282815289602084870101111561211157600080fd5b8260208601602083013760006020848301015280955050505050509250925092565b600080600080600080600060e0888a03121561214e57600080fd5b873561215981611f1f565b9650602088013561216981611f1f565b9550604088013594506060880135935061218560808901611fd7565b925060a0880135915060c0880135905092959891949750929550565b600080604083850312156121b457600080fd5b82356121bf81611f1f565b915060208301356121cf81611f1f565b809150509250929050565b600080604083850312156121ed57600080fd5b82356121f881611f1f565b9150602083013563ffffffff811681146121cf57600080fd5b60008060008060006080868803121561222957600080fd5b853561223481611f1f565b9450602086013561224481611f1f565b935060408601359250606086013567ffffffffffffffff8082111561226857600080fd5b818801915088601f83011261227c57600080fd5b81358181111561228b57600080fd5b89602082850101111561229d57600080fd5b9699959850939650602001949392505050565b600181811c908216806122c457607f821691505b602082108114156122e557634e487b7160e01b600052602260045260246000fd5b50919050565b6020808252818101527f4f776e61626c653a2063616c6c6572206973206e6f7420746865206f776e6572604082015260600190565b634e487b7160e01b600052601160045260246000fd5b60008282101561234857612348612320565b500390565b6000821982111561236057612360612320565b500190565b634e487b7160e01b600052603260045260246000fd5b6020808252601b908201527f496e76616c6964207369676e6174757265202773272076616c75650000000000604082015260600190565b6020808252601b908201527f496e76616c6964207369676e6174757265202776272076616c75650000000000604082015260600190565b60006000198214156123fd576123fd612320565b5060010190565b61190160f01b81526002810192909252602282015260420190565b602080825260119082015270496e76616c6964207369676e617475726560781b604082015260600190565b6001600160a01b038581168252602082018590528316604082015260806060820181905260009061247d90830184611ee0565b9695505050505050565b6001600160a01b038681168252851660208201526040810184905260806060820181905281018290526000828460a0840137600060a0848401015260a0601f19601f85011683010190509695505050505050565b600080835481600182811c9150808316806124f757607f831692505b602080841082141561251757634e487b7160e01b86526022600452602486fd5b81801561252b576001811461253c57612569565b60ff19861689528489019650612569565b60008a81526020902060005b868110156125615781548b820152908501908301612548565b505084890196505b509498975050505050505050565b60006020828403121561258957600080fd5b815180151581146106c157600080fd5b6000826125b657634e487b7160e01b600052601260045260246000fd5b500490565b600082516125cd818460208701611eb4565b919091019291505056feddf252ad1be2c89b69c2b068fc378daa952ba7f163c4a11628f55a4df523b3efa26469706673582212207eecbfb333a500c574d750bd13d9d3944c632e0e6cfefb9d5262bd9cbb14fb8364736f6c63430008090033",
  "devdoc": {
    "details": "By default, token balance does not account for voting power.      This makes transfers cheaper. The downside is that it requires users      to delegate to themselves to activate checkpoints and have their      voting power tracked.",
    "kind": "dev",
    "methods": {
      "approve(address,uint256)": {
        "details": "If the `amount` is set to `type(uint256).max` then      `transferFrom` and `burnFrom` will not reduce an allowance.      Beware that changing an allowance with this method brings the risk      that someone may use both the old and the new allowance by      unfortunate transaction ordering. One possible solution to mitigate      this race condition is to first reduce the spender's allowance to 0      and set the desired value afterwards:      https://github.com/ethereum/EIPs/issues/20#issuecomment-263524729",
        "returns": {
          "_0": "True if the operation succeeded."
        }
      },
      "approveAndCall(address,uint256,bytes)": {
        "details": "If the `amount` is set to `type(uint256).max` then      `transferFrom` and `burnFrom` will not reduce an allowance.",
        "returns": {
          "_0": "True if both approval and `receiveApproval` calls succeeded."
        }
      },
      "burn(uint256)": {
        "details": "Requirements:       - the caller must have a balance of at least `amount`."
      },
      "burnFrom(address,uint256)": {
        "details": "Requirements:      - `account` must have a balance of at least `amount`,      - the caller must have allowance for `account`'s tokens of at least        `amount`."
      },
      "delegate(address)": {
        "params": {
          "delegatee": "The address to delegate votes to"
        }
      },
      "delegateBySig(address,address,uint256,uint8,bytes32,bytes32)": {
        "params": {
          "deadline": "The time at which to expire the signature",
          "delegatee": "The address to delegate votes to",
          "r": "Half of the ECDSA signature pair",
          "s": "Half of the ECDSA signature pair",
          "v": "The recovery byte of the signature"
        }
      },
      "getPastTotalSupply(uint256)": {
        "details": "`blockNumber` must have been already mined",
        "params": {
          "blockNumber": "The block number to get the total supply at"
        }
      },
      "getPastVotes(address,uint256)": {
        "details": "Block number must be a finalized block or else this function will      revert to prevent misinformation.",
        "params": {
          "account": "The address of the account to check",
          "blockNumber": "The block number to get the vote balance at"
        },
        "returns": {
          "_0": "The number of votes the account had as of the given block"
        }
      },
      "getVotes(address)": {
        "params": {
          "account": "The address to get votes balance"
        },
        "returns": {
          "_0": "The number of current votes for `account`"
        }
      },
      "mint(address,uint256)": {
        "details": "Requirements:      - `recipient` cannot be the zero address."
      },
      "owner()": {
        "details": "Returns the address of the current owner."
      },
      "permit(address,address,uint256,uint256,uint8,bytes32,bytes32)": {
        "details": "The deadline argument can be set to `type(uint256).max to create         permits that effectively never expire.  If the `amount` is set         to `type(uint256).max` then `transferFrom` and `burnFrom` will         not reduce an allowance."
      },
      "renounceOwnership()": {
        "details": "Leaves the contract without owner. It will not be possible to call `onlyOwner` functions anymore. Can only be called by the current owner. NOTE: Renouncing ownership will leave the contract without an owner, thereby removing any functionality that is only available to the owner."
      },
      "transfer(address,uint256)": {
        "details": "Requirements:       - `recipient` cannot be the zero address,       - the caller must have a balance of at least `amount`.",
        "returns": {
          "_0": "True if the operation succeeded, reverts otherwise."
        }
      },
      "transferFrom(address,address,uint256)": {
        "details": "Requirements:      - `spender` and `recipient` cannot be the zero address,      - `spender` must have a balance of at least `amount`,      - the caller must have allowance for `spender`'s tokens of at least        `amount`.",
        "returns": {
          "_0": "True if the operation succeeded, reverts otherwise."
        }
      },
      "transferOwnership(address)": {
        "details": "Transfers ownership of the contract to a new account (`newOwner`). Can only be called by the current owner."
      }
    },
    "title": "T token",
    "version": 1
  },
  "userdoc": {
    "events": {
      "DelegateChanged(address,address,address)": {
        "notice": "Emitted when an account changes their delegate."
      },
      "DelegateVotesChanged(address,uint256,uint256)": {
        "notice": "Emitted when a balance or delegate change results in changes         to an account's voting power."
      }
    },
    "kind": "user",
    "methods": {
      "DELEGATION_TYPEHASH()": {
        "notice": "The EIP-712 typehash for the delegation struct used by         `delegateBySig`."
      },
      "DOMAIN_SEPARATOR()": {
        "notice": "Returns hash of EIP712 Domain struct with the token name as         a signing domain and token contract as a verifying contract.         Used to construct EIP2612 signature provided to `permit`         function."
      },
      "PERMIT_TYPEHASH()": {
        "notice": "Returns EIP2612 Permit message hash. Used to construct EIP2612         signature provided to `permit` function."
      },
      "allowance(address,address)": {
        "notice": "The remaining number of tokens that spender will be         allowed to spend on behalf of owner through `transferFrom` and         `burnFrom`. This is zero by default."
      },
      "approve(address,uint256)": {
        "notice": "Sets `amount` as the allowance of `spender` over the caller's         tokens."
      },
      "approveAndCall(address,uint256,bytes)": {
        "notice": "Calls `receiveApproval` function on spender previously approving         the spender to withdraw from the caller multiple times, up to         the `amount` amount. If this function is called again, it         overwrites the current allowance with `amount`. Reverts if the         approval reverted or if `receiveApproval` call on the spender         reverted."
      },
      "balanceOf(address)": {
        "notice": "The amount of tokens owned by the given account."
      },
      "burn(uint256)": {
        "notice": "Destroys `amount` tokens from the caller."
      },
      "burnFrom(address,uint256)": {
        "notice": "Destroys `amount` of tokens from `account` using the allowance         mechanism. `amount` is then deducted from the caller's allowance         unless the allowance was made for `type(uint256).max`."
      },
      "decimals()": {
        "notice": "The decimals places of the token."
      },
      "delegate(address)": {
        "notice": "Delegate votes from `msg.sender` to `delegatee`."
      },
      "delegateBySig(address,address,uint256,uint8,bytes32,bytes32)": {
        "notice": "Delegates votes from signatory to `delegatee`"
      },
      "delegates(address)": {
        "notice": "Get the address `account` is currently delegating to."
      },
      "getPastTotalSupply(uint256)": {
        "notice": "Retrieve the `totalSupply` at the end of `blockNumber`.         Note, this value is the sum of all balances, but it is NOT the         sum of all the delegated votes!"
      },
      "getPastVotes(address,uint256)": {
        "notice": "Determine the prior number of votes for an account as of         a block number."
      },
      "getVotes(address)": {
        "notice": "Gets the current votes balance for `account`."
      },
      "mint(address,uint256)": {
        "notice": "Creates `amount` tokens and assigns them to `account`,         increasing the total supply."
      },
      "name()": {
        "notice": "The name of the token."
      },
      "nonce(address)": {
        "notice": "Returns the current nonce for EIP2612 permission for the         provided token owner for a replay protection. Used to construct         EIP2612 signature provided to `permit` function."
      },
      "numCheckpoints(address)": {
        "notice": "Get number of checkpoints for `account`."
      },
      "permit(address,address,uint256,uint256,uint8,bytes32,bytes32)": {
        "notice": "EIP2612 approval made with secp256k1 signature.         Users can authorize a transfer of their tokens with a signature         conforming EIP712 standard, rather than an on-chain transaction         from their address. Anyone can submit this signature on the         user's behalf by calling the permit function, paying gas fees,         and possibly performing other actions in the same transaction."
      },
      "symbol()": {
        "notice": "The symbol of the token."
      },
      "totalSupply()": {
        "notice": "The amount of tokens in existence."
      },
      "transfer(address,uint256)": {
        "notice": "Moves `amount` tokens from the caller's account to `recipient`."
      },
      "transferFrom(address,address,uint256)": {
        "notice": "Moves `amount` tokens from `spender` to `recipient` using the         allowance mechanism. `amount` is then deducted from the caller's         allowance unless the allowance was made for `type(uint256).max`."
      }
    },
    "notice": "Threshold Network T token",
    "version": 1
  },
  "storageLayout": {
    "storage": [
      {
        "astId": 389,
        "contract": "contracts/token/T.sol:T",
        "label": "_owner",
        "offset": 0,
        "slot": "0",
        "type": "t_address"
      },
      {
        "astId": 6729,
        "contract": "contracts/token/T.sol:T",
        "label": "balanceOf",
        "offset": 0,
        "slot": "1",
        "type": "t_mapping(t_address,t_uint256)"
      },
      {
        "astId": 6737,
        "contract": "contracts/token/T.sol:T",
        "label": "allowance",
        "offset": 0,
        "slot": "2",
        "type": "t_mapping(t_address,t_mapping(t_address,t_uint256))"
      },
      {
        "astId": 6743,
        "contract": "contracts/token/T.sol:T",
        "label": "nonce",
        "offset": 0,
        "slot": "3",
        "type": "t_mapping(t_address,t_uint256)"
      },
      {
        "astId": 6758,
        "contract": "contracts/token/T.sol:T",
        "label": "totalSupply",
        "offset": 0,
        "slot": "4",
        "type": "t_uint256"
      },
      {
        "astId": 6762,
        "contract": "contracts/token/T.sol:T",
        "label": "name",
        "offset": 0,
        "slot": "5",
        "type": "t_string_storage"
      },
      {
        "astId": 6766,
        "contract": "contracts/token/T.sol:T",
        "label": "symbol",
        "offset": 0,
        "slot": "6",
        "type": "t_string_storage"
      },
      {
        "astId": 7563,
        "contract": "contracts/token/T.sol:T",
        "label": "_delegates",
        "offset": 0,
        "slot": "7",
        "type": "t_mapping(t_address,t_address)"
      },
      {
        "astId": 7568,
        "contract": "contracts/token/T.sol:T",
        "label": "_checkpoints",
        "offset": 0,
        "slot": "8",
        "type": "t_mapping(t_address,t_array(t_uint128)dyn_storage)"
      },
      {
        "astId": 7571,
        "contract": "contracts/token/T.sol:T",
        "label": "_totalSupplyCheckpoints",
        "offset": 0,
        "slot": "9",
        "type": "t_array(t_uint128)dyn_storage"
      }
    ],
    "types": {
      "t_address": {
        "encoding": "inplace",
        "label": "address",
        "numberOfBytes": "20"
      },
      "t_array(t_uint128)dyn_storage": {
        "base": "t_uint128",
        "encoding": "dynamic_array",
        "label": "uint128[]",
        "numberOfBytes": "32"
      },
      "t_mapping(t_address,t_address)": {
        "encoding": "mapping",
        "key": "t_address",
        "label": "mapping(address => address)",
        "numberOfBytes": "32",
        "value": "t_address"
      },
      "t_mapping(t_address,t_array(t_uint128)dyn_storage)": {
        "encoding": "mapping",
        "key": "t_address",
        "label": "mapping(address => uint128[])",
        "numberOfBytes": "32",
        "value": "t_array(t_uint128)dyn_storage"
      },
      "t_mapping(t_address,t_mapping(t_address,t_uint256))": {
        "encoding": "mapping",
        "key": "t_address",
        "label": "mapping(address => mapping(address => uint256))",
        "numberOfBytes": "32",
        "value": "t_mapping(t_address,t_uint256)"
      },
      "t_mapping(t_address,t_uint256)": {
        "encoding": "mapping",
        "key": "t_address",
        "label": "mapping(address => uint256)",
        "numberOfBytes": "32",
        "value": "t_uint256"
      },
      "t_string_storage": {
        "encoding": "bytes",
        "label": "string",
        "numberOfBytes": "32"
      },
      "t_uint128": {
        "encoding": "inplace",
        "label": "uint128",
        "numberOfBytes": "16"
      },
      "t_uint256": {
        "encoding": "inplace",
        "label": "uint256",
        "numberOfBytes": "32"
      }
    }
  }
}