{
  "address": "0x4EDC83c5C5B0C41A594371485554B95280653f94",
  "abi": [
    {
      "inputs": [
        {
          "internalType": "contract SortitionPool",
          "name": "_sortitionPool",
          "type": "address"
        }
      ],
      "stateMutability": "nonpayable",
      "type": "constructor"
    },
    {
      "inputs": [],
      "name": "activeThreshold",
      "outputs": [
        {
          "internalType": "uint256",
          "name": "",
          "type": "uint256"
        }
      ],
      "stateMutability": "view",
      "type": "function"
    },
    {
      "inputs": [],
      "name": "groupSize",
      "outputs": [
        {
          "internalType": "uint256",
          "name": "",
          "type": "uint256"
        }
      ],
      "stateMutability": "view",
      "type": "function"
    },
    {
      "inputs": [],
      "name": "groupThreshold",
      "outputs": [
        {
          "internalType": "uint256",
          "name": "",
          "type": "uint256"
        }
      ],
      "stateMutability": "view",
      "type": "function"
    },
    {
      "inputs": [],
      "name": "signatureByteSize",
      "outputs": [
        {
          "internalType": "uint256",
          "name": "",
          "type": "uint256"
        }
      ],
      "stateMutability": "view",
      "type": "function"
    },
    {
      "inputs": [],
      "name": "sortitionPool",
      "outputs": [
        {
          "internalType": "contract SortitionPool",
          "name": "",
          "type": "address"
        }
      ],
      "stateMutability": "view",
      "type": "function"
    },
    {
      "inputs": [
        {
          "components": [
            {
              "internalType": "uint256",
              "name": "submitterMemberIndex",
              "type": "uint256"
            },
            {
              "internalType": "bytes",
              "name": "groupPubKey",
              "type": "bytes"
            },
            {
              "internalType": "uint8[]",
              "name": "misbehavedMembersIndices",
              "type": "uint8[]"
            },
            {
              "internalType": "bytes",
              "name": "signatures",
              "type": "bytes"
            },
            {
              "internalType": "uint256[]",
              "name": "signingMembersIndices",
              "type": "uint256[]"
            },
            {
              "internalType": "uint32[]",
              "name": "members",
              "type": "uint32[]"
            },
            {
              "internalType": "bytes32",
              "name": "membersHash",
              "type": "bytes32"
            }
          ],
          "internalType": "struct BeaconDkg.Result",
          "name": "result",
          "type": "tuple"
        },
        {
          "internalType": "uint256",
          "name": "seed",
          "type": "uint256"
        },
        {
          "internalType": "uint256",
          "name": "startBlock",
          "type": "uint256"
        }
      ],
      "name": "validate",
      "outputs": [
        {
          "internalType": "bool",
          "name": "isValid",
          "type": "bool"
        },
        {
          "internalType": "string",
          "name": "errorMsg",
          "type": "string"
        }
      ],
      "stateMutability": "view",
      "type": "function"
    },
    {
      "inputs": [
        {
          "components": [
            {
              "internalType": "uint256",
              "name": "submitterMemberIndex",
              "type": "uint256"
            },
            {
              "internalType": "bytes",
              "name": "groupPubKey",
              "type": "bytes"
            },
            {
              "internalType": "uint8[]",
              "name": "misbehavedMembersIndices",
              "type": "uint8[]"
            },
            {
              "internalType": "bytes",
              "name": "signatures",
              "type": "bytes"
            },
            {
              "internalType": "uint256[]",
              "name": "signingMembersIndices",
              "type": "uint256[]"
            },
            {
              "internalType": "uint32[]",
              "name": "members",
              "type": "uint32[]"
            },
            {
              "internalType": "bytes32",
              "name": "membersHash",
              "type": "bytes32"
            }
          ],
          "internalType": "struct BeaconDkg.Result",
          "name": "result",
          "type": "tuple"
        }
      ],
      "name": "validateFields",
      "outputs": [
        {
          "internalType": "bool",
          "name": "isValid",
          "type": "bool"
        },
        {
          "internalType": "string",
          "name": "errorMsg",
          "type": "string"
        }
      ],
      "stateMutability": "pure",
      "type": "function"
    },
    {
      "inputs": [
        {
          "components": [
            {
              "internalType": "uint256",
              "name": "submitterMemberIndex",
              "type": "uint256"
            },
            {
              "internalType": "bytes",
              "name": "groupPubKey",
              "type": "bytes"
            },
            {
              "internalType": "uint8[]",
              "name": "misbehavedMembersIndices",
              "type": "uint8[]"
            },
            {
              "internalType": "bytes",
              "name": "signatures",
              "type": "bytes"
            },
            {
              "internalType": "uint256[]",
              "name": "signingMembersIndices",
              "type": "uint256[]"
            },
            {
              "internalType": "uint32[]",
              "name": "members",
              "type": "uint32[]"
            },
            {
              "internalType": "bytes32",
              "name": "membersHash",
              "type": "bytes32"
            }
          ],
          "internalType": "struct BeaconDkg.Result",
          "name": "result",
          "type": "tuple"
        },
        {
          "internalType": "uint256",
          "name": "seed",
          "type": "uint256"
        }
      ],
      "name": "validateGroupMembers",
      "outputs": [
        {
          "internalType": "bool",
          "name": "",
          "type": "bool"
        }
      ],
      "stateMutability": "view",
      "type": "function"
    },
    {
      "inputs": [
        {
          "components": [
            {
              "internalType": "uint256",
              "name": "submitterMemberIndex",
              "type": "uint256"
            },
            {
              "internalType": "bytes",
              "name": "groupPubKey",
              "type": "bytes"
            },
            {
              "internalType": "uint8[]",
              "name": "misbehavedMembersIndices",
              "type": "uint8[]"
            },
            {
              "internalType": "bytes",
              "name": "signatures",
              "type": "bytes"
            },
            {
              "internalType": "uint256[]",
              "name": "signingMembersIndices",
              "type": "uint256[]"
            },
            {
              "internalType": "uint32[]",
              "name": "members",
              "type": "uint32[]"
            },
            {
              "internalType": "bytes32",
              "name": "membersHash",
              "type": "bytes32"
            }
          ],
          "internalType": "struct BeaconDkg.Result",
          "name": "result",
          "type": "tuple"
        }
      ],
      "name": "validateMembersHash",
      "outputs": [
        {
          "internalType": "bool",
          "name": "",
          "type": "bool"
        }
      ],
      "stateMutability": "pure",
      "type": "function"
    },
    {
      "inputs": [
        {
          "components": [
            {
              "internalType": "uint256",
              "name": "submitterMemberIndex",
              "type": "uint256"
            },
            {
              "internalType": "bytes",
              "name": "groupPubKey",
              "type": "bytes"
            },
            {
              "internalType": "uint8[]",
              "name": "misbehavedMembersIndices",
              "type": "uint8[]"
            },
            {
              "internalType": "bytes",
              "name": "signatures",
              "type": "bytes"
            },
            {
              "internalType": "uint256[]",
              "name": "signingMembersIndices",
              "type": "uint256[]"
            },
            {
              "internalType": "uint32[]",
              "name": "members",
              "type": "uint32[]"
            },
            {
              "internalType": "bytes32",
              "name": "membersHash",
              "type": "bytes32"
            }
          ],
          "internalType": "struct BeaconDkg.Result",
          "name": "result",
          "type": "tuple"
        },
        {
          "internalType": "uint256",
          "name": "startBlock",
          "type": "uint256"
        }
      ],
      "name": "validateSignatures",
      "outputs": [
        {
          "internalType": "bool",
          "name": "",
          "type": "bool"
        }
      ],
      "stateMutability": "view",
      "type": "function"
    }
  ],
  "transactionHash": "0xb28cf06c4f45882ece950acd64b9ee92f705afbf4ef2891929fe343bdbdf55d2",
  "args": [
    "0x4e4cBA3779d56386ED43631b4dCD6d8EacEcBCF6"
  ],
  "numDeployments": 1,
  "solcInputHash": "315dd8aa56418c14cbdc8d65adaa494b",
  "bytecode": "0x60a060405234801561001057600080fd5b5060405161195238038061195283398101604081905261002f9161009a565b6001600160a01b0381166100895760405162461bcd60e51b815260206004820152601660248201527f5a65726f2d61646472657373207265666572656e636500000000000000000000604482015260640160405180910390fd5b6001600160a01b03166080526100ca565b6000602082840312156100ac57600080fd5b81516001600160a01b03811681146100c357600080fd5b9392505050565b60805161185f6100f360003960008181610132015281816106d50152610cc2015261185f6000f3fe608060405234801561001057600080fd5b506004361061009e5760003560e01c80639617c2a8116100665780639617c2a8146100f7578063b2d44fce1461011a578063b54a23741461012d578063e7667aba1461016c578063e7d10d9b1461017f57600080fd5b8063281efe71146100a35780632c5c72df146100be57806363b635ea146100df5780636dcc64f8146100e757806389ef44b0146100ef575b600080fd5b6100ab603a81565b6040519081526020015b60405180910390f35b6100d16100cc36600461120d565b610192565b6040516100b592919061124a565b6100ab604081565b6100ab602181565b6100ab604181565b61010a6101053660046112a2565b61069d565b60405190151581526020016100b5565b61010a61012836600461120d565b6107ee565b6101547f000000000000000000000000000000000000000000000000000000000000000081565b6040516001600160a01b0390911681526020016100b5565b6100d161017a3660046112e7565b6109fb565b61010a61018d3660046112a2565b610b18565b600060606101a36020840184611335565b90506080146101ea57505060408051808201909152601a81527f4d616c666f726d65642067726f7570207075626c6963206b65790000000000006020820152600092909150565b3660006101fa604086018661137c565b9092509050603a61020c8260406113dc565b10156102385760006040518060600160405280602781526020016117df60279139935093505050915091565b600181111561038157600182826000818110610256576102566113ef565b905060200201602081019061026b919061141b565b60ff1610806102ad5750604082826102846001826113dc565b818110610293576102936113ef565b90506020020160208101906102a8919061141b565b60ff16115b156102d857600060405180606001604052806024815260200161180660249139935093505050915091565b60015b8181101561037f578282828181106102f5576102f56113ef565b905060200201602081019061030a919061141b565b60ff16838361031a6001856113dc565b818110610329576103296113ef565b905060200201602081019061033e919061141b565b60ff161061036d5760006040518060600160405280602481526020016118066024913994509450505050915091565b806103778161143d565b9150506102db565b505b600060416103926060880188611335565b61039d92915061146c565b90506103ac6060870187611335565b90506000036103f257600060405180604001604052806016815260200175139bc81cda59db985d1d5c995cc81c1c9bdd9a59195960521b81525094509450505050915091565b60416104016060880188611335565b61040c929150611480565b156104555760006040518060400160405280601a81526020017f4d616c666f726d6564207369676e61747572657320617272617900000000000081525094509450505050915091565b366000610465608089018961137c565b90925090508281146104b75760006040518060400160405280601b81526020017f556e6578706563746564207369676e61747572657320636f756e740000000000815250965096505050505050915091565b60218310156104fb57600060405180604001604052806012815260200171546f6f20666577207369676e61747572657360701b815250965096505050505050915091565b604083111561054057600060405180604001604052806013815260200172546f6f206d616e79207369676e61747572657360681b815250965096505050505050915091565b600182826000818110610555576105556113ef565b90506020020135108061058a5750604082826105726001826113dc565b818110610581576105816113ef565b90506020020135115b156105d55760006040518060400160405280602081526020017f436f72727570746564207369676e696e67206d656d62657220696e6469636573815250965096505050505050915091565b60015b8181101561067c578282828181106105f2576105f26113ef565b90506020020135838360018461060891906113dc565b818110610617576106176113ef565b905060200201351061066a5760006040518060400160405280602081526020017f436f72727570746564207369676e696e67206d656d62657220696e646963657381525097509750505050505050915091565b806106748161143d565b9150506105d8565b50600160405180602001604052806000815250965096505050505050915091565b600036816106ae60a086018661137c565b60408051636c2530b960e01b815260048101919091526024810187905291935091506000907f00000000000000000000000000000000000000000000000000000000000000006001600160a01b031690636c2530b990604401600060405180830381865afa158015610724573d6000803e3d6000fd5b505050506040513d6000823e601f3d908101601f1916820160405261074c9190810190611511565b8051909150821461076357600093505050506107e8565b60005b828110156107df57818181518110610780576107806113ef565b602002602001015163ffffffff168484838181106107a0576107a06113ef565b90506020020160208101906107b591906115b0565b63ffffffff16146107cd5760009450505050506107e8565b806107d78161143d565b915050610766565b50600193505050505b92915050565b6000806107fe604084018461137c565b905011156109ba576000610815604084018461137c565b905061082460a085018561137c565b61082f9291506113dc565b67ffffffffffffffff81111561084757610847611494565b604051908082528060200260200182016040528015610870578160200160208202803683370190505b50905060008060005b61088660a087018761137c565b905081101561098257600161089e604088018861137c565b858181106108ae576108ae6113ef565b90506020020160208101906108c3919061141b565b6108cd91906115cd565b60ff168114610941576108e360a087018761137c565b828181106108f3576108f36113ef565b905060200201602081019061090891906115b0565b84838151811061091a5761091a6113ef565b63ffffffff90921660209283029190910190910152816109398161143d565b925050610970565b6001610950604088018861137c565b61095b9291506113dc565b831015610970578261096c8161143d565b9350505b8061097a8161143d565b915050610879565b508460c001358360405160200161099991906115e6565b60405160208183030381529060405280519060200120149350505050919050565b60c08201356109cc60a084018461137c565b6040516020016109dd929190611630565b60405160208183030381529060405280519060200120149050919050565b60006060600080610a0b87610192565b9150915081610a2157600093509150610b109050565b610a2b8786610b18565b610a6757600060405180604001604052806012815260200171496e76616c6964207369676e61747572657360701b815250935093505050610b10565b610a71878761069d565b610ab057600060405180604001604052806015815260200174496e76616c69642067726f7570206d656d6265727360581b815250935093505050610b10565b610ab9876107ee565b610af757600060405180604001604052806014815260200173092dcecc2d8d2c840dacadac4cae4e640d0c2e6d60631b815250935093505050610b10565b6001604051806020016040528060008152509350935050505b935093915050565b600080610baf46610b2c6020870187611335565b610b39604089018961137c565b88604051602001610b4f9695949392919061167b565b60408051601f1981840301815282825280516020918201207f19457468657265756d205369676e6564204d6573736167653a0a33320000000084830152603c8085019190915282518085039091018152605c909301909152815191012090565b9050366000610bc1608087018761137c565b909250905060008167ffffffffffffffff811115610be157610be1611494565b604051908082528060200260200182016040528015610c0a578160200160208202803683370190505b50905060005b82811015610ca757610c2560a089018961137c565b6001868685818110610c3957610c396113ef565b90506020020135610c4a91906113dc565b818110610c5957610c596113ef565b9050602002016020810190610c6e91906115b0565b828281518110610c8057610c806113ef565b63ffffffff9092166020928302919091019091015280610c9f8161143d565b915050610c10565b50604051637bfcd47d60e11b81526000906001600160a01b037f0000000000000000000000000000000000000000000000000000000000000000169063f7f9a8fa90610cf79085906004016115e6565b600060405180830381865afa158015610d14573d6000803e3d6000fd5b505050506040513d6000823e601f3d908101601f19168201604052610d3c9190810190611702565b9050606060006041610d508b84018c611335565b610d5b92915061146c565b905060005b81811015610e2a57610dc3610d7682604161179e565b6041610d8560608f018f611335565b8080601f016020809104026020016040519081016040528093929190818152602001838380828437600092019190915250929493925050610e3b9050565b92506000610dd18985610ee6565b9050806001600160a01b0316858381518110610def57610def6113ef565b60200260200101516001600160a01b031614610e1757600099505050505050505050506107e8565b5080610e228161143d565b915050610d60565b5060019a9950505050505050505050565b60606000610e4983856117b5565b90508381118015610e5b575080855110155b610ea25760405162461bcd60e51b8152602060048201526013602482015272536c696365206f7574206f6620626f756e647360681b60448201526064015b60405180910390fd5b604051915082604083010160405282825283850182038460208701018481015b80821015610edb57815183830152602082019150610ec2565b505050509392505050565b6000806000610ef58585610f0a565b91509150610f0281610f4f565b509392505050565b6000808251604103610f405760208301516040840151606085015160001a610f3487828585611108565b94509450505050610f48565b506000905060025b9250929050565b6000816004811115610f6357610f636117c8565b03610f6b5750565b6001816004811115610f7f57610f7f6117c8565b03610fcc5760405162461bcd60e51b815260206004820152601860248201527f45434453413a20696e76616c6964207369676e617475726500000000000000006044820152606401610e99565b6002816004811115610fe057610fe06117c8565b0361102d5760405162461bcd60e51b815260206004820152601f60248201527f45434453413a20696e76616c6964207369676e6174757265206c656e677468006044820152606401610e99565b6003816004811115611041576110416117c8565b036110995760405162461bcd60e51b815260206004820152602260248201527f45434453413a20696e76616c6964207369676e6174757265202773272076616c604482015261756560f01b6064820152608401610e99565b60048160048111156110ad576110ad6117c8565b036111055760405162461bcd60e51b815260206004820152602260248201527f45434453413a20696e76616c6964207369676e6174757265202776272076616c604482015261756560f01b6064820152608401610e99565b50565b6000807f7fffffffffffffffffffffffffffffff5d576e7357a4501ddfe92f46681b20a083111561113f57506000905060036111ec565b8460ff16601b1415801561115757508460ff16601c14155b1561116857506000905060046111ec565b6040805160008082526020820180845289905260ff881692820192909252606081018690526080810185905260019060a0016020604051602081039080840390855afa1580156111bc573d6000803e3d6000fd5b5050604051601f1901519150506001600160a01b0381166111e5576000600192509250506111ec565b9150600090505b94509492505050565b600060e0828403121561120757600080fd5b50919050565b60006020828403121561121f57600080fd5b813567ffffffffffffffff81111561123657600080fd5b611242848285016111f5565b949350505050565b821515815260006020604081840152835180604085015260005b8181101561128057858101830151858201606001528201611264565b506000606082860101526060601f19601f830116850101925050509392505050565b600080604083850312156112b557600080fd5b823567ffffffffffffffff8111156112cc57600080fd5b6112d8858286016111f5565b95602094909401359450505050565b6000806000606084860312156112fc57600080fd5b833567ffffffffffffffff81111561131357600080fd5b61131f868287016111f5565b9660208601359650604090950135949350505050565b6000808335601e1984360301811261134c57600080fd5b83018035915067ffffffffffffffff82111561136757600080fd5b602001915036819003821315610f4857600080fd5b6000808335601e1984360301811261139357600080fd5b83018035915067ffffffffffffffff8211156113ae57600080fd5b6020019150600581901b3603821315610f4857600080fd5b634e487b7160e01b600052601160045260246000fd5b818103818111156107e8576107e86113c6565b634e487b7160e01b600052603260045260246000fd5b803560ff8116811461141657600080fd5b919050565b60006020828403121561142d57600080fd5b61143682611405565b9392505050565b60006001820161144f5761144f6113c6565b5060010190565b634e487b7160e01b600052601260045260246000fd5b60008261147b5761147b611456565b500490565b60008261148f5761148f611456565b500690565b634e487b7160e01b600052604160045260246000fd5b604051601f8201601f1916810167ffffffffffffffff811182821017156114d3576114d3611494565b604052919050565b600067ffffffffffffffff8211156114f5576114f5611494565b5060051b60200190565b63ffffffff8116811461110557600080fd5b6000602080838503121561152457600080fd5b825167ffffffffffffffff81111561153b57600080fd5b8301601f8101851361154c57600080fd5b805161155f61155a826114db565b6114aa565b81815260059190911b8201830190838101908783111561157e57600080fd5b928401925b828410156115a5578351611596816114ff565b82529284019290840190611583565b979650505050505050565b6000602082840312156115c257600080fd5b8135611436816114ff565b60ff82811682821603908111156107e8576107e86113c6565b6020808252825182820181905260009190848201906040850190845b8181101561162457835163ffffffff1683529284019291840191600101611602565b50909695505050505050565b60208082528181018390526000908460408401835b86811015611670578235611658816114ff565b63ffffffff1682529183019190830190600101611645565b509695505050505050565b86815260006020608081840152866080840152868860a0850137600060a08885018101829052601f19601f8a011685018581038201604087015290810187905287919060c0015b878210156116ea5760ff6116d584611405565b168152918301916001919091019083016116c2565b80945050505050826060830152979650505050505050565b6000602080838503121561171557600080fd5b825167ffffffffffffffff81111561172c57600080fd5b8301601f8101851361173d57600080fd5b805161174b61155a826114db565b81815260059190911b8201830190838101908783111561176a57600080fd5b928401925b828410156115a55783516001600160a01b038116811461178f5760008081fd5b8252928401929084019061176f565b80820281158282048414176107e8576107e86113c6565b808201808211156107e8576107e86113c6565b634e487b7160e01b600052602160045260246000fdfe546f6f206d616e79206d656d62657273206d69736265686176696e6720647572696e6720444b47436f72727570746564206d697362656861766564206d656d6265727320696e6469636573a26469706673582212208f9bef7dbb3b3c3396c4db29a0a0cf2a455196d33f6d5cd44437727a5a1f03d964736f6c63430008110033",
  "devdoc": {
    "kind": "dev",
    "methods": {
      "validate((uint256,bytes,uint8[],bytes,uint256[],uint32[],bytes32),uint256,uint256)": {
        "params": {
          "seed": "seed used to start the DKG and select group members",
          "startBlock": "DKG start block"
        },
        "returns": {
          "errorMsg": "validation error message; empty for a valid result",
          "isValid": "true if the result is valid, false otherwise"
        }
      },
      "validateFields((uint256,bytes,uint8[],bytes,uint256[],uint32[],bytes32))": {
        "returns": {
          "errorMsg": "validation error message; empty for a valid result",
          "isValid": "true if the result is valid, false otherwise"
        }
      },
      "validateGroupMembers((uint256,bytes,uint8[],bytes,uint256[],uint32[],bytes32),uint256)": {
        "params": {
          "seed": "seed used to start the DKG and select group members"
        },
        "returns": {
          "_0": "true if group members matches; false otherwise"
        }
      },
      "validateMembersHash((uint256,bytes,uint8[],bytes,uint256[],uint32[],bytes32))": {
        "params": {
          "result": "DKG result"
        },
        "returns": {
          "_0": "true if result's group members hash matches with the one that is         challenged."
        }
      },
      "validateSignatures((uint256,bytes,uint8[],bytes,uint256[],uint32[],bytes32),uint256)": {
        "params": {
          "startBlock": "DKG start block"
        },
        "returns": {
          "_0": "true if group members matches; false otherwise"
        }
      }
    },
    "stateVariables": {
      "activeThreshold": {
        "details": "The minimum number of active and properly behaving group members      during the DKG needed to accept the result. This number is higher      than `groupThreshold` to keep a safety margin for members becoming      inactive after DKG so that the group can still produce a relay      entry."
      },
      "groupSize": {
        "details": "Size of a group in the threshold relay."
      },
      "groupThreshold": {
        "details": "The minimum number of group members needed to interact according to      the protocol to produce a relay entry. The adversary can not learn      anything about the key as long as it does not break into      groupThreshold+1 of members."
      },
      "signatureByteSize": {
        "details": "Size in bytes of a single signature produced by operator supporting      DKG result."
      }
    },
    "title": "DKG result validator",
    "version": 1
  },
  "userdoc": {
    "kind": "user",
    "methods": {
      "validate((uint256,bytes,uint8[],bytes,uint256[],uint32[],bytes32),uint256,uint256)": {
        "notice": "Performs a full validation of DKG result, including checking the         format of fields in the result, declared selected group members,         and signatures of operators supporting the result."
      },
      "validateFields((uint256,bytes,uint8[],bytes,uint256[],uint32[],bytes32))": {
        "notice": "Performs a static validation of DKG result fields: lengths,         ranges, and order of arrays."
      },
      "validateGroupMembers((uint256,bytes,uint8[],bytes,uint256[],uint32[],bytes32),uint256)": {
        "notice": "Performs validation of group members as declared in DKG         result against group members selected by the sortition pool."
      },
      "validateMembersHash((uint256,bytes,uint8[],bytes,uint256[],uint32[],bytes32))": {
        "notice": "Performs validation of hashed group members that actively took         part in DKG."
      },
      "validateSignatures((uint256,bytes,uint8[],bytes,uint256[],uint32[],bytes32),uint256)": {
        "notice": "Performs validation of signatures supplied in DKG result.         Note that this function does not check if addresses which         supplied signatures supporting the result are the ones selected         to the group by sortition pool. This function should be used         together with `validateGroupMembers`."
      }
    },
    "notice": "DKGValidator allows performing a full validation of DKG result,         including checking the format of fields in the result, declared         selected group members, and signatures of operators supporting the         result. The operator submitting the result should perform the         validation using a free contract call before submitting the result         to ensure their result is valid and can not be challenged. All other         network operators should perform validation of the submitted result         using a free contract call and challenge the result if the         validation fails.",
    "version": 1
  },
  "storageLayout": {
    "storage": [],
    "types": null
  }
}