{
  "address": "0x024a697788918007592572f7CD020df2bC2ABD84",
  "abi": [
    {
      "anonymous": false,
      "inputs": [
        {
          "indexed": true,
          "internalType": "bytes32",
          "name": "resultHash",
          "type": "bytes32"
        },
        {
          "indexed": true,
          "internalType": "address",
          "name": "approver",
          "type": "address"
        }
      ],
      "name": "DkgResultApproved",
      "type": "event"
    },
    {
      "anonymous": false,
      "inputs": [
        {
          "indexed": true,
          "internalType": "bytes32",
          "name": "resultHash",
          "type": "bytes32"
        },
        {
          "indexed": true,
          "internalType": "address",
          "name": "challenger",
          "type": "address"
        },
        {
          "indexed": false,
          "internalType": "string",
          "name": "reason",
          "type": "string"
        }
      ],
      "name": "DkgResultChallenged",
      "type": "event"
    },
    {
      "anonymous": false,
      "inputs": [
        {
          "indexed": true,
          "internalType": "bytes32",
          "name": "resultHash",
          "type": "bytes32"
        },
        {
          "indexed": true,
          "internalType": "uint256",
          "name": "seed",
          "type": "uint256"
        },
        {
          "components": [
            {
              "internalType": "uint256",
              "name": "submitterMemberIndex",
              "type": "uint256"
            },
            {
              "internalType": "bytes",
              "name": "groupPubKey",
              "type": "bytes"
            },
            {
              "internalType": "uint8[]",
              "name": "misbehavedMembersIndices",
              "type": "uint8[]"
            },
            {
              "internalType": "bytes",
              "name": "signatures",
              "type": "bytes"
            },
            {
              "internalType": "uint256[]",
              "name": "signingMembersIndices",
              "type": "uint256[]"
            },
            {
              "internalType": "uint32[]",
              "name": "members",
              "type": "uint32[]"
            },
            {
              "internalType": "bytes32",
              "name": "membersHash",
              "type": "bytes32"
            }
          ],
          "indexed": false,
          "internalType": "struct BeaconDkg.Result",
          "name": "result",
          "type": "tuple"
        }
      ],
      "name": "DkgResultSubmitted",
      "type": "event"
    },
    {
      "anonymous": false,
      "inputs": [],
      "name": "DkgSeedTimedOut",
      "type": "event"
    },
    {
      "anonymous": false,
      "inputs": [
        {
          "indexed": true,
          "internalType": "uint256",
          "name": "seed",
          "type": "uint256"
        }
      ],
      "name": "DkgStarted",
      "type": "event"
    },
    {
      "anonymous": false,
      "inputs": [],
      "name": "DkgStateLocked",
      "type": "event"
    },
    {
      "anonymous": false,
      "inputs": [],
      "name": "DkgTimedOut",
      "type": "event"
    },
    {
      "inputs": [],
      "name": "groupSize",
      "outputs": [
        {
          "internalType": "uint256",
          "name": "",
          "type": "uint256"
        }
      ],
      "stateMutability": "view",
      "type": "function"
    },
    {
      "inputs": [],
      "name": "offchainDkgTime",
      "outputs": [
        {
          "internalType": "uint256",
          "name": "",
          "type": "uint256"
        }
      ],
      "stateMutability": "view",
      "type": "function"
    }
  ],
  "transactionHash": "0x94b565074ef3c8e65a9a2a76271cd9cae2b7c86d0db009041de188e37f59e6f0",
  "args": [],
  "numDeployments": 1,
  "solcInputHash": "315dd8aa56418c14cbdc8d65adaa494b",
  "bytecode": "0x6112ca61003a600b82828239805160001a60731461002d57634e487b7160e01b600052600060045260246000fd5b30600052607381538281f3fe73000000000000000000000000000000000000000030146080604052600436106100615760003560e01c80630a1ba38e1461006657806346bf00db1461008157806363b635ea146100bb578063716ae957146100c3578063a29355e0146100f0575b600080fd5b61006e604881565b6040519081526020015b60405180910390f35b81801561008d57600080fd5b506100a161009c366004610cd5565b610112565b6040805192835263ffffffff909116602083015201610078565b61006e604081565b8180156100cf57600080fd5b506100e36100de366004610cd5565b61048c565b6040516100789190610d23565b8180156100fc57600080fd5b5061011061010b366004610cd5565b6108b5565b005b600080600461012085610bc5565b600481111561013157610131610d6d565b146101835760405162461bcd60e51b815260206004820152601e60248201527f43757272656e74207374617465206973206e6f74204348414c4c454e4745000060448201526064015b60405180910390fd5b6002840154600a8501546101979190610d99565b4311156101f25760405162461bcd60e51b815260206004820152602360248201527f4368616c6c656e676520706572696f642068617320616c7265616479207061736044820152621cd95960ea1b606482015260840161017a565b8360090154836040516020016102089190610ff9565b60405160208183030381529060405280519060200120146102915760405162461bcd60e51b815260206004820152603a60248201527f526573756c7420756e646572206368616c6c656e67652069732064696666657260448201527f656e74207468616e20746865207375626d6974746564206f6e65000000000000606482015260840161017a565b6001840154600785015460068601546040516373b33d5d60e11b81526001600160a01b039093169263e7667aba926102cd928892600401611013565b600060405180830381865afa92505050801561030b57506040513d6000823e601f3d908101601f191682016040526103089190810190611082565b60015b61038057336001600160a01b031684600901547f703feb01415a2995816e8d082fd7aad0eacada1a2f63fdb3226e47f8a0285436604051610373906020808252601390820152721d985b1a59185d1a5bdb881c995d995c9d1959606a1b604082015260600190565b60405180910390a361040f565b81156103c65760405162461bcd60e51b8152602060048201526015602482015274756e6a7573746966696564206368616c6c656e676560581b604482015260640161017a565b336001600160a01b031686600901547f703feb01415a2995816e8d082fd7aad0eacada1a2f63fdb3226e47f8a0285436836040516104049190611142565b60405180910390a350505b6009840154915061042360a0840184611175565b61042f600186356111bf565b81811061043e5761043e6111d2565b905060200201602081019061045391906111e8565b9050604884600601544361046791906111bf565b61047191906111bf565b6008850155600060098501819055600a8501555b9250929050565b6060600461049984610bc5565b60048111156104aa576104aa610d6d565b146104f75760405162461bcd60e51b815260206004820152601e60248201527f43757272656e74207374617465206973206e6f74204348414c4c454e47450000604482015260640161017a565b6002830154600a84015460009161050d91610d99565b905080431161056a5760405162461bcd60e51b815260206004820152602360248201527f4368616c6c656e676520706572696f6420686173206e6f7420706173736564206044820152621e595d60ea1b606482015260840161017a565b8360090154836040516020016105809190610ff9565b60405160208183030381529060405280519060200120146106095760405162461bcd60e51b815260206004820152603960248201527f526573756c7420756e64657220617070726f76616c206973206469666665726560448201527f6e74207468616e20746865207375626d6974746564206f6e6500000000000000606482015260840161017a565b83546000906001600160a01b0316638871ca5d61062960a0870187611175565b610635600189356111bf565b818110610644576106446111d2565b905060200201602081019061065991906111e8565b6040516001600160e01b031960e084901b16815263ffffffff919091166004820152602401602060405180830381865afa15801561069b573d6000803e3d6000fd5b505050506040513d601f19601f820116820180604052508101906106bf9190611203565b9050336001600160a01b03821614806106e5575060058501546106e29083610d99565b43115b6107635760405162461bcd60e51b815260206004820152604360248201527f4f6e6c792074686520444b4720726573756c74207375626d697474657220636160448201527f6e20617070726f76652074686520726573756c742061742074686973206d6f6d606482015262195b9d60ea1b608482015260a40161017a565b6107706040850185611175565b905067ffffffffffffffff81111561078a5761078a611048565b6040519080825280602002602001820160405280156107b3578160200160208202803683370190505b50925060005b6107c66040860186611175565b905081101561087a576107dc60a0860186611175565b60016107eb6040890189611175565b858181106107fb576107fb6111d2565b9050602002016020810190610810919061122c565b61081a9190611247565b60ff1681811061082c5761082c6111d2565b905060200201602081019061084191906111e8565b848281518110610853576108536111d2565b63ffffffff909216602092830291909101909101528061087281611260565b9150506107b9565b5060098501546040513391907fe6e9d5eba171e82025efb3f3d44fd35905e7283d104284cb9f3bbc5bf1e4276f90600090a350505b92915050565b60036108c083610bc5565b60048111156108d1576108d1610d6d565b1461092a5760405162461bcd60e51b8152602060048201526024808201527f43757272656e74207374617465206973206e6f74204157414954494e475f524560448201526314d5531560e21b606482015260840161017a565b61093382610c78565b156109805760405162461bcd60e51b815260206004820152601a60248201527f444b472074696d656f757420616c726561647920706173736564000000000000604482015260640161017a565b81546040516307b8c36760e51b81523360048201526001600160a01b0390911690819063f7186ce090602401602060405180830381865afa1580156109c9573d6000803e3d6000fd5b505050506040513d601f19601f820116820180604052508101906109ed9190611279565b610a455760405162461bcd60e51b815260206004820152602360248201527f5375626d6974746572206e6f7420696e2074686520736f72746974696f6e20706044820152621bdbdb60ea1b606482015260840161017a565b336001600160a01b038216638871ca5d610a6260a0860186611175565b610a6e600188356111bf565b818110610a7d57610a7d6111d2565b9050602002016020810190610a9291906111e8565b6040516001600160e01b031960e084901b16815263ffffffff919091166004820152602401602060405180830381865afa158015610ad4573d6000803e3d6000fd5b505050506040513d601f19601f82011682018060405250810190610af89190611203565b6001600160a01b031614610b4e5760405162461bcd60e51b815260206004820152601a60248201527f556e6578706563746564207375626d697474657220696e646578000000000000604482015260640161017a565b81604051602001610b5f9190610ff9565b60408051601f198184030181529082905280516020909101206009850181905543600a8601556007850154917f8e7fd4293d7db11807147d8890c287fad3396fbb09a4e92273fc7856076c153a90610bb8908690610ff9565b60405180910390a3505050565b805460408051632938b58d60e21b815290516000926001600160a01b03169163a4e2d6349160048083019260209291908290030181865afa158015610c0e573d6000803e3d6000fd5b505050506040513d601f19601f82011682018060405250810190610c329190611279565b15610c735750600681015460019015610c73576002905060488260060154610c5a9190610d99565b431115610c735750600a81015460039015610c73575060045b919050565b60006003610c8583610bc5565b6004811115610c9657610c96610d6d565b1480156108af5750600482015460088301546006840154610cb990604890610d99565b610cc39190610d99565b610ccd9190610d99565b431192915050565b60008060408385031215610ce857600080fd5b82359150602083013567ffffffffffffffff811115610d0657600080fd5b830160e08186031215610d1857600080fd5b809150509250929050565b6020808252825182820181905260009190848201906040850190845b81811015610d6157835163ffffffff1683529284019291840191600101610d3f565b50909695505050505050565b634e487b7160e01b600052602160045260246000fd5b634e487b7160e01b600052601160045260246000fd5b808201808211156108af576108af610d83565b6000808335601e19843603018112610dc357600080fd5b830160208101925035905067ffffffffffffffff811115610de357600080fd5b80360382131561048557600080fd5b81835281816020850137506000828201602090810191909152601f909101601f19169091010190565b6000808335601e19843603018112610e3257600080fd5b830160208101925035905067ffffffffffffffff811115610e5257600080fd5b8060051b360382131561048557600080fd5b803560ff81168114610c7357600080fd5b81835260006001600160fb1b03831115610e8e57600080fd5b8260051b80836020870137939093016020019392505050565b803563ffffffff81168114610c7357600080fd5b8183526000602080850194508260005b85811015610ef45763ffffffff610ee183610ea7565b1687529582019590820190600101610ecb565b509495945050505050565b8035825260006020610f1381840184610dac565b60e083870152610f2760e087018284610df2565b915050610f376040850185610e1b565b868303604088015280835290916000919084015b81831015610f735760ff610f5e85610e64565b16815292840192600192909201918401610f4b565b610f806060880188610dac565b955093508781036060890152610f97818686610df2565b945050505050610faa6080840184610e1b565b8583036080870152610fbd838284610e75565b92505050610fce60a0840184610e1b565b85830360a0870152610fe1838284610ebb565b9250505060c083013560c08501528091505092915050565b60208152600061100c6020830184610eff565b9392505050565b6060815260006110266060830186610eff565b60208301949094525060400152919050565b80518015158114610c7357600080fd5b634e487b7160e01b600052604160045260246000fd5b60005b83811015611079578181015183820152602001611061565b50506000910152565b6000806040838503121561109557600080fd5b61109e83611038565b9150602083015167ffffffffffffffff808211156110bb57600080fd5b818501915085601f8301126110cf57600080fd5b8151818111156110e1576110e1611048565b604051601f8201601f19908116603f0116810190838211818310171561110957611109611048565b8160405282815288602084870101111561112257600080fd5b61113383602083016020880161105e565b80955050505050509250929050565b602081526000825180602084015261116181604085016020870161105e565b601f01601f19169190910160400192915050565b6000808335601e1984360301811261118c57600080fd5b83018035915067ffffffffffffffff8211156111a757600080fd5b6020019150600581901b360382131561048557600080fd5b818103818111156108af576108af610d83565b634e487b7160e01b600052603260045260246000fd5b6000602082840312156111fa57600080fd5b61100c82610ea7565b60006020828403121561121557600080fd5b81516001600160a01b038116811461100c57600080fd5b60006020828403121561123e57600080fd5b61100c82610e64565b60ff82811682821603908111156108af576108af610d83565b60006001820161127257611272610d83565b5060010190565b60006020828403121561128b57600080fd5b61100c8261103856fea26469706673582212200d5dae1b2939600e386623ef7defde718cd565d9d3a7e956d5adf754ff7891af64736f6c63430008110033",
  "devdoc": {
    "kind": "dev",
    "methods": {
      "approveResult(BeaconDkg.Data storage,BeaconDkg.Result)": {
        "details": "Can be called after a challenge period for the submitted result.",
        "params": {
          "result": "Result to approve. Must match the submitted result stored        during `submitResult`."
        },
        "returns": {
          "misbehavedMembers": "Identifiers of members who misbehaved during DKG."
        }
      },
      "challengeResult(BeaconDkg.Data storage,BeaconDkg.Result)": {
        "details": "Can be called during a challenge period for the submitted result.",
        "params": {
          "result": "Result to challenge. Must match the submitted result        stored during `submitResult`."
        },
        "returns": {
          "maliciousResultHash": "Hash of the malicious result.",
          "maliciousSubmitter": "Identifier of the malicious submitter."
        }
      }
    },
    "stateVariables": {
      "groupSize": {
        "details": "Size of a group in the threshold relay."
      }
    },
    "version": 1
  },
  "userdoc": {
    "kind": "user",
    "methods": {
      "approveResult(BeaconDkg.Data storage,BeaconDkg.Result)": {
        "notice": "Approves DKG result. Can be called when the challenge period for         the submitted result is finished. Considers the submitted result         as valid. For the first `submitterPrecedencePeriodLength`         blocks after the end of the challenge period can be called only         by the DKG result submitter. After that time, can be called by         anyone."
      },
      "challengeResult(BeaconDkg.Data storage,BeaconDkg.Result)": {
        "notice": "Challenges DKG result. If the submitted result is proved to be         invalid it reverts the DKG back to the result submission phase."
      },
      "offchainDkgTime()": {
        "notice": "Time in blocks after which DKG result is complete and ready to be"
      },
      "submitResult(BeaconDkg.Data storage,BeaconDkg.Result)": {
        "notice": "Allows to submit a DKG result. The submitted result does not go         through a validation and before it gets accepted, it needs to         wait through the challenge period during which everyone has         a chance to challenge the result as invalid one. Submitter of         the result needs to be in the sortition pool and if the result         gets challenged, the submitter will get slashed."
      }
    },
    "version": 1
  },
  "storageLayout": {
    "storage": [],
    "types": null
  }
}