{
  "address": "0xd0A3088eD9fff4357b79cd3896bd38876fcB1c63",
  "abi": [
    {
      "inputs": [
        {
          "internalType": "contract RandomBeacon",
          "name": "_randomBeacon",
          "type": "address"
        },
        {
          "internalType": "uint256",
          "name": "_governanceDelay",
          "type": "uint256"
        }
      ],
      "stateMutability": "nonpayable",
      "type": "constructor"
    },
    {
      "anonymous": false,
      "inputs": [
        {
          "indexed": false,
          "internalType": "uint64",
          "name": "authorizationDecreaseChangePeriod",
          "type": "uint64"
        },
        {
          "indexed": false,
          "internalType": "uint256",
          "name": "timestamp",
          "type": "uint256"
        }
      ],
      "name": "AuthorizationDecreaseChangePeriodUpdateStarted",
      "type": "event"
    },
    {
      "anonymous": false,
      "inputs": [
        {
          "indexed": false,
          "internalType": "uint64",
          "name": "authorizationDecreaseChangePeriod",
          "type": "uint64"
        }
      ],
      "name": "AuthorizationDecreaseChangePeriodUpdated",
      "type": "event"
    },
    {
      "anonymous": false,
      "inputs": [
        {
          "indexed": false,
          "internalType": "uint64",
          "name": "authorizationDecreaseDelay",
          "type": "uint64"
        },
        {
          "indexed": false,
          "internalType": "uint256",
          "name": "timestamp",
          "type": "uint256"
        }
      ],
      "name": "AuthorizationDecreaseDelayUpdateStarted",
      "type": "event"
    },
    {
      "anonymous": false,
      "inputs": [
        {
          "indexed": false,
          "internalType": "uint64",
          "name": "authorizationDecreaseDelay",
          "type": "uint64"
        }
      ],
      "name": "AuthorizationDecreaseDelayUpdated",
      "type": "event"
    },
    {
      "anonymous": false,
      "inputs": [
        {
          "indexed": false,
          "internalType": "uint256",
          "name": "callbackGasLimit",
          "type": "uint256"
        },
        {
          "indexed": false,
          "internalType": "uint256",
          "name": "timestamp",
          "type": "uint256"
        }
      ],
      "name": "CallbackGasLimitUpdateStarted",
      "type": "event"
    },
    {
      "anonymous": false,
      "inputs": [
        {
          "indexed": false,
          "internalType": "uint256",
          "name": "callbackGasLimit",
          "type": "uint256"
        }
      ],
      "name": "CallbackGasLimitUpdated",
      "type": "event"
    },
    {
      "anonymous": false,
      "inputs": [
        {
          "indexed": false,
          "internalType": "uint256",
          "name": "dkgMaliciousResultNotificationRewardMultiplier",
          "type": "uint256"
        },
        {
          "indexed": false,
          "internalType": "uint256",
          "name": "timestamp",
          "type": "uint256"
        }
      ],
      "name": "DkgMaliciousResultNotificationRewardMultiplierUpdateStarted",
      "type": "event"
    },
    {
      "anonymous": false,
      "inputs": [
        {
          "indexed": false,
          "internalType": "uint256",
          "name": "dkgMaliciousResultNotificationRewardMultiplier",
          "type": "uint256"
        }
      ],
      "name": "DkgMaliciousResultNotificationRewardMultiplierUpdated",
      "type": "event"
    },
    {
      "anonymous": false,
      "inputs": [
        {
          "indexed": false,
          "internalType": "uint256",
          "name": "dkgResultApprovalGasOffset",
          "type": "uint256"
        },
        {
          "indexed": false,
          "internalType": "uint256",
          "name": "timestamp",
          "type": "uint256"
        }
      ],
      "name": "DkgResultApprovalGasOffsetUpdateStarted",
      "type": "event"
    },
    {
      "anonymous": false,
      "inputs": [
        {
          "indexed": false,
          "internalType": "uint256",
          "name": "dkgResultApprovalGasOffset",
          "type": "uint256"
        }
      ],
      "name": "DkgResultApprovalGasOffsetUpdated",
      "type": "event"
    },
    {
      "anonymous": false,
      "inputs": [
        {
          "indexed": false,
          "internalType": "uint256",
          "name": "dkgResultChallengeExtraGas",
          "type": "uint256"
        },
        {
          "indexed": false,
          "internalType": "uint256",
          "name": "timestamp",
          "type": "uint256"
        }
      ],
      "name": "DkgResultChallengeExtraGasUpdateStarted",
      "type": "event"
    },
    {
      "anonymous": false,
      "inputs": [
        {
          "indexed": false,
          "internalType": "uint256",
          "name": "dkgResultChallengeExtraGas",
          "type": "uint256"
        }
      ],
      "name": "DkgResultChallengeExtraGasUpdated",
      "type": "event"
    },
    {
      "anonymous": false,
      "inputs": [
        {
          "indexed": false,
          "internalType": "uint256",
          "name": "dkgResultChallengePeriodLength",
          "type": "uint256"
        },
        {
          "indexed": false,
          "internalType": "uint256",
          "name": "timestamp",
          "type": "uint256"
        }
      ],
      "name": "DkgResultChallengePeriodLengthUpdateStarted",
      "type": "event"
    },
    {
      "anonymous": false,
      "inputs": [
        {
          "indexed": false,
          "internalType": "uint256",
          "name": "dkgResultChallengePeriodLength",
          "type": "uint256"
        }
      ],
      "name": "DkgResultChallengePeriodLengthUpdated",
      "type": "event"
    },
    {
      "anonymous": false,
      "inputs": [
        {
          "indexed": false,
          "internalType": "uint256",
          "name": "dkgResultSubmissionGas",
          "type": "uint256"
        },
        {
          "indexed": false,
          "internalType": "uint256",
          "name": "timestamp",
          "type": "uint256"
        }
      ],
      "name": "DkgResultSubmissionGasUpdateStarted",
      "type": "event"
    },
    {
      "anonymous": false,
      "inputs": [
        {
          "indexed": false,
          "internalType": "uint256",
          "name": "dkgResultSubmissionGas",
          "type": "uint256"
        }
      ],
      "name": "DkgResultSubmissionGasUpdated",
      "type": "event"
    },
    {
      "anonymous": false,
      "inputs": [
        {
          "indexed": false,
          "internalType": "uint256",
          "name": "dkgResultSubmissionTimeout",
          "type": "uint256"
        },
        {
          "indexed": false,
          "internalType": "uint256",
          "name": "timestamp",
          "type": "uint256"
        }
      ],
      "name": "DkgResultSubmissionTimeoutUpdateStarted",
      "type": "event"
    },
    {
      "anonymous": false,
      "inputs": [
        {
          "indexed": false,
          "internalType": "uint256",
          "name": "dkgResultSubmissionTimeout",
          "type": "uint256"
        }
      ],
      "name": "DkgResultSubmissionTimeoutUpdated",
      "type": "event"
    },
    {
      "anonymous": false,
      "inputs": [
        {
          "indexed": false,
          "internalType": "uint256",
          "name": "submitterPrecedencePeriodLength",
          "type": "uint256"
        },
        {
          "indexed": false,
          "internalType": "uint256",
          "name": "timestamp",
          "type": "uint256"
        }
      ],
      "name": "DkgSubmitterPrecedencePeriodLengthUpdateStarted",
      "type": "event"
    },
    {
      "anonymous": false,
      "inputs": [
        {
          "indexed": false,
          "internalType": "uint256",
          "name": "submitterPrecedencePeriodLength",
          "type": "uint256"
        }
      ],
      "name": "DkgSubmitterPrecedencePeriodLengthUpdated",
      "type": "event"
    },
    {
      "anonymous": false,
      "inputs": [
        {
          "indexed": false,
          "internalType": "uint256",
          "name": "governanceDelay",
          "type": "uint256"
        },
        {
          "indexed": false,
          "internalType": "uint256",
          "name": "timestamp",
          "type": "uint256"
        }
      ],
      "name": "GovernanceDelayUpdateStarted",
      "type": "event"
    },
    {
      "anonymous": false,
      "inputs": [
        {
          "indexed": false,
          "internalType": "uint256",
          "name": "governanceDelay",
          "type": "uint256"
        }
      ],
      "name": "GovernanceDelayUpdated",
      "type": "event"
    },
    {
      "anonymous": false,
      "inputs": [
        {
          "indexed": false,
          "internalType": "uint256",
          "name": "groupCreationFrequency",
          "type": "uint256"
        },
        {
          "indexed": false,
          "internalType": "uint256",
          "name": "timestamp",
          "type": "uint256"
        }
      ],
      "name": "GroupCreationFrequencyUpdateStarted",
      "type": "event"
    },
    {
      "anonymous": false,
      "inputs": [
        {
          "indexed": false,
          "internalType": "uint256",
          "name": "groupCreationFrequency",
          "type": "uint256"
        }
      ],
      "name": "GroupCreationFrequencyUpdated",
      "type": "event"
    },
    {
      "anonymous": false,
      "inputs": [
        {
          "indexed": false,
          "internalType": "uint256",
          "name": "groupLifetime",
          "type": "uint256"
        },
        {
          "indexed": false,
          "internalType": "uint256",
          "name": "timestamp",
          "type": "uint256"
        }
      ],
      "name": "GroupLifetimeUpdateStarted",
      "type": "event"
    },
    {
      "anonymous": false,
      "inputs": [
        {
          "indexed": false,
          "internalType": "uint256",
          "name": "groupLifetime",
          "type": "uint256"
        }
      ],
      "name": "GroupLifetimeUpdated",
      "type": "event"
    },
    {
      "anonymous": false,
      "inputs": [
        {
          "indexed": false,
          "internalType": "uint96",
          "name": "maliciousDkgResultSlashingAmount",
          "type": "uint96"
        },
        {
          "indexed": false,
          "internalType": "uint256",
          "name": "timestamp",
          "type": "uint256"
        }
      ],
      "name": "MaliciousDkgResultSlashingAmountUpdateStarted",
      "type": "event"
    },
    {
      "anonymous": false,
      "inputs": [
        {
          "indexed": false,
          "internalType": "uint96",
          "name": "maliciousDkgResultSlashingAmount",
          "type": "uint96"
        }
      ],
      "name": "MaliciousDkgResultSlashingAmountUpdated",
      "type": "event"
    },
    {
      "anonymous": false,
      "inputs": [
        {
          "indexed": false,
          "internalType": "uint96",
          "name": "minimumAuthorization",
          "type": "uint96"
        },
        {
          "indexed": false,
          "internalType": "uint256",
          "name": "timestamp",
          "type": "uint256"
        }
      ],
      "name": "MinimumAuthorizationUpdateStarted",
      "type": "event"
    },
    {
      "anonymous": false,
      "inputs": [
        {
          "indexed": false,
          "internalType": "uint96",
          "name": "minimumAuthorization",
          "type": "uint96"
        }
      ],
      "name": "MinimumAuthorizationUpdated",
      "type": "event"
    },
    {
      "anonymous": false,
      "inputs": [
        {
          "indexed": false,
          "internalType": "uint256",
          "name": "notifyOperatorInactivityGasOffset",
          "type": "uint256"
        },
        {
          "indexed": false,
          "internalType": "uint256",
          "name": "timestamp",
          "type": "uint256"
        }
      ],
      "name": "NotifyOperatorInactivityGasOffsetUpdateStarted",
      "type": "event"
    },
    {
      "anonymous": false,
      "inputs": [
        {
          "indexed": false,
          "internalType": "uint256",
          "name": "notifyOperatorInactivityGasOffset",
          "type": "uint256"
        }
      ],
      "name": "NotifyOperatorInactivityGasOffsetUpdated",
      "type": "event"
    },
    {
      "anonymous": false,
      "inputs": [
        {
          "indexed": true,
          "internalType": "address",
          "name": "previousOwner",
          "type": "address"
        },
        {
          "indexed": true,
          "internalType": "address",
          "name": "newOwner",
          "type": "address"
        }
      ],
      "name": "OwnershipTransferred",
      "type": "event"
    },
    {
      "anonymous": false,
      "inputs": [
        {
          "indexed": false,
          "internalType": "address",
          "name": "newRandomBeaconGovernance",
          "type": "address"
        },
        {
          "indexed": false,
          "internalType": "uint256",
          "name": "timestamp",
          "type": "uint256"
        }
      ],
      "name": "RandomBeaconGovernanceTransferStarted",
      "type": "event"
    },
    {
      "anonymous": false,
      "inputs": [
        {
          "indexed": false,
          "internalType": "address",
          "name": "newRandomBeaconGovernance",
          "type": "address"
        }
      ],
      "name": "RandomBeaconGovernanceTransferred",
      "type": "event"
    },
    {
      "anonymous": false,
      "inputs": [
        {
          "indexed": false,
          "internalType": "uint256",
          "name": "relayEntryHardTimeout",
          "type": "uint256"
        },
        {
          "indexed": false,
          "internalType": "uint256",
          "name": "timestamp",
          "type": "uint256"
        }
      ],
      "name": "RelayEntryHardTimeoutUpdateStarted",
      "type": "event"
    },
    {
      "anonymous": false,
      "inputs": [
        {
          "indexed": false,
          "internalType": "uint256",
          "name": "relayEntryHardTimeout",
          "type": "uint256"
        }
      ],
      "name": "RelayEntryHardTimeoutUpdated",
      "type": "event"
    },
    {
      "anonymous": false,
      "inputs": [
        {
          "indexed": false,
          "internalType": "uint256",
          "name": "relayEntrySoftTimeout",
          "type": "uint256"
        },
        {
          "indexed": false,
          "internalType": "uint256",
          "name": "timestamp",
          "type": "uint256"
        }
      ],
      "name": "RelayEntrySoftTimeoutUpdateStarted",
      "type": "event"
    },
    {
      "anonymous": false,
      "inputs": [
        {
          "indexed": false,
          "internalType": "uint256",
          "name": "relayEntrySoftTimeout",
          "type": "uint256"
        }
      ],
      "name": "RelayEntrySoftTimeoutUpdated",
      "type": "event"
    },
    {
      "anonymous": false,
      "inputs": [
        {
          "indexed": false,
          "internalType": "uint96",
          "name": "relayEntrySubmissionFailureSlashingAmount",
          "type": "uint96"
        },
        {
          "indexed": false,
          "internalType": "uint256",
          "name": "timestamp",
          "type": "uint256"
        }
      ],
      "name": "RelayEntrySubmissionFailureSlashingAmountUpdateStarted",
      "type": "event"
    },
    {
      "anonymous": false,
      "inputs": [
        {
          "indexed": false,
          "internalType": "uint96",
          "name": "relayEntrySubmissionFailureSlashingAmount",
          "type": "uint96"
        }
      ],
      "name": "RelayEntrySubmissionFailureSlashingAmountUpdated",
      "type": "event"
    },
    {
      "anonymous": false,
      "inputs": [
        {
          "indexed": false,
          "internalType": "uint256",
          "name": "relayEntrySubmissionGasOffset",
          "type": "uint256"
        },
        {
          "indexed": false,
          "internalType": "uint256",
          "name": "timestamp",
          "type": "uint256"
        }
      ],
      "name": "RelayEntrySubmissionGasOffsetUpdateStarted",
      "type": "event"
    },
    {
      "anonymous": false,
      "inputs": [
        {
          "indexed": false,
          "internalType": "uint256",
          "name": "relayEntrySubmissionGasOffset",
          "type": "uint256"
        }
      ],
      "name": "RelayEntrySubmissionGasOffsetUpdated",
      "type": "event"
    },
    {
      "anonymous": false,
      "inputs": [
        {
          "indexed": false,
          "internalType": "uint256",
          "name": "relayEntryTimeoutNotificationRewardMultiplier",
          "type": "uint256"
        },
        {
          "indexed": false,
          "internalType": "uint256",
          "name": "timestamp",
          "type": "uint256"
        }
      ],
      "name": "RelayEntryTimeoutNotificationRewardMultiplierUpdateStarted",
      "type": "event"
    },
    {
      "anonymous": false,
      "inputs": [
        {
          "indexed": false,
          "internalType": "uint256",
          "name": "relayEntryTimeoutNotificationRewardMultiplier",
          "type": "uint256"
        }
      ],
      "name": "RelayEntryTimeoutNotificationRewardMultiplierUpdated",
      "type": "event"
    },
    {
      "anonymous": false,
      "inputs": [
        {
          "indexed": false,
          "internalType": "uint256",
          "name": "sortitionPoolRewardsBanDuration",
          "type": "uint256"
        },
        {
          "indexed": false,
          "internalType": "uint256",
          "name": "timestamp",
          "type": "uint256"
        }
      ],
      "name": "SortitionPoolRewardsBanDurationUpdateStarted",
      "type": "event"
    },
    {
      "anonymous": false,
      "inputs": [
        {
          "indexed": false,
          "internalType": "uint256",
          "name": "sortitionPoolRewardsBanDuration",
          "type": "uint256"
        }
      ],
      "name": "SortitionPoolRewardsBanDurationUpdated",
      "type": "event"
    },
    {
      "anonymous": false,
      "inputs": [
        {
          "indexed": false,
          "internalType": "uint256",
          "name": "unauthorizedSigningTimeoutNotificationRewardMultiplier",
          "type": "uint256"
        },
        {
          "indexed": false,
          "internalType": "uint256",
          "name": "timestamp",
          "type": "uint256"
        }
      ],
      "name": "UnauthorizedSigningNotificationRewardMultiplierUpdateStarted",
      "type": "event"
    },
    {
      "anonymous": false,
      "inputs": [
        {
          "indexed": false,
          "internalType": "uint256",
          "name": "unauthorizedSigningTimeoutNotificationRewardMultiplier",
          "type": "uint256"
        }
      ],
      "name": "UnauthorizedSigningNotificationRewardMultiplierUpdated",
      "type": "event"
    },
    {
      "anonymous": false,
      "inputs": [
        {
          "indexed": false,
          "internalType": "uint96",
          "name": "unauthorizedSigningSlashingAmount",
          "type": "uint96"
        },
        {
          "indexed": false,
          "internalType": "uint256",
          "name": "timestamp",
          "type": "uint256"
        }
      ],
      "name": "UnauthorizedSigningSlashingAmountUpdateStarted",
      "type": "event"
    },
    {
      "anonymous": false,
      "inputs": [
        {
          "indexed": false,
          "internalType": "uint96",
          "name": "unauthorizedSigningSlashingAmount",
          "type": "uint96"
        }
      ],
      "name": "UnauthorizedSigningSlashingAmountUpdated",
      "type": "event"
    },
    {
      "inputs": [],
      "name": "authorizationDecreaseChangePeriodChangeInitiated",
      "outputs": [
        {
          "internalType": "uint256",
          "name": "",
          "type": "uint256"
        }
      ],
      "stateMutability": "view",
      "type": "function"
    },
    {
      "inputs": [],
      "name": "authorizationDecreaseDelayChangeInitiated",
      "outputs": [
        {
          "internalType": "uint256",
          "name": "",
          "type": "uint256"
        }
      ],
      "stateMutability": "view",
      "type": "function"
    },
    {
      "inputs": [
        {
          "internalType": "uint64",
          "name": "_newAuthorizationDecreaseChangePeriod",
          "type": "uint64"
        }
      ],
      "name": "beginAuthorizationDecreaseChangePeriodUpdate",
      "outputs": [],
      "stateMutability": "nonpayable",
      "type": "function"
    },
    {
      "inputs": [
        {
          "internalType": "uint64",
          "name": "_newAuthorizationDecreaseDelay",
          "type": "uint64"
        }
      ],
      "name": "beginAuthorizationDecreaseDelayUpdate",
      "outputs": [],
      "stateMutability": "nonpayable",
      "type": "function"
    },
    {
      "inputs": [
        {
          "internalType": "uint256",
          "name": "_newCallbackGasLimit",
          "type": "uint256"
        }
      ],
      "name": "beginCallbackGasLimitUpdate",
      "outputs": [],
      "stateMutability": "nonpayable",
      "type": "function"
    },
    {
      "inputs": [
        {
          "internalType": "uint256",
          "name": "_newDkgMaliciousResultNotificationRewardMultiplier",
          "type": "uint256"
        }
      ],
      "name": "beginDkgMaliciousResultNotificationRewardMultiplierUpdate",
      "outputs": [],
      "stateMutability": "nonpayable",
      "type": "function"
    },
    {
      "inputs": [
        {
          "internalType": "uint256",
          "name": "_newDkgResultApprovalGasOffset",
          "type": "uint256"
        }
      ],
      "name": "beginDkgResultApprovalGasOffsetUpdate",
      "outputs": [],
      "stateMutability": "nonpayable",
      "type": "function"
    },
    {
      "inputs": [
        {
          "internalType": "uint256",
          "name": "_newDkgResultChallengeExtraGas",
          "type": "uint256"
        }
      ],
      "name": "beginDkgResultChallengeExtraGasUpdate",
      "outputs": [],
      "stateMutability": "nonpayable",
      "type": "function"
    },
    {
      "inputs": [
        {
          "internalType": "uint256",
          "name": "_newDkgResultChallengePeriodLength",
          "type": "uint256"
        }
      ],
      "name": "beginDkgResultChallengePeriodLengthUpdate",
      "outputs": [],
      "stateMutability": "nonpayable",
      "type": "function"
    },
    {
      "inputs": [
        {
          "internalType": "uint256",
          "name": "_newDkgResultSubmissionGas",
          "type": "uint256"
        }
      ],
      "name": "beginDkgResultSubmissionGasUpdate",
      "outputs": [],
      "stateMutability": "nonpayable",
      "type": "function"
    },
    {
      "inputs": [
        {
          "internalType": "uint256",
          "name": "_newDkgResultSubmissionTimeout",
          "type": "uint256"
        }
      ],
      "name": "beginDkgResultSubmissionTimeoutUpdate",
      "outputs": [],
      "stateMutability": "nonpayable",
      "type": "function"
    },
    {
      "inputs": [
        {
          "internalType": "uint256",
          "name": "_newDkgSubmitterPrecedencePeriodLength",
          "type": "uint256"
        }
      ],
      "name": "beginDkgSubmitterPrecedencePeriodLengthUpdate",
      "outputs": [],
      "stateMutability": "nonpayable",
      "type": "function"
    },
    {
      "inputs": [
        {
          "internalType": "uint256",
          "name": "_newGovernanceDelay",
          "type": "uint256"
        }
      ],
      "name": "beginGovernanceDelayUpdate",
      "outputs": [],
      "stateMutability": "nonpayable",
      "type": "function"
    },
    {
      "inputs": [
        {
          "internalType": "uint256",
          "name": "_newGroupCreationFrequency",
          "type": "uint256"
        }
      ],
      "name": "beginGroupCreationFrequencyUpdate",
      "outputs": [],
      "stateMutability": "nonpayable",
      "type": "function"
    },
    {
      "inputs": [
        {
          "internalType": "uint256",
          "name": "_newGroupLifetime",
          "type": "uint256"
        }
      ],
      "name": "beginGroupLifetimeUpdate",
      "outputs": [],
      "stateMutability": "nonpayable",
      "type": "function"
    },
    {
      "inputs": [
        {
          "internalType": "uint96",
          "name": "_newMaliciousDkgResultSlashingAmount",
          "type": "uint96"
        }
      ],
      "name": "beginMaliciousDkgResultSlashingAmountUpdate",
      "outputs": [],
      "stateMutability": "nonpayable",
      "type": "function"
    },
    {
      "inputs": [
        {
          "internalType": "uint96",
          "name": "_newMinimumAuthorization",
          "type": "uint96"
        }
      ],
      "name": "beginMinimumAuthorizationUpdate",
      "outputs": [],
      "stateMutability": "nonpayable",
      "type": "function"
    },
    {
      "inputs": [
        {
          "internalType": "uint256",
          "name": "_newNotifyOperatorInactivityGasOffset",
          "type": "uint256"
        }
      ],
      "name": "beginNotifyOperatorInactivityGasOffsetUpdate",
      "outputs": [],
      "stateMutability": "nonpayable",
      "type": "function"
    },
    {
      "inputs": [
        {
          "internalType": "address",
          "name": "_newRandomBeaconGovernance",
          "type": "address"
        }
      ],
      "name": "beginRandomBeaconGovernanceTransfer",
      "outputs": [],
      "stateMutability": "nonpayable",
      "type": "function"
    },
    {
      "inputs": [
        {
          "internalType": "uint256",
          "name": "_newRelayEntryHardTimeout",
          "type": "uint256"
        }
      ],
      "name": "beginRelayEntryHardTimeoutUpdate",
      "outputs": [],
      "stateMutability": "nonpayable",
      "type": "function"
    },
    {
      "inputs": [
        {
          "internalType": "uint256",
          "name": "_newRelayEntrySoftTimeout",
          "type": "uint256"
        }
      ],
      "name": "beginRelayEntrySoftTimeoutUpdate",
      "outputs": [],
      "stateMutability": "nonpayable",
      "type": "function"
    },
    {
      "inputs": [
        {
          "internalType": "uint96",
          "name": "_newRelayEntrySubmissionFailureSlashingAmount",
          "type": "uint96"
        }
      ],
      "name": "beginRelayEntrySubmissionFailureSlashingAmountUpdate",
      "outputs": [],
      "stateMutability": "nonpayable",
      "type": "function"
    },
    {
      "inputs": [
        {
          "internalType": "uint256",
          "name": "_newRelayEntrySubmissionGasOffset",
          "type": "uint256"
        }
      ],
      "name": "beginRelayEntrySubmissionGasOffsetUpdate",
      "outputs": [],
      "stateMutability": "nonpayable",
      "type": "function"
    },
    {
      "inputs": [
        {
          "internalType": "uint256",
          "name": "_newRelayEntryTimeoutNotificationRewardMultiplier",
          "type": "uint256"
        }
      ],
      "name": "beginRelayEntryTimeoutNotificationRewardMultiplierUpdate",
      "outputs": [],
      "stateMutability": "nonpayable",
      "type": "function"
    },
    {
      "inputs": [
        {
          "internalType": "uint256",
          "name": "_newSortitionPoolRewardsBanDuration",
          "type": "uint256"
        }
      ],
      "name": "beginSortitionPoolRewardsBanDurationUpdate",
      "outputs": [],
      "stateMutability": "nonpayable",
      "type": "function"
    },
    {
      "inputs": [
        {
          "internalType": "uint256",
          "name": "_newUnauthorizedSigningNotificationRewardMultiplier",
          "type": "uint256"
        }
      ],
      "name": "beginUnauthorizedSigningNotificationRewardMultiplierUpdate",
      "outputs": [],
      "stateMutability": "nonpayable",
      "type": "function"
    },
    {
      "inputs": [
        {
          "internalType": "uint96",
          "name": "_newUnauthorizedSigningSlashingAmount",
          "type": "uint96"
        }
      ],
      "name": "beginUnauthorizedSigningSlashingAmountUpdate",
      "outputs": [],
      "stateMutability": "nonpayable",
      "type": "function"
    },
    {
      "inputs": [],
      "name": "callbackGasLimitChangeInitiated",
      "outputs": [
        {
          "internalType": "uint256",
          "name": "",
          "type": "uint256"
        }
      ],
      "stateMutability": "view",
      "type": "function"
    },
    {
      "inputs": [],
      "name": "dkgMaliciousResultNotificationRewardMultiplierChangeInitiated",
      "outputs": [
        {
          "internalType": "uint256",
          "name": "",
          "type": "uint256"
        }
      ],
      "stateMutability": "view",
      "type": "function"
    },
    {
      "inputs": [],
      "name": "dkgResultApprovalGasOffsetChangeInitiated",
      "outputs": [
        {
          "internalType": "uint256",
          "name": "",
          "type": "uint256"
        }
      ],
      "stateMutability": "view",
      "type": "function"
    },
    {
      "inputs": [],
      "name": "dkgResultChallengeExtraGasChangeInitiated",
      "outputs": [
        {
          "internalType": "uint256",
          "name": "",
          "type": "uint256"
        }
      ],
      "stateMutability": "view",
      "type": "function"
    },
    {
      "inputs": [],
      "name": "dkgResultChallengePeriodLengthChangeInitiated",
      "outputs": [
        {
          "internalType": "uint256",
          "name": "",
          "type": "uint256"
        }
      ],
      "stateMutability": "view",
      "type": "function"
    },
    {
      "inputs": [],
      "name": "dkgResultSubmissionGasChangeInitiated",
      "outputs": [
        {
          "internalType": "uint256",
          "name": "",
          "type": "uint256"
        }
      ],
      "stateMutability": "view",
      "type": "function"
    },
    {
      "inputs": [],
      "name": "dkgResultSubmissionTimeoutChangeInitiated",
      "outputs": [
        {
          "internalType": "uint256",
          "name": "",
          "type": "uint256"
        }
      ],
      "stateMutability": "view",
      "type": "function"
    },
    {
      "inputs": [],
      "name": "dkgSubmitterPrecedencePeriodLengthChangeInitiated",
      "outputs": [
        {
          "internalType": "uint256",
          "name": "",
          "type": "uint256"
        }
      ],
      "stateMutability": "view",
      "type": "function"
    },
    {
      "inputs": [],
      "name": "finalizeAuthorizationDecreaseChangePeriodUpdate",
      "outputs": [],
      "stateMutability": "nonpayable",
      "type": "function"
    },
    {
      "inputs": [],
      "name": "finalizeAuthorizationDecreaseDelayUpdate",
      "outputs": [],
      "stateMutability": "nonpayable",
      "type": "function"
    },
    {
      "inputs": [],
      "name": "finalizeCallbackGasLimitUpdate",
      "outputs": [],
      "stateMutability": "nonpayable",
      "type": "function"
    },
    {
      "inputs": [],
      "name": "finalizeDkgMaliciousResultNotificationRewardMultiplierUpdate",
      "outputs": [],
      "stateMutability": "nonpayable",
      "type": "function"
    },
    {
      "inputs": [],
      "name": "finalizeDkgResultApprovalGasOffsetUpdate",
      "outputs": [],
      "stateMutability": "nonpayable",
      "type": "function"
    },
    {
      "inputs": [],
      "name": "finalizeDkgResultChallengeExtraGasUpdate",
      "outputs": [],
      "stateMutability": "nonpayable",
      "type": "function"
    },
    {
      "inputs": [],
      "name": "finalizeDkgResultChallengePeriodLengthUpdate",
      "outputs": [],
      "stateMutability": "nonpayable",
      "type": "function"
    },
    {
      "inputs": [],
      "name": "finalizeDkgResultSubmissionGasUpdate",
      "outputs": [],
      "stateMutability": "nonpayable",
      "type": "function"
    },
    {
      "inputs": [],
      "name": "finalizeDkgResultSubmissionTimeoutUpdate",
      "outputs": [],
      "stateMutability": "nonpayable",
      "type": "function"
    },
    {
      "inputs": [],
      "name": "finalizeDkgSubmitterPrecedencePeriodLengthUpdate",
      "outputs": [],
      "stateMutability": "nonpayable",
      "type": "function"
    },
    {
      "inputs": [],
      "name": "finalizeGovernanceDelayUpdate",
      "outputs": [],
      "stateMutability": "nonpayable",
      "type": "function"
    },
    {
      "inputs": [],
      "name": "finalizeGroupCreationFrequencyUpdate",
      "outputs": [],
      "stateMutability": "nonpayable",
      "type": "function"
    },
    {
      "inputs": [],
      "name": "finalizeGroupLifetimeUpdate",
      "outputs": [],
      "stateMutability": "nonpayable",
      "type": "function"
    },
    {
      "inputs": [],
      "name": "finalizeMaliciousDkgResultSlashingAmountUpdate",
      "outputs": [],
      "stateMutability": "nonpayable",
      "type": "function"
    },
    {
      "inputs": [],
      "name": "finalizeMinimumAuthorizationUpdate",
      "outputs": [],
      "stateMutability": "nonpayable",
      "type": "function"
    },
    {
      "inputs": [],
      "name": "finalizeNotifyOperatorInactivityGasOffsetUpdate",
      "outputs": [],
      "stateMutability": "nonpayable",
      "type": "function"
    },
    {
      "inputs": [],
      "name": "finalizeRandomBeaconGovernanceTransfer",
      "outputs": [],
      "stateMutability": "nonpayable",
      "type": "function"
    },
    {
      "inputs": [],
      "name": "finalizeRelayEntryHardTimeoutUpdate",
      "outputs": [],
      "stateMutability": "nonpayable",
      "type": "function"
    },
    {
      "inputs": [],
      "name": "finalizeRelayEntrySoftTimeoutUpdate",
      "outputs": [],
      "stateMutability": "nonpayable",
      "type": "function"
    },
    {
      "inputs": [],
      "name": "finalizeRelayEntrySubmissionFailureSlashingAmountUpdate",
      "outputs": [],
      "stateMutability": "nonpayable",
      "type": "function"
    },
    {
      "inputs": [],
      "name": "finalizeRelayEntrySubmissionGasOffsetUpdate",
      "outputs": [],
      "stateMutability": "nonpayable",
      "type": "function"
    },
    {
      "inputs": [],
      "name": "finalizeRelayEntryTimeoutNotificationRewardMultiplierUpdate",
      "outputs": [],
      "stateMutability": "nonpayable",
      "type": "function"
    },
    {
      "inputs": [],
      "name": "finalizeSortitionPoolRewardsBanDurationUpdate",
      "outputs": [],
      "stateMutability": "nonpayable",
      "type": "function"
    },
    {
      "inputs": [],
      "name": "finalizeUnauthorizedSigningNotificationRewardMultiplierUpdate",
      "outputs": [],
      "stateMutability": "nonpayable",
      "type": "function"
    },
    {
      "inputs": [],
      "name": "finalizeUnauthorizedSigningSlashingAmountUpdate",
      "outputs": [],
      "stateMutability": "nonpayable",
      "type": "function"
    },
    {
      "inputs": [],
      "name": "getRemainingAuthorizationDecreaseChangePeriodUpdateTime",
      "outputs": [
        {
          "internalType": "uint256",
          "name": "",
          "type": "uint256"
        }
      ],
      "stateMutability": "view",
      "type": "function"
    },
    {
      "inputs": [],
      "name": "getRemainingAuthorizationDecreaseDelayUpdateTime",
      "outputs": [
        {
          "internalType": "uint256",
          "name": "",
          "type": "uint256"
        }
      ],
      "stateMutability": "view",
      "type": "function"
    },
    {
      "inputs": [],
      "name": "getRemainingCallbackGasLimitUpdateTime",
      "outputs": [
        {
          "internalType": "uint256",
          "name": "",
          "type": "uint256"
        }
      ],
      "stateMutability": "view",
      "type": "function"
    },
    {
      "inputs": [],
      "name": "getRemainingDkgMaliciousResultNotificationRewardMultiplierUpdateTime",
      "outputs": [
        {
          "internalType": "uint256",
          "name": "",
          "type": "uint256"
        }
      ],
      "stateMutability": "view",
      "type": "function"
    },
    {
      "inputs": [],
      "name": "getRemainingDkgResultApprovalGasOffsetUpdateTime",
      "outputs": [
        {
          "internalType": "uint256",
          "name": "",
          "type": "uint256"
        }
      ],
      "stateMutability": "view",
      "type": "function"
    },
    {
      "inputs": [],
      "name": "getRemainingDkgResultChallengeExtraGasUpdateTime",
      "outputs": [
        {
          "internalType": "uint256",
          "name": "",
          "type": "uint256"
        }
      ],
      "stateMutability": "view",
      "type": "function"
    },
    {
      "inputs": [],
      "name": "getRemainingDkgResultChallengePeriodLengthUpdateTime",
      "outputs": [
        {
          "internalType": "uint256",
          "name": "",
          "type": "uint256"
        }
      ],
      "stateMutability": "view",
      "type": "function"
    },
    {
      "inputs": [],
      "name": "getRemainingDkgResultSubmissionGasUpdateTime",
      "outputs": [
        {
          "internalType": "uint256",
          "name": "",
          "type": "uint256"
        }
      ],
      "stateMutability": "view",
      "type": "function"
    },
    {
      "inputs": [],
      "name": "getRemainingDkgResultSubmissionTimeoutUpdateTime",
      "outputs": [
        {
          "internalType": "uint256",
          "name": "",
          "type": "uint256"
        }
      ],
      "stateMutability": "view",
      "type": "function"
    },
    {
      "inputs": [],
      "name": "getRemainingDkgSubmitterPrecedencePeriodLengthUpdateTime",
      "outputs": [
        {
          "internalType": "uint256",
          "name": "",
          "type": "uint256"
        }
      ],
      "stateMutability": "view",
      "type": "function"
    },
    {
      "inputs": [],
      "name": "getRemainingGovernanceDelayUpdateTime",
      "outputs": [
        {
          "internalType": "uint256",
          "name": "",
          "type": "uint256"
        }
      ],
      "stateMutability": "view",
      "type": "function"
    },
    {
      "inputs": [],
      "name": "getRemainingGroupCreationFrequencyUpdateTime",
      "outputs": [
        {
          "internalType": "uint256",
          "name": "",
          "type": "uint256"
        }
      ],
      "stateMutability": "view",
      "type": "function"
    },
    {
      "inputs": [],
      "name": "getRemainingGroupLifetimeUpdateTime",
      "outputs": [
        {
          "internalType": "uint256",
          "name": "",
          "type": "uint256"
        }
      ],
      "stateMutability": "view",
      "type": "function"
    },
    {
      "inputs": [],
      "name": "getRemainingMaliciousDkgResultSlashingAmountUpdateTime",
      "outputs": [
        {
          "internalType": "uint256",
          "name": "",
          "type": "uint256"
        }
      ],
      "stateMutability": "view",
      "type": "function"
    },
    {
      "inputs": [],
      "name": "getRemainingMimimumAuthorizationUpdateTime",
      "outputs": [
        {
          "internalType": "uint256",
          "name": "",
          "type": "uint256"
        }
      ],
      "stateMutability": "view",
      "type": "function"
    },
    {
      "inputs": [],
      "name": "getRemainingNotifyOperatorInactivityGasOffsetUpdateTime",
      "outputs": [
        {
          "internalType": "uint256",
          "name": "",
          "type": "uint256"
        }
      ],
      "stateMutability": "view",
      "type": "function"
    },
    {
      "inputs": [],
      "name": "getRemainingRandomBeaconGovernanceTransferDelayTime",
      "outputs": [
        {
          "internalType": "uint256",
          "name": "",
          "type": "uint256"
        }
      ],
      "stateMutability": "view",
      "type": "function"
    },
    {
      "inputs": [],
      "name": "getRemainingRelayEntryHardTimeoutUpdateTime",
      "outputs": [
        {
          "internalType": "uint256",
          "name": "",
          "type": "uint256"
        }
      ],
      "stateMutability": "view",
      "type": "function"
    },
    {
      "inputs": [],
      "name": "getRemainingRelayEntrySoftTimeoutUpdateTime",
      "outputs": [
        {
          "internalType": "uint256",
          "name": "",
          "type": "uint256"
        }
      ],
      "stateMutability": "view",
      "type": "function"
    },
    {
      "inputs": [],
      "name": "getRemainingRelayEntrySubmissionFailureSlashingAmountUpdateTime",
      "outputs": [
        {
          "internalType": "uint256",
          "name": "",
          "type": "uint256"
        }
      ],
      "stateMutability": "view",
      "type": "function"
    },
    {
      "inputs": [],
      "name": "getRemainingRelayEntrySubmissionGasOffsetUpdateTime",
      "outputs": [
        {
          "internalType": "uint256",
          "name": "",
          "type": "uint256"
        }
      ],
      "stateMutability": "view",
      "type": "function"
    },
    {
      "inputs": [],
      "name": "getRemainingRelayEntryTimeoutNotificationRewardMultiplierUpdateTime",
      "outputs": [
        {
          "internalType": "uint256",
          "name": "",
          "type": "uint256"
        }
      ],
      "stateMutability": "view",
      "type": "function"
    },
    {
      "inputs": [],
      "name": "getRemainingSortitionPoolRewardsBanDurationUpdateTime",
      "outputs": [
        {
          "internalType": "uint256",
          "name": "",
          "type": "uint256"
        }
      ],
      "stateMutability": "view",
      "type": "function"
    },
    {
      "inputs": [],
      "name": "getRemainingUnauthorizedSigningNotificationRewardMultiplierUpdateTime",
      "outputs": [
        {
          "internalType": "uint256",
          "name": "",
          "type": "uint256"
        }
      ],
      "stateMutability": "view",
      "type": "function"
    },
    {
      "inputs": [],
      "name": "getRemainingUnauthorizedSigningSlashingAmountUpdateTime",
      "outputs": [
        {
          "internalType": "uint256",
          "name": "",
          "type": "uint256"
        }
      ],
      "stateMutability": "view",
      "type": "function"
    },
    {
      "inputs": [],
      "name": "governanceDelay",
      "outputs": [
        {
          "internalType": "uint256",
          "name": "",
          "type": "uint256"
        }
      ],
      "stateMutability": "view",
      "type": "function"
    },
    {
      "inputs": [],
      "name": "governanceDelayChangeInitiated",
      "outputs": [
        {
          "internalType": "uint256",
          "name": "",
          "type": "uint256"
        }
      ],
      "stateMutability": "view",
      "type": "function"
    },
    {
      "inputs": [],
      "name": "groupCreationFrequencyChangeInitiated",
      "outputs": [
        {
          "internalType": "uint256",
          "name": "",
          "type": "uint256"
        }
      ],
      "stateMutability": "view",
      "type": "function"
    },
    {
      "inputs": [],
      "name": "groupLifetimeChangeInitiated",
      "outputs": [
        {
          "internalType": "uint256",
          "name": "",
          "type": "uint256"
        }
      ],
      "stateMutability": "view",
      "type": "function"
    },
    {
      "inputs": [],
      "name": "maliciousDkgResultSlashingAmountChangeInitiated",
      "outputs": [
        {
          "internalType": "uint256",
          "name": "",
          "type": "uint256"
        }
      ],
      "stateMutability": "view",
      "type": "function"
    },
    {
      "inputs": [],
      "name": "minimumAuthorizationChangeInitiated",
      "outputs": [
        {
          "internalType": "uint256",
          "name": "",
          "type": "uint256"
        }
      ],
      "stateMutability": "view",
      "type": "function"
    },
    {
      "inputs": [],
      "name": "newAuthorizationDecreaseChangePeriod",
      "outputs": [
        {
          "internalType": "uint64",
          "name": "",
          "type": "uint64"
        }
      ],
      "stateMutability": "view",
      "type": "function"
    },
    {
      "inputs": [],
      "name": "newAuthorizationDecreaseDelay",
      "outputs": [
        {
          "internalType": "uint64",
          "name": "",
          "type": "uint64"
        }
      ],
      "stateMutability": "view",
      "type": "function"
    },
    {
      "inputs": [],
      "name": "newCallbackGasLimit",
      "outputs": [
        {
          "internalType": "uint256",
          "name": "",
          "type": "uint256"
        }
      ],
      "stateMutability": "view",
      "type": "function"
    },
    {
      "inputs": [],
      "name": "newDkgMaliciousResultNotificationRewardMultiplier",
      "outputs": [
        {
          "internalType": "uint256",
          "name": "",
          "type": "uint256"
        }
      ],
      "stateMutability": "view",
      "type": "function"
    },
    {
      "inputs": [],
      "name": "newDkgResultApprovalGasOffset",
      "outputs": [
        {
          "internalType": "uint256",
          "name": "",
          "type": "uint256"
        }
      ],
      "stateMutability": "view",
      "type": "function"
    },
    {
      "inputs": [],
      "name": "newDkgResultChallengeExtraGas",
      "outputs": [
        {
          "internalType": "uint256",
          "name": "",
          "type": "uint256"
        }
      ],
      "stateMutability": "view",
      "type": "function"
    },
    {
      "inputs": [],
      "name": "newDkgResultChallengePeriodLength",
      "outputs": [
        {
          "internalType": "uint256",
          "name": "",
          "type": "uint256"
        }
      ],
      "stateMutability": "view",
      "type": "function"
    },
    {
      "inputs": [],
      "name": "newDkgResultSubmissionGas",
      "outputs": [
        {
          "internalType": "uint256",
          "name": "",
          "type": "uint256"
        }
      ],
      "stateMutability": "view",
      "type": "function"
    },
    {
      "inputs": [],
      "name": "newDkgResultSubmissionTimeout",
      "outputs": [
        {
          "internalType": "uint256",
          "name": "",
          "type": "uint256"
        }
      ],
      "stateMutability": "view",
      "type": "function"
    },
    {
      "inputs": [],
      "name": "newDkgSubmitterPrecedencePeriodLength",
      "outputs": [
        {
          "internalType": "uint256",
          "name": "",
          "type": "uint256"
        }
      ],
      "stateMutability": "view",
      "type": "function"
    },
    {
      "inputs": [],
      "name": "newGovernanceDelay",
      "outputs": [
        {
          "internalType": "uint256",
          "name": "",
          "type": "uint256"
        }
      ],
      "stateMutability": "view",
      "type": "function"
    },
    {
      "inputs": [],
      "name": "newGroupCreationFrequency",
      "outputs": [
        {
          "internalType": "uint256",
          "name": "",
          "type": "uint256"
        }
      ],
      "stateMutability": "view",
      "type": "function"
    },
    {
      "inputs": [],
      "name": "newGroupLifetime",
      "outputs": [
        {
          "internalType": "uint256",
          "name": "",
          "type": "uint256"
        }
      ],
      "stateMutability": "view",
      "type": "function"
    },
    {
      "inputs": [],
      "name": "newMaliciousDkgResultSlashingAmount",
      "outputs": [
        {
          "internalType": "uint96",
          "name": "",
          "type": "uint96"
        }
      ],
      "stateMutability": "view",
      "type": "function"
    },
    {
      "inputs": [],
      "name": "newMinimumAuthorization",
      "outputs": [
        {
          "internalType": "uint96",
          "name": "",
          "type": "uint96"
        }
      ],
      "stateMutability": "view",
      "type": "function"
    },
    {
      "inputs": [],
      "name": "newNotifyOperatorInactivityGasOffset",
      "outputs": [
        {
          "internalType": "uint256",
          "name": "",
          "type": "uint256"
        }
      ],
      "stateMutability": "view",
      "type": "function"
    },
    {
      "inputs": [],
      "name": "newRandomBeaconGovernance",
      "outputs": [
        {
          "internalType": "address",
          "name": "",
          "type": "address"
        }
      ],
      "stateMutability": "view",
      "type": "function"
    },
    {
      "inputs": [],
      "name": "newRelayEntryHardTimeout",
      "outputs": [
        {
          "internalType": "uint256",
          "name": "",
          "type": "uint256"
        }
      ],
      "stateMutability": "view",
      "type": "function"
    },
    {
      "inputs": [],
      "name": "newRelayEntrySoftTimeout",
      "outputs": [
        {
          "internalType": "uint256",
          "name": "",
          "type": "uint256"
        }
      ],
      "stateMutability": "view",
      "type": "function"
    },
    {
      "inputs": [],
      "name": "newRelayEntrySubmissionFailureSlashingAmount",
      "outputs": [
        {
          "internalType": "uint96",
          "name": "",
          "type": "uint96"
        }
      ],
      "stateMutability": "view",
      "type": "function"
    },
    {
      "inputs": [],
      "name": "newRelayEntrySubmissionGasOffset",
      "outputs": [
        {
          "internalType": "uint256",
          "name": "",
          "type": "uint256"
        }
      ],
      "stateMutability": "view",
      "type": "function"
    },
    {
      "inputs": [],
      "name": "newRelayEntryTimeoutNotificationRewardMultiplier",
      "outputs": [
        {
          "internalType": "uint256",
          "name": "",
          "type": "uint256"
        }
      ],
      "stateMutability": "view",
      "type": "function"
    },
    {
      "inputs": [],
      "name": "newSortitionPoolRewardsBanDuration",
      "outputs": [
        {
          "internalType": "uint256",
          "name": "",
          "type": "uint256"
        }
      ],
      "stateMutability": "view",
      "type": "function"
    },
    {
      "inputs": [],
      "name": "newUnauthorizedSigningNotificationRewardMultiplier",
      "outputs": [
        {
          "internalType": "uint256",
          "name": "",
          "type": "uint256"
        }
      ],
      "stateMutability": "view",
      "type": "function"
    },
    {
      "inputs": [],
      "name": "newUnauthorizedSigningSlashingAmount",
      "outputs": [
        {
          "internalType": "uint96",
          "name": "",
          "type": "uint96"
        }
      ],
      "stateMutability": "view",
      "type": "function"
    },
    {
      "inputs": [],
      "name": "notifyOperatorInactivityGasOffsetChangeInitiated",
      "outputs": [
        {
          "internalType": "uint256",
          "name": "",
          "type": "uint256"
        }
      ],
      "stateMutability": "view",
      "type": "function"
    },
    {
      "inputs": [],
      "name": "owner",
      "outputs": [
        {
          "internalType": "address",
          "name": "",
          "type": "address"
        }
      ],
      "stateMutability": "view",
      "type": "function"
    },
    {
      "inputs": [],
      "name": "randomBeacon",
      "outputs": [
        {
          "internalType": "contract RandomBeacon",
          "name": "",
          "type": "address"
        }
      ],
      "stateMutability": "view",
      "type": "function"
    },
    {
      "inputs": [],
      "name": "randomBeaconGovernanceTransferInitiated",
      "outputs": [
        {
          "internalType": "uint256",
          "name": "",
          "type": "uint256"
        }
      ],
      "stateMutability": "view",
      "type": "function"
    },
    {
      "inputs": [],
      "name": "relayEntryHardTimeoutChangeInitiated",
      "outputs": [
        {
          "internalType": "uint256",
          "name": "",
          "type": "uint256"
        }
      ],
      "stateMutability": "view",
      "type": "function"
    },
    {
      "inputs": [],
      "name": "relayEntrySoftTimeoutChangeInitiated",
      "outputs": [
        {
          "internalType": "uint256",
          "name": "",
          "type": "uint256"
        }
      ],
      "stateMutability": "view",
      "type": "function"
    },
    {
      "inputs": [],
      "name": "relayEntrySubmissionFailureSlashingAmountChangeInitiated",
      "outputs": [
        {
          "internalType": "uint256",
          "name": "",
          "type": "uint256"
        }
      ],
      "stateMutability": "view",
      "type": "function"
    },
    {
      "inputs": [],
      "name": "relayEntrySubmissionGasOffsetChangeInitiated",
      "outputs": [
        {
          "internalType": "uint256",
          "name": "",
          "type": "uint256"
        }
      ],
      "stateMutability": "view",
      "type": "function"
    },
    {
      "inputs": [],
      "name": "relayEntryTimeoutNotificationRewardMultiplierChangeInitiated",
      "outputs": [
        {
          "internalType": "uint256",
          "name": "",
          "type": "uint256"
        }
      ],
      "stateMutability": "view",
      "type": "function"
    },
    {
      "inputs": [],
      "name": "renounceOwnership",
      "outputs": [],
      "stateMutability": "nonpayable",
      "type": "function"
    },
    {
      "inputs": [
        {
          "internalType": "address",
          "name": "requester",
          "type": "address"
        },
        {
          "internalType": "bool",
          "name": "isAuthorized",
          "type": "bool"
        }
      ],
      "name": "setRequesterAuthorization",
      "outputs": [],
      "stateMutability": "nonpayable",
      "type": "function"
    },
    {
      "inputs": [],
      "name": "sortitionPoolRewardsBanDurationChangeInitiated",
      "outputs": [
        {
          "internalType": "uint256",
          "name": "",
          "type": "uint256"
        }
      ],
      "stateMutability": "view",
      "type": "function"
    },
    {
      "inputs": [
        {
          "internalType": "address",
          "name": "newOwner",
          "type": "address"
        }
      ],
      "name": "transferOwnership",
      "outputs": [],
      "stateMutability": "nonpayable",
      "type": "function"
    },
    {
      "inputs": [],
      "name": "unauthorizedSigningNotificationRewardMultiplierChangeInitiated",
      "outputs": [
        {
          "internalType": "uint256",
          "name": "",
          "type": "uint256"
        }
      ],
      "stateMutability": "view",
      "type": "function"
    },
    {
      "inputs": [],
      "name": "unauthorizedSigningSlashingAmountChangeInitiated",
      "outputs": [
        {
          "internalType": "uint256",
          "name": "",
          "type": "uint256"
        }
      ],
      "stateMutability": "view",
      "type": "function"
    },
    {
      "inputs": [
        {
          "internalType": "address",
          "name": "recipient",
          "type": "address"
        }
      ],
      "name": "withdrawIneligibleRewards",
      "outputs": [],
      "stateMutability": "nonpayable",
      "type": "function"
    }
  ],
  "transactionHash": "0xebbcfe0907a0c7c3251bdc2f041396b67cea48d7458d1cba00550d2b43c7ded0",
  "args": [
    "0x5499f54b4A1CB4816eefCf78962040461be3D80b",
    604800
  ],
  "numDeployments": 1,
  "solcInputHash": "315dd8aa56418c14cbdc8d65adaa494b",
  "bytecode": "0x60a06040523480156200001157600080fd5b5060405162004efa38038062004efa833981016040819052620000349162000154565b6200003f3362000104565b6001600160a01b0382166200009b5760405162461bcd60e51b815260206004820152601660248201527f5a65726f2d61646472657373207265666572656e63650000000000000000000060448201526064015b60405180910390fd5b80600003620000ed5760405162461bcd60e51b815260206004820152601360248201527f4e6f20676f7665726e616e63652064656c617900000000000000000000000000604482015260640162000092565b6001600160a01b0390911660805260335562000190565b600080546001600160a01b038381166001600160a01b0319831681178455604051919092169283917f8be0079c531659141344cd1fd0a4f28419497f9722a3daafe3b4186f6b6457e09190a35050565b600080604083850312156200016857600080fd5b82516001600160a01b03811681146200018057600080fd5b6020939093015192949293505050565b608051614bf7620003036000396000818161080501528181610eba01528181610f7a015281816110a10152818161114f0152818161136c0152818161143f0152818161154801528181611607015281816118ac0152818161196101528181611acb01528181611b9f01528181611eb101528181611f6901528181612073015281816121cb015281816122a0015281816123c001528181612479015281816125880152818161264001528181612802015281816128c1015281816129d601528181612aa801528181612c6301528181612d2201528181612e2e01528181612f510152818161301101528181613126015281816131d4015281816132ef015281816133a6015281816135dc015281816136950152818161387f0152818161395201528181613a7801528181613c1a01528181613cda01528181613f5001528181614010015281816141770152818161422f0152818161434801528181614400015281816145bb015261468f0152614bf76000f3fe608060405234801561001057600080fd5b50600436106107bb5760003560e01c80638b63cc22116103f5578063af21b29011610215578063d24521aa11610130578063e731cc53116100c3578063ee8e6e5e11610092578063ee8e6e5e14610dd5578063f0bb6ce814610dde578063f2fde38b14610de6578063fb5ccedc14610df9578063fe3bb37014610e0257600080fd5b8063e731cc5314610da9578063e79b8c4614610db1578063e8507b0614610dba578063ec9d1d9614610dcd57600080fd5b8063dde37ab8116100ff578063dde37ab814610d88578063de0ce4c914610d90578063df5ee8f614610d98578063e259b55114610da157600080fd5b8063d24521aa14610d67578063d31121de14610d6f578063d57da0b814610d77578063dbc439c714610d7f57600080fd5b8063c17a1471116101a8578063cb1ec15311610177578063cb1ec15314610d3a578063ccc5488a14610d43578063cdfaeb9814610d4b578063ce123d2814610d5457600080fd5b8063c17a147114610d03578063c1b2ba9714610d16578063c268650e14610d1f578063c97e8feb14610d3257600080fd5b8063ba5c9e7e116101e4578063ba5c9e7e14610ccc578063bba3293914610cd4578063bcc5d20414610cdd578063c16d606f14610cf057600080fd5b8063af21b29014610c94578063b0ed20bb14610c9d578063b1fae48b14610cb0578063b392e3be14610cb957600080fd5b80639de6bc9d11610310578063a72aedae116102a3578063ac21f57c11610272578063ac21f57c14610c5f578063aceb164814610c72578063ae1a332514610c7b578063ae98cbf014610c83578063aea6933914610c8c57600080fd5b8063a72aedae14610c29578063a7b9a7a014610c3c578063a955b3f314610c44578063a9b32c3d14610c5757600080fd5b8063a01bc828116102df578063a01bc82814610bfd578063a0a94bbb14610c05578063a5b9ab4d14610c0d578063a6d025f114610c1657600080fd5b80639de6bc9d14610bd05780639ec67b3114610bd85780639f40edf014610bec5780639fc3da9614610bf557600080fd5b8063914f512f11610388578063985e648711610357578063985e648714610ba55780639949d70e14610bb85780639b849b9214610bc05780639cde7da914610bc857600080fd5b8063914f512f14610b6e57806395ba105d14610b7657806396fd955e14610b7f5780639810f32714610b9257600080fd5b80638d2e0c3c116103c45780638d2e0c3c14610b395780638da5cb5b14610b425780638e0442f814610b53578063914adf8f14610b6657600080fd5b80638b63cc2214610b0e5780638bc32f3314610b215780638c5f0d6714610b295780638cdb432914610b3157600080fd5b80634885b171116105e057806364e32d74116104fb578063785180e71161048e57806382e70cb81161045d57806382e70cb814610ae4578063863b45a414610aec5780638837037714610af5578063894ee96814610afe5780638a4f77ef14610b0657600080fd5b8063785180e714610ab8578063798f022314610acb5780637ab18adf14610ad35780637b81ef5214610adc57600080fd5b8063692be745116104ca578063692be74514610a95578063715018a614610a9e578063765a783214610aa657806377bf781414610aaf57600080fd5b806364e32d7414610a54578063660f903114610a5c578063663032cd14610a6f5780636795afe614610a8257600080fd5b8063542ced771161057357806361038b911161054257806361038b9114610a2857806361d4b5ef14610a3157806362c78d0914610a39578063648392ac14610a4157600080fd5b8063542ced77146109f15780635b6bd01714610a045780635c07405614610a0c5780635f735a1014610a1f57600080fd5b80634ca107cc116105af5780634ca107cc146109c45780634cf11abc146109cd5780634ed05ade146109d557806352f1bf14146109de57600080fd5b80634885b17114610996578063488a4b261461099f578063495cb121146109a85780634b928642146109bb57600080fd5b80632d318efc116106db578063363388331161066e5780633bf8a5381161063d5780633bf8a5381461093d5780633edf74e71461096a578063412bd7b41461097d578063429cdaa814610985578063481d021f1461098e57600080fd5b8063363388331461091057806337f547901461091957806337fa5d51146109215780633b7b1b081461093457600080fd5b80632ff8aa33116106aa5780632ff8aa33146108e357806333a17f98146108f6578063345cdef5146108fe5780633611f0021461090757600080fd5b80632d318efc146108c15780632d340433146108c95780632f006f4e146108d25780632f505f1f146108db57600080fd5b80631937c64711610753578063209e80ea11610722578063209e80ea14610895578063260b5a85146108a857806326825a9d146108b15780632b702150146108b957600080fd5b80631937c6471461087257806319f1103f1461087a5780631e44a72c146108835780631ff566c71461088c57600080fd5b8063152ba58f1161078f578063152ba58f146107f8578063153622b314610800578063154028f41461083f5780631722dd291461086a57600080fd5b80626b050c146107c0578063040215af146107dc57806306201e1c146107e557806314385adb146107ef575b600080fd5b6107c960315481565b6040519081526020015b60405180910390f35b6107c9600c5481565b6107ed610e15565b005b6107c960205481565b6107c9610ff9565b6108277f000000000000000000000000000000000000000000000000000000000000000081565b6040516001600160a01b0390911681526020016107d3565b601b54610852906001600160601b031681565b6040516001600160601b0390911681526020016107d3565b6107ed61100b565b6107c96111c2565b6107c9601e5481565b6107c960085481565b6107c960025481565b6107ed6108a33660046148db565b6111cf565b6107c960225481565b6107ed611220565b6107c96112c4565b6107ed6112d1565b6107c9600d5481565b6107c960105481565b6107ed6114ad565b6107ed6108f13660046148db565b611686565b6107c96116f0565b6107c9602f5481565b6107c960135481565b6107c960165481565b6107c96116fd565b6107ed61092f3660046148db565b61170a565b6107c960155481565b6025546109519067ffffffffffffffff1681565b60405167ffffffffffffffff90911681526020016107d3565b6107ed6109783660046148db565b611754565b6107c9611809565b6107c9600f5481565b6107ed611816565b6107c960095481565b6107c960285481565b6107ed6109b6366004614909565b6119cd565b6107c960215481565b6107c960265481565b6107ed611a30565b6107c960185481565b6107ed6109ec3660046148db565b611c0d565b6107ed6109ff3660046148db565b611cb3565b6107c9611cfd565b6107ed610a1a3660046148db565b611d0a565b6107c9602d5481565b6107c960305481565b6107c9611db2565b6107c9611dbf565b6107ed610a4f3660046148db565b611dcc565b6107ed611e16565b6107ed610a6a36600461493c565b611fe7565b6107ed610a7d366004614975565b61204c565b6107ed610a903660046148db565b6120d2565b6107c9601d5481565b6107ed61211c565b6107c960075481565b6107c960295481565b601954610852906001600160601b031681565b6107ed612130565b6107c9601a5481565b6107c961230e565b6107c961231b565b6107c960065481565b6107c960245481565b6107ed612328565b6107ed6124ed565b6107ed610b1c3660046148db565b6126be565b6107ed61276a565b6107c961292e565b6107ed61293b565b6107c9600a5481565b6000546001600160a01b0316610827565b6107ed610b613660046148db565b612b17565b6107ed612bcb565b6107c9612d8f565b6107c960015481565b602354610852906001600160601b031681565b6107ed610ba0366004614909565b612d9c565b6107ed610bb3366004614990565b612dff565b6107c9612e8e565b6107c9612e9b565b6107c9612ea8565b6107ed612eb5565b6027546109519067ffffffffffffffff1681565b6107c9601c5481565b6107ed613090565b6107c9613247565b6107ed613254565b6107c960145481565b6107ed610c243660046148db565b613425565b6107ed610c37366004614975565b61346f565b6107ed613544565b6107ed610c523660046148db565b613709565b6107c9613774565b6107ed610c6d366004614909565b613781565b6107c960045481565b6107ed6137e4565b6107c960055481565b6107ed6139c0565b6107c9602a5481565b6107ed610cab3660046148db565b613aee565b6107c9602c5481565b6107ed610cc73660046148db565b613b38565b6107ed613b82565b6107c960335481565b601754610852906001600160601b031681565b6107ed610cfe3660046148db565b613d46565b600354610827906001600160a01b031681565b6107c9602e5481565b6107ed610d2d3660046148db565b613e05565b6107c9613eab565b6107c9601f5481565b6107ed613eb8565b6107c9602b5481565b6107ed610d62366004614909565b61407c565b6107ed6140df565b6107c96142a3565b6107ed6142b0565b6107c960115481565b6107c9614474565b6107c9614481565b6107c960125481565b6107c961448e565b6107c961449b565b6107c9600e5481565b6107ed610dc83660046148db565b6144a8565b6107c9614513565b6107c9600b5481565b6107ed614520565b6107ed610df4366004614975565b6146fd565b6107c960325481565b6107ed610e1036600461493c565b614776565b610e1d6147db565b60285460008111610e495760405162461bcd60e51b8152600401610e40906149cc565b60405180910390fd5b603354610e5682426149fa565b1015610e745760405162461bcd60e51b8152600401610e4090614a21565b60275460405167ffffffffffffffff90911681527f6a7551372930a2bc4aec844a266609ca90cf9b805f875e92680e901b43d5273f9060200160405180910390a16000807f00000000000000000000000000000000000000000000000000000000000000006001600160a01b0316637b14729e6040518163ffffffff1660e01b8152600401606060405180830381865afa158015610f16573d6000803e3d6000fd5b505050506040513d601f19601f82011682018060405250810190610f3a9190614a56565b506027546040516301409c5360e71b81526001600160601b038416600482015267ffffffffffffffff8084166024830152909116604482015291935091507f00000000000000000000000000000000000000000000000000000000000000006001600160a01b03169063a04e298090606401600060405180830381600087803b158015610fc657600080fd5b505af1158015610fda573d6000803e3d6000fd5b5050600060285550506027805467ffffffffffffffff19169055505050565b6000611006601454614835565b905090565b6110136147db565b600854600081116110365760405162461bcd60e51b8152600401610e40906149cc565b60335461104382426149fa565b10156110615760405162461bcd60e51b8152600401610e4090614a21565b7f1aa56185678cf82df5663d3bf97731024fc6da8f9ab832de58fe6411bb7aacad60075460405161109491815260200190565b60405180910390a16000807f00000000000000000000000000000000000000000000000000000000000000006001600160a01b03166374024ab76040518163ffffffff1660e01b8152600401606060405180830381865afa1580156110fd573d6000803e3d6000fd5b505050506040513d601f19601f820116820180604052508101906111219190614aa3565b600754604051639a7d093560e01b8152600481018590526024810191909152604481018290529294509250507f00000000000000000000000000000000000000000000000000000000000000006001600160a01b031690639a7d093590606401600060405180830381600087803b15801561119b57600080fd5b505af11580156111af573d6000803e3d6000fd5b5050600060088190556007555050505050565b6000611006600654614835565b6111d76147db565b601d81905542601e8190556040805183815260208101929092527f523803e7f157ab532da5ae1e1d19b71f16b18376cf65a301ef8e3f07076d6bfd91015b60405180910390a150565b6112286147db565b6002546000811161124b5760405162461bcd60e51b8152600401610e40906149cc565b60335461125882426149fa565b10156112765760405162461bcd60e51b8152600401610e4090614a21565b7f657e578b1ed229f1e01ab5ce4700399f19ddd24b09b071ab9e72122f18aa72976001546040516112a991815260200190565b60405180910390a15060018054603355600060028190559055565b6000611006601054614835565b6112d96147db565b600e54600081116112fc5760405162461bcd60e51b8152600401610e40906149cc565b60335461130982426149fa565b10156113275760405162461bcd60e51b8152600401610e4090614a21565b7fc2b1fc49f84728c2be30441ba73a73fe63ff40017b462dca6045e8b5933dfd97600d5460405161135a91815260200190565b60405180910390a160008060008060007f00000000000000000000000000000000000000000000000000000000000000006001600160a01b031663b142f85c6040518163ffffffff1660e01b815260040160c060405180830381865afa1580156113c8573d6000803e3d6000fd5b505050506040513d601f19601f820116820180604052508101906113ec9190614ad1565b600d546040516377a5a7bd60e01b815260048101889052602481019190915260448101859052606481018490526084810183905260a48101829052959a5092985090965094509250506001600160a01b037f000000000000000000000000000000000000000000000000000000000000000016906377a5a7bd9060c401600060405180830381600087803b15801561148357600080fd5b505af1158015611497573d6000803e3d6000fd5b50506000600e819055600d555050505050505050565b6114b56147db565b602454600081116114d85760405162461bcd60e51b8152600401610e40906149cc565b6033546114e582426149fa565b10156115035760405162461bcd60e51b8152600401610e4090614a21565b6023546040516001600160601b0390911681527fca5de5c00e5da52e22f64b23ecfa308e487441bcbd0f4b84657799102e3ee3719060200160405180910390a16000807f00000000000000000000000000000000000000000000000000000000000000006001600160a01b0316637b14729e6040518163ffffffff1660e01b8152600401606060405180830381865afa1580156115a4573d6000803e3d6000fd5b505050506040513d601f19601f820116820180604052508101906115c89190614a56565b6023546040516301409c5360e71b81526001600160601b03909116600482015267ffffffffffffffff80841660248301528216604482015291945092507f00000000000000000000000000000000000000000000000000000000000000006001600160a01b0316915063a04e298090606401600060405180830381600087803b15801561165457600080fd5b505af1158015611668573d6000803e3d6000fd5b505060006024555050602380546001600160601b0319169055505050565b61168e6147db565b60648111156116af5760405162461bcd60e51b8152600401610e4090614b1b565b601f81905542602081815560408051848152918201929092527f236b3b5a701c1727d0ddd01db13475e0da9be45561decb6f0d3d958c18e09e8b9101611215565b6000611006603254614835565b6000611006602054614835565b6117126147db565b60018190554260028190556040805183815260208101929092527f1ed485551399b30c188ed4d426c6c62d7b703b9fec6b486c70a3fe616c2707c89101611215565b61175c6147db565b600081116117c75760405162461bcd60e51b815260206004820152603260248201527f444b47207375626d697474657220707265636564656e636520706572696f642060448201527106c656e677468206d757374206265203e20360741b6064820152608401610e40565b60158190554260168190556040805183815260208101929092527f69f992e32ba993676818a20dfe808b5d41e0db4bdd3a52917701443500a423ca9101611215565b6000611006602c54614835565b61181e6147db565b600654600081116118415760405162461bcd60e51b8152600401610e40906149cc565b60335461184e82426149fa565b101561186c5760405162461bcd60e51b8152600401610e4090614a21565b7f63db42a2e13b78bf39d9f3c14718c3c925ccdf3e30a0477d5a7626914164620260055460405161189f91815260200190565b60405180910390a16000807f00000000000000000000000000000000000000000000000000000000000000006001600160a01b03166374024ab76040518163ffffffff1660e01b8152600401606060405180830381865afa158015611908573d6000803e3d6000fd5b505050506040513d601f19601f8201168201806040525081019061192c9190614aa3565b600554604051639a7d093560e01b81526004810191909152602481018390526044810182905291945092506001600160a01b037f0000000000000000000000000000000000000000000000000000000000000000169150639a7d093590606401600060405180830381600087803b1580156119a657600080fd5b505af11580156119ba573d6000803e3d6000fd5b5050600060068190556005555050505050565b6119d56147db565b601980546001600160601b0319166001600160601b03831690811790915542601a8190556040805192835260208301919091527f8087387fa6bcbf89a9e273adcf21735f21e89ae8024417df321d8ccc106123089101611215565b611a386147db565b60105460008111611a5b5760405162461bcd60e51b8152600401610e40906149cc565b603354611a6882426149fa565b1015611a865760405162461bcd60e51b8152600401610e4090614a21565b7f54eb240e49fe7d2dc26863f9a2682d5834812e39417dbac77797c3b01b97395c600f54604051611ab991815260200190565b60405180910390a160008060008060007f00000000000000000000000000000000000000000000000000000000000000006001600160a01b031663b142f85c6040518163ffffffff1660e01b815260040160c060405180830381865afa158015611b27573d6000803e3d6000fd5b505050506040513d601f19601f82011682018060405250810190611b4b9190614ad1565b600f546040516377a5a7bd60e01b815260048101889052602481018790526044810191909152606481018490526084810183905260a48101829052959a509398509096509450909250506001600160a01b037f000000000000000000000000000000000000000000000000000000000000000016906377a5a7bd9060c401600060405180830381600087803b158015611be357600080fd5b505af1158015611bf7573d6000803e3d6000fd5b505060006010819055600f555050505050505050565b611c156147db565b60008111611c715760405162461bcd60e51b8152602060048201526024808201527f47726f7570206372656174696f6e206672657175656e6379206d7573742062656044820152630203e20360e41b6064820152608401610e40565b600b81905542600c8190556040805183815260208101929092527f9356f2202b7c2dd20837653ce617753f36c435d28464b7f8c4c4c174acecec3d9101611215565b611cbb6147db565b602b81905542602c8190556040805183815260208101929092527fe7f67ed355ceb941da1b6600c508f5493967c944c9fee75936aaa986b9e0344c9101611215565b6000611006601e54614835565b611d126147db565b60008111611d705760405162461bcd60e51b815260206004820152602560248201527f47726f7570206c69666574696d65206d75737420626520677265617465722074604482015264068616e20360dc1b6064820152608401610e40565b600d81905542600e8190556040805183815260208101929092527f2061f522ba42a34f2907b875dca3bf5f0d999cacbbb635e894ee3c5792727e649101611215565b6000611006602854614835565b6000611006600854614835565b611dd46147db565b602f8190554260308190556040805183815260208101929092527f6ff3903999be3f8c1262f638998917b6d6c6f8097cb7cb9e60edaa1a5f2a66719101611215565b611e1e6147db565b601c5460008111611e415760405162461bcd60e51b8152600401610e40906149cc565b603354611e4e82426149fa565b1015611e6c5760405162461bcd60e51b8152600401610e4090614a21565b601b546040516001600160601b0390911681527f13f3e65295154bda4919d5f46898c2284edbf9283ee94654515cec984e767c809060200160405180910390a16000807f00000000000000000000000000000000000000000000000000000000000000006001600160a01b0316631d35fa636040518163ffffffff1660e01b8152600401606060405180830381865afa158015611f0d573d6000803e3d6000fd5b505050506040513d601f19601f82011682018060405250810190611f319190614b49565b50601b54604051630519e99160e01b81526001600160601b0380851660048301528084166024830152909116604482015291935091507f00000000000000000000000000000000000000000000000000000000000000006001600160a01b031690630519e99190606401600060405180830381600087803b158015611fb557600080fd5b505af1158015611fc9573d6000803e3d6000fd5b50506000601c555050601b80546001600160601b0319169055505050565b611fef6147db565b6027805467ffffffffffffffff191667ffffffffffffffff83169081179091554260288190556040805192835260208301919091527f979c18cc9822195c2af34f89e0713a14edbd9713b32932c60471951cc1fa02db9101611215565b6120546147db565b60405163663032cd60e01b81526001600160a01b0382811660048301527f0000000000000000000000000000000000000000000000000000000000000000169063663032cd90602401600060405180830381600087803b1580156120b757600080fd5b505af11580156120cb573d6000803e3d6000fd5b5050505050565b6120da6147db565b60118190554260128190556040805183815260208101929092527fff34014c09b30234094b14f309369c4b204ab5f24daa98f6922ac40a04768bf09101611215565b6121246147db565b61212e600061488b565b565b6121386147db565b6012546000811161215b5760405162461bcd60e51b8152600401610e40906149cc565b60335461216882426149fa565b10156121865760405162461bcd60e51b8152600401610e4090614a21565b7ffc489bb20492c4590e5a1edb8e096301dd7e9c24843a5af9221ddafff010f0f06011546040516121b991815260200190565b60405180910390a160008060008060007f00000000000000000000000000000000000000000000000000000000000000006001600160a01b031663b142f85c6040518163ffffffff1660e01b815260040160c060405180830381865afa158015612227573d6000803e3d6000fd5b505050506040513d601f19601f8201168201806040525081019061224b9190614ad1565b6011546040516377a5a7bd60e01b815260048101889052602481018790526044810186905260648101919091526084810183905260a48101829052959a50939850919650909450909250506001600160a01b037f000000000000000000000000000000000000000000000000000000000000000016906377a5a7bd9060c401600060405180830381600087803b1580156122e457600080fd5b505af11580156122f8573d6000803e3d6000fd5b5050600060128190556011555050505050505050565b6000611006602454614835565b6000611006602654614835565b6123306147db565b603054600081116123535760405162461bcd60e51b8152600401610e40906149cc565b60335461236082426149fa565b101561237e5760405162461bcd60e51b8152600401610e4090614a21565b7fc02f8fddd9d337adf38d4f97d3ab8c91b69075b48db9bc25c461b0d02c3d4092602f546040516123b191815260200190565b60405180910390a160008060007f00000000000000000000000000000000000000000000000000000000000000006001600160a01b03166388a595906040518163ffffffff1660e01b8152600401608060405180830381865afa15801561241c573d6000803e3d6000fd5b505050506040513d601f19601f820116820180604052508101906124409190614b8b565b602f54604051635868086b60e11b81526004810186905260248101859052604481019190915260648101829052939650919450909250507f00000000000000000000000000000000000000000000000000000000000000006001600160a01b03169063b0d010d690608401600060405180830381600087803b1580156124c557600080fd5b505af11580156124d9573d6000803e3d6000fd5b505060006030819055602f55505050505050565b6124f56147db565b601a54600081116125185760405162461bcd60e51b8152600401610e40906149cc565b60335461252582426149fa565b10156125435760405162461bcd60e51b8152600401610e4090614a21565b6019546040516001600160601b0390911681527fe1adae42a74e6bb380e06f34e96abe3134e824a1a152a8e6a7458be153404d179060200160405180910390a16000807f00000000000000000000000000000000000000000000000000000000000000006001600160a01b0316631d35fa636040518163ffffffff1660e01b8152600401606060405180830381865afa1580156125e4573d6000803e3d6000fd5b505050506040513d601f19601f820116820180604052508101906126089190614b49565b601954604051630519e99160e01b81526001600160601b038086166004830152918216602482015290821660448201529294509250507f00000000000000000000000000000000000000000000000000000000000000006001600160a01b031690630519e99190606401600060405180830381600087803b15801561268c57600080fd5b505af11580156126a0573d6000803e3d6000fd5b50506000601a555050601980546001600160601b0319169055505050565b6126c66147db565b600081116127285760405162461bcd60e51b815260206004820152602960248201527f444b4720726573756c74207375626d697373696f6e2074696d656f7574206d7560448201526807374206265203e20360bc1b6064820152608401610e40565b60138190554260148190556040805183815260208101929092527f77bd6dceb389516c704e337d2e53bab8397e3fd1de7e3b852090742804ba13b49101611215565b6127726147db565b602c54600081116127955760405162461bcd60e51b8152600401610e40906149cc565b6033546127a282426149fa565b10156127c05760405162461bcd60e51b8152600401610e4090614a21565b7ff71bf0b76dcaef665875c3a1d4959efda6ea75c7171f5fae1bd305f7c8509283602b546040516127f391815260200190565b60405180910390a160008060007f00000000000000000000000000000000000000000000000000000000000000006001600160a01b03166388a595906040518163ffffffff1660e01b8152600401608060405180830381865afa15801561285e573d6000803e3d6000fd5b505050506040513d601f19601f820116820180604052508101906128829190614b8b565b602b54604051635868086b60e11b8152600481019190915260248101849052604481018390526064810182905292965090945092506001600160a01b037f000000000000000000000000000000000000000000000000000000000000000016915063b0d010d690608401600060405180830381600087803b15801561290657600080fd5b505af115801561291a573d6000803e3d6000fd5b50506000602c819055602b55505050505050565b6000611006601854614835565b6129436147db565b600c54600081116129665760405162461bcd60e51b8152600401610e40906149cc565b60335461297382426149fa565b10156129915760405162461bcd60e51b8152600401610e4090614a21565b7fe3daa3940e1269d029800f83e889021793ccd69dd79a7152b9171a3071eb45a3600b546040516129c491815260200190565b60405180910390a160008060008060007f00000000000000000000000000000000000000000000000000000000000000006001600160a01b031663b142f85c6040518163ffffffff1660e01b815260040160c060405180830381865afa158015612a32573d6000803e3d6000fd5b505050506040513d601f19601f82011682018060405250810190612a569190614ad1565b600b546040516377a5a7bd60e01b815260048101919091526024810186905260448101859052606481018490526084810183905260a48101829052949a50929850909650945092506001600160a01b037f00000000000000000000000000000000000000000000000000000000000000001691506377a5a7bd9060c401600060405180830381600087803b158015612aed57600080fd5b505af1158015612b01573d6000803e3d6000fd5b50506000600c819055600b555050505050505050565b612b1f6147db565b600a811015612b895760405162461bcd60e51b815260206004820152603060248201527f444b4720726573756c74206368616c6c656e676520706572696f64206c656e6760448201526f07468206d757374206265203e3d2031360841b6064820152608401610e40565b600f8190554260108190556040805183815260208101929092527f4bc54f06db7242d34e1d1cdd7b4b33807a8210c54fc440ba45e6e5ffa04e083d9101611215565b612bd36147db565b601e5460008111612bf65760405162461bcd60e51b8152600401610e40906149cc565b603354612c0382426149fa565b1015612c215760405162461bcd60e51b8152600401610e4090614a21565b7f0945b46b311d9dd20cdadf139b3449fe2e50026e619f33cabedbd7461c429076601d54604051612c5491815260200190565b60405180910390a160008060007f00000000000000000000000000000000000000000000000000000000000000006001600160a01b031663529023016040518163ffffffff1660e01b8152600401608060405180830381865afa158015612cbf573d6000803e3d6000fd5b505050506040513d601f19601f82011682018060405250810190612ce39190614b8b565b601d54604051630ce591ab60e21b8152600481019190915260248101849052604481018390526064810182905292965090945092506001600160a01b037f000000000000000000000000000000000000000000000000000000000000000016915063339646ac90608401600060405180830381600087803b158015612d6757600080fd5b505af1158015612d7b573d6000803e3d6000fd5b50506000601e819055601d55505050505050565b6000611006602a54614835565b612da46147db565b601b80546001600160601b0319166001600160601b03831690811790915542601c8190556040805192835260208301919091527f060327865259e01939f90eed5ad911c6e0509663b7671bccd0f6382f56aba4d39101611215565b612e076147db565b60405163985e648760e01b81526001600160a01b03838116600483015282151560248301527f0000000000000000000000000000000000000000000000000000000000000000169063985e648790604401600060405180830381600087803b158015612e7257600080fd5b505af1158015612e86573d6000803e3d6000fd5b505050505050565b6000611006601a54614835565b6000611006600c54614835565b6000611006601254614835565b612ebd6147db565b60265460008111612ee05760405162461bcd60e51b8152600401610e40906149cc565b603354612eed82426149fa565b1015612f0b5760405162461bcd60e51b8152600401610e4090614a21565b60255460405167ffffffffffffffff90911681527fcc354ece588e8fa730a65a72ebb90039caf81a2a9efedf80e8124566d42a75e89060200160405180910390a16000807f00000000000000000000000000000000000000000000000000000000000000006001600160a01b0316637b14729e6040518163ffffffff1660e01b8152600401606060405180830381865afa158015612fad573d6000803e3d6000fd5b505050506040513d601f19601f82011682018060405250810190612fd19190614a56565b506025546040516301409c5360e71b81526001600160601b038416600482015267ffffffffffffffff9182166024820152908216604482015291935091507f00000000000000000000000000000000000000000000000000000000000000006001600160a01b03169063a04e298090606401600060405180830381600087803b15801561305d57600080fd5b505af1158015613071573d6000803e3d6000fd5b5050600060265550506025805467ffffffffffffffff19169055505050565b6130986147db565b600a54600081116130bb5760405162461bcd60e51b8152600401610e40906149cc565b6033546130c882426149fa565b10156130e65760405162461bcd60e51b8152600401610e4090614a21565b7f01e43c4ca2dc8df5a6c64198b1ad31e61ff7584833e5a7933892dd79d8eb905260095460405161311991815260200190565b60405180910390a16000807f00000000000000000000000000000000000000000000000000000000000000006001600160a01b03166374024ab76040518163ffffffff1660e01b8152600401606060405180830381865afa158015613182573d6000803e3d6000fd5b505050506040513d601f19601f820116820180604052508101906131a69190614aa3565b50600954604051639a7d093560e01b81526004810184905260248101839052604481019190915291935091507f00000000000000000000000000000000000000000000000000000000000000006001600160a01b031690639a7d093590606401600060405180830381600087803b15801561322057600080fd5b505af1158015613234573d6000803e3d6000fd5b50506000600a8190556009555050505050565b6000611006600254614835565b61325c6147db565b6018546000811161327f5760405162461bcd60e51b8152600401610e40906149cc565b60335461328c82426149fa565b10156132aa5760405162461bcd60e51b8152600401610e4090614a21565b6017546040516001600160601b0390911681527f5e7ca6fb8d090a2753e006c53b0aab79da28ab5e198b62cc105bda8f96caa6a09060200160405180910390a16000807f00000000000000000000000000000000000000000000000000000000000000006001600160a01b0316631d35fa636040518163ffffffff1660e01b8152600401606060405180830381865afa15801561334b573d6000803e3d6000fd5b505050506040513d601f19601f8201168201806040525081019061336f9190614b49565b601754604051630519e99160e01b81526001600160601b0391821660048201528184166024820152908216604482015291945092507f00000000000000000000000000000000000000000000000000000000000000006001600160a01b03169150630519e99190606401600060405180830381600087803b1580156133f357600080fd5b505af1158015613407573d6000803e3d6000fd5b505060006018555050601780546001600160601b0319169055505050565b61342d6147db565b602d81905542602e8190556040805183815260208101929092527f8ff92b4fa51728d3b3bebd82f5bcfa8904b0278abbce025a1e33aaf9719fdb0d9101611215565b6134776147db565b6001600160a01b0381166134e95760405162461bcd60e51b815260206004820152603360248201527f4e65772072616e646f6d20626561636f6e20676f7665726e616e636520616464604482015272726573732063616e6e6f74206265207a65726f60681b6064820152608401610e40565b600380546001600160a01b0319166001600160a01b0383169081179091554260048190556040805192835260208301919091527fcda4dd0dbaee4278532e4689e026f08f707ec8602188caa303750b225cde00789101611215565b61354c6147db565b6022546000811161356f5760405162461bcd60e51b8152600401610e40906149cc565b60335461357c82426149fa565b101561359a5760405162461bcd60e51b8152600401610e4090614a21565b7f32aac559d8ae735853362fec3c6751b37b45f12097c074ee06d51b10180c68626021546040516135cd91815260200190565b60405180910390a160008060007f00000000000000000000000000000000000000000000000000000000000000006001600160a01b031663529023016040518163ffffffff1660e01b8152600401608060405180830381865afa158015613638573d6000803e3d6000fd5b505050506040513d601f19601f8201168201806040525081019061365c9190614b8b565b602154604051630ce591ab60e21b81526004810186905260248101859052604481019190915260648101829052939650919450909250507f00000000000000000000000000000000000000000000000000000000000000006001600160a01b03169063339646ac90608401600060405180830381600087803b1580156136e157600080fd5b505af11580156136f5573d6000803e3d6000fd5b505060006022819055602155505050505050565b6137116147db565b60648111156137325760405162461bcd60e51b8152600401610e4090614b1b565b60218190554260228190556040805183815260208101929092527fb62064224fade801c12ce2e348d8fff15f8e451792137664811b44b6ffe37d919101611215565b6000611006600e54614835565b6137896147db565b601780546001600160601b0319166001600160601b0383169081179091554260188190556040805192835260208301919091527fb5da59c72c3f617da3620449ee7c88d5b8a81e1f98e9f61fc62207ecab6b099f9101611215565b6137ec6147db565b6016546000811161380f5760405162461bcd60e51b8152600401610e40906149cc565b60335461381c82426149fa565b101561383a5760405162461bcd60e51b8152600401610e4090614a21565b7ffc88a5167b8569e72b62f4b76b3caae7699e46c7f6f16a8d011b135ac613acc460155460405161386d91815260200190565b60405180910390a160008060008060007f00000000000000000000000000000000000000000000000000000000000000006001600160a01b031663b142f85c6040518163ffffffff1660e01b815260040160c060405180830381865afa1580156138db573d6000803e3d6000fd5b505050506040513d601f19601f820116820180604052508101906138ff9190614ad1565b506015546040516377a5a7bd60e01b8152600481018790526024810186905260448101859052606481018490526084810183905260a4810191909152949950929750909550935091506001600160a01b037f000000000000000000000000000000000000000000000000000000000000000016906377a5a7bd9060c401600060405180830381600087803b15801561399657600080fd5b505af11580156139aa573d6000803e3d6000fd5b5050600060168190556015555050505050505050565b6139c86147db565b600454600081116139eb5760405162461bcd60e51b8152600401610e40906149cc565b6033546139f882426149fa565b1015613a165760405162461bcd60e51b8152600401610e4090614a21565b6003546040516001600160a01b0390911681527f2682a33c437aa00b19b3e527d140e9800f735bc8fab66653e6ae22c8d07b4a909060200160405180910390a16003546040516334e2fffd60e21b81526001600160a01b0391821660048201527f00000000000000000000000000000000000000000000000000000000000000009091169063d38bfff490602401600060405180830381600087803b158015613abe57600080fd5b505af1158015613ad2573d6000803e3d6000fd5b505060006004555050600380546001600160a01b031916905550565b613af66147db565b60318190554260328190556040805183815260208101929092527f9eeb84ca445446640c66e65b8036794dd92ad3c3b9177714c8802c2644ab79e59101611215565b613b406147db565b60078190554260088190556040805183815260208101929092527f9cd90f9d45b916da6108ff464eaded2b92aa41867f12437a20b57247298086979101611215565b613b8a6147db565b60325460008111613bad5760405162461bcd60e51b8152600401610e40906149cc565b603354613bba82426149fa565b1015613bd85760405162461bcd60e51b8152600401610e4090614a21565b7f274cf9dfd48eeb8969817e347b3a2951ff7b3127772bd70827012266466ae229603154604051613c0b91815260200190565b60405180910390a160008060007f00000000000000000000000000000000000000000000000000000000000000006001600160a01b03166388a595906040518163ffffffff1660e01b8152600401608060405180830381865afa158015613c76573d6000803e3d6000fd5b505050506040513d601f19601f82011682018060405250810190613c9a9190614b8b565b50603154604051635868086b60e11b8152600481018590526024810184905260448101839052606481019190915292955090935091506001600160a01b037f0000000000000000000000000000000000000000000000000000000000000000169063b0d010d690608401600060405180830381600087803b158015613d1e57600080fd5b505af1158015613d32573d6000803e3d6000fd5b505060006032819055603155505050505050565b613d4e6147db565b600081118015613d615750620f42408111155b613dc35760405162461bcd60e51b815260206004820152602d60248201527f43616c6c6261636b20676173206c696d6974206d757374206265203e2030206160448201526c06e64203c3d203130303030303609c1b6064820152608401610e40565b600981905542600a8190556040805183815260208101929092527f0aeac6506f5606a033c22dd1659065c5f75e5ea933fd3b49948ea79a59759b239101611215565b613e0d6147db565b60008111613e695760405162461bcd60e51b8152602060048201526024808201527f52656c617920656e74727920736f66742074696d656f7574206d7573742062656044820152630203e20360e41b6064820152608401610e40565b60058190554260068190556040805183815260208101929092527fb4c6d786da48691c308faaf332c8a4ccaa952d2145eb5798624c60548ce4b8a39101611215565b6000611006603054614835565b613ec06147db565b602a5460008111613ee35760405162461bcd60e51b8152600401610e40906149cc565b603354613ef082426149fa565b1015613f0e5760405162461bcd60e51b8152600401610e4090614a21565b7f8ad0f1f70b7c422ad8dee17b865a5118d91bc633151cdf66293f7827fea7164c602954604051613f4191815260200190565b60405180910390a160008060007f00000000000000000000000000000000000000000000000000000000000000006001600160a01b031663529023016040518163ffffffff1660e01b8152600401608060405180830381865afa158015613fac573d6000803e3d6000fd5b505050506040513d601f19601f82011682018060405250810190613fd09190614b8b565b50602954604051630ce591ab60e21b8152600481018590526024810184905260448101839052606481019190915292955090935091506001600160a01b037f0000000000000000000000000000000000000000000000000000000000000000169063339646ac90608401600060405180830381600087803b15801561405457600080fd5b505af1158015614068573d6000803e3d6000fd5b50506000602a819055602955505050505050565b6140846147db565b602380546001600160601b0319166001600160601b0383169081179091554260248190556040805192835260208301919091527f456911403e756f0141f9a154095c7495b7002db4f6b26a7ff03c4f09335abc4b9101611215565b6140e76147db565b602e546000811161410a5760405162461bcd60e51b8152600401610e40906149cc565b60335461411782426149fa565b10156141355760405162461bcd60e51b8152600401610e4090614a21565b7f9eb4413d73f3cae81d9e8ab119d94a8d2cd6b2564117c30f2112b972dcf84f96602d5460405161416891815260200190565b60405180910390a160008060007f00000000000000000000000000000000000000000000000000000000000000006001600160a01b03166388a595906040518163ffffffff1660e01b8152600401608060405180830381865afa1580156141d3573d6000803e3d6000fd5b505050506040513d601f19601f820116820180604052508101906141f79190614b8b565b602d54604051635868086b60e11b815260048101869052602481019190915260448101839052606481018290529396509094509250507f00000000000000000000000000000000000000000000000000000000000000006001600160a01b03169063b0d010d690608401600060405180830381600087803b15801561427b57600080fd5b505af115801561428f573d6000803e3d6000fd5b50506000602e819055602d55505050505050565b6000611006600454614835565b6142b86147db565b602054600081116142db5760405162461bcd60e51b8152600401610e40906149cc565b6033546142e882426149fa565b10156143065760405162461bcd60e51b8152600401610e4090614a21565b7f3114ff9b112e2012da7dadf3d620cfd5af0546afe8cd887c052f0166fddb0004601f5460405161433991815260200190565b60405180910390a160008060007f00000000000000000000000000000000000000000000000000000000000000006001600160a01b031663529023016040518163ffffffff1660e01b8152600401608060405180830381865afa1580156143a4573d6000803e3d6000fd5b505050506040513d601f19601f820116820180604052508101906143c89190614b8b565b601f54604051630ce591ab60e21b815260048101869052602481019190915260448101839052606481018290529396509094509250507f00000000000000000000000000000000000000000000000000000000000000006001600160a01b03169063339646ac90608401600060405180830381600087803b15801561444c57600080fd5b505af1158015614460573d6000803e3d6000fd5b505060006020819055601f55505050505050565b6000611006601c54614835565b6000611006601654614835565b6000611006602254614835565b6000611006600a54614835565b6144b06147db565b60648111156144d15760405162461bcd60e51b8152600401610e4090614b1b565b602981905542602a8190556040805183815260208101929092527f363de88db002648ead34367d7bc43c7eb86051555a3e29ff3d6ab2cd12f880569101611215565b6000611006602e54614835565b6145286147db565b6014546000811161454b5760405162461bcd60e51b8152600401610e40906149cc565b60335461455882426149fa565b10156145765760405162461bcd60e51b8152600401610e4090614a21565b7ff0db347eb933ec2636808975682b1fd63249be20775411ced58d2fd61e0fe7426013546040516145a991815260200190565b60405180910390a160008060008060007f00000000000000000000000000000000000000000000000000000000000000006001600160a01b031663b142f85c6040518163ffffffff1660e01b815260040160c060405180830381865afa158015614617573d6000803e3d6000fd5b505050506040513d601f19601f8201168201806040525081019061463b9190614ad1565b6013546040516377a5a7bd60e01b815260048101889052602481018790526044810186905260648101859052608481019190915260a48101829052959a509398509196509450909250506001600160a01b037f000000000000000000000000000000000000000000000000000000000000000016906377a5a7bd9060c401600060405180830381600087803b1580156146d357600080fd5b505af11580156146e7573d6000803e3d6000fd5b5050600060148190556013555050505050505050565b6147056147db565b6001600160a01b03811661476a5760405162461bcd60e51b815260206004820152602660248201527f4f776e61626c653a206e6577206f776e657220697320746865207a65726f206160448201526564647265737360d01b6064820152608401610e40565b6147738161488b565b50565b61477e6147db565b6025805467ffffffffffffffff191667ffffffffffffffff83169081179091554260268190556040805192835260208301919091527f98f756aaf5ba8f60be58f0b035a3a5f54bdfbc5d1ada450c235b9e500625df389101611215565b6000546001600160a01b0316331461212e5760405162461bcd60e51b815260206004820181905260248201527f4f776e61626c653a2063616c6c6572206973206e6f7420746865206f776e65726044820152606401610e40565b60008082116148565760405162461bcd60e51b8152600401610e40906149cc565b600061486283426149fa565b905060335481106148765750600092915050565b8060335461488491906149fa565b9392505050565b600080546001600160a01b038381166001600160a01b0319831681178455604051919092169283917f8be0079c531659141344cd1fd0a4f28419497f9722a3daafe3b4186f6b6457e09190a35050565b6000602082840312156148ed57600080fd5b5035919050565b6001600160601b038116811461477357600080fd5b60006020828403121561491b57600080fd5b8135614884816148f4565b67ffffffffffffffff8116811461477357600080fd5b60006020828403121561494e57600080fd5b813561488481614926565b80356001600160a01b038116811461497057600080fd5b919050565b60006020828403121561498757600080fd5b61488482614959565b600080604083850312156149a357600080fd5b6149ac83614959565b9150602083013580151581146149c157600080fd5b809150509250929050565b60208082526014908201527310da185b99d9481b9bdd081a5b9a5d1a585d195960621b604082015260600190565b81810381811115614a1b57634e487b7160e01b600052601160045260246000fd5b92915050565b6020808252818101527f476f7665726e616e63652064656c617920686173206e6f7420656c6170736564604082015260600190565b600080600060608486031215614a6b57600080fd5b8351614a76816148f4565b6020850151909350614a8781614926565b6040850151909250614a9881614926565b809150509250925092565b600080600060608486031215614ab857600080fd5b8351925060208401519150604084015190509250925092565b60008060008060008060c08789031215614aea57600080fd5b865195506020870151945060408701519350606087015192506080870151915060a087015190509295509295509295565b60208082526014908201527304d6178696d756d2076616c7565206973203130360641b604082015260600190565b600080600060608486031215614b5e57600080fd5b8351614b69816148f4565b6020850151909350614b7a816148f4565b6040850151909250614a98816148f4565b60008060008060808587031215614ba157600080fd5b50508251602084015160408501516060909501519196909550909250905056fea264697066735822122093c281e172e927bf4bca179ca15e86e2601c24efca30c1d41e4e42a9717f185264736f6c63430008110033",
  "devdoc": {
    "kind": "dev",
    "methods": {
      "beginAuthorizationDecreaseChangePeriodUpdate(uint64)": {
        "details": "Can be called only by the contract owner.",
        "params": {
          "_newAuthorizationDecreaseChangePeriod": "New authorization decrease change period"
        }
      },
      "beginAuthorizationDecreaseDelayUpdate(uint64)": {
        "details": "Can be called only by the contract owner.",
        "params": {
          "_newAuthorizationDecreaseDelay": "New authorization decrease delay"
        }
      },
      "beginCallbackGasLimitUpdate(uint256)": {
        "details": "Can be called only by the contract owner.",
        "params": {
          "_newCallbackGasLimit": "New callback gas limit"
        }
      },
      "beginDkgMaliciousResultNotificationRewardMultiplierUpdate(uint256)": {
        "details": "Can be called only by the contract owner.",
        "params": {
          "_newDkgMaliciousResultNotificationRewardMultiplier": "New DKG        malicious result notification reward multiplier."
        }
      },
      "beginDkgResultApprovalGasOffsetUpdate(uint256)": {
        "details": "Can be called only by the contract owner.",
        "params": {
          "_newDkgResultApprovalGasOffset": "New DKG approval gas offset"
        }
      },
      "beginDkgResultChallengeExtraGasUpdate(uint256)": {
        "details": "Can be called only by the contract owner.",
        "params": {
          "_newDkgResultChallengeExtraGas": "New DKG result challenge extra gas"
        }
      },
      "beginDkgResultChallengePeriodLengthUpdate(uint256)": {
        "details": "Can be called only by the contract owner.",
        "params": {
          "_newDkgResultChallengePeriodLength": "New DKG result challenge        period length in blocks"
        }
      },
      "beginDkgResultSubmissionGasUpdate(uint256)": {
        "details": "Can be called only by the contract owner.",
        "params": {
          "_newDkgResultSubmissionGas": "New relay entry submission gas offset"
        }
      },
      "beginDkgResultSubmissionTimeoutUpdate(uint256)": {
        "details": "Can be called only by the contract owner.",
        "params": {
          "_newDkgResultSubmissionTimeout": "New DKG result submission        timeout in blocks"
        }
      },
      "beginDkgSubmitterPrecedencePeriodLengthUpdate(uint256)": {
        "details": "Can be called only by the contract owner.",
        "params": {
          "_newDkgSubmitterPrecedencePeriodLength": "New DKG submitter precedence        period length in blocks"
        }
      },
      "beginGovernanceDelayUpdate(uint256)": {
        "details": "Can be called only by the contract owner.",
        "params": {
          "_newGovernanceDelay": "New governance delay"
        }
      },
      "beginGroupCreationFrequencyUpdate(uint256)": {
        "details": "Can be called only by the contract owner.",
        "params": {
          "_newGroupCreationFrequency": "New group creation frequency"
        }
      },
      "beginGroupLifetimeUpdate(uint256)": {
        "details": "Can be called only by the contract owner.",
        "params": {
          "_newGroupLifetime": "New group lifetime in blocks"
        }
      },
      "beginMaliciousDkgResultSlashingAmountUpdate(uint96)": {
        "details": "Can be called only by the contract owner.",
        "params": {
          "_newMaliciousDkgResultSlashingAmount": "New malicious DKG result        slashing amount"
        }
      },
      "beginMinimumAuthorizationUpdate(uint96)": {
        "details": "Can be called only by the contract owner.",
        "params": {
          "_newMinimumAuthorization": "New minimum authorization amount."
        }
      },
      "beginNotifyOperatorInactivityGasOffsetUpdate(uint256)": {
        "details": "Can be called only by the contract owner.",
        "params": {
          "_newNotifyOperatorInactivityGasOffset": "New operator inactivity        notification gas offset"
        }
      },
      "beginRandomBeaconGovernanceTransfer(address)": {
        "details": "Can be called only by the current contract governance."
      },
      "beginRelayEntryHardTimeoutUpdate(uint256)": {
        "details": "Can be called only by the contract owner.",
        "params": {
          "_newRelayEntryHardTimeout": "New relay entry hard timeout in blocks"
        }
      },
      "beginRelayEntrySoftTimeoutUpdate(uint256)": {
        "details": "Can be called only by the contract owner.",
        "params": {
          "_newRelayEntrySoftTimeout": "New relay entry submission timeout in blocks"
        }
      },
      "beginRelayEntrySubmissionFailureSlashingAmountUpdate(uint96)": {
        "details": "Can be called only by the contract owner.",
        "params": {
          "_newRelayEntrySubmissionFailureSlashingAmount": "New relay entry        submission failure slashing amount"
        }
      },
      "beginRelayEntrySubmissionGasOffsetUpdate(uint256)": {
        "details": "Can be called only by the contract owner.",
        "params": {
          "_newRelayEntrySubmissionGasOffset": "New relay entry submission gas offset"
        }
      },
      "beginRelayEntryTimeoutNotificationRewardMultiplierUpdate(uint256)": {
        "details": "Can be called only by the contract owner.",
        "params": {
          "_newRelayEntryTimeoutNotificationRewardMultiplier": "New relay        entry timeout notification reward multiplier."
        }
      },
      "beginSortitionPoolRewardsBanDurationUpdate(uint256)": {
        "details": "Can be called only by the contract owner.",
        "params": {
          "_newSortitionPoolRewardsBanDuration": "New sortition pool rewards        ban duration."
        }
      },
      "beginUnauthorizedSigningNotificationRewardMultiplierUpdate(uint256)": {
        "details": "Can be called only by the contract owner.",
        "params": {
          "_newUnauthorizedSigningNotificationRewardMultiplier": "New unauthorized         signing notification reward multiplier."
        }
      },
      "beginUnauthorizedSigningSlashingAmountUpdate(uint96)": {
        "details": "Can be called only by the contract owner.",
        "params": {
          "_newUnauthorizedSigningSlashingAmount": "New unauthorized signing        slashing amount"
        }
      },
      "finalizeAuthorizationDecreaseChangePeriodUpdate()": {
        "details": "Can be called only by the contract owner, after the governance      delay elapses."
      },
      "finalizeAuthorizationDecreaseDelayUpdate()": {
        "details": "Can be called only by the contract owner, after the governance      delay elapses."
      },
      "finalizeCallbackGasLimitUpdate()": {
        "details": "Can be called only by the contract owner, after the governance      delay elapses."
      },
      "finalizeDkgMaliciousResultNotificationRewardMultiplierUpdate()": {
        "details": "Can be called only by the contract owner, after the governance      delay elapses."
      },
      "finalizeDkgResultApprovalGasOffsetUpdate()": {
        "details": "Can be called only by the contract owner, after the governance      delay elapses."
      },
      "finalizeDkgResultChallengeExtraGasUpdate()": {
        "details": "Can be called only by the contract owner, after the governance      delay elapses."
      },
      "finalizeDkgResultChallengePeriodLengthUpdate()": {
        "details": "Can be called only by the contract owner, after the governance      delay elapses."
      },
      "finalizeDkgResultSubmissionGasUpdate()": {
        "details": "Can be called only by the contract owner, after the governance      delay elapses."
      },
      "finalizeDkgResultSubmissionTimeoutUpdate()": {
        "details": "Can be called only by the contract owner, after the governance      delay elapses."
      },
      "finalizeDkgSubmitterPrecedencePeriodLengthUpdate()": {
        "details": "Can be called only by the contract owner, after the governance      delay elapses."
      },
      "finalizeGovernanceDelayUpdate()": {
        "details": "Can be called only by the contract owner, after the governance      delay elapses."
      },
      "finalizeGroupCreationFrequencyUpdate()": {
        "details": "Can be called only by the contract owner, after the governance      delay elapses."
      },
      "finalizeGroupLifetimeUpdate()": {
        "details": "Can be called only by the contract owner, after the governance      delay elapses."
      },
      "finalizeMaliciousDkgResultSlashingAmountUpdate()": {
        "details": "Can be called only by the contract owner, after the governance      delay elapses."
      },
      "finalizeMinimumAuthorizationUpdate()": {
        "details": "Can be called only by the contract owner, after the governance      delay elapses."
      },
      "finalizeNotifyOperatorInactivityGasOffsetUpdate()": {
        "details": "Can be called only by the contract owner, after the governance      delay elapses."
      },
      "finalizeRandomBeaconGovernanceTransfer()": {
        "details": "Can be called only by the current contract governance, after the      governance delay elapses."
      },
      "finalizeRelayEntryHardTimeoutUpdate()": {
        "details": "Can be called only by the contract owner, after the governance      delay elapses."
      },
      "finalizeRelayEntrySoftTimeoutUpdate()": {
        "details": "Can be called only by the contract owner, after the governance      delay elapses."
      },
      "finalizeRelayEntrySubmissionFailureSlashingAmountUpdate()": {
        "details": "Can be called only by the contract owner, after the governance      delay elapses."
      },
      "finalizeRelayEntrySubmissionGasOffsetUpdate()": {
        "details": "Can be called only by the contract owner, after the governance      delay elapses."
      },
      "finalizeRelayEntryTimeoutNotificationRewardMultiplierUpdate()": {
        "details": "Can be called only by the contract owner, after the governance      delay elapses."
      },
      "finalizeSortitionPoolRewardsBanDurationUpdate()": {
        "details": "Can be called only by the contract owner, after the governance      delay elapses."
      },
      "finalizeUnauthorizedSigningNotificationRewardMultiplierUpdate()": {
        "details": "Can be called only by the contract owner, after the governance      delay elapses."
      },
      "finalizeUnauthorizedSigningSlashingAmountUpdate()": {
        "details": "Can be called only by the contract owner, after the governance      delay elapses."
      },
      "getRemainingAuthorizationDecreaseChangePeriodUpdateTime()": {
        "returns": {
          "_0": "Remaining time in seconds."
        }
      },
      "getRemainingAuthorizationDecreaseDelayUpdateTime()": {
        "returns": {
          "_0": "Remaining time in seconds."
        }
      },
      "getRemainingCallbackGasLimitUpdateTime()": {
        "returns": {
          "_0": "Remaining time in seconds."
        }
      },
      "getRemainingDkgMaliciousResultNotificationRewardMultiplierUpdateTime()": {
        "returns": {
          "_0": "Remaining time in seconds."
        }
      },
      "getRemainingDkgResultApprovalGasOffsetUpdateTime()": {
        "returns": {
          "_0": "Remaining time in seconds."
        }
      },
      "getRemainingDkgResultChallengeExtraGasUpdateTime()": {
        "returns": {
          "_0": "Remaining time in seconds."
        }
      },
      "getRemainingDkgResultChallengePeriodLengthUpdateTime()": {
        "returns": {
          "_0": "Remaining time in seconds."
        }
      },
      "getRemainingDkgResultSubmissionGasUpdateTime()": {
        "returns": {
          "_0": "Remaining time in seconds."
        }
      },
      "getRemainingDkgResultSubmissionTimeoutUpdateTime()": {
        "returns": {
          "_0": "Remaining time in seconds."
        }
      },
      "getRemainingDkgSubmitterPrecedencePeriodLengthUpdateTime()": {
        "returns": {
          "_0": "Remaining time in seconds."
        }
      },
      "getRemainingGovernanceDelayUpdateTime()": {
        "returns": {
          "_0": "Remaining time in seconds."
        }
      },
      "getRemainingGroupCreationFrequencyUpdateTime()": {
        "returns": {
          "_0": "Remaining time in seconds."
        }
      },
      "getRemainingGroupLifetimeUpdateTime()": {
        "returns": {
          "_0": "Remaining time in seconds."
        }
      },
      "getRemainingMaliciousDkgResultSlashingAmountUpdateTime()": {
        "returns": {
          "_0": "Remaining time in seconds."
        }
      },
      "getRemainingMimimumAuthorizationUpdateTime()": {
        "returns": {
          "_0": "Remaining time in seconds."
        }
      },
      "getRemainingNotifyOperatorInactivityGasOffsetUpdateTime()": {
        "returns": {
          "_0": "Remaining time in seconds."
        }
      },
      "getRemainingRandomBeaconGovernanceTransferDelayTime()": {
        "returns": {
          "_0": "Remaining time in seconds."
        }
      },
      "getRemainingRelayEntryHardTimeoutUpdateTime()": {
        "returns": {
          "_0": "Remaining time in seconds."
        }
      },
      "getRemainingRelayEntrySoftTimeoutUpdateTime()": {
        "returns": {
          "_0": "Remaining time in seconds."
        }
      },
      "getRemainingRelayEntrySubmissionFailureSlashingAmountUpdateTime()": {
        "returns": {
          "_0": "Remaining time in seconds."
        }
      },
      "getRemainingRelayEntrySubmissionGasOffsetUpdateTime()": {
        "returns": {
          "_0": "Remaining time in seconds."
        }
      },
      "getRemainingRelayEntryTimeoutNotificationRewardMultiplierUpdateTime()": {
        "returns": {
          "_0": "Remaining time in seconds."
        }
      },
      "getRemainingSortitionPoolRewardsBanDurationUpdateTime()": {
        "returns": {
          "_0": "Remaining time in seconds."
        }
      },
      "getRemainingUnauthorizedSigningNotificationRewardMultiplierUpdateTime()": {
        "returns": {
          "_0": "Remaining time in seconds."
        }
      },
      "getRemainingUnauthorizedSigningSlashingAmountUpdateTime()": {
        "returns": {
          "_0": "Remaining time in seconds."
        }
      },
      "owner()": {
        "details": "Returns the address of the current owner."
      },
      "renounceOwnership()": {
        "details": "Leaves the contract without owner. It will not be possible to call `onlyOwner` functions anymore. Can only be called by the current owner. NOTE: Renouncing ownership will leave the contract without an owner, thereby removing any functionality that is only available to the owner."
      },
      "setRequesterAuthorization(address,bool)": {
        "params": {
          "isAuthorized": "True or false",
          "requester": "Requester, can be a contract or EOA"
        }
      },
      "transferOwnership(address)": {
        "details": "Transfers ownership of the contract to a new account (`newOwner`). Can only be called by the current owner."
      },
      "withdrawIneligibleRewards(address)": {
        "details": "Can be called only by the contract owner.",
        "params": {
          "recipient": "Recipient of withdrawn rewards."
        }
      }
    },
    "title": "Keep Random Beacon Governance",
    "version": 1
  },
  "userdoc": {
    "kind": "user",
    "methods": {
      "beginAuthorizationDecreaseChangePeriodUpdate(uint64)": {
        "notice": "Begins the authorization decrease change period update process."
      },
      "beginAuthorizationDecreaseDelayUpdate(uint64)": {
        "notice": "Begins the authorization decrease delay update process."
      },
      "beginCallbackGasLimitUpdate(uint256)": {
        "notice": "Begins the callback gas limit update process."
      },
      "beginDkgMaliciousResultNotificationRewardMultiplierUpdate(uint256)": {
        "notice": "Begins the DKG malicious result notification reward multiplier         update process."
      },
      "beginDkgResultApprovalGasOffsetUpdate(uint256)": {
        "notice": "Begins the DKG result approval gas offset update process."
      },
      "beginDkgResultChallengeExtraGasUpdate(uint256)": {
        "notice": "Begins the DKG result challenge extra gas update process."
      },
      "beginDkgResultChallengePeriodLengthUpdate(uint256)": {
        "notice": "Begins the DKG result challenge period length update process."
      },
      "beginDkgResultSubmissionGasUpdate(uint256)": {
        "notice": "Begins the DKG result submission gas update process."
      },
      "beginDkgResultSubmissionTimeoutUpdate(uint256)": {
        "notice": "Begins the DKG result submission timeout update         process."
      },
      "beginDkgSubmitterPrecedencePeriodLengthUpdate(uint256)": {
        "notice": "Begins the DKG submitter precedence period length."
      },
      "beginGovernanceDelayUpdate(uint256)": {
        "notice": "Begins the governance delay update process."
      },
      "beginGroupCreationFrequencyUpdate(uint256)": {
        "notice": "Begins the group creation frequency update process."
      },
      "beginGroupLifetimeUpdate(uint256)": {
        "notice": "Begins the group lifetime update process. Group lifetime needs to         be shorter than the authorization decrease delay to ensure every         active group is backed by enough stake. A new group lifetime value         is in blocks and has to be calculated based on the average block         time and authorization decrease delay which value is in seconds."
      },
      "beginMaliciousDkgResultSlashingAmountUpdate(uint96)": {
        "notice": "Begins the malicious DKG result slashing amount update process."
      },
      "beginMinimumAuthorizationUpdate(uint96)": {
        "notice": "Begins the minimum authorization amount update process."
      },
      "beginNotifyOperatorInactivityGasOffsetUpdate(uint256)": {
        "notice": "Begins the notify operator inactivity gas offset update process."
      },
      "beginRandomBeaconGovernanceTransfer(address)": {
        "notice": "Begins the random beacon governance transfer process."
      },
      "beginRelayEntryHardTimeoutUpdate(uint256)": {
        "notice": "Begins the relay entry hard timeout update process."
      },
      "beginRelayEntrySoftTimeoutUpdate(uint256)": {
        "notice": "Begins the relay entry soft timeout update process."
      },
      "beginRelayEntrySubmissionFailureSlashingAmountUpdate(uint96)": {
        "notice": "Begins the relay entry submission failure slashing amount update         process."
      },
      "beginRelayEntrySubmissionGasOffsetUpdate(uint256)": {
        "notice": "Begins the relay entry submission gas offset update process."
      },
      "beginRelayEntryTimeoutNotificationRewardMultiplierUpdate(uint256)": {
        "notice": "Begins the relay entry timeout notification reward multiplier         update process."
      },
      "beginSortitionPoolRewardsBanDurationUpdate(uint256)": {
        "notice": "Begins the sortition pool rewards ban duration update process."
      },
      "beginUnauthorizedSigningNotificationRewardMultiplierUpdate(uint256)": {
        "notice": "Begins the unauthorized signing notification reward multiplier         update process."
      },
      "beginUnauthorizedSigningSlashingAmountUpdate(uint96)": {
        "notice": "Begins the unauthorized signing slashing amount update process."
      },
      "finalizeAuthorizationDecreaseChangePeriodUpdate()": {
        "notice": "Finalizes the authorization decrease change period update process."
      },
      "finalizeAuthorizationDecreaseDelayUpdate()": {
        "notice": "Finalizes the authorization decrease delay update process."
      },
      "finalizeCallbackGasLimitUpdate()": {
        "notice": "Finalizes the callback gas limit update process."
      },
      "finalizeDkgMaliciousResultNotificationRewardMultiplierUpdate()": {
        "notice": "Finalizes the DKG malicious result notification reward         multiplier update process."
      },
      "finalizeDkgResultApprovalGasOffsetUpdate()": {
        "notice": "Finalizes the DKG result approval gas offset update process."
      },
      "finalizeDkgResultChallengeExtraGasUpdate()": {
        "notice": "Finalizes the DKG result challenge extra gas update process."
      },
      "finalizeDkgResultChallengePeriodLengthUpdate()": {
        "notice": "Finalizes the DKG result challenge period length update process."
      },
      "finalizeDkgResultSubmissionGasUpdate()": {
        "notice": "Finalizes DKG result submission gas update process."
      },
      "finalizeDkgResultSubmissionTimeoutUpdate()": {
        "notice": "Finalizes the DKG result submission timeout update         process."
      },
      "finalizeDkgSubmitterPrecedencePeriodLengthUpdate()": {
        "notice": "Finalizes the DKG submitter precedence period length."
      },
      "finalizeGovernanceDelayUpdate()": {
        "notice": "Finalizes the governance delay update process."
      },
      "finalizeGroupCreationFrequencyUpdate()": {
        "notice": "Finalizes the group creation frequency update process."
      },
      "finalizeGroupLifetimeUpdate()": {
        "notice": "Finalizes the group creation frequency update process."
      },
      "finalizeMaliciousDkgResultSlashingAmountUpdate()": {
        "notice": "Finalizes the malicious DKG result slashing amount update         process."
      },
      "finalizeMinimumAuthorizationUpdate()": {
        "notice": "Finalizes the minimum authorization amount update process."
      },
      "finalizeNotifyOperatorInactivityGasOffsetUpdate()": {
        "notice": "Finalizes the notify operator inactivity gas offset update process."
      },
      "finalizeRandomBeaconGovernanceTransfer()": {
        "notice": "Finalizes the random beacon governance transfer process."
      },
      "finalizeRelayEntryHardTimeoutUpdate()": {
        "notice": "Finalizes the relay entry hard timeout update process."
      },
      "finalizeRelayEntrySoftTimeoutUpdate()": {
        "notice": "Finalizes the relay entry soft timeout update process."
      },
      "finalizeRelayEntrySubmissionFailureSlashingAmountUpdate()": {
        "notice": "Finalizes the relay entry submission failure slashing amount         update process."
      },
      "finalizeRelayEntrySubmissionGasOffsetUpdate()": {
        "notice": "Finalizes relay entry submission gas offset update process."
      },
      "finalizeRelayEntryTimeoutNotificationRewardMultiplierUpdate()": {
        "notice": "Finalizes the relay entry timeout notification reward         multiplier update process."
      },
      "finalizeSortitionPoolRewardsBanDurationUpdate()": {
        "notice": "Finalizes the sortition pool rewards ban duration update process."
      },
      "finalizeUnauthorizedSigningNotificationRewardMultiplierUpdate()": {
        "notice": "Finalizes the unauthorized signing notification reward         multiplier update process."
      },
      "finalizeUnauthorizedSigningSlashingAmountUpdate()": {
        "notice": "Finalizes the unauthorized signing slashing amount update         process."
      },
      "getRemainingAuthorizationDecreaseChangePeriodUpdateTime()": {
        "notice": "Get the time remaining until the authorization decrease change         period can be updated."
      },
      "getRemainingAuthorizationDecreaseDelayUpdateTime()": {
        "notice": "Get the time remaining until the authorization decrease delay         can be updated."
      },
      "getRemainingCallbackGasLimitUpdateTime()": {
        "notice": "Get the time remaining until the callback gas limit can be         updated."
      },
      "getRemainingDkgMaliciousResultNotificationRewardMultiplierUpdateTime()": {
        "notice": "Get the time remaining until the DKG malicious result         notification reward multiplier duration can be updated."
      },
      "getRemainingDkgResultApprovalGasOffsetUpdateTime()": {
        "notice": "Get the time remaining until the DKG approval gas offset duration         can be updated."
      },
      "getRemainingDkgResultChallengeExtraGasUpdateTime()": {
        "notice": "Get the time remaining until the DKG result challenge extra         gas can be updated."
      },
      "getRemainingDkgResultChallengePeriodLengthUpdateTime()": {
        "notice": "Get the time remaining until the DKG result challenge period         length can be updated."
      },
      "getRemainingDkgResultSubmissionGasUpdateTime()": {
        "notice": "Get the time remaining until the DKG result submission gas         duration can be updated."
      },
      "getRemainingDkgResultSubmissionTimeoutUpdateTime()": {
        "notice": "Get the time remaining until the DKG result submission timeout         can be updated."
      },
      "getRemainingDkgSubmitterPrecedencePeriodLengthUpdateTime()": {
        "notice": "Get the time remaining until the wallet owner can be updated."
      },
      "getRemainingGovernanceDelayUpdateTime()": {
        "notice": "Get the time remaining until the governance delay can be updated."
      },
      "getRemainingGroupCreationFrequencyUpdateTime()": {
        "notice": "Get the time remaining until the group creation frequency can be         updated."
      },
      "getRemainingGroupLifetimeUpdateTime()": {
        "notice": "Get the time remaining until the group lifetime can be updated."
      },
      "getRemainingMaliciousDkgResultSlashingAmountUpdateTime()": {
        "notice": "Get the time remaining until the malicious DKG result         slashing amount can be updated."
      },
      "getRemainingMimimumAuthorizationUpdateTime()": {
        "notice": "Get the time remaining until the minimum authorization amount         can be updated."
      },
      "getRemainingNotifyOperatorInactivityGasOffsetUpdateTime()": {
        "notice": "Get the time remaining until the operator inactivity notification         gas offset duration can be updated."
      },
      "getRemainingRandomBeaconGovernanceTransferDelayTime()": {
        "notice": "Get the time remaining until the random beacon governance can         be transferred."
      },
      "getRemainingRelayEntryHardTimeoutUpdateTime()": {
        "notice": "Get the time remaining until the relay entry hard timeout can be         updated."
      },
      "getRemainingRelayEntrySoftTimeoutUpdateTime()": {
        "notice": "Get the time remaining until the relay entry submission soft         timeout can be updated."
      },
      "getRemainingRelayEntrySubmissionFailureSlashingAmountUpdateTime()": {
        "notice": "Get the time remaining until the relay entry submission failure         slashing amount can be updated."
      },
      "getRemainingRelayEntrySubmissionGasOffsetUpdateTime()": {
        "notice": "Get the time remaining until the relay entry submission gas offset         duration can be updated."
      },
      "getRemainingRelayEntryTimeoutNotificationRewardMultiplierUpdateTime()": {
        "notice": "Get the time remaining until the relay entry timeout         notification reward multiplier duration can be updated."
      },
      "getRemainingSortitionPoolRewardsBanDurationUpdateTime()": {
        "notice": "Get the time remaining until the sortition pool rewards ban         duration can be updated."
      },
      "getRemainingUnauthorizedSigningNotificationRewardMultiplierUpdateTime()": {
        "notice": "Get the time remaining until the unauthorized signing         notification reward multiplier duration can be updated."
      },
      "getRemainingUnauthorizedSigningSlashingAmountUpdateTime()": {
        "notice": "Get the time remaining until the unauthorized signing         slashing amount can be updated."
      },
      "setRequesterAuthorization(address,bool)": {
        "notice": "Set authorization for requesters that can request a relay         entry. It can be done by the governance only."
      },
      "withdrawIneligibleRewards(address)": {
        "notice": "Withdraws rewards belonging to operators marked as ineligible         for sortition pool rewards."
      }
    },
    "notice": "Owns the `RandomBeacon` contract and is responsible for updating its         governable parameters in respect to governance delay individual         for each parameter.",
    "version": 1
  },
  "storageLayout": {
    "storage": [
      {
        "astId": 3888,
        "contract": "contracts/RandomBeaconGovernance.sol:RandomBeaconGovernance",
        "label": "_owner",
        "offset": 0,
        "slot": "0",
        "type": "t_address"
      },
      {
        "astId": 12167,
        "contract": "contracts/RandomBeaconGovernance.sol:RandomBeaconGovernance",
        "label": "newGovernanceDelay",
        "offset": 0,
        "slot": "1",
        "type": "t_uint256"
      },
      {
        "astId": 12169,
        "contract": "contracts/RandomBeaconGovernance.sol:RandomBeaconGovernance",
        "label": "governanceDelayChangeInitiated",
        "offset": 0,
        "slot": "2",
        "type": "t_uint256"
      },
      {
        "astId": 12171,
        "contract": "contracts/RandomBeaconGovernance.sol:RandomBeaconGovernance",
        "label": "newRandomBeaconGovernance",
        "offset": 0,
        "slot": "3",
        "type": "t_address"
      },
      {
        "astId": 12173,
        "contract": "contracts/RandomBeaconGovernance.sol:RandomBeaconGovernance",
        "label": "randomBeaconGovernanceTransferInitiated",
        "offset": 0,
        "slot": "4",
        "type": "t_uint256"
      },
      {
        "astId": 12175,
        "contract": "contracts/RandomBeaconGovernance.sol:RandomBeaconGovernance",
        "label": "newRelayEntrySoftTimeout",
        "offset": 0,
        "slot": "5",
        "type": "t_uint256"
      },
      {
        "astId": 12177,
        "contract": "contracts/RandomBeaconGovernance.sol:RandomBeaconGovernance",
        "label": "relayEntrySoftTimeoutChangeInitiated",
        "offset": 0,
        "slot": "6",
        "type": "t_uint256"
      },
      {
        "astId": 12179,
        "contract": "contracts/RandomBeaconGovernance.sol:RandomBeaconGovernance",
        "label": "newRelayEntryHardTimeout",
        "offset": 0,
        "slot": "7",
        "type": "t_uint256"
      },
      {
        "astId": 12181,
        "contract": "contracts/RandomBeaconGovernance.sol:RandomBeaconGovernance",
        "label": "relayEntryHardTimeoutChangeInitiated",
        "offset": 0,
        "slot": "8",
        "type": "t_uint256"
      },
      {
        "astId": 12183,
        "contract": "contracts/RandomBeaconGovernance.sol:RandomBeaconGovernance",
        "label": "newCallbackGasLimit",
        "offset": 0,
        "slot": "9",
        "type": "t_uint256"
      },
      {
        "astId": 12185,
        "contract": "contracts/RandomBeaconGovernance.sol:RandomBeaconGovernance",
        "label": "callbackGasLimitChangeInitiated",
        "offset": 0,
        "slot": "10",
        "type": "t_uint256"
      },
      {
        "astId": 12187,
        "contract": "contracts/RandomBeaconGovernance.sol:RandomBeaconGovernance",
        "label": "newGroupCreationFrequency",
        "offset": 0,
        "slot": "11",
        "type": "t_uint256"
      },
      {
        "astId": 12189,
        "contract": "contracts/RandomBeaconGovernance.sol:RandomBeaconGovernance",
        "label": "groupCreationFrequencyChangeInitiated",
        "offset": 0,
        "slot": "12",
        "type": "t_uint256"
      },
      {
        "astId": 12191,
        "contract": "contracts/RandomBeaconGovernance.sol:RandomBeaconGovernance",
        "label": "newGroupLifetime",
        "offset": 0,
        "slot": "13",
        "type": "t_uint256"
      },
      {
        "astId": 12193,
        "contract": "contracts/RandomBeaconGovernance.sol:RandomBeaconGovernance",
        "label": "groupLifetimeChangeInitiated",
        "offset": 0,
        "slot": "14",
        "type": "t_uint256"
      },
      {
        "astId": 12195,
        "contract": "contracts/RandomBeaconGovernance.sol:RandomBeaconGovernance",
        "label": "newDkgResultChallengePeriodLength",
        "offset": 0,
        "slot": "15",
        "type": "t_uint256"
      },
      {
        "astId": 12197,
        "contract": "contracts/RandomBeaconGovernance.sol:RandomBeaconGovernance",
        "label": "dkgResultChallengePeriodLengthChangeInitiated",
        "offset": 0,
        "slot": "16",
        "type": "t_uint256"
      },
      {
        "astId": 12199,
        "contract": "contracts/RandomBeaconGovernance.sol:RandomBeaconGovernance",
        "label": "newDkgResultChallengeExtraGas",
        "offset": 0,
        "slot": "17",
        "type": "t_uint256"
      },
      {
        "astId": 12201,
        "contract": "contracts/RandomBeaconGovernance.sol:RandomBeaconGovernance",
        "label": "dkgResultChallengeExtraGasChangeInitiated",
        "offset": 0,
        "slot": "18",
        "type": "t_uint256"
      },
      {
        "astId": 12203,
        "contract": "contracts/RandomBeaconGovernance.sol:RandomBeaconGovernance",
        "label": "newDkgResultSubmissionTimeout",
        "offset": 0,
        "slot": "19",
        "type": "t_uint256"
      },
      {
        "astId": 12205,
        "contract": "contracts/RandomBeaconGovernance.sol:RandomBeaconGovernance",
        "label": "dkgResultSubmissionTimeoutChangeInitiated",
        "offset": 0,
        "slot": "20",
        "type": "t_uint256"
      },
      {
        "astId": 12207,
        "contract": "contracts/RandomBeaconGovernance.sol:RandomBeaconGovernance",
        "label": "newDkgSubmitterPrecedencePeriodLength",
        "offset": 0,
        "slot": "21",
        "type": "t_uint256"
      },
      {
        "astId": 12209,
        "contract": "contracts/RandomBeaconGovernance.sol:RandomBeaconGovernance",
        "label": "dkgSubmitterPrecedencePeriodLengthChangeInitiated",
        "offset": 0,
        "slot": "22",
        "type": "t_uint256"
      },
      {
        "astId": 12211,
        "contract": "contracts/RandomBeaconGovernance.sol:RandomBeaconGovernance",
        "label": "newRelayEntrySubmissionFailureSlashingAmount",
        "offset": 0,
        "slot": "23",
        "type": "t_uint96"
      },
      {
        "astId": 12213,
        "contract": "contracts/RandomBeaconGovernance.sol:RandomBeaconGovernance",
        "label": "relayEntrySubmissionFailureSlashingAmountChangeInitiated",
        "offset": 0,
        "slot": "24",
        "type": "t_uint256"
      },
      {
        "astId": 12215,
        "contract": "contracts/RandomBeaconGovernance.sol:RandomBeaconGovernance",
        "label": "newMaliciousDkgResultSlashingAmount",
        "offset": 0,
        "slot": "25",
        "type": "t_uint96"
      },
      {
        "astId": 12217,
        "contract": "contracts/RandomBeaconGovernance.sol:RandomBeaconGovernance",
        "label": "maliciousDkgResultSlashingAmountChangeInitiated",
        "offset": 0,
        "slot": "26",
        "type": "t_uint256"
      },
      {
        "astId": 12219,
        "contract": "contracts/RandomBeaconGovernance.sol:RandomBeaconGovernance",
        "label": "newUnauthorizedSigningSlashingAmount",
        "offset": 0,
        "slot": "27",
        "type": "t_uint96"
      },
      {
        "astId": 12221,
        "contract": "contracts/RandomBeaconGovernance.sol:RandomBeaconGovernance",
        "label": "unauthorizedSigningSlashingAmountChangeInitiated",
        "offset": 0,
        "slot": "28",
        "type": "t_uint256"
      },
      {
        "astId": 12223,
        "contract": "contracts/RandomBeaconGovernance.sol:RandomBeaconGovernance",
        "label": "newSortitionPoolRewardsBanDuration",
        "offset": 0,
        "slot": "29",
        "type": "t_uint256"
      },
      {
        "astId": 12225,
        "contract": "contracts/RandomBeaconGovernance.sol:RandomBeaconGovernance",
        "label": "sortitionPoolRewardsBanDurationChangeInitiated",
        "offset": 0,
        "slot": "30",
        "type": "t_uint256"
      },
      {
        "astId": 12227,
        "contract": "contracts/RandomBeaconGovernance.sol:RandomBeaconGovernance",
        "label": "newRelayEntryTimeoutNotificationRewardMultiplier",
        "offset": 0,
        "slot": "31",
        "type": "t_uint256"
      },
      {
        "astId": 12229,
        "contract": "contracts/RandomBeaconGovernance.sol:RandomBeaconGovernance",
        "label": "relayEntryTimeoutNotificationRewardMultiplierChangeInitiated",
        "offset": 0,
        "slot": "32",
        "type": "t_uint256"
      },
      {
        "astId": 12231,
        "contract": "contracts/RandomBeaconGovernance.sol:RandomBeaconGovernance",
        "label": "newUnauthorizedSigningNotificationRewardMultiplier",
        "offset": 0,
        "slot": "33",
        "type": "t_uint256"
      },
      {
        "astId": 12233,
        "contract": "contracts/RandomBeaconGovernance.sol:RandomBeaconGovernance",
        "label": "unauthorizedSigningNotificationRewardMultiplierChangeInitiated",
        "offset": 0,
        "slot": "34",
        "type": "t_uint256"
      },
      {
        "astId": 12235,
        "contract": "contracts/RandomBeaconGovernance.sol:RandomBeaconGovernance",
        "label": "newMinimumAuthorization",
        "offset": 0,
        "slot": "35",
        "type": "t_uint96"
      },
      {
        "astId": 12237,
        "contract": "contracts/RandomBeaconGovernance.sol:RandomBeaconGovernance",
        "label": "minimumAuthorizationChangeInitiated",
        "offset": 0,
        "slot": "36",
        "type": "t_uint256"
      },
      {
        "astId": 12239,
        "contract": "contracts/RandomBeaconGovernance.sol:RandomBeaconGovernance",
        "label": "newAuthorizationDecreaseDelay",
        "offset": 0,
        "slot": "37",
        "type": "t_uint64"
      },
      {
        "astId": 12241,
        "contract": "contracts/RandomBeaconGovernance.sol:RandomBeaconGovernance",
        "label": "authorizationDecreaseDelayChangeInitiated",
        "offset": 0,
        "slot": "38",
        "type": "t_uint256"
      },
      {
        "astId": 12243,
        "contract": "contracts/RandomBeaconGovernance.sol:RandomBeaconGovernance",
        "label": "newAuthorizationDecreaseChangePeriod",
        "offset": 0,
        "slot": "39",
        "type": "t_uint64"
      },
      {
        "astId": 12245,
        "contract": "contracts/RandomBeaconGovernance.sol:RandomBeaconGovernance",
        "label": "authorizationDecreaseChangePeriodChangeInitiated",
        "offset": 0,
        "slot": "40",
        "type": "t_uint256"
      },
      {
        "astId": 12247,
        "contract": "contracts/RandomBeaconGovernance.sol:RandomBeaconGovernance",
        "label": "newDkgMaliciousResultNotificationRewardMultiplier",
        "offset": 0,
        "slot": "41",
        "type": "t_uint256"
      },
      {
        "astId": 12249,
        "contract": "contracts/RandomBeaconGovernance.sol:RandomBeaconGovernance",
        "label": "dkgMaliciousResultNotificationRewardMultiplierChangeInitiated",
        "offset": 0,
        "slot": "42",
        "type": "t_uint256"
      },
      {
        "astId": 12251,
        "contract": "contracts/RandomBeaconGovernance.sol:RandomBeaconGovernance",
        "label": "newDkgResultSubmissionGas",
        "offset": 0,
        "slot": "43",
        "type": "t_uint256"
      },
      {
        "astId": 12253,
        "contract": "contracts/RandomBeaconGovernance.sol:RandomBeaconGovernance",
        "label": "dkgResultSubmissionGasChangeInitiated",
        "offset": 0,
        "slot": "44",
        "type": "t_uint256"
      },
      {
        "astId": 12255,
        "contract": "contracts/RandomBeaconGovernance.sol:RandomBeaconGovernance",
        "label": "newDkgResultApprovalGasOffset",
        "offset": 0,
        "slot": "45",
        "type": "t_uint256"
      },
      {
        "astId": 12257,
        "contract": "contracts/RandomBeaconGovernance.sol:RandomBeaconGovernance",
        "label": "dkgResultApprovalGasOffsetChangeInitiated",
        "offset": 0,
        "slot": "46",
        "type": "t_uint256"
      },
      {
        "astId": 12259,
        "contract": "contracts/RandomBeaconGovernance.sol:RandomBeaconGovernance",
        "label": "newNotifyOperatorInactivityGasOffset",
        "offset": 0,
        "slot": "47",
        "type": "t_uint256"
      },
      {
        "astId": 12261,
        "contract": "contracts/RandomBeaconGovernance.sol:RandomBeaconGovernance",
        "label": "notifyOperatorInactivityGasOffsetChangeInitiated",
        "offset": 0,
        "slot": "48",
        "type": "t_uint256"
      },
      {
        "astId": 12263,
        "contract": "contracts/RandomBeaconGovernance.sol:RandomBeaconGovernance",
        "label": "newRelayEntrySubmissionGasOffset",
        "offset": 0,
        "slot": "49",
        "type": "t_uint256"
      },
      {
        "astId": 12265,
        "contract": "contracts/RandomBeaconGovernance.sol:RandomBeaconGovernance",
        "label": "relayEntrySubmissionGasOffsetChangeInitiated",
        "offset": 0,
        "slot": "50",
        "type": "t_uint256"
      },
      {
        "astId": 12270,
        "contract": "contracts/RandomBeaconGovernance.sol:RandomBeaconGovernance",
        "label": "governanceDelay",
        "offset": 0,
        "slot": "51",
        "type": "t_uint256"
      }
    ],
    "types": {
      "t_address": {
        "encoding": "inplace",
        "label": "address",
        "numberOfBytes": "20"
      },
      "t_uint256": {
        "encoding": "inplace",
        "label": "uint256",
        "numberOfBytes": "32"
      },
      "t_uint64": {
        "encoding": "inplace",
        "label": "uint64",
        "numberOfBytes": "8"
      },
      "t_uint96": {
        "encoding": "inplace",
        "label": "uint96",
        "numberOfBytes": "12"
      }
    }
  }
}