{
  "address": "0xc2731fb2823af3Efc2694c9bC86F444d5c5bb4Dc",
  "abi": [
    {
      "inputs": [
        {
          "internalType": "contract IERC20WithPermit",
          "name": "_rewardToken",
          "type": "address"
        },
        {
          "internalType": "uint256",
          "name": "_poolWeightDivisor",
          "type": "uint256"
        }
      ],
      "stateMutability": "nonpayable",
      "type": "constructor"
    },
    {
      "anonymous": false,
      "inputs": [
        {
          "indexed": false,
          "internalType": "address[]",
          "name": "operators",
          "type": "address[]"
        }
      ],
      "name": "BetaOperatorsAdded",
      "type": "event"
    },
    {
      "anonymous": false,
      "inputs": [],
      "name": "ChaosnetDeactivated",
      "type": "event"
    },
    {
      "anonymous": false,
      "inputs": [
        {
          "indexed": false,
          "internalType": "address",
          "name": "oldChaosnetOwner",
          "type": "address"
        },
        {
          "indexed": false,
          "internalType": "address",
          "name": "newChaosnetOwner",
          "type": "address"
        }
      ],
      "name": "ChaosnetOwnerRoleTransferred",
      "type": "event"
    },
    {
      "anonymous": false,
      "inputs": [
        {
          "indexed": false,
          "internalType": "uint32[]",
          "name": "ids",
          "type": "uint32[]"
        },
        {
          "indexed": false,
          "internalType": "uint256",
          "name": "until",
          "type": "uint256"
        }
      ],
      "name": "IneligibleForRewards",
      "type": "event"
    },
    {
      "anonymous": false,
      "inputs": [
        {
          "indexed": true,
          "internalType": "address",
          "name": "previousOwner",
          "type": "address"
        },
        {
          "indexed": true,
          "internalType": "address",
          "name": "newOwner",
          "type": "address"
        }
      ],
      "name": "OwnershipTransferred",
      "type": "event"
    },
    {
      "anonymous": false,
      "inputs": [
        {
          "indexed": true,
          "internalType": "address",
          "name": "operator",
          "type": "address"
        },
        {
          "indexed": true,
          "internalType": "uint32",
          "name": "id",
          "type": "uint32"
        }
      ],
      "name": "RewardEligibilityRestored",
      "type": "event"
    },
    {
      "inputs": [
        {
          "internalType": "address[]",
          "name": "operators",
          "type": "address[]"
        }
      ],
      "name": "addBetaOperators",
      "outputs": [],
      "stateMutability": "nonpayable",
      "type": "function"
    },
    {
      "inputs": [
        {
          "internalType": "address",
          "name": "operator",
          "type": "address"
        }
      ],
      "name": "canRestoreRewardEligibility",
      "outputs": [
        {
          "internalType": "bool",
          "name": "",
          "type": "bool"
        }
      ],
      "stateMutability": "view",
      "type": "function"
    },
    {
      "inputs": [],
      "name": "chaosnetOwner",
      "outputs": [
        {
          "internalType": "address",
          "name": "",
          "type": "address"
        }
      ],
      "stateMutability": "view",
      "type": "function"
    },
    {
      "inputs": [],
      "name": "deactivateChaosnet",
      "outputs": [],
      "stateMutability": "nonpayable",
      "type": "function"
    },
    {
      "inputs": [
        {
          "internalType": "address",
          "name": "operator",
          "type": "address"
        }
      ],
      "name": "getAvailableRewards",
      "outputs": [
        {
          "internalType": "uint96",
          "name": "",
          "type": "uint96"
        }
      ],
      "stateMutability": "view",
      "type": "function"
    },
    {
      "inputs": [
        {
          "internalType": "uint32",
          "name": "id",
          "type": "uint32"
        }
      ],
      "name": "getIDOperator",
      "outputs": [
        {
          "internalType": "address",
          "name": "",
          "type": "address"
        }
      ],
      "stateMutability": "view",
      "type": "function"
    },
    {
      "inputs": [
        {
          "internalType": "uint32[]",
          "name": "ids",
          "type": "uint32[]"
        }
      ],
      "name": "getIDOperators",
      "outputs": [
        {
          "internalType": "address[]",
          "name": "",
          "type": "address[]"
        }
      ],
      "stateMutability": "view",
      "type": "function"
    },
    {
      "inputs": [
        {
          "internalType": "address",
          "name": "operator",
          "type": "address"
        }
      ],
      "name": "getOperatorID",
      "outputs": [
        {
          "internalType": "uint32",
          "name": "",
          "type": "uint32"
        }
      ],
      "stateMutability": "view",
      "type": "function"
    },
    {
      "inputs": [
        {
          "internalType": "address",
          "name": "operator",
          "type": "address"
        }
      ],
      "name": "getPoolWeight",
      "outputs": [
        {
          "internalType": "uint256",
          "name": "",
          "type": "uint256"
        }
      ],
      "stateMutability": "view",
      "type": "function"
    },
    {
      "inputs": [],
      "name": "ineligibleEarnedRewards",
      "outputs": [
        {
          "internalType": "uint96",
          "name": "",
          "type": "uint96"
        }
      ],
      "stateMutability": "view",
      "type": "function"
    },
    {
      "inputs": [
        {
          "internalType": "address",
          "name": "operator",
          "type": "address"
        },
        {
          "internalType": "uint256",
          "name": "authorizedStake",
          "type": "uint256"
        }
      ],
      "name": "insertOperator",
      "outputs": [],
      "stateMutability": "nonpayable",
      "type": "function"
    },
    {
      "inputs": [
        {
          "internalType": "address",
          "name": "",
          "type": "address"
        }
      ],
      "name": "isBetaOperator",
      "outputs": [
        {
          "internalType": "bool",
          "name": "",
          "type": "bool"
        }
      ],
      "stateMutability": "view",
      "type": "function"
    },
    {
      "inputs": [],
      "name": "isChaosnetActive",
      "outputs": [
        {
          "internalType": "bool",
          "name": "",
          "type": "bool"
        }
      ],
      "stateMutability": "view",
      "type": "function"
    },
    {
      "inputs": [
        {
          "internalType": "address",
          "name": "operator",
          "type": "address"
        }
      ],
      "name": "isEligibleForRewards",
      "outputs": [
        {
          "internalType": "bool",
          "name": "",
          "type": "bool"
        }
      ],
      "stateMutability": "view",
      "type": "function"
    },
    {
      "inputs": [],
      "name": "isLocked",
      "outputs": [
        {
          "internalType": "bool",
          "name": "",
          "type": "bool"
        }
      ],
      "stateMutability": "view",
      "type": "function"
    },
    {
      "inputs": [
        {
          "internalType": "address",
          "name": "operator",
          "type": "address"
        }
      ],
      "name": "isOperatorInPool",
      "outputs": [
        {
          "internalType": "bool",
          "name": "",
          "type": "bool"
        }
      ],
      "stateMutability": "view",
      "type": "function"
    },
    {
      "inputs": [
        {
          "internalType": "address",
          "name": "operator",
          "type": "address"
        }
      ],
      "name": "isOperatorRegistered",
      "outputs": [
        {
          "internalType": "bool",
          "name": "",
          "type": "bool"
        }
      ],
      "stateMutability": "view",
      "type": "function"
    },
    {
      "inputs": [
        {
          "internalType": "address",
          "name": "operator",
          "type": "address"
        },
        {
          "internalType": "uint256",
          "name": "authorizedStake",
          "type": "uint256"
        }
      ],
      "name": "isOperatorUpToDate",
      "outputs": [
        {
          "internalType": "bool",
          "name": "",
          "type": "bool"
        }
      ],
      "stateMutability": "view",
      "type": "function"
    },
    {
      "inputs": [],
      "name": "lock",
      "outputs": [],
      "stateMutability": "nonpayable",
      "type": "function"
    },
    {
      "inputs": [],
      "name": "operatorsInPool",
      "outputs": [
        {
          "internalType": "uint256",
          "name": "",
          "type": "uint256"
        }
      ],
      "stateMutability": "view",
      "type": "function"
    },
    {
      "inputs": [],
      "name": "owner",
      "outputs": [
        {
          "internalType": "address",
          "name": "",
          "type": "address"
        }
      ],
      "stateMutability": "view",
      "type": "function"
    },
    {
      "inputs": [],
      "name": "poolWeightDivisor",
      "outputs": [
        {
          "internalType": "uint256",
          "name": "",
          "type": "uint256"
        }
      ],
      "stateMutability": "view",
      "type": "function"
    },
    {
      "inputs": [
        {
          "internalType": "address",
          "name": "sender",
          "type": "address"
        },
        {
          "internalType": "uint256",
          "name": "amount",
          "type": "uint256"
        },
        {
          "internalType": "address",
          "name": "token",
          "type": "address"
        },
        {
          "internalType": "bytes",
          "name": "",
          "type": "bytes"
        }
      ],
      "name": "receiveApproval",
      "outputs": [],
      "stateMutability": "nonpayable",
      "type": "function"
    },
    {
      "inputs": [],
      "name": "renounceOwnership",
      "outputs": [],
      "stateMutability": "nonpayable",
      "type": "function"
    },
    {
      "inputs": [
        {
          "internalType": "address",
          "name": "operator",
          "type": "address"
        }
      ],
      "name": "restoreRewardEligibility",
      "outputs": [],
      "stateMutability": "nonpayable",
      "type": "function"
    },
    {
      "inputs": [],
      "name": "rewardToken",
      "outputs": [
        {
          "internalType": "contract IERC20WithPermit",
          "name": "",
          "type": "address"
        }
      ],
      "stateMutability": "view",
      "type": "function"
    },
    {
      "inputs": [
        {
          "internalType": "address",
          "name": "operator",
          "type": "address"
        }
      ],
      "name": "rewardsEligibilityRestorableAt",
      "outputs": [
        {
          "internalType": "uint256",
          "name": "",
          "type": "uint256"
        }
      ],
      "stateMutability": "view",
      "type": "function"
    },
    {
      "inputs": [
        {
          "internalType": "uint256",
          "name": "groupSize",
          "type": "uint256"
        },
        {
          "internalType": "bytes32",
          "name": "seed",
          "type": "bytes32"
        }
      ],
      "name": "selectGroup",
      "outputs": [
        {
          "internalType": "uint32[]",
          "name": "",
          "type": "uint32[]"
        }
      ],
      "stateMutability": "view",
      "type": "function"
    },
    {
      "inputs": [
        {
          "internalType": "uint32[]",
          "name": "operators",
          "type": "uint32[]"
        },
        {
          "internalType": "uint256",
          "name": "until",
          "type": "uint256"
        }
      ],
      "name": "setRewardIneligibility",
      "outputs": [],
      "stateMutability": "nonpayable",
      "type": "function"
    },
    {
      "inputs": [],
      "name": "totalWeight",
      "outputs": [
        {
          "internalType": "uint256",
          "name": "",
          "type": "uint256"
        }
      ],
      "stateMutability": "view",
      "type": "function"
    },
    {
      "inputs": [
        {
          "internalType": "address",
          "name": "newChaosnetOwner",
          "type": "address"
        }
      ],
      "name": "transferChaosnetOwnerRole",
      "outputs": [],
      "stateMutability": "nonpayable",
      "type": "function"
    },
    {
      "inputs": [
        {
          "internalType": "address",
          "name": "newOwner",
          "type": "address"
        }
      ],
      "name": "transferOwnership",
      "outputs": [],
      "stateMutability": "nonpayable",
      "type": "function"
    },
    {
      "inputs": [],
      "name": "unlock",
      "outputs": [],
      "stateMutability": "nonpayable",
      "type": "function"
    },
    {
      "inputs": [
        {
          "internalType": "address",
          "name": "operator",
          "type": "address"
        },
        {
          "internalType": "uint256",
          "name": "authorizedStake",
          "type": "uint256"
        }
      ],
      "name": "updateOperatorStatus",
      "outputs": [],
      "stateMutability": "nonpayable",
      "type": "function"
    },
    {
      "inputs": [
        {
          "internalType": "address",
          "name": "recipient",
          "type": "address"
        }
      ],
      "name": "withdrawIneligible",
      "outputs": [],
      "stateMutability": "nonpayable",
      "type": "function"
    },
    {
      "inputs": [
        {
          "internalType": "address",
          "name": "operator",
          "type": "address"
        },
        {
          "internalType": "address",
          "name": "beneficiary",
          "type": "address"
        }
      ],
      "name": "withdrawRewards",
      "outputs": [
        {
          "internalType": "uint96",
          "name": "",
          "type": "uint96"
        }
      ],
      "stateMutability": "nonpayable",
      "type": "function"
    }
  ],
  "transactionHash": "0x59209651437c279e4f316672461eceefcc19fdead5bdef7b6d961e3006e52174",
  "args": [
    "0xCdF7028ceAB81fA0C6971208e83fa7872994beE5",
    "1000000000000000000"
  ],
  "numDeployments": 1,
  "solcInputHash": "b2d79823d7aa79cff09f112dce64ebc8",
  "bytecode": "0x60e06040523480156200001157600080fd5b5060405162002c7138038062002c71833981016040819052620000349162000140565b6000808055600481905560078054600101815590524260805262000058336200008d565b6200006333620000df565b600b805460ff60a01b1916600160a01b1790556001600160a01b0390911660a05260c0526200017c565b600b80546001600160a01b038381166001600160a01b0319831681179093556040519116919082907f8be0079c531659141344cd1fd0a4f28419497f9722a3daafe3b4186f6b6457e090600090a35050565b600d80546001600160a01b038381166001600160a01b031983168117909355604080519190921680825260208201939093527ff7d2871c195d5dcbeca7c9bfb4f7ae4149d0915a5d3d03c8c2286c9a24e932be910160405180910390a15050565b600080604083850312156200015457600080fd5b82516001600160a01b03811681146200016c57600080fd5b6020939093015192949293505050565b60805160a05160c051612a9b620001d6600039600081816102a6015261139001526000818161050101528181610ac801528181610b6701528181610cfb0152610fb10152600081816113040152611aa50152612a9b6000f3fe608060405234801561001057600080fd5b506004361061021b5760003560e01c806396c82e5711610125578063dc7520c5116100ad578063f2fde38b1161007c578063f2fde38b146104e9578063f7186ce014610329578063f7c618c1146104fc578063f7f9a8fa14610523578063f83d08ba1461054357600080fd5b8063dc7520c5146104b3578063e20981ca146104c6578063e7bfd899146104d9578063f23baf4a146104e157600080fd5b8063a9649414116100f4578063a964941414610453578063b0f3828e14610466578063b2f3db4d1461047a578063c0a3f9eb1461048d578063c545b3a9146104a057600080fd5b806396c82e571461041c578063a4e2d63414610424578063a69df4b514610438578063a7a7d3911461044057600080fd5b80636b1906f8116101a8578063873e31fa11610177578063873e31fa146103a75780638871ca5d146103d25780638da5cb5b146103e55780638f4ffcb1146103f6578063942f68921461040957600080fd5b80636b1906f8146103295780636c2530b914610354578063715018a6146103745780637c2cf6cd1461037c57600080fd5b806343a3db30116101ef57806343a3db30146102a15780634de824f0146102c85780635757ed5b146102db5780635a48b46b146102ee578063660186e61461031657600080fd5b8062983b7314610220578063241a418814610246578063398ece9c1461025b5780633e723fc91461028e575b600080fd5b61023361022e3660046123d2565b61054b565b6040519081526020015b60405180910390f35b6102596102543660046123ed565b610569565b005b61027e6102693660046123d2565b600c6020526000908152604090205460ff1681565b604051901515815260200161023d565b61025961029c36600461245c565b6106be565b6102337f000000000000000000000000000000000000000000000000000000000000000081565b61027e6102d63660046123ed565b6107ea565b6102336102e93660046123d2565b610808565b6103016102fc3660046123d2565b610856565b60405163ffffffff909116815260200161023d565b61027e6103243660046123d2565b610877565b61027e6103373660046123d2565b6001600160a01b0316600090815260036020526040902054151590565b61036761036236600461249e565b6108ac565b60405161023d91906124c0565b610259610a4e565b600d5461038f906001600160a01b031681565b6040516001600160a01b03909116815260200161023d565b6103ba6103b53660046123d2565b610a62565b6040516001600160601b03909116815260200161023d565b61038f6103e036600461251e565b610a79565b600b546001600160a01b031661038f565b610259610404366004612539565b610ac6565b6102596104173660046125d4565b610bf0565b610233610c76565b600d5461027e90600160a01b900460ff1681565b610259610c88565b6009546103ba906001600160601b031681565b6102596104613660046123d2565b610c9f565b600b5461027e90600160a01b900460ff1681565b6102596104883660046123d2565b610d6f565b61027e61049b3660046123d2565b610dc5565b6102596104ae3660046123d2565b610ddc565b6102596104c13660046123ed565b610e7c565b6103ba6104d4366004612620565b610f1a565b610233611029565b610259611044565b6102596104f73660046123d2565b6110f8565b61038f7f000000000000000000000000000000000000000000000000000000000000000081565b61053661053136600461245c565b61116e565b60405161023d9190612653565b610259611271565b60008061055783610856565b90506105628161128e565b9392505050565b61057161132f565b600d54600160a01b900460ff16156105c85760405162461bcd60e51b815260206004820152601560248201527414dbdc9d1a5d1a5bdb881c1bdbdb081b1bd8dad959605a1b60448201526064015b60405180910390fd5b60006105d382611389565b90506000811161061d5760405162461bcd60e51b81526020600482015260156024820152744f70657261746f72206e6f7420656c696769626c6560581b60448201526064016105bf565b600b54600160a01b900460ff1615610697576001600160a01b0383166000908152600c602052604090205460ff166106975760405162461bcd60e51b815260206004820152601e60248201527f4e6f742062657461206f70657261746f7220666f72206368616f736e6574000060448201526064016105bf565b6106a183826113b5565b60006106ac84610856565b90506106b881836114ab565b50505050565b600b54600160a01b900460ff166107105760405162461bcd60e51b81526020600482015260166024820152754368616f736e6574206973206e6f742061637469766560501b60448201526064016105bf565b600d546001600160a01b0316331461073a5760405162461bcd60e51b81526004016105bf90612694565b60005b818110156107ac576001600c600085858581811061075d5761075d6126c4565b905060200201602081019061077291906123d2565b6001600160a01b031681526020810191909152604001600020805460ff1916911515919091179055806107a4816126f0565b91505061073d565b507f79b60dc9f29a0514f5ce9bf1e89b7add7a22440cde3b203c03a842e3b534071b82826040516107de929190612709565b60405180910390a15050565b60006107f583610808565b6107fe83611389565b1490505b92915050565b6001600160a01b038116600090815260036020526040812054806000036108325750600092915050565b6001600160ff1b038116600061084782611631565b95945050505050565b50919050565b6001600160a01b031660009081526006602052604090205463ffffffff1690565b60008061088383610856565b90506105628163ffffffff9081166000908152600a6020526040902054600160c01b9004161590565b600d54606090600160a01b900460ff166109085760405162461bcd60e51b815260206004820152601760248201527f536f72746974696f6e20706f6f6c20756e6c6f636b656400000000000000000060448201526064016105bf565b600080549083906109188361168e565b90506000811161096a5760405162461bcd60e51b815260206004820152601c60248201527f4e6f7420656e6f756768206f70657261746f727320696e20706f6f6c0000000060448201526064016105bf565b600080610976836116b5565b905060008867ffffffffffffffff81111561099357610993612755565b6040519080825280602002602001820160405280156109bc578160200160208202803683370190505b50905060005b89811015610a41576109d58587856116e7565b9650935060006109e5858961175f565b600081815260026020526040902054909150610a008161182a565b848481518110610a1257610a126126c4565b602002602001019063ffffffff16908163ffffffff168152505050508080610a39906126f0565b9150506109c2565b5098975050505050505050565b610a5661132f565b610a606000611863565b565b600080610a6e83610856565b9050610562816118b5565b60075460009063ffffffff831610610a92576000610802565b60078263ffffffff1681548110610aab57610aab6126c4565b6000918252602090912001546001600160a01b031692915050565b7f00000000000000000000000000000000000000000000000000000000000000006001600160a01b0316836001600160a01b031614610b3b5760405162461bcd60e51b81526020600482015260116024820152702ab739bab83837b93a32b2103a37b5b2b760791b60448201526064016105bf565b6040516323b872dd60e01b81526001600160a01b038681166004830152306024830152604482018690527f000000000000000000000000000000000000000000000000000000000000000016906323b872dd906064016020604051808303816000875af1158015610bb0573d6000803e3d6000fd5b505050506040513d601f19601f82011682018060405250810190610bd4919061276b565b50610be984610be460005461168e565b611963565b5050505050565b610bf861132f565b610c36838380806020026020016040519081016040528093929190818152602001838360200280828437600092019190915250859250611a6b915050565b7f01f5838e3dde8cf4817b958fe95be92bdfeccb34317e1d9f58d1cfe5230de231838383604051610c699392919061278d565b60405180910390a1505050565b6000610c8360005461168e565b905090565b610c9061132f565b600d805460ff60a01b19169055565b610ca761132f565b6000610cca600980546001600160601b031981169091556001600160601b031690565b60405163a9059cbb60e01b81526001600160a01b0384811660048301526001600160601b03831660248301529192507f00000000000000000000000000000000000000000000000000000000000000009091169063a9059cbb906044016020604051808303816000875af1158015610d46573d6000803e3d6000fd5b505050506040513d601f19601f82011682018060405250810190610d6a919061276b565b505050565b6000610d7a82610856565b9050610d8581611c6d565b60405163ffffffff8216906001600160a01b038416907fe61e9f0f049b3bfae1ae903a5e3018c02a008aa0d238ffddf23a4fb4c027853690600090a35050565b600080610dd183610856565b905061056281611e09565b600d546001600160a01b03163314610e065760405162461bcd60e51b81526004016105bf90612694565b6001600160a01b038116610e705760405162461bcd60e51b815260206004820152602b60248201527f4e6577206368616f736e6574206f776e6572206d757374206e6f74206265207a60448201526a65726f206164647265737360a81b60648201526084016105bf565b610e7981611e1d565b50565b610e8461132f565b600d54600160a01b900460ff1615610ed65760405162461bcd60e51b815260206004820152601560248201527414dbdc9d1a5d1a5bdb881c1bdbdb081b1bd8dad959605a1b60448201526064016105bf565b6000610ee182611389565b90506000610eee84610856565b9050610efa81836114ab565b81600003610f1057610f0b84611e77565b6106b8565b6106b88483611eeb565b6000610f2461132f565b6000610f2f84610856565b9050610f4381610f3e86610808565b6114ab565b63ffffffff81166000908152600a6020526040812080546bffffffffffffffffffffffff60601b198116909155600160601b90046001600160601b031660405163a9059cbb60e01b81526001600160a01b0386811660048301526001600160601b03831660248301529192507f00000000000000000000000000000000000000000000000000000000000000009091169063a9059cbb906044016020604051808303816000875af1158015610ffc573d6000803e3d6000fd5b505050506040513d601f19601f82011682018060405250810190611020919061276b565b50949350505050565b6004546005546000919061103d81836127de565b9250505090565b600b54600160a01b900460ff166110965760405162461bcd60e51b81526020600482015260166024820152754368616f736e6574206973206e6f742061637469766560501b60448201526064016105bf565b600d546001600160a01b031633146110c05760405162461bcd60e51b81526004016105bf90612694565b600b805460ff60a01b191690556040517fbea11dc6cfde2788be7e8a6ceef5c8d181bb1c628ba6d71675fca0e754367c7490600090a1565b61110061132f565b6001600160a01b0381166111655760405162461bcd60e51b815260206004820152602660248201527f4f776e61626c653a206e6577206f776e657220697320746865207a65726f206160448201526564647265737360d01b60648201526084016105bf565b610e7981611863565b60075460609060008367ffffffffffffffff81111561118f5761118f612755565b6040519080825280602002602001820160405280156111b8578160200160208202803683370190505b50905060005b848110156110205760008686838181106111da576111da6126c4565b90506020020160208101906111ef919061251e565b90508063ffffffff168411611205576000611234565b60078163ffffffff168154811061121e5761121e6126c4565b6000918252602090912001546001600160a01b03165b838381518110611246576112466126c4565b6001600160a01b03909216602092830291909101909101525080611269816126f0565b9150506111be565b61127961132f565b600d805460ff60a01b1916600160a01b179055565b63ffffffff8082166000908152600a60205260408120549091600160c01b909104168082036112ff5760405162461bcd60e51b815260206004820152601960248201527f4f70657261746f7220616c726561647920656c696769626c650000000000000060448201526064016105bf565b6105627f000000000000000000000000000000000000000000000000000000000000000063ffffffff83166127f1565b600b546001600160a01b03163314610a605760405162461bcd60e51b815260206004820181905260248201527f4f776e61626c653a2063616c6c6572206973206e6f7420746865206f776e657260448201526064016105bf565b60006108027f00000000000000000000000000000000000000000000000000000000000000008361281a565b6001600160a01b0382166000908152600360205260409020541561142e5760405162461bcd60e51b815260206004820152602a60248201527f4f70657261746f7220697320616c7265616479207265676973746572656420696044820152691b881d1a19481c1bdbdb60b21b60648201526084016105bf565b600061143983610856565b63ffffffff169050806000036114555761145283611f5c565b90505b600061145f61201f565b9050600061146e854385612102565b905061147e8282866000546121db565b600055600160ff1b82176001600160a01b0390951660009081526003602052604090209490945550505050565b60085463ffffffff8084166000908152600a60209081526040808320815160808101835290546001600160601b03818116808452600160601b8304821695840195909552600160c01b8204871693830193909352600160e01b9004909416606085018190529416939061151e908561282e565b6115289190612855565b9050816040015163ffffffff1660000361155f57808260200181815161154e9190612880565b6001600160601b03169052506115a2565b6009805482919060009061157d9084906001600160601b0316612880565b92506101000a8154816001600160601b0302191690836001600160601b031602179055505b506001600160601b03918216815263ffffffff928316606082019081529383166000908152600a60209081526040918290208351815492850151939094015196518616600160e01b026001600160e01b0397909616600160c01b02969096166001600160c01b03928516600160601b026001600160c01b03199092169390941692909217919091171617179055565b60008061163d836121f7565b9050600061164b8460031c90565b60008181527fdc686ec4a0ff239c70e7c7c36e8f853eced3bc8618f48d2b816da2a74311237e602052604090205490915061084781846020021c63ffffffff1690565b63ffffffff8116602082901c5b80156108505763ffffffff8116919091019060201c61169b565b6000816001036116c757506000919050565b601f5b82816001901b106116de57600019016116ca565b60010192915050565b6000808080855b82611752576000196001871b0181169150803060405160200161172892919091825260601b6001600160601b031916602082015260340190565b6040516020818303038152906040528051906020012090508782101561174d57600192505b6116ee565b9097909650945050505050565b60008282828061176e8361168e565b87106117b35760405162461bcd60e51b8152602060048201526014602482015273125b99195e08195e18d959591cc81dd95a59da1d60621b60448201526064016105bf565b6117bd8385612207565b9450905060025b60078111611814576117d6838361223e565b6000828152600160209081526040808320848452909152902054945092506117fe8486612207565b955091508061180c816126f0565b9150506117c4565b5061181f828261223e565b979650505050505050565b6000600161183a60036002612984565b6118469061010061281a565b611851906002612984565b61185b91906127de565b909116919050565b600b80546001600160a01b038381166001600160a01b0319831681179093556040519116919082907f8be0079c531659141344cd1fd0a4f28419497f9722a3daafe3b4186f6b6457e090600090a35050565b60085463ffffffff8083166000908152600a60209081526040808320815160808101835290546001600160601b038181168352600160601b8204811694830194909452600160c01b81048616928201839052600160e01b9004909416606085015291931691908303611958576060810151815160009163ffffffff169061193c908561282e565b6119469190612855565b90508082602001516108479190612880565b602001519392505050565b60008163ffffffff16116119b15760405162461bcd60e51b8152602060048201526015602482015274139bc81c9958da5c1a595b9d1cc81a5b881c1bdbdb605a1b60448201526064016105bf565b6008546000906119d190600160601b90046001600160601b031684612880565b905060006119e563ffffffff841683612990565b905060006119f963ffffffff8516846129b6565b600880549192508391600090611a199084906001600160601b0316612880565b92506101000a8154816001600160601b0302191690836001600160601b03160217905550806008600c6101000a8154816001600160601b0302191690836001600160601b031602179055505050505050565b604080516080810182526000808252602082018190529181018290526060810182905260085490916001600160601b039091169080611aca7f0000000000000000000000000000000000000000000000000000000000000000866127de565b905060005b8651811015611c64576000878281518110611aec57611aec6126c4565b60209081029190910181015163ffffffff8082166000908152600a845260409081902080546001600160601b03600160601b82048116968d01969096529485168b52600160c01b85048316918b01829052600160e01b90940490911660608a015290925015611b7f578363ffffffff16876040015163ffffffff161015611b7a5763ffffffff841660408801525b611bcb565b63ffffffff808516604089015260608801518851911690611ba0908861282e565b611baa9190612855565b94508487602001818151611bbe9190612880565b6001600160601b03169052505b6001600160601b038681168089526020890151835460408b015160608c01516001600160e01b0319909216600160601b93909516929092027fffffffff00000000ffffffffffffffffffffffff0000000000000000000000001693909317909117600160c01b63ffffffff92831602176001600160e01b0316600160e01b91909216021790555080611c5c816126f0565b915050611acf565b50505050505050565b611c7681611e09565b611cc25760405162461bcd60e51b815260206004820152601960248201527f4f70657261746f72207374696c6c20696e656c696769626c650000000000000060448201526064016105bf565b60085463ffffffff8083166000908152600a60209081526040808320815160808101835290546001600160601b03818116808452600160601b8304821695840195909552600160c01b8204871693830193909352600160e01b90049094166060850181905294169390611d35908561282e565b611d3f9190612855565b600980549192508291600090611d5f9084906001600160601b0316612880565b82546001600160601b039182166101009390930a928302928202191691909117909155938416835250506000604080830182815263ffffffff9586168352600a602090815291909220835181549285015193516060909501518716600160e01b026001600160e01b0395909716600160c01b02949094166001600160c01b03938616600160601b026001600160c01b03199093169490951693909317171691909117919091179055565b600042611e158361128e565b111592915050565b600d80546001600160a01b038381166001600160a01b031983168117909355604080519190921680825260208201939093527ff7d2871c195d5dcbeca7c9bfb4f7ae4149d0915a5d3d03c8c2286c9a24e932be91016107de565b6001600160a01b03811660009081526003602052604081205490819003611eb05760405162461bcd60e51b81526004016105bf906129dc565b60006001600160ff1b0382169050611eca81600054612268565b600055610d6a836001600160a01b0316600090815260036020526040812055565b6001600160a01b038216600090815260036020526040902054611f205760405162461bcd60e51b81526004016105bf906129dc565b6001600160a01b03821660009081526003602052604081205490546001600160ff1b03821690611f5390829085906122dd565b60005550505050565b60075460009063ffffffff811115611faf5760405162461bcd60e51b8152602060048201526016602482015275141bdbdb0818d85c1858da5d1e48195e18d95959195960521b60448201526064016105bf565b6001600160a01b03929092166000818152600660205260408120805463ffffffff191663ffffffff86161790556007805460018101825591527fa66cc928b5edb82af9bd49922954155ab7b0942694bea4ce44661d9a8736c6880180546001600160a01b03191690911790555090565b60045460009081600761203460036002612984565b61203e9190612984565b6120498360016127f1565b10905080156120665761205d8260016127f1565b60045550919050565b600554806120a55760405162461bcd60e51b815260206004820152600c60248201526b141bdbdb081a5cc8199d5b1b60a21b60448201526064016105bf565b600060056120b46001846127de565b815481106120c4576120c46126c4565b9060005260206000200154905060058054806120e2576120e2612a22565b600190038181906000526020600020016000905590558094505050505090565b600067ffffffffffffffff83111561211c5761211c612a38565b63ffffffff82111561213057612130612a38565b6001600160601b0319606085901b166000600161214f60036002612984565b61215b9061010061281a565b612166906002612984565b61217091906127de565b84169050600061218260036002612984565b61218e9061010061281a565b600161219c60036002612984565b6121a89061010061281a565b6121b39060606127de565b6121be906002612984565b6121c891906127de565b8716901b92909217179150509392505050565b6000848152600260205260408120849055610847858484612307565b6000600161185160036002612984565b6000818363ffffffff81165b80831061223457600193909301929091039060201c63ffffffff8116612213565b50505b9250929050565b6000600161224e60036002612984565b61225891906127de565b8216600384901b17905092915050565b600080600160045461227a91906127de565b9050838114600061228d868280886121db565b9050811561229f576004839055610847565b600580546001810182556000919091527f036b6384b5eca791c62761152d0c79bb0604c104a5fb6f4eb0703f3154bb3db00186905595945050505050565b6000826122e985611631565b14612300576122f9848484612307565b9050610562565b5080610562565b6000808080858760075b6002811061238857612322826121f7565b955061232e8260031c90565b60008281526001602090815260408083208484528252909120805463ffffffff928a0283811b198216938816901b9290921790819055909650945091506123748461168e565b92508061238081612a4e565b915050612311565b50612392816121f7565b945063ffffffff6020860281811b198916918416901b179998505050505050505050565b80356001600160a01b03811681146123cd57600080fd5b919050565b6000602082840312156123e457600080fd5b610562826123b6565b6000806040838503121561240057600080fd5b612409836123b6565b946020939093013593505050565b60008083601f84011261242957600080fd5b50813567ffffffffffffffff81111561244157600080fd5b6020830191508360208260051b850101111561223757600080fd5b6000806020838503121561246f57600080fd5b823567ffffffffffffffff81111561248657600080fd5b61249285828601612417565b90969095509350505050565b600080604083850312156124b157600080fd5b50508035926020909101359150565b6020808252825182820181905260009190848201906040850190845b818110156124fe57835163ffffffff16835292840192918401916001016124dc565b50909695505050505050565b803563ffffffff811681146123cd57600080fd5b60006020828403121561253057600080fd5b6105628261250a565b60008060008060006080868803121561255157600080fd5b61255a866123b6565b94506020860135935061256f604087016123b6565b9250606086013567ffffffffffffffff8082111561258c57600080fd5b818801915088601f8301126125a057600080fd5b8135818111156125af57600080fd5b8960208285010111156125c157600080fd5b9699959850939650602001949392505050565b6000806000604084860312156125e957600080fd5b833567ffffffffffffffff81111561260057600080fd5b61260c86828701612417565b909790965060209590950135949350505050565b6000806040838503121561263357600080fd5b61263c836123b6565b915061264a602084016123b6565b90509250929050565b6020808252825182820181905260009190848201906040850190845b818110156124fe5783516001600160a01b03168352928401929184019160010161266f565b6020808252601690820152752737ba103a34329031b430b7b9b732ba1037bbb732b960511b604082015260600190565b634e487b7160e01b600052603260045260246000fd5b634e487b7160e01b600052601160045260246000fd5b600060018201612702576127026126da565b5060010190565b60208082528181018390526000908460408401835b8681101561274a576001600160a01b03612737846123b6565b168252918301919083019060010161271e565b509695505050505050565b634e487b7160e01b600052604160045260246000fd5b60006020828403121561277d57600080fd5b8151801515811461056257600080fd5b6040808252810183905260008460608301825b868110156127cb5763ffffffff6127b68461250a565b168252602092830192909101906001016127a0565b5060209390930193909352509392505050565b81810381811115610802576108026126da565b80820180821115610802576108026126da565b634e487b7160e01b600052601260045260246000fd5b60008261282957612829612804565b500490565b6001600160601b0382811682821603908082111561284e5761284e6126da565b5092915050565b6001600160601b03818116838216028082169190828114612878576128786126da565b505092915050565b6001600160601b0381811683821601908082111561284e5761284e6126da565b600181815b808511156128db5781600019048211156128c1576128c16126da565b808516156128ce57918102915b93841c93908002906128a5565b509250929050565b6000826128f257506001610802565b816128ff57506000610802565b8160018114612915576002811461291f5761293b565b6001915050610802565b60ff841115612930576129306126da565b50506001821b610802565b5060208310610133831016604e8410600b841016171561295e575081810a610802565b61296883836128a0565b806000190482111561297c5761297c6126da565b029392505050565b600061056283836128e3565b60006001600160601b03808416806129aa576129aa612804565b92169190910492915050565b60006001600160601b03808416806129d0576129d0612804565b92169190910692915050565b60208082526026908201527f4f70657261746f72206973206e6f74207265676973746572656420696e20746860408201526519481c1bdbdb60d21b606082015260800190565b634e487b7160e01b600052603160045260246000fd5b634e487b7160e01b600052600160045260246000fd5b600081612a5d57612a5d6126da565b50600019019056fea26469706673582212200777efb6bbaffaf3c12f9366651c0738fd0510bf19a96c3af0a337226cca78d364736f6c63430008110033",
  "devdoc": {
    "kind": "dev",
    "methods": {
      "getIDOperator(uint32)": {
        "params": {
          "id": "ID of the operator"
        },
        "returns": {
          "_0": "the address of the operator"
        }
      },
      "getIDOperators(uint32[])": {
        "params": {
          "ids": "the array of the operator ids"
        },
        "returns": {
          "_0": "an array of the associated operator addresses"
        }
      },
      "getOperatorID(address)": {
        "params": {
          "operator": "Address of the operator."
        },
        "returns": {
          "_0": "the ID number of the given operator address"
        }
      },
      "insertOperator(address,uint256)": {
        "details": "Can be called only by the contract owner.",
        "params": {
          "authorizedStake": "Inserted operator's authorized stake for the application.",
          "operator": "Address of the inserted operator."
        }
      },
      "isOperatorRegistered(address)": {
        "params": {
          "operator": "the address of the operator"
        },
        "returns": {
          "_0": "whether or not the operator is already registered in the pool"
        }
      },
      "lock()": {
        "details": "Can be called only by the contract owner."
      },
      "operatorsInPool()": {
        "returns": {
          "_0": "the number of operators in the pool"
        }
      },
      "owner()": {
        "details": "Returns the address of the current owner."
      },
      "renounceOwnership()": {
        "details": "Leaves the contract without owner. It will not be possible to call `onlyOwner` functions anymore. Can only be called by the current owner. NOTE: Renouncing ownership will leave the contract without an owner, thereby removing any functionality that is only available to the owner."
      },
      "selectGroup(uint256,bytes32)": {
        "params": {
          "groupSize": "Size of the requested group",
          "seed": "Pseudo-random number used to select operators to group"
        },
        "returns": {
          "_0": "selected Members of the selected group"
        }
      },
      "totalWeight()": {
        "returns": {
          "_0": "the total weight of the pool"
        }
      },
      "transferOwnership(address)": {
        "details": "Transfers ownership of the contract to a new account (`newOwner`). Can only be called by the current owner."
      },
      "unlock()": {
        "details": "Can be called only by the contract owner."
      },
      "updateOperatorStatus(address,uint256)": {
        "details": "Can be called only by the contract owner.",
        "params": {
          "authorizedStake": "Operator's authorized stake for the application.",
          "operator": "Address of the updated operator."
        }
      },
      "withdrawIneligible(address)": {
        "details": "Can be called only by the owner."
      },
      "withdrawRewards(address,address)": {
        "details": "Can be called only be the owner. Does not validate if the provided      beneficiary is associated with the provided operator - this needs to      be done by the owner calling this function.",
        "returns": {
          "_0": "The amount of rewards withdrawn in this call."
        }
      }
    },
    "title": "Sortition Pool",
    "version": 1
  },
  "userdoc": {
    "kind": "user",
    "methods": {
      "addBetaOperators(address[])": {
        "notice": "Adds beta operator to chaosnet. Can be called only by the chaosnet owner when the chaosnet is active. Once the operator is added as a beta operator, it can not be removed."
      },
      "canRestoreRewardEligibility(address)": {
        "notice": "Returns whether the operator is able to restore their eligibility         for rewards right away."
      },
      "chaosnetOwner()": {
        "notice": "Address controlling chaosnet status and beta operator addresses."
      },
      "deactivateChaosnet()": {
        "notice": "Deactivates the chaosnet. Can be called only by the chaosnet owner. Once deactivated chaosnet can not be activated again."
      },
      "getAvailableRewards(address)": {
        "notice": "Returns the amount of rewards withdrawable for the given operator."
      },
      "getIDOperator(uint32)": {
        "notice": "Get the operator address corresponding to the given ID number. A zero address means the ID number has not been allocated yet."
      },
      "getIDOperators(uint32[])": {
        "notice": "Gets the operator addresses corresponding to the given ID numbers. A zero address means the ID number has not been allocated yet. This function works just like getIDOperator except that it allows to fetch operator addresses for multiple IDs in one call."
      },
      "getOperatorID(address)": {
        "notice": "Return the ID number of the given operator address. An ID number of 0 means the operator has not been allocated an ID number yet."
      },
      "getPoolWeight(address)": {
        "notice": "Return the weight of the operator in the pool, which may or may not be out of date."
      },
      "insertOperator(address,uint256)": {
        "notice": "Inserts an operator to the pool. Reverts if the operator is already present. Reverts if the operator is not eligible because of their authorized stake. Reverts if the chaosnet is active and the operator is not a beta operator."
      },
      "isBetaOperator(address)": {
        "notice": "Indicates if the given operator is a beta operator for chaosnet."
      },
      "isChaosnetActive()": {
        "notice": "Indicates if the chaosnet is active. The chaosnet is active after the contract deployment and can be ended with a call to `deactivateChaosnet()`. Once deactivated chaosnet can not be activated again."
      },
      "isEligibleForRewards(address)": {
        "notice": "Returns whether the operator is eligible for rewards or not."
      },
      "isOperatorInPool(address)": {
        "notice": "Return whether the operator is present in the pool."
      },
      "isOperatorRegistered(address)": {
        "notice": "Checks if operator is already registered in the pool."
      },
      "isOperatorUpToDate(address,uint256)": {
        "notice": "Return whether the operator's weight in the pool matches their eligible weight."
      },
      "lock()": {
        "notice": "Locks the sortition pool. In locked state, members cannot be         inserted and removed from the pool. Members statuses cannot         be updated as well."
      },
      "operatorsInPool()": {
        "notice": "Sum the number of operators in each trunk."
      },
      "restoreRewardEligibility(address)": {
        "notice": "Restores reward eligibility for the operator."
      },
      "rewardsEligibilityRestorableAt(address)": {
        "notice": "Returns the time the operator's reward eligibility can be restored."
      },
      "selectGroup(uint256,bytes32)": {
        "notice": "Selects a new group of operators of the provided size based on the provided pseudo-random seed. At least one operator has to be registered in the pool, otherwise the function fails reverting the transaction."
      },
      "setRewardIneligibility(uint32[],uint256)": {
        "notice": "Set the given operators as ineligible for rewards.         The operators can restore their eligibility at the given time."
      },
      "totalWeight()": {
        "notice": "Convenience method to return the total weight of the pool"
      },
      "transferChaosnetOwnerRole(address)": {
        "notice": "Transfers the chaosnet owner role to another non-zero address."
      },
      "unlock()": {
        "notice": "Unlocks the sortition pool. Removes all restrictions set by         the `lock` method."
      },
      "updateOperatorStatus(address,uint256)": {
        "notice": "Update the operator's weight if present and eligible, or remove from the pool if present and ineligible."
      },
      "withdrawIneligible(address)": {
        "notice": "Withdraws rewards not allocated to operators marked as ineligible         to the given recipient address."
      },
      "withdrawRewards(address,address)": {
        "notice": "Withdraws all available rewards for the given operator to the         given beneficiary."
      }
    },
    "notice": "A logarithmic data structure used to store the pool of eligible operators weighted by their stakes. It allows to select a group of operators based on the provided pseudo-random seed.",
    "version": 1
  },
  "storageLayout": {
    "storage": [
      {
        "astId": 2739,
        "contract": "@keep-network/sortition-pools/contracts/SortitionPool.sol:SortitionPool",
        "label": "root",
        "offset": 0,
        "slot": "0",
        "type": "t_uint256"
      },
      {
        "astId": 2745,
        "contract": "@keep-network/sortition-pools/contracts/SortitionPool.sol:SortitionPool",
        "label": "branches",
        "offset": 0,
        "slot": "1",
        "type": "t_mapping(t_uint256,t_mapping(t_uint256,t_uint256))"
      },
      {
        "astId": 2749,
        "contract": "@keep-network/sortition-pools/contracts/SortitionPool.sol:SortitionPool",
        "label": "leaves",
        "offset": 0,
        "slot": "2",
        "type": "t_mapping(t_uint256,t_uint256)"
      },
      {
        "astId": 2753,
        "contract": "@keep-network/sortition-pools/contracts/SortitionPool.sol:SortitionPool",
        "label": "flaggedLeafPosition",
        "offset": 0,
        "slot": "3",
        "type": "t_mapping(t_address,t_uint256)"
      },
      {
        "astId": 2755,
        "contract": "@keep-network/sortition-pools/contracts/SortitionPool.sol:SortitionPool",
        "label": "rightmostLeaf",
        "offset": 0,
        "slot": "4",
        "type": "t_uint256"
      },
      {
        "astId": 2758,
        "contract": "@keep-network/sortition-pools/contracts/SortitionPool.sol:SortitionPool",
        "label": "emptyLeaves",
        "offset": 0,
        "slot": "5",
        "type": "t_array(t_uint256)dyn_storage"
      },
      {
        "astId": 2762,
        "contract": "@keep-network/sortition-pools/contracts/SortitionPool.sol:SortitionPool",
        "label": "operatorID",
        "offset": 0,
        "slot": "6",
        "type": "t_mapping(t_address,t_uint32)"
      },
      {
        "astId": 2765,
        "contract": "@keep-network/sortition-pools/contracts/SortitionPool.sol:SortitionPool",
        "label": "idAddress",
        "offset": 0,
        "slot": "7",
        "type": "t_array(t_address)dyn_storage"
      },
      {
        "astId": 1552,
        "contract": "@keep-network/sortition-pools/contracts/SortitionPool.sol:SortitionPool",
        "label": "globalRewardAccumulator",
        "offset": 0,
        "slot": "8",
        "type": "t_uint96"
      },
      {
        "astId": 1554,
        "contract": "@keep-network/sortition-pools/contracts/SortitionPool.sol:SortitionPool",
        "label": "rewardRoundingDust",
        "offset": 12,
        "slot": "8",
        "type": "t_uint96"
      },
      {
        "astId": 1556,
        "contract": "@keep-network/sortition-pools/contracts/SortitionPool.sol:SortitionPool",
        "label": "ineligibleEarnedRewards",
        "offset": 0,
        "slot": "9",
        "type": "t_uint96"
      },
      {
        "astId": 1563,
        "contract": "@keep-network/sortition-pools/contracts/SortitionPool.sol:SortitionPool",
        "label": "operatorRewards",
        "offset": 0,
        "slot": "10",
        "type": "t_mapping(t_uint32,t_struct(OperatorRewards)1550_storage)"
      },
      {
        "astId": 7288,
        "contract": "@keep-network/sortition-pools/contracts/SortitionPool.sol:SortitionPool",
        "label": "_owner",
        "offset": 0,
        "slot": "11",
        "type": "t_address"
      },
      {
        "astId": 973,
        "contract": "@keep-network/sortition-pools/contracts/SortitionPool.sol:SortitionPool",
        "label": "isChaosnetActive",
        "offset": 20,
        "slot": "11",
        "type": "t_bool"
      },
      {
        "astId": 978,
        "contract": "@keep-network/sortition-pools/contracts/SortitionPool.sol:SortitionPool",
        "label": "isBetaOperator",
        "offset": 0,
        "slot": "12",
        "type": "t_mapping(t_address,t_bool)"
      },
      {
        "astId": 981,
        "contract": "@keep-network/sortition-pools/contracts/SortitionPool.sol:SortitionPool",
        "label": "chaosnetOwner",
        "offset": 0,
        "slot": "13",
        "type": "t_address"
      },
      {
        "astId": 2105,
        "contract": "@keep-network/sortition-pools/contracts/SortitionPool.sol:SortitionPool",
        "label": "isLocked",
        "offset": 20,
        "slot": "13",
        "type": "t_bool"
      }
    ],
    "types": {
      "t_address": {
        "encoding": "inplace",
        "label": "address",
        "numberOfBytes": "20"
      },
      "t_array(t_address)dyn_storage": {
        "base": "t_address",
        "encoding": "dynamic_array",
        "label": "address[]",
        "numberOfBytes": "32"
      },
      "t_array(t_uint256)dyn_storage": {
        "base": "t_uint256",
        "encoding": "dynamic_array",
        "label": "uint256[]",
        "numberOfBytes": "32"
      },
      "t_bool": {
        "encoding": "inplace",
        "label": "bool",
        "numberOfBytes": "1"
      },
      "t_mapping(t_address,t_bool)": {
        "encoding": "mapping",
        "key": "t_address",
        "label": "mapping(address => bool)",
        "numberOfBytes": "32",
        "value": "t_bool"
      },
      "t_mapping(t_address,t_uint256)": {
        "encoding": "mapping",
        "key": "t_address",
        "label": "mapping(address => uint256)",
        "numberOfBytes": "32",
        "value": "t_uint256"
      },
      "t_mapping(t_address,t_uint32)": {
        "encoding": "mapping",
        "key": "t_address",
        "label": "mapping(address => uint32)",
        "numberOfBytes": "32",
        "value": "t_uint32"
      },
      "t_mapping(t_uint256,t_mapping(t_uint256,t_uint256))": {
        "encoding": "mapping",
        "key": "t_uint256",
        "label": "mapping(uint256 => mapping(uint256 => uint256))",
        "numberOfBytes": "32",
        "value": "t_mapping(t_uint256,t_uint256)"
      },
      "t_mapping(t_uint256,t_uint256)": {
        "encoding": "mapping",
        "key": "t_uint256",
        "label": "mapping(uint256 => uint256)",
        "numberOfBytes": "32",
        "value": "t_uint256"
      },
      "t_mapping(t_uint32,t_struct(OperatorRewards)1550_storage)": {
        "encoding": "mapping",
        "key": "t_uint32",
        "label": "mapping(uint32 => struct Rewards.OperatorRewards)",
        "numberOfBytes": "32",
        "value": "t_struct(OperatorRewards)1550_storage"
      },
      "t_struct(OperatorRewards)1550_storage": {
        "encoding": "inplace",
        "label": "struct Rewards.OperatorRewards",
        "members": [
          {
            "astId": 1543,
            "contract": "@keep-network/sortition-pools/contracts/SortitionPool.sol:SortitionPool",
            "label": "accumulated",
            "offset": 0,
            "slot": "0",
            "type": "t_uint96"
          },
          {
            "astId": 1545,
            "contract": "@keep-network/sortition-pools/contracts/SortitionPool.sol:SortitionPool",
            "label": "available",
            "offset": 12,
            "slot": "0",
            "type": "t_uint96"
          },
          {
            "astId": 1547,
            "contract": "@keep-network/sortition-pools/contracts/SortitionPool.sol:SortitionPool",
            "label": "ineligibleUntil",
            "offset": 24,
            "slot": "0",
            "type": "t_uint32"
          },
          {
            "astId": 1549,
            "contract": "@keep-network/sortition-pools/contracts/SortitionPool.sol:SortitionPool",
            "label": "weight",
            "offset": 28,
            "slot": "0",
            "type": "t_uint32"
          }
        ],
        "numberOfBytes": "32"
      },
      "t_uint256": {
        "encoding": "inplace",
        "label": "uint256",
        "numberOfBytes": "32"
      },
      "t_uint32": {
        "encoding": "inplace",
        "label": "uint32",
        "numberOfBytes": "4"
      },
      "t_uint96": {
        "encoding": "inplace",
        "label": "uint96",
        "numberOfBytes": "12"
      }
    }
  }
}