{
  "address": "0x0125c8977a02b2Fa3970b1ED9AF02f5Bedd4eF27",
  "abi": [
    {
      "inputs": [
        {
          "internalType": "contract SortitionPool",
          "name": "_sortitionPool",
          "type": "address"
        }
      ],
      "stateMutability": "nonpayable",
      "type": "constructor"
    },
    {
      "inputs": [],
      "name": "activeThreshold",
      "outputs": [
        {
          "internalType": "uint256",
          "name": "",
          "type": "uint256"
        }
      ],
      "stateMutability": "view",
      "type": "function"
    },
    {
      "inputs": [],
      "name": "groupSize",
      "outputs": [
        {
          "internalType": "uint256",
          "name": "",
          "type": "uint256"
        }
      ],
      "stateMutability": "view",
      "type": "function"
    },
    {
      "inputs": [],
      "name": "groupThreshold",
      "outputs": [
        {
          "internalType": "uint256",
          "name": "",
          "type": "uint256"
        }
      ],
      "stateMutability": "view",
      "type": "function"
    },
    {
      "inputs": [],
      "name": "publicKeyByteSize",
      "outputs": [
        {
          "internalType": "uint256",
          "name": "",
          "type": "uint256"
        }
      ],
      "stateMutability": "view",
      "type": "function"
    },
    {
      "inputs": [],
      "name": "signatureByteSize",
      "outputs": [
        {
          "internalType": "uint256",
          "name": "",
          "type": "uint256"
        }
      ],
      "stateMutability": "view",
      "type": "function"
    },
    {
      "inputs": [],
      "name": "sortitionPool",
      "outputs": [
        {
          "internalType": "contract SortitionPool",
          "name": "",
          "type": "address"
        }
      ],
      "stateMutability": "view",
      "type": "function"
    },
    {
      "inputs": [
        {
          "components": [
            {
              "internalType": "uint256",
              "name": "submitterMemberIndex",
              "type": "uint256"
            },
            {
              "internalType": "bytes",
              "name": "groupPubKey",
              "type": "bytes"
            },
            {
              "internalType": "uint8[]",
              "name": "misbehavedMembersIndices",
              "type": "uint8[]"
            },
            {
              "internalType": "bytes",
              "name": "signatures",
              "type": "bytes"
            },
            {
              "internalType": "uint256[]",
              "name": "signingMembersIndices",
              "type": "uint256[]"
            },
            {
              "internalType": "uint32[]",
              "name": "members",
              "type": "uint32[]"
            },
            {
              "internalType": "bytes32",
              "name": "membersHash",
              "type": "bytes32"
            }
          ],
          "internalType": "struct EcdsaDkg.Result",
          "name": "result",
          "type": "tuple"
        },
        {
          "internalType": "uint256",
          "name": "seed",
          "type": "uint256"
        },
        {
          "internalType": "uint256",
          "name": "startBlock",
          "type": "uint256"
        }
      ],
      "name": "validate",
      "outputs": [
        {
          "internalType": "bool",
          "name": "isValid",
          "type": "bool"
        },
        {
          "internalType": "string",
          "name": "errorMsg",
          "type": "string"
        }
      ],
      "stateMutability": "view",
      "type": "function"
    },
    {
      "inputs": [
        {
          "components": [
            {
              "internalType": "uint256",
              "name": "submitterMemberIndex",
              "type": "uint256"
            },
            {
              "internalType": "bytes",
              "name": "groupPubKey",
              "type": "bytes"
            },
            {
              "internalType": "uint8[]",
              "name": "misbehavedMembersIndices",
              "type": "uint8[]"
            },
            {
              "internalType": "bytes",
              "name": "signatures",
              "type": "bytes"
            },
            {
              "internalType": "uint256[]",
              "name": "signingMembersIndices",
              "type": "uint256[]"
            },
            {
              "internalType": "uint32[]",
              "name": "members",
              "type": "uint32[]"
            },
            {
              "internalType": "bytes32",
              "name": "membersHash",
              "type": "bytes32"
            }
          ],
          "internalType": "struct EcdsaDkg.Result",
          "name": "result",
          "type": "tuple"
        }
      ],
      "name": "validateFields",
      "outputs": [
        {
          "internalType": "bool",
          "name": "isValid",
          "type": "bool"
        },
        {
          "internalType": "string",
          "name": "errorMsg",
          "type": "string"
        }
      ],
      "stateMutability": "pure",
      "type": "function"
    },
    {
      "inputs": [
        {
          "components": [
            {
              "internalType": "uint256",
              "name": "submitterMemberIndex",
              "type": "uint256"
            },
            {
              "internalType": "bytes",
              "name": "groupPubKey",
              "type": "bytes"
            },
            {
              "internalType": "uint8[]",
              "name": "misbehavedMembersIndices",
              "type": "uint8[]"
            },
            {
              "internalType": "bytes",
              "name": "signatures",
              "type": "bytes"
            },
            {
              "internalType": "uint256[]",
              "name": "signingMembersIndices",
              "type": "uint256[]"
            },
            {
              "internalType": "uint32[]",
              "name": "members",
              "type": "uint32[]"
            },
            {
              "internalType": "bytes32",
              "name": "membersHash",
              "type": "bytes32"
            }
          ],
          "internalType": "struct EcdsaDkg.Result",
          "name": "result",
          "type": "tuple"
        },
        {
          "internalType": "uint256",
          "name": "seed",
          "type": "uint256"
        }
      ],
      "name": "validateGroupMembers",
      "outputs": [
        {
          "internalType": "bool",
          "name": "",
          "type": "bool"
        }
      ],
      "stateMutability": "view",
      "type": "function"
    },
    {
      "inputs": [
        {
          "components": [
            {
              "internalType": "uint256",
              "name": "submitterMemberIndex",
              "type": "uint256"
            },
            {
              "internalType": "bytes",
              "name": "groupPubKey",
              "type": "bytes"
            },
            {
              "internalType": "uint8[]",
              "name": "misbehavedMembersIndices",
              "type": "uint8[]"
            },
            {
              "internalType": "bytes",
              "name": "signatures",
              "type": "bytes"
            },
            {
              "internalType": "uint256[]",
              "name": "signingMembersIndices",
              "type": "uint256[]"
            },
            {
              "internalType": "uint32[]",
              "name": "members",
              "type": "uint32[]"
            },
            {
              "internalType": "bytes32",
              "name": "membersHash",
              "type": "bytes32"
            }
          ],
          "internalType": "struct EcdsaDkg.Result",
          "name": "result",
          "type": "tuple"
        }
      ],
      "name": "validateMembersHash",
      "outputs": [
        {
          "internalType": "bool",
          "name": "",
          "type": "bool"
        }
      ],
      "stateMutability": "pure",
      "type": "function"
    },
    {
      "inputs": [
        {
          "components": [
            {
              "internalType": "uint256",
              "name": "submitterMemberIndex",
              "type": "uint256"
            },
            {
              "internalType": "bytes",
              "name": "groupPubKey",
              "type": "bytes"
            },
            {
              "internalType": "uint8[]",
              "name": "misbehavedMembersIndices",
              "type": "uint8[]"
            },
            {
              "internalType": "bytes",
              "name": "signatures",
              "type": "bytes"
            },
            {
              "internalType": "uint256[]",
              "name": "signingMembersIndices",
              "type": "uint256[]"
            },
            {
              "internalType": "uint32[]",
              "name": "members",
              "type": "uint32[]"
            },
            {
              "internalType": "bytes32",
              "name": "membersHash",
              "type": "bytes32"
            }
          ],
          "internalType": "struct EcdsaDkg.Result",
          "name": "result",
          "type": "tuple"
        },
        {
          "internalType": "uint256",
          "name": "startBlock",
          "type": "uint256"
        }
      ],
      "name": "validateSignatures",
      "outputs": [
        {
          "internalType": "bool",
          "name": "",
          "type": "bool"
        }
      ],
      "stateMutability": "view",
      "type": "function"
    }
  ],
  "transactionHash": "0x7ac07d8b282eeb8302376ade53f60b68a6c7706906382fef8e9417013155ea97",
  "args": [
    "0xc2731fb2823af3Efc2694c9bC86F444d5c5bb4Dc"
  ],
  "numDeployments": 1,
  "solcInputHash": "b2d79823d7aa79cff09f112dce64ebc8",
  "bytecode": "0x60a060405234801561001057600080fd5b5060405161190938038061190983398101604081905261002f91610040565b6001600160a01b0316608052610070565b60006020828403121561005257600080fd5b81516001600160a01b038116811461006957600080fd5b9392505050565b60805161187061009960003960008181610145015281816106e60152610cd301526118706000f3fe608060405234801561001057600080fd5b50600436106100a95760003560e01c806389ef44b01161007157806389ef44b0146101025780639617c2a81461010a578063b2d44fce1461012d578063b54a237414610140578063e7667aba1461017f578063e7d10d9b1461019257600080fd5b806305f8ae15146100ae578063281efe71146100c95780632c5c72df146100d157806363b635ea146100f25780636dcc64f8146100fa575b600080fd5b6100b6604081565b6040519081526020015b60405180910390f35b6100b6605a81565b6100e46100df36600461121e565b6101a5565b6040516100c092919061125b565b6100b6606481565b6100b6603381565b6100b6604181565b61011d6101183660046112b3565b6106b0565b60405190151581526020016100c0565b61011d61013b36600461121e565b6107ff565b6101677f000000000000000000000000000000000000000000000000000000000000000081565b6040516001600160a01b0390911681526020016100c0565b6100e461018d3660046112f8565b610a0c565b61011d6101a03660046112b3565b610b29565b6000606060406101b86020850185611346565b9050146101fd57505060408051808201909152601a81527f4d616c666f726d65642067726f7570207075626c6963206b65790000000000006020820152600092909150565b36600061020d604086018661138d565b9092509050605a61021f8260646113ed565b101561024b5760006040518060600160405280602781526020016117f060279139935093505050915091565b60018111156103945760018282600081811061026957610269611400565b905060200201602081019061027e919061142c565b60ff1610806102c05750606482826102976001826113ed565b8181106102a6576102a6611400565b90506020020160208101906102bb919061142c565b60ff16115b156102eb57600060405180606001604052806024815260200161181760249139935093505050915091565b60015b818110156103925782828281811061030857610308611400565b905060200201602081019061031d919061142c565b60ff16838361032d6001856113ed565b81811061033c5761033c611400565b9050602002016020810190610351919061142c565b60ff16106103805760006040518060600160405280602481526020016118176024913994509450505050915091565b8061038a8161144e565b9150506102ee565b505b600060416103a56060880188611346565b6103b092915061147d565b90506103bf6060870187611346565b905060000361040557600060405180604001604052806016815260200175139bc81cda59db985d1d5c995cc81c1c9bdd9a59195960521b81525094509450505050915091565b60416104146060880188611346565b61041f929150611491565b156104685760006040518060400160405280601a81526020017f4d616c666f726d6564207369676e61747572657320617272617900000000000081525094509450505050915091565b366000610478608089018961138d565b90925090508281146104ca5760006040518060400160405280601b81526020017f556e6578706563746564207369676e61747572657320636f756e740000000000815250965096505050505050915091565b603383101561050e57600060405180604001604052806012815260200171546f6f20666577207369676e61747572657360701b815250965096505050505050915091565b606483111561055357600060405180604001604052806013815260200172546f6f206d616e79207369676e61747572657360681b815250965096505050505050915091565b60018282600081811061056857610568611400565b90506020020135108061059d5750606482826105856001826113ed565b81811061059457610594611400565b90506020020135115b156105e85760006040518060400160405280602081526020017f436f72727570746564207369676e696e67206d656d62657220696e6469636573815250965096505050505050915091565b60015b8181101561068f5782828281811061060557610605611400565b90506020020135838360018461061b91906113ed565b81811061062a5761062a611400565b905060200201351061067d5760006040518060400160405280602081526020017f436f72727570746564207369676e696e67206d656d62657220696e646963657381525097509750505050505050915091565b806106878161144e565b9150506105eb565b50600160405180602001604052806000815250965096505050505050915091565b600036816106c160a086018661138d565b604051636c2530b960e01b8152606460048201526024810187905291935091506000907f00000000000000000000000000000000000000000000000000000000000000006001600160a01b031690636c2530b990604401600060405180830381865afa158015610735573d6000803e3d6000fd5b505050506040513d6000823e601f3d908101601f1916820160405261075d9190810190611522565b8051909150821461077457600093505050506107f9565b60005b828110156107f05781818151811061079157610791611400565b602002602001015163ffffffff168484838181106107b1576107b1611400565b90506020020160208101906107c691906115c1565b63ffffffff16146107de5760009450505050506107f9565b806107e88161144e565b915050610777565b50600193505050505b92915050565b60008061080f604084018461138d565b905011156109cb576000610826604084018461138d565b905061083560a085018561138d565b6108409291506113ed565b67ffffffffffffffff811115610858576108586114a5565b604051908082528060200260200182016040528015610881578160200160208202803683370190505b50905060008060005b61089760a087018761138d565b90508110156109935760016108af604088018861138d565b858181106108bf576108bf611400565b90506020020160208101906108d4919061142c565b6108de91906115de565b60ff168114610952576108f460a087018761138d565b8281811061090457610904611400565b905060200201602081019061091991906115c1565b84838151811061092b5761092b611400565b63ffffffff909216602092830291909101909101528161094a8161144e565b925050610981565b6001610961604088018861138d565b61096c9291506113ed565b831015610981578261097d8161144e565b9350505b8061098b8161144e565b91505061088a565b508460c00135836040516020016109aa91906115f7565b60405160208183030381529060405280519060200120149350505050919050565b60c08201356109dd60a084018461138d565b6040516020016109ee929190611641565b60405160208183030381529060405280519060200120149050919050565b60006060600080610a1c876101a5565b9150915081610a3257600093509150610b219050565b610a3c8786610b29565b610a7857600060405180604001604052806012815260200171496e76616c6964207369676e61747572657360701b815250935093505050610b21565b610a8287876106b0565b610ac157600060405180604001604052806015815260200174496e76616c69642067726f7570206d656d6265727360581b815250935093505050610b21565b610aca876107ff565b610b0857600060405180604001604052806014815260200173092dcecc2d8d2c840dacadac4cae4e640d0c2e6d60631b815250935093505050610b21565b6001604051806020016040528060008152509350935050505b935093915050565b600080610bc046610b3d6020870187611346565b610b4a604089018961138d565b88604051602001610b609695949392919061168c565b60408051601f1981840301815282825280516020918201207f19457468657265756d205369676e6564204d6573736167653a0a33320000000084830152603c8085019190915282518085039091018152605c909301909152815191012090565b9050366000610bd2608087018761138d565b909250905060008167ffffffffffffffff811115610bf257610bf26114a5565b604051908082528060200260200182016040528015610c1b578160200160208202803683370190505b50905060005b82811015610cb857610c3660a089018961138d565b6001868685818110610c4a57610c4a611400565b90506020020135610c5b91906113ed565b818110610c6a57610c6a611400565b9050602002016020810190610c7f91906115c1565b828281518110610c9157610c91611400565b63ffffffff9092166020928302919091019091015280610cb08161144e565b915050610c21565b50604051637bfcd47d60e11b81526000906001600160a01b037f0000000000000000000000000000000000000000000000000000000000000000169063f7f9a8fa90610d089085906004016115f7565b600060405180830381865afa158015610d25573d6000803e3d6000fd5b505050506040513d6000823e601f3d908101601f19168201604052610d4d9190810190611713565b9050606060006041610d618b84018c611346565b610d6c92915061147d565b905060005b81811015610e3b57610dd4610d878260416117af565b6041610d9660608f018f611346565b8080601f016020809104026020016040519081016040528093929190818152602001838380828437600092019190915250929493925050610e4c9050565b92506000610de28985610ef7565b9050806001600160a01b0316858381518110610e0057610e00611400565b60200260200101516001600160a01b031614610e2857600099505050505050505050506107f9565b5080610e338161144e565b915050610d71565b5060019a9950505050505050505050565b60606000610e5a83856117c6565b90508381118015610e6c575080855110155b610eb35760405162461bcd60e51b8152602060048201526013602482015272536c696365206f7574206f6620626f756e647360681b60448201526064015b60405180910390fd5b604051915082604083010160405282825283850182038460208701018481015b80821015610eec57815183830152602082019150610ed3565b505050509392505050565b6000806000610f068585610f1b565b91509150610f1381610f60565b509392505050565b6000808251604103610f515760208301516040840151606085015160001a610f4587828585611119565b94509450505050610f59565b506000905060025b9250929050565b6000816004811115610f7457610f746117d9565b03610f7c5750565b6001816004811115610f9057610f906117d9565b03610fdd5760405162461bcd60e51b815260206004820152601860248201527f45434453413a20696e76616c6964207369676e617475726500000000000000006044820152606401610eaa565b6002816004811115610ff157610ff16117d9565b0361103e5760405162461bcd60e51b815260206004820152601f60248201527f45434453413a20696e76616c6964207369676e6174757265206c656e677468006044820152606401610eaa565b6003816004811115611052576110526117d9565b036110aa5760405162461bcd60e51b815260206004820152602260248201527f45434453413a20696e76616c6964207369676e6174757265202773272076616c604482015261756560f01b6064820152608401610eaa565b60048160048111156110be576110be6117d9565b036111165760405162461bcd60e51b815260206004820152602260248201527f45434453413a20696e76616c6964207369676e6174757265202776272076616c604482015261756560f01b6064820152608401610eaa565b50565b6000807f7fffffffffffffffffffffffffffffff5d576e7357a4501ddfe92f46681b20a083111561115057506000905060036111fd565b8460ff16601b1415801561116857508460ff16601c14155b1561117957506000905060046111fd565b6040805160008082526020820180845289905260ff881692820192909252606081018690526080810185905260019060a0016020604051602081039080840390855afa1580156111cd573d6000803e3d6000fd5b5050604051601f1901519150506001600160a01b0381166111f6576000600192509250506111fd565b9150600090505b94509492505050565b600060e0828403121561121857600080fd5b50919050565b60006020828403121561123057600080fd5b813567ffffffffffffffff81111561124757600080fd5b61125384828501611206565b949350505050565b821515815260006020604081840152835180604085015260005b8181101561129157858101830151858201606001528201611275565b506000606082860101526060601f19601f830116850101925050509392505050565b600080604083850312156112c657600080fd5b823567ffffffffffffffff8111156112dd57600080fd5b6112e985828601611206565b95602094909401359450505050565b60008060006060848603121561130d57600080fd5b833567ffffffffffffffff81111561132457600080fd5b61133086828701611206565b9660208601359650604090950135949350505050565b6000808335601e1984360301811261135d57600080fd5b83018035915067ffffffffffffffff82111561137857600080fd5b602001915036819003821315610f5957600080fd5b6000808335601e198436030181126113a457600080fd5b83018035915067ffffffffffffffff8211156113bf57600080fd5b6020019150600581901b3603821315610f5957600080fd5b634e487b7160e01b600052601160045260246000fd5b818103818111156107f9576107f96113d7565b634e487b7160e01b600052603260045260246000fd5b803560ff8116811461142757600080fd5b919050565b60006020828403121561143e57600080fd5b61144782611416565b9392505050565b600060018201611460576114606113d7565b5060010190565b634e487b7160e01b600052601260045260246000fd5b60008261148c5761148c611467565b500490565b6000826114a0576114a0611467565b500690565b634e487b7160e01b600052604160045260246000fd5b604051601f8201601f1916810167ffffffffffffffff811182821017156114e4576114e46114a5565b604052919050565b600067ffffffffffffffff821115611506576115066114a5565b5060051b60200190565b63ffffffff8116811461111657600080fd5b6000602080838503121561153557600080fd5b825167ffffffffffffffff81111561154c57600080fd5b8301601f8101851361155d57600080fd5b805161157061156b826114ec565b6114bb565b81815260059190911b8201830190838101908783111561158f57600080fd5b928401925b828410156115b65783516115a781611510565b82529284019290840190611594565b979650505050505050565b6000602082840312156115d357600080fd5b813561144781611510565b60ff82811682821603908111156107f9576107f96113d7565b6020808252825182820181905260009190848201906040850190845b8181101561163557835163ffffffff1683529284019291840191600101611613565b50909695505050505050565b60208082528181018390526000908460408401835b8681101561168157823561166981611510565b63ffffffff1682529183019190830190600101611656565b509695505050505050565b86815260006020608081840152866080840152868860a0850137600060a08885018101829052601f19601f8a011685018581038201604087015290810187905287919060c0015b878210156116fb5760ff6116e684611416565b168152918301916001919091019083016116d3565b80945050505050826060830152979650505050505050565b6000602080838503121561172657600080fd5b825167ffffffffffffffff81111561173d57600080fd5b8301601f8101851361174e57600080fd5b805161175c61156b826114ec565b81815260059190911b8201830190838101908783111561177b57600080fd5b928401925b828410156115b65783516001600160a01b03811681146117a05760008081fd5b82529284019290840190611780565b80820281158282048414176107f9576107f96113d7565b808201808211156107f9576107f96113d7565b634e487b7160e01b600052602160045260246000fdfe546f6f206d616e79206d656d62657273206d69736265686176696e6720647572696e6720444b47436f72727570746564206d697362656861766564206d656d6265727320696e6469636573a2646970667358221220d280b0ea931f599068603a1b01ef3a7a0c1be6bd82b3a1b3681395946816f13464736f6c63430008110033",
  "devdoc": {
    "kind": "dev",
    "methods": {
      "validate((uint256,bytes,uint8[],bytes,uint256[],uint32[],bytes32),uint256,uint256)": {
        "params": {
          "seed": "seed used to start the DKG and select group members",
          "startBlock": "DKG start block"
        },
        "returns": {
          "errorMsg": "validation error message; empty for a valid result",
          "isValid": "true if the result is valid, false otherwise"
        }
      },
      "validateFields((uint256,bytes,uint8[],bytes,uint256[],uint32[],bytes32))": {
        "returns": {
          "errorMsg": "validation error message; empty for a valid result",
          "isValid": "true if the result is valid, false otherwise"
        }
      },
      "validateGroupMembers((uint256,bytes,uint8[],bytes,uint256[],uint32[],bytes32),uint256)": {
        "params": {
          "seed": "seed used to start the DKG and select group members"
        },
        "returns": {
          "_0": "true if group members matches; false otherwise"
        }
      },
      "validateMembersHash((uint256,bytes,uint8[],bytes,uint256[],uint32[],bytes32))": {
        "params": {
          "result": "DKG result"
        },
        "returns": {
          "_0": "true if calculated result's group members hash matches with the one that is challenged."
        }
      },
      "validateSignatures((uint256,bytes,uint8[],bytes,uint256[],uint32[],bytes32),uint256)": {
        "params": {
          "startBlock": "DKG start block"
        },
        "returns": {
          "_0": "true if group members matches; false otherwise"
        }
      }
    },
    "stateVariables": {
      "activeThreshold": {
        "details": "The minimum number of active and properly behaving group members      during the DKG needed to accept the result. This number is higher      than `groupThreshold` to keep a safety margin for members becoming      inactive after DKG so that the group can still produce signature."
      },
      "groupSize": {
        "details": "Size of a group in DKG."
      },
      "groupThreshold": {
        "details": "The minimum number of group members needed to interact according to      the protocol to produce a signature. The adversary can not learn      anything about the key as long as it does not break into      groupThreshold+1 of members."
      },
      "publicKeyByteSize": {
        "details": "Size in bytes of a public key produced by group members during the the DKG. The length assumes uncompressed ECDSA public key."
      },
      "signatureByteSize": {
        "details": "Size in bytes of a single signature produced by operator supporting      DKG result."
      }
    },
    "title": "DKG result validator",
    "version": 1
  },
  "userdoc": {
    "kind": "user",
    "methods": {
      "validate((uint256,bytes,uint8[],bytes,uint256[],uint32[],bytes32),uint256,uint256)": {
        "notice": "Performs a full validation of DKG result, including checking the         format of fields in the result, declared selected group members,         and signatures of operators supporting the result."
      },
      "validateFields((uint256,bytes,uint8[],bytes,uint256[],uint32[],bytes32))": {
        "notice": "Performs a static validation of DKG result fields: lengths,         ranges, and order of arrays."
      },
      "validateGroupMembers((uint256,bytes,uint8[],bytes,uint256[],uint32[],bytes32),uint256)": {
        "notice": "Performs validation of group members as declared in DKG         result against group members selected by the sortition pool."
      },
      "validateMembersHash((uint256,bytes,uint8[],bytes,uint256[],uint32[],bytes32))": {
        "notice": "Performs validation of hashed group members that actively took         part in DKG."
      },
      "validateSignatures((uint256,bytes,uint8[],bytes,uint256[],uint32[],bytes32),uint256)": {
        "notice": "Performs validation of signatures supplied in DKG result.         Note that this function does not check if addresses which         supplied signatures supporting the result are the ones selected         to the group by sortition pool. This function should be used         together with `validateGroupMembers`."
      }
    },
    "notice": "EcdsaDkgValidator allows performing a full validation of DKG result,         including checking the format of fields in the result, declared         selected group members, and signatures of operators supporting the         result. The operator submitting the result should perform the         validation using a free contract call before submitting the result         to ensure their result is valid and can not be challenged. All other         network operators should perform validation of the submitted result         using a free contract call and challenge the result if the         validation fails.",
    "version": 1
  },
  "storageLayout": {
    "storage": [],
    "types": null
  }
}