{
  "address": "0xeA7CA290c7811d1cC2e79f8d706bD05d8280BD37",
  "abi": [
    {
      "inputs": [
        {
          "internalType": "address",
          "name": "token_",
          "type": "address"
        },
        {
          "internalType": "address",
          "name": "rewardsHolder_",
          "type": "address"
        },
        {
          "internalType": "address",
          "name": "newOwner",
          "type": "address"
        }
      ],
      "stateMutability": "nonpayable",
      "type": "constructor"
    },
    {
      "anonymous": false,
      "inputs": [
        {
          "indexed": true,
          "internalType": "address",
          "name": "stakingProvider",
          "type": "address"
        },
        {
          "indexed": false,
          "internalType": "uint256",
          "name": "amount",
          "type": "uint256"
        },
        {
          "indexed": false,
          "internalType": "address",
          "name": "beneficiary",
          "type": "address"
        },
        {
          "indexed": false,
          "internalType": "bytes32",
          "name": "merkleRoot",
          "type": "bytes32"
        }
      ],
      "name": "Claimed",
      "type": "event"
    },
    {
      "anonymous": false,
      "inputs": [
        {
          "indexed": false,
          "internalType": "bytes32",
          "name": "oldMerkleRoot",
          "type": "bytes32"
        },
        {
          "indexed": false,
          "internalType": "bytes32",
          "name": "newMerkleRoot",
          "type": "bytes32"
        }
      ],
      "name": "MerkelRootUpdated",
      "type": "event"
    },
    {
      "anonymous": false,
      "inputs": [
        {
          "indexed": true,
          "internalType": "address",
          "name": "previousOwner",
          "type": "address"
        },
        {
          "indexed": true,
          "internalType": "address",
          "name": "newOwner",
          "type": "address"
        }
      ],
      "name": "OwnershipTransferred",
      "type": "event"
    },
    {
      "anonymous": false,
      "inputs": [
        {
          "indexed": false,
          "internalType": "address",
          "name": "oldRewardsHolder",
          "type": "address"
        },
        {
          "indexed": false,
          "internalType": "address",
          "name": "newRewardsHolder",
          "type": "address"
        }
      ],
      "name": "RewardsHolderUpdated",
      "type": "event"
    },
    {
      "inputs": [
        {
          "internalType": "bytes32",
          "name": "expectedMerkleRoot",
          "type": "bytes32"
        },
        {
          "components": [
            {
              "internalType": "address",
              "name": "stakingProvider",
              "type": "address"
            },
            {
              "internalType": "address",
              "name": "beneficiary",
              "type": "address"
            },
            {
              "internalType": "uint256",
              "name": "amount",
              "type": "uint256"
            },
            {
              "internalType": "bytes32[]",
              "name": "proof",
              "type": "bytes32[]"
            }
          ],
          "internalType": "struct CumulativeMerkleDrop.Claim[]",
          "name": "Claims",
          "type": "tuple[]"
        }
      ],
      "name": "batchClaim",
      "outputs": [],
      "stateMutability": "nonpayable",
      "type": "function"
    },
    {
      "inputs": [
        {
          "internalType": "address",
          "name": "stakingProvider",
          "type": "address"
        },
        {
          "internalType": "address",
          "name": "beneficiary",
          "type": "address"
        },
        {
          "internalType": "uint256",
          "name": "cumulativeAmount",
          "type": "uint256"
        },
        {
          "internalType": "bytes32",
          "name": "expectedMerkleRoot",
          "type": "bytes32"
        },
        {
          "internalType": "bytes32[]",
          "name": "merkleProof",
          "type": "bytes32[]"
        }
      ],
      "name": "claim",
      "outputs": [],
      "stateMutability": "nonpayable",
      "type": "function"
    },
    {
      "inputs": [
        {
          "internalType": "address",
          "name": "",
          "type": "address"
        }
      ],
      "name": "cumulativeClaimed",
      "outputs": [
        {
          "internalType": "uint256",
          "name": "",
          "type": "uint256"
        }
      ],
      "stateMutability": "view",
      "type": "function"
    },
    {
      "inputs": [],
      "name": "merkleRoot",
      "outputs": [
        {
          "internalType": "bytes32",
          "name": "",
          "type": "bytes32"
        }
      ],
      "stateMutability": "view",
      "type": "function"
    },
    {
      "inputs": [],
      "name": "owner",
      "outputs": [
        {
          "internalType": "address",
          "name": "",
          "type": "address"
        }
      ],
      "stateMutability": "view",
      "type": "function"
    },
    {
      "inputs": [],
      "name": "renounceOwnership",
      "outputs": [],
      "stateMutability": "nonpayable",
      "type": "function"
    },
    {
      "inputs": [],
      "name": "rewardsHolder",
      "outputs": [
        {
          "internalType": "address",
          "name": "",
          "type": "address"
        }
      ],
      "stateMutability": "view",
      "type": "function"
    },
    {
      "inputs": [
        {
          "internalType": "bytes32",
          "name": "merkleRoot_",
          "type": "bytes32"
        }
      ],
      "name": "setMerkleRoot",
      "outputs": [],
      "stateMutability": "nonpayable",
      "type": "function"
    },
    {
      "inputs": [
        {
          "internalType": "address",
          "name": "rewardsHolder_",
          "type": "address"
        }
      ],
      "name": "setRewardsHolder",
      "outputs": [],
      "stateMutability": "nonpayable",
      "type": "function"
    },
    {
      "inputs": [],
      "name": "token",
      "outputs": [
        {
          "internalType": "address",
          "name": "",
          "type": "address"
        }
      ],
      "stateMutability": "view",
      "type": "function"
    },
    {
      "inputs": [
        {
          "internalType": "address",
          "name": "newOwner",
          "type": "address"
        }
      ],
      "name": "transferOwnership",
      "outputs": [],
      "stateMutability": "nonpayable",
      "type": "function"
    },
    {
      "inputs": [
        {
          "internalType": "bytes32[]",
          "name": "merkleProof",
          "type": "bytes32[]"
        },
        {
          "internalType": "bytes32",
          "name": "root",
          "type": "bytes32"
        },
        {
          "internalType": "bytes32",
          "name": "leaf",
          "type": "bytes32"
        }
      ],
      "name": "verify",
      "outputs": [
        {
          "internalType": "bool",
          "name": "",
          "type": "bool"
        }
      ],
      "stateMutability": "pure",
      "type": "function"
    }
  ],
  "transactionHash": "0x902eae448671b8f0eeb0d59bf796c55dac5ae4988fe8b71da1645d9d014583d6",
  "args": [
    "0xCdF7028ceAB81fA0C6971208e83fa7872994beE5",
    "0x9F6e831c8F8939DC0C830C6e492e7cEf4f9C2F5f",
    "0x5E6a5435eDdCA1F075Eb3Fc795E199D02c4CE3Ad"
  ],
  "numDeployments": 1,
  "solcInputHash": "ecdb569f88d528c518c1761dcca7e455",
  "bytecode": "0x60a06040523480156200001157600080fd5b50604051620011dd380380620011dd8339810160408190526200003491620002de565b6200003f33620001a0565b6000836001600160a01b03166318160ddd6040518163ffffffff1660e01b815260040160206040518083038186803b1580156200007b57600080fd5b505afa15801562000090573d6000803e3d6000fd5b505050506040513d601f19601f82011682018060405250810190620000b6919062000328565b11620001095760405162461bcd60e51b815260206004820152601a60248201527f546f6b656e20636f6e7472616374206d7573742062652073657400000000000060448201526064015b60405180910390fd5b6001600160a01b0382166200016b5760405162461bcd60e51b815260206004820152602160248201527f5265776172647320486f6c646572206d75737420626520616e206164647265736044820152607360f81b606482015260840162000100565b6200017681620001f0565b506001600160a01b03918216608052600180546001600160a01b0319169190921617905562000342565b600080546001600160a01b038381166001600160a01b0319831681178455604051919092169283917f8be0079c531659141344cd1fd0a4f28419497f9722a3daafe3b4186f6b6457e09190a35050565b6000546001600160a01b031633146200024c5760405162461bcd60e51b815260206004820181905260248201527f4f776e61626c653a2063616c6c6572206973206e6f7420746865206f776e6572604482015260640162000100565b6001600160a01b038116620002b35760405162461bcd60e51b815260206004820152602660248201527f4f776e61626c653a206e6577206f776e657220697320746865207a65726f206160448201526564647265737360d01b606482015260840162000100565b620002be81620001a0565b50565b80516001600160a01b0381168114620002d957600080fd5b919050565b600080600060608486031215620002f457600080fd5b620002ff84620002c1565b92506200030f60208501620002c1565b91506200031f60408501620002c1565b90509250925092565b6000602082840312156200033b57600080fd5b5051919050565b608051610e7862000365600039600081816101be01526104c70152610e786000f3fe608060405234801561001057600080fd5b50600436106100b45760003560e01c80638da5cb5b116100715780638da5cb5b1461013b578063a991957614610160578063c8bc76e714610180578063eaef105b14610193578063f2fde38b146101a6578063fc0c546a146101b957600080fd5b80631d9df7e9146100b95780632eb4a7ab146100ce5780635a9a49c7146100ea578063715018a61461010d57806377aeafe1146101155780637cb6475914610128575b600080fd5b6100cc6100c7366004610b3c565b6101e0565b005b6100d760025481565b6040519081526020015b60405180910390f35b6100fd6100f8366004610ba3565b6102dc565b60405190151581526020016100e1565b6100cc610329565b6100cc610123366004610bf4565b61035f565b6100cc610136366004610c6c565b61054a565b6000546001600160a01b03165b6040516001600160a01b0390911681526020016100e1565b6100d761016e366004610b3c565b60036020526000908152604090205481565b6100cc61018e366004610c85565b6105b5565b600154610148906001600160a01b031681565b6100cc6101b4366004610b3c565b61069d565b6101487f000000000000000000000000000000000000000000000000000000000000000081565b6000546001600160a01b031633146102135760405162461bcd60e51b815260040161020a90610cd1565b60405180910390fd5b6001600160a01b0381166102735760405162461bcd60e51b815260206004820152602160248201527f5265776172647320686f6c646572206d75737420626520616e206164647265736044820152607360f81b606482015260840161020a565b600154604080516001600160a01b03928316815291831660208301527f2c9d250975e59bac0f164e6d311a8f841dbf461a49f8bd6736234541ac6691b3910160405180910390a1600180546001600160a01b0319166001600160a01b0392909216919091179055565b600061032083838787808060200260200160405190810160405280939291908181526020018383602002808284376000920191909152509294939250506107389050565b95945050505050565b6000546001600160a01b031633146103535760405162461bcd60e51b815260040161020a90610cd1565b61035d6000610750565b565b82600254146103b05760405162461bcd60e51b815260206004820152601760248201527f4d65726b6c6520726f6f74207761732075706461746564000000000000000000604482015260640161020a565b6040516bffffffffffffffffffffffff19606088811b8216602084015287901b16603482015260488101859052600090606801604051602081830303815290604052805190602001209050610407838386846107a0565b6104435760405162461bcd60e51b815260206004820152600d60248201526c24b73b30b634b210383937b7b360991b604482015260640161020a565b6001600160a01b03871660009081526003602052604090205485811061049e5760405162461bcd60e51b815260206004820152601060248201526f4e6f7468696e6720746f20636c61696d60801b604482015260640161020a565b6001600160a01b038089166000908152600360205260409020879055600154828803916104f1917f0000000000000000000000000000000000000000000000000000000000000000821691168a846107fa565b604080518281526001600160a01b038a81166020830152918101889052908a16907f18be19e142b32afffd5022e9fc0cb86d41aa42f9bb1cd2ebcbe7e490afaf9f489060600160405180910390a2505050505050505050565b6000546001600160a01b031633146105745760405162461bcd60e51b815260040161020a90610cd1565b60025460408051918252602082018390527f936fd71fceff3b4f98f4935ac269e4f94b4b25e3e38c519d3ff3db222a27117a910160405180910390a1600255565b60005b81811015610697576106858383838181106105d5576105d5610d06565b90506020028101906105e79190610d1c565b6105f5906020810190610b3c565b84848481811061060757610607610d06565b90506020028101906106199190610d1c565b61062a906040810190602001610b3c565b85858581811061063c5761063c610d06565b905060200281019061064e9190610d1c565b604001358787878781811061066557610665610d06565b90506020028101906106779190610d1c565b610123906060810190610d3c565b8061068f81610d86565b9150506105b8565b50505050565b6000546001600160a01b031633146106c75760405162461bcd60e51b815260040161020a90610cd1565b6001600160a01b03811661072c5760405162461bcd60e51b815260206004820152602660248201527f4f776e61626c653a206e6577206f776e657220697320746865207a65726f206160448201526564647265737360d01b606482015260840161020a565b61073581610750565b50565b6000826107458584610854565b1490505b9392505050565b600080546001600160a01b038381166001600160a01b0319831681178455604051919092169283917f8be0079c531659141344cd1fd0a4f28419497f9722a3daafe3b4186f6b6457e09190a35050565b600060405160208101868660200281015b808210156107eb578135808710600181146107d1578186528785526107d8565b8786528185525b50506040842095506020820191506107b1565b50505092909114949350505050565b604080516001600160a01b0385811660248301528416604482015260648082018490528251808303909101815260849091019091526020810180516001600160e01b03166323b872dd60e01b1790526106979085906108c8565b600081815b84518110156108c057600085828151811061087657610876610d06565b6020026020010151905080831161089c57600083815260208290526040902092506108ad565b600081815260208490526040902092505b50806108b881610d86565b915050610859565b509392505050565b600061091d826040518060400160405280602081526020017f5361666545524332303a206c6f772d6c6576656c2063616c6c206661696c6564815250856001600160a01b031661099f9092919063ffffffff16565b80519091501561099a578080602001905181019061093b9190610daf565b61099a5760405162461bcd60e51b815260206004820152602a60248201527f5361666545524332303a204552433230206f7065726174696f6e20646964206e6044820152691bdd081cdd58d8d9595960b21b606482015260840161020a565b505050565b60606109ae84846000856109b6565b949350505050565b606082471015610a175760405162461bcd60e51b815260206004820152602660248201527f416464726573733a20696e73756666696369656e742062616c616e636520666f6044820152651c8818d85b1b60d21b606482015260840161020a565b6001600160a01b0385163b610a6e5760405162461bcd60e51b815260206004820152601d60248201527f416464726573733a2063616c6c20746f206e6f6e2d636f6e7472616374000000604482015260640161020a565b600080866001600160a01b03168587604051610a8a9190610dfd565b60006040518083038185875af1925050503d8060008114610ac7576040519150601f19603f3d011682016040523d82523d6000602084013e610acc565b606091505b5091509150610adc828286610ae7565b979650505050505050565b60608315610af6575081610749565b825115610b065782518084602001fd5b8160405162461bcd60e51b815260040161020a9190610e0f565b80356001600160a01b0381168114610b3757600080fd5b919050565b600060208284031215610b4e57600080fd5b61074982610b20565b60008083601f840112610b6957600080fd5b50813567ffffffffffffffff811115610b8157600080fd5b6020830191508360208260051b8501011115610b9c57600080fd5b9250929050565b60008060008060608587031215610bb957600080fd5b843567ffffffffffffffff811115610bd057600080fd5b610bdc87828801610b57565b90989097506020870135966040013595509350505050565b60008060008060008060a08789031215610c0d57600080fd5b610c1687610b20565b9550610c2460208801610b20565b94506040870135935060608701359250608087013567ffffffffffffffff811115610c4e57600080fd5b610c5a89828a01610b57565b979a9699509497509295939492505050565b600060208284031215610c7e57600080fd5b5035919050565b600080600060408486031215610c9a57600080fd5b83359250602084013567ffffffffffffffff811115610cb857600080fd5b610cc486828701610b57565b9497909650939450505050565b6020808252818101527f4f776e61626c653a2063616c6c6572206973206e6f7420746865206f776e6572604082015260600190565b634e487b7160e01b600052603260045260246000fd5b60008235607e19833603018112610d3257600080fd5b9190910192915050565b6000808335601e19843603018112610d5357600080fd5b83018035915067ffffffffffffffff821115610d6e57600080fd5b6020019150600581901b3603821315610b9c57600080fd5b6000600019821415610da857634e487b7160e01b600052601160045260246000fd5b5060010190565b600060208284031215610dc157600080fd5b8151801515811461074957600080fd5b60005b83811015610dec578181015183820152602001610dd4565b838111156106975750506000910152565b60008251610d32818460208701610dd1565b6020815260008251806020840152610e2e816040850160208701610dd1565b601f01601f1916919091016040019291505056fea26469706673582212202acefc1a480a68f12b53632dbb3fb1dbba159f08d17de0be43fe002aef291d2064736f6c63430008090033",
  "devdoc": {
    "kind": "dev",
    "methods": {
      "owner()": {
        "details": "Returns the address of the current owner."
      },
      "renounceOwnership()": {
        "details": "Leaves the contract without owner. It will not be possible to call `onlyOwner` functions anymore. Can only be called by the current owner. NOTE: Renouncing ownership will leave the contract without an owner, thereby removing any functionality that is only available to the owner."
      },
      "transferOwnership(address)": {
        "details": "Transfers ownership of the contract to a new account (`newOwner`). Can only be called by the current owner."
      }
    },
    "version": 1
  },
  "userdoc": {
    "kind": "user",
    "methods": {},
    "version": 1
  },
  "storageLayout": {
    "storage": [
      {
        "astId": 7,
        "contract": "contracts/CumulativeMerkleDrop.sol:CumulativeMerkleDrop",
        "label": "_owner",
        "offset": 0,
        "slot": "0",
        "type": "t_address"
      },
      {
        "astId": 1636,
        "contract": "contracts/CumulativeMerkleDrop.sol:CumulativeMerkleDrop",
        "label": "rewardsHolder",
        "offset": 0,
        "slot": "1",
        "type": "t_address"
      },
      {
        "astId": 1639,
        "contract": "contracts/CumulativeMerkleDrop.sol:CumulativeMerkleDrop",
        "label": "merkleRoot",
        "offset": 0,
        "slot": "2",
        "type": "t_bytes32"
      },
      {
        "astId": 1643,
        "contract": "contracts/CumulativeMerkleDrop.sol:CumulativeMerkleDrop",
        "label": "cumulativeClaimed",
        "offset": 0,
        "slot": "3",
        "type": "t_mapping(t_address,t_uint256)"
      }
    ],
    "types": {
      "t_address": {
        "encoding": "inplace",
        "label": "address",
        "numberOfBytes": "20"
      },
      "t_bytes32": {
        "encoding": "inplace",
        "label": "bytes32",
        "numberOfBytes": "32"
      },
      "t_mapping(t_address,t_uint256)": {
        "encoding": "mapping",
        "key": "t_address",
        "label": "mapping(address => uint256)",
        "numberOfBytes": "32",
        "value": "t_uint256"
      },
      "t_uint256": {
        "encoding": "inplace",
        "label": "uint256",
        "numberOfBytes": "32"
      }
    }
  }
}