{
  "address": "0xEE262aDCd9Ecc0476452e302Cf3C822F634DaFAF",
  "abi": [
    {
      "inputs": [
        {
          "internalType": "address",
          "name": "token_",
          "type": "address"
        }
      ],
      "stateMutability": "nonpayable",
      "type": "constructor"
    },
    {
      "anonymous": false,
      "inputs": [
        {
          "indexed": true,
          "internalType": "address",
          "name": "account",
          "type": "address"
        },
        {
          "indexed": false,
          "internalType": "uint256",
          "name": "amount",
          "type": "uint256"
        }
      ],
      "name": "Claimed",
      "type": "event"
    },
    {
      "anonymous": false,
      "inputs": [
        {
          "indexed": false,
          "internalType": "bytes32",
          "name": "oldMerkleRoot",
          "type": "bytes32"
        },
        {
          "indexed": false,
          "internalType": "bytes32",
          "name": "newMerkleRoot",
          "type": "bytes32"
        }
      ],
      "name": "MerkelRootUpdated",
      "type": "event"
    },
    {
      "anonymous": false,
      "inputs": [
        {
          "indexed": true,
          "internalType": "address",
          "name": "previousOwner",
          "type": "address"
        },
        {
          "indexed": true,
          "internalType": "address",
          "name": "newOwner",
          "type": "address"
        }
      ],
      "name": "OwnershipTransferred",
      "type": "event"
    },
    {
      "inputs": [
        {
          "internalType": "address",
          "name": "account",
          "type": "address"
        },
        {
          "internalType": "uint256",
          "name": "cumulativeAmount",
          "type": "uint256"
        },
        {
          "internalType": "bytes32",
          "name": "expectedMerkleRoot",
          "type": "bytes32"
        },
        {
          "internalType": "bytes32[]",
          "name": "merkleProof",
          "type": "bytes32[]"
        }
      ],
      "name": "claim",
      "outputs": [],
      "stateMutability": "nonpayable",
      "type": "function"
    },
    {
      "inputs": [
        {
          "internalType": "address",
          "name": "",
          "type": "address"
        }
      ],
      "name": "cumulativeClaimed",
      "outputs": [
        {
          "internalType": "uint256",
          "name": "",
          "type": "uint256"
        }
      ],
      "stateMutability": "view",
      "type": "function"
    },
    {
      "inputs": [],
      "name": "merkleRoot",
      "outputs": [
        {
          "internalType": "bytes32",
          "name": "",
          "type": "bytes32"
        }
      ],
      "stateMutability": "view",
      "type": "function"
    },
    {
      "inputs": [],
      "name": "owner",
      "outputs": [
        {
          "internalType": "address",
          "name": "",
          "type": "address"
        }
      ],
      "stateMutability": "view",
      "type": "function"
    },
    {
      "inputs": [],
      "name": "renounceOwnership",
      "outputs": [],
      "stateMutability": "nonpayable",
      "type": "function"
    },
    {
      "inputs": [
        {
          "internalType": "bytes32",
          "name": "merkleRoot_",
          "type": "bytes32"
        }
      ],
      "name": "setMerkleRoot",
      "outputs": [],
      "stateMutability": "nonpayable",
      "type": "function"
    },
    {
      "inputs": [],
      "name": "token",
      "outputs": [
        {
          "internalType": "address",
          "name": "",
          "type": "address"
        }
      ],
      "stateMutability": "view",
      "type": "function"
    },
    {
      "inputs": [
        {
          "internalType": "address",
          "name": "newOwner",
          "type": "address"
        }
      ],
      "name": "transferOwnership",
      "outputs": [],
      "stateMutability": "nonpayable",
      "type": "function"
    }
  ],
  "transactionHash": "0x44b9f818789aef006e53fa7f6ca11f2904df2131a18dabe1f464725179079c4e",
  "args": [
    "0x111111111117dC0aa78b770fA6A738034120C302"
  ],
  "solcInputHash": "3c0104b6cc56f2ca2eee1446b838778a",
  "bytecode": "0x60a060405234801561001057600080fd5b50604051610d9e380380610d9e83398101604081905261002f9161009d565b6100383361004d565b60601b6001600160601b0319166080526100cd565b600080546001600160a01b038381166001600160a01b0319831681178455604051919092169283917f8be0079c531659141344cd1fd0a4f28419497f9722a3daafe3b4186f6b6457e09190a35050565b6000602082840312156100af57600080fd5b81516001600160a01b03811681146100c657600080fd5b9392505050565b60805160601c610cac6100f260003960008181610150015261036a0152610cac6000f3fe608060405234801561001057600080fd5b50600436106100885760003560e01c80638da5cb5b1161005b5780638da5cb5b146100d9578063a991957614610118578063f2fde38b14610138578063fc0c546a1461014b57600080fd5b80631d7d4ebc1461008d5780632eb4a7ab146100a2578063715018a6146100be5780637cb64759146100c6575b600080fd5b6100a061009b366004610b07565b610172565b005b6100ab60015481565b6040519081526020015b60405180910390f35b6100a06103eb565b6100a06100d4366004610bc0565b610478565b60005473ffffffffffffffffffffffffffffffffffffffff165b60405173ffffffffffffffffffffffffffffffffffffffff90911681526020016100b5565b6100ab610126366004610aec565b60026020526000908152604090205481565b6100a0610146366004610aec565b61053a565b6100f37f000000000000000000000000000000000000000000000000000000000000000081565b82600154146101e2576040517f08c379a000000000000000000000000000000000000000000000000000000000815260206004820152601c60248201527f434d443a204d65726b6c6520726f6f742077617320757064617465640000000060448201526064015b60405180910390fd5b6040517fffffffffffffffffffffffffffffffffffffffff000000000000000000000000606087901b166020820152603481018590526000906054016040516020818303038152906040528051906020012090506102428383868461066a565b6102a8576040517f08c379a000000000000000000000000000000000000000000000000000000000815260206004820152601260248201527f434d443a20496e76616c69642070726f6f66000000000000000000000000000060448201526064016101d9565b73ffffffffffffffffffffffffffffffffffffffff8616600090815260026020526040902054858110610337576040517f08c379a000000000000000000000000000000000000000000000000000000000815260206004820152601560248201527f434d443a204e6f7468696e6720746f20636c61696d000000000000000000000060448201526064016101d9565b73ffffffffffffffffffffffffffffffffffffffff808816600090815260026020526040902087905581870390610391907f00000000000000000000000000000000000000000000000000000000000000001689836106c4565b8773ffffffffffffffffffffffffffffffffffffffff167fd8138f8a3f377c5259ca548e70e4c2de94f129f5a11036a15b69513cba2b426a826040516103d991815260200190565b60405180910390a25050505050505050565b60005473ffffffffffffffffffffffffffffffffffffffff16331461046c576040517f08c379a000000000000000000000000000000000000000000000000000000000815260206004820181905260248201527f4f776e61626c653a2063616c6c6572206973206e6f7420746865206f776e657260448201526064016101d9565b6104766000610756565b565b60005473ffffffffffffffffffffffffffffffffffffffff1633146104f9576040517f08c379a000000000000000000000000000000000000000000000000000000000815260206004820181905260248201527f4f776e61626c653a2063616c6c6572206973206e6f7420746865206f776e657260448201526064016101d9565b60015460408051918252602082018390527f936fd71fceff3b4f98f4935ac269e4f94b4b25e3e38c519d3ff3db222a27117a910160405180910390a1600155565b60005473ffffffffffffffffffffffffffffffffffffffff1633146105bb576040517f08c379a000000000000000000000000000000000000000000000000000000000815260206004820181905260248201527f4f776e61626c653a2063616c6c6572206973206e6f7420746865206f776e657260448201526064016101d9565b73ffffffffffffffffffffffffffffffffffffffff811661065e576040517f08c379a000000000000000000000000000000000000000000000000000000000815260206004820152602660248201527f4f776e61626c653a206e6577206f776e657220697320746865207a65726f206160448201527f646472657373000000000000000000000000000000000000000000000000000060648201526084016101d9565b61066781610756565b50565b600060405160208101868660200281015b808210156106b55781358087106001811461069b578186528785526106a2565b8786528185525b505060408420955060208201915061067b565b50505092909114949350505050565b6040805173ffffffffffffffffffffffffffffffffffffffff8416602482015260448082018490528251808303909101815260649091019091526020810180517bffffffffffffffffffffffffffffffffffffffffffffffffffffffff167fa9059cbb000000000000000000000000000000000000000000000000000000001790526107519084906107cb565b505050565b6000805473ffffffffffffffffffffffffffffffffffffffff8381167fffffffffffffffffffffffff0000000000000000000000000000000000000000831681178455604051919092169283917f8be0079c531659141344cd1fd0a4f28419497f9722a3daafe3b4186f6b6457e09190a35050565b600061082d826040518060400160405280602081526020017f5361666545524332303a206c6f772d6c6576656c2063616c6c206661696c65648152508573ffffffffffffffffffffffffffffffffffffffff166108d79092919063ffffffff16565b805190915015610751578080602001905181019061084b9190610b9e565b610751576040517f08c379a000000000000000000000000000000000000000000000000000000000815260206004820152602a60248201527f5361666545524332303a204552433230206f7065726174696f6e20646964206e60448201527f6f7420737563636565640000000000000000000000000000000000000000000060648201526084016101d9565b60606108e684846000856108f0565b90505b9392505050565b606082471015610982576040517f08c379a000000000000000000000000000000000000000000000000000000000815260206004820152602660248201527f416464726573733a20696e73756666696369656e742062616c616e636520666f60448201527f722063616c6c000000000000000000000000000000000000000000000000000060648201526084016101d9565b843b6109ea576040517f08c379a000000000000000000000000000000000000000000000000000000000815260206004820152601d60248201527f416464726573733a2063616c6c20746f206e6f6e2d636f6e747261637400000060448201526064016101d9565b6000808673ffffffffffffffffffffffffffffffffffffffff168587604051610a139190610bd9565b60006040518083038185875af1925050503d8060008114610a50576040519150601f19603f3d011682016040523d82523d6000602084013e610a55565b606091505b5091509150610a65828286610a70565b979650505050505050565b60608315610a7f5750816108e9565b825115610a8f5782518084602001fd5b816040517f08c379a00000000000000000000000000000000000000000000000000000000081526004016101d99190610bf5565b803573ffffffffffffffffffffffffffffffffffffffff81168114610ae757600080fd5b919050565b600060208284031215610afe57600080fd5b6108e982610ac3565b600080600080600060808688031215610b1f57600080fd5b610b2886610ac3565b94506020860135935060408601359250606086013567ffffffffffffffff80821115610b5357600080fd5b818801915088601f830112610b6757600080fd5b813581811115610b7657600080fd5b8960208260051b8501011115610b8b57600080fd5b9699959850939650602001949392505050565b600060208284031215610bb057600080fd5b815180151581146108e957600080fd5b600060208284031215610bd257600080fd5b5035919050565b60008251610beb818460208701610c46565b9190910192915050565b6020815260008251806020840152610c14816040850160208701610c46565b601f017fffffffffffffffffffffffffffffffffffffffffffffffffffffffffffffffe0169190910160400192915050565b60005b83811015610c61578181015183820152602001610c49565b83811115610c70576000848401525b5050505056fea26469706673582212209e22d2d95a24c338efa0af551ea9c3ec8e152d14b22d62be56b5631cb5c57de164736f6c63430008060033",
  "devdoc": {
    "kind": "dev",
    "methods": {
      "owner()": {
        "details": "Returns the address of the current owner."
      },
      "renounceOwnership()": {
        "details": "Leaves the contract without owner. It will not be possible to call `onlyOwner` functions anymore. Can only be called by the current owner. NOTE: Renouncing ownership will leave the contract without an owner, thereby removing any functionality that is only available to the owner."
      },
      "transferOwnership(address)": {
        "details": "Transfers ownership of the contract to a new account (`newOwner`). Can only be called by the current owner."
      }
    },
    "version": 1
  },
  "userdoc": {
    "kind": "user",
    "methods": {},
    "version": 1
  },
  "storageLayout": {
    "storage": [
      {
        "astId": 7,
        "contract": "contracts/CumulativeMerkleDrop.sol:CumulativeMerkleDrop",
        "label": "_owner",
        "offset": 0,
        "slot": "0",
        "type": "t_address"
      },
      {
        "astId": 1386,
        "contract": "contracts/CumulativeMerkleDrop.sol:CumulativeMerkleDrop",
        "label": "merkleRoot",
        "offset": 0,
        "slot": "1",
        "type": "t_bytes32"
      },
      {
        "astId": 1390,
        "contract": "contracts/CumulativeMerkleDrop.sol:CumulativeMerkleDrop",
        "label": "cumulativeClaimed",
        "offset": 0,
        "slot": "2",
        "type": "t_mapping(t_address,t_uint256)"
      }
    ],
    "types": {
      "t_address": {
        "encoding": "inplace",
        "label": "address",
        "numberOfBytes": "20"
      },
      "t_bytes32": {
        "encoding": "inplace",
        "label": "bytes32",
        "numberOfBytes": "32"
      },
      "t_mapping(t_address,t_uint256)": {
        "encoding": "mapping",
        "key": "t_address",
        "label": "mapping(address => uint256)",
        "numberOfBytes": "32",
        "value": "t_uint256"
      },
      "t_uint256": {
        "encoding": "inplace",
        "label": "uint256",
        "numberOfBytes": "32"
      }
    }
  }
}