{
  "address": "0x9cE614c00427Dc9c53dDF6E877Fd2ff71be1B35D",
  "abi": [
    {
      "inputs": [
        {
          "internalType": "address",
          "name": "token_",
          "type": "address"
        },
        {
          "internalType": "bytes16",
          "name": "merkleRoot_",
          "type": "bytes16"
        },
        {
          "internalType": "uint256",
          "name": "depth_",
          "type": "uint256"
        }
      ],
      "stateMutability": "nonpayable",
      "type": "constructor"
    },
    {
      "anonymous": false,
      "inputs": [
        {
          "indexed": true,
          "internalType": "address",
          "name": "previousOwner",
          "type": "address"
        },
        {
          "indexed": true,
          "internalType": "address",
          "name": "newOwner",
          "type": "address"
        }
      ],
      "name": "OwnershipTransferred",
      "type": "event"
    },
    {
      "inputs": [
        {
          "internalType": "address",
          "name": "receiver",
          "type": "address"
        },
        {
          "internalType": "uint256",
          "name": "amount",
          "type": "uint256"
        },
        {
          "internalType": "bytes",
          "name": "merkleProof",
          "type": "bytes"
        },
        {
          "internalType": "bytes",
          "name": "signature",
          "type": "bytes"
        }
      ],
      "name": "claim",
      "outputs": [],
      "stateMutability": "nonpayable",
      "type": "function"
    },
    {
      "inputs": [],
      "name": "depth",
      "outputs": [
        {
          "internalType": "uint256",
          "name": "",
          "type": "uint256"
        }
      ],
      "stateMutability": "view",
      "type": "function"
    },
    {
      "inputs": [
        {
          "internalType": "uint256",
          "name": "index",
          "type": "uint256"
        }
      ],
      "name": "isClaimed",
      "outputs": [
        {
          "internalType": "bool",
          "name": "",
          "type": "bool"
        }
      ],
      "stateMutability": "view",
      "type": "function"
    },
    {
      "inputs": [],
      "name": "merkleRoot",
      "outputs": [
        {
          "internalType": "bytes16",
          "name": "",
          "type": "bytes16"
        }
      ],
      "stateMutability": "view",
      "type": "function"
    },
    {
      "inputs": [],
      "name": "owner",
      "outputs": [
        {
          "internalType": "address",
          "name": "",
          "type": "address"
        }
      ],
      "stateMutability": "view",
      "type": "function"
    },
    {
      "inputs": [],
      "name": "renounceOwnership",
      "outputs": [],
      "stateMutability": "nonpayable",
      "type": "function"
    },
    {
      "inputs": [],
      "name": "token",
      "outputs": [
        {
          "internalType": "address",
          "name": "",
          "type": "address"
        }
      ],
      "stateMutability": "view",
      "type": "function"
    },
    {
      "inputs": [
        {
          "internalType": "address",
          "name": "newOwner",
          "type": "address"
        }
      ],
      "name": "transferOwnership",
      "outputs": [],
      "stateMutability": "nonpayable",
      "type": "function"
    },
    {
      "inputs": [
        {
          "internalType": "bytes",
          "name": "proof",
          "type": "bytes"
        },
        {
          "internalType": "bytes16",
          "name": "root",
          "type": "bytes16"
        },
        {
          "internalType": "bytes16",
          "name": "leaf",
          "type": "bytes16"
        }
      ],
      "name": "verify",
      "outputs": [
        {
          "internalType": "bool",
          "name": "valid",
          "type": "bool"
        },
        {
          "internalType": "uint256",
          "name": "index",
          "type": "uint256"
        }
      ],
      "stateMutability": "view",
      "type": "function"
    },
    {
      "inputs": [
        {
          "internalType": "address payable",
          "name": "target",
          "type": "address"
        },
        {
          "internalType": "uint256",
          "name": "amount",
          "type": "uint256"
        }
      ],
      "name": "withdrawEther",
      "outputs": [],
      "stateMutability": "nonpayable",
      "type": "function"
    },
    {
      "stateMutability": "payable",
      "type": "receive"
    }
  ],
  "transactionHash": "0x68c2974d9e6405fa0603bef8cd0e0017ccedb604d6ec20bf0a9bc09ce10fc80e",
  "args": [
    "0x111111111117dC0aa78b770fA6A738034120C302",
    "0x8d75e829b65729ab44ed5117daec9c21",
    10
  ],
  "solcInputHash": "226053de16ebba4dd8dbfec225bdf9e0",
  "bytecode": "0x60e060405234801561001057600080fd5b5060405161175d38038061175d8339818101604052606081101561003357600080fd5b508051602082015160409092015190919061004d33610070565b6001600160a01b039092166080526001600160801b03191660a05260c0526100c0565b600080546001600160a01b038381166001600160a01b0319831681178455604051919092169283917f8be0079c531659141344cd1fd0a4f28419497f9722a3daafe3b4186f6b6457e09190a35050565b60805160a05160c05161165a6101036000396000818161024601526109cf01526000818160d3015261074101526000818161046001526107f9015261165a6000f3fe6080604052600436106100b55760003560e01c80638da5cb5b11610069578063b33302c71161004e578063b33302c71461031d578063f2fde38b1461040e578063fc0c546a1461044e57600080fd5b80638da5cb5b1461028f5780639e34070f146102df57600080fd5b8063522f68151161009a578063522f6815146101ec578063631c56ef14610234578063715018a61461027a57600080fd5b80632eb4a7ab146100c15780633956851b1461012a57600080fd5b366100bc57005b600080fd5b3480156100cd57600080fd5b506100f57f000000000000000000000000000000000000000000000000000000000000000081565b604080517fffffffffffffffffffffffffffffffff000000000000000000000000000000009092168252519081900360200190f35b34801561013657600080fd5b506101d16004803603606081101561014d57600080fd5b81019060208101813564010000000081111561016857600080fd5b82018360208201111561017a57600080fd5b8035906020019184600183028401116401000000008311171561019c57600080fd5b91935091507fffffffffffffffffffffffffffffffff0000000000000000000000000000000081358116916020013516610482565b60408051921515835260208301919091528051918290030190f35b3480156101f857600080fd5b506102326004803603604081101561020f57600080fd5b5073ffffffffffffffffffffffffffffffffffffffff813516906020013561049f565b005b34801561024057600080fd5b506102687f000000000000000000000000000000000000000000000000000000000000000081565b60408051918252519081900360200190f35b34801561028657600080fd5b50610232610549565b34801561029b57600080fd5b5060005473ffffffffffffffffffffffffffffffffffffffff165b6040805173ffffffffffffffffffffffffffffffffffffffff9092168252519081900360200190f35b3480156102eb57600080fd5b506103096004803603602081101561030257600080fd5b50356105d6565b604080519115158252519081900360200190f35b34801561032957600080fd5b506102326004803603608081101561034057600080fd5b73ffffffffffffffffffffffffffffffffffffffff8235169160208101359181019060608101604082013564010000000081111561037d57600080fd5b82018360208201111561038f57600080fd5b803590602001918460018302840111640100000000831117156103b157600080fd5b9193909290916020810190356401000000008111156103cf57600080fd5b8201836020820111156103e157600080fd5b8035906020019184600183028401116401000000008311171561040357600080fd5b509092509050610617565b34801561041a57600080fd5b506102326004803603602081101561043157600080fd5b503573ffffffffffffffffffffffffffffffffffffffff16610835565b34801561045a57600080fd5b506102b67f000000000000000000000000000000000000000000000000000000000000000081565b60008061049186868686610965565b915091505b94509492505050565b60005473ffffffffffffffffffffffffffffffffffffffff163314610525576040517f08c379a000000000000000000000000000000000000000000000000000000000815260206004820181905260248201527f4f776e61626c653a2063616c6c6572206973206e6f7420746865206f776e657260448201526064015b60405180910390fd5b61054573ffffffffffffffffffffffffffffffffffffffff8316826109f5565b5050565b60005473ffffffffffffffffffffffffffffffffffffffff1633146105ca576040517f08c379a000000000000000000000000000000000000000000000000000000000815260206004820181905260248201527f4f776e61626c653a2063616c6c6572206973206e6f7420746865206f776e6572604482015260640161051c565b6105d46000610b54565b565b6000806105e5610100846114aa565b905060006105f5610100856114be565b60009283526001602081905260409093205492901b9182169091149392505050565b604080517fffffffffffffffffffffffffffffffffffffffff000000000000000000000000606089901b16602080830191909152825180830360140181526034830184528051908201207f19457468657265756d205369676e6564204d6573736167653a0a3332000000006054840152607080840191909152835180840390910181526090909201909252805191012060006106e98285858080601f016020809104026020016040519081016040528093929190818152602001838380828437600092019190915250610bc992505050565b905060008188604051602001808373ffffffffffffffffffffffffffffffffffffffff1660601b81526014018281526020019250505060405160208183030381529060405280519060200120905060008061076689897f000000000000000000000000000000000000000000000000000000000000000086610965565b91509150816107d657604080517f08c379a000000000000000000000000000000000000000000000000000000000815260206004820152601160248201527f4d443a20496e76616c69642070726f6f66000000000000000000000000000000604482015290519081900360640190fd5b6107df81610bed565b61082073ffffffffffffffffffffffffffffffffffffffff7f0000000000000000000000000000000000000000000000000000000000000000168c8c610c94565b610828610d21565b5050505050505050505050565b60005473ffffffffffffffffffffffffffffffffffffffff1633146108b6576040517f08c379a000000000000000000000000000000000000000000000000000000000815260206004820181905260248201527f4f776e61626c653a2063616c6c6572206973206e6f7420746865206f776e6572604482015260640161051c565b73ffffffffffffffffffffffffffffffffffffffff8116610959576040517f08c379a000000000000000000000000000000000000000000000000000000000815260206004820152602660248201527f4f776e61626c653a206e6577206f776e657220697320746865207a65726f206160448201527f6464726573730000000000000000000000000000000000000000000000000000606482015260840161051c565b61096281610b54565b50565b600080604051601081018760018882015b808310156109ba5782358089106001811461099a57818752898652968317966109a1565b8987528186525b50506020852097508160011b9150601083019250610976565b50505050509190921860801c159460109093047f0000000000000000000000000000000000000000000000000000000000000000031b925050565b80471015610a5f576040517f08c379a000000000000000000000000000000000000000000000000000000000815260206004820152601d60248201527f416464726573733a20696e73756666696369656e742062616c616e6365000000604482015260640161051c565b60008273ffffffffffffffffffffffffffffffffffffffff168260405160006040518083038185875af1925050503d8060008114610ab9576040519150601f19603f3d011682016040523d82523d6000602084013e610abe565b606091505b5050905080610b4f576040517f08c379a000000000000000000000000000000000000000000000000000000000815260206004820152603a60248201527f416464726573733a20756e61626c6520746f2073656e642076616c75652c207260448201527f6563697069656e74206d61792068617665207265766572746564000000000000606482015260840161051c565b505050565b6000805473ffffffffffffffffffffffffffffffffffffffff8381167fffffffffffffffffffffffff0000000000000000000000000000000000000000831681178455604051919092169283917f8be0079c531659141344cd1fd0a4f28419497f9722a3daafe3b4186f6b6457e09190a35050565b6000806000610bd88585610d47565b91509150610be581610db7565b509392505050565b600881901c60008181526001602081905260409091205460ff841691821b811780821415610c7c57604080517f08c379a000000000000000000000000000000000000000000000000000000000815260206004820152601860248201527f4d443a2044726f7020616c726561647920636c61696d65640000000000000000604482015290519081900360640190fd5b60009384526001602052604090932092909255505050565b6040805173ffffffffffffffffffffffffffffffffffffffff8416602482015260448082018490528251808303909101815260649091019091526020810180517bffffffffffffffffffffffffffffffffffffffffffffffffffffffff167fa9059cbb00000000000000000000000000000000000000000000000000000000179052610b4f908490611010565b47801561096257610962610d40610d3a61ea60486114d2565b8361111c565b32906109f5565b600080825160411415610d7e5760208301516040840151606085015160001a610d7287828585611134565b94509450505050610db0565b825160401415610da85760208301516040840151610d9d868383611249565b935093505050610db0565b506000905060025b9250929050565b6000816004811115610dcb57610dcb611536565b1415610dd45750565b6001816004811115610de857610de8611536565b1415610e50576040517f08c379a000000000000000000000000000000000000000000000000000000000815260206004820152601860248201527f45434453413a20696e76616c6964207369676e61747572650000000000000000604482015260640161051c565b6002816004811115610e6457610e64611536565b1415610ecc576040517f08c379a000000000000000000000000000000000000000000000000000000000815260206004820152601f60248201527f45434453413a20696e76616c6964207369676e6174757265206c656e67746800604482015260640161051c565b6003816004811115610ee057610ee0611536565b1415610f6e576040517f08c379a000000000000000000000000000000000000000000000000000000000815260206004820152602260248201527f45434453413a20696e76616c6964207369676e6174757265202773272076616c60448201527f7565000000000000000000000000000000000000000000000000000000000000606482015260840161051c565b6004816004811115610f8257610f82611536565b1415610962576040517f08c379a000000000000000000000000000000000000000000000000000000000815260206004820152602260248201527f45434453413a20696e76616c6964207369676e6174757265202776272076616c60448201527f7565000000000000000000000000000000000000000000000000000000000000606482015260840161051c565b6000611072826040518060400160405280602081526020017f5361666545524332303a206c6f772d6c6576656c2063616c6c206661696c65648152508573ffffffffffffffffffffffffffffffffffffffff166112919092919063ffffffff16565b805190915015610b4f57808060200190518101906110909190611565565b610b4f576040517f08c379a000000000000000000000000000000000000000000000000000000000815260206004820152602a60248201527f5361666545524332303a204552433230206f7065726174696f6e20646964206e60448201527f6f74207375636365656400000000000000000000000000000000000000000000606482015260840161051c565b600081831061112b578161112d565b825b9392505050565b6000807f7fffffffffffffffffffffffffffffff5d576e7357a4501ddfe92f46681b20a083111561116b5750600090506003610496565b8460ff16601b1415801561118357508460ff16601c14155b156111945750600090506004610496565b6040805160008082526020820180845289905260ff881692820192909252606081018690526080810185905260019060a0016020604051602081039080840390855afa1580156111e8573d6000803e3d6000fd5b50506040517fffffffffffffffffffffffffffffffffffffffffffffffffffffffffffffffe0015191505073ffffffffffffffffffffffffffffffffffffffff811661123c57600060019250925050610496565b9660009650945050505050565b6000807f7fffffffffffffffffffffffffffffffffffffffffffffffffffffffffffffff831660ff84901c601b0161128387828885611134565b935093505050935093915050565b60606112a084846000856112a8565b949350505050565b60608247101561133a576040517f08c379a000000000000000000000000000000000000000000000000000000000815260206004820152602660248201527f416464726573733a20696e73756666696369656e742062616c616e636520666f60448201527f722063616c6c0000000000000000000000000000000000000000000000000000606482015260840161051c565b843b6113a2576040517f08c379a000000000000000000000000000000000000000000000000000000000815260206004820152601d60248201527f416464726573733a2063616c6c20746f206e6f6e2d636f6e7472616374000000604482015260640161051c565b6000808673ffffffffffffffffffffffffffffffffffffffff1685876040516113cb91906115b7565b60006040518083038185875af1925050503d8060008114611408576040519150601f19603f3d011682016040523d82523d6000602084013e61140d565b606091505b509150915061141d828286611428565b979650505050505050565b6060831561143757508161112d565b8251156114475782518084602001fd5b816040517f08c379a000000000000000000000000000000000000000000000000000000000815260040161051c91906115d3565b7f4e487b7100000000000000000000000000000000000000000000000000000000600052601260045260246000fd5b6000826114b9576114b961147b565b500490565b6000826114cd576114cd61147b565b500690565b6000817fffffffffffffffffffffffffffffffffffffffffffffffffffffffffffffffff0483118215151615611531577f4e487b7100000000000000000000000000000000000000000000000000000000600052601160045260246000fd5b500290565b7f4e487b7100000000000000000000000000000000000000000000000000000000600052602160045260246000fd5b60006020828403121561157757600080fd5b8151801515811461112d57600080fd5b60005b838110156115a257818101518382015260200161158a565b838111156115b1576000848401525b50505050565b600082516115c9818460208701611587565b9190910192915050565b60208152600082518060208401526115f2816040850160208701611587565b601f017fffffffffffffffffffffffffffffffffffffffffffffffffffffffffffffffe016919091016040019291505056fea2646970667358221220f6a661a0e01190be6c89097b35f2212aa98fce8bc05621484b9ce0eabeee930a64736f6c63430008090033",
  "devdoc": {
    "kind": "dev",
    "methods": {
      "owner()": {
        "details": "Returns the address of the current owner."
      },
      "renounceOwnership()": {
        "details": "Leaves the contract without owner. It will not be possible to call `onlyOwner` functions anymore. Can only be called by the current owner. NOTE: Renouncing ownership will leave the contract without an owner, thereby removing any functionality that is only available to the owner."
      },
      "transferOwnership(address)": {
        "details": "Transfers ownership of the contract to a new account (`newOwner`). Can only be called by the current owner."
      }
    },
    "version": 1
  },
  "userdoc": {
    "kind": "user",
    "methods": {},
    "version": 1
  },
  "storageLayout": {
    "storage": [
      {
        "astId": 7,
        "contract": "contracts/MerkleDrop128.sol:MerkleDrop128",
        "label": "_owner",
        "offset": 0,
        "slot": "0",
        "type": "t_address"
      },
      {
        "astId": 2156,
        "contract": "contracts/MerkleDrop128.sol:MerkleDrop128",
        "label": "_claimedBitMap",
        "offset": 0,
        "slot": "1",
        "type": "t_mapping(t_uint256,t_uint256)"
      }
    ],
    "types": {
      "t_address": {
        "encoding": "inplace",
        "label": "address",
        "numberOfBytes": "20"
      },
      "t_mapping(t_uint256,t_uint256)": {
        "encoding": "mapping",
        "key": "t_uint256",
        "label": "mapping(uint256 => uint256)",
        "numberOfBytes": "32",
        "value": "t_uint256"
      },
      "t_uint256": {
        "encoding": "inplace",
        "label": "uint256",
        "numberOfBytes": "32"
      }
    }
  }
}